:0200000480007A
:100000009702000093824201739052306F10002AD1
:020010000000EE
:02001200FFFFEE
:100014005D7106C00EC212C416C61AC81ECA72CCBE
:1000240076CE7AD07ED22AD42ED632D836DA3ADCBC
:100034003EDEC2C0C6C2F322103496C4F32200309E
:1000440096C6EF00E01A1303000005E9F3222034FA
:10005400B70300809383F3FFB3F272002D43638AE6
:10006400620013050100970000009380E0116F10F7
:10007400801AA642910296C441A0930201009753AC
:1000840000009383E38C03A14300411116C003AE27
:100094000300050E23A0C3016308030097000000BA
:1000A400938080036F10401D73252034B7020080B5
:1000B4009382F2FF33755500EF00801297320000EF
:1000C4009382C20D0E05AA9203A5020003A3420067
:1000D400E7000300175300001303838783230300FF
:1000E400FD132320730082421381020083238300C3
:1000F400032E030263087E08975200009382428510
:1001040003A382002326830223289302232A2303A2
:10011400232C3303232E4303232053052322630577
:10012400232473052326830523289305232AA30563
:10013400232CB305232423029743000093838319BC
:1001440003AE03002326C30703A3020223A4620011
:10015400032183020324C3028324030303294303E7
:1001640083298303032AC303832A0304032B43043D
:10017400832B8304032CC304832C0305032D430521
:10018400832D8305A64273901234B64273900230D5
:10019400824092412242B2424243D243624EF24EE4
:1001A400025F925F2255B2554256D2566257F257B9
:1001B4000648964861617300203000007300000017
:1001C400974200009382C27803A382008323C3066C
:1001D4002189F322053013850300678000000000A5
:1001E4000543B312A30073B34234678000000000D8
:1001F400F322203437030080B3F2620013050000B9
:0A0204006383020005056780000017
:02020E00FFFFF0
:10021000130101FD232291022328610123261102EB
:100220002324810223202103232E3101232C410189
:10023000232A5101232671012324810123229101C4
:10024000130B050093840500639C06381304060015
:1002500093090500173900001309890E63F8C512C8
:10026000B7070100938A05006378F6109306F00F34
:10027000B3B6C60093963600B357D6003309F900DB
:1002800003470900B306D700130700023307D7401E
:10029000630C0700B394E400B356DB003314E600AC
:1002A000B3EA9600B319EB00135B040193050B004E
:1002B00013850A00EF0040631309050093050B0046
:1002C000931B040113850A00EF00805D93DB0B0193
:1002D000930405009305050013850B00EF00805083
:1002E0001319090113D709013367E900138A0400C0
:1002F000637EA70033078700138AF4FF63688700D3
:100300006376A700138AE4FF33078700B304A7408E
:1003100093050B0013850400EF00005D1309050031
:1003200093050B0013850400EF0080579399090192
:1003300093040500930505001319090113850B00AB
:1003400093D90901EF00004AB3693901138604000B
:1003500063FCA900B30934011386F4FF63E6890046
:1003600063F4A9001386E4FF93170A01B3E7C700FB
:10037000130A00006F000013B70700019306000185
:10038000E36CF6EE930680016FF01FEF138A060010
:10039000631A06009305000013051000EF0040509B
:1003A00013040500B7070100637CF4129307F00FF4
:1003B00063F48700130A8000B35744013309F9003E
:1003C0008346090013060002B38646013306D64071
:1003D00063120612B3848440130A1000135B0401F5
:1003E00093050B0013850400EF000050130905006E
:1003F00093050B0013850400931B0401EF00404A92
:1004000093DB0B01930405009305050013850B0096
:10041000EF00403D1319090113D709013367E900C3
:10042000938A0400637EA70033078700938AF4FF52
:10043000636887006376A700938AE4FF3307870029
:10044000B304A74093050B0013850400EF00C049D7
:100450001309050093050B0013850400EF004044C9
:1004600093990901930405009305050013190901E7
:1004700013850B0093D90901EF00C036B369390128
:100480001386040063FCA900B30934011386F4FF4A
:1004900063E6890063F4A9001386E4FF93970A01D9
:1004A000B3E7C7001385070093050A008320C10244
:1004B0000324810283244102032901028329C1010B
:1004C000032A8101832A4101032B0101832BC100EF
:1004D000032C8100832C410013010103678000007D
:1004E000B7070001130A0001E368F4EC130A800166
:1004F0006FF09FEC3314C40033DAD400B319CB008F
:10050000B356DB00135B0401B394C40093050B00E6
:1005100013050A00B3EA9600EF00003D1309050039
:1005200093050B0013050A00931B0401EF004037ED
:1005300093DB0B01930405009305050013850B0065
:10054000EF00402A1319090113D70A013367E900A4
:10055000138A0400637EA70033078700138AF4FF21
:10056000636887006376A700138AE4FF3307870078
:10057000B304A74093050B0013850400EF00C036B9
:100580001309050093050B0013850400EF004031AB
:10059000930405009305050013850B00EF008024EC
:1005A00093960A011319090193D60601B367D9007E
:1005B0001387040063FEA700B38787001387F4FF47
:1005C00063E8870063F6A7001387E4FFB38787001B
:1005D000131A0A01B384A740336AEA006FF01FE0E0
:1005E00063ECD51EB707010063F4F6049305F00F22
:1005F00033B5D5001315350033D7A6009737000063
:10060000938707D4B387E70083C50700130A000266
:10061000B385A500330ABA4063160A029307100097
:10062000E3E296E83336CB00934716006FF09FE77E
:10063000B707000113050001E3E0F6FC1305800194
:100640006FF09FFBB35AB600B3964601B3EADA00E7
:1006500033D9B400B3974401B355BB0093DB0A010F
:10066000B3E4F5001305090093850B00B3194601A7
:10067000EF0080271304050093850B001305090084
:10068000139C0A01EF00C021135C0C011309050043
:100690009305050013050C00EF00C01413140401AA
:1006A00013D704013367E400930C0900637EA700AD
:1006B00033075701930CF9FF636857016376A7006E
:1006C000930CE9FF330757013309A74093850B00CB
:1006D00013050900EF0040211304050093850B006A
:1006E00013050900EF00C01B130905009305050061
:1006F00013050C00EF00000F93970401131404017D
:1007000093D707013367F40013060900637EA7003F
:10071000330757011306F9FF636857016376A70093
:100720001306E9FF3307570193970C01370E0100B9
:10073000B3E7C7001308FEFF33F3070133F80901DD
:100740003307A74093DE070193D90901130503007E
:1007500093050800EF000009930805009385090040
:1007600013050300EF0000081303050093050800BC
:1007700013850E00EF00000713080500938509009C
:1007800013850E00EF00000693D608013303030122
:10079000B386660063F406013305C50113D606016E
:1007A0003305A6006366A702E314A7BC3707010060
:1007B0001307F7FFB3F6E60093960601B3F8E800D7
:1007C00033164B01B3861601130A0000E37CD6CC26
:1007D0009387F7FF6FF0DFB9130A0000930700005B
:1007E0006FF05FCC130605001305000093F61500AB
:1007F000638406003305C50093D515001316160053
:10080000E39605FE67800000130101FF13830600D5
:1008100023261100130E0500930805009306060019
:1008200013070000930700001308000013F51600DB
:10083000931E1700630C050033850801333805014A
:10084000B387E700B307F8001308050013D7F801D2
:1008500093D6160033E7EE0093981800E39806FC51
:100860006388050013050600EFF0DFF7B387A700E4
:10087000630A030013050E0093050300EFF09FF6D3
:10088000B307F5008320C100130508009385070016
:1008900013010101678000006340050663C6050679
:1008A00013860500930505001305F0FF630C06028F
:1008B00093061000637AB6006358C0001316160042
:1008C00093961600E36AB6FE1305000063E6C500C2
:1008D000B385C5403365D50093D616001356160070
:1008E000E39606FE6780000093820000EFF05FFB56
:1008F00013850500678002003305A04063D805001A
:10090000B305B0406FF0DFF9B305B040938200004B
:10091000EFF01FF93305A0406780020093820000CA
:1009200063CA0500634C0500EFF09FF713850500CF
:1009300067800200B305B040E35805FE3305A040D0
:10094000EFF01FF63305B0406780020082806F1021
:10095000707A056541111305C5DA06C622C4C53F84
:10096000374400809305803E1305C447EF10807222
:10097000D5576302F50437360080B7450080374508
:100980000080B74700800547938585861305058756
:10099000930620051306C64323A4E74AEF00706DB3
:1009A0009305C4472244B2403745008013050588AB
:1009B00041016F00106CB24022444101828041111C
:1009C00026C285641385449C06C622C44937374431
:1009D0000080938584BB13058446EF10A06BD55728
:1009E0006303F50437360080B74500803745008043
:1009F000B7470080054793858586130505879306CD
:100A000010091306464523A4E74AEF0090669305B4
:100A100084462244B240924437450080130505883D
:100A200041016F001065B24022449244410182802E
:100A300005654111130565EA22C406C637440080E6
:100A400039379305007D1305C447EF10A06429C111
:100A500037360080B745008037450080B7470080B3
:100A600005479385858613050587930610071306AA
:100A7000864423A4E74AEF00D05F9305C44722448D
:100A8000B240374500801305458A41016F00705E12
:100A90001305C4472244B24041016F10606B4111FD
:100AA0001305C05D22C406C6374400804D35FD5590
:100AB00013054445EF10005E29C137360080B74565
:100AC000008037450080B7470080054793858586BD
:100AD000130505879306800A1306064623A4E74AF2
:100AE000EF003059930544452244B2403745008019
:100AF0001305458A41016F00D05713054445224430
:100B0000B24041016F10C06441111305401F06C679
:100B100022C4353D37440080814513050444EF105D
:100B20006057C1576302F50437360080B74500802F
:100B300037450080B74700800547938585861305B4
:100B400005879306200C1306C64623A4E74AEF0048
:100B5000505237450080930504441305058C224408
:100B6000B24041016F00F050FD5513050444EF10F1
:100B700060520DCD37360080B74500803745008084
:100B8000B74700800547938585861305058793063B
:100B9000A00C1306C64623A4E74AEF00904D374544
:100BA0000080930504441305458A55BF130504448A
:100BB0002244B24041016F10A0590565411113054F
:100BC000C5DA22C406C6374400805133FD551305EB
:100BD0008446EF10204C39C137360080B74500807D
:100BE00037450080B7470080054793858586130504
:100BF00005879306000E1306864723A4E74AEF00F5
:100C000050472244B240B745008037450080938565
:100C100045451305458A41016F00B04513058446DB
:100C20002244B24041016F10A052797106CE22CC0D
:100C300042D446D621E136862E87B7360080B735B6
:100C4000008037350080938646483E849385054969
:100C50003C101305454D3EC6EF00B041B24522851C
:100C6000EF00703F3745008013050599EF00704095
:100C7000EF00B07BF240624445618280757106C727
:100C800022C526C34AC1CEDEDAD8DED6E2D4E6D209
:100C9000EAD0D2DCD6DAEF10F054A945EF10F032EA
:100CA000B73500801384C53141469385C53188002E
:100CB000EF005063B7470080938787463ED4B7471D
:100CC0000080938747453ED6B74700809387074407
:100CD00041469305040188083ED8EF00B060A14763
:100CE000B7350080373500803EDA3EDC9385055607
:100CF000A547130585573EDEEF00B0373735008036
:100D00001305C558B739008037390080373D00805A
:100D1000B74C0080EF00F035014BCE844A84EA8B5B
:100D2000668C9C00DA9703A807008145B74A0080CB
:100D3000428542CEEF1000367248B7370080938765
:100D4000475D138749489306201113060949930507
:100D50000D5F13351500D13D1305803ECD3EEF10DC
:100D60007048EF1030269C08DA9703A80700AA887D
:100D7000B73700803305A840B735008093874760B8
:100D800013874948930670111306094993854562F4
:100D900013351500593D03A58A4A373A00809387D9
:100DA0008C96138749489306A011130609499305A9
:100DB0004A6413351500953D110BC147938A8A4A41
:100DC000E311FBF6EF101042EF10D01FAA85373564
:100DD000008013050566EF00D0291305803E853E8F
:100DE000EF105040EF10101E130BA5FF133B1B001C
:100DF000373D008037380080B73700801387494877
:100E00001306094993050D6C2ACE130888685A8584
:100E10009387476993068012093DF248B73C0080EA
:100E2000138749481306094993050D6C19489387A0
:100E30004C6D930690125A85CD3B374500801305C3
:100E4000C547EF10E030EF10F039EF10B017130B7B
:100E500095FF133B1B00373D008037380080B737C4
:100E6000008013874948130609492ACE1308486FA2
:100E70005A859387C76F9306D01293050D72753309
:100E8000F24813874948130609495A851D48938734
:100E90004C6D9306E01293050D72413B1305803EA5
:100EA0007D348149373B00803149EF10B033EF107A
:100EB00070115C18CE9703A80700AA8813874448CE
:100EC0003305A840930670131306044993054B732A
:100ED00093874C6D13351500893B3C10CE978843A2
:100EE0009109EF10E02603A50A0093078C9613875B
:100EF00044489306A0131306044993054A64133526
:100F000015002533E39329FBEF10D02DEF10900B44
:100F1000AA88B73500805915294893874C6D1387E7
:100F20004448130604499306E01393854575133529
:100F30001500E5391305803E193C03A50A00930707
:100F40008C9613874448130604499306201493058E
:100F50004A6413351500D139373500801305C5763D
:100F6000EF00301137490080814513050949EF1022
:100F70006012B737008013874448130604499387EB
:100F800087789306901493850B5F1335150071399C
:100F9000814513050949EF10E00FB737008013872B
:100FA00044481306044993850B5F9387877A930619
:100FB000C014133515009539B7160080B755008059
:100FC00037450080B1480148814701479386660B49
:100FD00013060020938505984EC002C213050578BC
:100FE000EF1030410545A53213050949EF104016B1
:100FF00013050949EF10C015814513050949EF1084
:1010000060094105B7370080B73500801387444831
:10101000130604499387477D930690159385C57FF2
:101020001335150019319305803E13050949EF105A
:101030006006B74700801387444813060449938528
:101040000B5F938787819306C01513351500F13E1A
:1010500013050949EF10C00F2A44BA409A440A49BF
:10106000F659665AD65A465BB65B265C965C065DB8
:10107000374500801305458449616F00807F411129
:1010800006C6EF103016EF10F015EF10B015EF1088
:101090007015EF103015EF10F014EF10B014B240CF
:1010A000B7450080373500809385C5291305055560
:1010B00041016F00F039411122C437440080FD55D1
:1010C0001305044906C6EF00F07C15C937460080B9
:1010D000B745008037450080130505879306A002B9
:1010E0001306868E93858586EF00A0782244B24051
:1010F000374500801305458F41016F008077130548
:10110000401FEF10207F130504492244B2404101E3
:101110006F100004411106C622C499476301F5020D
:10112000EF10902505C1EF10302515EDB745008073
:101130009385C5AE37450080130505B01D2FEF0020
:101140004075F5BFEF10302479FD3754008013044B
:1011500004950C4437450080130505B2192F084447
:10116000EF103047E9BFB7450080938585AED9B70A
:101170005D71A2C4A6C286C69947AA842E8463E77D
:10118000A708374700809317250013074791BA97A0
:101190009C438287374500801305C596D92DEF10F3
:1011A00070047C40832804010328C4003ED83C40DE
:1011B000584014403ED65C5C3044AA853ED41C5C4A
:1011C000374500801305059F3ED25C583ED01C5821
:1011D0003ECE5C543ECC1C543ECA5C503EC81C50B3
:1011E0003EC65C4C3EC41C4C3EC25C483EC01C44E7
:1011F0004925A2852685393F374500801305459945
:1012000071BF374500801305059B49BF37450080F6
:10121000A6851305C59CB12D59B7411122C406C638
:101220002A847326203406060582954763E2C702A6
:10123000374700809317260013070793BA978C430C
:1012400037450080130505952D25A28501450D37ED
:10125000B745008093858594E5B7411106C6F3250F
:1012600020343745008086058581130505C2112588
:10127000B7450080938585B41145DD3DB7470080B3
:101280009387C74A984311CB03A3070023A0070005
:10129000B747008003A5074B02838280411106C631
:1012A000EF00B0411925EF00704600001751000013
:1012B000130141ADB7120000938202801691F93FED
:1012C0006F00E00B0000797122D426D24AD04ECEB6
:1012D00006D6B689BD46AA842E8432896393D80681
:1012E000B7260080938646E96392D906C256C68522
:1012F0002685114642C63EC43AC2EF10302CA247A2
:10130000930509FBA29523AE040423A00406C1990A
:101310009CD989671247324893870788FCC5B7175D
:101320000080B25022549387072C23A43503D8D5CC
:1013300023AA0503BCC58CD402599254F2494561D5
:101340008280938608017946E372D6FA3746008098
:10135000B745008037450080E146130686C4938573
:1013600005C8130545D246C2292392483745008057
:10137000C1563946C685130545D4E52901A041115A
:10138000AA872E85B285368606C68297EF108065BD
:10139000EF10302493971500AE97139727005C4504
:1013A000BA970307B5006353B7009C431357F64140
:1013B0007D8B329715870A07BA979CC21375F60181
:1013C00082800111740006CEF1373247854733958C
:1013D000A7001C43F240C98F1CC305618280011124
:1013E00026CA444122CC2A8403558500A6854AC8D2
:1013F0004EC652C456C25AC006CEEFF0AFBE8329C5
:101400000400834AA400FD572A8AAA99A305F40080
:1014100001497D4B6341590381448357840063CF65
:10142000F404F2406244D2444249B249224A924A08
:10143000024B05618280A6855285EFF06FC61317B7
:1014400019004A979317270058443E97930747007F
:101450005CC31CC76349AB00A305240189808D04CC
:10146000F198050945BF7D059357F541FD8BAA9776
:1014700095878A0723203701BE99CDB74C40268532
:10148000EFF04FB61C40268681453E955C448504AE
:101490001387470018C1984758C1984708C388C7A1
:1014A000228505379DBF014582809C4185079CC1EF
:1014B000B747008003A3472C0283397122DC4ED644
:1014C00052D45AD06AC806DE26DA4AD856D25ECE40
:1014D00062CC66CA6EC6AA892E8A328D368B0544C6
:1014E0006353E0003A848547930C00026314FB00C9
:1014F000930C0003B7D49A3B0549A94A014C938445
:10150000F49F894D938B140063140C0063F2A407BD
:10151000DE856A85EFF0CFB8D28513050503829981
:101520000509054CDE856A85EFF00FBC2A8DA945BB
:101530002685EFF0EFB6FD1A8547AA84E394FAFCFE
:10154000D28513050D0382998D4733042441630F1F
:10155000FB02F2506254D2544259B259225A925A62
:10156000025BF24B624CD24C424DB24D2161828003
:10157000E34A54FBE3E86DFBD28566858299050951
:1015800055B7D2851305000282997D14E34B80FE86
:10159000C9B7B747008023A2A72C82805D71A2C47F
:1015A000A6C2CAC04EDE52DC56DA5AD866D26ECE19
:1015B00086C65ED662D46AD02A84AE84328BB68C5C
:1015C000014A7D598149814D854A03450B0005E15A
:1015D000B640264496440649F259625AD25A425BB2
:1015E000B25B225C925C025DF24D61618280639A23
:1015F0000D00930650026307D524A6850294050BBF
:10160000E9B793064006630BD50E63EBA604930679
:10161000900363E7A602930610036375D50C930647
:10162000D0026306D522930700036303F50A13076C
:101630005002631FE500A685130550020294E5A041
:10164000930680056303D512130730066304E51E75
:10165000A685130550020294A68503450B00F9BF29
:10166000930600076309D50E63EFA6009306900664
:101670006306D5089306C0066300D5089306800666
:10168000E30FD5F6F1B7930650076308D50A63EA6E
:10169000A60213073007E31DE5FA138C4C0083AC58
:1016A0000C00E68B03C50B00631C05168D47639881
:1016B000F900B38B9B41B30B794163477017E28C00
:1016C0009DA0930680076302D50A9306A0074DBF2D
:1016D000635C0900638F0916130905FDE39109F2A4
:1016E000894931BFE34A09FE931629003699060954
:1016F000130909FD2A99DDB7050A11B763C74A0323
:1017000003A60C00910C635B0600A6851305D002AE
:1017100032C4029422467D193306C0404A87CE86E1
:10172000A6852285593B814DD9BD93877C0013F74F
:1017300087FF930C87001043F9B763C64A0103A6DD
:101740000C00910CE1BF93877C0013F787FF930C8B
:1017500087001043E1B7A685130500030294A68510
:101760001305800702942149854963C34A0783A76B
:101770000C00910C3EC42146014C014DA145A247ED
:10178000938BF5FF13952B0033D5A7003D8929EDE9
:101790009306000363140D006390550736956205A8
:1017A000A685618532C60294050C3246639B0B0206
:1017B0008D46814DE395D9E413171900330C874109
:1017C000E35380F7A6851305000202947D1CCDBF6C
:1017D00093877C0093F687FF9C42938C86003EC4DF
:1017E00059BF6E8DDE8561BFA54793067005E3E79F
:1017F000A7FA930600035DB79307F6FF3EC663485A
:10180000C90063985901A685130500030294324666
:10181000D1BF8947E39DF9FEA68513050002FDB7F8
:10182000A685850B0294BDBDA68513050002029412
:10183000FD1B61B503A50C00938B4C00A68502949B
:10184000DE8CD5B5014A7D598149854D4DBB8D4909
:101850007DB385496DB301112A8637150080AE86A8
:101860001305A54A6C0006CE02C60D3BF240056189
:10187000828039712ED24C1006CE32D436D63AD868
:101880003EDA42DC46DE2EC6F937F2402161828024
:101890008280A147F3A707307300501082808547EC
:1018A0003395A700732545308280A147F3B70730F1
:1018B00073504030735040348280411122C426C29C
:1018C0003744008006C6A947AA841304444B631713
:1018D000F5000840B5455C41DC438297084093F52C
:1018E000F40F5C41DC438297B24022442685924447
:1018F00041018280372500801305A58B59B93745F2
:1019000000804111130585D706C63523B7470080EF
:1019100023AAA74AC537B240014541018280B707D3
:1019200010F003A747F403A507F483A547F4E39A4F
:10193000E5FE8280011122CC06CE26CA4AC84EC6D8
:1019400052C4214473340430B74400809384844BE0
:10195000F93703A9040003AA4400AA8733052541E7
:10196000B3B7A700B385454175661306064C81469B
:101970009D8DEFE0FF89AA89F5659385054C4E851D
:10198000EFE05FE62A993335A900529523A02401A0
:10199000C8C02188732404306244F240D2444249D2
:1019A000224A4E85B24905616F10A06B411106C6EF
:1019B000BD37F5679387074C370710F0AA97FD5698
:1019C0002326D7F433B5A7002E952324F7F4232636
:1019D000A7F41D45E935B240014541018280CDEDB6
:1019E000011122CC06CE26CA4AC84EC652C4FD57A3
:1019F0002A846315F50025651304E5BCA144F3B4FE
:101A00000430313FA567AA899387E7BC1305F4FF2B
:101A1000A18863DFA7063E8575649305044CEFE05B
:101A20007FDCB74700809387874B03A9070003AA91
:101A300047009307F44BB3872741CE973E95930514
:101A4000044CEFE0FFE59305044CEFE0BFD9B30988
:101A50003941AA999307703E63C537011304044CBA
:101A60002295B70710F02A997D5723A6E7F433355E
:101A7000A900529523A427F523A6A7F4F3A40430C4
:101A8000F2406244D2444249B249224A056182800E
:101A9000E35405F8014549B78280411122C406C6C6
:101AA000214473340430A53DB747008083A7874B9A
:101AB000F5659385054C1D8DEFE09FDE218873242D
:101AC0000430B2402244410182808347050003C7AD
:101AD00005006393E70081E73385E74082800505D1
:101AE0008505E5B7B347B5008D8B95CFAA8701472C
:101AF0006317E60482807DDE850503C7F5FF850751
:101B00007D16A38FE7FE13F7370075F78D46330870
:101B1000E64063EC06011357260093162700158E46
:101B2000B697B695E9B7AA87F9BFB388E50083A849
:101B300008003388E700110723201801C9BF338844
:101B4000E50003480800B386E70005072380060187
:101B500045B793F6F50FAA8713F737001DEB93F5FA
:101B6000F50F13978500D98D13970501D98D338310
:101B7000C7003E870D48B308E3406362180313575C
:101B8000260093152700AE970D8E3E96639DC700E5
:101B900082807DDE8507A38FD7FE7D1675BF110776
:101BA000232EB7FEC9BF8507A38FD7FEC5B7411146
:101BB00002C6B24785073EC6B70701F08CC3410194
:101BC00082807D55828001458280011122CC1C4596
:101BD0003744008026CA1304842CB744008006CE04
:101BE0004AC84EC69384044C8549232004002A89A0
:101BF00023A0340182978327490023203401829750
:101C000089471CC08327C90082978D471CC0624446
:101C100023A00400F240D2444249B2493745008033
:101C20001305057F05616F00D063374500804111C2
:101C3000B74700807D571305057F06C623A0E74CF4
:101C4000EF003062EF00105AB24041016F1060188F
:101C50001D71A6CAB744008083A7444C86CEA2CC8F
:101C6000CAC8CEC6D2C4D6C2DAC05EDE62DC66DACC
:101C70006AD86ED663C60706374400800546AA892F
:101C80002E8C1305047F8145EF0070563745008088
:101C9000CE851305C5DAF13E373900801305C958E2
:101CA000B74A0080F9369384444C014A22CEB75C8F
:101CB0000080375B0080372D0080B74D0080B74B28
:101CC0000080938A0ADA83274C0095EBCE85630166
:101CD0000A0C37450080130585DD613E85479CC0B1
:101CE000F6406644D6444649B649264A964A064BCB
:101CF000F25B625CD25C425DB25D256182808325CD
:101D00000C00B737008013858757A53602C283279A
:101D10000C0162871306002093E78700FD580148F5
:101D20009306ADBC3EC093850C78814713050B80AC
:101D3000EF00306CF247FD551385077FEF00105818
:101D400093870D4C13050B808043EF108008B74735
:101D500000809387074C98430504F9571334140007
:101D600003260C006311F702B7450080938545DC1C
:101D70001385CBDCEFF0FFAF1305C958EFF07FAF51
:101D8000229A510C89B793172400D6978C43CDB76C
:101D900037450080130505DFEFF0BFAD9C40B3373A
:101DA000F00035BFB747008083A7474C411122C4DC
:101DB0003735008006C6374400801305C55891CFDB
:101DC000EFF03FABB74500809385C5E0130544E1D4
:101DD0002244B24041016FF0DFA9EFF09FA9B7455F
:101DE00000809385C5E2DDB7411106C6EFF02FA94B
:101DF000B240410145BF13172500B74700800505D4
:101E0000938707E40A0541113E97AA9722C426C288
:101E10000043844306C663679400B2402244924460
:101E2000410182801C402285DC43829719C1232214
:101E300004003104CDB74111B747008026C2B74432
:101E4000008022C406C61384C72D4AC09387C72DBD
:101E50009384C430631894002A893E84631C9400E0
:101E6000014415A0584009C718401843630DA70046
:101E70003104CDB75C4099E33104CDB71C404A85AD
:101E80008C43A13175F92285B24022449244024923
:101E900041018280411122C426C206C621448944E0
:101EA000F3370430EF10600263C3A4000545854595
:101EB000EF10A017EFF0FF9DE5B737450080B7574B
:101EC00000801306854A9387C7973386C7408145AC
:101ED0001305854ABDB94111094506C6293F374555
:101EE0000080130545E6EFF0DF980D452937EF0038
:101EF000705CDD3DB75700809387078E03C7C7002E
:101F0000799B2386E700B24041018280357126CB60
:101F10000408130600078145268506CF22CD4AC94D
:101F20004EC7053937540080B76700809309049580
:101F300093870758014523A2F900753D0545653D86
:101F40009307101023A49900231EF100EF00100640
:101F5000B7470080938747E5375900803EC2B726D0
:101F600000808547B76500809304098E3EC0014715
:101F70008147A9480148938666ED130600209385A2
:101F800005981305098E23A09902EF00504483C7DA
:101F9000D4001304049513F7B7FFA386E400ED8B78
:101FA00081EB9850FD576315F7001305098E6529DD
:101FB000B74700809387C7E53EC237550080854705
:101FC000B7260080B7650080930405873EC0BD48F2
:101FD000014881470147938646E91306002093850F
:101FE00005B813050587EF00903E83C7D40044C4AD
:101FF0002145ED9BA386F400B75700809387879611
:102000001CCC5CCC733505302189EFE06F9BB75752
:10201000008003A70795411106C605CB374600800F
:10202000B745008037450080130545D29306200F41
:10203000130646F09385C5F3EFF0BF833745008064
:10204000130545F5EFF0FF8201A0938707959847A8
:1020500085468347F7006399D70237460080B74526
:10206000008037450080130545D29306300F1306D4
:1020700046F0938585F5EFF0CFFF374500801305D7
:1020800045F5EFF00FFF01A0FD17A307F700B240E1
:1020900041018280411122C44AC02A8406C626C258
:1020A0002E89B5375844B75700809387079519CFC5
:1020B000104494476307D60263170902692C4155FF
:1020C000B24022449244024941018280944783866F
:1020D000E6009C47050714C858C41CC4AD2C014534
:1020E000C5B71448FDB78307E6008385E60063D3D0
:1020F000B700BE8563D305008145A144F3B4043025
:102100000844A1888307E50063D3F500312D4A8692
:10211000A2852685DD2B79D11C400C48630BF40089
:1021200089CB8387E70063D3B700BE8563D30500FF
:102130008145A144F3B404300844A1888307E50035
:102140006383F500D523F3A40430312455558DBFA6
:102150005C45411106C622C426C24AC085EB3746FB
:102160000080B745008037450080130545D29306AF
:10217000600D130606EA9385C5ECEFF08FEF374547
:102180000080130545F5EFF0CFEE01A0B7570080B2
:10219000184583A787952A846309F702374600808C
:1021A000B745008037450080130545D29306700D72
:1021B000130606EA938545EEEFF0AFEB3745008056
:1021C000130545F5EFF0EFEA01A091355C440547B2
:1021D000638AE700FD175CC42244B240924402497E
:1021E000410195AAA144F3B4043008440C48A188E5
:1021F0008307E5006383F500052B2285A52E08C41F
:102200002A8905C58347D500FD8B91E71851FD57F5
:102210006313F700892CF3A704308307E900232612
:1022200009061CC8F3A4043045BF23260400DDBF03
:10223000411106C6EFF07F86B747008083A7C74CE1
:10224000B240375700803E952320A79681453E85B2
:1022500041016F00905D21457335053021898280F1
:10226000411122C4375400809307049526C2C453F9
:1022700006C693874702130404956383F40091E034
:1022800044441C4405ED9DCB03C7D7007D8B1DE75F
:1022900094537D576394E60283D6E7001307F00753
:1022A000637ED700374700800327872D6388E700C8
:1022B0001CD0B24022449244410182806383970043
:1022C000853F04D0FDB7011106CE22CC26CA4AC8EC
:1022D0004EC6AE84AA894137B7570080A9452A84E3
:1022E0001385990023A00796EFE00FDBB747008026
:1022F000374900802326A94C23A4974C21880D3F01
:1023000073240430F2406244D2444249B249056128
:102310008280411122C406C62A84353FAA8708401C
:102320006313A4000145A18BF3A70730B2402244F8
:1023300041018280B75700809387079594432A878D
:1023400099E694479C536384F6006FD07FE7218B16
:10235000732707308280411122C437540080130450
:1023600004951C4406C626C283C7F70085EB374692
:102370000080B745008037450080130545D293069D
:10238000701D1306860593854508EFF08FCE3745FF
:102390000080130545F5EFF0CFCD01A01C4085CBA3
:1023A00037460080B745008037450080130545D289
:1023B0009306801D130686059385C5F3EFF06FCB5A
:1023C00037450080130545F5EFF0AFCA01A0613530
:1023D0001844AA8405458347F700A1888507A30709
:1023E000F700BD3DF3A40430214573350530224488
:1023F000B24092442189410135BFB747008083A78D
:10240000872D6395F50237460080B7450080374534
:10241000008041119306D021130686059385C502DD
:10242000130545D206C6EFF0CFC401A01C416319C5
:10243000F5005C4188C1DCC15C418CC34CC1828029
:10244000EDDB0387E5008386E7006358D700D843B8
:102450009CC1D8C10CC3CCC382805441E38BD7FC50
:102460009C43F5F3F9B7411106C622C426C2AA84DB
:10247000DD332A8437550080A68513054597B53F7F
:1024800083C7D4000145218893E70704A386F4009D
:10249000C13B73240430B240224492444101828003
:1024A0008347D500FD8B91E71851FD576313F70063
:1024B0005DBF8280B747008083A7872D6395F502B3
:1024C00037460080B74500803745008041119306AC
:1024D000C022130686059385C502130545D206C69C
:1024E000EFF02FB901A0D8419C411CC3D8C3828012
:1024F000411122C426C22A8406C6B13BAA840844DC
:1025000015E137460080B7450080374500809306C7
:1025100010151306860593850504130545D2EFF0C3
:102520004FB501A0A28579378347D400A188F59BD8
:10253000A306F400F3A4043023240400B240224490
:10254000924441018280832705FF411122C426C2A3
:1025500006C62A84930485FE99C32685513F834786
:1025600054FFB2402685ED9BA30AF4FE2244924418
:1025700041013DB74111814522C406C6593B2A8419
:1025800011C5BD3713058401EF0050112285B240FB
:1025900022444101828001114AC837590080130941
:1025A000099506CE22CC26CA4EC62A849309490232
:1025B000EFF07FCAA285AA844E85ED3DA2854E85A7
:1025C0002D3D8347D40003258900A18893E70704A4
:1025D000018DA306F40013351500EFF07FC8F3A4B6
:1025E0000430F2406244D2444249B24905618280DB
:1025F000B747008083A7C74CB9CBB75700809387F4
:10260000079598479306F0070356E70063E1C60471
:10261000B74600800306E70083A6864C6349D602CE
:10262000B746008083A6862D6303D7021053FD565C
:10263000631FD600944B634AD50041113A8506C604
:10264000993FB24041016FF0BFBE898E94CB82802A
:10265000411122C426C22A8406C64AC0EFF0BFBF79
:102660008347D400AA8493F7070495C7375900809D
:102670001309099513054902A2852D3D8347D4000E
:102680000325890093F7F7FB018DA306F4001335AA
:102690001500EFF0FFBCA188F3A40430B24022443F
:1026A0009244024941018280411122C426C22A84F7
:1026B0004AC006C6AE843289613F8347D40093E79F
:1026C0002700A306F40089C404C4A28526853533F7
:1026D000FD576306F902A94513059900EFE0CF9B6A
:1026E00013061500130584012244B24092440249A6
:1026F000B72500809385655441016F003004B240D6
:10270000224492440249410182804111B75700801E
:1027100022C42A8403A5879506C6793722852244D8
:10272000B24041016FD0DFA9011122CC26CA4AC8AC
:102730002A842E8906CE4EC6EFF0FFB18347D4001F
:102740006209AA84FD8B13598941B1E71850FD57DE
:102750006313F704B759008093894997A2854E8582
:10276000913BA2854E8523072401EFF01FC9054543
:10277000EFF01FAF8547A188F3A404308DC3214536
:10278000733505306244F240D2444249B24921894E
:1027900005616FF03FBA230724018147E9BFF2408A
:1027A0006244D2444249B24905618280B7570080F1
:1027B0009387079513874702D8D398D7814501455A
:1027C0006FF07FB00305E5008280411106C622C488
:1027D00013870501F94763FDE7022E843746008021
:1027E000B7450080374500809306D02C1306860538
:1027F000938545F9130545D2EFF0AF873745008043
:10280000C1563946A285130545D4EFF08F8601A045
:10281000B757008083A7079585CB37460080B7451B
:10282000008037450080130545D29306E02C13063F
:1028300086059385C5F3EFF0CF83374500801305F8
:1028400045F5EFF00F8301A02244B2404101E9BDFC
:10285000411122C4375400808327049506C626C23E
:102860004AC085CB37460080B74500803745008099
:10287000130545D293066030130686059385C5F38C
:10288000EFE03FFF37450080130545F5EFE07FFEA1
:1028900001A013040495B7470080184483A7872D2F
:1028A0006305F702EFF03F9B0C4413094402AA842E
:1028B0004A85EFF03FC00C444A85A188EFF0FFB392
:1028C0000545EFF0FF99F3A4043018441C50630D44
:1028D000F7002145733505302244B2409244024945
:1028E000218941016FD0DF8DB240224492440249D8
:1028F00041018280797122D43754008013040495F9
:102900001C4006D626D24AD04ECE85CB3746008014
:10291000B745008037450080130545D29306403205
:10292000130686059385C5F3EFE0BFF437450080B5
:10293000130545F5EFE0FFF301A0FD576319F5021C
:1029400037460080B745008037450080130545D2E3
:102950009306503213068605938505F8EFE07FF164
:1029600037450080130545F5EFE0BFF001A019E9F8
:102970002AC6F93D3245B250225492540259F249C6
:1029800045618280A9452505EFD01FF19309150007
:10299000EF00207CB384A900214973390930084431
:1029A000EFF01FCB0844B72500804E869385655411
:1029B0006105692313758900EFD09F80EF0060796E
:1029C000898C0145E35990FA1306803E814626859D
:1029D00093D5F441EFD05FE3130640068146EFD074
:1029E0003F8351BFB757008003A58795828041116F
:1029F00006C605EA37460080B745008037450080A7
:102A0000130545D29306D0031306C60A9385850D98
:102A1000EFE03FE6374500801305450EEFE07FE528
:102A200001A06379B60237460080B745008037457C
:102A30000080130545D29306E0031306C60A93856A
:102A4000C50FEFE01FE33745008013054511EFE0A8
:102A50005FE201A0B2400CC550C508C148C14101A8
:102A60008280411122C44AC006C626C22A89214456
:102A7000733404302188EFF0FFAF15C58347D500CC
:102A8000AA84FD8B99E71851FD576314F700EFF006
:102A90009F9D23A6040622852244B2409244024907
:102AA00041016FF03F89032789008327C900998F6F
:102AB000B337F000BA972324F900F1BFB75700806D
:102AC00083A707952E869DCB95C937460080B745CD
:102AD0000080374500804111130545D29306300828
:102AE0001306C60A9385C51306C6EFE09FD837457F
:102AF0000080130545F5EFE0DFD701A0A147F3B74C
:102B000007301845A18B19C77D1718C5F3A70730E3
:102B10000145828009E6F3A7073041558280AA85E6
:102B20003E856FF09FBE411122C426C206C6AA840C
:102B300021442E8573340430A9452505EFD0DFD517
:102B4000B72500801306150093856554138584010D
:102B5000F526218873240430B24022449244410176
:102B600082808347D500FD8B99E71851FD57631488
:102B7000F7006FF05F8F8280B757008003A507953D
:102B80003335A0008280B757008083A7879503C59F
:102B9000C70005898280411122C406C621447334CE
:102BA00004300347D50021889376470099E67324C3
:102BB0000430B2402244410182806D9BA306E500AF
:102BC0004D3722852244B24041016FF0AFF601112A
:102BD000025322CC06CE1AC02A84EFE0CFEEB757BC
:102BE000008083A78795F240BC573CD462440561BE
:102BF00082803753008003230395011126CA06CE35
:102C000022CC92546309030237460080B745008006
:102C100037450080130545D29306801A1306061720
:102C20009385C5F3EFE0FFC4374500801305051A0F
:102C3000EFE03FC401A0025302C22A841AC0413F00
:102C4000FD576385F40089E82285B1372285F2407B
:102C50006244D24405618280A6852285E935FDB7AC
:102C60003C51411122C406C62A8491C382978347EE
:102C7000D40013F7F70115E314507D57639FE60066
:102C80002285EFF0FF9C8347D400B24093E7870092
:102C9000A306F400224441018280898B81C72285EA
:102CA000EFF01F851850FD57E30FF7FC1305840163
:102CB000F522D1BF7971B74700804ECEB749008069
:102CC00022D426D206D64AD01384C7309384C73084
:102CD0009389C942636E3403B757008003A70795F1
:102CE00021CF37460080B745008037450080130567
:102CF00045D29306200F130646F09385C5F3EFE007
:102D00005FB737450080130545F5EFE09FB601A09A
:102D10005C543EC21C503EC05C488328C40103285A
:102D200084011848544410444C4008404D351C4020
:102D3000E0CF1304040379BF93870795984785462E
:102D40008347F7006399D70237460080B745008074
:102D500037450080130545D29306300F130646F021
:102D6000938585F5EFE0FFB037450080130545F505
:102D7000EFE03FB001A0FD17A307F7002149733929
:102D80000930268413798900FD54636C340173295A
:102D900009302254B25092540259F24945616FF001
:102DA0008FDB4C5063869500084091E5EFF0BFDE65
:102DB00013040403D9BFEFF01FD7DDBFFD5723066F
:102DC000D500A306C5002307B500A30705001CD145
:102DD0008280411122C406C626C2214473340430C5
:102DE0008347C500858B85CB37460080B74500807B
:102DF00037450080130545D2930630021306861C22
:102E00009385C51FEFE0FFA6374500801305052316
:102E1000EFE03FA601A0AA84EFF09FE4B75700803F
:102E200003A70795218801CB73240430B2402244C4
:102E3000924441018280938707959C472285639441
:102E40009700EFD0EFB72244B240924441016FF0B7
:102E50006FCEB747008083A7074D99E36FE0FFC3AC
:102E600001458280214573350530218982801C41CE
:102E700099CF584109CFB746008083A6062D630637
:102E8000D50094471045B29694C71CC3D8C3FD57CC
:102E900023220500232005001CC58280411122C485
:102EA00026C206C6AA847D3F9844FD572A847D55D4
:102EB0006305F7002685653F0145218873240430AA
:102EC000B2402244924441018280B747008083C7C8
:102ED000474D411122C406C626C24AC07D5489E727
:102EE000370400801344F4FFB53FB7470080938751
:102EF000C72C03A90700AA846300F902630E090026
:102F000003248900B9373305A44001446346050012
:102F1000032489003D3F098CA188F3A40430B757EE
:102F2000008083A7079681C763D387003E842285EC
:102F3000B240224492440249410182801C45011161
:102F400006CE22CC26CA63C9070237460080B745A1
:102F5000008037450080130545D2930630041306E0
:102F6000C6249385C527EFE0DF9037450080130521
:102F700045F5EFE01F9001A04CC532C62A84DD352F
:102F8000AA84C13D32466343C0000546B74700806E
:102F900003A7C72C2A9610C49387C72C6304F70095
:102FA000CC4301EBD8431CC058C0D84300C3C0C3B6
:102FB000A9A0144763D9060237460080B7450080B0
:102FC00037450080130545D29306C0041306C62476
:102FD0009385C528EFE0FF8937450080130545F547
:102FE000EFE03F8901A01044635AD602918E14C7C6
:102FF000544318C054C080C240C398436308F700CC
:103000006316E400D9358145EFE07F9DA188F3A4E4
:103010000430F2406244D24405618280B306D64057
:1030200014C4E381E5F81843ADBF01112EC606CEE6
:1030300022CC26CAAA84EFF0FFE22A84EFF0FFE850
:10304000B24563D8A400854763D5A7002685EFE085
:103050001F99218873240430F2406244D2440561F0
:103060008280011106CE22CC26CA2A844EC652C4C2
:10307000B74900804AC8374A0080EFF06FD7B7449D
:103080000080EFF03FDE130ACA2C23A8894C9384FA
:10309000844D9389094D03240A0083A709009440B5
:1030A00003A84400137985006308440111C418443F
:1030B00063DEE7021D8F18C4BE9613D7F74142970F
:1030C000B3B7F600BA9794C0DCC023A00900EFF0B4
:1030D000DFDF8145EFE0BF9073290930F2406244A1
:1030E000D2444249B249224A05618280BA96935538
:1030F000F74133B6E600C2952E96998F232404003B
:10310000228594C0D0C023A0F900EFF05FD67329C8
:1031100009305C4422858297EFF0DFD4ADBF4111C6
:1031200006C622C4EFF01FD42A84EFE01F9737476A
:1031300000801307874DAA8708434C4321883E959A
:10314000B337F500BE9573240430B24022444101E8
:103150008280411106C6E137B240410182804111AF
:1031600022C426C237440080B744008006C6130438
:10317000C4429384C44263689400B240224492449F
:103180000145410182809307440122855CC81CCC23
:0A319000EFE0EFA47104C5B78280E0
:02319A00FFFF35
:10319C00000000005A120080000000005A1200804B
:1031AC00000000005A120080000000005A1200803B
:1031BC00000000005A120080000000005A1200802B
:1031CC00000000005A12008000000000341900803A
:1031DC00000000005A120080000000005A1200800B
:1031EC00000000005A120080000000005A120080FB
:1031FC00000000005A120080000000005A120080EB
:10320C00000000005A120080000000005A120080DA
:10321C00000000005A120080000000005A120080CA
:10322C00000000005A120080000000005A120080BA
:10323C00000000005A120080000000005A120080AA
:10324C00000000005A120080000000005A1200809A
:10325C00000000005A120080000000005A1200808A
:10326C00000000005A120080000000005A1200807A
:10327C00000000005A120080000000005A1200806A
:10328C00000000005A120080000000005A1200805A
:10329C00000000005A120080000000005A1200804A
:1032AC00000000005A120080000000005A1200803A
:1032BC00000000005A120080000000005A1200802A
:1032CC00000000005A120080000000005A1200801A
:1032DC00000000005A120080000000005A1200800A
:1032EC0068390080FE18008000000000803D0080DE
:1032FC00AC19008000000000783D0080C61B0080E7
:10330C0000000000683900805E3100800000000081
:10331C004044008054440080684400807C44008019
:10332C000900000008000000070000000500000074
:10333C000001020203030303040404040404040450
:10334C000505050505050505050505050505050521
:10335C000606060606060606060606060606060601
:10336C0006060606060606060606060606060606F1
:10337C0007070707070707070707070707070707D1
:10338C0007070707070707070707070707070707C1
:10339C0007070707070707070707070707070707B1
:1033AC0007070707070707070707070707070707A1
:1033BC000808080808080808080808080808080881
:1033CC000808080808080808080808080808080871
:1033DC000808080808080808080808080808080861
:1033EC000808080808080808080808080808080851
:1033FC000808080808080808080808080808080841
:10340C000808080808080808080808080808080830
:10341C000808080808080808080808080808080820
:10342C000808080808080808080808080808080810
:10343C007468726561645F30350000007468726591
:10344C0061645F30360000007468726561645F30DF
:10345C00370000007468726561645F3038000000EA
:10346C007468726561645F3039000000746872655D
:10347C0061645F3131000000746573745F6D757445
:10348C00657800002F686F6D652F6D69616F752F02
:10349C0070726F2F72697363762F7A6570687972A8
:1034AC002F74657374732F6B65726E656C2F6D75ED
:1034BC007465782F6D757465782F7372632F6D61D9
:1034CC00696E2E63000000000A20202020417373D7
:1034DC00657274696F6E206661696C6564206174D5
:1034EC002025733A25643A2025733A2025730A0067
:1034FC00746573745F6D757465780000544852453B
:10350C0041445F31310000005448524541445F3022
:10351C00390000005448524541445F3038000000E7
:10352C005448524541445F303700000054485245DE
:10353C0041445F30360000005448524541445F30EE
:10354C00350000006D757465785F636F6D706C6528
:10355C007800000054657374206B65726E656C2086
:10356C004D75746578204150490000007374617288
:10357C0074696E672074657374202D2025730A009E
:10358C003D3D3D3D3D3D3D3D3D3D3D3D3D3D3D3D5F
:10359C003D3D3D3D3D3D3D3D3D3D3D3D3D3D3D3D4F
:1035AC003D3D3D3D3D3D3D3D3D3D3D3D3D3D3D3D3F
:1035BC003D3D3D3D3D3D3D3D3D3D3D3D3D3D3D3D2F
:1035CC003D3D3D0A000000004661696C6564207455
:1035DC006F206C6F636B206D757465782030782567
:1035EC00780A0000287276206E6F74206571756100
:1035FC006C20746F20302900657870656374656485
:10360C00207072696F726974792025642C206E6F3A
:10361C00742025640A000000287276206E6F7420D6
:10362C00657175616C20746F207072696F7269744A
:10363C00795B695D2900000074635F7263206E6FB3
:10364C007420657175616C20746F2054435F504118
:10365C0053530000446F6E65204C4F434B494E470B
:10366C0021202043757272656E74207072696F72BE
:10367C00697479203D2025640A0000007468726525
:10368C0061645F303500000025732074696D6564DA
:10369C00206F757420616E64206F75742070726970
:1036AC006F726974792073686F756C642064726FC3
:1036BC00702E0A00287276206E6F74206571756109
:1036CC006C20746F203629004578706563746564CE
:1036DC00207072696F726974792025642C206E6F6A
:1036EC00742025640A0000006D757465785F3400E1
:1036FC004761766520257320616E64207072696F56
:10370C00726974792073686F756C642064726F7061
:10371C002E0A0000287276206E6F74206571756118
:10372C006C20746F20372900287276206E6F7420FD
:10373C00657175616C20746F2064726F7070726942
:10374C005B695D2900000000287276206E6F742082
:10375C00657175616C20746F203130290000000098
:10376C0054657374696E67207265637572736976DC
:10377C0065206C6F636B696E670A00004661696C4B
:10378C00656420746F206C6F636B20707269766156
:10379C007465206D75746578000000004661696C75
:1037AC00656420746F207265637572736976656CDD
:1037BC0079206C6F636B2070726976617465206D13
:1037CC007574657800000000556E657870656374DB
:1037DC0065646C7920676F74206C6F636B206F6EFF
:1037EC002070726976617465206D7574657800005F
:1037FC00287276206E6F7420657175616C20746F01
:10380C00202D454255535929000000004661696C32
:10381C00656420746F2072652D6F627461696E200F
:10382C006C6F636B206F6E207072697661746520AB
:10383C006D757465780000005265637572736976F6
:10384C0065206C6F636B696E67207465737473208D
:10385C007375636365737366756C0A004641494CF6
:10386C00000000002573202D2025734025642E2098
:10387C00000000004661696C656420746F207469F7
:10388C006D656F7574206F6E206D75746578203062
:10389C007825780A000000004661696C6564207424
:1038AC006F2074616B65206D757465782030782598
:1038BC00780A00004661696C656420746F204E4F75
:1038CC00542074616B65206C6F636B6564206D753F
:1038DC0074657820307825780A0000007468726569
:1038EC0061645F31320000004661696C656420746C
:1038FC006F206F627461696E207072697661746595
:10390C00206D757465780A009E1100800C12008081
:10391C000C120080941100809E110080F811008020
:10392C0002120080983B0080B83B0080D43B0080A2
:10393C00E83B0080F43B00800C3C0080756E6B6EA5
:10394C006F776E00457863657074696F6E20636184
:10395C0075736520257320282564290A0000000052
:10396C002A2A2A2A204B65726E656C20416C6C6F7A
:10397C00636174696F6E204661696C757265212094
:10398C002A2A2A2A0A0000002A2A2A2A2A204B65D7
:10399C00726E656C204F4F505321202A2A2A2A2AF6
:1039AC000A0000002A2A2A2A2A204B65726E656CAE
:1039BC002050616E696321202A2A2A2A2A0A0000D3
:1039CC002A2A2A2A20556E6B6E6F776E20466174F8
:1039DC00616C204572726F7220256421202A2A2A7C
:1039EC002A0A000043757272656E742074687265E1
:1039FC006164204944203D2025700A4661756C7431
:103A0C00696E6720696E737472756374696F6E206A
:103A1C0061646472657373203D20307825780A20C8
:103A2C002072613A2030782578202067703A203057
:103A3C00782578202074703A2030782578202074EE
:103A4C00303A20307825780A202074313A203078AA
:103A5C002578202074323A20307825782020743351
:103A6C003A2030782578202074343A203078257824
:103A7C000A202074353A2030782578202074363A84
:103A8C002030782578202061303A20307825782035
:103A9C002061313A20307825780A202061323A2092
:103AAC0030782578202061333A2030782578202012
:103ABC0061343A2030782578202061353A203078EE
:103ACC0025780A202061363A20307825782020612C
:103ADC00373A20307825780A00000000495352000C
:103AEC00657373656E7469616C207468726561646A
:103AFC0000000000466174616C206661756C742076
:103B0C00696E20257321205370696E6E696E672E65
:103B1C002E2E0A00466174616C206661756C7420EF
:103B2C00696E207468726561642025702120416281
:103B3C006F7274696E672E0A00000000ADBAADDEBC
:103B4C00ADBAADDEADBAADDEADBAADDEADBAADDEA1
:103B5C00ADBAADDEADBAADDEADBAADDEADBAADDE91
:103B6C00ADBAADDEADBAADDEADBAADDEADBAADDE81
:103B7C00ADBAADDEADBAADDEADBAADDEADBAADDE71
:103B8C00ADBAADDEADBAADDEADBAADDE496E7374B5
:103B9C0072756374696F6E206164647265737320EF
:103BAC006D6973616C69676E65640000496E73744E
:103BBC0072756374696F6E204163636573732066FD
:103BCC0061756C7400000000496C6C6567616C2059
:103BDC00696E737472756374696F6E00427265619D
:103BEC006B706F696E7400004C6F6164206164646B
:103BFC0072657373206D6973616C69676E656400BF
:103C0C004C6F616420616363657373206661756CCE
:103C1C007400000053707572696F757320696E744F
:103C2C006572727570742064657465637465642163
:103C3C00204952513A2025640A0000002F686F6D0C
:103C4C00652F6D69616F752F70726F2F7269736359
:103C5C00762F7A65706879722F617263682F72693A
:103C6C0073637633322F636F72652F74687265617C
:103C7C00642E6300282828287072696F7269747921
:103C8C002929203D3D203135202626205F69735F90
:103C9C0069646C655F746872656164282874687205
:103CAC006561645F66756E63292929207C7C2028F8
:103CBC005F69735F7072696F5F6869676865725F6F
:103CCC006F725F657175616C2828287072696F72EC
:103CDC0069747929292C20283135202D2031292966
:103CEC00202626205F69735F7072696F5F6C6F7737
:103CFC0065725F6F725F657175616C2828287072D0
:103D0C00696F7269747929292C2028282D3136295C
:103D1C002929292900000000415353455254494F89
:103D2C004E204641494C205B25735D204020257375
:103D3C003A25640A0000000009696E76616C6964BA
:103D4C00207072696F7269747920282564293B2070
:103D5C00616C6C6F7765642072616E67653A2025C3
:103D6C006420746F2025640A000000007561727471
:103D7C00300000007379735F636C6F636B0000003D
:103D8C00C21B0080AE1B0080000000000000000081
:103D9C0000000000383E008068380080C43D008080
:103DAC0052756E6E696E67207465737420737569D5
:103DBC0074652025730A0000534B49500000000025
:103DCC002573202D2025730A0000000054657374A0
:103DDC00207375697465202573206661696C656450
:103DEC002E0A000054657374207375697465202560
:103DFC0073207375636365656465640A0000000075
:103E0C004641494C4544000050524F4A45435420CA
:103E1C00455845435554494F4E2025730A00000020
:103E2C005355434345535346554C0000504153534F
:103E3C0000000000DC420080004300800C43008046
:103E4C000C4300800C4300806D61696E0000000023
:103E5C0069646C65000000002A2A2A2A2A20426F15
:103E6C006F74696E67205A6570687972204F5320A1
:103E7C007A65706879722D76312E31332E302D3370
:103E8C003032302D6733376633373434202A2A2AC0
:103E9C002A2A0A002F686F6D652F6D69616F752F67
:103EAC0070726F2F72697363762F7A65706879728E
:103EBC002F6B65726E656C2F6D757465782E630053
:103ECC006D757465782D3E6C6F636B5F636F756E8B
:103EDC0074203E20305500006D757465782D3E6F52
:103EEC00776E6572203D3D205F6B65726E656C2E42
:103EFC0063757272656E74002F686F6D652F6D69D6
:103F0C00616F752F70726F2F72697363762F7A657C
:103F1C00706879722F6B65726E656C2F696E636C4D
:103F2C007564652F6B73636865642E680000000010
:103F3C0021285F6B65726E656C2E6E65737465649B
:103F4C0020213D2030552900090A00005F6B657265
:103F5C006E656C2E63757272656E742D3E62617344
:103F6C00652E73636865645F6C6F636B6564202199
:103F7C003D2031006475726174696F6E20213D20A3
:103F8C00282D312900000000282828287072696F1C
:103F9C002929203D3D203135202626205F69735F7D
:103FAC0069646C655F74687265616428282828767A
:103FBC006F6964202A293029292929207C7C202812
:103FCC005F69735F7072696F5F6869676865725F5C
:103FDC006F725F657175616C2828287072696F2922
:103FEC00292C20283135202D203129292026262046
:103FFC005F69735F7072696F5F6C6F7765725F6F0B
:10400C00725F657175616C2828287072696F292937
:10401C002C2028282D313629292929290000000097
:10402C00215F69735F69646C65287468726561648B
:10403C00290000007468726561642D3E62617365CD
:10404C002E70656E6465645F6F6E00002F686F6D17
:10405C00652F6D69616F752F70726F2F7269736345
:10406C00762F7A65706879722F6B65726E656C2F1E
:10407C0073636865642E63005F6B65726E656C2E8E
:10408C0063757272656E742D3E626173652E736317
:10409C006865645F6C6F636B656420213D20300044
:1040AC002F686F6D652F6D69616F752F70726F2F33
:1040BC0072697363762F7A65706879722F6B65728B
:1040CC006E656C2F73656D2E630000006C696D69F5
:1040DC007420213D20305500096C696D6974206392
:1040EC00616E6E6F74206265207A65726F0A0000D3
:1040FC00696E697469616C5F636F756E74203C3DA9
:10410C00206C696D6974000009636F756E742063AF
:10411C00616E6E6F74206265206772656174657282
:10412C00207468616E206C696D69740A000000006F
:10413C002828285F6B65726E656C2E6E65737465CE
:10414C006420213D20305529203D3D203029207C04
:10415C007C202874696D656F7574203D3D20302975
:10416C00290000002F686F6D652F6D69616F752FC9
:10417C0070726F2F72697363762F7A6570687972BB
:10418C002F6B65726E656C2F7468726561642E633B
:10419C00000000000954687265616473206D6179D8
:1041AC00206E6F7420626520637265617465642093
:1041BC00696E20495352730A000000002F686F6D1E
:1041CC00652F6D69616F752F70726F2F72697363D4
:1041DC00762F7A65706879722F6B65726E656C2FAD
:1041EC007468726561645F61626F72742E63000043
:1041FC00287468726561642D3E626173652E7573F7
:10420C0065725F6F7074696F6E7320262028283179
:10421C00554C203C3C20283029292929203D3D2083
:10422C003000000009657373656E7469616C2074ED
:10423C0068726561642061626F727465640A000063
:10424C002F686F6D652F6D69616F752F70726F2F91
:10425C0072697363762F7A65706879722F6B6572E9
:10426C006E656C2F74696D656F75742E630000003C
:10427C00746F2D3E647469636B73203C20300000B6
:10428C00742D3E647469636B73203E3D20300000D6
:10429C00FC3400807C0C00804C0900804C090080B0
:1042AC0004000000000000000000000000000000FE
:1042BC000000000000000000A614008003000000B5
:1042CC00CC420080CC420080F5FFFFFF704800809C
:1042DC001033008000000000000000000433008058
:1042EC008C3D008000000000EC32008000000000DB
:1042FC0000000000F8320080000000000000000008
:10430C00E0440080804B00800002000052090080D5
:10431C00000000000000000000000000050000008C
:10432C000400000000000000000000004435008084
:10433C0050450080804D008000020000300A008053
:10434C00000000000000000000000000060000005B
:10435C000400000000000000000000003835008060
:10436C00C0450080804F008000020000BE09008024
:10437C00000000000000000000000000070000002A
:10438C000400000000000000000000002C3500803C
:10439C003046008080510080000200009E0A0080A0
:1043AC0000000000000000000000000008000000F9
:1043BC000400000000000000000000002035008018
:1043CC00A04600808053008000020000080B008093
:1043DC0000000000000000000000000009000000C8
:1043EC0004000000000000000000000014350080F4
:1043FC00104700808055008000020000BA0B00803E
:10440C000000000000000000000000000B00000095
:10441C0004000000000000000000000008350080CF
:10442C002C4400802C4400800000000000000000A0
:10443C000F00000040440080404400800000000059
:10444C00000000000F000000544400805444008021
:10445C0000000000000000000F0000006844008015
:10446C006844008000000000000000000F00000005
:10447C007C4400807C4400800000000000000000B0
:10448C000F00000090440080904400800000000069
:08449C00000000000F00000009
:040000058000000077
:00000001FF
