:0200000480007A
:100000009702000093820201739052306F10502EBD
:10001000130101FB2320110023223100232441007E
:100020002326510023286100232A7100232CC101BB
:10003000232ED1012320E1032322F1032324A10253
:100040002326B1022328C102232AD102232CE10254
:10005000232EF1022320010523221105F32210345F
:1000600023245104F322003023265104EF00002002
:100070001303000063160504F3222034B703008045
:100080009383F3FFB3F272001303B000638A62003C
:100090001305010097000000938040146F10501664
:1000A000832281049382420023245104977200002A
:1000B0009382829703A30200631403006F00000978
:1000C00093020100977300009383C3FB03A14300D5
:1000D000130101FF2320510003AE0300130E1E0085
:1000E00023A0C30163080300970000009380C003AE
:1000F0006F10D01973252034B70200809382F2FF6D
:1001000033755500EF00801597520000938242002E
:1001100013153500B382A20003A5020003A3420019
:10012000E7000300177300001303C3F583230300E4
:100130009383F3FF232073008322010013810200C5
:1001400083238300032E030263087E089772000056
:10015000938242F303A3820023268302232893027F
:10016000232A2303232C3303232E43032320530565
:10017000232263052324730523268305232893055F
:10018000232AA305232CB3052324230297730000FD
:100190009383838403AE03002326C30703A30202D1
:1001A00023A46200032183020324C30283240303E4
:1001B0000329430383298303032AC303832A0304F4
:1001C000032B4304832B8304032CC304832C0305D8
:1001D000032D4305832D83058322810473901234FC
:1001E0008322C104739002308320010083214100E7
:1001F000032281008322C1000323010183234101E3
:10020000032E8101832EC101032F0102832F41029E
:10021000032581028325C1020326010383264103AE
:10022000032781038327C103032801048328410492
:100230001301010573002030730000009772000065
:10024000938242E403A382008323C30613758500CF
:10025000F3220530138503006780000013031000AC
:10026000B312A30073B3423467800000F32220343A
:1002700037030080B3F262001305000063840200BC
:08028000130515006780000062
:10028800130101FD23229102232861012326110273
:100298002324810223202103232E3101232C410111
:1002A800232A51012326710123248101232291014C
:1002B800130B050093840500639C0638130406009D
:1002C8009309050017590000130909FD63F8C512C1
:1002D800B7070100938A05006378F6109306F00FBC
:1002E800B3B6C60093963600B357D6003309F90063
:1002F80003470900B306D700130700023307D740A6
:10030800630C0700B394E400B356DB003314E60033
:10031800B3EA9600B319EB00135B040193050B00D5
:1003280013850A00EF0040631309050093050B00CD
:10033800931B040113850A00EF00805D93DB0B011A
:10034800930405009305050013850B00EF0080500A
:100358001319090113D709013367E900138A040047
:10036800637EA70033078700138AF4FF636887005A
:100378006376A700138AE4FF33078700B304A74016
:1003880093050B0013850400EF00005D13090500B9
:1003980093050B0013850400EF008057939909011A
:1003A80093040500930505001319090113850B0033
:1003B80093D90901EF00004AB36939011386040093
:1003C80063FCA900B30934011386F4FF63E68900CE
:1003D80063F4A9001386E4FF93170A01B3E7C70083
:1003E800130A00006F000013B7070001930600010D
:1003F800E36CF6EE930680016FF01FEF138A060098
:10040800631A06009305000013051000EF00405022
:1004180013040500B7070100637CF4129307F00F7B
:1004280063F48700130A8000B35744013309F900C5
:100438008346090013060002B38646013306D640F8
:1004480063120612B3848440130A1000135B04017C
:1004580093050B0013850400EF00005013090500F5
:1004680093050B0013850400931B0401EF00404A19
:1004780093DB0B01930405009305050013850B001E
:10048800EF00403D1319090113D709013367E9004B
:10049800938A0400637EA70033078700938AF4FFDA
:1004A800636887006376A700938AE4FF33078700B1
:1004B800B304A74093050B0013850400EF00C0495F
:1004C8001309050093050B0013850400EF00404451
:1004D800939909019304050093050500131909016F
:1004E80013850B0093D90901EF00C036B3693901B0
:1004F8001386040063FCA900B30934011386F4FFD2
:1005080063E6890063F4A9001386E4FF93970A0160
:10051800B3E7C7001385070093050A008320C102CB
:100528000324810283244102032901028329C10192
:10053800032A8101832A4101032B0101832BC10076
:10054800032C8100832C4100130101036780000004
:10055800B7070001130A0001E368F4EC130A8001ED
:100568006FF09FEC3314C40033DAD400B319CB0016
:10057800B356DB00135B0401B394C40093050B006E
:1005880013050A00B3EA9600EF00003D13090500C1
:1005980093050B0013050A00931B0401EF00403775
:1005A80093DB0B01930405009305050013850B00ED
:1005B800EF00402A1319090113D70A013367E9002C
:1005C800138A0400637EA70033078700138AF4FFA9
:1005D800636887006376A700138AE4FF3307870000
:1005E800B304A74093050B0013850400EF00C03641
:1005F8001309050093050B0013850400EF00403133
:10060800930405009305050013850B00EF00802473
:1006180093960A011319090193D60601B367D90005
:100628001387040063FEA700B38787001387F4FFCE
:1006380063E8870063F6A7001387E4FFB3878700A2
:10064800131A0A01B384A740336AEA006FF01FE067
:1006580063ECD51EB707010063F4F6049305F00FA9
:1006680033B5D5001315350033D7A60097570000CA
:10067800938787C2B387E70083C50700130A000280
:10068800B385A500330ABA4063160A02930710001F
:10069800E3E296E83336CB00934716006FF09FE706
:1006A800B707000113050001E3E0F6FC130580011C
:1006B8006FF09FFBB35AB600B3964601B3EADA006F
:1006C80033D9B400B3974401B355BB0093DB0A0197
:1006D800B3E4F5001305090093850B00B31946012F
:1006E800EF0080271304050093850B00130509000C
:1006F800139C0A01EF00C021135C0C0113090500CB
:100708009305050013050C00EF00C0141314040131
:1007180013D704013367E400930C0900637EA70034
:1007280033075701930CF9FF636857016376A700F5
:10073800930CE9FF330757013309A74093850B0052
:1007480013050900EF0040211304050093850B00F1
:1007580013050900EF00C01B1309050093050500E8
:1007680013050C00EF00000F939704011314040104
:1007780093D707013367F40013060900637EA700C7
:10078800330757011306F9FF636857016376A7001B
:100798001306E9FF3307570193970C01370E010041
:1007A800B3E7C7001308FEFF33F3070133F8090165
:1007B8003307A74093DE070193D909011305030006
:1007C80093050800EF0000099308050093850900C8
:1007D80013050300EF000008130305009305080044
:1007E80013850E00EF000007130805009385090024
:1007F80013850E00EF00000693D6080133030301AA
:10080800B386660063F406013305C50113D60601F5
:100818003305A6006366A702E314A7BC37070100E7
:100828001307F7FFB3F6E60093960601B3F8E8005E
:1008380033164B01B3861601130A0000E37CD6CCAD
:100848009387F7FF6FF0DFB9130A000093070000E2
:100858006FF05FCC130605001305000093F6150032
:10086800638406003305C50093D5150013161600DA
:10087800E39605FE67800000130101FF138306005D
:1008880023261100130E05009308050093060600A1
:1008980013070000930700001308000013F5160063
:1008A800931E1700630C05003385080133380501D2
:1008B800B387E700B307F8001308050013D7F8015A
:1008C80093D6160033E7EE0093981800E39806FCD9
:1008D8006388050013050600EFF0DFF7B387A7006C
:1008E800630A030013050E0093050300EFF09FF65B
:1008F800B307F5008320C10013050800938507009E
:1009080013010101678000006340050663C6050600
:1009180013860500930505001305F0FF630C060216
:1009280093061000637AB6006358C00013161600C9
:1009380093961600E36AB6FE1305000063E6C50049
:10094800B385C5403365D50093D6160013561600F7
:10095800E39606FE6780000093820000EFF05FFBDD
:1009680013850500678002003305A04063D80500A1
:10097800B305B0406FF0DFF9B305B04093820000D3
:10098800EFF01FF93305A040678002009382000052
:1009980063CA0500634C0500EFF09FF71385050057
:1009A80067800200B305B040E35805FE3305A04058
:1009B800EFF01FF63305B040678002006780000043
:1009C800130101FF2324810037740080130404A25B
:1009D8008327040023261100938717002320F4009F
:1009E800EF3050088305E50093851500EF30C05BB4
:1009F800EF30C065832704008320C1009387170068
:100A08002320F40003248100130101016780000002
:100A18003715008093050000130585BC6F10000989
:100A28006F204052130101FF232481003774008096
:100A380013154500130444953304A4008325C4000A
:100A480003264400375500801305C54D23261100A1
:100A5800EF10D07293050400032481008320C100A5
:100A680037750080130545BD130101016F20103F44
:100A7800130101FE93050500232C810013040500D2
:100A8800376500801305C5DE232E1100232A910047
:100A98002328210123263101EF10506EEF40402C0E
:100AA800930905001305040013890500EF30006859
:100AB800EF40002BB309354133353501B385254166
:100AC800B384A54037650080130545E1EF10106B2E
:100AD8009357F44163C2F4026394970063EE89006C
:100AE80013074401333487003304F4006366940029
:100AF800639884046376370537560080B7650080AD
:100B080037650080938505E3130585E39306E02B9D
:100B18001306063FEF109066032481018320C1016C
:100B28008324410103290101938509008329C10018
:100B380037650080130585E4130101026F10106406
:100B4800032481018320C101832441010329010178
:100B58008329C10037750080130545A613010102DA
:100B68006F30C079130101FF23248100131455004D
:100B78003304A440131424003305850013143500EE
:100B88003755008093050400130585492326110075
:100B9800EF10D05E13050400EF30D01137550080F8
:100BA8001305C54BEF10905D032481008320C1001D
:100BB80037750080130545A6130101016F300074D5
:100BC800130101FF2324810037740080130484A5D6
:100BD800232291008324040023261100638C04003F
:100BE800930710006386F4029307F0FF2322F400B2
:100BF8006F00C000EF3000672324A4008320C100E9
:100C0800032481008324410013010101678000004F
:100C1800EF30100863060500232404006FF01FFE60
:100C2800B777008083A787088387E70063D6070024
:100C3800232494006FF09FFC930720002324F400E2
:100C48006FF0DFFB130101FD232E1100232C81001F
:100C580023240103232611036316050413860600C3
:100C6800375500809306070013870500B7550080A5
:100C780013840700938505439307810213050547ED
:100C88002326F100EF10904F8325C10013050400BF
:100C9800EF10D04B37650080130545EEEF10104E6E
:100CA800EF2040278320C1010324810113010103A0
:100CB80067800000130101FE232E1100232C810000
:100CC800232A9100232821012326310123244101CD
:100CD80023225101EF30005993050000EF30C02C5A
:100CE80037650080130505BDEF1050493774008043
:100CF800EF304057130484A5930A0500232004000D
:100D080023220400EFF0DFD0032544003759008088
:100D1800B7540080376A0080B769008093070AC01B
:100D28001307493B13860443938589C19306401CE6
:100D380013351500EFF01FF103258400B767008015
:100D4800B7650080330555411307493B13860443B3
:100D58009306701C9385C5C4938747C31335150044
:100D6800EFF05FEE37650080130505C8EF101041FE
:100D7800930710002320F40023220400EFF05FC93A
:100D88000325440093070AC01307493B138604430D
:100D9800938589C19306E01C13351500EFF09FEA8F
:100DA80003258400B7670080B76500801307493BB7
:100DB80013860443938747CA9306101D938545CC31
:100DC80013351500EFF01FE837650080130585CE51
:100DD800EF10D03AEF30C06BB7670080B76500807E
:100DE8001307493B138604439387C7D19306401DD5
:100DF8009385C5D313351500EFF0DFE4B77700808E
:100E080083A78708032481018320C1010388E700A1
:100E18008329C100032A8100832A41001307493B23
:100E28001386044303290101832441011345F8FF74
:100E3800B7670080B7650080938747D59306801D04
:100E4800938585D81355F501130101026FF09FDFD3
:100E580067800000130101FE23282101232E1100C1
:100E6800232C8100232A91002326310123244101C8
:100E7800EF30906D13090500EF30106DE30EA9FEF9
:100E8800130919009304000013040000EF30D06B1D
:100E98006300250B93D7C401130570001314440095
:100EA80033E48700EF109033EF30106A93944400D6
:100EB800130A05001309000093090000639424092C
:100EC80063123409EF30506813057000EF101030CA
:100ED80013040000930400006312890863909908C2
:100EE800EF309066032481013305AA408320C101B5
:100EF80083244101032901018329C100032A8100B8
:100F0800B76700803757008037560080B765008084
:100F18009387C7DA1307C7399306C0171306064322
:100F28009385C5DC3335A000130101026FF09FD112
:100F38009387140033B7970033048700938407001E
:100F48006FF0DFF4EF3050609307190033B72701D3
:100F5800B3093701138907006FF05FF6EF30D05EF1
:100F68009307140033B78700B3049700138407006E
:100F78006FF09FF66F10107D130101FEB716008009
:100F8800B7750080377500802322010023200100F7
:100F9800930840FF130800009307000013070000A0
:100FA8009386C6FC130600209385054B130545B6AA
:100FB800232E1100EF30405F8320C101130101028D
:100FC80067800000B7770080938707A203A7070010
:100FD800130101FE232C81001304050037750080DE
:100FE800232E110013071700232A9100232821011B
:100FF80023263101232441019305F0FF130545A75A
:1010080023A0E700EF300038EF30C0259309050032
:10101800375A00803305A440B757008037740080E2
:10102800B7540080B7550080130984A593870764D7
:101038003335A0001307CA3C9306A01E1386044349
:1010480093850566EFF01FC02320090023220900BD
:10105800EFF01F9C83274900130484A513050000A3
:1010680063980700032584003305354113351500BF
:10107800B7570080B75500801307CA3C138604434E
:101088009306401F9385C56B9387C768EFF09FBB96
:10109800930710002320F40023220400EFF05F9749
:1010A8008327840003254400B75500801307CA3CF2
:1010B8003365F500B757008013860443938747705C
:1010C8009306A01F9385457313351500EFF09FB75E
:1010D800EF30003CB7570080B76500801307CA3C63
:1010E800138604439387C7769306C01F9385C5D399
:1010F80013351500EFF01FB5B777008083A7870871
:10110800032481018320C1010385E700032901012C
:101118008329C1001307CA3C13860443032A8100AC
:1011280083244101B7570080B75500809387C7795A
:101138009306F01F9385057C1355F50113010102F1
:101148006FF05FB0130101FEB7160080B77500801D
:101158003775008093070000130740019386C6B6D1
:10116800130600182322010023200100930840FFE2
:10117800130800009385056B130545BE232E110047
:10118800EF3080423775008093058002130545A62D
:10119800EF30401F8320C101B767008037570080B8
:1011A80037560080B76500809387078B1307074081
:1011B8009306802E130606439385058E1335150076
:1011C800130101026FF01FA8130101FE232A9100E9
:1011D800B7740080938404A2232E1100232C81006D
:1011E80023A00400EF30000893050000EF20D05B37
:1011F80037740080130544A71306F0FF9305000019
:10120800EF300007B7160080B7750080377500808B
:10121800930840FF23220100232001001308000047
:1012280093070000130700009386066B130600203F
:101238009385050B130545A8EF30003703A8040074
:10124800B7670080375700801305F8FF37560080CE
:10125800B7650080938747B8130707429306C037DE
:10126800130606439385C5BA13351500EFF09F9D05
:10127800130544A7EF308008130544A7EF30000892
:10128800130544A7032481018320C101832441015C
:10129800130101026F308006130101F7232E310775
:1012A800232C4107B7790080377A0080B716008071
:1012B800930840FF1308000093070000130720035A
:1012C800938686A7130600189385096B13054ABEF3
:1012D800232201002320010023261108232481084A
:1012E8002322910823202109232A51072328610753
:1012F8002326710723248107232291072320A1078E
:10130800232EB105EF30402A37750080930540063B
:10131800130545A6EF30000737540080B7670080F3
:10132800B7540080B76500809387078F130704417F
:101338009306303013860443938585921335150040
:10134800EFF05F9037650080B77A00801305C5938A
:10135800371D0080138B4A95930B4ABE1389096B7E
:10136800EF10C0619389096B130A4ABE938A4A95A4
:10137800130C0000930D7000930C0D0083A74A0016
:1013880013070C00938509002322F10013050A00B6
:1013980023200100930850FF130800009307000062
:1013A8009306CDA213060018130C1C00EF30C01FC3
:1013B800938A0A01130A0A0793890918E310BCFDE6
:1013C80037730080930D0000376D0080B76A008086
:1013D800376A0080130C0300130543BD9305E02E04
:1013E800EF20C028930905009307CD961307044101
:1013F80093063031138604439385CA993335A00088
:10140800EFF05F8403A88900376E008093054E9E35
:101418003305B84193880D009307CA9A130704410E
:10142800930670311386044313351500EFF09F813E
:1014380003A6490083A5C900376500801305C5A028
:10144800EF10C053376E0080938D1D009307700016
:10145800232CC10137730080E390FDF8130543BDC9
:101468009305E02EEF208020376A0080B76A00805D
:101478009307CAA313070441930600321386044353
:1014880093858AA613351500EFF0CFFB37650080EA
:10149800130585A7EF10804EB7550080130600018D
:1014A8009385C52813054102EF105009930D410398
:1014B80013030B00130D00009309700083274300EA
:1014C80013070D00930509002322F10013850B0073
:1014D80023200100930850FF130800009307000021
:1014E8009386CCA213060018232E6100EF30C00BA0
:1014F8000323C10123A0AD00130D1D001303030135
:10150800938B0B0713090918938D4D00E3183DFBC6
:10151800B71B000013090B0093090000130D00000E
:10152800930C7000938BEBAB93972900130701057D
:10153800B307F70083A747FD638EA71193850B00B8
:1015480013054CBDEF208012B7670080B765008097
:10155800930D05009387C796130704419306E0345B
:10156800138604439385C5993335A000EFF08FEDBA
:1015780003A88D0083258101B767008033050D41DD
:101588009387C79A93062035138604439385459E0F
:101598001335150093080D0013070441EFF08FEA87
:1015A80083A68D0003A64D0083A5CD00B7670080F4
:1015B800138587AAEF10803C130D1D00130909013C
:1015C800E3149DF71385C9FFB7670080B7650080EE
:1015D800130704411386044393880900938747B18E
:1015E8009306B03513084000938505B513351500EB
:1015F800EFF04FE59305E02E13054CBDEF200007F3
:1016080013070441032481088320C1080329010822
:101618008329C107032B0107832BC106032C8106ED
:10162800832C4106032D0106832DC1059307CAA308
:1016380013860443032A81078324410893858AA6D5
:10164800832A41079306F035133515001301010964
:101658006FF04FDF032649008325C900B767008074
:10166800138507AE93060D00EF10403113070B00EA
:101678009307000083268700638AA60193871700D3
:1016880013070701E39897FF6FF05FEB1307010556
:1016980093972700B307F70003A547FE938919001E
:1016A800EF30C0196FF05FF1130101FD23248102AF
:1016B80037740080130404A283270400232E310109
:1016C800B7790080938717009305F0FF138549A722
:1016D800232611022322910223202103232C4101D6
:1016E8002320F400EF20104AEF20D037130A05001A
:1016F800B7160080B775008037750080930830FFF3
:101708001308000023220100232001009307000092
:10171800130700009386869C130600209385052BEB
:10172800130545AF23200400EF20106803250400AB
:1017380037590080B7540080B7570080B7550080EC
:101748001307093E13860443938787509306802422
:101758009385C55313351500EFF0CFCEEF20100F4A
:1017680003280400B7570080B75500801307093EC7
:1017780013860443333500019387075693062025C3
:1017880093858559EFF00FCC03280400B7570080E4
:10179800B75500801307093E138604431325280014
:1017A8009387875B930660259385055FEFF08FC964
:1017B8008305EA0013050A009385F5FFEF20C07E34
:1017C800EF20D00803250400B7570080B7650080D4
:1017D8001305F5FF1307093E138604439385C5BA1D
:1017E800133515009387076193060026EFF08FC520
:1017F800032481028320C1028324410203290102B8
:10180800032A8101138549A78329C1019305F0FFA4
:10181800130101036F20103737750080130101FF92
:101828001306F0FF93050000130545A623261100B3
:10183800EF20102437750080930500001306000080
:10184800130545EFEF30C05437750080130545BDCB
:10185800EF10505F8320C100B775008037650080A6
:101868009385C588130545DE130101016F1080704B
:10187800130101FF23261100232481009307600030
:101888006304F502EF20D04063040502EF205040C6
:1018980063160504B76500809385050437650080E5
:1018A80013054505EF10800DEF1040116FF0DFFFB5
:1018B800EF20103FE31C05FC377400801304040874
:1018C800832584003765008013054507EF10000B5A
:1018D80003258400EF2090766FF01FFDB765008028
:1018E8009385C5036FF09FFB130101FB232481043B
:1018F8002322910423261104930760009304050012
:101908001384050063E0A70E37670080931725004E
:10191800130787E6B387E70083A7070067800700F8
:1019280037650080130505ECEF104005EF20901394
:1019380083274404832804010328C4002328F102D0
:101948008327040403274400832604002326F10286
:101958008327C40303268404930505002324F10286
:101968008327840337650080130545F42322F10299
:10197800832744032320F10283270403232EF10045
:101988008327C402232CF10083278402232AF10031
:10199800832744022328F100832704022326F10029
:1019A8008327C4012324F100832784012322F10023
:1019B800832744012320F10083278400EF00107C53
:1019C8009305040013850400EFF09FEA3765008053
:1019D800130585EE6FF05FF537650080130545F058
:1019E8006FF09FF43765008093850400130505F2B6
:1019F800EF00D0786FF09FF3130101FF23248100DB
:101A0800232611001304050073262034131616002C
:101A1800135616009307500063E8C7023767008023
:101A280093172600130747E8B307F70083A50700B5
:101A380037650080130545EAEF00507493050400EC
:101A480013050000EFF05FEAB76500809385C5E9EC
:101A58006FF01FFE130101FF23261100F325203428
:101A6800376500809395150093D515001305451724
:101A7800EF00D070B76500809385C5091305400055
:101A8800EFF09FE6B7770080938747A203A7070088
:101A9800630C070003A3070023A00700B7770080A3
:101AA80003A587A2670003006780000093078000F2
:101AB800F3B70730377700802322A7A23777008053
:101AC8002324B7A27300000093F78700F3A7073019
:101AD80067800000130101FF23261100EF10900119
:101AE800EF00D070EF10D00717710000130101E468
:101AF800B71200009382028033015100EFF09FFD7E
:101B08006F008011130101FD232481022322910219
:101B180023202103232E3101232611029389060055
:101B28009306F000930405001384050013090600CA
:101B3800639CD808B73600809386462C639CD908E6
:101B480083260103938508001385040013064000CB
:101B5800232601012324F1002322E100EF20504C29
:101B680083278100930509FBB305B40023AE040461
:101B780023A0040693F505FF23A8F502B727000064
:101B8800032741000328C1009387078823A6F5048B
:101B9800B72700808320C10203248102938787B07E
:101BA80023A4350323A6E50223AA050323A4F504E9
:101BB80023A4B40203290102832441028329C10119
:101BC8001301010367800000938608011306E001F2
:101BD800E378D6F637660080B76500803765008001
:101BE800930680011306C6199385451D130585279D
:101BF80023221101EF0090588328410037650080A7
:101C0800930600FF1306E000938508001305852955
:101C1800EF00D0566F000000130101FF9307050085
:101C28001385050093050600138606002326110078
:101C3800E7800700EF200063EF20504093971500DE
:101C4800B387B700139727008327C500B387E7003A
:101C58000307B5006354B70083A707001357F6417D
:101C68001377F7013307C700135757401317270097
:101C7800B387E70023A0F6001375F601678000001C
:101C8800130101FE9306C100232E1100EFF01FFB84
:101C98000327C100930710003395A7008327070087
:101CA8008320C101B3E7A7002320F7001301010235
:101CB80067800000130101FE9306C100232E110066
:101CC800EFF0DFF70327C100930710003395A70053
:101CD800832707008320C1011345F5FF33F5A700CB
:101CE8002320A7001301010267800000130101FEF1
:101CF800232A910083244500232C81001304050026
:101D080003558500938504002328210123263101EA
:101D1800232441012322510123206101232E110094
:101D2800EFE05FB383290400834AA4009307F0FF20
:101D3800130A0500B389A900A305F40013090000DC
:101D4800130BF001634C590393040000835784007C
:101D580063CCF4088320C101032481018324410159
:101D6800032901018329C100032A8100832A410034
:101D7800032B010013010102678000009385040012
:101D880013050A00EFE0DFB813171900330727011E
:101D9800931727000327C4003307F700930747006A
:101DA8002322F7002324F700634EAB00A305240188
:101DB80093D424009384340093F4C4FF13091900C6
:101DC8006FF05FF81305F5019357F54193F7F701A5
:101DD800B387A70093D7574093972700232037014D
:101DE800B389F9006FF0DFFC8325440013850400F4
:101DF800EFE05FA683270400138604009305000024
:101E08003385A7008327C4009384140013874700F1
:101E18002320E50003A787002322E50003A7870006
:101E28002320A70023A4A70013050400EFF05FE513
:101E38006FF0DFF1130101FA232C81042326310509
:101E480023206105232E1104232A91042328210528
:101E58002324410523225105232E7103232C8103BA
:101E6800232A91032328A1032326B103130401067F
:101E7800034EA5009309F0FF93172E009387F700F0
:101E880093F7077F3301F14083274500130B0100C7
:101E980093080B009387370093F7C7FF2320FB00B5
:101EA80093070000938AF7FF63D2C703638C070088
:101EB80003A8C8FF13582800130838001378C8FF70
:101EC80023A0080103A80800637AB8049307F0FF69
:101ED800639EFA0623200700130540FF130104FA46
:101EE8008320C105032481058324410503290105B5
:101EF8008329C104032A8104832A4104032B010492
:101F0800832BC103032C8103832C4103032D01037D
:101F1800832DC10213010106678000000323C50059
:101F2800139817003308F800131828003308030122
:101F380013034800032848006304680093890700D6
:101F480093871700938848006FF0DFF5E384F9F86A
:101F5800834705011309000093F7170063880700FA
:101F68001309800073390930137989009397190090
:101F7800232AE4FAB38737010327C500939727007C
:101F880093874700B307F700938C0600232CC4FA05
:101F9800930405001307F0FF03AA0700638047199D
:101FA8009397290003274A00330DFB0083270A0073
:101FB80083250D00930D80002320F70023A2E7005E
:101FC80003A504003305AA40EFE01F94130605009B
:101FD8009385090013850400EFF0DFCD938919007C
:101FE8001387F9FF6344570583C7040193F7170064
:101FF8006384070073290930832784FB03A5040041
:1020080023A05701939A2A00330B5B0183250B0009
:102018003305AA40EFE05F8F832744FB23A0AC0081
:102028001305000023A047016FF05FEB03A5040030
:1020380083250D00930B10003305AA40EFE0DF8CD9
:102048009398190093172500B3883801232EF4FAC2
:102058009398280003274D0093850B00232614FB33
:10206800130507002328E4FAEFE0CFFE8327C4FB1B
:10207800330CAA00938509003386FB0013850400FE
:10208800EFF01FC0032704FB03A6040083A5440048
:102098001307F7FF03D584003307EC003307C74065
:1020A8002328E4FAEFE00FFB032704FB8328C4FA94
:1020B8006374A70203A7C400330717011306470078
:1020C8002320CC00032687002322CC000326870088
:1020D8002320860123248701938B1B00930740004C
:1020E800E39AFBF603C7040113771700631A070086
:1020F8001309000093891900130D4D006FF05FEE6E
:102108007329093003C7040113771700E30207FE98
:1021180073B90D30137989006FF0DFFD9389F9FFEA
:1021280093074AFFE39AE9E6130A00006FF0DFEB32
:10213800130101FA232C8104232A91042324410545
:10214800232E110423282105232631052322510596
:1021580023206105232E7103232C8103232A910355
:102168002328A1032326B103130401060347A5006E
:1021780093040500131727001307F7001377077F49
:102188003301E14003274500130A010093060A00C2
:10219800130737001377C7FF2320EA001305100041
:1021A8009386460063FAA50803C70401138C05004B
:1021B8009309060013771700130900006308070046
:1021C800130980007339093013798900130D400011
:1021D80013172C003307EA00832A070083AB040097
:1021E8001385090093850A00EFE0CFE6138BFAFF09
:1021F800B30D6501B38BAB0083A5440003D5840000
:10220800EFE04FE563E8AD0437660080B76500800E
:1022180037650080130585279306200A1306C62C08
:1022280093850530EF008075376500801305C5314B
:10223800EF00C0746F00000003A7C6FF1305150068
:1022480013572700130737001377C7FF23A0E600AB
:102258006FF01FF51386090093050C001385040021
:10226800EFF01FA213171C003307870193162700EE
:1022780003A7C4003307D7009306470023A0DB0059
:102288008326870023A2DB008326870023A076010C
:102298002324770103C7040113771700631E07047B
:1022A800930B000013890B0063180C0683C7040105
:1022B80093F7170063920712130104FA8320C105EC
:1022C8000324810583244105032901058329C104C9
:1022D800032A8104832A4104032B0104832BC103AD
:1022E800032C8103832C4103032D0103832DC10299
:1022F80013010106678000007329093003C7040130
:1023080013771700E30E07F893078000F3BB073035
:1023180093FB8B006FF01FF99306C4FB138609002B
:1023280093050C0013850400EFF05F918326C4FB2E
:102338001357F541137737003307A70003A50600A5
:102348001377C7FF9307F0003357E5001377F700BB
:10235800E31EF7F4930C000093FDC9FF33869D013B
:102368001305060093850A002324C4FAEFE08FCEF4
:10237800B3066501930B050083A5440003D58400CB
:102388002326D4FAEFE00FCD8326C4FA032684FA75
:1023980063F4A60293050C0013850400EFF09F91E7
:1023A80083A60400B38B760103A64B0083A60B001B
:1023B8002320D60023A2C600938C1C00E390ACFB1C
:1023C80013D6F94113763600B3093601130CFCFF16
:1023D80093D929406FF0DFDFF3AB0B306FF0DFEDFF
:1023E800130500006780000083A705009387170086
:1023F80023A0F500B777008003A3479C670003007C
:10240800130101FC232C81022326310323244103D9
:10241800232061032328A101232E1102232A9102DC
:102428002328210323225103232E7101232C810108
:10243800232A91012326B10193090500138A050077
:10244800130D0600138B0600130410006354E000FC
:102458001304070093071000930C00026314FB0099
:10246800930C0003B7D49A3B13091000930AA000F9
:10247800130C00009384F49F930D2000938B140099
:1024880063140C0063F2A40B93850B0013050D0075
:10249800EFE00FC893050A0013050503E78009005C
:1024A80013091900130C100093850B0013050D0078
:1024B800EFE08FCA130D05009305A00013850400F3
:1024C800EFE00FC5938AFAFF930710009304050005
:1024D800E396FAFA93050A0013050D03E78009004D
:1024E80093073000330424416306FB068320C103AD
:1024F8000324810383244103032901038329C1029F
:10250800032A8102832A4102032B0102832BC10182
:10251800032C8101832C4101032D0101832DC1006E
:102528001301010467800000E34054F9E3EE6DF7FE
:1025380093050A0013850C00E780090013091900A8
:102548006FF09FF693050A0013050002E780090063
:102558001304F4FFE34880FE6FF05FF9B77700805B
:1025680023A2A79C67800000130101FB2324810498
:102578002322910423202105232E3103232C4103F8
:10258800232A51032328610323229103232EB10117
:102598002326110423267103232481032320A10366
:1025A8001304050093840500130B0600938C0600A2
:1025B800130A00001309F0FF93090000930D0000AF
:1025C800930A100003450B00631005048320C1041F
:1025D8000324810483244104032901048329C103BA
:1025E800032A8103832A4103032B0103832BC1029E
:1025F800032C8102832C4102032D0102832DC1018A
:102608001301010567800000639E0D0093065002C8
:10261800630CD53093850400E7000400130B1B00FE
:102628006FF05FFA930640066300D51263E2A606D0
:102638009306900363EAA602930610036374D50E0B
:102648009306D002630CD52E930700036300F50CA4
:10265800130750026312E502938504001305500224
:10266800E70004006F00401293068005630ED5163C
:1026780013073006630EE5289385040013055002FE
:10268800E70004009385040003450B006FF05FFD2D
:1026980093060007630AD51263E0A6029306900624
:1026A8006304D50A9306C006630CD5089306800612
:1026B800E306D5F66FF05FFC930650076304D50E6A
:1026C80063EEA60213073007E318E5FA138C4C00F3
:1026D80083AC0C00938B0C0003C50B00631805201A
:1026E800930730006398F900B38B9B41B30B794192
:1026F80063467021930C0C006F0000099306800755
:102708006304D50E9306A0076FF09FFA635E090075
:10271800638A0922130905FDE39209F09309200051
:102728006FF0DFEFE34809FE93162900338926018D
:1027380013191900130909FD330925016FF0DFFD8D
:10274800130A1A006FF09FED63C44A0503A60C0034
:10275800938C4C0063500602938504001305D00245
:102768002324C100E7000400032681001309F9FFB0
:102778003306C040130709009386090093850400B7
:1027880013050400EFF0DFC7930D00006FF01FE999
:1027980093877C0013F787FF930C870003260700B5
:1027A8006FF05FFB63C84A0103A60C00938C4C00D2
:1027B8006FF05FFC93877C0013F787FF930C87000B
:1027C800032607006FF01FFB938504001305000321
:1027D800E70004009385040013058007E700040060
:1027E800130980009309100063CA4A0983A70C00E3
:1027F800938C4C002324F10013068000130C000076
:10280800130D00009305800083278100938BF5FF4B
:1028180013952B0033D5A7001375F500631205082F
:102828009306000363140D00639655093385A600CB
:102838001315850193850400135585412326C1008E
:10284800E7000400130C1C000326C10063940B046A
:1028580093063000930D0000E392D9DC131719009A
:10286800330C8741E35280F393850400130500027B
:10287800E7000400130CFCFF6FF0DFFE93877C0079
:1028880093F687FF83A70600938C86002324F10024
:102898006FF09FF6138D0D0093850B006FF0DFF638
:1028A8009307900093067005E3E2A7F893060003E8
:1028B8006FF0DFF79307F6FF2326F100634AC9009C
:1028C800639C59019385040013050003E700040085
:1028D8000326C1006FF05FFC93072000E39AF9FE1E
:1028E80093850400130500026FF05FFE93850400D2
:1028F800938B1B00E70004006FF01FDE9385040034
:1029080013050002E7000400938BFBFF6FF05FDE06
:1029180003A50C00938B4C0093850400E70004008A
:10292800938C0B006FF05FE6130A00001309F0FFA9
:1029380093090000930D10006FF05FCE93093000EB
:102948006FF0DFCD930910006FF05FCD130101FE2A
:102958001306050037250080938605001305053FFB
:102968009305C100232E110023260100EFF0DFBFDD
:102978008320C1011301010267800000130101FCDB
:102988002322B10293054102232E11002324C10200
:102998002326D1022328E102232AF102232C010352
:1029A800232E11032326B100EFF05FFA8320C10123
:1029B800130101046780000067800000930780000E
:1029C800F3A70730730050106780000093071000CA
:1029D8003395A700732545306780000093071000E2
:1029E8003395A70073354530678000009307800052
:1029F800F3B707307350403073504034678000009D
:102A0800130101FF232481002322910037740080E1
:102A1800232611009307A000930405001304C4A201
:102A2800631CF500032504009305D00083274500A7
:102A380083A74700E78007000325040093F5F40FF8
:102A48008327450083A74700E78007008320C1004C
:102A5800032481001385040083244100130101012C
:102A68006780000037350080130585A06FF01FAF21
:102A780037650080130101FF130505322326110075
:102A8800EF00007AB777008023A6A7A2EFF09FFD9A
:102A98008320C100130500001301010167800000B5
:102AA800B70710F003A747F403A507F483A547F475
:102AB800E39AE5FE67800000130101FE232C8100E4
:102AC800232E1100232A91002328210123263101D6
:102AD800232441011304800073340430B774008048
:102AE800938404A3EFF0DFFB03A9040003AA4400C6
:102AF8009307050033052541B3B7A700B3854541C2
:102B080037D601001306064C93060000B385F5403E
:102B1800EFD00FF793090500B7D501009385054C51
:102B280013850900EFD01FD3330925013335A900D8
:102B38003305450123A0240123A2A40013748400B3
:102B480073240430032481018320C10183244101BB
:102B580003290101032A8100138509008329C10083
:102B6800130101026F20C008130101FF2326110081
:102B7800EFF01FF3B7D701009387074C370710F022
:102B8800B307F5009306F0FF2326D7F433B5A70063
:102B98003305B5002324F7F42326A7F413057000A2
:102BA800EFF0DFE28320C1001305000013010101EB
:102BB8006780000063900510130101FE232C81003B
:102BC800232E1100232A91002328210123263101D5
:102BD800232441019307F0FF130405006316F50051
:102BE800379500001304E5BC93048000F3B4043067
:102BF800EFF01FEBB7970000930905009387E7BC38
:102C08001305F4FF93F4840063D0A70A1385070023
:102C180037D401009305044CEFD0DFC3B7770080A9
:102C2800938707A303A9070003AA47009307F44B58
:102C3800B3872741B38737013385A7009305044C31
:102C4800EFD01FCD9305044CEFD0DFC0B309394155
:102C5800B389A9009307703E63C637011304044C77
:102C680033058500B70710F0330925011307F0FF76
:102C780023A6E7F43335A9003305450123A427F536
:102C880023A6A7F4F3A404308320C10103248101FF
:102C980083244101032901018329C100032A8100FA
:102CA8001301010267800000E35405F613050000D4
:102CB8006FF01FF667800000130101FF23248100D5
:102CC800232611001304800073340430EFF05FDD15
:102CD800B777008083A707A3B7D501009385054C74
:102CE8003305F540EFD0DFC2137484007324043039
:102CF8008320C100032481001301010167800000C3
:102D0800130101FF23261100EFF09FD98320C10092
:102D180013010101678000008347050003C7050010
:102D28006394E700639607003385E74067800000F7
:102D380013051500938515006FF01FFEB347B50006
:102D480093F73700638C0704930705001307000007
:102D58006316E60667800000E30E06FE93851500FD
:102D680003C7F5FF938717001306F6FFA38FE7FE47
:102D780013F73700E31207FE930630003308E640E6
:102D880063E2060313572600931627003306D6403E
:102D9800B387D700B385D5006FF05FFB93070500B5
:102DA8006FF01FFDB388E50083A808003388E700AB
:102DB80013074700232018016FF05FFC3388E500F4
:102DC80003480800B386E7001307170023800601AD
:102DD8006FF01FF893F6F50F9307050013F7370008
:102DE8006314070493F5F50F13978500B365B700CF
:102DF80013970501B365B7003383C700138707002E
:102E080013083000B308E340636A18031357260019
:102E180093152700B387B7003306B6403386C7003B
:102E28006394C70267800000E30E06FE93871700CD
:102E3800A38FD7FE1306F6FF6FF05FFA130747005C
:102E4800232EB7FE6FF01FFC93871700A38FD7FEC2
:102E58006FF01FFD130101FF232601008327C10026
:102E6800938717002326F100B70701F023A0B700C6
:102E780013010101678000001305F0FF678000005F
:102E88001305000067800000130101FE232C810058
:102E98008327850037740080232A91001304849CBB
:102EA800B7740080232E1100232821012326310125
:102EB800938484A3930910002320040013090500B8
:102EC80023A03401E7800700832749002320340129
:102ED800E7800700930720002320F4008327C90018
:102EE800E7800700930730002320F40003248101C2
:102EF80023A004008320C101832441010329010187
:102F08008329C10037750080130505F213010102FA
:102F18006F10C03E37750080130101FFB77700803E
:102F28001307F0FF130505F22326110023ACE7A2CF
:102F3800EF10C03CEF1000338320C10013010101E2
:102F48006F10D00F37750080130101FFB77700802D
:102F58001307E0FF130505F22326110023ACE7A2AF
:102F6800EF10C039EF1000308320C10013010101B8
:102F78006F10D00C130101FA232A9104B774008052
:102F880083A7C4A3232E1104232C810423282105FD
:102F980023263105232441052322510523206105D9
:102FA800232E7103232C8103232A91032328A103B1
:102FB8002326B10363C40708377400801306100082
:102FC80093090500138C0500130504F2930500000E
:102FD800EF10002A376500809385090013054535F1
:102FE800EFF0DF99376900801305C936B76A0080AA
:102FF800EFF0DF989384C4A3130A0000232E810006
:10300800B78C0080377B0080373D0080B77D00801B
:10301800B76B0080938A8A3483274C00639E070429
:103028009385090063060A10376500801305C53DBE
:10303800EFF0DF949307100023A0F4008320C1056C
:103048000324810583244105032901058329C1043B
:10305800032A8104832A4104032B0104832BC1031F
:10306800032C8103832C4103032D0103832DC1020B
:10307800130101066780000083250C00B7670080F4
:103088001385473BEFF09F8F2322010083270C0114
:1030980013070C001306004093E787009308F0FF1E
:1030A8001308000093060DE92320F10093850C1303
:1030B8009307000013050BF3EF10004F8327C1019E
:1030C8009305F0FF138507F2EF10C02B93878DA3AC
:1030D80013050BF303A40700EF104076B7770080C1
:1030E800938787A303A70700130414009307E0FF3F
:1030F8001334140003260C006314F702B76500802C
:103108009385853C13850B3DEFF05F871305C93622
:10311800EFF0DF86330A8A00130C4C016FF0DFEF03
:1031280093172400B387FA0083A507006FF09FFD6B
:10313800376500801305453FEFF05F8483A70400DF
:10314800B337F0006FF05FEFB777008083A7C7A3AE
:10315800130101FF23248100376500802326110015
:10316800376400801305C53663820702EFF01F81BC
:10317800B7650080938505411305844103248100C8
:103188008320C100130101016FF04FFFEFF00FFF23
:10319800B7650080938505436FF01FFE130101FF9B
:1031A80023261100EFE04FE78320C100130101013E
:1031B8006FF09FF913172500B767008013051500F6
:1031C8009387474413152500130101FF3387E70050
:1031D800B387A7002324810023229100032407003A
:1031E80083A4070023261100636C94008320C10088
:1031F800032481008324410013010101678000003A
:10320800832704001305040083A74700E78007000D
:1032180063040500232204001304C4006FF0DFFCDC
:10322800130101FFB777008023229100B774008053
:1032380023248100232611001384C79D2320210104
:103248009387C79D9384C4A0631C94001309050049
:103258001384070063149402130400006F004004F1
:103268000327440063080700032704000327070017
:103278006308A7021304C4006FF01FFD83274400EE
:10328800639607001304C4006FF0DFFC8327040073
:103298001305090083A50700EFF01FA8E31405FE36
:1032A800130504008320C100032481008324410006
:1032B800032901001301010167800000130101FFC8
:1032C8002324810023229100232611001304800067
:1032D80093042000F3370430EF10406D63C4A4005A
:1032E8001305100093051000EF10100BEFF00FED11
:1032F8006FF05FFE37750080B7770080130605A270
:103308009387C70A3386C74093050000130505A2B3
:103318006FF05FAC130101FF130520002326110095
:10332800EFF05FE93765008013050546EFF00FE51C
:1033380013053000EFF01FE8EF100039EFF01FE63B
:10334800B77700809387070103C7C7001377E7FFA4
:103358002386E7008320C100130101016780000074
:10336800130101F6232A91089304010113060007AB
:103378009305000013850400232E1108232C8108CF
:103388002328210923263109EFF0DFA437740080B0
:10339800B797008093090408938707131305000063
:1033A80023A2F900EFF01FE113051000EFF09FE0F2
:1033B8009307101023A49900231EF100EF00D03CBE
:1033C800B767008093878745377900802322F1000B
:1033D800B736008093071000B78500809304090171
:1033E8002320F10013070000930700009308000052
:1033F800130800009386C6311306002093850553F1
:103408001305090123A09902EF10401683C7D400C1
:103418001304040813F7B7FFA386E40093F7B70172
:10342800639C070003A704029307F0FF6316F700E5
:1034380013050901EF00405FB7670080938747884D
:103448002322F1003775008093071000B7360080FB
:10345800B7850080930405FA2320F1009308F00053
:103468001308000093070000130700009386462CFA
:103478001306002093850573130505FAEF10000F56
:1034880083C7D400232694001305800093F7B7FF61
:10349800A386F400B777008093878709232CF4006C
:1034A800232EF4007335053013758500EFC05FD8FF
:1034B8008347D50093F7F701639A070003270502AE
:1034C8009307F0FF6314F7006F0000566780000051
:1034D800130101FD232481022322910223202103C9
:1034E800232E310123261102232C41011304050048
:1034F80013890500930906002326D1009304800050
:10350800F3B4043013058500EF00806D93F4840054
:103518008326C10063000504130A0500EFF05FF974
:1035280023260A06232A3A0113850400EF000036F1
:10353800130500008320C102032481028324410271
:10354800032901028329C101032A8101130101030F
:10355800678000006388060413058000EF10503868
:1035680093070500130540FFE38607FC13071000C7
:1035780023A2370123A0E70003A7070093763700AB
:1035880063180902032704003367D70023A0E70064
:10359800032744002320F400E31807F82322F4004B
:1035A8006FF09FF823A00900938709006FF0DFFCF4
:1035B800032709001377C7FF6318070223A0D70062
:1035C80083264400639806002322F4002320F40095
:1035D8006FF09FF503A706001377370033E7E7007E
:1035E80023A0E6006FF09FFB3367D70023A0E70016
:1035F8000325090013753500B3E7A7002320F90058
:103608006FF09FF2130101FF23248100232611008C
:1036180013040500630E05008327050093F73700A0
:10362800638807000324450063840500EF10502ACF
:10363800130504008320C100032481001301010144
:1036480067800000930785002320050023220500DA
:103658002324F5002326F500678000001386050063
:1036680083254500930600006FF09FE6130101FFD4
:1036780023248100232611009307050013048000EA
:1036880073340430032505001374840063000504B3
:103698000327050083A647001377C7FF23A0E70089
:1036A8006314D50023A2E70093051000EFF09FF5FF
:1036B80093070500732404308320C100032481008C
:1036C80013850700130101016780000013860500B8
:1036D8006398050073240430930700006FF0DFFD42
:1036E8009385870013050400EF00C074930700005A
:1036F800E31405FCB777008083A7870883A74701F1
:103708006FF09FFB130101FF23261100EFF0CFDAC2
:10371800B777008083A747A48320C100377700804C
:103728003385A7002328A708930500001385070001
:10373800130101016F1040461305800073350530F1
:103748001375850067800000130101FF23248100A1
:1037580037740080930704082322910083A447024A
:103768002326110093874702130404086384F40096
:10377800639404008324C400832784006318050429
:103788006386070403C7D7001377F701631007049C
:1037980083A607021307F0FF639AE60283D6E700C1
:1037A8001307F0076374D702377700800327879DD4
:1037B800638EE7002320F4028320C10003248100E4
:1037C800832441001301010167800000638497008E
:1037D800EFF05FF3232094026FF01FFE130101FE48
:1037E800232E1100232C8100232A91002328210154
:1037F800232631019384050093090500EFF0DFF3D8
:10380800B77700809305A00013040500138599007D
:1038180023A80708EFD04F8FB7770080377900804B
:103828002322A9A423A097A413748400EFF09FED8A
:10383800732404308320C1010324810183244101BE
:10384800032901018329C1001301010267800000D7
:10385800130101FF2324810023261100130405000E
:10386800EFF09FED93070500032504006314A400FF
:103878001305000093F78700F3A707308320C100E2
:10388800032481001301010167800000B7770080DD
:103898009387070883A6070013070500639A0600A5
:1038A80083A6870083A707026384F6006FC05F982A
:1038B800137787007327073067800000130101FF23
:1038C80023248100377400801304040883278400AC
:1038D800232611002322910083C7F700639A070269
:1038E80037660080B7650080376500801305852737
:1038F8009306701D1306C65E93858561EFF00F88E9
:10390800376500801305C531EFF04F876F00000061
:1039180083270400638A070237660080B765008042
:1039280037650080130585279306801D1306C65E3C
:103938009385C55AEFF08F84376500801305C5312C
:10394800EFF0CF836F000000EFF01FDF0327840044
:1039580093040500130510008347F70093F48400CF
:1039680093871700A307F700EFF01FDEF3A40430D6
:103978001305800073350530032481008320C100BE
:103988008324410013758500130101016FF01FF0B6
:10399800B777008083A7879D6398F5023766008014
:1039A800B765008037650080130101FF9306D021B9
:1039B8001306C65E938585541305852723261100B3
:1039C800EFE0DFFB6F000000832705006310F502BE
:1039D8008327450023A0A50023A2F50083274500DF
:1039E80023A0B7002322B50067800000E38207FE0A
:1039F8000387E5008386E700635ED70003A74700D7
:103A080023A0F50023A2E5002320B70023A2B700D6
:103A18006780000083264500E38CD7FA83A7070058
:103A2800E39A07FC6FF0DFFA130101FF2326110068
:103A3800232481002322910093040500EFF0DFCFB7
:103A48001304050037750080938504001305450AA3
:103A5800EFF01FF483C7D40013050000137484002B
:103A680093E70704A386F400EFF01FCE7324043015
:103A78008320C10003248100832441001301010134
:103A8800678000008347D50093F7F701639A070022
:103A9800032705029307F0FF6314F7006FF0DFF8C0
:103AA80067800000B777008083A7879D6398F50239
:103AB80037660080B765008037650080130101FF15
:103AC8009306C0221306C65E938585541305852781
:103AD80023261100EFE09FEA6F00000003A74500CE
:103AE80083A705002320F70023A2E70067800000D2
:103AF800130101FF232481002322910013040500F0
:103B080023261100EFF05FC393040500032584000A
:103B18006314050237660080B7650080376500804A
:103B2800930610151306C65E9385C555130585279C
:103B3800EFE0DFE46F00000093050400EFF09FF66C
:103B48008347D40093F4840093F7D7FFA306F400C7
:103B5800F3A40430232404008320C100032481003B
:103B6800832441001301010167800000130101FF54
:103B7800232481002326110013040500EFF05FF7CA
:103B880013058401032481008320C100130101016E
:103B98006F00905C832705FF130101FF2324810038
:103BA800232291002326110013040500930485FEA7
:103BB8006386070013850400EFF09FF3834754FFE3
:103BC8008320C1001385040093F7B7FFA30AF4FE0E
:103BD8000324810083244100130101016FF09FEA4F
:103BE800130101FF930500002324810023261100FF
:103BF800EFF01FC61304050063080500EFF05FEF40
:103C080013058401EF005055130504008320C100FB
:103C1800032481001301010167800000130101FEE4
:103C2800232821013779008013090908232E110060
:103C3800232C8100232A9100232631011304050037
:103C480093094902EFF05FAF930504009304050060
:103C580013850900EFF01FE593050400138509009B
:103C6800EFF01FD38347D4000325890093F4840021
:103C780093E7070433058540A306F40013351500C0
:103C8800EFF09FACF3A404308320C1010324810129
:103C980083244101032901018329C1001301010281
:103CA80067800000B777008083A747A4638807066A
:103CB800B77700809387070803A787009306F00764
:103CC8000356E70063ECC604B77600800306E700F6
:103CD80083A606A46344D604B776008083A6869D8F
:103CE800630ED702032607029306F0FF6318D60275
:103CF80083A607016340D502130101FF13050700DE
:103D080023261100EFF09FF18320C1001301010168
:103D18006FF05F9FB386A64023A8D7006780000096
:103D2800130101FF232481002322910013040500BD
:103D38002326110023202101EFF01FA08347D40080
:103D48009304050093F70704638A07023779008014
:103D5800130909081305490293050400EFF09FD4DD
:103D68008347D4000325890093F7F7FB3305854083
:103D7800A306F40013351500EFF01F9D93F484009B
:103D8800F3A404308320C10003248100832441006C
:103D9800032901001301010167800000130101FFDD
:103DA80023248100232291001304050023202101EC
:103DB800232611009384050013090600EFF05FF62F
:103DC8008347D40093E72700A306F400638A04001E
:103DD800232494009305040013850400EFF05FBBCF
:103DE8009307F0FF630CF9029305A00013059900EF
:103DF800EFC09FB113061500130584010324810049
:103E08008320C1008324410003290100B7450080B5
:103E18009385C5B9130101016F0050438320C10088
:103E280003248100832441000329010013010101B7
:103E380067800000130101FFB77700802324810009
:103E48001304050003A5870823261100EFF01FF5CA
:103E580013050400032481008320C100130101011C
:103E68006FC00FBD130101FE232C8100232A91008E
:103E7800232821011304050013890500232E1100AE
:103E880023263101EFF05F8B8347D4001319890192
:103E98009304050093F7F70113598941639A0706BC
:103EA800032704029307F0FF6314F706B77900802D
:103EB8009389490A9305040013850900EFF09FBE12
:103EC800930504001385090023072401EFF05FAC74
:103ED80013051000EFF05F879307100093F4840038
:103EE800F3A40430638C0702130580007335053092
:103EF800032481018320C101832441010329010195
:103F08008329C10013758500130101026FF01F9802
:103F180023072401930700006FF05FFC8320C10191
:103F28000324810183244101032901018329C1005C
:103F38001301010267800000130101FF2322910091
:103F48002326110093040500232481001305000093
:103F580003A4040063848400631C04008320C1005C
:103F680003248100832441001301010167800000BC
:103F780013050400EFF09FBF13050400EFF09FB096
:103F8800130510006FF0DFFCB777008093870708F0
:103F98001387470223A2E70223A4E7029305000040
:103FA800130500006FF09F83130101FF2326110002
:103FB80023248100138705019307E00163F2E704D6
:103FC8001384050037660080B76500803765008078
:103FD8009306D02C1306C65E9385054B13058527DB
:103FE800EFE0DF9937650080930600FF1306E000D5
:103FF8009305040013058529EFE05F986F00000022
:10400800B777008083A70708638A070237660080AE
:10401800B765008037650080130585279306E02C77
:104028001306C65E9385C55AEFE05F953765008035
:104038001305C531EFE09F946F0000000324810051
:104048008320C100130101016FF0DFE1130101FFBB
:104058002324810037740080832704082326110055
:104068002322910023202101638A070237660080FA
:10407800B765008037650080130585279306603093
:104088001306C65E9385C55AEFE05F8F37650080DB
:104098001305C531EFE09F8E6F000000130404087C
:1040A800B77700800327840083A7879D630CF702F6
:1040B800EFF08FE883258400130944029304050078
:1040C80013050900EFF01F9E8325840013050900DE
:1040D80093F48400EFF0DF8B13051000EFF0CFE6C8
:1040E800F3A4043003278400832704026304F7023F
:1040F8001305800073350530032481008320C10037
:10410800832441000329010013758500130101016F
:104118006FC00F928320C1000324810083244100D3
:10412800032901001301010167800000130101FD4B
:1041380023248102377400801304040883270400B1
:10414800232611022322910223202103232E310149
:10415800638A070237660080B7650080376500808C
:1041680013058527930640321306C65E9385C55A04
:10417800EFE0DF80376500801305C531EFE01F8071
:104188006F0000009307F0FF631AF502376600809E
:10419800B765008037650080130585279306503280
:1041A8001306C65E9385C549EFE04FFD376500806D
:1041B8001305C531EFE08FFC6F00000063160502A0
:1041C8002326A100EFF09FE80325C1008320C10248
:1041D8000324810283244102032901028329C101A6
:1041E80013010103678000009305A00013059500E3
:1041F800EFC08FF193091500EF001035B384A900C3
:10420800130980007339093003258400EFF05FB18A
:1042180003258400B7450080138609009385C5B936
:1042280013058501EF00900213758900EFC04F80D8
:10423800EF009031B384A44013050000E35890F8D0
:104248001306803E930600001385040093D5F441BD
:10425800EFC08FE21306400693060000EFC04F82BE
:104268006FF0DFF6B777008003A587086780000046
:10427800130101FF23261100631A06023766008026
:10428800B765008037650080130585279306D0033E
:10429800130606649385C566EFE04FEE3765008028
:1042A80013058567EFE08FED6F000000637AB602B3
:1042B80037660080B765008037650080130585275D
:1042C8009306E0031306066493850569EFE00FEB98
:1042D800376500801305856AEFE04FEA6F0000003C
:1042E8008320C1002324B5002326C5002320A50070
:1042F8002322A5001301010167800000130101FFBB
:104308002324810023202101232611002322910048
:1043180013090500130480007334043013748400F7
:10432800EFF01F8C630205048347D5009304050052
:1043380093F7F701639A0700032705029307F0FF35
:104348006314F700EFF04FEE23A6040613050400EC
:10435800032481008320C100832441000329010034
:10436800130101016FF08FD2032789008327C90049
:10437800B387E740B337F000B387E7002324F90099
:104388006FF0DFFCB777008083A707081386050066
:1043980063800704638E050237660080B765008076
:1043A80037650080130101FF130585279306300840
:1043B800130606649385056D23261100EFE00FDCD4
:1043C800376500801305C531EFE04FDB6F00000053
:1043D80093078000F3B707300327850093F787001A
:1043E800630C07001307F7FF2324E500F3A7073042
:1043F800130500006780000063180600F3A7073064
:10440800130500FF6780000093050500138507006A
:104418006FF05FA2130101FF232481002322910082
:10442800232611009304050013048000138505005A
:10443800733404309305A00013059500EFC0CFCC6A
:10444800B7450080130615009385C5B91385840107
:10445800EF00C05F13748400732404308320C1000C
:1044680003248100832441001301010167800000B7
:104478008347D50093F7F701639A070003270502DE
:104488009307F0FF6314F7006FF00FDA67800000FE
:10449800B777008003A507083335A00067800000C0
:1044A800B777008083A7870803C5C7001375150071
:1044B800678000003726B700130101FF130606B016
:1044C8009306000093050000232611002324810091
:1044D80023229100EFC04FBA37460F001306062477
:1044E80093060000EFB0DFD913040500EFE05F8109
:1044F80093040500EFE0DF8033059540E36C85FE0B
:104508008320C10003248100832441001301010199
:1045180067800000130101FF232481002326110076
:1045280013048000733404300347D50013748400E7
:1045380093764700639C0600732404308320C100EF
:104548000324810013010101678000001377B7FF7E
:10455800A306E500EFF0DFF1130504000324810052
:104568008320C100130101016FF04FB2130101FE56
:1045780003230102232C8100232E11002320610034
:1045880013040500EFD00FD8B777008083A78708FA
:104598008320C10183A787062324F406032481010D
:1045A80013010102678000003773008003230308AA
:1045B800130101FE232A9100232E1100232C8100D0
:1045C80083244102630A030237660080B7650080CE
:1045D80037650080130585279306801A13064670F1
:1045E8009385C55AEFE08FB9376500801305457389
:1045F800EFE0CFB86F00000003230102232201007F
:104608001304050023206100EFF05FF69307F0FF25
:104618006388F4006392040213050400EFF09FEF2F
:10462800130504008320C10103248101832441016F
:10463800130101026780000093850400130504003C
:10464800EFF05FDD6FF0DFFD83270506130101FF43
:104658002324810023261100130405006384070026
:10466800E78007008347D40013F7F701631A0702AE
:10467800832604021307F0FF6394E602130504007F
:10468800EFF00FEA8347D4008320C10093E7870047
:10469800A306F400032481001301010167800000D0
:1046A80093F727006386070013050400EFF04FC453
:1046B800032704029307F0FFE306F7FC13058401C0
:1046C800EF0080296FF01FFC130101FDB777008010
:1046D800232E3101B77900802324810223229102FD
:1046E80023261102232021031384C7A09384C7A083
:1046F8009389C9A063603405B777008003A70708CA
:10470800630C070637660080B76500803765008050
:10471800130585279306200F130646579385C55A18
:10472800EFE0CFA5376500801305C531EFE00FA591
:104738006F0000008327C4022322F10083270402AC
:104748002320F100832744018328C401032884011E
:10475800032704018326C40003268400832544001C
:1047680003250400EFF09FE08327040023AE8704AD
:10477800130404036FF01FF89387070803A7870043
:10478800930610008347F700639AD70237660080C4
:10479800B765008037650080130585279306300FBD
:1047A800130646579385455CEFE04F9D37650080BB
:1047B8001305C531EFE08F9C6F0000009387F7FF6A
:1047C800A307F70013098000733909301384040024
:1047D800137989009304F0FF636234037329093065
:1047E800032481028320C102832441020329010298
:1047F8008329C101130101036FF04F8C8325440203
:10480800638895000325040063980500EFF09FD0A6
:10481800130404036FF05FFCEFF0DFBF6FF05FFF7E
:104828009307F0FF2306D500A306C5002307B500AC
:10483800A30705002320F50267800000130101FF8C
:1048480023248100232611002322910013048000D1
:10485800733404308347C50093F71700638A07024F
:1048680037660080B76500803765008013058527A7
:10487800930630021306C67593850579EFE00F900D
:10488800376500801305457CEFE04F8F6F0000000F
:1048980093040500EFF05FDBB777008003A70708F4
:1048A80013748400630E0700732404308320C1004E
:1048B8000324810083244100130101016780000063
:1048C8009387070883A7870013050400639497005C
:1048D800EFB01F96032481008320C1008324410088
:1048E800130101016FE09FFAB777008083A787A4BF
:1048F800639407006FE04FBC130500006780000059
:104908001305800073350530137585006780000036
:10491800832705006388070203274500630407020D
:10492800B776008083A6069D630AD50083A6870014
:1049380003268500B386C60023A4D7002320F700EA
:1049480023A2E7009307F0FF232205002320050098
:104958002324F50067800000130101FF2324810050
:10496800232291002326110093040500EFF05FF93C
:1049780003A784009307F0FF130405001305F0FF55
:104988006308F70013850400EFF09FF81305000093
:1049980013748400732404308320C100032481002D
:1049A800832441001301010167800000B77700806C
:1049B80083C7C7A4130101FF232481002326110004
:1049C80023229100232021011304F0FF639607009E
:1049D800370400801344F4FFEFF09FF2B7770080AC
:1049E8009387C79C03A90700930405006304F90291
:1049F8006302090203248900EFF01FEF3305A44086
:104A0800130400006348050003248900EFF0DFED7C
:104A18003304A44093F48400F3A40430B7770080EF
:104A280083A707096386070063D4870013840700F8
:104A3800130504008320C10003248100832441005E
:104A48000329010013010101678000008327850005
:104A5800130101FE232E1100232C8100232A91002B
:104A680063CA070237660080B77500803765008023
:104A780013058527930630041306067E9385058162
:104A8800EFD0DFEF376500801305C531EFD01FEF9A
:104A98006F0000002326B5002326C100130405007B
:104AA800EFF01FE693040500EFF01FE40326C100B2
:104AB8006344C00013061000B777008003A7C79CA3
:104AC8003306A6002324C4009387C79C6306F70017
:104AD80083A547006310070203A747002320F400BB
:104AE8002322E40003A747002320870023A287008E
:104AF8006F0000068326870063DA060237660080A7
:104B0800B775008037650080130585279306C004B4
:104B18001306067E93850582EFD05FE63765008031
:104B28001305C531EFD09FE56F0000000326840010
:104B3800635AD604B386C6402324D7008326470089
:104B48002320E4002322D40023A086002322870008
:104B580003A70700630AF7006318E400EFF01FE5F6
:104B680093050000EFE00F8593F48400F3A404306C
:104B78008320C1010324810183244101130101021F
:104B880067800000B306D6402324D400E386E5F40A
:104B9800032707006FF01FF4130101FE2326B1005D
:104BA800232E1100232C8100232A91009304050051
:104BB800EFF01FD513040500EFF05FDF8325C10078
:104BC80063DAA4009307100063D6A70013850400D6
:104BD800EFD05FFE13748400732404308320C10176
:104BE800032481018324410113010102678000002D
:104BF800130101FE232E1100232C8100232A91008A
:104C0800130405002326310123244101B7790080CC
:104C180023282101377A0080EFF0CF88B77400800D
:104C2800EFF01FCE130ACA9C23A489A4938404A579
:104C3800938989A403240A0083A7090083A6040092
:104C480003A8440013798500630C4401630A040037
:104C58000327840063DEE7043307F7402324E400D6
:104C6800B386D70013D7F74133070701B3B7F60068
:104C7800B387E70023A0D40023A2F40023A00900EF
:104C8800EFF0DFD293050000EFD0DFF2732909308F
:104C98008320C101032481018324410103290101E7
:104CA8008329C100032A81001301010267800000E3
:104CB800B306D7009355F74133B6E600B38505012F
:104CC8003306B600B387E740232404001305040025
:104CD80023A0D40023A2C40023A0F900EFF05FC3EF
:104CE800732909308327C40013050400E7800700EF
:104CF800EFF01FC16FF01FF4130101FF232611000D
:104D080023248100EFF0DFBF13040500EFD0DFFAA2
:104D180037770080130707A59307050003250700C9
:104D280083254700137484003385A700B337F50043
:104D3800B385B700732404308320C10003248100A5
:104D48001301010167800000130101FF23261100F0
:104D5800EFF09FFA8320C100130101016780000072
:104D6800130101FF23261100EFF01FF91306803EFF
:104D780093060000EFB05FB01306400693060000EC
:104D8800EFB00FD08320C10013010101678000003C
:104D9800930705012328F500232AF5009307F0FF60
:104DA800232CB500232EC500232205022324F50059
:104DB8002324050267800000130101FF23248100DA
:104DC8002322910037740080B774008023261100D5
:104DD8001304C4A09384C4A0636E94008320C1000C
:104DE80003248100832441001305000013010101FD
:104DF800678000009307440113050400232AF40088
:104E0800232CF400EFC09FEE1304C4016FF0DFFC05
:104E1800B777008083A70708130101FB23248104C7
:104E28002322910423202105232E31032328610303
:104E380023261104232C4103232A5103232671031B
:104E480023248103232291032320A103232EB101CC
:104E58009309050013890500130B06001384060047
:104E680093040000638C0702638806043776008089
:104E7800B775008037650080130585279306700392
:104E88001306068393850586EFD05FAF37650080EC
:104E98001305C531EFD09FAE6F000000635ED000F0
:104EA800EFF09FE5930405009305A0001305940017
:104EB800EFB09FA5B3049500377500801305C5A012
:104EC8003385A940B775DBB6938575DB1355254047
:104ED800EFB05F9837FAFFFFB71A0000137CF50FA1
:104EE800930B50FF930C40FF130AFA0F938AFAFFB3
:104EF800130D8000938D4901130709009306C10023
:104F08001306810093050B0013850900EFC09FF27B
:104F180063127503130709009306C1001306810085
:104F280093050B0013850900EFC0DFF063147501CA
:104F3800130540FF832781002302890193F7F700B7
:104F48001397870083274900B3F74701B3E7E700C2
:104F58000327C100B3F757011317C700B3E7E700EA
:104F68002322F900630C0502630A040263189503FF
:104F780073350D301306040093850D0013758500F5
:104F8800EFE05FEB9307F0FFE308F4F6EFF0DFD60E
:104F98003384A440E35204F6130550FF8320C10470
:104FA8000324810483244104032901048329C103C0
:104FB800032A8103832A4103032B0103832BC102A4
:104FC800032C8102832C4102032D0102832DC10190
:104FD800130101056780000083470500130101FFE5
:104FE8000326050023248100139437002320210180
:104FF8003304F44037790080131424009355860055
:105008001309C9A01356C60093F5F50033058900A6
:10501800232291002326110093048000EFD04F91A2
:10502800F3B40430130544013305A90093F4840054
:10503800EFE09FF063060502B777008083A70708B3
:1050480063900702032481008320C1000329010023
:105058001385040083244100130101016FE01F83BD
:10506800F3A404308320C100032481008324410079
:105078000329010013010101678000001386450020
:10508800637EB6001305000067800000130500006A
:105098008320C1011301010267800000130101FE92
:1050A8009306000093058100232E1100EFF05FD6D0
:1050B800E31E05FC03258100130640009305C1008B
:1050C800EFD0DFC703258100130545006FF05FFCB3
:1050D800630605001305C5FF6FF01FF06780000029
:1050E800B777008083A787089305050003A587067F
:1050F800630405006FF09FF8130500006780000047
:0451080067800000BC
:10510C00000000005C1A0080000000005C1A0080A7
:10511C00000000005C1A0080000000005C1A008097
:10512C00000000005C1A0080000000005C1A008087
:10513C00000000005C1A008000000000C02A008003
:10514C00000000005C1A0080000000005C1A008067
:10515C00000000005C1A0080000000005C1A008057
:10516C00000000005C1A0080000000005C1A008047
:10517C00000000005C1A0080000000005C1A008037
:10518C00000000005C1A0080000000005C1A008027
:10519C00000000005C1A0080000000005C1A008017
:1051AC00000000005C1A0080000000005C1A008007
:1051BC00000000005C1A0080000000005C1A0080F7
:1051CC00000000005C1A0080000000005C1A0080E7
:1051DC00000000005C1A0080000000005C1A0080D7
:1051EC00000000005C1A0080000000005C1A0080C7
:1051FC00000000005C1A0080000000005C1A0080B7
:10520C00000000005C1A0080000000005C1A0080A6
:10521C00000000005C1A0080000000005C1A008096
:10522C00000000005C1A0080000000005C1A008086
:10523C00000000005C1A0080000000005C1A008076
:10524C00000000005C1A0080000000005C1A008066
:10525C00E0590080782A008000000000286300805C
:10526C00702B00800000000020630080882E0080DE
:10527C0000000000E0590080C04D008000000000DC
:10528C000000000003000000040000000600000005
:10529C0000010202030303030404040404040404D1
:1052AC0005050505050505050505050505050505A2
:1052BC000606060606060606060606060606060682
:1052CC000606060606060606060606060606060672
:1052DC000707070707070707070707070707070752
:1052EC000707070707070707070707070707070742
:1052FC000707070707070707070707070707070732
:10530C000707070707070707070707070707070721
:10531C000808080808080808080808080808080801
:10532C0008080808080808080808080808080808F1
:10533C0008080808080808080808080808080808E1
:10534C0008080808080808080808080808080808D1
:10535C0008080808080808080808080808080808C1
:10536C0008080808080808080808080808080808B1
:10537C0008080808080808080808080808080808A1
:10538C000808080808080808080808080808080891
:10539C005F746573745F6B65726E656C5F696E7458
:1053AC006572727570747300746573745F6B65727B
:1053BC006E656C5F6374785F74687265616400001D
:1053CC005F746573745F6B65726E656C5F74687225
:1053DC00656164006B5F7969656C645F656E74729E
:1053EC00790000007468726561645F736C65657048
:1053FC0000000000746573745F627573795F776188
:10540C0069740000746573745F6B5F736C656570B1
:10541C0000000000746573745F6B5F7969656C6480
:10542C00000000002F686F6D652F6D69616F752F1F
:10543C0070726F2F72697363762F7A6570687972E8
:10544C002F74657374732F6B65726E656C2F636F3D
:10545C006E746578742F7372632F6D61696E2E6331
:10546C00000000000A2020202041737365727469CB
:10547C006F6E206661696C65642061742025733AD7
:10548C0025643A2025733A2025730A005468726506
:10549C00616420627573792077616974696E672025
:1054AC00666F722025642075736563730A000000B3
:1054BC0054687265616420627573792077616974D0
:1054CC00696E6720636F6D706C657465640A0000AB
:1054DC0020746872656164202871206F7264657233
:1054EC003A2025642C20742F6F3A202564292069DA
:1054FC00732072756E6E696E670A000048656C7079
:10550C0065722063726561746564206174206869DA
:10551C0067686572207072696F7269747920726144
:10552C006E207072656D61747572656C792E0000F9
:10553C00287468726561645F65766964656E63651D
:10554C00206E6F7420657175616C20746F2030292A
:10555C00000000006B5F7969656C64282920646920
:10556C0064206E6F74207969656C6420746F20619F
:10557C0020686967686572207072696F72697479E6
:10558C00207468726561643A20256400287468721E
:10559C006561645F65766964656E636520657175C8
:1055AC00616C20746F203029000000006B5F7969FA
:1055BC00656C64282920646964206E6F7420796995
:1055CC00656C6420746F20616E20657175616C2050
:1055DC007072696F72697479207468726561643A6B
:1055EC002025640028287468726561645F6576699B
:1055FC0064656E6365203E203129206973207472C6
:10560C00756529006B5F7969656C64282920796957
:10561C00656C64656420746F2061206C6F776572B3
:10562C00207072696F726974792074687265616434
:10563C0000000000746872656164206964206D610B
:10564C00746368657320706172656E74207468721F
:10565C0065616400282873656C665F7468726561A7
:10566C00645F696420213D205F7468726561645FCA
:10567C006964292069732066616C736529000000D8
:10568C005468726561642049442074616B656E20B6
:10569C00647572696E672049535220213D20636105
:1056AC006C6C696E67207468726561640000000040
:1056BC0028286973725F696E666F2E6572726F72DD
:1056CC00207C7C20286973725F696E666F2E646122
:1056DC00746120213D2028766F6964202A29736526
:1056EC006C665F7468726561645F696429292069FE
:1056FC0073207472756529006B5F69735F696E5FE7
:10570C006973722829207768656E2063616C6C65FB
:10571C00642066726F6D20616E204953522069734C
:10572C002066616C7365000028286973725F696E6E
:10573C00666F2E6572726F72207C7C202869737282
:10574C005F696E666F2E76616C756520213D204B0E
:10575C005F49535229292069732074727565290099
:10576C006B5F69735F696E5F697372282920776854
:10577C00656E2063616C6C65642066726F6D206170
:10578C002074687265616420697320747275650099
:10579C00746872656164206973206E6F7420612077
:1057AC00636F6F7065726174697665207468726579
:1057BC006164000028285F63757272656E742D3EFB
:1057CC00626173652E7072696F203E3D2030292016
:1057DC006973207472756529000000007465737418
:1057EC005F6B65726E656C5F696E746572727570F5
:1057FC0074730000746573745F6B65726E656C5FB7
:10580C0074696D65725F696E7465727275707473AC
:10581C0000000000746573745F6B65726E656C5F7D
:10582C006374785F74687265616400007465737486
:10583C005F627573795F7761697400007465737466
:10584C005F6B5F736C65657000000000746573744A
:10585C005F6B65726E656C5F6370755F69646C65B8
:10586C005F61746F6D696300746573745F6B6572EF
:10587C006E656C5F6370755F69646C650000000039
:10588C00746573745F6B5F7969656C64000000000C
:10589C00746573745F6B65726E656C5F746872654A
:1058AC0061640000202A2A2A2074687265616420D1
:1058BC0074696D6564206F75742077616974696EA5
:1058CC006720666F72206B5F627573795F776169B1
:1058DC0074282900287276206973207472756529E2
:1058EC0000000000202A2A2A207468726561642056
:1058FC0074696D6564206F75742077616974696E65
:10590C006720666F7220746872656164206F6E2008
:10591C006B5F736C65657028292E000028727620E9
:10592C006E6F7420657175616C20746F2030290066
:10593C0054657374696E67206B5F7468726561641B
:10594C005F637265617465282920776974686F7567
:10595C00742063616E63656C6C6174696F6E0A00B0
:10596C00202A2A2A2074696D656F757420776869FE
:10597C006C652077616974696E6720666F7220644C
:10598C00656C6179656420746872656164000000FF
:10599C002864617461206973204E554C4C290000B9
:1059AC00202A2A2A2077726F6E672064656C6179D1
:1059BC006564207468726561642072616E2028676A
:1059CC006F742025642C2065787065637465642081
:1059DC002564290A0000000028646174612D3E745E
:1059EC00696D656F75745F6F72646572206E6F742C
:1059FC0020657175616C20746F20692900000000AE
:105A0C0020676F7420746872656164202871206F40
:105A1C00726465723A2025642C20742F6F3A20250D
:105A2C0064292061732065787065637465640A006D
:105A3C00202A2A2A20676F7420736F6D6574686939
:105A4C006E6720756E657870656374656420696E29
:105A5C0020746865206669666F00000028646174B4
:105A6C006120697320747275652900005465737424
:105A7C00696E67206B5F7468726561645F637265E1
:105A8C00617465282920776974682063616E636589
:105A9C006C6C6174696F6E730A00000020676F7420
:105AAC00202871206F726465723A2025642C207452
:105ABC002F6F3A2025642C20742F6F206F72646531
:105ACC007220256429206173206578706563746584
