:0200000480007A
:100000009702000093820201739052306F10C05823
:10001000130101FB2320110023223100232441007E
:100020002326510023286100232A7100232CC101BB
:10003000232ED1012320E1032322F1032324A10253
:100040002326B1022328C102232AD102232CE10254
:10005000232EF1022320010523221105F32210345F
:1000600023245104F322003023265104EF00001F03
:1000700013030000631E0502F3222034B70300803F
:100080009383F3FFB3F272001303B000638A62003C
:100090001305010097000000938040136F10404348
:1000A0008322810493824200232451046F000009BB
:1000B00093020100976300009383C38F03A1430061
:1000C000130101FF2320510003AE0300130E1E0095
:1000D00023A0C30163080300970000009380C003BE
:1000E0006F10C04773252034B70200809382F2FF5F
:1000F00033755500EF0080159742000093828210FF
:1001000013153500B382A20003A5020003A3420029
:10011000E7000300176300001303C3898323030070
:100120009383F3FF232073008322010013810200D5
:1001300083238300032E030263087E089762000076
:100140009382428703A382002326830223289302FB
:10015000232A2303232C3303232E43032320530575
:10016000232263052324730523268305232893056F
:10017000232AA305232CB30523242302975300002D
:100180009383C31B03AE03002326C30703A302020A
:1001900023A46200032183020324C30283240303F4
:1001A0000329430383298303032AC303832A030404
:1001B000032B4304832B8304032CC304832C0305E8
:1001C000032D4305832D830583228104739012340C
:1001D0008322C104739002308320010083214100F7
:1001E000032281008322C1000323010183234101F3
:1001F000032E8101832EC101032F0102832F4102AF
:10020000032581028325C1020326010383264103BE
:10021000032781038327C1030328010483284104A2
:100220001301010573002030730000009752000095
:100230009382427803A382008323C306137585004B
:10024000F3220530138503006780000013031000BC
:10025000B312A30073B3423467800000F32220344A
:1002600037030080B3F262001305000063840200CC
:08027000130515006780000072
:10027800130101FD23229102232861012326110283
:100288002324810223202103232E3101232C410121
:10029800232A51012326710123248101232291015C
:1002A800130B050093840500639C063813040600AD
:1002B80093090500174900001309490E63F8C51290
:1002C800B7070100938A05006378F6109306F00FCC
:1002D800B3B6C60093963600B357D6003309F90073
:1002E80003470900B306D700130700023307D740B6
:1002F800630C0700B394E400B356DB003314E60044
:10030800B3EA9600B319EB00135B040193050B00E5
:1003180013850A00EF0040631309050093050B00DD
:10032800931B040113850A00EF00805D93DB0B012A
:10033800930405009305050013850B00EF0080501A
:100348001319090113D709013367E900138A040057
:10035800637EA70033078700138AF4FF636887006A
:100368006376A700138AE4FF33078700B304A74026
:1003780093050B0013850400EF00005D13090500C9
:1003880093050B0013850400EF008057939909012A
:1003980093040500930505001319090113850B0043
:1003A80093D90901EF00004AB369390113860400A3
:1003B80063FCA900B30934011386F4FF63E68900DE
:1003C80063F4A9001386E4FF93170A01B3E7C70093
:1003D800130A00006F000013B7070001930600011D
:1003E800E36CF6EE930680016FF01FEF138A0600A8
:1003F800631A06009305000013051000EF00405033
:1004080013040500B7070100637CF4129307F00F8B
:1004180063F48700130A8000B35744013309F900D5
:100428008346090013060002B38646013306D64008
:1004380063120612B3848440130A1000135B04018C
:1004480093050B0013850400EF0000501309050005
:1004580093050B0013850400931B0401EF00404A29
:1004680093DB0B01930405009305050013850B002E
:10047800EF00403D1319090113D709013367E9005B
:10048800938A0400637EA70033078700938AF4FFEA
:10049800636887006376A700938AE4FF33078700C1
:1004A800B304A74093050B0013850400EF00C0496F
:1004B8001309050093050B0013850400EF00404461
:1004C800939909019304050093050500131909017F
:1004D80013850B0093D90901EF00C036B3693901C0
:1004E8001386040063FCA900B30934011386F4FFE2
:1004F80063E6890063F4A9001386E4FF93970A0171
:10050800B3E7C7001385070093050A008320C102DB
:100518000324810283244102032901028329C101A2
:10052800032A8101832A4101032B0101832BC10086
:10053800032C8100832C4100130101036780000014
:10054800B7070001130A0001E368F4EC130A8001FD
:100558006FF09FEC3314C40033DAD400B319CB0026
:10056800B356DB00135B0401B394C40093050B007E
:1005780013050A00B3EA9600EF00003D13090500D1
:1005880093050B0013050A00931B0401EF00403785
:1005980093DB0B01930405009305050013850B00FD
:1005A800EF00402A1319090113D70A013367E9003C
:1005B800138A0400637EA70033078700138AF4FFB9
:1005C800636887006376A700138AE4FF3307870010
:1005D800B304A74093050B0013850400EF00C03651
:1005E8001309050093050B0013850400EF00403143
:1005F800930405009305050013850B00EF00802484
:1006080093960A011319090193D60601B367D90015
:100618001387040063FEA700B38787001387F4FFDE
:1006280063E8870063F6A7001387E4FFB3878700B2
:10063800131A0A01B384A740336AEA006FF01FE077
:1006480063ECD51EB707010063F4F6049305F00FB9
:1006580033B5D5001315350033D7A60097470000EA
:100668009387C7D3B387E70083C50700130A00023F
:10067800B385A500330ABA4063160A02930710002F
:10068800E3E296E83336CB00934716006FF09FE716
:10069800B707000113050001E3E0F6FC130580012C
:1006A8006FF09FFBB35AB600B3964601B3EADA007F
:1006B80033D9B400B3974401B355BB0093DB0A01A7
:1006C800B3E4F5001305090093850B00B31946013F
:1006D800EF0080271304050093850B00130509001C
:1006E800139C0A01EF00C021135C0C0113090500DB
:1006F8009305050013050C00EF00C0141314040142
:1007080013D704013367E400930C0900637EA70044
:1007180033075701930CF9FF636857016376A70005
:10072800930CE9FF330757013309A74093850B0062
:1007380013050900EF0040211304050093850B0001
:1007480013050900EF00C01B1309050093050500F8
:1007580013050C00EF00000F939704011314040114
:1007680093D707013367F40013060900637EA700D7
:10077800330757011306F9FF636857016376A7002B
:100788001306E9FF3307570193970C01370E010051
:10079800B3E7C7001308FEFF33F3070133F8090175
:1007A8003307A74093DE070193D909011305030016
:1007B80093050800EF0000099308050093850900D8
:1007C80013050300EF000008130305009305080054
:1007D80013850E00EF000007130805009385090034
:1007E80013850E00EF00000693D6080133030301BA
:1007F800B386660063F406013305C50113D6060106
:100808003305A6006366A702E314A7BC37070100F7
:100818001307F7FFB3F6E60093960601B3F8E8006E
:1008280033164B01B3861601130A0000E37CD6CCBD
:100838009387F7FF6FF0DFB9130A000093070000F2
:100848006FF05FCC130605001305000093F6150042
:10085800638406003305C50093D5150013161600EA
:10086800E39605FE67800000130101FF138306006D
:1008780023261100130E05009308050093060600B1
:1008880013070000930700001308000013F5160073
:10089800931E1700630C05003385080133380501E2
:1008A800B387E700B307F8001308050013D7F8016A
:1008B80093D6160033E7EE0093981800E39806FCE9
:1008C8006388050013050600EFF0DFF7B387A7007C
:1008D800630A030013050E0093050300EFF09FF66B
:1008E800B307F5008320C1001305080093850700AE
:1008F80013010101678000006340050663C6050611
:1009080013860500930505001305F0FF630C060226
:1009180093061000637AB6006358C00013161600D9
:1009280093961600E36AB6FE1305000063E6C50059
:10093800B385C5403365D50093D616001356160007
:10094800E39606FE6780000093820000EFF05FFBED
:1009580013850500678002003305A04063D80500B1
:10096800B305B0406FF0DFF9B305B04093820000E3
:10097800EFF01FF93305A040678002009382000062
:1009880063CA0500634C0500EFF09FF71385050067
:1009980067800200B305B040E35805FE3305A04068
:1009A800EFF01FF63305B040678002006780000053
:1009B8006F20904137150000130101FF1305C5DAB8
:1009C8002326110023248100EFF09FFE3754008076
:1009D8009305803E1305044EEF10107E930750FFD9
:1009E8006306F50437460080B75500803755008008
:1009F800B7570080130710009385C58C1305458DE4
:100A0800930620051306064A23A4E750EF10404337
:100A18009305044E032481008320C10037550080CC
:100A28001305458E130101016F1080418320C10019
:100A3800032481001301010167800000130101FFF5
:100A480023229100B71400001385449C232611002B
:100A580023248100EFF0DFF537540080938584BBB1
:100A68001305C44CEF105075930750FF6308F50445
:100A780037460080B755008037550080B75700804B
:100A8800130710009385C58C1305458D930610092F
:100A98001306864B23A4E750EF10803A9305C44C05
:100AA800032481008320C10083244100375500803E
:100AB8001305458E130101016F1080388320C10092
:100AC8000324810083244100130101016780000091
:100AD80037150000130101FF130565EA232481007F
:100AE8002326110037540080EFF09FEC9305007D1A
:100AF8001305044EEF10506C63060504374600805A
:100B0800B755008037550080B7570080130710008D
:100B18009385C58C1305458D930610071306C64AA1
:100B280023A4E750EF10C0319305044E032481003D
:100B38008320C100375500801305859013010101FA
:100B48006F1000301305044E032481008320C10078
:100B5800130101016F10D078130101FF1305C05D67
:100B6800232481002326110037540080EFF05FE42E
:100B78009305F0FF1305844BEF101064630605041A
:100B880037460080B755008037550080B75700803A
:100B9800130710009385C58C1305458D9306800AAD
:100BA8001306464C23A4E750EF1080299305844B85
:100BB800032481008320C1003755008013058590E8
:100BC800130101016F10C0271305844B0324810012
:100BD8008320C100130101016F109070130101FF00
:100BE8001305401F2326110023248100EFF05FDC4A
:100BF80037540080930500001305444AEF10D05B7A
:100C0800930700FF6306F50437460080B755008058
:100C180037550080B7570080130710009385C58C9F
:100C28001305458D9306200C1306064D23A4E750A3
:100C3800EF100021375500809305444A130545926B
:100C4800032481008320C100130101016F10401F9C
:100C58009305F0FF1305444AEF101056630005048E
:100C680037460080B755008037550080B757008059
:100C7800130710009385C58C1305458D9306A00CAA
:100C88001306064D23A4E750EF10801B375500804C
:100C98009305444A130585906FF09FFA1305444A5B
:100CA800032481008320C100130101016F105063E8
:100CB80037150000130101FF1305C5DA232481004D
:100CC8002326110037540080EFF09FCE9305F0FFE4
:100CD8001305C44CEF10504E6308050437460080D6
:100CE800B755008037550080B757008013071000AC
:100CF8009385C58C1305458D9306000E1306C64DC6
:100D080023A4E750EF10C013032481008320C100FF
:100D1800B7550080375500809385854B130585901E
:100D2800130101016F10C0111305C44C0324810085
:100D38008320C100130101016F10905A130101FDB6
:100D4800232E1100232C81002324010323261103C1
:100D5800631805041386060013870500B74600804C
:100D6800B7450080374500809386864E1384070078
:100D78009385454F93078102130585532326F10078
:100D8800EF10000C8325C10013050400EF10400884
:100D9800375500801305459FEF10800AEF1040611A
:100DA8008320C1010324810113010103678000002E
:100DB800130101F72326110823248108232291080F
:100DC80023202109232E31072328610723267107B1
:100DD80023248107232291072320A107232C4107DD
:100DE800232A5107EF20D0119305A000EF2080653A
:100DF800B74500801384053813060001938505382C
:100E080013050104EF10403DB75700809387C74C86
:100E18002324F102B75700809387874B2326F102DA
:100E2800B75700809387474A1306000193050401CA
:100E3800130501052328F102EF10003A93078000FB
:100E4800B745008037450080232AF102232CF102A0
:100E58009385455C930790001305C55D232EF10229
:100E6800EF00107E374500801305055FB749008005
:100E780037490080374D0080B75C0080EF00507C18
:100E8800130B00009384090013040900930B0D0051
:100E9800138C0C0093070104B387670103A80700AC
:100EA80093050000B75A008013050800232E01019E
:100EB800EF1090300328C101B747008093878763FC
:100EC8001387894E930620111306494F93054D65E4
:100ED80013351500EFF09FE61305803EEFF05FAD88
:100EE800EF201002EF20805593070105B3876701B3
:100EF80003A8070093080500B74700803305A840FA
:100F0800B7450080938787661387894E93067011CB
:100F18001306494F9385856813351500EFF01FE2D6
:100F280003A58A50374A00809387CC9C1387894E43
:100F38009306A0111306494F93058A6A13351500C5
:100F4800EFF0DFDF130B4B0093070001938A8A5001
:100F5800E312FBF4EF20C07AEF20404E9305050022
:100F6800374500801305456CEF00906D1305803EF2
:100F7800EFF01FA4EF20C078EF20404C130BA5FF23
:100F8800133B1B00374D008037480080B74700806F
:100F98001387894E1306494F93054D72232EA100DE
:100FA8001308C86E13050B009387876F930680128A
:100FB800EFF0DFD88328C101B74C00801387894E32
:100FC8001306494F93054D721308600093878C737D
:100FD8009306901213050B00EFF05FD6375500808B
:100FE8001305054EEF10D02FEF208071EF2000453C
:100FF800130B95FF133B1B00374D008037480080CB
:10100800B74700801387894E1306494F232EA10046
:101018001308887513050B00938707769306D0127B
:1010280093054D78EFF09FD18328C1011387894E2E
:101038001306494F13050B001308700093878C7330
:101048009306E01293054D78EFF05FCF1305803ECD
:10105800EFF01F9693090000374B00801309C0007A
:10106800EF20006AEF20803D93074103B3873701E3
:1010780003A80700930805001387844E3305A8408A
:10108800930670131306444F93058B7993878C73DB
:1010980013351500EFF09FCA93078102B387370114
:1010A80003A5070093894900EF10902303A50A00C0
:1010B8009307CC9C1387844E9306A0131306444FC2
:1010C80093058A6A13351500EFF05FC7E39A29F98B
:1010D800EF200063EF20803693080500B7450080B5
:1010E800130565FF1308A00093878C731387844E3C
:1010F8001306444F9306E0139385857B133515003B
:10110800EFF0DFC31305803EEFF09F8A03A50A00C6
:101118009307CC9C1387844E1306444F93062014E0
:1011280093058A6A13351500EFF05FC137450080D3
:101138001305057DEF00D050375900809305000056
:101148001305494FEF105007B74700801387844EA7
:101158001306444F9387C77E9306901493854B6577
:1011680013351500EFF09FBD930500001305494F97
:10117800EF109004B75700801387844E1306444F2E
:1011880093854B659387C7809306C0141335150064
:10119800EFF0DFBAB7160080B765008037550080DA
:1011A8009308C0001308000093070000130700000D
:1011B8009386462D130600209385059E2320310132
:1011C800232201001305057EEF20D001130510002E
:1011D800EFF00FFE1305494FEF1090101305494F1C
:1011E800EF101010930500001305494FEF10C07C55
:1011F80013050501B7570080B75500801387844E43
:101208001306444F93878783930690159385058625
:1012180013351500EFF09FB29305803E1305494F33
:10122800EF108079B75700801387844E1306444F18
:1012380093854B659387C7879306C01513351500AB
:10124800EFF0DFAF1305494FEF1090090324810831
:101258008320C10883244108032901088329C10781
:10126800032A8107832A4107032B0107832BC10621
:10127800032C8106832C4106032D01063755008077
:101288001305858A130101096F00903B130101FFC3
:1012980023261100EF20C046EF208046EF2040466D
:1012A800EF200046EF20C045EF208045EF20404565
:1012B8008320C100B75500803745008093850530ED
:1012C8001305455B130101016F108011130101FF24
:1012D80023248100375400809305F0FF1305444F01
:1012E80023261100EF10406D630E0502375600806B
:1012F800B7550080375500801305458D9306A00229
:101308001306C6949385C58CEF009033032481009F
:101318008320C1003755008013058595130101010D
:101328006F0010321305401FEF20002A1305444FA9
:10133800032481008320C100130101016F10407A4A
:10134800130101FF23261100232481009307600065
:101358006304F502EF20805D63040502EF20005D61
:1013680063160504B7550080938505B53755008089
:10137800130545B6EF00D02CEF0090306FF0DFFF7B
:10138800EF20C05BE31C05FC376400801304049B5A
:101398008325840037550080130545B8EF00502A8F
:1013A80003258400EF20500D6FF01FFDB755008016
:1013B8009385C5B46FF09FFB130101FB23248104BF
:1013C8002322910423261104930760009304050047
:1013D8001384050063E0A70E375700809317250094
:1013E80013078797B387E70083A70700678007007D
:1013F800375500801305059DEF009024EF204030FD
:1014080083274404832804010328C4002328F10205
:101418008327040403274400832604002326F102BB
:101428008327C40303268404930505002324F102BB
:101438008327840337550080130545A52322F1022D
:10144800832744032320F10283270403232EF1007A
:101458008327C402232CF10083278402232AF10066
:10146800832744022328F100832704022326F1005E
:101478008327C4012324F100832784012322F10058
:10148800832744012320F10083278400EF00501BA9
:101498009305040013850400EFF09FEA3755008098
:1014A8001305859F6FF05FF537550080130545A13B
:1014B8006FF09FF43755008093850400130505A34A
:1014C800EF0010186FF09FF3130101FF2324810030
:1014D8002326110013040500732620341316160062
:1014E800135616009307500063E8C7023757008069
:1014F8009317260013074799B307F70083A507003A
:10150800375500801305459BEF00901393050400A1
:1015180013050000EFF05FEAB75500809385C59A80
:101528006FF01FFE130101FF23261100F32520345D
:10153800375500809395150093D51500130545C8B8
:10154800EF001010B75500809385C5BA1305400009
:10155800EFF09FE6B75700809387C75003A70700AF
:10156800630C070003A3070023A00700B7570080F8
:1015780003A507516700030067800000130101FFFE
:1015880023261100EF10C01DEF009011EF1000246A
:101598001761000013018184B71200009382028052
:1015A80033015100EFF09FFD6F008011130101FD21
:1015B800232481022322910223202103232E310197
:1015C80023261102938906009306F0009304050070
:1015D8001384050013090600639CD808B726008009
:1015E80093860673639CD9088326010393850800B4
:1015F8001385040013064000232601012324F1006B
:101608002322E100EF20806583278100930509FBF1
:10161800B305B40023AE040423A0040693F505FF24
:1016280023A8F502B7270000032741000328C100BB
:101638009387078823A6F504B71700808320C10283
:10164800032481029387075B23A4350323A6E502BD
:1016580023AA050323A4F50423A4B4020329010241
:10166800832441028329C10113010103678000001B
:10167800938608011306E001E378D6F63756008012
:10168800B755008037550080930680011306C6CAF7
:10169800938545CE130585D823221101EF00407AA2
:1016A8008328410037550080930600FF1306E000A9
:1016B80093850800130585DAEF0080786F00000035
:1016C800130101FF93070500138505009305060024
:1016D8001386060023261100E7800700EF2040024A
:1016E800EF20805993971500B387B7001397270009
:1016F8008327C500B387E7000307B5006354B70025
:1017080083A707001357F6411377F7013307C7007C
:101718001357574013172700B387E70023A0F60095
:101728001375F60167800000130101FE9306C100DE
:10173800232E1100EFF01FFB0327C10093071000B1
:101748003395A700832707008320C101B3E7A700CB
:101758002320F7001301010267800000130101FE36
:10176800232A910083244500232C810013040500BB
:101778000355850093850400232821012326310180
:10178800232441012322510123206101232E11002A
:10179800EFF04F8B83290400834AA4009307F0FFDE
:1017A800130A0500B389A900A305F4001309000072
:1017B800130BF001634C5903930400008357840012
:1017C80063CCF4088320C1010324810183244101EF
:1017D800032901018329C100032A8100832A4100CA
:1017E800032B0100130101026780000093850400A8
:1017F80013050A00EFF0CF901317190033072701DC
:10180800931727000327C4003307F70093074700FF
:101818002322F7002324F700634EAB00A30524011D
:1018280093D424009384340093F4C4FF130919005B
:101838006FF05FF81305F5019357F54193F7F7013A
:10184800B387A70093D757409397270023203701E2
:10185800B389F9006FF0DFFC832544001385040089
:10186800EFE05FFE83270400138604009305000061
:101878003385A7008327C400938414001387470087
:101888002320E50003A787002322E50003A787009C
:101898002320A70023A4A70013050400EFF0DFE826
:1018A8006FF0DFF1130500006780000083A70500D3
:1018B8009387170023A0F500B757008003A387324A
:1018C80067000300130101FC232C81022326310346
:1018D80023244103232061032328A101232E11027D
:1018E800232A91022328210323225103232E710145
:1018F800232C8101232A91012326B1019309050094
:10190800138A0500130D0600138B0600130410003C
:101918006354E0001304070093071000930C0002BF
:101928006314FB00930C0003B7D49A3B130910000F
:10193800930AA000130C00009384F49F930D2000D9
:10194800938B140063140C0063F2A40B93850B00B3
:1019580013050D00EFE0DFFA93050A0013050503F0
:10196800E780090013091900130C100093850B0078
:1019780013050D00EFE05FFD130D05009305A000B2
:1019880013850400EFE0DFF7938AFAFF930710004E
:1019980093040500E396FAFA93050A0013050D036C
:1019A800E780090093073000330424416306FB06EF
:1019B8008320C103032481038324410303290103F2
:1019C8008329C102032A8102832A4102032B0102CF
:1019D800832BC101032C8101832C4101032D0101BB
:1019E800832DC1001301010467800000E34054F90E
:1019F800E3EE6DF793050A0013850C00E7800900F4
:101A0800130919006FF09FF693050A0013050002E9
:101A1800E78009001304F4FFE34880FE6FF05FF9E4
:101A2800B757008023A4A73267800000130101FB89
:101A3800232481042322910423202105232E31030A
:101A4800232C4103232A51032328610323229103D2
:101A5800232EB10123261104232671032324810395
:101A68002320A1031304050093840500130B06002B
:101A7800938C0600130A00001309F0FF9309000075
:101A8800930D0000930A100003450B006310050432
:101A98008320C1040324810483244104032901040D
:101AA8008329C103032A8103832A4103032B0103EA
:101AB800832BC102032C8102832C4102032D0102D6
:101AC800832DC1011301010567800000639E0D008D
:101AD80093065002630CD53093850400E700040098
:101AE800130B1B006FF05FFA930640066300D512D4
:101AF80063E2A6069306900363EAA6029306100320
:101B08006374D50E9306D002630CD52E9307000399
:101B18006300F50C130750026312E5029385040075
:101B280013055002E70004006F0040129306800579
:101B3800630ED51613073006630EE5289385040057
:101B480013055002E70004009385040003450B00C9
:101B58006FF05FFD93060007630AD51263E0A602E3
:101B6800930690066304D50A9306C006630CD5084D
:101B780093068006E306D5F66FF05FFC93065007E0
:101B88006304D50E63EEA60213073007E318E5FADF
:101B9800138C4C0083AC0C00938B0C0003C50B001A
:101BA80063180520930730006398F900B38B9B41B5
:101BB800B30B794163467021930C0C006F00000948
:101BC800930680076304D50E9306A0076FF09FFA6B
:101BD800635E0900638A0922130905FDE39209F08F
:101BE800930920006FF0DFEFE34809FE9316290000
:101BF8003389260113191900130909FD3309250131
:101C08006FF0DFFD130A1A006FF09FED63C44A05F9
:101C180003A60C00938C4C006350060293850400C5
:101C28001305D0022324C100E70004000326810025
:101C38001309F9FF3306C04013070900938609000A
:101C48009385040013050400EFF0DFC7930D00002F
:101C58006FF01FE993877C0013F787FF930C8700C9
:101C6800032607006FF05FFB63C84A0103A60C0058
:101C7800938C4C006FF05FFC93877C0013F787FF11
:101C8800930C8700032607006FF01FFB9385040061
:101C980013050003E700040093850400130580077B
:101CA800E7000400130980009309100063CA4A0979
:101CB80083A70C00938C4C002324F10013068000AA
:101CC800130C0000130D000093058000832781008A
:101CD800938BF5FF13952B0033D5A7001375F500EB
:101CE800631205089306000363140D0063965509F3
:101CF8003385A60013158501938504001355854186
:101D08002326C100E7000400130C1C000326C100B1
:101D180063940B0493063000930D0000E392D9DC22
:101D280013171900330C8741E35280F3938504009D
:101D380013050002E7000400130CFCFF6FF0DFFE40
:101D480093877C0093F687FF83A70600938C860011
:101D58002324F1006FF09FF6138D0D0093850B007F
:101D68006FF0DFF69307900093067005E3E2A7F89B
:101D7800930600036FF0DFF79307F6FF2326F100C1
:101D8800634AC900639C5901938504001305000345
:101D9800E70004000326C1006FF05FFC93072000F2
:101DA800E39AF9FE93850400130500026FF05FFEC5
:101DB80093850400938B1B00E70004006FF01FDE7F
:101DC8009385040013050002E7000400938BFBFFD2
:101DD8006FF05FDE03A50C00938B4C009385040025
:101DE800E7000400938C0B006FF05FE6130A000015
:101DF8001309F0FF93090000930D10006FF05FCEF8
:101E0800930930006FF0DFCD930910006FF05FCDBC
:101E1800130101FE1306050037250080938605008F
:101E28001305458B9305C100232E110023260100BD
:101E3800EFF0DFBF8320C1011301010267800000BA
:101E4800130101FC2322B10293054102232E110044
:101E58002324C1022326D1022328E102232AF102E6
:101E6800232C0103232E11032326B100EFF05FFA80
:101E78008320C1011301010467800000678000000E
:101E880093078000F3A707307300501067800000A5
:101E9800930710003395A70073254530678000002D
:101EA80093078000F3B707307350403073504034C5
:101EB80067800000130101FF232481002322910081
:101EC80037540080232611009307A00093040500CF
:101ED80013044451631CF500032504009305D00046
:101EE8008327450083A74700E780070003250400F0
:101EF80093F5F40F8327450083A74700E780070081
:101F08008320C10003248100138504008324410039
:101F18001301010167800000372500801305C5EB18
:101F28006FF01FB037550080130101FF1305C5DDA1
:101F380023261100EF008075B757008023AAA75009
:101F4800EFF09FFD8320C10013050000130101017C
:101F580067800000B70710F003A747F403A507F44C
:101F680083A547F4E39AE5FE67800000130101FEAC
:101F7800232C8100232E1100232A910023282101DC
:101F880023263101232441011304800073340430D3
:101F9800B754008093848451EFF0DFFB03A9040059
:101FA80003AA44009307050033052541B3B7A700EA
:101FB800B385454137D601001306064C9306000049
:101FC800B385F540EFE0CFAA93090500B7D5010026
:101FD8009385054C13850900EFE0DF863309250159
:101FE8003335A9003305450123A0240123A2A40009
:101FF8001374840073240430032481018320C101F5
:102008008324410103290101032A81001385090062
:102018008329C100130101026F204001130101FF50
:1020280023261100EFF01FF3B7D701009387074C61
:10203800370710F0B307F5009306F0FF2326D7F40F
:1020480033B5A7003305B5002324F7F42326A7F4F6
:1020580013057000EFF0DFE38320C10013050000D3
:10206800130101016780000063900510130101FE50
:10207800232C8100232E1100232A910023282101DB
:1020880023263101232441019307F0FF130405009F
:102098006316F500379500001304E5BC930480002F
:1020A800F3B40430EFF01FEBB79700009309050075
:1020B8009387E7BC1305F4FF93F4840063D0A70A61
:1020C8001385070037D401009305044CEFE08FF720
:1020D800B75700809387875103A9070003AA4700D1
:1020E8009307F44BB3872741B38737013385A7009C
:1020F8009305044CEFE0DF809305044CEFE08FF488
:10210800B3093941B389A9009307703E63C6370103
:102118001304044C33058500B70710F03309250173
:102128001307F0FF23A6E7F43335A900330545016B
:1021380023A427F523A6A7F4F3A404308320C10120
:102148000324810183244101032901018329C1005A
:10215800032A81001301010267800000E35405F699
:10216800130500006FF01FF667800000130101FFE0
:1021780023248100232611001304800073340430C3
:10218800EFF05FDDB757008083A78751B7D501000F
:102198009385054C3305F540EFE08FF61374840002
:1021A800732404308320C10003248100130101013A
:1021B800678000008347050003C705006394E700B4
:1021C800639607003385E740678000001305150014
:1021D800938515006FF01FFEB347B50093F73700DE
:1021E800638C070493070500130700006316E606CF
:1021F80067800000E30E06FE9385150003C7F5FF10
:10220800938717001306F6FFA38FE7FE13F737002F
:10221800E31207FE930630003308E64063E2060344
:1022280013572600931627003306D640B387D700E6
:10223800B385D5006FF05FFB930705006FF01FFDB6
:10224800B388E50083A808003388E7001307470030
:10225800232018016FF05FFC3388E500034808006D
:10226800B386E70013071700238006016FF01FF8F5
:1022780093F6F50F9307050013F737006314070467
:1022880093F5F50F13978500B365B700139705010C
:10229800B365B7003383C7001387070013083000FE
:1022A800B308E340636A1803135726009315270001
:1022B800B387B7003306B6403386C7006394C702B6
:1022C80067800000E30E06FE93871700A38FD7FEF2
:1022D8001306F6FF6FF05FFA13074700232EB7FEC9
:1022E8006FF01FFC93871700A38FD7FE6FF01FFDB9
:1022F800130101FF232601008327C10093871700DC
:102308002326F100B70701F023A0B700130101014C
:10231800678000001305F0FF6780000013050000C8
:1023280067800000130101FE232C810083278500AC
:1023380037540080232A91001304C432B754008014
:10234800232E1100232821012326310193840452CE
:1023580093091000232004001309050023A0340169
:10236800E78007008327490023203401E78007001E
:10237800930720002320F4008327C900E780070083
:10238800930730002320F4000324810123A00400D4
:102398008320C10183244101032901018329C1004C
:1023A8003765008013050585130101026F10C03ED3
:1023B80037650080130101FFB75700801307F0FF4E
:1023C800130505852326110023A0E752EF10C03C12
:1023D800EF1000338320C100130101016F10D009F1
:1023E800130101FA232A9104B754008083A74452A9
:1023F800232E1104232C81042328210523263105AB
:10240800232441052322510523206105232E71032E
:10241800232C8103232A91032328A1032326B10314
:1024280063C4070837640080130610009309050089
:10243800138C05001305048593050000EF10002D8B
:102448003755008093850900130505E1EFF05F9F7C
:10245800374900801305095FB75A0080EFF05F9E87
:1024680093844452130A0000232E8100B76C008025
:10247800376B0080372D0080B75D0080B75B008028
:10248800938A4AE083274C00639E070493850900DA
:1024980063060A10375500801305C5E3EFF05F9A0D
:1024A8009307100023A0F4008320C10503248105AD
:1024B80083244105032901058329C104032A8104D2
:1024C800832A4104032B0104832BC103032C8103BA
:1024D800832C4103032D0103832DC102130101063F
:1024E8006780000083250C00B74700801385C75D0F
:1024F800EFF01F952322010083270C0113070C001E
:102508001306002093E787009308F0FF13080000E4
:102518009306CD322320F10093850C7E93070000AB
:1025280013050B86EF10004C8327C1019305F0FFBC
:1025380013850785EF10C02E93870D5213050B8660
:1025480003A40700EF104073B75700809387075222
:1025580003A70700130414009307E0FF13341400C3
:1025680003260C006314F702B7550080938585E2B3
:1025780013850BE3EFF0DF8C1305095FEFF05F8C39
:10258800330A8A00130C4C016FF0DFEF9317240015
:10259800B387FA0083A507006FF09FFD37550080C9
:1025A800130545E5EFF0DF8983A70400B337F00092
:1025B8006FF05FEFB757008083A74752130101FF01
:1025C80023248100374500802326110037540080DA
:1025D8001305055F63820702EFF09F86B7550080F9
:1025E800938505E7130584E7032481008320C10050
:1025F800130101016FF0DF84EFF09F84B75500806D
:10260800938505E96FF01FFE130101FF23261100D2
:10261800EFE0DFC78320C100130101016FF09FF9CC
:1026280013172500B757008013051500938747EA4D
:1026380013152500130101FF3387E700B387A700AF
:1026480023248100232291000324070083A4070088
:1026580023261100636C94008320C10003248100A9
:1026680083244100130101016780000083270400CF
:102678001305040083A74700E780070063040500EB
:10268800232204001304C4006FF0DFFC130101FFD0
:10269800B757008023229100B7540080232481007B
:1026A800232611001384073423202101938707343C
:1026B80093840437631C94001309050013840700EE
:1026C80063149402130400006F00400403274400BD
:1026D8006308070003270400032707006308A7020D
:1026E8001304C4006FF01FFD83274400639607009E
:1026F8001304C4006FF0DFFC8327040013050900EE
:1027080083A50700EFF01FABE31405FE13050400D3
:102718008320C10003248100832441000329010090
:102728001301010167800000130101FF23248100C8
:102738002322910023261100130480009304200013
:10274800F3370430EF10406A63C4A4001305100087
:1027580093051000EF101008EFF08FF26FF05FFE96
:1027680037550080B7670080130685509387C79D4B
:102778003386C74093050000130585506FF05FAF9F
:10278800130101FF1305200023261100EFF05FE974
:1027980037550080130585ECEFF08FEA13053000FC
:1027A800EFF01FE8EF100036EFF01FE6B767008084
:1027B8009387079403C7C7001377E7FF2386E700CB
:1027C8008320C1001301010167800000130101F695
:1027D800232A9108930401011306000793050000BA
:1027E80013850400232E1108232C8108232821098E
:1027F80023263109EFF0DFA737640080B777008020
:102808009309049B9387075E1305000023A2F90030
:10281800EFF01FE113051000EFF09FE09307101091
:1028280023A49900231EF100EF00503FB757008002
:10283800938787EB376900802322F100B726008051
:1028480093071000B7750080930409942320F100C2
:1028580013070000930700009308A0001308000066
:1028680093868678130600209385059E13050994A0
:1028780023A09902EF10401383C7D4001304049BCC
:1028880013F7B7FFA386E40093F7B701639C07002B
:1028980003A704029307F0FF6316F70013050994D2
:1028A800EF004069B7570080938707EC2322F100B7
:1028B8003765008093071000B7260080B775008041
:1028C8009304058D2320F1009308F00013080000FD
:1028D8009307000013070000938606731306002071
:1028E800938505BE1305058DEF10000C83C7D40032
:1028F800232694001305800093F7B7FFA386F400FE
:10290800B76700809387879C232CF400232EF4005C
:102918007335053013758500EFD09F90B767008039
:1029280003A7079B130101FF23261100630A07026F
:1029380037560080B755008037550080130585D875
:102948009306200F130686F6938505FAEFF04FCF0E
:1029580037550080130585FBEFF08FCE6F00000020
:102968009387079B03A78700930610008347F70008
:10297800639AD70237560080B755008037550080D4
:10298800130585D89306300F130686F69385C5FB85
:10299800EFF00FCB37550080130585FBEFF04FCADA
:1029A8006F0000009387F7FFA307F7008320C1009B
:1029B8001301010167800000130101FF2324810036
:1029C800232021011304050023261100232291004E
:1029D80013890500EFF09FF40327C400B767008050
:1029E8009387079B630A07020326840083A6870050
:1029F8006308D604631A0904EF00003D130500FFBD
:102A08008320C1000324810083244100032901009D
:102A1800130101016780000083A687008386E60012
:102A280083A78700130717002328D4002326E40070
:102A38002324F400EF004039130500006FF05FFC19
:102A4800832604016FF0DFFD8307E6008385E60037
:102A580063D4B7009385070063D40500930500008D
:102A680093048000F3B404300325840093F48400B5
:102A78008307E50063D4F500EF00100D1306090085
:102A88009305040013850400EF001009E30405FA18
:102A98008327040083250401630EF400638C070078
:102AA8008387E70063D4B7009385070063D40500E4
:102AB8009305000093048000F3B4043003258400D8
:102AC80093F484008307E5006384F500EF00D007E2
:102AD800F3A40430EF00402F130550FF6FF05FF2AE
:102AE8008327C500130101FF232611002324810039
:102AF8002322910023202101639A07023756008080
:102B0800B755008037550080130585D89306600DAA
:102B1800130646F0938505F3EFF08FB23755008022
:102B2800130585FBEFF0CFB16F000000B767008099
:102B38000327850083A7879B13040500630AF70210
:102B480037560080B755008037550080130585D863
:102B58009306700D130646F0938585F4EFF04FAE9B
:102B680037550080130585FBEFF08FAD6F0000002F
:102B7800EFF0DFDA8327C400130710006382E7024F
:102B88009387F7FF2326F400032481008320C100E4
:102B98008324410003290100130101016F00C022B1
:102BA80093048000F3B404300325840083250401D2
:102BB80093F484008307E5006384F500EF00C07890
:102BC80013050400EF0000502324A4001309050096
:102BD800630C05028347D50093F7F701639A070052
:102BE800032705029307F0FF6314F700EF00803412
:102BF800F3A704308307E900232609062328F400F5
:102C0800F3A404306FF05FF8232604006FF05FFF31
:102C1800130101FF23261100EFF04FD5B7570080AD
:102C280083A7C7528320C100376700803385A70078
:102C38002320A79C930500001385070013010101B9
:102C48006F10403913058000733505301375850002
:102C580067800000130101FF23248100376400808E
:102C68009307049B2322910083A447022326110083
:102C7800938747021304049B6384F400639404005D
:102C88008324C4008327840063180504638607042B
:102C980003C7D7001377F7016310070483A6070259
:102CA8001307F0FF639AE60283D6E7001307F007DD
:102CB8006374D702375700800327C733638EE70052
:102CC8002320F4028320C1000324810083244100CF
:102CD800130101016780000063849700EFF05FF340
:102CE800232094026FF01FFE130101FE232E110012
:102CF800232C8100232A9100232821012326310136
:102D08009384050093090500EFF0DFF3B7670080AF
:102D18009305A000130405001385990023A0079CC0
:102D2800EFD09FBDB7570080375900802326A9529E
:102D380023A4975213748400EFF09FED732404309A
:102D48008320C10103248101832441010329010156
:102D58008329C1001301010267800000130101FFEC
:102D6800232481002326110013040500EFF09FEDB2
:102D780093070500032504006314A400130500004D
:102D880093F78700F3A707308320C100032481004D
:102D98001301010167800000B76700809387079BD4
:102DA80083A6070013070500639A060083A6870019
:102DB80083A707026384F6006FD08FC61377870056
:102DC8007327073067800000130101FF2324810067
:102DD800376400801304049B832784002326110092
:102DE8002322910083C7F700639A070237560080B1
:102DF800B755008037550080130585D89306701D98
:102E08001306C60B9385850EEFF08F833755008028
:102E1800130585FBEFF0CF826F00000083270400C5
:102E2800638A070237560080B755008037550080FF
:102E3800130585D89306801D1306C60B938505FADE
:102E4800EFF00F8037550080130585FBEFE05FFF3B
:102E58006F000000EFF01FDF0327840093040500D4
:102E6800130510008347F70093F484009387170035
:102E7800A307F700EFF01FDEF3A40430130580006A
:102E880073350530032481008320C1008324410069
:102E980013758500130101016FF01FF0B75700800B
:102EA80083A7C7336398F50237560080B75500806B
:102EB80037550080130101FF9306D0211306C60B76
:102EC80093850509130585D823261100EFE05FF7E0
:102ED8006F000000832705006310F5028327450073
:102EE80023A0A50023A2F5008327450023A0B7004F
:102EF8002322B50067800000E38207FE0387E50010
:102F08008386E700635ED70003A7470023A0F50088
:102F180023A2E5002320B70023A2B70067800000A2
:102F280083264500E38CD7FA83A70700E39A07FCBA
:102F38006FF0DFFA130101FF23261100232481001B
:102F48002322910093040500EFF0DFCF130405005E
:102F580037650080938504001305459DEFF01FF445
:102F680083C7D400130500001374840093E7070493
:102F7800A386F400EFF01FCE732404308320C10031
:102F880003248100832441001301010167800000AC
:102F98008347D50093F7F701639A070003270502D3
:102FA8009307F0FF6314F7006FF0DFF86780000005
:102FB800B757008083A7C7336398F5023756008058
:102FC800B755008037550080130101FF9306C022D2
:102FD8001306C60B93850509130585D8232611000A
:102FE800EFE01FE66F00000003A7450083A7050078
:102FF8002320F70023A2E70067800000130101FFE8
:1030080023248100232291001304050023261100A4
:10301800EFF05FC3930405000325840063140502E1
:1030280037560080B7550080375500809306101535
:103038001306C60B9385450A130585D8EFE05FE0B4
:103048006F00000093050400EFF09FF68347D4005B
:1030580093F4840093F7D7FFA306F400F3A4043095
:10306800232404008320C100032481008324410019
:103078001301010167800000832705FF130101FF89
:103088002324810023229100232611001304050024
:10309800930485FE6386070013850400EFF01FF68E
:1030A800834754FF8320C1001385040093F7B7FFBB
:1030B800A30AF4FE032481008324410013010101C3
:1030C8006FF01FED130101FF930500002324810019
:1030D80023261100EFF09FC81304050063080500BC
:1030E800EFF0DFF113058401EF00D04A1305040067
:1030F8008320C100032481001301010167800000BF
:10310800130101FE23282101376900801309099B57
:10311800232E1100232C8100232A9100232631011C
:103128001304050093094902EFF0DFB19305040089
:103138009304050013850900EFF09FE79305040049
:1031480013850900EFF09FD58347D4000325890034
:1031580093F4840093E7070433058540A306F4003D
:1031680013351500EFF01FAFF3A404308320C1011D
:103178000324810183244101032901018329C1001A
:103188001301010267800000B757008083A7C75268
:1031980063880706B76700809387079B03A78700A4
:1031A8009306F0070356E70063ECC604B7560080A1
:1031B8000306E70083A686526344D604B756008008
:1031C80083A6C633630ED702032607029306F0FFD1
:1031D8006318D60283A607016340D502130101FFD5
:1031E8001305070023261100EFF09FF18320C1008B
:1031F800130101016FF0DFA1B386A64023A8D70011
:1032080067800000130101FF23248100232291001D
:10321800130405002326110023202101EFF09FA2AB
:103228008347D4009304050093F70704638A0702D1
:10323800376900801309099B1305490293050400A7
:10324800EFF01FD78347D4000325890093F7F7FBD6
:1032580033058540A306F40013351500EFF09F9F52
:1032680093F48400F3A404308320C1000324810074
:103278008324410003290100130101016780000034
:10328800130101FF23248100232291001304050068
:103298002320210123261100938405001309060029
:1032A800EFF05FF68347D40093E72700A306F40006
:1032B800638A040023249400930504001385040002
:1032C800EFF0DFBD9307F0FF630CF9029305A00050
:1032D80013059900EFD04FE213061500130584017A
:1032E800032481008320C1008324410003290100B5
:1032F800B735008093850508130101016F00D038A8
:103308008320C10003248100832441000329010094
:103318001301010167800000130101FFB7670080F6
:10332800232481001304050003A5879B232611008D
:10333800EFF01FF513050400032481008320C1006A
:10334800130101016FC0DFED130101FE232C810081
:10335800232A91002328210113040500138905005D
:10336800232E110023263101EFF0DF8D8347D4008F
:10337800131989019304050093F7F701135989413B
:10338800639A0706032704029307F0FF6314F706FE
:10339800B76900809389499D930504001385090046
:1033A800EFF01FC1930504001385090023072401CA
:1033B800EFF0DFAE13051000EFF0DF899307100080
:1033C80093F48400F3A40430638C0702130580008F
:1033D80073350530032481018320C1018324410111
:1033E800032901018329C100137585001301010216
:1033F8006FF09F9A23072401930700006FF05FFC8A
:103408008320C1010324810183244101032901018F
:103418008329C1001301010267800000B76700809B
:103428009387079B1387470223A2E70223A4E70297
:1034380093050000130500006FF01F8B0305E500DE
:1034480067800000130101FF232611002324810057
:10345800138705019307E00163F2E704138405006D
:1034680037560080B7550080375500809306D02C1A
:103478001306C60B938585FF130585D8EFE05F9C7F
:1034880037550080930600FF1306E00093050400FB
:10349800130585DAEFE0DF9A6F000000B767008058
:1034A80083A7079B638A070237560080B7550080B9
:1034B80037550080130585D89306E02C1306C60BF4
:1034C800938505FAEFE0DF9737550080130585FBF4
:1034D800EFE01F976F000000032481008320C100E4
:1034E800130101016FF05FE6130101FF232481003E
:1034F800376400808327049B232611002322910030
:1035080023202101638A070237560080B7550080BF
:1035180037550080130585D8930660301306C60B0F
:10352800938505FAEFE0DF9137550080130585FB99
:10353800EFE01F916F0000001304049BB757008051
:103548000327840083A7C733630CF702EFF08FEFDC
:103558008325840013094402930405001305090018
:10356800EFF01FA5832584001305090093F4840058
:10357800EFF0DF9213051000EFF0CFEDF3A4043065
:1035880003278400832704026304F70213058000DD
:1035980073350530032481008320C1008324410052
:1035A8000329010013758500130101016FC05FC76E
:1035B8008320C100032481008324410003290100E2
:1035C8001301010167800000130101FD232481021A
:1035D800376400801304049B832704002326110208
:1035E8002322910223202103232E3101638A07021B
:1035F80037560080B755008037550080130585D8A9
:10360800930640321306C60B938505FAEFE05F83F5
:1036180037550080130585FBEFE09F826F0000009F
:103628009307F0FF631AF50237560080B7550080FC
:1036380037550080130585D8930650321306C60BFC
:10364800938545FEEFE0CFFF37550080130585FBD6
:10365800EFE00FFF6F000000631605022326A100AC
:10366800EFF09FE80325C1008320C10203248102F3
:1036780083244102032901028329C10113010103A3
:10368800678000009305A00013059500EFD0CFA632
:1036980093091500EF00102FB384A90013098000C7
:1036A8007339093003258400EFF0DFB50325840062
:1036B800B735008013860900938505081305850131
:1036C800EF00807C13758900EFC09FB5EF00902B49
:1036D800B384A44013050000E35890F81306803E15
:1036E800930600001385040093D5F441EFD0CF97DB
:1036F8001306400693060000EFC09FB76FF0DFF691
:10370800B767008003A5879B67800000130101FF4E
:1037180023261100631A060237560080B755008029
:1037280037550080130585D89306D0031306061174
:103738009385C513EFE0CFF0375500801305851446
:10374800EFE00FF06F000000637AB6023756008092
:10375800B755008037550080130585D89306E003D8
:103768001306061193850516EFE08FED3755008097
:1037780013058517EFE0CFEC6F0000008320C10030
:103788002324B5002326C5002320A5002322A50055
:103798001301010167800000130101FF2324810048
:1037A800232021012326110023229100130905005B
:1037B800130480007334043013748400EFF09F9076
:1037C800630205048347D5009304050093F7F701C6
:1037D800639A0700032705029307F0FF6314F700B5
:1037E800EFF04FF523A60406130504000324810017
:1037F8008320C10083244100032901001301010132
:103808006FF08FD9032789008327C900B387E74062
:10381800B337F000B387E7002324F9006FF0DFFC2B
:10382800B767008083A7079B13860500638007049A
:10383800638E050237560080B755008037550080E3
:10384800130101FF130585D89306300813060611E6
:103858009385051A23261100EFE08FDE3755008087
:10386800130585FBEFE0CFDD6F00000093078000B4
:10387800F3B707300327850093F78700630C070029
:103888001307F7FF2324E500F3A70730130500000B
:103898006780000063180600F3A70730130500FFD0
:1038A8006780000093050500138507006FF0DFA609
:1038B800130101FF232481002322910023261100F4
:1038C8009304050013048000138505007334043045
:1038D8009305A00013059500EFD00F82B73500803F
:1038E800130615009385050813858401EF00C05958
:1038F80013748400732404308320C10003248100DE
:103908008324410013010101678000008347D5002B
:1039180093F7F701639A0700032705029307F0FF5F
:103928006314F7006FF00FE167800000B76700804D
:1039380003A5079B3335A00067800000B7670080A8
:1039480083A7879B03C5C700137515006780000010
:10395800130101FF23248100232611001304800092
:10396800733404300347D5001374840093764700FA
:10397800639C0600732404308320C1000324810063
:1039880013010101678000001377B7FFA306E50064
:10399800EFF0DFF713050400032481008320C10042
:1039A800130101016FF04FBF130101FE0323010250
:1039B800232C8100232E110023206100130405000D
:1039C800EFD0DFBEB767008083A7879B8320C10144
:1039D80083A787062324F406032481011301010227
:1039E80067800000376300800323039B130101FEF7
:1039F800232A9100232E1100232C810083244102C5
:103A0800630A030237560080B75500803755008097
:103A1800130585D89306801A1306461D938505FA63
:103A2800EFE00FC23755008013054520EFE04FC186
:103A38006F00000003230102232201001304050084
:103A480023206100EFF05FF69307F0FF6388F4002E
:103A58006392040213050400EFF09FEF13050400BE
:103A68008320C10103248101832441011301010240
:103A7800678000009385040013050400EFF05FE3FE
:103A88006FF0DFFD83270506130101FF2324810062
:103A9800232611001304050063840700E78007004C
:103AA8008347D40013F7F701631A07028326040239
:103AB8001307F0FF6394E60213050400EFF08FF498
:103AC8008347D4008320C10093E78700A306F4004E
:103AD80003248100130101016780000093F7270088
:103AE8006386070013050400EFF04FD10327040293
:103AF8009307F0FFE306F7FC13058401EF00802924
:103B08006FF01FFC130101FDB7570080232E310110
:103B1800B75900802324810223229102232611020F
:103B2800232021031384073793840737938909498E
:103B380063603405B767008003A7079B630C07061B
:103B480037560080B755008037550080130585D853
:103B58009306200F130686F6938505FAEFE04FAE1D
:103B680037550080130585FBEFE08FAD6F0000002F
:103B78008327C4022322F100832704022320F100B3
:103B8800832744018328C4010328840103270401EF
:103B98008326C400032684008325440003250400EB
:103BA800EFF09FE08327040023AE87041304040387
:103BB8006FF01FF89387079B03A7870093061000F1
:103BC8008347F700639AD70237560080B7550080BD
:103BD80037550080130585D89306300F130686F6EF
:103BE8009385C5FBEFE0CFA537550080130585FB0E
:103BF800EFE00FA56F0000009387F7FFA307F7001A
:103C0800130980007339093013840400137989007B
:103C18009304F0FF6362340373290930032481029B
:103C28008320C10283244102032901028329C1019F
:103C3800130101036FF04F998325440263889500AF
:103C48000325040063980500EFF09FD013040403D4
:103C58006FF05FFCEFF0DFC56FF05FFF9307F0FFD9
:103C68002306D500A306C5002307B500A307050052
:103C78002320F50267800000130101FF232481003F
:103C8800232611002322910013048000733404308A
:103C98008347C50093F71700638A070237560080E9
:103CA800B755008037550080130585D89306300234
:103CB8001306C62293850526EFE08F9837550080B6
:103CC80013054529EFE0CF976F0000009304050026
:103CD800EFF05FDBB767008003A7079B13748400CE
:103CE800630E0700732404308320C100032481007D
:103CF8008324410013010101678000009387079B1B
:103D080083A787001305040063949700EFC04FD181
:103D1800032481008320C100832441001301010191
:103D28006FF08F87B757008083A707536394070006
:103D38006FE0CFC313050000678000001305800003
:103D480073350530137585006780000083270500EB
:103D5800638807020327450063040702B7560080FB
:103D680083A64633630AD50083A687000326850009
:103D7800B386C60023A4D7002320F70023A2E700B8
:103D88009307F0FF23220500232005002324F500D4
:103D980067800000130101FF232481002322910082
:103DA8002326110093040500EFF05FF903A78400B0
:103DB8009307F0FF130405001305F0FF6308F700ED
:103DC80013850400EFF09FF81305000013748400B6
:103DD800732404308320C10003248100832441001C
:103DE8001301010167800000B757008083C747535C
:103DF800130101FF232481002326110023229100AF
:103E0800232021011304F0FF639607003704008084
:103E18001344F4FFEFF09FF2B757008093870733FE
:103E280003A90700930405006304F9026302090269
:103E380003248900EFF01FEF3305A44013040000AA
:103E48006348050003248900EFF0DFED3304A44044
:103E580093F48400F3A40430B767008083A7079C19
:103E68006386070063D487001384070013050400E2
:103E78008320C10003248100832441000329010019
:103E8800130101016780000083278500130101FEEB
:103E9800232E1100232C8100232A910063CA0702D4
:103EA80037560080B755008037550080130585D8F0
:103EB800930630041306062B9385052EEFD05FF882
:103EC80037550080130585FBEFD09FF76F00000082
:103ED8002326B5002326C10013040500EFF01FE6D2
:103EE80093040500EFF01FE40326C1006344C000FB
:103EF80013061000B757008003A707333306A60040
:103F08002324C400938707336306F70083A547007B
:103F18006310070203A747002320F4002322E400CC
:103F280003A747002320870023A287006F0000060D
:103F38008326870063DA060237560080B75500806B
:103F480037550080130585D89306C0041306062B41
:103F58009385052FEFD0DFEE37550080130585FBDD
:103F6800EFD01FEE6F00000003268400635AD604CA
:103F7800B386C6402324D700832647002320E400C5
:103F88002322D40023A086002322870003A707004A
:103F9800630AF7006318E400EFF01FE593050000DB
:103FA800EFE08F8C93F48400F3A404308320C101E4
:103FB8000324810183244101130101026780000069
:103FC800B306D6402324D400E386E5F4032707008C
:103FD8006FF01FF4130101FE2326B100232E1100F8
:103FE800232C8100232A910093040500EFF01FD5AC
:103FF80013040500EFF05FDF8325C10063DAA40036
:104008009307100063D6A70013850400EFE0CF855F
:1040180013748400732404308320C10103248101B4
:10402800832441011301010267800000130101FE8E
:10403800232E1100232C8100232A9100130405004C
:104048002326310123244101B75900802328210167
:10405800375A0080EFF04F93B7540080EFF01FCE2F
:10406800130A0A3323A889529384845393890953E2
:1040780003240A0083A7090083A6040003A84400B8
:1040880013798500630C4401630A04000327840044
:1040980063DEE7043307F7402324E400B386D70040
:1040A80013D7F74133070701B3B7F600B387E70023
:1040B80023A0D40023A2F40023A00900EFF0DFD24C
:1040C80093050000EFD05FFA732909308320C101FE
:1040D8000324810183244101032901018329C100AB
:1040E800032A81001301010267800000B306D7008C
:1040F8009355F74133B6E600B38505013306B6009C
:10410800B387E740232404001305040023A0D40048
:1041180023A2C40023A0F900EFF05FC3732909307C
:104128008327C40013050400E7800700EFF01FC1D0
:104138006FF01FF4130101FF2326110023248100CF
:10414800EFF0DFBF13040500EFE04F823757008020
:1041580013078753930705000325070083254700A6
:10416800137484003385A700B337F500B385B7000F
:10417800732404308320C10003248100130101014A
:1041880067800000130101FF23261100EFF09FFA5A
:104198008320C1001301010167800000130101FFA2
:1041A800232481002322910037540080B7540080D3
:1041B800232611001304044993840449636E940070
:1041C8008320C100032481008324410013050000DB
:1041D80013010101678000009307440113050400DF
:1041E800232AF400232CF400EFD04FD71304C40182
:0841F8006FF0DFFC678000009E
:10420000000000002C150080000000002C1500802C
:10421000000000002C150080000000002C1500801C
:10422000000000002C150080000000002C1500800C
:10423000000000002C15008000000000741F0080AA
:10424000000000002C150080000000002C150080EC
:10425000000000002C150080000000002C150080DC
:10426000000000002C150080000000002C150080CC
:10427000000000002C150080000000002C150080BC
:10428000000000002C150080000000002C150080AC
:10429000000000002C150080000000002C1500809C
:1042A000000000002C150080000000002C1500808C
:1042B000000000002C150080000000002C1500807C
:1042C000000000002C150080000000002C1500806C
:1042D000000000002C150080000000002C1500805C
:1042E000000000002C150080000000002C1500804C
:1042F000000000002C150080000000002C1500803C
:10430000000000002C150080000000002C1500802B
:10431000000000002C150080000000002C1500801B
:10432000000000002C150080000000002C1500800B
:10433000000000002C150080000000002C150080FB
:10434000000000002C150080000000002C150080EB
:10435000CC4900802C1F008000000000E44D00804C
:104360002420008000000000DC4D00802423008019
:1043700000000000CC490080A44100800000000043
:10438000A4540080B8540080CC540080E0540080D5
:104390000900000008000000070000000500000000
:1043A00000010202030303030404040404040404DC
:1043B00005050505050505050505050505050505AD
:1043C000060606060606060606060606060606068D
:1043D000060606060606060606060606060606067D
:1043E000070707070707070707070707070707075D
:1043F000070707070707070707070707070707074D
:10440000070707070707070707070707070707073C
:10441000070707070707070707070707070707072C
:10442000080808080808080808080808080808080C
:1044300008080808080808080808080808080808FC
:1044400008080808080808080808080808080808EC
:1044500008080808080808080808080808080808DC
:1044600008080808080808080808080808080808CC
:1044700008080808080808080808080808080808BC
:1044800008080808080808080808080808080808AC
:10449000080808080808080808080808080808089C
:1044A0007468726561645F3035000000746872651D
:1044B00061645F30360000007468726561645F306B
:1044C000370000007468726561645F303800000076
:1044D0007468726561645F303900000074687265E9
:1044E00061645F3131000000746573745F6D7574D1
:1044F000657800002F686F6D652F6D69616F752F8E
:1045000070726F2F72697363762F7A657068797233
:104510002F74657374732F6B65726E656C2F6D7578
:104520007465782F6D757465782F7372632F6D6164
:10453000696E2E63000000000A2020202041737362
:10454000657274696F6E206661696C656420617460
:104550002025733A25643A2025733A2025730A00F2
:10456000746573745F6D75746578000054485245C6
:1045700041445F31310000005448524541445F30AE
:10458000390000005448524541445F303800000073
:104590005448524541445F3037000000544852456A
:1045A00041445F30360000005448524541445F307A
:1045B000350000006D757465785F636F6D706C65B4
:1045C0007800000054657374206B65726E656C2012
:1045D0004D75746578204150490000007374617214
:1045E00074696E672074657374202D2025730A002A
:1045F0003D3D3D3D3D3D3D3D3D3D3D3D3D3D3D3DEB
:104600003D3D3D3D3D3D3D3D3D3D3D3D3D3D3D3DDA
:104610003D3D3D3D3D3D3D3D3D3D3D3D3D3D3D3DCA
:104620003D3D3D3D3D3D3D3D3D3D3D3D3D3D3D3DBA
:104630003D3D3D0A000000004661696C65642074E0
:104640006F206C6F636B206D7574657820307825F2
:10465000780A0000287276206E6F7420657175618B
:104660006C20746F20302900657870656374656410
:10467000207072696F726974792025642C206E6FC6
:10468000742025640A000000287276206E6F742062
:10469000657175616C20746F207072696F726974D6
:1046A000795B695D2900000074635F7263206E6F3F
:1046B0007420657175616C20746F2054435F5041A4
:1046C00053530000446F6E65204C4F434B494E4797
:1046D00021202043757272656E74207072696F724A
:1046E000697479203D2025640A00000074687265B1
:1046F00061645F303500000025732074696D656466
:10470000206F757420616E64206F757420707269FB
:104710006F726974792073686F756C642064726F4E
:10472000702E0A00287276206E6F74206571756194
:104730006C20746F20362900457870656374656459
:10474000207072696F726974792025642C206E6FF5
:10475000742025640A0000006D757465785F34006C
:104760004761766520257320616E64207072696FE1
:10477000726974792073686F756C642064726F70ED
:104780002E0A0000287276206E6F742065717561A4
:104790006C20746F20372900287276206E6F742089
:1047A000657175616C20746F2064726F70707269CE
:1047B0005B695D2900000000287276206E6F74200E
:1047C000657175616C20746F203130290000000024
:1047D00054657374696E6720726563757273697668
:1047E00065206C6F636B696E670A00004661696CD7
:1047F000656420746F206C6F636B207072697661E2
:104800007465206D75746578000000004661696C00
:10481000656420746F207265637572736976656C68
:1048200079206C6F636B2070726976617465206D9E
:104830007574657800000000556E65787065637466
:1048400065646C7920676F74206C6F636B206F6E8A
:104850002070726976617465206D757465780000EA
:10486000287276206E6F7420657175616C20746F8C
:10487000202D454255535929000000004661696CBE
:10488000656420746F2072652D6F627461696E209B
:104890006C6F636B206F6E20707269766174652037
:1048A0006D75746578000000526563757273697682
:1048B00065206C6F636B696E672074657374732019
:1048C0007375636365737366756C0A004641494C82
:1048D000000000002573202D2025734025642E2024
:1048E000000000004661696C656420746F20746983
:1048F0006D656F7574206F6E206D757465782030EE
:104900007825780A000000004661696C65642074AF
:104910006F2074616B65206D757465782030782523
:10492000780A00004661696C656420746F204E4F00
:10493000542074616B65206C6F636B6564206D75CA
:1049400074657820307825780A00000074687265F4
:1049500061645F31320000004661696C65642074F7
:104960006F206F627461696E207072697661746520
:10497000206D757465780A0004140080BC140080F2
:10498000BC140080F813008004140080A41400807C
:10499000B0140080FC4B00801C4C0080384C008020
:1049A0004C4C0080584C0080704C0080756E6B6ED3
:1049B0006F776E00457863657074696F6E20636110
:1049C00075736520257320282564290A00000000DE
:1049D0002A2A2A2A204B65726E656C20416C6C6F06
:1049E000636174696F6E204661696C757265212020
:1049F0002A2A2A2A0A0000002A2A2A2A2A204B6563
:104A0000726E656C204F4F505321202A2A2A2A2A81
:104A10000A0000002A2A2A2A2A204B65726E656C39
:104A20002050616E696321202A2A2A2A2A0A00005E
:104A30002A2A2A2A20556E6B6E6F776E2046617483
:104A4000616C204572726F7220256421202A2A2A07
:104A50002A0A000043757272656E7420746872656C
:104A60006164204944203D2025700A4661756C74BC
:104A7000696E6720696E737472756374696F6E20F6
:104A800061646472657373203D20307825780A2054
:104A90002072613A2030782578202067703A2030E3
:104AA000782578202074703A20307825782020747A
:104AB000303A20307825780A202074313A20307836
:104AC0002578202074323A203078257820207433DD
:104AD0003A2030782578202074343A2030782578B0
:104AE0000A202074353A2030782578202074363A10
:104AF0002030782578202061303A203078257820C1
:104B00002061313A20307825780A202061323A201D
:104B100030782578202061333A203078257820209D
:104B200061343A2030782578202061353A20307879
:104B300025780A202061363A2030782578202061B7
:104B4000373A20307825780A000000004953520097
:104B5000657373656E7469616C20746872656164F5
:104B600000000000466174616C206661756C742001
:104B7000696E20257321205370696E6E696E672EF1
:104B80002E2E0A00466174616C206661756C74207B
:104B9000696E20746872656164202570212041620D
:104BA0006F7274696E672E0A00000000ADBAADDE48
:104BB000ADBAADDEADBAADDEADBAADDEADBAADDE2D
:104BC000ADBAADDEADBAADDEADBAADDEADBAADDE1D
:104BD000ADBAADDEADBAADDEADBAADDEADBAADDE0D
:104BE000ADBAADDEADBAADDEADBAADDEADBAADDEFD
:104BF000ADBAADDEADBAADDEADBAADDE496E737441
:104C000072756374696F6E2061646472657373207A
:104C10006D6973616C69676E65640000496E7374D9
:104C200072756374696F6E20416363657373206688
:104C300061756C7400000000496C6C6567616C20E4
:104C4000696E737472756374696F6E004272656128
:104C50006B706F696E7400004C6F616420616464F6
:104C600072657373206D6973616C69676E6564004A
:104C70004C6F616420616363657373206661756C5A
:104C80007400000053707572696F757320696E74DB
:104C900065727275707420646574656374656421EF
:104CA000204952513A2025640A0000002F686F6D98
:104CB000652F6D69616F752F70726F2F72697363E5
:104CC000762F7A65706879722F617263682F7269C6
:104CD00073637633322F636F72652F746872656108
:104CE000642E6300282828287072696F72697479AD
:104CF0002929203D3D203135202626205F69735F1C
:104D000069646C655F746872656164282874687290
:104D10006561645F66756E63292929207C7C202883
:104D20005F69735F7072696F5F6869676865725FFA
:104D30006F725F657175616C2828287072696F7277
:104D400069747929292C20283135202D20312929F1
:104D5000202626205F69735F7072696F5F6C6F77C2
:104D600065725F6F725F657175616C28282870725B
:104D7000696F7269747929292C2028282D313629E8
:104D80002929292900000000415353455254494F15
:104D90004E204641494C205B25735D204020257301
:104DA0003A25640A0000000009696E76616C696446
:104DB000207072696F7269747920282564293B20FC
:104DC000616C6C6F7765642072616E67653A20254F
:104DD0006420746F2025640A0000000075617274FD
:104DE000300000007379735F636C6F636B000000C9
:104DF0001C230080F822008000000000000000005A
:104E0000000000009C4E0080CC480080284E0080AE
:104E100052756E6E696E6720746573742073756960
:104E200074652025730A0000534B495000000000B0
:104E30002573202D2025730A00000000546573742B
:104E4000207375697465202573206661696C6564DB
:104E50002E0A0000546573742073756974652025EB
:104E600073207375636365656465640A0000000000
:104E70004641494C4544000050524F4A4543542056
:104E8000455845435554494F4E2025730A000000AC
:104E90005355434345535346554C000050415353DB
:104EA0000000000040530080645300807053008075
:104EB00070530080705300806D61696E00000000C7
:104EC00069646C65000000002A2A2A2A2A20426FA1
:104ED0006F74696E67205A6570687972204F53202D
:104EE0007A65706879722D76312E31332E302D33FC
:104EF0003032302D6733376633373434202A2A2A4C
:104F00002A2A0A002F686F6D652F6D69616F752FF2
:104F100070726F2F72697363762F7A657068797219
:104F20002F6B65726E656C2F6D757465782E6300DE
:104F30006D757465782D3E6C6F636B5F636F756E16
:104F400074203E20305500006D757465782D3E6FDD
:104F5000776E6572203D3D205F6B65726E656C2ECD
:104F600063757272656E74002F686F6D652F6D6961
:104F7000616F752F70726F2F72697363762F7A6508
:104F8000706879722F6B65726E656C2F696E636CD9
:104F90007564652F6B73636865642E68000000009C
:104FA00021285F6B65726E656C2E6E657374656427
:104FB00020213D2030552900090A00005F6B6572F1
:104FC0006E656C2E63757272656E742D3E626173D0
:104FD000652E73636865645F6C6F636B6564202125
:104FE0003D2031006475726174696F6E20213D202F
:104FF000282D312900000000282828287072696FA8
:105000002929203D3D203135202626205F69735F08
:1050100069646C655F746872656164282828287605
:105020006F6964202A293029292929207C7C20289D
:105030005F69735F7072696F5F6869676865725FE7
:105040006F725F657175616C2828287072696F29AD
:10505000292C20283135202D2031292920262620D1
:105060005F69735F7072696F5F6C6F7765725F6F96
:10507000725F657175616C2828287072696F2929C3
:105080002C2028282D313629292929290000000023
:10509000215F69735F69646C652874687265616417
:1050A000290000007468726561642D3E6261736559
:1050B0002E70656E6465645F6F6E00002F686F6DA3
:1050C000652F6D69616F752F70726F2F72697363D1
:1050D000762F7A65706879722F6B65726E656C2FAA
:1050E00073636865642E63005F6B65726E656C2E1A
:1050F00063757272656E742D3E626173652E7363A3
:105100006865645F6C6F636B656420213D203000CF
:105110002F686F6D652F6D69616F752F70726F2FBE
:1051200072697363762F7A65706879722F6B657216
:105130006E656C2F73656D2E630000006C696D6980
:105140007420213D20305500096C696D697420631D
:10515000616E6E6F74206265207A65726F0A00005E
:10516000696E697469616C5F636F756E74203C3D34
:10517000206C696D6974000009636F756E7420633B
:10518000616E6E6F7420626520677265617465720E
:10519000207468616E206C696D69740A00000000FB
:1051A0002828285F6B65726E656C2E6E657374655A
:1051B0006420213D20305529203D3D203029207C90
:1051C0007C202874696D656F7574203D3D20302901
:1051D000290000002F686F6D652F6D69616F752F55
:1051E00070726F2F72697363762F7A657068797247
:1051F0002F6B65726E656C2F7468726561642E63C7
:10520000000000000954687265616473206D617963
:10521000206E6F742062652063726561746564201E
:10522000696E20495352730A000000002F686F6DA9
:10523000652F6D69616F752F70726F2F726973635F
:10524000762F7A65706879722F6B65726E656C2F38
:105250007468726561645F61626F72742E630000CE
:10526000287468726561642D3E626173652E757382
:1052700065725F6F7074696F6E7320262028283105
:10528000554C203C3C20283029292929203D3D200F
:105290003000000009657373656E7469616C207479
:1052A00068726561642061626F727465640A0000EF
:1052B0002F686F6D652F6D69616F752F70726F2F1D
:1052C00072697363762F7A65706879722F6B657275
:1052D0006E656C2F74696D656F75742E63000000C8
:1052E000746F2D3E647469636B73203C2030000042
:1052F000742D3E647469636B73203E3D2030000062
:1053000060450080B80D0080B4090080B4090080B9
:105310000400000000000000000000000000000089
:105320000000000000000000AC1800800300000036
:105330003053008030530080F5FFFFFFD0580080CD
:1053400074430080000000000000000068430080FB
:10535000F04D00800000000050430080000000007D
:10536000000000005C43008000000000000000001E
:1053700040550080E05B008000020000BC09008016
:105380000000000000000000000000000500000018
:10539000040000000000000000000000A84500809C
:1053A000B0550080E05D008000020000D80A008057
:1053B00000000000000000000000000006000000E7
:1053C0000400000000000000000000009C45008078
:1053D00020560080E05F008000020000440A008048
:1053E00000000000000000000000000007000000B6
:1053F0000400000000000000000000009045008054
:1054000090560080E061008000020000600B008088
:105410000000000000000000000000000800000084
:10542000040000000000000000000000844500802F
:1054300000570080E063008000020000E40B008061
:105440000000000000000000000000000900000053
:10545000040000000000000000000000784500800B
:1054600070570080E065008000020000B80C0080EA
:105470000000000000000000000000000B00000021
:105480000400000000000000000000006C450080E7
:105490009054008090540080000000000000000044
:1054A0000F000000A4540080A454008000000000FD
:1054B000000000000F000000B8540080B8540080C5
:1054C00000000000000000000F000000CC5400802D
:1054D000CC54008000000000000000000F0000001D
:1054E000E0540080E0540080000000000000000054
:1054F0000F000000F4540080F4540080000000000D
:08550000000000000F00000094
:040000058000000077
:00000001FF
