:0200000480007A
:100000009702000093824201739052306F10006C8F
:020010000000EE
:02001200FFFFEE
:100014005D7106C00EC212C416C61AC81ECA72CCBE
:1000240076CE7AD07ED22AD42ED632D836DA3ADCBC
:100034003EDEC2C0C6C2F322103496C4F32200309E
:1000440096C6EF00E01B1303000021E1F3222034E5
:10005400B70300809383F3FFB3F272002D43638AE6
:10006400620013050100970000009380E0126F10F6
:10007400005AA642910296C4975200009382024B02
:1000840003A302006313030041A0930201009763DA
:100094000000938363AF03A14300411116C003AE74
:1000A4000300050E23A0C3016308030097000000AA
:1000B400938080036F10005C73252034B7020080A6
:1000C4009382F2FF33755500EF00801297420000CF
:1000D400938242B40E05AA9203A5020003A3420030
:1000E400E700030017630000130303AA832303003C
:1000F400FD132320730082421381020083238300B3
:10010400032E030263087E08976200009382C2A74D
:1001140003A382002326830223289302232A230392
:10012400232C3303232E4303232053052322630567
:10013400232473052326830523289305232AA30553
:10014400232CB305232423029753000093830339FC
:1001540003AE03002326C30703A3020223A4620001
:10016400032183020324C3028324030303294303D7
:1001740083298303032AC303832A0304032B43042D
:10018400832B8304032CC304832C0305032D430511
:10019400832D8305A64273901234B64273900230C5
:1001A400824092412242B2424243D243624EF24ED4
:1001B400025F925F2255B2554256D2566257F257A9
:1001C4000648964861617300203000007300000007
:1001D400976200009382429B03A382008323C30699
:1001E4002189F32205301385030067800000000095
:1001F4000543B312A30073B34234678000000000C8
:10020400F322203437030080B3F2620013050000A8
:0A0214006383020005056780000007
:02021E00FFFFE0
:10022000130101FD232291022328610123261102DB
:100230002324810223202103232E3101232C410179
:10024000232A5101232671012324810123229101B4
:10025000130B050093840500639C06381304060005
:100260009309050017490000130909B463F8C51282
:10027000B7070100938A05006378F6109306F00F24
:10028000B3B6C60093963600B357D6003309F900CB
:1002900003470900B306D700130700023307D7400E
:1002A000630C0700B394E400B356DB003314E6009C
:1002B000B3EA9600B319EB00135B040193050B003E
:1002C00013850A00EF0040631309050093050B0036
:1002D000931B040113850A00EF00805D93DB0B0183
:1002E000930405009305050013850B00EF00805073
:1002F0001319090113D709013367E900138A0400B0
:10030000637EA70033078700138AF4FF63688700C2
:100310006376A700138AE4FF33078700B304A7407E
:1003200093050B0013850400EF00005D1309050021
:1003300093050B0013850400EF0080579399090182
:1003400093040500930505001319090113850B009B
:1003500093D90901EF00004AB369390113860400FB
:1003600063FCA900B30934011386F4FF63E6890036
:1003700063F4A9001386E4FF93170A01B3E7C700EB
:10038000130A00006F000013B70700019306000175
:10039000E36CF6EE930680016FF01FEF138A060000
:1003A000631A06009305000013051000EF0040508B
:1003B00013040500B7070100637CF4129307F00FE4
:1003C00063F48700130A8000B35744013309F9002E
:1003D0008346090013060002B38646013306D64061
:1003E00063120612B3848440130A1000135B0401E5
:1003F00093050B0013850400EF000050130905005E
:1004000093050B0013850400931B0401EF00404A81
:1004100093DB0B01930405009305050013850B0086
:10042000EF00403D1319090113D709013367E900B3
:10043000938A0400637EA70033078700938AF4FF42
:10044000636887006376A700938AE4FF3307870019
:10045000B304A74093050B0013850400EF00C049C7
:100460001309050093050B0013850400EF004044B9
:1004700093990901930405009305050013190901D7
:1004800013850B0093D90901EF00C036B369390118
:100490001386040063FCA900B30934011386F4FF3A
:1004A00063E6890063F4A9001386E4FF93970A01C9
:1004B000B3E7C7001385070093050A008320C10234
:1004C0000324810283244102032901028329C101FB
:1004D000032A8101832A4101032B0101832BC100DF
:1004E000032C8100832C410013010103678000006D
:1004F000B7070001130A0001E368F4EC130A800156
:100500006FF09FEC3314C40033DAD400B319CB007E
:10051000B356DB00135B0401B394C40093050B00D6
:1005200013050A00B3EA9600EF00003D1309050029
:1005300093050B0013050A00931B0401EF004037DD
:1005400093DB0B01930405009305050013850B0055
:10055000EF00402A1319090113D70A013367E90094
:10056000138A0400637EA70033078700138AF4FF11
:10057000636887006376A700138AE4FF3307870068
:10058000B304A74093050B0013850400EF00C036A9
:100590001309050093050B0013850400EF0040319B
:1005A000930405009305050013850B00EF008024DC
:1005B00093960A011319090193D60601B367D9006E
:1005C0001387040063FEA700B38787001387F4FF37
:1005D00063E8870063F6A7001387E4FFB38787000B
:1005E000131A0A01B384A740336AEA006FF01FE0D0
:1005F00063ECD51EB707010063F4F6049305F00F12
:1006000033B5D5001315350033D7A6009737000052
:1006100093878779B387E70083C50700130A000231
:10062000B385A500330ABA4063160A029307100087
:10063000E3E296E83336CB00934716006FF09FE76E
:10064000B707000113050001E3E0F6FC1305800184
:100650006FF09FFBB35AB600B3964601B3EADA00D7
:1006600033D9B400B3974401B355BB0093DB0A01FF
:10067000B3E4F5001305090093850B00B319460197
:10068000EF0080271304050093850B001305090074
:10069000139C0A01EF00C021135C0C011309050033
:1006A0009305050013050C00EF00C014131404019A
:1006B00013D704013367E400930C0900637EA7009D
:1006C00033075701930CF9FF636857016376A7005E
:1006D000930CE9FF330757013309A74093850B00BB
:1006E00013050900EF0040211304050093850B005A
:1006F00013050900EF00C01B130905009305050051
:1007000013050C00EF00000F93970401131404016C
:1007100093D707013367F40013060900637EA7002F
:10072000330757011306F9FF636857016376A70083
:100730001306E9FF3307570193970C01370E0100A9
:10074000B3E7C7001308FEFF33F3070133F80901CD
:100750003307A74093DE070193D90901130503006E
:1007600093050800EF000009930805009385090030
:1007700013050300EF0000081303050093050800AC
:1007800013850E00EF00000713080500938509008C
:1007900013850E00EF00000693D608013303030112
:1007A000B386660063F406013305C50113D606015E
:1007B0003305A6006366A702E314A7BC3707010050
:1007C0001307F7FFB3F6E60093960601B3F8E800C7
:1007D00033164B01B3861601130A0000E37CD6CC16
:1007E0009387F7FF6FF0DFB9130A0000930700004B
:1007F0006FF05FCC130605001305000093F615009B
:10080000638406003305C50093D515001316160042
:10081000E39605FE67800000130101FF13830600C5
:1008200023261100130E0500930805009306060009
:1008300013070000930700001308000013F51600CB
:10084000931E1700630C050033850801333805013A
:10085000B387E700B307F8001308050013D7F801C2
:1008600093D6160033E7EE0093981800E39806FC41
:100870006388050013050600EFF0DFF7B387A700D4
:10088000630A030013050E0093050300EFF09FF6C3
:10089000B307F5008320C100130508009385070006
:1008A00013010101678000006340050663C6050669
:1008B00013860500930505001305F0FF630C06027F
:1008C00093061000637AB6006358C0001316160032
:1008D00093961600E36AB6FE1305000063E6C500B2
:1008E000B385C5403365D50093D616001356160060
:1008F000E39606FE6780000093820000EFF05FFB46
:1009000013850500678002003305A04063D8050009
:10091000B305B0406FF0DFF9B305B040938200003B
:10092000EFF01FF93305A0406780020093820000BA
:1009300063CA0500634C0500EFF09FF713850500BF
:1009400067800200B305B040E35805FE3305A040C0
:10095000EFF01FF63305B04067800200828041113E
:1009600022C437540080130484521C4006C68507F5
:100970001CC0EF2050078305E5008505EF200065CA
:10098000EF20206D1C40B24085071CC0224441016D
:100990008280371500808145130525AE6F00D04F4A
:1009A0006F107030411122C43754008012051304B7
:1009B000C4452A944C44504037450080130545FEF9
:1009C00006C6EF10E06EA2852244B2403755008083
:1009D0001305C56D41016F10707B0111AA8522CCF2
:1009E0002A84375500801305458F06CE26CA4AC88B
:1009F0004EC6EF10E06BEF20107BAA8922852E896E
:100A0000EF20606FEF20307AB3093541333535017F
:100A1000B3852541B384A540375500801305C591A2
:100A2000EF1000699357F44163C1F4026394970097
:100A300063ED890013074401333487003E946366F5
:100A4000940063918404637F370337460080B75571
:100A50000080375500809385859313050594930690
:100A6000E02B130686EFEF10A0646244F240D244FC
:100A70004249CE85B2493755008013050595056179
:100A80006F1000636244F240D2444249B249375584
:100A900000801305C55605616F20C07C411122C43A
:100AA00013145500098C0A04229513143500374598
:100AB0000080A285130505FA06C6EF10605F228547
:100AC000EF20900D37450080130545FCEF10405E88
:100AD0002244B240375500801305C55641016F20AE
:100AE0006078411122C4375400801304045626C292
:100AF000044006C699C48547638DF400FD575CC069
:100B000021A0EF20406E08C4B2402244924441012B
:100B10008280EF20900601C523240400F5B7B76753
:100B2000008083A707B98387E70063D4070004C464
:100B3000E1BF89471CC4C9BF797106CE22CC42D41B
:100B400046D60DED368637450080BA862E87B745E6
:100B500000803E84938585F33C10130585F73EC6DF
:100B6000EF100055B2452285EF10C0523755008076
:100B70001305C59EEF10C053EF109010F240624471
:100B800045618280011106CE22CC26CA4AC84EC6D3
:100B900052C456C2EF2020658145EF2020433745DF
:100BA00000801305856DEF10A05037540080EF20B2
:100BB000806313040456AA8A23200400232204001D
:100BC000C93B484037490080B7440080374A00801D
:100BD000B749008093078A701307C9EB138684F323
:100BE000938509729306401C13351500B1370844EC
:100BF000B7470080B7450080330555411307C9EB5F
:100C0000138684F39306701C938545759387C77389
:100C10001335150015373745008013058578EF101B
:100C2000204985471CC023220400A5334840930770
:100C30008A701307C9EB138684F3938509729306B0
:100C4000E01C13351500CD3D0844B7470080B7457B
:100C500000801307C9EB138684F39387C77A930642
:100C6000101D9385C57C13351500F9353745008077
:100C70001305057FEF10C043EF202070B7570080A9
:100C8000B75500801307C9EB138684F39387478217
:100C90009306401D9385458413351500713DB76754
:100CA000008083A707B96244F2400388E700B24995
:100CB000224A924A1307C9EB138684F34249D2446D
:100CC0001345F8FFB7570080B75500809387C78555
:100CD0009306801D938505897D810561B1BD828064
:100CE00001114AC806CE22CC26CA4EC652C4EF20F5
:100CF000D04A2A89EF20704AE30EA9FE05098144F3
:100D00000144EF209049630E250793D7C4011D4588
:100D100012045D8CEF10403DEF20304892042A8A87
:100D2000014981496396240763143407EF20F04694
:100D30001D45EF10A03A0144814463148906639273
:100D40009906EF20904562443305AA40F240D24410
:100D50004249B249224AB757008037470080374698
:100D60000080B75500809387478B130747EA9306A7
:100D7000C017130686F39385458D3335A0000561B2
:100D800065BB9387140033B797003A94BE8495BF30
:100D9000EF20B0409307190033B72701BA993E8975
:100DA00051B7EF20903F9307140033B78700BA94F0
:100DB0003E8461B76F10206F0111B7160080B765D0
:100DC00000803755008002C202C0D15801488147D7
:100DD00001479386E6DE13060020938505FC130584
:100DE000C56606CEEF202065F24005618280B757C8
:100DF0000080938787529843011122CC2A8437556B
:100E0000008006CE050726CA4AC84EC652C4FD5504
:100E10001305C55798C3EF20804AEF20C03CAA892C
:100E2000374A00803305A440B7470080375400801C
:100E3000B7440080B7450080130904569387871490
:100E40003335A00013074AED9306A01E138684F3E2
:100E500093858516D5312320090023220900153EEC
:100E60008327490013040456014591E708443305DC
:100E7000354113351500B7470080B745008013078B
:100E80004AED138684F39306401F9385451C938790
:100E900047195D3185471CC023220400DD3C1C44FA
:100EA0004840B745008013074AED5D8DB747008085
:100EB000138684F39387C7209306A01F9385C523C9
:100EC000133515009539EF20404BB7470080B755D3
:100ED000008013074AED138684F393874727930610
:100EE000C01F9385458413351500B931B76700805D
:100EF00083A707B96244F2400385E7004249B2493B
:100F000013074AED138684F3224AD244B747008080
:100F1000B74500809387472A9306F01F9385852C59
:100F20007D81056111B90111B7160080B765008098
:100F300037550080814751479386C6A9130600188C
:100F400002C202C0D15801489385051C1305C56E25
:100F500006CEEF20404E37550080930580021305E2
:100F6000C556EF20C035F240B747008037470080B4
:100F700037460080B74500809387873B130787F08B
:100F80009306802E130686F39385853E1335150050
:100F900005615DB6011126CAB7540080938484525E
:100FA00006CE22CC23A00400EF20E0238145EF20D1
:100FB000E001375400801305C4577D568145EF206A
:100FC0002023B7160080B765008037550080D158C0
:100FD00002C202C001488147014793868638130642
:100FE0000020938505BC1305C558EF20C04403A815
:100FF0000400B7470080374700801305F8FF3746E5
:101000000080B74500809387C768130787F293066F
:10101000C037130686F39385456B13351500293EBB
:101020001305C457EF2000241305C457EF20802375
:101030001305C4576244F240D24405616F208022F8
:101040007571CEDED2DCB7690080375A0080B716E2
:101050000080D15801488147130720039386A69D3D
:10106000130600189385091C1305CA6E02C202C03C
:1010700006C722C526C34AC1D6DADAD8DED6E2D4FC
:10108000E6D2EAD0EECEEF20003B37550080930544
:1010900040061305C556EF20802237440080B7472D
:1010A0000080B7440080B74500809387873F1307CF
:1010B00084F193063030138684F39385054313350A
:1010C00015009D3C37450080B75A00801305454404
:1010D000371D0080138BCA45930BCA6E1389091CF8
:1010E000EF00107D9389091C130ACA6E938ACA45C2
:1010F000014C9D4DEA8C83A74A006287CE853EC293
:10110000528502C0D5580148814793064D9A13066F
:101110000018050CEF202032C10A130A0A07938930
:101120000918E31ABCFD37530080814D374D00800C
:10113000B74A0080374A00801A8C1305C36D9305A7
:10114000E02EEF103005AA8993074D47130784F16D
:1011500093063031138684F393854A4A3335A000D1
:10116000E13A03A88900374E00809305CE4E33053F
:10117000B841EE8893074A4B130784F19306703108
:10118000138684F313351500EFF01F9B03A6490067
:1011900083A5C9003745008013054551EF00507104
:1011A000374E0080850D9D4772CC37530080E39603
:1011B000FDF81305C36D9305E02EEF10A07D374AAF
:1011C0000080B74A008093074A54130784F19306BE
:1011D0000032138684F393850A5713351500EFF018
:1011E000BF953745008013050558EF00706CB74573
:1011F00000804146938545D94810EF100014930DA7
:1012000041035A83014D9D49832743006A87CA855C
:101210003EC25E8502C0D5580148814793864C9AEC
:10122000130600181ACEEF200021724323A0AD0050
:10123000050D4103938B0B0713090918910DE31555
:101240003DFD856B5A898149014D9D4C938BEBABDC
:10125000939729009808BA9783A747FD6388A70F3B
:10126000DE851305CC6DEF10E072B7470080B745FF
:101270000080AA8D93874747130784F19306E034D3
:10128000138684F39385454A3335A000EFF0DF8A57
:1012900003A88D00E245B747008033050D419387D1
:1012A000474B93062035138684F39385C54E13353B
:1012B0001500EA88130784F1EFF01F8883A68D00DC
:1012C00003A64D0083A5CD00B74700801385075BBB
:1012D000EF00105E050D4109E31C9DF71385C9FF62
:1012E000B7470080B7450080130784F1138684F365
:1012F000CE889387C7619306B0351148938585657D
:1013000013351500EFF05F839305E02E1305CC6DC8
:10131000EF104068130784F12A44BA400A49F6598D
:10132000465BB65B265C965C065DF64D93074A54B9
:10133000138684F3665A9A4493850A57D65A9306BD
:10134000F0351335150049616FF00FFF0326490092
:101350008325C900B74700801385875EEA86EF00C2
:1013600030555A87814714476387A601850741078F
:10137000E39B97FFF5B598088A07BA9703A547FE40
:101380008509EF204029B9B7797122D437540080FC
:10139000130484521C404ECEB75900808507FD557A
:1013A0001385C95706D626D24AD052CC1CC0EF109E
:1013B0001071EF1050632A8AB7160080B76500805D
:1013C00037550080CD58014802C202C0814701470D
:1013D0009386E69513060020938505DC1305C55F0B
:1013E00023200400EF202005084037490080B7443F
:1013F0000080B7470080B7450080130789EE138649
:1014000084F393870701930680249385450413355D
:101410001500EFF06FF2EF10D04303280400B74738
:101420000080B7450080130789EE138684F33335B7
:10143000000193878706930620259385050AEFF020
:10144000AFEF03280400B7470080B74500801307BB
:1014500089EE138684F3132528009387070C9306DF
:1014600060259385850FEFF02FED8305EA00528507
:10147000FD15EF10B035EF10D03D0840B7470080A4
:10148000B74500807D15130789EE138684F3938595
:10149000456B133515009387871193060026EFF0EF
:1014A000AFE92254B25092540259624A1385C95787
:1014B000F249FD5545616F1090603755008041112C
:1014C0007D5681451305C55606C6EF107052376527
:1014D0000080814501461305C59FEF20C04E37555A
:1014E00000801305C56DEF104049B240B75500802C
:1014F00037550080938545391305C58E41016F002E
:10150000F07C411106C622C499476302F502EF1030
:10151000D0660DC1EF10706621E1B755008093854C
:1015200085B4375500801305C5B5EF007038EF005E
:10153000303AF5BFEF10506571FD37640080130439
:1015400084B80C44375500801305C5B7EF005036FA
:101550000844EF20400CE1BFB7550080938545B4A7
:10156000C9B75D71A2C4A6C286C69947AA842E8453
:1015700063E9A708375700809317250013070797DB
:10158000BA979C438287375500801305859CEF00EE
:101590003032EF1050457C40832804010328C400FA
:1015A0003ED83C40584014403ED65C5C3044AA854E
:1015B0003ED41C5C375500801305C5A43ED25C5850
:1015C0003ED01C583ECE5C543ECC1C543ECA5C50AF
:1015D0003EC81C503EC65C4C3EC41C4C3EC25C48DF
:1015E0003EC01C44EF00D02CA2852685193F3755FC
:1015F00000801305059F61BF375500801305C5A006
:1016000079B737550080A685130585A2EF00502ACB
:1016100049B7411122C406C62A847326203406061F
:101620000582954763E3C70237570080931726006A
:101630001307C798BA978C43375500801305C59A8E
:10164000EF001027A2850145293FB75500809385FB
:10165000459ADDB7411106C6F32520343755008081
:10166000860585811305C5C7EF009024B755008016
:10167000938545BA1145F535B75700809387C75212
:10168000984311CB03A3070023A00700B75700809E
:1016900003A5075302838280A147F3B7073037576A
:1016A00000802326A752375700802328B7527300A3
:1016B0000000A18BF3A707308280411106C6EF100E
:1016C0000008EF003023EF10A00C000017610000AD
:1016D000130141D7B7120000938202801691F13FA7
:1016E0006F00200C0000797122D426D24AD04ECE51
:1016F00006D6B689BD46AA842E8432896393D8065D
:10170000B7260080938686716392D906C256C68535
:101710002685114642C63EC43AC2EF10706EA247FB
:10172000930509FBA29523AE040423A00406C199E6
:101730009CD989671247324893870788FCC5B71739
:101740000080B25022549387076E23A43503D8D566
:1017500023AA0503BCC58CD402599254F2494561B1
:101760008280938608017946E372D6FA3756008064
:10177000B755008037550080E146130646CA938569
:10178000C5CD130505D846C2EF00901292483755D3
:101790000080C1563946C685130505DAEF005011A1
:1017A00001A04111AA872E85B285368606C682978A
:1017B000EF107023EF10306693971500AE971397D4
:1017C00027005C45BA970307B5006353B7009C43F5
:1017D0001357F6417D8B329715870A07BA979CC23B
:1017E0001375F60182800111740006CEF13732477D
:1017F00085473395A7001C43F240C98F1CC3056180
:1018000082800111740006CE453F324785473395EB
:10181000A7001C43F2401345F5FF7D8D08C3056109
:101820008280011126CA444122CC2A8403558500B6
:10183000A6854AC84EC652C456C25AC006CEEFE06C
:101840007FFB83290400834AA400FD572A8AAA99B2
:10185000A305F40001497D4B63415903814483573B
:10186000840063CFF404F2406244D2444249B24956
:10187000224A924A024B05618280A6855285EFF08A
:101880002F83131719004A979317270058443E9740
:10189000930747005CC31CC76349AB00A305240141
:1018A00089808D04F198050945BF7D059357F54161
:1018B000FD8BAA9795878A0723203701BE99CDB75C
:1018C0004C402685EFE01FF31C40268681453E955F
:1018D0005C4485041387470018C1984758C198474E
:1018E00008C388C7228501379DBF1D71A2CCCEC613
:1018F000DAC086CEA6CACAC8D2C4D6C25EDE62DC50
:1019000066DA6AD86ED68010034EA500FD5993178B
:101910002E00BD0793F7077F3301F1405C410A8B2E
:10192000DA888D07F19B2320FB008147938AF7FF1C
:1019300063D0C70391CB03A8C8FF135828000D0834
:101940001378C8FF23A0080103A808006379B80230
:10195000FD576397FA04232007005155130104FA39
:10196000F6406644D6444649B649264A964A064B4E
:10197000F25B625CD25C425DB25D256182800323D2
:10198000C500139817003E980A081A9813034800D8
:101990000328480063036800BE898507910879B76A
:1019A000E38BF9FA834705010149858B91C72149EA
:1019B000733909301379890093971900232AE4FABF
:1019C000CE9758458A079107BA97B68C232CC4FA4C
:1019D000AA847D5703AA07006383471393972900BE
:1019E00003274A00330DFB0083270A0083250D00DF
:1019F000A14D1CC3D8C388403305AA40EFE0DFEAFD
:101A00002A86CE852685F53B85091387F9FF634D28
:101A1000570383C70401858B99C373290930832732
:101A200084FB884023A057018A0A569B83250B001C
:101A30003305AA40EFE05FE7832744FB23A0AC0017
:101A4000014523A0470119BF884083250D00854B20
:101A50003305AA40EFE05FE593981900931725003E
:101A6000CE98232EF4FA8A0803274D00DE8523261C
:101A700014FB3A852328E4FAEFE0DFD78327C4FB81
:101A8000330CAA00CE853386FB002685A93B0327AD
:101A900004FB9040CC407D1703D584006297118FE2
:101AA0002328E4FAEFE01FD5032704FB8328C4FAB8
:101AB0006370A702D8444697130647002320CC0042
:101AC00010472322CC0010472320860123248701BE
:101AD000850B9147E39AFBF803C70401058B09E7DF
:101AE00001498509110D15B77329093003C7040190
:101AF000058B7DD773B90D3013798900DDB7FD19DA
:101B000093074AFFE398E9EC014A21B71D71A2CC83
:101B1000A6CAD2C486CECAC8CEC6D6C2DAC05EDED7
:101B200062DC66DA6AD86ED680100347A500AA8404
:101B30000A073D071377077F3301E14058410A8ABE
:101B4000D2860D07719B2320EA000545910663FBB1
:101B5000A50603C704012E8CB289058B014911C764
:101B600021497339093013798900114D13172C005D
:101B70005297832A070083AB04004E85D685EFE099
:101B80007FC7138BFAFFB30D6501AA9BCC4003D529
:101B90008400EFE03FC663EFAD0237560080B755D3
:101BA000008037550080130505D89306200A1306D8
:101BB00046DD938585E0ED2937550080130545E224
:101BC000C52901A003A7C6FF050509830D07719B61
:101BD00098C2ADBF4E86E2852685313113171C00B1
:101BE000629793162700D84436979306470023A0A0
:101BF000DB00144723A2DB00144723A07601232433
:101C0000770103C70401058B15EB814B5E896313D4
:101C10000C0483C70401858BF9E3130104FAF64031
:101C20006644D6444649B649264A964A064BF25B74
:101C3000625CD25C425DB25D2561828073290930AD
:101C400003C70401058B71D3A147F3BB073093FB96
:101C50008B006DBF9306C4FB4E86E2852685A93EA8
:101C60008326C4FB1357F5410D8B2A978842719B3D
:101C7000BD473357E5003D8BE31DF7F8814C93FDDD
:101C8000C9FF33869D013285D6852324C4FAEFE04F
:101C90007FB6B3066501AA8BCC4003D5840023260A
:101CA000D4FAEFE03FB58326C4FA032684FA63FD35
:101CB000A600E2852685B1369440B69B03A64B006C
:101CC00083A60B0014C2D0C2850CE39CACFB13D6D8
:101CD000F9410D8AB2997D1C93D9294041BDF3ABDE
:101CE0000B3025BF014582809C4185079CC1B757B9
:101CF000008003A3C74C0283397122DC4ED652D434
:101D00005AD06AC806DE26DA4AD856D25ECE62CCEF
:101D100066CA6EC6AA892E8A328D368B05446353F5
:101D2000E0003A848547930C00026314FB00930C97
:101D30000003B7D49A3B0549A94A014C9384F49F08
:101D4000894D938B140063140C0063F2A407DE85A5
:101D50006A85EFE0FFB5D285130505038299050971
:101D6000054CDE856A85EFE03FB92A8DA9452685B9
:101D7000EFE01FB4FD1A8547AA84E394FAFCD285EC
:101D800013050D0382998D4733042441630FFB0231
:101D9000F2506254D2544259B259225A925A025BBA
:101DA000F24B624CD24C424DB24D21618280E34AEB
:101DB00054FBE3E86DFBD28566858299050955B72A
:101DC000D2851305000282997D14E34B80FEC9B7CA
:101DD000B757008023A6A74C82805D71A2C4A6C21B
:101DE000CAC04EDE52DC56DA5AD866D26ECE86C6ED
:101DF0005ED662D46AD02A84AE84328BB68C014A15
:101E00007D598149814D854A03450B0005E1B64066
:101E1000264496440649F259625AD25A425BB25B52
:101E2000225C925C025DF24D61618280639A0D00DA
:101E3000930650026307D524A6850294050BE9B7E3
:101E400093064006630BD50E63EBA604930690033E
:101E500063E7A602930610036375D50C9306D002C0
:101E60006306D522930700036303F50A13075002A4
:101E7000631FE500A685130550020294E5A09306B2
:101E800080056303D512130730066304E51EA6859B
:101E9000130550020294A68503450B00F9BF930673
:101EA00000076309D50E63EFA6009306900663064C
:101EB000D5089306C0066300D50893068006E30F95
:101EC000D5F6F1B7930650076308D50A63EAA60270
:101ED00013073007E31DE5FA138C4C0083AC0C00AC
:101EE000E68B03C50B00631C05168D476398F9004C
:101EF000B38B9B41B30B794163477017E28C9DA074
:101F0000930680076302D50A9306A0074DBF635C62
:101F10000900638F0916130905FDE39109F2894948
:101F200031BFE34A09FE93162900369906091309C1
:101F300009FD2A99DDB7050A11B763C74A0303A64D
:101F40000C00910C635B0600A6851305D00232C419
:101F5000029422467D193306C0404A87CE86A68564
:101F60002285593B814DD9BD93877C0013F787FFAC
:101F7000930C87001043F9B763C64A0103A60C000F
:101F8000910CE1BF93877C0013F787FF930C8700C8
:101F90001043E1B7A685130500030294A685130537
:101FA000800702942149854963C34A0783A70C002F
:101FB000910C3EC42146014C014DA145A247938B93
:101FC000F5FF13952B0033D5A7003D8929ED930626
:101FD000000363140D006390550736956205A685CE
:101FE000618532C60294050C3246639B0B028D4616
:101FF000814DE395D9E413171900330C8741E3535E
:1020000080F7A6851305000202947D1CCDBF93873F
:102010007C0093F687FF9C42938C86003EC459BF98
:102020006E8DDE8561BFA54793067005E3E7A7FACD
:10203000930600035DB79307F6FF3EC66348C900E9
:1020400063985901A6851305000302943246D1BF57
:102050008947E39DF9FEA68513050002FDB7A68515
:10206000850B0294BDBDA685130500020294FD1BDD
:1020700061B503A50C00938B4C00A6850294DE8C01
:10208000D5B5014A7D598149854D4DBB8D497DB3FB
:1020900085496DB301112A8637250080AE86130568
:1020A00085CE6C0006CE02C60D3BF24005618280F3
:1020B00039712ED24C1006CE32D436D63AD83EDA0A
:1020C00042DC46DE2EC6F937F240216182808280F2
:1020D000A147F3A7073073005010828085473395DE
:1020E000A70073254530828085473395A700733557
:1020F00045308280A147F3B70730735040307350AA
:1021000040348280411122C426C23754008006C662
:10211000A947AA84130444536317F5000840B54542
:102120005C41DC438297084093F5F40F5C41DC434B
:102130008297B2402244268592444101828037250D
:1021400000801305451069B1375500804111130512
:1021500085E206C69D23B757008023AAA752C5373C
:10216000B240014541018280B70710F003A747F450
:1021700003A507F483A547F4E39AE5FE82800111E5
:1021800022CC06CE26CA4AC84EC652C42144733455
:102190000430B754008093848453F93703A90400B2
:1021A00003AA4400AA8733052541B3B7A700B38526
:1021B000454175661306064C81469D8DEFE04F86BE
:1021C000AA89F5659385054C4E85EFE0AFE22A9923
:1021D0003335A900529523A02401C8C02188732457
:1021E00004306244F240D2444249224A4E85B24908
:1021F00005616F10806B411106C6BD37F567938787
:10220000074C370710F0AA97FD562326D7F433B5AD
:10221000A7002E952324F7F42326A7F41D457D3D22
:10222000B240014541018280CDED011122CC06CEA4
:1022300026CA4AC84EC652C4FD572A846315F50003
:1022400025651304E5BCA144F3B40430313FA56710
:10225000AA899387E7BC1305F4FFA18863DFA7066B
:102260003E8575649305044CEFE0CFD8B7570080E6
:102270009387875303A9070003AA47009307F44BEA
:10228000B3872741CE973E959305044CEFE04FE28C
:102290009305044CEFE00FD6B3093941AA9993078F
:1022A000703E63C537011304044C2295B70710F044
:1022B0002A997D5723A6E7F43335A900529523A424
:1022C00027F523A6A7F4F3A40430F2406244D244D5
:1022D0004249B249224A05618280E35405F801452A
:1022E00049B78280411122C406C6214473340430A8
:1022F000A53DB757008083A78753F5659385054CA7
:102300001D8DEFE0EFDA218873240430B2402244BF
:1023100041018280411106C6813DB2404101828067
:102320008347050003C705006393E70081E7338512
:10233000E740828005058505E5B7B347B5008D8B7D
:1023400095CFAA8701476317E60482807DDE850565
:1023500003C7F5FF85077D16A38FE7FE13F7370048
:1023600075F78D463308E64063EC060113572600E7
:1023700093162700158EB697B695E9B7AA87F9BFC9
:10238000B388E50083A808003388E70011072320FD
:102390001801C9BF3388E50003480800B386E70089
:1023A00005072380060145B793F6F50FAA8713F7B3
:1023B00037001DEB93F5F50F13978500D98D139713
:1023C0000501D98D3383C7003E870D48B308E3402C
:1023D000636218031357260093152700AE970D8EDE
:1023E0003E96639DC70082807DDE8507A38FD7FE62
:1023F0007D1675BF1107232EB7FEC9BF8507A38FB2
:10240000D7FEC5B7411102C6B24785073EC6B7071A
:1024100001F08CC3410182807D558280014582801C
:10242000011122CC1C453754008026CA1304044DE8
:10243000B754008006CE4AC84EC6938404548549DA
:10244000232004002A8923A034018297832749008E
:1024500023203401829789471CC08327C9008297B3
:102460008D471CC0624423A00400F240D24442497C
:10247000B24937650080130585A205616F00905E43
:10248000376500804111B75700807D57130585A23D
:1024900006C623A0E754EF00F05CEF00D054B24032
:1024A00041016F104017376500804111B757008018
:1024B0007957130585A206C623A0E754EF00905A6A
:1024C000EF007052B24041016F10E0141D71A6CAB6
:1024D000B754008083A7445486CEA2CCCAC8CEC6C7
:1024E000D2C4D6C2DAC05EDE62DC66DA6AD86ED6E4
:1024F00063C90706376400800546AA892E8C130538
:1025000084A28145EF00D04E37550080CE8513055B
:10251000C5E5EFF0FFB937590080130549E7B75A11
:102520000080EFF0FFB893844454014A22CEB77C78
:102530000080376B0080372D0080B75D0080B75B6F
:102540000080938A0AE583274C009DEBCE856303C8
:102550000A0C37550080130545EEEFF07FB585472F
:102560009CC0F6406644D6444649B649264A964A37
:10257000064BF25B625CD25C425DB25D256182809B
:1025800083250C00B75700801385C7EBEFF05FB2CF
:1025900002C283270C0162871306004093E787007D
:1025A000FD58014893060D423EC093850CC48147F7
:1025B00013058BA3EF003068F247FD55138587A202
:1025C000EF00F04F93870D5413058BA38043EF105A
:1025D0008004B75700809387075498430504F95740
:1025E0001334140003260C006311F702B755008062
:1025F000938505ED13858BEDEFF09FAB130549E750
:10260000EFF01FAB229A510C3DBF93172400D697D1
:102610008C43CDB7375500801305C5EFEFF05FA9A8
:102620009C40B337F0002DBFB757008083A74754B5
:10263000411122C43755008006C637540080130567
:1026400045E791CFEFF0DFA6B7550080938585F180
:10265000130504F22244B24041016FF07FA5EFF070
:102660003FA5B7550080938585F3DDB7411106C6B8
:10267000EFE0BFE4B240410145BF13172500B75753
:10268000008005059387C7F40A0541113E97AA9774
:1026900022C426C20043844306C663679400B24046
:1026A00022449244410182801C402285DC4382976F
:1026B00019C1232204003104CDB74111B75700805E
:1026C00026C2B754008022C406C61384474E4AC0AF
:1026D0009387474E93844451631894002A893E841B
:1026E000631C9400014415A0584009C718401843C2
:1026F000630DA7003104CDB75C4099E33104CDB739
:102700001C404A858C43293975F92285B240224400
:102710009244024941018280411122C426C206C668
:1027200021448944F3370430EF00707E63C3A40072
:1027300005458545EF10E013EFF09F99E5B7375554
:102740000080B767008013068552938747BB3386A6
:10275000C74081451305855281B94111094506C617
:10276000293F37550080130585F6EFF07F940D451E
:102770002937EF007058DD3DB7670080938787B138
:1027800003C7C700799B2386E700B24041018280DE
:10279000357126CB0408130600078145268506CF30
:1027A00022CD4AC94EC7EFF03FC037640080B787DB
:1027B0000080930984B8938707C4014523A2F900D8
:1027C0006D3D05455D3D9307101023A49900231E20
:1027D000F100EF00207EB7570080938707F6376936
:1027E00000803EC2B72600808547B77500809304FD
:1027F00089B13EC001478147814801489386A6754B
:102800001306002093850504130589B123A09902BE
:10281000EF00304083C7D400130484B813F7B7FF28
:10282000A386E400ED8B81EB9850FD576315F7000C
:10283000130589B1C52EB74700809387C7383EC2BC
:10284000376500808547B7260080B7750080930400
:1028500085AA3EC0BD4801488147014793868671DD
:102860001306002093850524130585AAEF00703A0E
:1028700083C7D40044C42145ED9BA386F400B76709
:102880000080938707BA1CCC5CCC73350530218956
:10289000EFD01F948347D500FD8B91E71851FD576A
:1028A0006313F70041A68280797122D426D24AD0E0
:1028B0004ECE06D652CC2A842E89B28936C6A14481
:1028C000F3B4043021055121A188B24615C12A8AEA
:1028D000D13723260A06232A3A012685192C0145D9
:1028E000B250225492540259F249624A45618280A0
:1028F00085CA2145EF10A030AA875155F5D3054769
:1029000023A2370198C3984393763700631E0900CA
:102910001840558F98C358401CC061F35CC075BF08
:1029200023A00900CE87C5B703270900719B01EFDB
:1029300094C3544081E65CC01CC045B798420D8BDF
:102940005D8F98C2E1BF558F98C3032509000D899B
:10295000C98F2320F90051B7411122C406C62A8429
:1029600001C91C418D8B89C7404199C1EF10802856
:102970002285B240224441018280930785002320B2
:102980000500232205001CC55CC582802E864C41B3
:10299000814619BF411122C406C6AA872144733457
:1029A00004300841218815C11841D443719B98C354
:1029B0006313D500D8C385454537AA8773240430EF
:1029C000B24022443E85410182802E8689E57324EF
:1029D00004308147F5B79385870022851923814705
:1029E00065F1B767008083A707B9DC4BD1BF411100
:1029F00006C6EFF03F8FB757008083A7C754B24099
:102A0000376700803E95232CA7B881453E8541015C
:102A10006F00306621457335053021898280411170
:102A200022C437640080930784B826C2C45306C604
:102A300093874702130484B86383F40091E044440D
:102A40001C4405ED9DCB03C7D7007D8B1DE7945338
:102A50007D576394E60283D6E7001307F007637E91
:102A6000D700375700800327074E6388E7001CD044
:102A7000B240224492444101828063839700853FA3
:102A800004D0FDB7011106CE22CC26CA4AC84EC6D4
:102A9000AE84AA894137B7670080A9452A84138587
:102AA000990023AC07B8EFD03FE0B7570080375903
:102AB00000802326A95423A4975421880D3F732412
:102AC0000430F2406244D2444249B24905618280F6
:102AD000411122C406C62A84353FAA8708406313E1
:102AE000A4000145A18BF3A70730B2402244410165
:102AF0008280B7670080938787B894432A8799E6D6
:102B000094479C536384F6006FD08FEC218B73271E
:102B100007308280411122C437640080130484B8D6
:102B20001C4406C626C283C7F70085EB37560080D3
:102B3000B755008037550080130505D89306701DE2
:102B40001306460F93850512EFF08FD63755008098
:102B5000130545E2EFF0CFD501A01C4085CB3756D9
:102B60000080B755008037550080130505D89306BF
:102B7000801D1306460F9385450BEFF06FD3375535
:102B80000080130545E2EFF0AFD201A06135184493
:102B9000AA8405458347F700A1888507A307F700A6
:102BA000BD3DF3A404302145733505302244B240C5
:102BB00092442189410135BFB757008083A7074E52
:102BC0006395F50237560080B75500803755008071
:102BD00041119306D0211306460F93850505130571
:102BE00005D806C6EFF0CFCC01A01C416319F50053
:102BF0005C4188C1DCC15C418CC34CC18280EDDB8F
:102C00000387E5008386E7006358D700D8439CC15B
:102C1000D8C10CC3CCC382805441E38BD7FC9C4306
:102C2000F5F3F9B7411106C622C426C2AA84DD33E2
:102C30002A8437650080A6851305C5BAB53F83C7CA
:102C4000D4000145218893E70704A386F400C13B23
:102C500073240430B240224492444101828083476D
:102C6000D500FD8B91E71851FD576313F7005DBF49
:102C70008280B757008083A7074E6395F5023756C9
:102C80000080B75500803755008041119306C0225F
:102C90001306460F93850505130505D806C6EFF004
:102CA0002FC101A0D8419C411CC3D8C382804111CF
:102CB00022C426C22A8406C6B13BAA84084415E170
:102CC00037560080B75500803755008093061015A1
:102CD0001306460F93854506130505D8EFF04FBD43
:102CE00001A0A28579378347D400A188F59BA3066C
:102CF000F400F3A4043023240400B240224492449C
:102D000041018280411122C406C62A844D37130531
:102D100084012244B24041016F00901C832705FFCB
:102D2000411122C426C206C62A84930485FE99C393
:102D30002685B53F834754FFB2402685ED9BA30A05
:102D4000F4FE22449244410119BF4111814522C43D
:102D500006C6BD3B2A8411C5993F13058401EF00C7
:102D600030182285B24022444101828001114AC8B4
:102D700037690080130989B806CE22CC26CA4EC610
:102D80002A8493094902EFF0FFC8A285AA844E85E0
:102D9000CD35A2854E850D358347D40003258900A6
:102DA000A18893E70704018DA306F40013351500ED
:102DB000EFF0FFC6F3A40430F2406244D24442492B
:102DC000B24905618280B757008083A7C754B9CB49
:102DD000B7670080938787B898479306F007035634
:102DE000E70063E1C604B75600800306E70083A648
:102DF00086546349D602B756008083A6064E630305
:102E0000D7021053FD56631FD600944B634AD5007A
:102E100041113A8506C6993FB24041016FF03FBD6E
:102E2000898E94CB8280411122C426C22A8406C690
:102E30004AC0EFF03FBE8347D400AA8493F707044B
:102E400095C737690080130989B813054902A2851F
:102E50000D358347D4000325890093F7F7FB018DD7
:102E6000A306F40013351500EFF07FBBA188F3A48F
:102E70000430B2402244924402494101828041110F
:102E800022C426C22A844AC006C6AE843289613F63
:102E90008347D40093E72700A306F40091C404C439
:102EA000A2852685EFF05FD1FD576306F902A9459B
:102EB00013059900EFD05F9F1306150013058401D9
:102EC0002244B24092440249B73500809385C5D16F
:102ED00041016F00F00AB24022449244024941018C
:102EE00082804111B767008022C42A8403A507B9F4
:102EF00006C6713722852244B24041016FD04FADE2
:102F0000011122CC26CA4AC82A842E8906CE4EC672
:102F1000EFF05FB08347D4006209AA84FD8B135998
:102F20008941B9E71850FD576314F704B769008069
:102F30009389C9BAA2854E85EFF0BFD3A2854E858D
:102F400023072401EFF05FC70545EFF05FAD85472C
:102F5000A188F3A404308DC3214573350530624444
:102F6000F240D2444249B249218905616FF07FB8ED
:102F7000230724018147E9BFF2406244D244424919
:102F8000B24905618280411126C206C6AA8422C4C4
:102F9000014580406383840011E4B240224492449E
:102FA000410182802285EFF0FFD52285EFF03FCBF3
:102FB0000545C5B7B7670080938787B81387470271
:102FC000D8D398D7814501456FF0DFAB411106C6D4
:102FD00022C413870501F94763FDE7022E843756A3
:102FE0000080B7550080375500809306D02C13061B
:102FF000460F938585FB130505D8EFF06F8B37558A
:103000000080C1563946A285130505DAEFF04F8AD4
:1030100001A0B767008083A787B885CB37560080AB
:10302000B755008037550080130505D89306E02C6E
:103030001306460F9385450BEFF08F8737550080B9
:10304000130545E2EFF0CF8601A02244B2404101D2
:1030500045BD411122C437640080832784B806C669
:1030600026C24AC085CB37560080B75500803755F9
:103070000080130505D8930660301306460F93852C
:10308000450BEFF0EF8237550080130545E2EFF076
:103090002F8201A0130484B8B7570080184483A777
:1030A000074E6305F702EFF0FF960C441309440244
:1030B000AA844A85EFF0FFBB0C444A85A188EFF053
:1030C000BFAF0545EFF0BF95F3A4043018441C5082
:1030D000630DF7002145733505302244B240924418
:1030E0000249218941016FD0AF8EB24022449244FF
:1030F000024941018280797122D43764008013042F
:1031000084B81C4006D626D24AD04ECE85CB375640
:103110000080B755008037550080130505D8930609
:1031200040321306460F9385450BEFE07FF8375585
:103130000080130545E2EFE0BFF701A0FD576319DA
:10314000F50237560080B7550080375500801305CB
:1031500005D8930650321306460F938545FAEFE0E3
:103160003FF537550080130545E2EFE07FF401A0FD
:1031700019E92AC6F93D3245B250225492540259F7
:10318000F24945618280A9452505EFD0EFF1930909
:103190001500EF009000B384A9002149733909306C
:1031A0000844EFF05FC80844B73500804E86938529
:1031B000C5D16105F12313758900EFD06F81EF0050
:1031C000C07D898C0145E35990FA1306803E814603
:1031D000268593D5F441EFD02FE4130640068146AF
:1031E000EFD00F8451BFB767008003A507B9828075
:1031F000411106C605EA37560080B755008037559D
:103200000080130505D89306D00313068614938512
:103210004517EFE0FFE93755008013050518EFE08B
:103220003FE901A06379B60237560080B7550080A8
:1032300037550080130505D89306E003130686145E
:1032400093858519EFE0DFE6375500801305051BF0
:10325000EFE01FE601A0B2400CC550C508C148C14F
:1032600041018280411122C44AC006C626C22A8971
:103270002144733404302188EFF03FAD15C58347F6
:10328000D500AA84FD8B99E71851FD576314F70008
:10329000EFF05F9923A6040622852244B2409244AF
:1032A000024941016FF0FF84032789008327C90089
:1032B000998FB337F000BA972324F900F1BFB767AD
:1032C000008083A787B82E869DCB95C9375600808E
:1032D000B7550080375500804111130505D8930676
:1032E0003008130686149385851D06C6EFE05FDC63
:1032F00037550080130545E2EFE09FDB01A0A147B1
:10330000F3B707301845A18B19C77D1718C5F3A768
:1033100007300145828009E6F3A7073041558280D6
:10332000AA853E856FF0FFBB411122C426C206C6A6
:10333000AA8421442E8573340430A9452505EFD095
:10334000AFD6B7350080130615009385C5D1138518
:1033500084013D21218873240430B24022449244E8
:10336000410182808347D500FD8B99E71851FD57B5
:103370006314F7006FF01F8B8280B767008003A58E
:1033800087B83335A0008280B767008083A707B96C
:1033900003C5C700058982803726B700411113068F
:1033A00006B08146814506C622C426C2EFD0CFC6EC
:1033B00037460F00130606248146EFC07FE62A84B5
:1033C000EFE05FF5AA84EFE0FFF4058DE36D85FE85
:1033D000B2402244924441018280411122C406C677
:1033E0002144733404300347D50021889376470085
:1033F00099E673240430B2402244410182806D9BDF
:10340000A306E500853722852244B24041016FF0D2
:103410004FEE0111025322CC06CE1AC02A84EFE0EF
:103420008FACB767008083A707B9F240BC573CD484
:1034300062440561828037630080032383B80111F1
:1034400026CA06CE22CC9254630903023756008066
:10345000B755008037550080130505D89306801AAC
:103460001306C6209385450BEFE09FC437550080B7
:103470001305C523EFE0DFC301A0025302C22A8473
:103480001AC0413FFD576385F40089E82285B137B2
:103490002285F2406244D24405618280A68522855D
:1034A0006135FDB73C51411122C406C62A8491C33F
:1034B00082978347D40013F7F70115E314507D5723
:1034C000639FE6002285EFF01F968347D400B24049
:1034D00093E78700A306F400224441018280898B90
:1034E00081C72285EFF0AFFC1850FD57E30FF7FCC2
:1034F00013058401F522D1BF7971B75700804ECEF4
:10350000B759008022D426D206D64AD01384475118
:103510009384475193894951636E3403B7670080A0
:1035200003A787B821CF37560080B755008037559D
:103530000080130505D89306200F1306C607938550
:10354000450BEFE0FFB637550080130545E2EFE08D
:103550003FB601A05C543EC21C503EC05C4883286C
:10356000C401032884011848544410444C400840C6
:103570004D351C40E0CF1304040379BF938787B80F
:10358000984785468347F7006399D70237560080EE
:10359000B755008037550080130505D89306300FC6
:1035A0001306C6079385C50CEFE09FB03755008022
:1035B000130545E2EFE0DFAF01A0FD17A307F70019
:1035C000214973390930268413798900FD54636CCD
:1035D0003401732909302254B25092540259F249ED
:1035E00045616FF02FD34C5063869500084091E5FC
:1035F000EFF0BFDE13040403D9BFEFF0FFD2DDBF4D
:10360000FD572306D500A306C5002307B500A30771
:1036100005001CD18280411122C406C626C2214465
:10362000733404308347C500858B85CB37560080C3
:10363000B755008037550080130505D89306300232
:103640001306462693858529EFE09FA6375500800F
:103650001305C52CEFE0DFA501A0AA84EFF09FE4DD
:10366000B767008003A787B8218801CB7324043093
:10367000B2402244924441018280938787B89C479C
:10368000228563949700EFC0BFB42244B2409244B5
:1036900041016FF00FC6B757008083A7075599E324
:1036A0006FE05FC401458280214573350530218973
:1036B00082801C4199CF584109CFB756008083A61C
:1036C000864D6306D50094471045B29694C71CC337
:1036D000D8C3FD5723220500232005001CC5828086
:1036E000411122C426C206C6AA847D3F9844FD57D4
:1036F0002A847D556305F7002685653F01452188AD
:1037000073240430B2402244924441018280B7576E
:10371000008083C74755411122C406C626C24AC04D
:103720007D5489E7370400801344F4FFB53FB75751
:1037300000809387474D03A90700AA846300F9021C
:10374000630E090003248900B9373305A4400144FE
:1037500063460500032489003D3F098CA188F3A43A
:103760000430B767008083A787B981C763D3870018
:103770003E842285B2402244924402494101828023
:103780001C45011106CE22CC26CA63C90702375652
:103790000080B755008037550080130505D8930683
:1037A00030041306862E93858531EFE07F903755E0
:1037B0000080130545E2EFE0BF8F01A04CC532C683
:1037C0002A84DD35AA84EFF01FED32466343C00042
:1037D0000546B757008003A7474D2A9610C4938724
:1037E000474D6304F700CC4301EBD8431CC058C0DD
:1037F000D84300C3C0C3A9A0144763D906023756F3
:103800000080B755008037550080130505D8930612
:10381000C0041306862E93858532EFE07F893755E5
:103820000080130545E2EFE0BF8801A01044635B10
:10383000D602918E14C7544318C054C080C240C3EE
:1038400098436309F7006317E400EFF05FEC8145EC
:10385000EFE09F9DA188F3A40430F2406244D2447B
:1038600005618280B306D64014C4E380E5F81843AE
:10387000A5BF01112EC606CE22CC26CAAA84EFF01F
:10388000BFE22A84EFF0BFE8B24563D8A4008547C1
:1038900063D5A7002685EFE03F9921887324043083
:1038A000F2406244D24405618280011106CE22CCEE
:1038B00026CA2A844EC652C4B75900804AC8375A0D
:1038C0000080EFF04FD0B7540080EFF0FFDD130A17
:1038D0004A4D23A889549384845593890955032418
:1038E0000A0083A70900944003A8440013798500C7
:1038F0006308440111C4184463DEE7021D8F18C435
:10390000BE9613D7F7414297B3B7F600BA9794C063
:10391000DCC023A00900EFF09FDF8145EFE0DF90DE
:1039200073290930F2406244D2444249B249224AE2
:1039300005618280BA969355F74133B6E600C29589
:103940002E96998F23240400228594C0D0C023A0F2
:10395000F900EFF01FD6732909305C442285829765
:10396000EFF09FD4ADBF411106C622C4EFF0DFD304
:103970002A84EFE03F973757008013078755AA87BF
:1039800008434C4321883E95B337F500BE95732418
:103990000430B240224441018280411106C6E13721
:1039A000B24041018280411106C6753F1306803E38
:1039B0008146EFC07FE6130640068146EFC05F8672
:1039C000B24041018280930705011CC95CC9FD57C3
:1039D0000CCD50CD232205021CC523240502828074
:1039E000411122C426C237540080B754008006C655
:1039F000130444519384445163689400B2402244B8
:103A000092440145410182809307440122855CC8AC
:103A10001CCCEFD01FE17104C5B7B767008083A746
:103A200087B85D71A2C4A6C2CAC04EDE5AD886C687
:103A300052DC56DA5ED662D466D26AD06ECEAA89DD
:103A40002E89328B368481448DCBB9C237560080A3
:103A5000B755008037550080130505D893067003CD
:103A60001306863393858536EFE08FE43755008063
:103A7000130545E2EFE0CFE301A0635BD000EFF078
:103A80009FEEAA84A94513059400EFC0FFE1AA9414
:103A900037550080130545513385A940B775DBB60E
:103AA000938575DB0985EFC0FFD47D7A856A137C29
:103AB000F50FD55BD15C130AFA0FFD1A214D938DDA
:103AC00049014A8774003000DA854E85EFD0FFE166
:103AD000631C75014A8774003000DA854E85EFD08B
:103AE000DFE0631375015155A24723028901BD8BA5
:103AF0001397870083274900B3F74701D98F3247CF
:103B0000B3F757013207D98F2322F9000DC505C439
:103B10006313950373350D302286EE852189EFF00E
:103B20004FBCFD57E30FF4F8EFF0FFE33384A440FC
:103B3000E35904F85555B640264496440649F259CF
:103B4000625AD25A425BB25B225C925C025DF24DD9
:103B500061618280834705004111104122C41394A2
:103B600037004AC01D8C375900800A0493558600DF
:103B7000130949513182BD893305890026C206C621
:103B8000A144EFD0BFF8F3B40430130544014A95C3
:103B9000A188EFF04FBF11CDB767008083A787B82A
:103BA00089EB2244B24002492685924441016FE0EC
:103BB0005FF4F3A40430B24022449244024941012C
:103BC0008280138645006378B600014582800145F6
:103BD000F24005618280011181462C0006CEEFF093
:103BE000DFE375F5224511466C00EFE00FF5224545
:103BF0001105F9BF01C571156FF0DFF58280B76758
:103C0000008083A707B9AA85A85711C15DBF0145E8
:043C100082808280AC
:103C140000000000541600800000000054160080CC
:103C240000000000541600800000000054160080BC
:103C340000000000541600800000000054160080AC
:103C44000000000054160080000000007E21008067
:103C5400000000005416008000000000541600808C
:103C6400000000005416008000000000541600807C
:103C7400000000005416008000000000541600806C
:103C8400000000005416008000000000541600805C
:103C9400000000005416008000000000541600804C
:103CA400000000005416008000000000541600803C
:103CB400000000005416008000000000541600802C
:103CC400000000005416008000000000541600801C
:103CD400000000005416008000000000541600800C
:103CE40000000000541600800000000054160080FC
:103CF40000000000541600800000000054160080EC
:103D040000000000541600800000000054160080DB
:103D140000000000541600800000000054160080CB
:103D240000000000541600800000000054160080BB
:103D340000000000541600800000000054160080AB
:103D4400000000005416008000000000541600809B
:103D5400000000005416008000000000541600808B
:103D6400E84400804821008000000000304E0080BC
:103D7400F621008000000000284E00801C240080F2
:103D840000000000E8440080E039008000000000EA
:103D94000000000003000000040000000600000012
:103DA40000010202030303030404040404040404DE
:103DB40005050505050505050505050505050505AF
:103DC400060606060606060606060606060606068F
:103DD400060606060606060606060606060606067F
:103DE400070707070707070707070707070707075F
:103DF400070707070707070707070707070707074F
:103E0400070707070707070707070707070707073E
:103E1400070707070707070707070707070707072E
:103E2400080808080808080808080808080808080E
:103E340008080808080808080808080808080808FE
:103E440008080808080808080808080808080808EE
:103E540008080808080808080808080808080808DE
:103E640008080808080808080808080808080808CE
:103E740008080808080808080808080808080808BE
:103E840008080808080808080808080808080808AE
:103E9400080808080808080808080808080808089E
:103EA4005F746573745F6B65726E656C5F696E7465
:103EB4006572727570747300746573745F6B657288
:103EC4006E656C5F6374785F74687265616400002A
:103ED4005F746573745F6B65726E656C5F74687232
:103EE400656164006B5F7969656C645F656E7472AB
:103EF400790000007468726561645F736C65657055
:103F040000000000746573745F627573795F776194
:103F140069740000746573745F6B5F736C656570BE
:103F240000000000746573745F6B5F7969656C648D
:103F3400000000002F686F6D652F6D69616F752F2C
:103F440070726F2F72697363762F7A6570687972F5
:103F54002F74657374732F6B65726E656C2F636F4A
:103F64006E746578742F7372632F6D61696E2E633E
:103F7400000000000A2020202041737365727469D8
:103F84006F6E206661696C65642061742025733AE4
:103F940025643A2025733A2025730A005468726513
:103FA400616420627573792077616974696E672032
:103FB400666F722025642075736563730A000000C0
:103FC40054687265616420627573792077616974DD
:103FD400696E6720636F6D706C657465640A0000B8
:103FE40020746872656164202871206F7264657240
:103FF4003A2025642C20742F6F3A202564292069E7
:10400400732072756E6E696E670A000048656C7085
:1040140065722063726561746564206174206869E7
:1040240067686572207072696F7269747920726151
:104034006E207072656D61747572656C792E000006
:10404400287468726561645F65766964656E63652A
:10405400206E6F7420657175616C20746F20302937
:10406400000000006B5F7969656C6428292064692D
:1040740064206E6F74207969656C6420746F2061AC
:1040840020686967686572207072696F72697479F3
:10409400207468726561643A20256400287468722B
:1040A4006561645F65766964656E636520657175D5
:1040B400616C20746F203029000000006B5F796907
:1040C400656C64282920646964206E6F74207969A2
:1040D400656C6420746F20616E20657175616C205D
:1040E4007072696F72697479207468726561643A78
:1040F4002025640028287468726561645F657669A8
:1041040064656E6365203E203129206973207472D2
:10411400756529006B5F7969656C64282920796964
:10412400656C64656420746F2061206C6F776572C0
:10413400207072696F726974792074687265616441
:1041440000000000746872656164206964206D6118
:10415400746368657320706172656E74207468722C
:1041640065616400282873656C665F7468726561B4
:10417400645F696420213D205F7468726561645FD7
:104184006964292069732066616C736529000000E5
:104194005468726561642049442074616B656E20C3
:1041A400647572696E672049535220213D20636112
:1041B4006C6C696E6720746872656164000000004D
:1041C40028286973725F696E666F2E6572726F72EA
:1041D400207C7C20286973725F696E666F2E64612F
:1041E400746120213D2028766F6964202A29736533
:1041F4006C665F7468726561645F6964292920690B
:1042040073207472756529006B5F69735F696E5FF3
:104214006973722829207768656E2063616C6C6508
:10422400642066726F6D20616E2049535220697359
:104234002066616C7365000028286973725F696E7B
:10424400666F2E6572726F72207C7C20286973728F
:104254005F696E666F2E76616C756520213D204B1B
:104264005F495352292920697320747275652900A6
:104274006B5F69735F696E5F697372282920776861
:10428400656E2063616C6C65642066726F6D20617D
:1042940020746872656164206973207472756500A6
:1042A400746872656164206973206E6F7420612084
:1042B400636F6F7065726174697665207468726586
:1042C4006164000028285F63757272656E742D3E08
:1042D400626173652E7072696F203E3D2030292023
:1042E4006973207472756529000000007465737425
:1042F4005F6B65726E656C5F696E74657272757002
:1043040074730000746573745F6B65726E656C5FC3
:1043140074696D65725F696E7465727275707473B9
:1043240000000000746573745F6B65726E656C5F8A
:104334006374785F74687265616400007465737493
:104344005F627573795F7761697400007465737473
:104354005F6B5F736C656570000000007465737457
:104364005F6B65726E656C5F6370755F69646C65C5
:104374005F61746F6D696300746573745F6B6572FC
:104384006E656C5F6370755F69646C650000000046
:10439400746573745F6B5F7969656C640000000019
:1043A400746573745F6B65726E656C5F7468726557
:1043B40061640000202A2A2A2074687265616420DE
:1043C40074696D6564206F75742077616974696EB2
:1043D4006720666F72206B5F627573795F776169BE
:1043E40074282900287276206973207472756529EF
:1043F40000000000202A2A2A207468726561642063
:1044040074696D6564206F75742077616974696E71
:104414006720666F7220746872656164206F6E2015
:104424006B5F736C65657028292E000028727620F6
:104434006E6F7420657175616C20746F2030290073
:1044440054657374696E67206B5F74687265616428
:104454005F637265617465282920776974686F7574
:10446400742063616E63656C6C6174696F6E0A00BD
:10447400202A2A2A2074696D656F7574207768690B
:104484006C652077616974696E6720666F72206459
:10449400656C61796564207468726561640000000C
:1044A4002864617461206973204E554C4C290000C6
:1044B400202A2A2A2077726F6E672064656C6179DE
:1044C4006564207468726561642072616E20286777
:1044D4006F742025642C206578706563746564208E
:1044E4002564290A0000000028646174612D3E746B
:1044F400696D656F75745F6F72646572206E6F7439
:1045040020657175616C20746F20692900000000BA
:1045140020676F7420746872656164202871206F4D
:10452400726465723A2025642C20742F6F3A20251A
:1045340064292061732065787065637465640A007A
:10454400202A2A2A20676F7420736F6D6574686946
:104554006E6720756E657870656374656420696E36
:1045640020746865206669666F00000028646174C1
:104574006120697320747275652900005465737431
:10458400696E67206B5F7468726561645F637265EE
:10459400617465282920776974682063616E636596
:1045A4006C6C6174696F6E730A00000020676F742D
:1045B400202871206F726465723A2025642C20745F
:1045C4002F6F3A2025642C20742F6F206F7264653E
:1045D4007220256429206173206578706563746591
:1045E400640A00002063616E63656C6C696E672009
:1045F4005B71206F726465723A2025642C20742FDD
:104604006F3A2025642C20742F6F206F72646572BA
:104614003A2025645D0A0000202A2A2A2077726F36
:104624006E67206E756D626572206F662063616EC1
:1046340063656C6C6174696F6E732028657870654E
:10464400637465642025642C20676F742025640AD4
:1046540000000000286E756D5F63616E63656C6CAD
:104664006174696F6E73206E6F7420657175616C0F
:1046740020746F206E6578745F63616E63656C6C23
:104684006174696F6E290000546872656164206406
:104694006964206E6F742065786563757465206144
:1046A40073206578706563746564213A202564001D
:1046B400287468726561645F65766964656E6365B4
:1046C400206E6F7420657175616C20746F203129C0
:1046D4000000000054657374696E67206B5F637536
:1046E4007272656E745F67657428292066726F6DD7
:1046F40020616E2049535220616E64207468726593
:1047040061640A0049535220646574656374656486
:1047140020616E206572726F7200000028697372E6
:104724005F696E666F2E6572726F72206973207492
:10473400727565290000000049535220636F6E743E
:10474400657874204944206D69736D6174636800F1
:10475400286973725F696E666F2E64617461206E7E
:104764006F7420657175616C20746F2028766F6991
:1047740064202A2973656C665F7468726561645F7E
:104784006964290054657374696E67206B5F69738B
:104794005F696E5F69737228292066726F6D20618C
:1047A4006E204953520A00006973725F696E666F26
:1047B4002E76616C756520776173206E6F74204B63
:1047C4005F49535200000000286973725F696E6686
:1047D4006F2E76616C7565206E6F742065717561DE
:1047E4006C20746F204B5F495352290054657374D5
:1047F400696E67206B5F69735F696E5F69737228A6
:10480400292066726F6D206120707265656D707409
:1048140069626C65207468726561640A0000000056
:1048240053686F756C64206E6F7420626520696EC6
:104834002049535220636F6E746578740000000041
:10484400286B5F69735F696E5F69737228292069D9
:10485400732074727565290043757272656E7420D5
:104864007468726561642073686F756C6420686134
:10487400766520707265656D707469626C65207010
:1048840072696F726974793A20256400285F6375D0
:104894007272656E742D3E626173652E7072696FFB
:1048A400203C203020697320747275652900000053
:1048B4007469636B206469646E2774206164766133
:1048C4006E63652061732065787065637465640048
:1048D400287469636B20657175616C20746F207432
:1048E40069636B3229000000636F6E74657874002D
:1048F4002074687265616420736C656570696E67A5
:1049040020666F72202564206D696C6C6973656321
:104914006F6E64730A00000020746872656164201D
:104924006261636B2066726F6D20736C6565700ADB
:10493400000000004641494C000000002573202D72
:104944002025734025642E200000000074696D65E5
:104954007374616D70206F7574206F662072616E60
:1049640067652C20676F742025640A009215008007
:1049740002160080021600808615008092150080C1
:10498400EE150080F8150080F44B0080144C008074
:10499400304C0080444C0080504C0080684C0080B7
:1049A400756E6B6E6F776E00457863657074696FB2
:1049B4006E20636175736520257320282564290A98
:1049C400000000002A2A2A2A204B65726E656C209A
:1049D400416C6C6F636174696F6E204661696C75BC
:1049E400726521202A2A2A2A0A0000002A2A2A2A51
:1049F4002A204B65726E656C204F4F505321202A3C
:104A04002A2A2A2A0A0000002A2A2A2A2A204B654E
:104A1400726E656C2050616E696321202A2A2A2AED
:104A24002A0A00002A2A2A2A20556E6B6E6F776E96
:104A340020466174616C204572726F722025642176
:104A4400202A2A2A2A0A000043757272656E74208D
:104A5400746872656164204944203D2025700A46CB
:104A640061756C74696E6720696E737472756374B2
:104A7400696F6E2061646472657373203D203078C1
:104A840025780A202072613A203078257820206722
:104A9400703A2030782578202074703A20307825B8
:104AA40078202074303A20307825780A2020743118
:104AB4003A2030782578202074323A2030782578CE
:104AC400202074333A2030782578202074343A201A
:104AD400307825780A202074353A203078257820DB
:104AE4002074363A2030782578202061303A2030FE
:104AF400782578202061313A20307825780A2020E2
:104B040061323A2030782578202061333A20307899
:104B14002578202061343A203078257820206135AA
:104B24003A20307825780A202061363A20307825DA
:104B340078202061373A20307825780A0000000078
:104B440049535200657373656E7469616C207468AF
:104B54007265616400000000466174616C206661E6
:104B6400756C7420696E20257321205370696E6EF4
:104B7400696E672E2E2E0A00466174616C20666190
:104B8400756C7420696E2074687265616420257088
:104B9400212041626F7274696E672E0A0000000062
:104BA400ADBAADDEADBAADDEADBAADDEADBAADDE39
:104BB400ADBAADDEADBAADDEADBAADDEADBAADDE29
:104BC400ADBAADDEADBAADDEADBAADDEADBAADDE19
:104BD400ADBAADDEADBAADDEADBAADDEADBAADDE09
:104BE400ADBAADDEADBAADDEADBAADDEADBAADDEF9
:104BF400496E737472756374696F6E206164647254
:104C0400657373206D6973616C69676E6564000018
:104C1400496E737472756374696F6E204163636562
:104C24007373206661756C7400000000496C6C65D8
:104C340067616C20696E737472756374696F6E005A
:104C4400427265616B706F696E7400004C6F6164D1
:104C54002061646472657373206D6973616C696744
:104C64006E6564004C6F61642061636365737320D7
:104C74006661756C7400000053707572696F7573AA
:104C840020696E74657272757074206465746563EE
:104C940074656421204952513A2025640A000000B9
:104CA4002F686F6D652F6D69616F752F70726F2F2F
:104CB40072697363762F7A65706879722F61726393
:104CC400682F726973637633322F636F72652F7442
:104CD40068726561642E6300282828287072696FE1
:104CE400726974792929203D3D20313520262620FA
:104CF4005F69735F69646C655F7468726561642879
:104D0400287468726561645F66756E632929292059
:104D14007C7C20285F69735F7072696F5F68696764
:104D24006865725F6F725F657175616C28282870A1
:104D340072696F7269747929292C20283135202DE4
:104D440020312929202626205F69735F7072696FDC
:104D54005F6C6F7765725F6F725F657175616C28E8
:104D640028287072696F7269747929292C2028287F
:104D74002D313629292929290000000041535345A2
:104D84005254494F4E204641494C205B25735D20C7
:104D9400402025733A25640A0000000009696E76F4
:104DA400616C6964207072696F7269747920282556
:104DB40064293B20616C6C6F7765642072616E6757
:104DC400653A20256420746F2025640A00000000E1
:104DD4002F686F6D652F6D69616F752F70726F2FFE
:104DE40072697363762F7A65706879722F6C696261
:104DF4002F6D656D706F6F6C2F6D656D706F6F6C5F
:104E04002E630000626C6F636B5F66697473287055
:104E14002C20626C6F636B2C206C737A2900000069
:104E2400090A000075617274300000007379735FC1
:104E3400636C6F636B0000001824008004240080FE
:104E4400000000000000000000000000444F00804B
:104E540038490080D04E008052756E6E696E6720AE
:104E6400746573742073756974652025730A000072
:104E74003D3D3D3D3D3D3D3D3D3D3D3D3D3D3D3D5E
:104E84003D3D3D3D3D3D3D3D3D3D3D3D3D3D3D3D4E
:104E94003D3D3D3D3D3D3D3D3D3D3D3D3D3D3D3D3E
:104EA4003D3D3D3D3D3D3D3D3D3D3D3D3D3D3D3D2E
:104EB4003D3D3D0A000000007374617274696E67C1
:104EC4002074657374202D2025730A00534B4950B8
:104ED400000000002573202D2025730A0000000027
:104EE4005465737420737569746520257320666135
:104EF400696C65642E0A00005465737420737569C7
:104F04007465202573207375636365656465640A3D
:104F1400000000004641494C4544000050524F4AAD
:104F240045435420455845435554494F4E20257315
:104F34000A0000005355434345535346554C000063
:104F44005041535300000000E45400800855008091
:104F54001455008014550080145500806D61696EED
:104F6400000000002A2A2A2A2A20426F6F74696EE0
:104F740067205A6570687972204F53207A6570688B
:104F840079722D76312E31332E302D333032302D4F
:104F94006733376633373434202A2A2A2A2A0A0008
:104FA4006475726174696F6E20213D20282D31294A
:104FB40000000000282828287072696F2929203DE4
:104FC4003D203135202626205F69735F69646C6556
:104FD4005F74687265616428282828766F69642084
:104FE4002A293029292929207C7C20285F69735F9C
:104FF4007072696F5F6869676865725F6F725F6519
:105004007175616C2828287072696F29292C2028F1
:105014003135202D20312929202626205F69735F10
:105024007072696F5F6C6F7765725F6F725F6571C5
:1050340075616C2828287072696F29292C2028280A
:105044002D3136292929292900000000215F69739F
:105054005F69646C65287468726561642900000086
:105064007468726561642D3E626173652E70656E4D
:105074006465645F6F6E00002F686F6D652F6D69E6
:10508400616F752F70726F2F72697363762F7A65F3
:10509400706879722F6B65726E656C2F696E636CC4
:1050A4007564652F6B73636865642E680000000087
:1050B40021285F6B65726E656C2E6E657374656412
:1050C40020213D20305529005F6B65726E656C2E82
:1050D40063757272656E742D3E626173652E7363BF
:1050E4006865645F6C6F636B656420213D203100EB
:1050F4002F686F6D652F6D69616F752F70726F2FDB
:1051040072697363762F7A65706879722F6B657232
:105114006E656C2F73636865642E63005F6B6572E4
:105124006E656C2E63757272656E742D3E6261736A
:10513400652E73636865645F6C6F636B65642021BF
:105144003D2030002F686F6D652F6D69616F752F7D
:1051540070726F2F72697363762F7A6570687972D3
:105164002F6B65726E656C2F73656D2E6300000086
:105174006C696D697420213D20305500096C696D9E
:1051840069742063616E6E6F74206265207A657243
:105194006F0A0000696E697469616C5F636F756E94
:1051A40074203C3D206C696D6974000009636F755F
:1051B4006E742063616E6E6F742062652067726521
:1051C40061746572207468616E206C696D69740A1B
:1051D400000000002828285F6B65726E656C2E6ED7
:1051E400657374656420213D20305529203D3D20A0
:1051F4003029207C7C202874696D656F7574203D8E
:105204003D203029290000002F686F6D652F6D69DE
:10521400616F752F70726F2F72697363762F7A6561
:10522400706879722F6B65726E656C2F7468726525
:1052340061642E6300000000095468726561647340
:10524400206D6179206E6F742062652063726561E0
:1052540074656420696E20495352730A000000008B
:105264002F686F6D652F6D69616F752F70726F2F69
:1052740072697363762F7A65706879722F6B6572C1
:105284006E656C2F7468726561645F61626F7274BD
:105294002E630000287468726561642D3E62617338
:1052A400652E757365725F6F7074696F6E732026F7
:1052B40020282831554C203C3C20283029292929F4
:1052C400203D3D203000000009657373656E7469EC
:1052D400616C207468726561642061626F727465C8
:1052E400640A00002F686F6D652F6D69616F752FFB
:1052F40070726F2F72697363762F7A657068797232
:105304002F6B65726E656C2F74696D656F75742E85
:1053140063000000746F2D3E647469636B73203CFA
:1053240020300000742D3E647469636B73203E3D2D
:10533400203000002F686F6D652F6D69616F752FC8
:1053440070726F2F72697363762F7A6570687972E1
:105354002F6B65726E656C2F6D656D706F6F6C2E43
:10536400630000002128285F6B65726E656C2E6EE9
:10537400657374656420213D20305529202626203C
:1053840074696D656F757420213D2030290000001B
:10539400F0420080DE0C00805C0900805C09008023
:1053A4000000000008430080E00C00805C090080DD
:1053B4005C0900800000000028430080840B00800A
:1053C4005C0900805C09008000000000404300800C
:1053D400260F00805C0900805C090080000000004A
:1053E40050430080401000805C0900805C0900800C
:1053F4000000000060430080B40D00805C09008060
:105404005C090080000000007C430080A00900804B
:105414005C0900805C090080000000009443008067
:10542400940F00805C0900805C090080000000008B
:10543400A4430080B80D00805C0900805C090080F2
:105444000000000000000000000000000000000058
:10545400000000000000000000000000E80300005D
:10546400020000000000000000000000DC05000055
:10547400040000000100000000000000F40100002E
:10548400000000000200000000000000EE02000026
:10549400010000000300000000000000D606000028
:1054A400050000000400000000000000D007000018
:1054B400060000000500000000000000E2040000F7
:1054C4000300000006000000E41C0080030000004C
:1054D400D4540080D4540080F5FFFFFFA85A008004
:1054E400883D008000000000000000007C3D00803A
:1054F4003C4E008000000000643D0080000000007D
:1055040000000000703D008000000000000000006A
:1055140014550080145500800000000000000000B5
:045524000F00000074
:040000058000000077
:00000001FF
