:0200000480007A
:100000009702000093820201739052306F105007E4
:10001000130101FB2320110023223100232441007E
:100020002326510023286100232A7100232CC101BB
:10003000232ED1012320E1032322F1032324A10253
:100040002326B1022328C102232AD102232CE10254
:10005000232EF1022320010523221105F32210345F
:1000600023245104F322003023265104EF00001F03
:1000700013030000631E0502F3222034B70300803F
:100080009383F3FFB3F272001303B000638A62003C
:100090001305010097000000938040136F10C0719A
:1000A0008322810493824200232451046F000009BB
:1000B00093020100976300009383438603A14300EA
:1000C000130101FF2320510003AE0300130E1E0095
:1000D00023A0C30163080300970000009380C003BE
:1000E0006F10407673252034B70200809382F2FFB0
:1000F00033755500EF0080159742000093828225EA
:1001000013153500B382A20003A5020003A3420029
:10011000E7000300176300001303438083230300F9
:100120009383F3FF232073008322010013810200D5
:1001300083238300032E030263087E089752000086
:100140009382C27D03A38200232683022328930285
:10015000232A2303232C3303232E43032320530575
:10016000232263052324730523268305232893056F
:10017000232AA305232CB30523242302975300002D
:100180009383C34203AE03002326C30703A30202E3
:1001900023A46200032183020324C30283240303F4
:1001A0000329430383298303032AC303832A030404
:1001B000032B4304832B8304032CC304832C0305E8
:1001C000032D4305832D830583228104739012340C
:1001D0008322C104739002308320010083214100F7
:1001E000032281008322C1000323010183234101F3
:1001F000032E8101832EC101032F0102832F4102AF
:10020000032581028325C1020326010383264103BE
:10021000032781038327C1030328010483284104A2
:100220001301010573002030730000009752000095
:100230009382C26E03A382008323C30613758500D5
:10024000F3220530138503006780000013031000BC
:10025000B312A30073B3423467800000F32220344A
:1002600037030080B3F262001305000063840200CC
:08027000130515006780000072
:10027800938705001308060013870600130305007B
:1002880063960628974800009388482463F6C50EAD
:10029800370701006378E60C1307F00F3337C70000
:1002A80013173700B356E600B388D80083C6080092
:1002B8003387E60093060002B386E640638C0600A7
:1002C800B397D7003357E5003318D600B365F70066
:1002D8003313D5001355080133F7A5021316080187
:1002E8001356060193560301B3D5A5021317070148
:1002F800B366D700B307B6021387050063FEF6009E
:10030800B38606011387F5FF63E8060163F6F60076
:100318001387E5FFB3860601B386F640B3F7A60256
:100328001313030113530301B3D6A60293970701CE
:1003380033E36700B305D60213850600637CB30078
:10034800330368001385F6FF636603016374B30023
:100358001385E6FF131707013367A700930500000D
:100368006F00400EB706000113070001E36CD6F2D8
:10037800130780016FF01FF3631606009306100041
:1003880033D8C602B70601006372D80C9306F00F83
:1003980063F4060113078000B356E800B388D80059
:1003A80083C60800B386E600130700023307D74068
:1003B8006318070AB387074193051000135608010D
:1003C8009318080193D808019356030133F7C7021D
:1003D800B3D7C70213170701B366D7003385F802EE
:1003E8001387070063FEA600B38606011387F7FF8D
:1003F80063E8060163F6A6001387E7FFB3860601E4
:10040800B386A640B3F7C6021313030113530301BF
:10041800B3D6C6029397070133E36700B388D802BF
:1004280013850600637C1301330368001385F6FF08
:1004380063660301637413011385E6FF131707014D
:100448003367A7001305070067800000B70600019F
:1004580013070001E362D8F4130780016FF0DFF39C
:100468003318E800B3D5D7003313E500B356D500E9
:1004780013550801B397E70033F7A502B3E8F60070
:100488009317080193D7070113D60801B3D5A5021E
:10049800131707013367C700B386B7021386050031
:1004A800637ED700330707011386F5FF63680701EA
:1004B8006376D7001386E5FF33070701B306D740F5
:1004C80033F7A6029398080193D80801B3D6A60279
:1004D80013170701B385D702B367170113870600FF
:1004E80063FEB700B38707011387F6FF63E80701C8
:1004F80063F6B7001387E6FFB3870701B387B740F2
:1005080093150601B3E5E5006FF05FEB63E6D518D8
:100518003707010063F4E6041308F00F3337D800F7
:100528001317370033D8E60097450000938505FA7E
:10053800B385050103C80500930500023308E800E8
:10054800B38505416396050213071000E3ECF6EE48
:100558003335C500134715006FF0DFEEB70500010E
:1005680013070001E3E0B6FC130780016FF09FFB5F
:1005780033570601B396B600B366D70093DE06017B
:1005880033D70701B378D703B397B70033580501BA
:100598003363F8009397060193D7070113580301B3
:1005A8003316B6003357D7039398080133E8080188
:1005B800338FE702130E0700637EE8013308D80083
:1005C800130EF7FF6368D8006376E801130EE7FFA0
:1005D8003308D8003308E841B378D8033358D80330
:1005E80093980801B38E07039317030193D7070164
:1005F800B3E7F8001307080063FED701B387D700F5
:100608001307F8FF63E8D70063F6D7011307E8FF7D
:10061800B387D700131E0E01B387D741B70E010069
:100628003367EE001388FEFF337307019358070101
:100638003378060113560601330E03033388080383
:1006480093560E013303C30233030301B3866600D6
:10065800B388C80263F40601B388D80113D606012B
:10066800B308160163E61703E39A17CFB70701002B
:100678009387F7FFB3F6F60093960601337EFE00E4
:100688003315B500B386C60193050000E37CD5DABF
:100698001307F7FF6FF09FCC9305000013070000C6
:1006A8006FF05FDA67800000B7570080938787761E
:1006B80023A0070023A2070067800000B757008027
:1006C8009387877603A747001307170023A2E7003D
:1006D80067800000B75700809387877603A70700D5
:1006E8001307170023A0E70067800000B7570080B2
:1006F8009387C7606306F506B757008093878763BB
:100708006304F506B7570080938747666302F506CA
:10071800B7570080938707696300F506B7570080CD
:100728009387C76B631CF50293074000B756008098
:100738009397270037570080938646B3B386F60011
:100748001307477A3307F70083A606008327850235
:10075800B387D74093B717002320F70067800000BE
:10076800930700006FF09FFC930710006FF01FFCC9
:10077800930720006FF09FFB930730006FF01FFB7B
:10078800130101FF23261100EF30803E9307803EBE
:10079800B315F50213064006930600003305F5026B
:1007A800EFF01FAD8320C100130101016780000035
:1007B800130101FD232E1100232401032326110315
:1007C8006316050413860600374500809306070064
:1007D80013870500B7450080930781029385C56D8F
:1007E800130545722326F100EF10500D8325C10033
:1007F80037550080130505BBEF10500937550080A9
:100808001305C54CEF10900BEF1010578320C10152
:100818001301010367800000130101FD23248102F5
:1008280023202103232C4101232A5101375400801E
:1008380037590080374A0080B75A00802322910236
:10084800232E310123286101232671012326110259
:1008580093040000130484B4130949B3B749008012
:10086800130B0A00938B0A00B3079400330799000F
:1008780083A7070003270700B75500809306501D7C
:1008880023A4E7021386C96D93870ABB13074A6C32
:10089800938545AF13051000EFF09FF19384440052
:1008A80093074001E392F4FC930420031309C01258
:1008B8000325040093850400130600009384240391
:1008C800EF30500013044400E39424FF1305C012D2
:1008D800EF20D023375500801305C560EF30100A8C
:1008E8003755008013058563EF3050093755008070
:1008F80013054566EF3090083755008013050569E4
:10090800EF30D00737550080375400801305C56B8A
:100918001304447AEF309006930444013759008059
:100928000325040093870BBB13074B6C9306301EFB
:100938001386C96D930549B113044400EFF05FE7CE
:10094800E39084FE8320C1020324810283244102B0
:10095800032901028329C101032A8101832A410154
:10096800032B0101832BC1001301010367800000E1
:10097800130101FF2324810023261100130405001D
:10098800EF30500A930710006302F50413050400C2
:10099800EF30C07E13050400EF30D0081305F5FFD3
:1009A800B75700803747008037460080B74500803A
:1009B800938707BB1307075E9306B0041306C66D3B
:1009C8009385057B13351500EFF09FDE13050400B2
:1009D800EFF01FDB9307100363E2A704130504007D
:1009E800EF30C07913050400EFF09FD913352503C4
:1009F800B75700803747008037460080B7450080EA
:100A0800938707BB1307075E9306D0041306C66DCA
:100A18009385857D13451500EFF09FD9B757008062
:100A280003A787769307300063DCE700130504000B
:100A3800032481008320C100130101016F30007479
:100A48008320C10003248100130101016780000095
:100A5800130101FF2324810023261100130405003C
:100A6800EFF01FD26306050413050400EF30007190
:100A780013050400EFF0DFD0032481008320C100B8
:100A8800B75700803747008037460080B755008049
:100A9800938707BB1307075F9306C0051306C66D48
:100AA8009385458013351500130101016FF05FD060
:100AB8008320C10003248100130101016780000025
:100AC800130101FF2326110023248100EFF0DFBD6D
:100AD8003754008037160080B7150080130686A5A6
:100AE8009385859713058477EF30405B13058477EA
:100AF8001306200393054006EF30C05C1305847786
:100B0800EF3040726300050413058477EF30006707
:100B180013058477EF300071B7570080374700809E
:100B280037460080B7550080938707BB13070766D1
:100B38009306F0111306C66D9385459F133515006E
:100B4800EFF01FC713058477EFF09FC393071003D7
:100B580063E2A70413058477EF30406213058477B6
:100B6800EFF01FC213352503B757008037470080C1
:100B780037460080B7550080938707BB1307076681
:100B8800930610121306C66D938505A2134515002A
:100B9800EFF01FC213058477032481008320C1006E
:100BA800130101016F30805D130101FF232611003D
:100BB80023248100EFF05FAF375400801306000054
:100BC8009305000013058477EF30404D130620038A
:100BD8009305400613058477EF30C04E373504007F
:100BE80013058523EF20902913058477EF30806360
:100BF800930740006302F50413058477EF3000582B
:100C080013058477EF3000621305C5FFB7570080DE
:100C18003747008037460080B7550080938707BB69
:100C2800130787679306E0131306C66D938545A5DA
:100C380013351500EFF0DFB713058477032481001F
:100C48008320C100130101016F304053130101FDDE
:100C58002326110223248102232291022320210327
:100C6800232E3101232C4101232A5101232861011C
:100C78002326710123248101232291012320A1012C
:100C8800EFF09FA23754008037060080B715008028
:100C98001306466C9385454613058477EF3000406C
:100CA800130620039305400613058477EF3080412F
:100CB80093040000B75A008037490080B759008074
:100CC800374A0080B75B0080130B1000375C008048
:100CD800B75C008083A78A76138D8A76638897022B
:100CE80013058477EF30804903250D00938709BBEE
:100CF80013078969330595409306C0151306CA6D15
:100D080093850BA813351500EFF09FAA1305847778
:100D1800EF304053630A650313058477EF300046CC
:100D280013058477EF3000521305F5FF938709BB4D
:100D3800130789699306E0151306CA6D93050CAA73
:100D480013351500EFF0DFA683270D0093841400F8
:100D58006388970213058477EF30404203250D001E
:100D6800938709BB130789693305954093060016D5
:100D78001306CA6D9385CCAC13351500EFF05FA34D
:100D880093074000E398F4F4130584770324810261
:100D98008320C10283244102032901028329C1015E
:100DA800032A8101832A4101032B0101832BC100FE
:100DB800032C8100832C4100032D01001301010342
:100DC8006F30C03B130101FF23261100232481004B
:100DD800232291002320210137540080EFF0DF8C7B
:100DE80013062003930540061305045EEF30802D9B
:100DF800B7540080EF30001B138984762324A900A0
:100E080037F50400130585582326B900EF2010078D
:100E18000327090093074000938484766300F7044E
:100E28001305045EEF30803503A50400B757008032
:100E3800374700801305C5FF37460080B755008047
:100E4800938707BB1307076B9306F0171306C66D46
:100E58009385C59313351500EFF09F9503A74400BC
:100E6800930710006300F7041305045EEF300031A8
:100E780003A54400B7570080374700801305F5FFE6
:100E880037460080B7550080938707BB1307076B69
:100E9800930600181306C66D9385C595133515007E
:100EA800EFF01F911305045EEF30402DEFF0CFFFF8
:100EB80013062003930540061305045EEF308020D7
:100EC80037C5000013050535EF20407B13062003C6
:100ED800930540061305045EEF30C01EEF30800C0A
:100EE80023A4A40037F504001305855823A6B400ED
:100EF800EF20C07803A70400930740006300F704BD
:100F08001305045EEF30802703A50400B75700805F
:100F1800374700801305C5FF37460080B755008066
:100F2800938707BB1307076B930630191306C66D23
:100F38009385C59313351500EFF09F8703A74400E9
:100F4800930710006300F7041305045EEF300023D5
:100F580003A54400B7570080374700801305F5FF05
:100F680037460080B7550080938707BB1307076B88
:100F7800930640191306C66D9385C595133515005C
:100F8800EFF01F831305045E032481008320C10052
:100F98008324410003290100130101016F30001E61
:100FA800130101FF2326110023248100232291002D
:100FB800EFF08FEF37540080370600801306466C39
:100FC8009305000013058477EF30400D13062003C6
:100FD8009305400613058477EF30C00E37F50400FB
:100FE80013058558EF20806913058477B75400806E
:100FF800EF30C01883A7847693848476638E0702C3
:1010080013058477EF30801703A50400B7570080D5
:101018003747008037460080B7550080938707BB65
:101028001307C7629306F00B1306C66D9385C59127
:1010380013351500EFF0CFF703A74400930710000E
:101048006300F70413058477EF30401303A54400C9
:10105800B7570080374700801305F5FF37460080F3
:10106800B7550080938707BB1307C7629306100C18
:101078001306C66D9385C59513351500EFF04FF32C
:1010880013058477032481008320C1008324410051
:10109800130101016F30800E130101FF2326110097
:1010A800232481002322910023202101EFF0CFDFA8
:1010B80037540080B7050080130600009385C56D7E
:1010C80013058477EF20907D1306000093054006F2
:1010D80013058477EF20107FB7540080EF20906CC1
:1010E800138984762324A90037950100130585A860
:1010F8002326B900EF208058032709009307100022
:10110800938484766300F70413058477EF3000072F
:1011180003A50400B7570080374700801305F5FF83
:1011280037460080B7550080938707BB1307876150
:101138009306F0091306C66D9385C59713351500F8
:10114800EFF00FE783A74400638E07021305847747
:10115800EF30C00203A54400B7570080374700802E
:1011680037460080B7550080938707BB1307876110
:101178009306000A1306C66D9385C59913351500A5
:10118800EFF00FE313058477032481008320C10067
:101198008324410003290100130101016F20107EFF
:1011A800130101FF2326110023248100232291002B
:1011B80023202101EFF04FCF3754008037060080FD
:1011C800B71500801306466C93854546130584774A
:1011D800EF20D06C1306200393054006130584778F
:1011E800EF20506EB7540080EF20D05B13898476CF
:1011F8002324A90037F50400130585582326B900D0
:10120800EF20C047032709009307400093848476A2
:101218006300F70413058477EF20507603A50400D4
:10122800B7570080374700801305C5FF3746008051
:10123800B7550080938707BB1307C75F9306F0076E
:101248001306C66D9385C59313351500EFF04FD679
:1012580003A74400930710006300F704130584777D
:10126800EF20D07103A54400B757008037470080AE
:101278001305F5FF37460080B7550080938707BBF5
:101288001307C75F930600081306C66D9385C595B7
:1012980013351500EFF0CFD11305847703248100AF
:1012A8008320C100832441000329010013010101A7
:1012B8006F20D06C130101FD232481023754008074
:1012C80013058473130600009305000023261102FA
:1012D8002322910223202103232E3101232C4101B3
:1012E800232A510123286101232671012324810126
:1012F80023229101EF20905A130610009305000055
:1013080013058473EF20105C13058473EF2090732A
:1013180013058473EF20906637540080EFF0CFB840
:10132800130600009305000013058477EF2010577B
:10133800130620039305000013058477EF209058C7
:1013480013058477EF201070EF20D045B754008044
:101358009387847623A4A70023A6B7001309400027
:101368009384847693091000B74A0080375B008025
:10137800B74B0080375C0080130AE0FCB75C008044
:1013880013058477EF20106C630A350313058477FF
:10139800EF20D05E13058477EF20D06A1305F5FFA0
:1013A80093070BBB13878A649306C00F1386CB6D14
:1013B80093050CAA13351500EFF08FBFEF20903E70
:1013C80083A7840003A7C40023A4A400B307FA409A
:1013D800B336FA001347F7FF3307D740B307F500D2
:1013E80023A6B40033B5A700B385E5003305B500DF
:1013F8006314050063F4F90213058477EF2010588D
:1014080093070BBB13878A64930630101386CB6D42
:101418009385CC9B13050000EFF08FB91309F9FFF2
:10142800E31009F613058477032481028320C1029F
:1014380083244102032901028329C101032A81016E
:10144800832A4101032B0101832BC100032C810056
:10145800832C4100130101036F205052130101FF37
:1014680023248100375400801307847683270700DC
:101478002322910023261100938717002320F700C9
:10148800130710009304050013048476639AE70C8D
:10149800EF205031032784008327C4002324A400AD
:1014A8003307E540B336E500B387F540B387D74047
:1014B8002326B400634EF0066396070093073006B0
:1014C80063E8E70613850400EF20504BEF20902DCA
:1014D800832684008327C4002324A400B306D540B0
:1014E8003337D500B387F540B387E7402326B400E8
:1014F8003747008013051000634AF0006396070021
:101508009307300663E4D70013050000B75700803F
:1015180037460080B7450080938707BB1307075DF0
:10152800930630031306C66D9385C574EFF04FA874
:10153800EF205027032704002324A4002326B40007
:101548009307300063DEE70A032481008320C1008B
:101558001385040083244100130101016F20104208
:10156800EF205024032784008327C4002324A400E9
:101578003307E540B336E500B387F540B387D74076
:101588002326B400E346F0FA639607009307100396
:10159800E3E0E7FA13850400EF20503EEF209020A7
:1015A800832684008327C4002324A400B306D540DF
:1015B8003337D500B387F540B387E7402326B40017
:1015C8003747008013051000634AF0006396070050
:1015D8009307100363E4D70013050000B757008092
:1015E80037460080B7450080938707BB1307075D20
:1015F800930650031306C66D938505786FF01FF3A5
:101608008320C100032481008324410013010101C8
:1016180067800000B7550080375500809385054DD9
:10162800130505916F005078130101FF232611005F
:1016380023248100930760006304F502EF20C001B2
:1016480063040502EF20400163160504B7550080C6
:10165800938545D337550080130585D4EF001026B0
:10166800EF00D0296FF0DFFFEF200000E31C05FC3E
:1016780037640080130484918325840037550080E3
:10168800130585D6EF00902303258400EF2040370B
:101698006FF01FFDB7550080938505D36FF09FFB52
:1016A800130101FB2324810423229104232611041E
:1016B80093076000930405001384050063E0A70EF8
:1016C80037570080931725001307C7B5B387E7007E
:1016D80083A707006780070037550080130545BBBF
:1016E800EF00D01DEF109055832744048328040190
:1016F8000328C4002328F102832704040327440095
:10170800832604002326F1028327C40303268404C6
:10171800930505002324F1028327840337550080AD
:10172800130585C32322F102832744032320F102F2
:1017380083270403232EF1008327C402232CF100FE
:1017480083278402232AF100832744022328F100F7
:10175800832704022326F1008327C4012324F100F0
:10176800832784012322F100832744012320F100E9
:1017780083278400EF009014930504001385040068
:10178800EFF09FEA375500801305C5BD6FF05FF590
:1017980037550080130585BF6FF09FF437550080DB
:1017A80093850400130545C1EF0050116FF09FF3B6
:1017B800130101FF232481002326110013040500CF
:1017C800732620341316160013561600930750007C
:1017D80063E8C7023757008093172600130787B7B7
:1017E800B307F70083A5070037550080130585B9AF
:1017F800EF00D00C9305040013050000EFF05FEA3A
:10180800B7550080938505B96FF01FFE130101FFDE
:1018180023261100F32520343755008093951500B1
:1018280093D51500130585E6EF005009B7550080DC
:10183800938505D913054000EFF09FE6B757008060
:101848009387077003A70700630C070003A307002B
:1018580023A00700B757008003A54770670003005F
:1018680067800000130101FF23261100EF10C00B51
:10187800EF00D00AEF100012175100001301018D7C
:10188800B71200009382028033015100EFF09FFDF0
:101898006F008011130101FD23248102232291028C
:1018A80023202103232E31012326110293890600C8
:1018B8009306F0009304050013840500130906003D
:1018C800639CD808B73600809386868F639CD908B6
:1018D800832601039385080013850400130640003E
:1018E800232601012324F1002322E100EF20800FA9
:1018F80083278100930509FBB305B40023AE0404D4
:1019080023A0040693F505FF23A8F502B7270000D6
:10191800032741000328C1009387078823A6F504FD
:10192800B72700808320C102032481029387878917
:1019380023A4350323A6E50223AA050323A4F5045B
:1019480023A4B40203290102832441028329C1018B
:101958001301010367800000938608011306E00164
:10196800E378D6F637560080B755008037550080A3
:1019780093068001130606E9938585EC1305C5F6E1
:1019880023221101EF00807383284100375500801E
:10199800930600FF1306E000938508001305C5F8B9
:1019A800EF00C0716F000000130101FF93070500ED
:1019B80013850500930506001386060023261100EB
:1019C800E7800700EF109027EF2080039307C000FF
:1019D8003387F5028327C500B387E7000307B500FF
:1019E8006354B70083A70700130700023347E602D2
:1019F8001375F60113172700B387E70023A0F60035
:101A080067800000130101FE9306C100232E110018
:101A1800EFF0DFFB0327C100930710003395A70001
:101A2800832707008320C101B3E7A7002320F7001D
:101A380013010102678000008327450003588500D1
:101A4800130101FF232481003308F8021304050061
:101A5800032505008348A4001307F0FF232611007F
:101A680023229100A305E400930500001303C0009E
:101A780033050501130EF001930E000263C215032E
:101A8800930400008357840063C4F4068320C100D4
:101A980003248100832441001301010167800000B1
:101AA8003357F8020326C400B3866502B306D6008E
:101AB8001386460023A2C60023A4C600634EEE0088
:101AC800A305B40093D727009387370093F7C7FF80
:101AD800938515006FF09FFA1307F7013347D70373
:101AE80023A0A600131727003305E5006FF09FFD1C
:101AF8008327440013860400930500003387F4020B
:101B0800832704001305040093841400B387E700B7
:101B18000327C4009306470023A0D7008326870025
:101B280023A2D7008326870023A0F6002324F700EA
:101B3800EFF05FED6FF01FF5130500006780000000
:101B480083A705009387170023A0F500B7570080E7
:101B580003A3875967000300130101FB23248104B1
:101B6800232E3103232C4103232A51032328610305
:101B780023261104232291042320210523267103FF
:101B880023248103232291032320A103232EB101BF
:101B9800130A0500938A050093090600138B0600B3
:101BA800130410006354E0001304070093071000A7
:101BB800130C00026314FB00130C0003B7D49A3B08
:101BC80013091000930CA000130700009384F49FDE
:101BD800930D2000130DA000938B140063140700CD
:101BE80063F2340933D5790393850A001309190080
:101BF80013050503E7000A0013071000938CFCFF88
:101C080093071000B3F97903B3D4A403E396FCFC5B
:101C180093850A0013850903E7000A00930730003B
:101C280033042441630AFB068320C104032481048E
:101C380083244104032901048329C103032A81035E
:101C4800832A4103032B0103832BC102032C810246
:101C5800832C4102032D0102832DC10113010105CB
:101C680067800000E34C94F9E3EA6DF993850A0074
:101C780013050C002326E100E7000A0013091900E8
:101C88000327C1006FF09FF793850A001305000230
:101C9800E7000A001304F4FFE34880FE6FF0DFF862
:101CA800B757008023ACA75867800000130101FBD9
:101CB800232481042322910423202105232E310388
:101CC800232C4103232A5103232861032322910350
:101CD800232EB10123261104232671032324810313
:101CE8002320A1031304050093840500130B0600A9
:101CF800938C0600130A00001309F0FF93090000F3
:101D0800930D0000930A100003450B0063100504AF
:101D18008320C1040324810483244104032901048A
:101D28008329C103032A8103832A4103032B010367
:101D3800832BC102032C8102832C4102032D010253
:101D4800832DC1011301010567800000639E0D000A
:101D580093065002630AD53093850400E700040017
:101D6800130B1B006FF05FFA93064006630ED51045
:101D780063E2A6069306900363EAA602930610039D
:101D88006374D50E9306D002630AD52E9307000319
:101D98006300F50C130750026312E50293850400F3
:101DA80013055002E70004006F0000129306800537
:101DB800630CD51613073006630CE52893850400D9
:101DC80013055002E70004009385040003450B0047
:101DD8006FF05FFD930600076308D51263E0A60263
:101DE800930690066302D50A9306C006630AD508CF
:101DF80093068006E306D5F66FF05FFC930650075E
:101E08006302D50E63EEA60213073007E318E5FA5E
:101E1800138C4C0083AC0C00938B0C0003C50B0097
:101E280063160520930730006398F900B38B9B4134
:101E3800B30B794163447021930C0C006F00C00808
:101E4800930680076302D50E9306A0076FF09FFAEA
:101E5800635E090063880922130905FDE39209F00E
:101E6800930920006FF0DFEFE34809FE9306A00016
:101E78003309D902130909FD330925016FF01FFE43
:101E8800130A1A006FF0DFED63C44A0503A60C00BD
:101E9800938C4C0063500602938504001305D0020E
:101EA8002324C100E7000400032681001309F9FF79
:101EB8003306C04013070900938609009385040080
:101EC80013050400EFF05FC9930D00006FF05FE9A0
:101ED80093877C0013F787FF930C8700032607007E
:101EE8006FF05FFB63C84A0103A60C00938C4C009B
:101EF8006FF05FFC93877C0013F787FF930C8700D4
:101F0800032607006FF01FFB9385040013050003E9
:101F1800E70004009385040013058007E700040028
:101F2800130980009309100063CA4A0983A70C00AB
:101F3800938C4C002324F10013068000130C00003E
:101F4800130D00009305800083278100938BF5FF14
:101F580013952B0033D5A7001375F50063120508F8
:101F68009306000363140D00639655093385A60094
:101F78001315850193850400135585412326C10057
:101F8800E7000400130C1C000326C10063940B0433
:101F980093063000930D0000E394D9DC1317190061
:101FA800330C8741E35280F3938504001305000244
:101FB800E7000400130CFCFF6FF0DFFE93877C0042
:101FC80093F687FF83A70600938C86002324F100ED
:101FD8006FF09FF6138D0D0093850B006FF0DFF601
:101FE8009307900093067005E3E2A7F893060003B1
:101FF8006FF0DFF79307F6FF2326F100634AC90065
:10200800639C59019385040013050003E70004004D
:102018000326C1006FF05FFC93072000E39AF9FEE6
:1020280093850400130500026FF05FFE938504009A
:10203800938B1B00E70004006FF05FDE93850400BC
:1020480013050002E7000400938BFBFF6FF09FDE8F
:1020580003A50C00938B4C0093850400E700040053
:10206800938C0B006FF05FE6130A00001309F0FF72
:1020780093090000930D10006FF09FCE9309300074
:102088006FF01FCE930910006FF09FCD130101FE72
:10209800130605003725008093860500130585B4CF
:1020A8009305C100232E110023260100EFF01FC065
:1020B8008320C1011301010267800000130101FCA4
:1020C8002322B10293054102232E11002324C102C9
:1020D8002326D1022328E102232AF102232C01031B
:1020E800232E11032326B100EFF05FFA8320C101EC
:1020F80013010104678000006780000093078000D7
:10210800F3A7073073005010678000009307100092
:102118003395A7007325453067800000930780003A
:10212800F3B7073073504030735040346780000075
:10213800130101FF232481002322910037540080DA
:10214800232611009307A00093040500130484704C
:10215800631CF500032504009305D0008327450080
:1021680083A74700E78007000325040093F5F40FD1
:102178008327450083A74700E78007008320C10025
:102188000324810013850400832441001301010105
:102198006780000037250080130585136FF05FB056
:1021A80037550080130101FF130505FC2326110094
:1021B800EF00406AB757008023A4A770EFF09FFD97
:1021C8008320C1001305000013010101678000008E
:1021D800B70710F003A747F403A507F483A547F44E
:1021E800E39AE5FE67800000130101FE232C8100BD
:1021F800232E1100232A91002328210123263101AF
:102208001304800073340430B7540080938404713D
:10221800EFF01FFC03A9040083A94400130705007D
:10222800330525413337A700B385354137D601003B
:102238001306064C93060000B385E540EFE04F8394
:10224800B7D701009387074CB387A702137484009C
:1022580033892701B337F900B387370123A0240155
:1022680023A2F40073240430032481018320C101D4
:1022780083244101032901018329C10013010102BB
:102288006F10503B130101FF23261100EFF05FF49C
:10229800B7D701009387074C370710F0B307F5004D
:1022A8009306F0FF2326D7F433B5A7003305B5000E
:1022B8002324F7F42326A7F413057000EFF01FE595
:1022C8008320C1001305000013010101678000008D
:1022D800639C050C130101FF2324810023261100B0
:1022E800232291009307F0FF130405006316F500FD
:1022F800B79700001384E7BC93048000F3B404305C
:10230800EFF01FED379700009307F4FF1307E7BCC2
:1023180093F484006354F7089307070037D7010044
:102328009305074CB386B702B757008093870771A8
:1023380003A6070003A847009307F74BB387C740D6
:10234800B387A7003305A6401307703EB387D700AD
:10235800B3D7B702B387B7023305F5006344A700C4
:10236800B387B700370710F03386C7009306F0FF2E
:102378002326D7F4B337F600B38707012324C7F41D
:102388002326F7F4F3A404308320C100032481003A
:10239800832441001301010167800000E3D007F89E
:1023A800930700006FF09FF767800000130101FF9B
:1023B8002324810023261100130480007334043081
:1023C800EFF01FE1B757008083A7077113748400EB
:1023D8003305F540B7D701009387074C3355F5020D
:1023E800732404308320C1000324810013010101F8
:1023F80067800000130101FF23261100EFF05FDD65
:102408008320C10013010101678000008347050094
:1024180003C705006394E700639607003385E74028
:102428006780000013051500938515006FF01FFEE7
:1024380093F6F50F9307050013F7370063180704A1
:1024480093F5F50F13978500B365B700139705014A
:10245800B365B7003383C70013870700130830003C
:10246800B308E340636E180313572600931527003B
:10247800B387B7009305C0FF3307B7023307C70018
:102488003387E7006394E70267800000E30E06FEE7
:1024980093871700A38FD7FE1306F6FF6FF0DFF9B7
:1024A80013074700232EB7FE6FF09FFB9387170093
:1024B800A38FD7FE6FF01FFD130101FF2326010034
:1024C8008327C100938717002326F100B70701F07F
:1024D80023A0B70013010101678000001305F0FF76
:1024E800678000001305000067800000130101FEEB
:1024F800232C81008327850037540080232A9100EC
:102508001304C459B7540080232E11002328210135
:102518002326310193848471930910002320040039
:102528001309050023A03401E78007008327490029
:1025380023203401E7800700930720002320F400BC
:102548008327C900E7800700930730002320F400A1
:102558000324810123A004008320C10183244101B5
:10256800032901018329C100375500801305857BA4
:10257800130101026F00107637550080130101FF27
:10258800B75700801307F0FF1305857B232611003A
:1025980023ACE770EF001074EF00506A8320C1008D
:1025A800130101016F10C045130101FA232A910498
:1025B800B754008083A7C471232E1104232C8104EF
:1025C80023282105232631052324410523225105EB
:1025D80023206105232E7103232C8103232A9103D1
:1025E8002328A1032326B10363C4070837540080B6
:1025F8001306100093090500138C05001305847B4E
:1026080093050000EF00506437550080938509005A
:10261800130545FFEFF09FAA375900801305C9003D
:10262800B75A0080EFF09FA99384C471130A000081
:10263800232E8100B76C0080375B0080372D008027
:10264800B75D0080B75B0080938A8AFE83274C00C1
:10265800639E07049385090063060A1037550080B6
:102668001305C507EFF09FA59307100023A0F400FA
:102678008320C1050324810583244105032901051D
:102688008329C104032A8104832A4104032B0104FA
:10269800832BC103032C8103832C4103032D0103E6
:1026A800832DC102130101066780000083250C00F9
:1026B800B757008013854705EFF05FA0232201007C
:1026C80083270C0113070C001306004093E78700CB
:1026D8009308F0FF1308000093064D4F2320F100E4
:1026E80093850C959307000013058B7CEF10000869
:1026F8008327C1019305F0FF1385877BEF001066E0
:1027080093878D7113058B7C03A40700EF10402F6E
:10271800B75700809387877103A707001304140035
:102728009307E0FF1334140003260C006314F70228
:10273800B75500809385850613850B07EFF01F9822
:102748001305C900EFF09F97330A8A00130C4C0158
:102758006FF0DFEF93172400B387FA0083A5070013
:102768006FF09FFD3755008013054509EFF01F9561
:1027780083A70400B337F0006FF05FEFB75700800E
:1027880083A7C771130101FF2324810037550080F7
:1027980023261100375400801305C5006382070201
:1027A800EFF0DF91B75500809385050B1305840B77
:1027B800032481008320C100130101016FF01F90E1
:1027C800EFF0DF8FB75500809385050D6FF01FFE82
:1027D800130101FF23261100EFE0DFE38320C1008E
:1027E800130101016FF09FF913172500B7570080F7
:1027F800130515009387C70E13152500130101FF54
:102808003387E700B387A7002324810023229100A0
:102818000324070083A4070023261100636C940097
:102828008320C10003248100832441001301010196
:1028380067800000832704001305040083A747006E
:10284800E780070063040500232204001304C40082
:102858006FF0DFFC130101FFB757008023229100BE
:10286800B754008023248100232611001384075BBA
:10287800232021019387075B9384045E631C9400E3
:10288800130905001384070063149402130400005D
:102898006F0040040327440063080700032704006F
:1028A800032707006308A7021304C4006FF01FFD85
:1028B80083274400639607001304C4006FF0DFFC0D
:1028C800832704001305090083A50700EFF01FB450
:1028D800E31405FE130504008320C10003248100CE
:1028E80083244100032901001301010167800000CE
:1028F800130101FF232481002322910023261100C4
:102908001304800093042000F3370430EF10402EA6
:1029180063C4A4001305100093051000EF10004CC9
:10292800EFF0CFFD6FF05FFE37550080B76700808E
:1029380013060570938747943386C74093050000B4
:10294800130505706FF0DFAE130101FF13052000BA
:1029580023261100EFF05FE93755008013050511B4
:10296800EFF0CFF513053000EFF01FE8EF0010721D
:10297800EFF01FE6B76700809387878A03C7C70011
:102988001377E7FF2386E7008320C10013010101C5
:1029980067800000130101F6232A910893040101BE
:1029A800130600079305000013850400232E110861
:1029B800232C81082328210923263109EFF05FA75A
:1029C80037640080B77700809309849193870795CF
:1029D8001305000023A2F900EFF01FE11305100012
:1029E800EFF09FE09307101023A49900231EF10035
:1029F800EF00D001B7570080938707103769008030
:102A08002322F100B736008093071000B7650080D5
:102A18009304898A2320F10013070000930700001C
:102A280093080000130800009386069513060020FB
:102A3800938505D51305898A23A09902EF00504F85
:102A480083C7D4001304849113F7B7FFA386E40067
:102A580093F7B701639C070003A704029307F0FFED
:102A68006316F7001305898AEF000039B75700800D
:102A7800938787102322F1003765008093071000A1
:102A8800B7360080B7650080930485832320F10062
:102A98009308F000130800009307000013070000D4
:102AA8009386868F13060020938505F51305858385
:102AB800EF00104883C7D400232694001305800034
:102AC80093F7B7FFA386F400B7670080938707934F
:102AD800232CF400232EF40073350530137585007C
:102AE800EFD00FF4130101FF23261100EFF01F8C24
:102AF800B757008083A747728320C10037670080DB
:102B08003385A7002324A7929305000013850700A7
:102B1800130101016F10802C1305800073350530F7
:102B28001375850067800000130101FF23248100CD
:102B380037640080930784912322910083A447027D
:102B48002326110093874702130484916384F400B9
:102B5800639404008324C400832784006318050455
:102B68006386070403C7D7001377F70163100704C8
:102B780083A607021307F0FF639AE60283D6E700ED
:102B88001307F0076374D702375700800327C75A23
:102B9800638EE7002320F4028320C1000324810010
:102BA80083244100130101016780000063849700BA
:102BB800EFF05FF3232094026FF01FFE130101FE74
:102BC800232E1100232C81002326B10013040500B5
:102BD800EFF09FF4B767008023A4079213049400D2
:102BE8009307A0003344F4028325C100B75700803F
:102BF8002324A10023A28772B757008023A0B772AD
:102C0800EFF05FEE0325810013758500732505300D
:102C18008320C101032481011301010267800000A0
:102C2800130101FF2324810023261100130405004A
:102C3800EFF09FEE93070500032504006314A4003A
:102C48001305000093F78700F3A707308320C1001E
:102C5800032481001301010167800000B767008029
:102C68009387879183A6070013070500639A0600D8
:102C780083A6870083A707026384F6006FD04FDA24
:102C8800137787007327073067800000130101FF5F
:102C980023248100376400801304849183278400EF
:102CA800232611002322910083C7F700639A0702A5
:102CB80037560080B7550080375500801305C5F694
:102CC8009306701D1306862093854523EFF00FBFEA
:102CD800375500801305C51DEFF04FBE6F0000008B
:102CE80083270400638A070237560080B75500809F
:102CF800375500801305C5F69306801D13068620F8
:102D08009385451CEFF08FBB375500801305C51D13
:102D1800EFF0CFBA6F000000EFF01FE00327840048
:102D280093040500130510008347F70093F484000B
:102D380093871700A307F700EFF01FDFF3A4043011
:102D48001305800073350530032481008320C100FA
:102D58008324410013758500130101016FF01FF0F2
:102D6800B757008083A7C75A6398F5023756008083
:102D7800B755008037550080130101FF9306D02115
:102D880013068620938505161305C5F6232611001C
:102D9800EFF0CFB26F000000832705006310F50243
:102DA8008327450023A0A50023A2F500832745001B
:102DB80023A0B7002322B50067800000E38207FE46
:102DC8000387E5008386E700635ED70003A7470013
:102DD80023A0F50023A2E5002320B70023A2B70013
:102DE8006780000083264500E38CD7FA83A7070095
:102DF800E39A07FC6FF0DFFA130101FF23261100A5
:102E0800232481002322910093040500EFF0DFD0F2
:102E18001304050037650080938504001305C593E6
:102E2800EFF01FF483C7D400130500001374840067
:102E380093E70704A386F400EFF01FCF7324043050
:102E48008320C10003248100832441001301010170
:102E5800678000008347D50093F7F701639A07005E
:102E6800032705029307F0FF6314F7006FF0DFF8FC
:102E780067800000B757008083A7C75A6398F50298
:102E880037560080B755008037550080130101FF81
:102E98009306C02213068620938505161305C5F6EA
:102EA80023261100EFF08FA16F00000003A7450053
:102EB80083A705002320F70023A2E700678000000E
:102EC800130101FF2324810023229100130405002C
:102ED80023261100EFF05FC4930405000325840046
:102EE8006314050237560080B755008037550080B7
:102EF8009306101513068620938545171305C5F606
:102F0800EFF0CF9B6F00000093050400EFF09FF6F1
:102F18008347D40093F4840093F7D7FFA306F40003
:102F2800F3A40430232404008320C1000324810077
:102F3800832441001301010167800000832705FFF6
:102F4800130101FF2324810023229100232611006D
:102F580013040500930485FE6386070013850400A7
:102F6800EFF01FF6834754FF8320C1001385040048
:102F780093F7B7FFA30AF4FE0324810083244100DA
:102F8800130101016FF01FED130101FF930500000C
:102F98002324810023261100EFF09FC813040500A5
:102FA80063080500EFF0DFF113058401EF00103727
:102FB800130504008320C1000324810013010101CB
:102FC80067800000130101FE232821013769008072
:102FD80013098991232E1100232C8100232A9100A3
:102FE800232631011304050093094902EFF0DFB2EB
:102FF800930504009304050013850900EFF09FE78B
:103008009305040013850900EFF09FD58347D4008A
:103018000325890093F4840093E70704330585406A
:10302800A306F40013351500EFF01FB0F3A4043025
:103038008320C10103248101832441010329010163
:103048008329C1001301010267800000B75700807F
:1030580083A7477263880706B767008093878791BD
:1030680003A787009306F0070356E70063ECC6043E
:10307800B75600800306E70083A606726344D604A9
:10308800B756008083A6C65A630ED70203260702E6
:103098009306F0FF6318D60283A607016340D502A2
:1030A800130101FF1305070023261100EFF09FF11C
:1030B8008320C100130101016FF0DFA2B386A6408F
:1030C80023A8D70067800000130101FF2324810093
:1030D8002322910013040500232611002320210137
:1030E800EFF09FA38347D4009304050093F70704E8
:1030F800638A070237690080130989911305490219
:1031080093050400EFF01FD78347D40003258900F7
:1031180093F7F7FB33058540A306F4001335150034
:10312800EFF09FA093F48400F3A404308320C1003F
:1031380003248100832441000329010013010101B4
:1031480067800000130101FF2324810023229100DE
:10315800232021019304050023261100138905006B
:1031680013040600EFF05FF683C7D40093E7270047
:10317800A386F400630A090023A4240193850400AC
:1031880013050900EFF0DFBD9307F0FF630CF402AD
:10319800130694001304A00033468602032481001A
:1031A8008320C10003290100138584018324410081
:1031B800B7350080938545F4130101011306160005
:1031C8006F00102D8320C100032481008324410057
:1031D800032901001301010167800000130101FFA9
:1031E800B7670080232481001304050003A5079214
:1031F80023261100EFF01FF51305040003248100B6
:103208008320C100130101016FD08F81B76700804F
:10321800938787911387470223A2E70223A4E70233
:1032280093050000130500006FF05F99130101FF7B
:10323800232481003764008083278491232611008A
:103248002322910023202101638A07023756008038
:10325800B7550080375500801305C5F693066030D2
:10326800130686209385451CEFE05FE537550080FF
:103278001305C51DEFE09FE46F000000130484915F
:10328800B75700800327840083A7C75A630CF70247
:10329800EFF09F88832584001309440293040500F6
:1032A80013050900EFF01FBD8325840013050900ED
:1032B80093F48400EFF0DFAA13051000EFF0DF8627
:1032C800F3A4043003278400832704026304F7026D
:1032D8001305800073350530032481008320C10065
:1032E800832441000329010013758500130101019E
:1032F8006FC01FF38320C100032481008324410091
:10330800032901001301010167800000130101FD79
:103318002320210337690080130989918327090035
:10332800232611022324810223229102232E310114
:10333800638A070237560080B755008037550080EA
:103348001305C5F693064032130686209385451C5F
:10335800EFE0DFD6375500801305C51DEFE01FD617
:103368006F0000009307F0FF631AF50237560080DC
:10337800B7550080375500801305C5F693065032BF
:10338800130686209385C514EFE05FD33755008078
:103398001305C51DEFE09FD26F00000063160502FC
:1033A8002326A100EFF09FE80325C1008320C10276
:1033B8000324810283244102032901028329C101D4
:1033C8001301010367800000130495001305A00092
:1033D8003344A402EF00903B9309800013041400C7
:1033E800B304A400F3B9093003258900EFF0DFCD59
:1033F80003258900B735008013060400938545F43A
:1034080013058501EF00D00813F58900EFC05FE1CF
:10341800EF00D037B384A44013050000E35890F8B8
:103428001305803EB395A4021306400693060000D8
:103438003385A402EFC0DFE36FF05FF7B767008062
:1034480003A5079267800000130101FF23261100DE
:10345800631A060237560080B7550080375500803A
:103468001305C5F69306D0031306C625938585284C
:10347800EFE0DFC43755008013054529EFE01FC48E
:103488006F000000637AB60237560080B755008097
:10349800375500801305C5F69306E0031306C625C5
:1034A8009385C52AEFE09FC1375500801305452C49
:1034B800EFE0DFC06F0000008320C1002324B500C7
:1034C8002326C5002320A5002322A50013010101FE
:1034D80067800000130101FF2324810023202101BC
:1034E80023261100232291001309050013048000EC
:1034F8007334043013748400EFF01FA963020504C9
:103508008347D5009304050093F7F701639A0700F2
:10351800032705029307F0FF6314F700EFF0DF8D30
:1035280023A6040613050400032481008320C10098
:103538008324410003290100130101016FF00FF2F8
:10354800032789008327C900B387E740B337F00012
:10355800B387E7002324F9006FF0DFFCB76700802A
:1035680083A787911386050063800704638E05028D
:1035780037560080B755008037550080130101FF8A
:103588001305C5F6930630081306C6259385C52E80
:1035980023261100EFE09FB2375500801305C51DA3
:1035A800EFE0DFB16F00000093078000F3B707304A
:1035B8000327850093F78700630C07001307F7FFBD
:1035C8002324E500F3A707301305000067800000F7
:1035D80063180600F3A70730130500FF6780000093
:1035E80093050500138507006FF05FBF130101FF06
:1035F800232481002326110013048000733404302F
:10360800138695009305A0003346B602B7350080AF
:10361800938545F413058501137484001306160079
:10362800EF000067732404308320C1000324810065
:1036380013010101678000008347D50093F7F70164
:10364800639A0700032705029307F0FF6314F70046
:103658006FF08FFA67800000B767008003A5879135
:103668003335A00067800000B767008083A7079202
:1036780003C5C7001375150067800000B727B7009A
:10368800938707B0B335F50237460F00130101FFE2
:103698001306062493060000232611002324810024
:1036A800232291003305F502EFC09FBC13040500E7
:1036B800EFE05FD493040500EFE0DFD333059540D6
:1036C800E36C85FE8320C10003248100832441002C
:1036D8001301010167800000130101FF2324810009
:1036E8002326110013048000733404300347D500E7
:1036F8001374840093764700639C06007324043097
:103708008320C100032481001301010167800000A8
:103718001377B7FFA306E500EFF01FF213050400C7
:10372800032481008320C100130101016FF00FD32E
:10373800130101FE03230102232C8100232E110013
:103748002320610013040500EFE0CF94B7670080E1
:1037580083A707928320C10183A787062324F40641
:103768000324810113010102678000003763008090
:1037780003238391130101FE232A9100232E1100B4
:10378800232C810083244102630A030237560080F8
:10379800B7550080375500801305C5F69306801A83
:1037A800130606329385451CEFE05F91375500807C
:1037B80013050535EFE09F906F0000000323010219
:1037C800232201001304050023206100EFF05FF6B7
:1037D8009307F0FF6388F400639204021305040062
:1037E800EFF09FEF130504008320C101032481013A
:1037F80083244101130101026780000093850400BE
:1038080013050400EFF09FDE6FF0DFFD8327050648
:10381800130101FF2324810023261100130405004E
:1038280063840700E78007008347D40013F7F70194
:10383800631A0702832604021307F0FF6394E60263
:1038480013050400EFF05F888347D4008320C1008C
:1038580093E78700A306F400032481001301010104
:103868006780000093F727006386070013050400AC
:10387800EFF00FE5032704029307F0FFE306F7FCD8
:1038880013058401EF0080296FF01FFC130101FD6F
:10389800B7570080232E3101B759008023248102B5
:1038A8002322910223261102232021031384075E79
:1038B8009384075E9389095E63603405B767008067
:1038C80003A78791630C070637560080B755008019
:1038D800375500801305C5F69306200F1306C61842
:1038E8009385451CEFE08FFD375500801305C51DF6
:1038F800EFE0CFFC6F0000008327C4022322F10011
:10390800832704022320F100832744018328C4016C
:1039180003288401032704018326C40003268400A6
:103928008325440003250400EFF09FE0832704006B
:1039380023AE8704130404036FF01FF8938787915D
:1039480003A78700930610008347F700639AD702FE
:1039580037560080B7550080375500801305C5F6E7
:103968009306300F1306C6189385051EEFE00FF572
:10397800375500801305C51DEFE04FF46F000000B8
:103988009387F7FFA307F7001309800073390930FD
:1039980013840400137989009304F0FF63623403ED
:1039A80073290930032481028320C1028324410240
:1039B800032901028329C101130101036FF00FAD2F
:1039C8008325440263889500032504006398050055
:1039D800EFF09FD0130404036FF05FFCEFF01FC1FA
:1039E8006FF05FFF9307F0FF2306D500A306C5001D
:1039F8002307B500A30705002320F5026780000010
:103A0800130101FF232481002326110023229100A2
:103A180013048000733404308347C50093F71700FC
:103A2800638A070237560080B755008037550080F3
:103A38001305C5F693063002130686379385C53AF3
:103A4800EFE0CFE7375500801305053EEFE00FE7BD
:103A58006F00000093040500EFF05FDBB76700809C
:103A680003A7879113748400630E0700732404303E
:103A78008320C10003248100832441001301010134
:103A8800678000009387879183A787001305040048
:103A980063949700EFC0CFF8032481008320C1000E
:103AA80083244100130101016FF04F9BB757008039
:103AB80083A78772639407006FE05F8F1305000088
:103AC8006780000013058000733505301375850085
:103AD80067800000832705006388070203274500E5
:103AE80063040702B756008083A6465A630AD500C6
:103AF80083A6870003268500B386C60023A4D700C3
:103B08002320F70023A2E7009307F0FF23220500F4
:103B1800232005002324F50067800000130101FF1E
:103B280023248100232291002326110093040500F9
:103B3800EFF05FF903A784009307F0FF1304050073
:103B48001305F0FF6308F70013850400EFF09FF8F2
:103B58001305000013748400732404308320C1000B
:103B680003248100832441001301010167800000C0
:103B7800032785009307F0FF6306F706130101FF8B
:103B8800232481002326110013040500EFF09FF37E
:103B9800B75600809386065A83A7060013070000CD
:103BA8006386D70083A646006390070213758500D5
:103BB800732505308320C100032481001305070005
:103BC800130101016780000003A687003307C700BF
:103BD800E38E87FCE38C07FCE38AD7FC83A7070006
:103BE8006FF09FFC130700001305070067800000B3
:103BF800B757008083C7C772130101FF23248100D0
:103C08002326110023229100232021011304F0FF11
:103C180063960700370400801344F4FFEFF09FEA2F
:103C2800B75700809387075A03A907009304050034
:103C38006304F9026302090203248900EFF01FE715
:103C48003305A440130400006348050003248900D9
:103C5800EFF0DFE53304A44093F48400F3A40430C8
:103C6800B767008083A787926386070063D48700BD
:103C780013840700130504008320C1000324810076
:103C8800832441000329010013010101678000001A
:103C980083278500130101FE232E1100232C8100A8
:103CA800232A910063CA070237560080B75500805F
:103CB800375500801305C5F6930630041306C63F32
:103CC8009385C542EFE08FBF375500801305C51DAA
:103CD800EFE0CFBE6F0000002326B5002326C10009
:103CE80013040500EFF01FDE93040500EFF01FDC5E
:103CF8000326C1006344C00013061000B7570080B4
:103D080003A7075A3306A6002324C4009387075A3B
:103D18006306F70083A547006310070203A747005F
:103D28002320F4002322E40003A747002320870070
:103D380023A287006F0000068326870063DA060245
:103D480037560080B7550080375500801305C5F6F3
:103D58009306C0041306C63F9385C543EFE00FB62C
:103D6800375500801305C51DEFE04FB56F00000003
:103D780003268400635AD604B386C6402324D7009A
:103D8800832647002320E4002322D40023A08600B2
:103D98002322870003A70700630AF7006318E400DB
:103DA800EFF01FE593050000EFE08FD293F4840055
:103DB800F3A404308320C101032481018324410139
:103DC8001301010267800000B306D6402324D40003
:103DD800E386E5F4032707006FF01FF4130101FEE3
:103DE8002326B100232E1100232C8100232A9100C1
:103DF80093040500EFF01FCD13040500EFF05FDF1B
:103E08008325C10063DAA4009307100063D6A700D6
:103E180013850400EFE0CFCB1374840073240430BF
:103E28008320C1010324810183244101130101027C
:103E380067800000130101FE232E1100232C81004E
:103E4800232A91001304050023263101232441016C
:103E5800B759008023282101375A0080EFF00F9FBF
:103E6800B7540080EFF01FC6130A0A5A23A48972B8
:103E7800938404739389897203240A0083A7090031
:103E880083A6040003A8440013798500630C440149
:103E9800630A04000327840063DEE7043307F7405E
:103EA8002324E400B386D70013D7F741330707016B
:103EB800B3B7F600B387E70023A0D40023A2F40029
:103EC80023A00900EFF0DFD293050000EFE04FC018
:103ED800732909308320C10103248101832441010E
:103EE800032901018329C100032A8100130101026A
:103EF80067800000B306D7009355F74133B6E60054
:103F0800B38505013306B600B387E74023240400D0
:103F18001305040023A0D40023A2C40023A0F900A1
:103F2800EFF05FBB732909308327C4001305040031
:103F3800E7800700EFF01FB96FF01FF4130101FFCE
:103F48002326110023248100EFF0DFB713040500B6
:103F5800EFE0CFC5375700801307077393070500B5
:103F68000325070083254700137484003385A700C1
:103F7800B337F500B385B700732404308320C1003C
:103F8800032481001301010167800000130101FF70
:103F980023261100EFF09FFA8320C10013010101CD
:103FA80067800000130101FF23261100EFF01FF9BD
:103FB8009307803E33B7A702130640069306000016
:103FC800B385B7023385A702B385E500EFC04FAAD2
:103FD8008320C10013010101678000008347D500D9
:103FE80093F7F701639A0700032705029307F0FF89
:103FF8006314F7006FE05FE0678000008327050225
:10400800130101FF2324810023261100232291009C
:10401800130405006352F00293048000F3B40430E3
:1040280003260502B745008093854500EFF05FC67B
:1040380093F48400F3A40430832744029387170081
:104048002322F402832784016386070013050400F2
:10405800E7800700832404011304040163868402B3
:104068006384040213850400EFE09FE513048000D5
:104078007334043013850400EFF05FF61374840082
:104088007324043023A604068320C100032481007E
:104098008324410013010101678000009307050193
:1040A8002328F500232AF5009307F0FF232CB500F9
:1040B800232EC500232205022324F500232405020C
:1040C80067800000130101FE232E1100232C8100BC
:1040D800232A910063C8050063460600B3E7C500BC
:1040E800639A070237560080B7550080375500801D
:1040F8001305C5F6930640071306C64493858547FE
:10410800EFD0DFFB375500801305854BEFD01FFB41
:104118006F0000009307A000130696003346F602CE
:10412800938595009304050013048000B3C5F50238
:104138002324C1002326B10073340430EFF01F9EFE
:10414800832781000326C100B745008023A0F4021D
:1041580023A204029385450013850400EFF05FB3A2
:1041680013748400732404308320C1010324810163
:10417800832441011301010267800000130101FF3C
:104188002324810023229100232611009304050093
:104198001304800073340430EFF05F9813748400C4
:1041A800732404309307F0FF6308F50483A7C40160
:1041B8006386070013850400E78007001304800066
:1041C800733404309305000013850401EFE05FA504
:1041D800137484009304050063080500EFE05FCEC4
:1041E80013850400EFF09FDFB767008083A78791EE
:1041F800638E0700732404308320C10003248100E8
:1042080083244100130101016780000013050400A5
:10421800032481008320C10083244100130101018C
:104228006FE0DFA31307050093078000F3B707309B
:104238000325450293F7870023220702F3A70730D7
:1042480067800000B767008083A78791130101FF8B
:10425800232611002324810023229100638A070268
:1042680037560080B7550080375500801305C5F6CE
:104278009306700C1306C6449385451CEFD01FE4C3
:10428800375500801305C51DEFD05FE36F000000B0
:104298001304050093048000F3B704300325450296
:1042A80093F7870063160502832684001307F0FF3F
:1042B8006380E6021306F0FF9305040113850700E7
:1042C800EFE0DFF1F3B704300325440293F78700EA
:1042D80023220402F3A707308320C10003248100AE
:1042E800832441001301010167800000130101FFCD
:1042F800232481002322910037540080B754008082
:10430800232611001304846E9384846E636E9400D4
:104318008320C10003248100832441001305000089
:10432800130101016780000093074401130504008D
:10433800232AF400232CF400EFD00FF01304C40157
:084348006FF0DFFC678000004C
:104350000000000014180080000000001418008005
:1043600000000000141800800000000014180080F5
:1043700000000000141800800000000014180080E5
:10438000000000001418008000000000F0210080F0
:1043900000000000141800800000000014180080C5
:1043A00000000000141800800000000014180080B5
:1043B00000000000141800800000000014180080A5
:1043C0000000000014180080000000001418008095
:1043D0000000000014180080000000001418008085
:1043E0000000000014180080000000001418008075
:1043F0000000000014180080000000001418008065
:104400000000000014180080000000001418008054
:104410000000000014180080000000001418008044
:104420000000000014180080000000001418008034
:104430000000000014180080000000001418008024
:104440000000000014180080000000001418008014
:104450000000000014180080000000001418008004
:1044600000000000141800800000000014180080F4
:1044700000000000141800800000000014180080E4
:1044800000000000141800800000000014180080D4
:1044900000000000141800800000000014180080C4
:1044A000B04B0080A821008000000000C84F0080B1
:1044B0008C22008000000000C04F0080EC240080AF
:1044C00000000000B04B0080F442008000000000BB
:1044D00000010202030303030404040404040404AB
:1044E000050505050505050505050505050505057C
:1044F000060606060606060606060606060606065C
:10450000060606060606060606060606060606064B
:10451000070707070707070707070707070707072B
:10452000070707070707070707070707070707071B
:10453000070707070707070707070707070707070B
:1045400007070707070707070707070707070707FB
:1045500008080808080808080808080808080808DB
:1045600008080808080808080808080808080808CB
:1045700008080808080808080808080808080808BB
:1045800008080808080808080808080808080808AB
:10459000080808080808080808080808080808089B
:1045A000080808080808080808080808080808088B
:1045B000080808080808080808080808080808087B
:1045C000080808080808080808080808080808086B
:1045D0006475726174696F6E5F6578706972650089
:1045E0007374617475735F6578706972650000003B
:1045F0007374617475735F73746F70007465737432
:104600005F74696D65725F6475726174696F6E5F06
:10461000706572696F640000746573745F74696DAE
:1046200065725F706572696F645F30007465737482
:104630005F74696D65725F657870697265666E5FDB
:104640006E756C6C00000000746573745F74696D46
:1046500065725F706572696F64696369747900007F
:10466000746573745F74696D65725F73746174757A
:10467000735F676574000000746573745F74696DBF
:1046800065725F7374617475735F6765745F616E83
:104690007974696D65000000746573745F74696D89
:1046A00065725F7374617475735F73796E63000014
:1046B000746573745F74696D65725F6B5F64656662
:1046C000696E6500746573745F74696D65725F759A
:1046D0007365725F64617461000000002F686F6D24
:1046E000652F6D69616F752F70726F2F72697363BB
:1046F000762F7A65706879722F74657374732F6B77
:1047000065726E656C2F74696D65722F74696D6565
:10471000725F6170692F7372632F6D61696E2E63B2
:10472000000000000A202020204173736572746924
:104730006F6E206661696C65642061742025733A30
:1047400025643A2025733A2025730A006B5F757043
:1047500074696D655F64656C746128267464617446
:10476000612E74696D657374616D7029203E3D2002
:104770003130302069732066616C73650000000081
:104780006B5F757074696D655F64656C7461282614
:1047900074646174612E74696D657374616D7029E0
:1047A000203E3D2035302069732066616C736500C2
:1047B0006B5F74696D65725F7374617475735F6745
:1047C00065742874696D657229203D3D203120692A
:1047D000732066616C7365006B5F74696D65725FF1
:1047E00072656D61696E696E675F6765742874696B
:1047F0006D657229203E3D20353020697320666149
:104800006C7365006B5F74696D65725F72656D6175
:10481000696E696E675F6765742874696D65722972
:10482000203D3D20302069732066616C7365000077
:10483000746573745F74696D65725F6475726174B9
:10484000696F6E5F706572696F6400007465737480
:104850005F74696D65725F706572696F645F300067
:10486000746573745F74696D65725F657870697281
:1048700065666E5F6E756C6C000000007465737425
:104880005F74696D65725F706572696F6469636991
:1048900074790000746573745F74696D65725F7319
:1048A00074617475735F6765740000007465737478
:1048B0005F74696D65725F7374617475735F67654A
:1048C000745F616E7974696D65000000746573745E
:1048D0005F74696D65725F7374617475735F73790A
:1048E0006E630000746573745F74696D65725F6BED
:1048F0005F646566696E6500746573745F74696D85
:1049000065725F757365725F6461746100000000B9
:1049100074696D65725F6170690000007464617430
:10492000612E6578706972655F636E74203D3D200D
:10493000302069732066616C736500007464617473
:10494000612E6578706972655F636E74203D3D20ED
:10495000342069732066616C73650000746461744F
:10496000612E73746F705F636E74203D3D20312043
:1049700069732066616C7365000000007464617483
:10498000612E6578706972655F636E74203D3D20AD
:10499000312069732066616C736500007464617412
:1049A000612E73746F705F636E74203D3D20302004
:1049B00069732066616C7365000000002828286414
:1049C000656C746129203E3D202835302929202638
:1049D0002620282864656C746129203C3D202835F8
:1049E0003029202B2028312929292069732066614C
:1049F0006C7365006B5F74696D65725F737461746D
:104A000075735F676574282674696D657229203D2A
:104A10003D20302069732066616C736500000000E2
:104A20006B5F74696D65725F72656D61696E696EE9
:104A3000675F676574282674696D657229203E3D3D
:104A400020313030202F20322069732066616C7352
:104A5000650000006B5F74696D65725F73746174EB
:104A600075735F676574282674696D657229203DCA
:104A70003D20342069732066616C7365000000007E
:104A800074646174612E6578706972655F636E74B9
:104A9000203D3D20692069732066616C73650000CC
:104AA0006B5F74696D65725F7374617475735F7346
:104AB000796E63282674696D657229203D3D203129
:104AC0002069732066616C73650000007464617412
:104AD000612E6578706972655F636E74203D3D205C
:104AE0002869202B2031292069732066616C736549
:104AF00000000000636865636B203D3D20757365B1
:104B0000725F646174615B69695D206973206661CD
:104B10006C736500757365725F646174615F636F68
:104B200072726563745B69695D2069732066616C8C
:104B30007365000037130000BEBA00000DD00000FE
:104B4000AFDE0000DEFA00000C5600803856008010
:104B50006456008090560080BC560080EC160080A1
:104B6000A4170080A4170080E0160080EC160080D7
:104B70008C17008098170080E04D0080004E008068
:104B80001C4E0080304E00803C4E0080544E008011
:104B9000756E6B6E6F776E00457863657074696FC4
:104BA0006E20636175736520257320282564290AAA
:104BB000000000002A2A2A2A204B65726E656C20AC
:104BC000416C6C6F636174696F6E204661696C75CE
:104BD000726521202A2A2A2A0A0000002A2A2A2A63
:104BE0002A204B65726E656C204F4F505321202A4E
:104BF0002A2A2A2A0A0000002A2A2A2A2A204B6561
:104C0000726E656C2050616E696321202A2A2A2AFF
:104C10002A0A00002A2A2A2A20556E6B6E6F776EA8
:104C200020466174616C204572726F722025642188
:104C3000202A2A2A2A0A000043757272656E74209F
:104C4000746872656164204944203D2025700A46DD
:104C500061756C74696E6720696E737472756374C4
:104C6000696F6E2061646472657373203D203078D3
:104C700025780A202072613A203078257820206734
:104C8000703A2030782578202074703A20307825CA
:104C900078202074303A20307825780A202074312A
:104CA0003A2030782578202074323A2030782578E0
:104CB000202074333A2030782578202074343A202C
:104CC000307825780A202074353A203078257820ED
:104CD0002074363A2030782578202061303A203010
:104CE000782578202061313A20307825780A2020F4
:104CF00061323A2030782578202061333A203078AC
:104D00002578202061343A203078257820206135BC
:104D10003A20307825780A202061363A20307825EC
:104D200078202061373A20307825780A000000008A
:104D300049535200657373656E7469616C207468C1
:104D40007265616400000000466174616C206661F8
:104D5000756C7420696E20257321205370696E6E06
:104D6000696E672E2E2E0A00466174616C206661A2
:104D7000756C7420696E207468726561642025709A
:104D8000212041626F7274696E672E0A0000000074
:104D9000ADBAADDEADBAADDEADBAADDEADBAADDE4B
:104DA000ADBAADDEADBAADDEADBAADDEADBAADDE3B
:104DB000ADBAADDEADBAADDEADBAADDEADBAADDE2B
:104DC000ADBAADDEADBAADDEADBAADDEADBAADDE1B
:104DD000ADBAADDEADBAADDEADBAADDEADBAADDE0B
:104DE000496E737472756374696F6E206164647266
:104DF000657373206D6973616C69676E656400002B
:104E0000496E737472756374696F6E204163636574
:104E10007373206661756C7400000000496C6C65EA
:104E200067616C20696E737472756374696F6E006C
:104E3000427265616B706F696E7400004C6F6164E3
:104E40002061646472657373206D6973616C696756
:104E50006E6564004C6F61642061636365737320E9
:104E60006661756C7400000053707572696F7573BC
:104E700020696E7465727275707420646574656300
:104E800074656421204952513A2025640A000000CB
:104E90002F686F6D652F6D69616F752F70726F2F41
:104EA00072697363762F7A65706879722F617263A5
:104EB000682F726973637633322F636F72652F7454
:104EC00068726561642E6300282828287072696FF3
:104ED000726974792929203D3D203135202626200C
:104EE0005F69735F69646C655F746872656164288B
:104EF000287468726561645F66756E63292929206C
:104F00007C7C20285F69735F7072696F5F68696776
:104F10006865725F6F725F657175616C28282870B3
:104F200072696F7269747929292C20283135202DF6
:104F300020312929202626205F69735F7072696FEE
:104F40005F6C6F7765725F6F725F657175616C28FA
:104F500028287072696F7269747929292C20282891
:104F60002D313629292929290000000041535345B4
:104F70005254494F4E204641494C205B25735D20D9
:104F8000402025733A25640A0000000009696E7606
:104F9000616C6964207072696F7269747920282568
:104FA00064293B20616C6C6F7765642072616E6769
:104FB000653A20256420746F2025640A00000000F3
:104FC00075617274300000007379735F636C6F6396
:104FD0006B000000E4240080C0240080000000007A
:104FE0000000000000000000DC500080E450008061
:104FF0006850008052756E6E696E672074657374B8
:105000002073756974652025730A00003D3D3D3DA0
:105010003D3D3D3D3D3D3D3D3D3D3D3D3D3D3D3DC0
:105020003D3D3D3D3D3D3D3D3D3D3D3D3D3D3D3DB0
:105030003D3D3D3D3D3D3D3D3D3D3D3D3D3D3D3DA0
:105040003D3D3D3D3D3D3D3D3D3D3D3D3D3D3D0AC3
:10505000000000007374617274696E672074657378
:1050600074202D2025730A00534B49500000000086
:105070002573202D2025730A0000000054657374E9
:10508000207375697465202573206661696C656499
:105090002E0A0000546573742073756974652025A9
:1050A00073207375636365656465640A00000000BE
:1050B0004641494C4544000050524F4A4543542014
:1050C000455845435554494F4E2025730A0000006A
:1050D0005355434345535346554C00005041535399
:1050E000000000004641494C00000000B05500801F
:1050F000D4550080E0550080E0550080E0550080E8
:105100006D61696E0000000069646C65000000005C
:105110002A2A2A2A2A20426F6F74696E67205A65EC
:1051200070687972204F53207A65706879722D7695
:10513000312E31332E302D333032302D67333766F8
:1051400033373434202A2A2A2A2A0A0064757261E5
:1051500074696F6E20213D20282D31290000000048
:10516000215F69735F69646C652874687265616446
:10517000290000007468726561642D3E6261736588
:105180002E70656E6465645F6F6E00002F686F6DD2
:10519000652F6D69616F752F70726F2F7269736300
:1051A000762F7A65706879722F6B65726E656C2FD9
:1051B000696E636C7564652F6B73636865642E68D4
:1051C0000000000021285F6B65726E656C2E6E65B5
:1051D0007374656420213D2030552900090A0000C0
:1051E0005F6B65726E656C2E63757272656E742D81
:1051F0003E626173652E73636865645F6C6F636B99
:10520000656420213D2031002F686F6D652F6D6929
:10521000616F752F70726F2F72697363762F7A6565
:10522000706879722F6B65726E656C2F7363686539
:10523000642E63005F6B65726E656C2E63757272AF
:10524000656E742D3E626173652E73636865645F7D
:105250006C6F636B656420213D2030002F686F6D9B
:10526000652F6D69616F752F70726F2F726973632F
:10527000762F7A65706879722F6B65726E656C2F08
:1052800073656D2E630000006C696D697420213DAB
:1052900020305500096C696D69742063616E6E6F12
:1052A00074206265207A65726F0A0000696E697405
:1052B00069616C5F636F756E74203C3D206C696D35
:1052C0006974000009636F756E742063616E6E6FA0
:1052D000742062652067726561746572207468610C
:1052E0006E206C696D69740A000000002828285F30
:1052F0006B65726E656C2E6E657374656420213DFE
:1053000020305529203D3D203029207C7C202874E8
:10531000696D656F7574203D3D20302929000000BE
:105320002F686F6D652F6D69616F752F70726F2FAC
:1053300072697363762F7A65706879722F6B657204
:105340006E656C2F7468726561642E6300000000E6
:105350000954687265616473206D6179206E6F74A1
:10536000206265206372656174656420696E2049FE
:105370005352730A000000002F686F6D652F6D692E
:10538000616F752F70726F2F72697363762F7A65F4
:10539000706879722F6B65726E656C2F74687265B8
:1053A00061645F61626F72742E63000028746872BA
:1053B0006561642D3E626173652E757365725F6F02
:1053C0007074696F6E73202620282831554C203C5C
:1053D0003C20283029292929203D3D20300000008B
:1053E00009657373656E7469616C207468726561B8
:1053F000642061626F727465640A00002F686F6DCB
:10540000652F6D69616F752F70726F2F726973638D
:10541000762F7A65706879722F6B65726E656C2F66
:1054200074696D656F75742E63000000746F2D3E96
:10543000647469636B73203C20300000742D3E64FB
:105440007469636B73203E3D203000002F686F6DE0
:10545000652F6D69616F752F70726F2F726973633D
:10546000762F7A65706879722F6B65726E656C2F16
:1054700074696D65722E63006475726174696F6E14
:10548000203E3D203020262620706572696F642002
:105490003E3D203020262620286475726174696F95
:1054A0006E20213D2030207C7C20706572696F6405
:1054B00020213D203029000009696E76616C696405
:1054C00020706172616D65746572730A0A00000074
:1054D00030480080A8110080AC060080AC06008037
:1054E000000000004C480080A0100080AC06008046
:1054F000AC0600800000000060480080A80F00801B
:10550000AC060080AC060080000000007C480080F3
:10551000BC120080AC060080AC06008000000000D9
:1055200094480080C80A0080AC060080AC06008069
:1055300000000000AC480080B00B0080AC0600808A
:10554000AC06008000000000CC480080540C0080B5
:10555000AC060080AC06008000000000E44800803B
:10556000CC0D0080AC060080AC060080000000007E
:10557000F848008020080080AC060080AC0600805F
:10558000000000000000000000000000000000001B
:105590000000000000000000401B0080030000002D
:1055A000A0550080A0550080F5FFFFFF385800800F
:1055B000C44400800000000000000000B8440080E7
:1055C000D44F008000000000A044008000000000D4
:1055D00000000000AC44008000000000000000005B
:1055E0000000000000000000FFFFFFFF04400080FB
:1055F000F0550080F055008064140080C4060080DF
:10560000000000000000000000000000000000009A
:1056100000000000FFFFFFFF044000801C560080D8
:105620001C560080F406008000000000000000000E
:10563000000000000000000000000000000000006A
:10564000FFFFFFFF0440008048560080485600805E
:10565000F4060080000000000000000000000000D0
:10566000000000000000000000000000FFFFFFFF3E
:10567000044000807456008074560080F406008058
:10568000000000000000000000000000000000001A
:105690000000000000000000FFFFFFFF044000804A
:1056A000A0560080A0560080F40600800000000094
:1056B00000000000000000000000000000000000EA
:1056C00000000000FFFFFFFF04400080CC56008078
:1056D000CC560080F40600800000000000000000AE
:0856E0000000000000000000C2
:1056E800E8560080E8560080000000000000000036
:0456F8000F0000009F
:040000058000000077
:00000001FF
