:0200000480007A
:100000009702000093820201739052306F10405AA1
:10001000130101FB2320110023223100232441007E
:100020002326510023286100232A7100232CC101BB
:10003000232ED1012320E1032322F1032324A10253
:100040002326B1022328C102232AD102232CE10254
:10005000232EF1022320010523221105F32210345F
:1000600023245104F322003023265104EF00002002
:100070001303000063160504F3222034B703008045
:100080009383F3FFB3F272001303B000638A62003C
:100090001305010097000000938040146F10404248
:1000A000832281049382420023245104976200003A
:1000B000938242CC03A30200631403006F00000983
:1000C00093020100976300009383430303A143005D
:1000D000130101FF2320510003AE0300130E1E0085
:1000E00023A0C30163080300970000009380C003AE
:1000F0006F10C04573252034B70200809382F2FF51
:1001000033755500EF0080159752000093820292DC
:1001100013153500B382A20003A5020003A3420019
:10012000E700030017630000130343FD832303006C
:100130009383F3FF232073008322010013810200C5
:1001400083238300032E030263087E089762000066
:100150009382C2FA03A382002326830223289302F8
:10016000232A2303232C3303232E43032320530565
:10017000232263052324730523268305232893055F
:10018000232AA305232CB30523242302976300000D
:10019000938343B703AE03002326C30703A30202DE
:1001A00023A46200032183020324C30283240303E4
:1001B0000329430383298303032AC303832A0304F4
:1001C000032B4304832B8304032CC304832C0305D8
:1001D000032D4305832D83058322810473901234FC
:1001E0008322C104739002308320010083214100E7
:1001F000032281008322C1000323010183234101E3
:10020000032E8101832EC101032F0102832F41029E
:10021000032581028325C1020326010383264103AE
:10022000032781038327C103032801048328410492
:100230001301010573002030730000009762000075
:100240009382C2EB03A382008323C3061375850048
:10025000F3220530138503006780000013031000AC
:10026000B312A30073B3423467800000F32220343A
:1002700037030080B3F262001305000063840200BC
:08028000130515006780000062
:10028800938705001308060013870600130305006B
:1002980063960628975800009388C89063F6C50EA1
:1002A800370701006378E60C1307F00F3337C700F0
:1002B80013173700B356E600B388D80083C6080082
:1002C8003387E60093060002B386E640638C060097
:1002D800B397D7003357E5003318D600B365F70056
:1002E8003313D5001355080133F7A5021316080177
:1002F8001356060193560301B3D5A5021317070138
:10030800B366D700B307B6021387050063FEF6008D
:10031800B38606011387F5FF63E8060163F6F60066
:100328001387E5FFB3860601B386F640B3F7A60246
:100338001313030113530301B3D6A60293970701BE
:1003480033E36700B305D60213850600637CB30068
:10035800330368001385F6FF636603016374B30013
:100368001385E6FF131707013367A70093050000FD
:100378006F00400EB706000113070001E36CD6F2C8
:10038800130780016FF01FF3631606009306100031
:1003980033D8C602B70601006372D80C9306F00F73
:1003A80063F4060113078000B356E800B388D80049
:1003B80083C60800B386E600130700023307D74058
:1003C8006318070AB38707419305100013560801FD
:1003D8009318080193D808019356030133F7C7020D
:1003E800B3D7C70213170701B366D7003385F802DE
:1003F8001387070063FEA600B38606011387F7FF7D
:1004080063E8060163F6A6001387E7FFB3860601D3
:10041800B386A640B3F7C6021313030113530301AF
:10042800B3D6C6029397070133E36700B388D802AF
:1004380013850600637C1301330368001385F6FFF8
:1004480063660301637413011385E6FF131707013D
:100458003367A7001305070067800000B70600018F
:1004680013070001E362D8F4130780016FF0DFF38C
:100478003318E800B3D5D7003313E500B356D500D9
:1004880013550801B397E70033F7A502B3E8F60060
:100498009317080193D7070113D60801B3D5A5020E
:1004A800131707013367C700B386B7021386050021
:1004B800637ED700330707011386F5FF63680701DA
:1004C8006376D7001386E5FF33070701B306D740E5
:1004D80033F7A6029398080193D80801B3D6A60269
:1004E80013170701B385D702B367170113870600EF
:1004F80063FEB700B38707011387F6FF63E80701B8
:1005080063F6B7001387E6FFB3870701B387B740E1
:1005180093150601B3E5E5006FF05FEB63E6D518C8
:100528003707010063F4E6041308F00F3337D800E7
:100538001317370033D8E600974500009385856682
:10054800B385050103C80500930500023308E800D8
:10055800B38505416396050213071000E3ECF6EE38
:100568003335C500134715006FF0DFEEB7050001FE
:1005780013070001E3E0B6FC130780016FF09FFB4F
:1005880033570601B396B600B366D70093DE06016B
:1005980033D70701B378D703B397B70033580501AA
:1005A8003363F8009397060193D7070113580301A3
:1005B8003316B6003357D7039398080133E8080178
:1005C800338FE702130E0700637EE8013308D80073
:1005D800130EF7FF6368D8006376E801130EE7FF90
:1005E8003308D8003308E841B378D8033358D80320
:1005F80093980801B38E07039317030193D7070154
:10060800B3E7F8001307080063FED701B387D700E4
:100618001307F8FF63E8D70063F6D7011307E8FF6D
:10062800B387D700131E0E01B387D741B70E010059
:100638003367EE001388FEFF3373070193580701F1
:100648003378060113560601330E03033388080373
:1006580093560E013303C30233030301B3866600C6
:10066800B388C80263F40601B388D80113D606011B
:10067800B308160163E61703E39A17CFB70701001B
:100688009387F7FFB3F6F60093960601337EFE00D4
:100698003315B500B386C60193050000E37CD5DAAF
:1006A8001307F7FF6FF09FCC9305000013070000B6
:1006B8006FF05FDA67800000B7650080375500800B
:1006C8009385C5C3130505D66F208024130101FD4A
:1006D800232E1100232C8100232401032326110338
:1006E800631805041386060013870500B7560080B3
:1006F800B7550080375500809386C6D61384070007
:10070800938505D893078102130505DD2326F1009B
:10071800EF10D0488325C10013050400EF101045E1
:100728003755008013050529EF105047EF20401B6F
:100738008320C101032481011301010367800000A4
:10074800130101FD232291021307050093040500FC
:10075800B7160080B76500803765008093080000F1
:1007680013080000930700009386068313060020F1
:10077800938505132322010023200100130585DB3F
:10078800232611022324810223202103232E310151
:10079800EF30407613090500EF3050719305401F84
:1007A8001304050013850400EF20102193090500A8
:1007B800EF30D06F3304854013050900EF30D01CAB
:1007C80037590080B7540080B7570080B75500806C
:1007D8001307C9D6138604D813B51900938787DF82
:1007E8009306B002938585E2EFF05FEE13350405BA
:1007F800032481028320C1028329C1011307C9D6BA
:10080800138604D80329010283244102B7570080C4
:10081800B75500809387C7E393062003938545E780
:10082800130101036FF09FEA130101FF23248100E4
:10083800130405001305200323261100EF30402B75
:1008480013050400032481008320C1001301010162
:100858006F20807A130101FF232481003764008010
:10086800130584DA23261100EF208077130584DA34
:10087800EFF01FED032481008320C100376500805D
:100888001305C5D5130101016FF09FEB130101FD9D
:10089800232E1100232401032326110363160504C4
:1008A8001386060037550080930607001387050056
:1008B800B755008093078102938505EE130505DD82
:1008C8002326F100EF10902D8325C10037550080B5
:1008D80013058526EF109029375500801305052943
:1008E800EF10D02BEF10D07F8320C101130101033B
:1008F80067800000130101FE232C8100930500008E
:1009080037640080232E1100232A91002328210117
:10091800232631012324410123225101130A050012
:10092800130484E2EF20500937590080B75900803A
:10093800B7540080B75A00803305854093878926CD
:10094800130789E8138604EE9306600393850AFB70
:1009580013351500EFF09FF39305000013050A0007
:10096800EF2090051304840033058540938789267A
:10097800130789E8138604EE9306600393850AFB40
:1009880013351500EFF09FF09305000013050A00DA
:1009980037640080EF205002130484E3B75A0080C4
:1009A8003305854093878926130789E8138604EE63
:1009B8009306B00393858AFD13351500EFF01FEDFC
:1009C8009305000013050A00EF20007F130484003C
:1009D8003305854093878926130789E8138604EE33
:1009E8009306B00393858AFD13351500EFF01FEACF
:1009F8009305000013050A0037640080EF20C07BD0
:100A0800130484E4B75A0080330585409387892608
:100A1800130789E8138604EE9306000493850A00F9
:100A280013351500EFF09FE69305000013050A0043
:100A3800EF20807813048400330585400324810166
:100A48008320C101032A810093878926130789E837
:100A58008329C10003290101138604EE93850A0046
:100A680083244101832A41009306000413351500AD
:100A7800130101026FF09FE1130101FF232481009C
:100A88002326110013040500EFF0DFE60325040018
:100A9800032481008320C100B757008037570080A6
:100AA80037560080B755008093878726130747EA93
:100AB8009306E004130606EE938545F313351500F7
:100AC800130101016FF09FDC130101FF23261100C0
:100AD800EFF05FE28320C10037650080130585E5EC
:100AE800130101016F30401D130101FF2324810010
:100AF80013040500376500801306100093050000F5
:100B0800130585E523261100EF30401237150080C4
:100B180093050400130545BCEF0050251305040098
:100B2800032481008320C100130101016FF09FDCC1
:100B3800130101FEB7650080232A9100938485E2A2
:100B4800938585E2232E1100232C810013040500D0
:100B5800EF20804F9385840013050400EF20C04EDA
:100B6800B7650080938785E31386870023A0C700B5
:100B78001305040023A40700938585E3EF20C04DE7
:100B8800B7670080938787E4138787009305810000
:100B98001305040023A4070023A0E7002324F10081
:100BA8002326E100EF20C05A8320C10103248101DC
:100BB800832441011301010267800000130101FF32
:100BC800232481002326110013040500EFF05FF6AB
:100BD80003250400032481008320C100B757008047
:100BE8003757008037560080B7550080938787268F
:100BF800130747E993068004130606EE938545F626
:100C08003335A000130101016FF05FC8130101FE25
:100C180023244101376A0080232631019309050006
:100C280013058AE6232E1100232C8100232A910024
:100C380023282101EFF0DFEF03A50900B754008056
:100C48003759008037540080B755008093078926AC
:100C5800138744EB130604EE930690079385C502A9
:100C68003335A000EFF09FC213058AE6EFF09FC866
:100C780003A50900130604EE032481018320C101A2
:100C88008329C100032A810093078926138744EB2F
:100C98000329010183244101B75500809306D00739
:100CA8009385C50413351500130101026FF01FBEAB
:100CB800130101FE232C810037640080232A910050
:100CC800130610009304050093050000130584E53E
:100CD800232E110023282101EF205075B71600801C
:100CE800B76500803765008013870400930800000B
:100CF8001308000093070000938606AD1306002032
:100D0800938505332322010023200100130585E77D
:100D1800EF30401E1309050013850400EFF05FE172
:100D2800130584E59305F0FFEF308001032481016A
:100D38008320C1018324410113050900032901010E
:100D4800130101026F304044130101FF2324810085
:100D58001304050037650080930500001306100092
:100D6800130585E523261100EF20506C13050400B8
:100D7800EFF01FDC93050400032481008320C100E9
:100D880037150080130505A8130101016F00007EC7
:100D9800130101FF2324810037640080130584E6D2
:100DA80023261100EF20C023130584E6EFF05FF03F
:100DB800032481008320C100376500801305C5D452
:100DC800130101016FF0DFEE130101FF23248100FD
:100DD80037640080130584E623261100EF204020A5
:100DE800130584E6EFF05FD0032481008320C1005F
:100DF800376500801305C5D4130101016FF0DFCEFC
:100E0800130101FF2324810037640080130584E661
:100E180023261100EF20C01C130584E6EFF0DFF253
:100E2800032481008320C100376500801305C5D4E1
:100E3800130101016FF05FF1130101FF2324810009
:100E480037640080130584E62326110023229100CD
:100E5800EF200019930484E603A50400B757008027
:100E68003757008037560080B75500801335150076
:100E780093878726130747EC9306700B130606EE35
:100E8800938505F9EFF09FA0130584E603248100FC
:100E98008320C10083244100130101016FF01FD793
:100EA800130101FF2324810037640080130584E6C1
:100EB80023261100EF20C012930584E60324810045
:100EC8008320C10037150080130545C113010101B6
:100ED8006F00C069130101FD232E110023240103B3
:100EE80023261103631805041386060013870500DB
:100EF800B7560080B75500803755008093078102A8
:100F08009386C60693850508130505DD2326F1009B
:100F1800EF10C0488325C10037550080130585268A
:100F2800EF10C0443755008013050529EF1000471E
:100F3800EF10101B8320C10113010103678000001B
:100F4800130101FE13050100232E1100232C81003B
:100F5800232A910023282101EF208008930500000F
:100F680013050100EF204025B75400803759008051
:100F780037540080B7550080930789261387C40625
:100F8800130604089306C0019385050D1335150053
:100F9800EFF05FF49305400613050100EF20C02130
:100FA800B7550080930789261387C40613060408DB
:100FB8009306D0019385C50F13351500EFF09FF107
:100FC8008320C101032481018324410103290101F4
:100FD8001301010267800000130101FFB76500805B
:100FE80023229100938485EE938585EE23261100B4
:100FF8002324810013040500EF2000059385840055
:1010080013050400EF204004938504011305040030
:10101800EF20800313050400032481008320C1000E
:101028009385840183244100130101016F20C001CD
:10103800130101FD232E110023240103232611038C
:10104800631A050437570080B7560080B7550080EB
:101058003755008093078102130707FB93864612D2
:101068001306300293850513130505DD2326F100C9
:10107800EF10C0328325C10037550080130585263F
:10108800EF10C02E3755008013050529EF100031E9
:10109800EF1010058320C1011301010367800000D0
:1010A800130101FE232C810037640080130484EEB1
:1010B800232A9100232821012326310123244101D9
:1010C8002322510123206101232E1100130B050057
:1010D80093040402375A0080B75A0080B759008039
:1010E800375900809305000013050B00EF20C00C52
:1010F8003305854093878A2613074A1293063002E0
:1011080013860913930509FB13351500130484008E
:10111800EFF01FF2E31894FC8320C101032481013E
:1011280083244101032901018329C100032A810085
:10113800832A4100032B010013010102678000008C
:10114800130101FF23248100130405003755008093
:101158001305051823261100EF1040241305040079
:10116800EFF01FF43755008013050519EF10002321
:1011780013050400032481008320C1001301010129
:101188006FF09FE5130101FF2322910093040500EE
:10119800375500801305451A2326110023248100A2
:1011A800EF10C01F13850400EFF09FEF3764008035
:1011B800130584F0EF205030375500801305851B48
:1011C800EF10C01D13850400EFF01FE1130584F034
:1011D800032481008320C1008324410013010101FD
:1011E8006F20902D130101FC232C810237640080AD
:1011F800130584F1232A9102232821032324410380
:101208002322510323206103232E7101232C810102
:10121800232A91012328A101232E11022326310319
:1012280093040000EF10D05B375D008037690080C1
:10123800376C0080B76B0080B71C0080375B00807C
:10124800B71A0080375A00809385040013050D1DD6
:10125800EF10C0141306100093050000130589F061
:10126800EF20D01C9307000093080000130800002B
:10127800130784F19386CC181306002093050C53AA
:10128800232201002320010013858BF2EF209046D2
:101298009309050013050B1FEF104010130584F187
:1012A800EFF09FD3930584F113858A14EF00002C87
:1012B8009305F0FF130589F0EF2090289305F0FFC0
:1012C800130589F0EF20D02713054A20EF10000DF1
:1012D800130584F1EFF0DFDC13850900EF20D06AF5
:1012E8003755008013050529EF10400B938414002F
:1012F80093070002E39AF4F48320C10303248103D3
:1013080083244103032901038329C102032A81029B
:10131800832A4102032B0102832BC101032C810183
:10132800832C4101032D0101130101046780000092
:10133800130101FF23261100232481009307600075
:101348006304F502EF20902F63040502EF20102FAD
:1013580063160504B75500809385C53E3755008050
:1013680013050540EF108003EF1040076FF0DFFF13
:10137800EF20D02DE31C05FC376400801304840F94
:10138800832584003755008013050542EF100001BE
:1013980003258400EF20505F6FF01FFDB7550080D4
:1013A8009385853E6FF09FFB130101FB2324810485
:1013B8002322910423261104930760009304050057
:1013C8001384050063E0A70E3757008093172500A4
:1013D80013074721B387E70083A707006780070043
:1013E800375500801305C526EF00507BEF205003CA
:1013F80083274404832804010328C4002328F10216
:101408008327040403274400832604002326F102CB
:101418008327C40303268404930505002324F102CB
:1014280083278403375500801305052F2322F102F3
:10143800832744032320F10283270403232EF1008A
:101448008327C402232CF10083278402232AF10076
:10145800832744022328F100832704022326F1006E
:101468008327C4012324F100832784012322F10068
:10147800832744012320F10083278400EF001072A2
:101488009305040013850400EFF09FEA37550080A8
:10149800130545296FF05FF5375500801305052BB7
:1014A8006FF09FF437550080938504001305C52C11
:1014B800EF00D06E6FF09FF3130101FF232481002A
:1014C8002326110013040500732620341316160072
:1014D800135616009307500063E8C7023757008079
:1014E8009317260013070723B307F70083A5070000
:1014F8003755008013050525EF00506A9305040051
:1015080013050000EFF05FEAB75500809385852446
:101518006FF01FFE130101FF23261100F32520346D
:10152800375500809395150093D51500130505527E
:10153800EF00D066B75500809385854413054000B9
:10154800EFF09FE6B7670080938707D703A70700E8
:10155800630C070003A3070023A00700B7670080F8
:1015680003A547D767000300678000009307800042
:10157800F3B70730376700802328A7D6376700807E
:10158800232AB7D67300000093F78700F3A7073024
:1015980067800000130101FF23261100EF10406F40
:1015A800EF00D065EF1080751761000013010198F6
:1015B800B71200009382028033015100EFF09FFDC3
:1015C8006F008011130101FD23248102232291025F
:1015D80023202103232E310123261102938906009B
:1015E8009306F00093040500138405001309060010
:1015F800639CD808B7360080938606C6639CD908D2
:101608008326010393850800138504001306400010
:10161800232601012324F1002322E100EF201035C5
:1016280083278100930509FBB305B40023AE0404A6
:1016380023A0040693F505FF23A8F502B7270000A9
:10164800032741000328C1009387078823A6F504D0
:10165800B71700808320C102032481029387875C27
:1016680023A4350323A6E50223AA050323A4F5042E
:1016780023A4B40203290102832441028329C1015E
:101688001301010367800000938608011306E00137
:10169800E378D6F637560080B75500803755008076
:1016A80093068001130686549385055813054562F1
:1016B80023221101EF00904E832841003755008006
:1016C800930600FF1306E0009385080013054564A0
:1016D800EF00D04C6F000000130101FF93070500D5
:1016E80013850500930506001386060023261100BE
:1016F800E7800700EF20C052EF2010299307C000B1
:101708003387F5028327C500B387E7000307B500D1
:101718006354B70083A70700130700023347E602A4
:101728001375F60113172700B387E70023A0F60007
:1017380067800000130101FE9306C100232E1100EB
:10174800EFF0DFFB0327C100930710003395A700D4
:10175800832707008320C101B3E7A7002320F700F0
:101768001301010267800000130101FE9306C10006
:10177800232E1100EFF09FF80327C10093071000F4
:101788003395A700832707008320C1011345F5FF80
:1017980033F5A7002320A70013010102678000008A
:1017A8008327450003588500130101FF2324810086
:1017B8003308F80213040500032505008348A40034
:1017C8001307F0FF2326110023229100A305E4004C
:1017D800930500001303C00033050501130EF00143
:1017E800930E000263C2150393040000835784001C
:1017F80063C4F4068320C1000324810083244100CC
:1018080013010101678000003357F8020326C40062
:10181800B3866502B306D6001386460023A2C60027
:1018280023A4C600634EEE00A305B40093D7270097
:101838009387370093F7C7FF938515006FF09FFADA
:101848001307F7013347D70323A0A6001317270070
:101858003305E5006FF09FFD8327440013860400DD
:10186800930500003387F40283270400130504005E
:1018780093841400B387E7000327C4009306470046
:1018880023A0D7008326870023A2D70083268700BA
:1018980023A0F6002324F700EFF0DFE96FF01FF52F
:1018A800130101FB23248104232E31032328610320
:1018B800232611042322910423202105232C4103EC
:1018C800232A51032326710323248103232291030E
:1018D8002320A103232EB10113040105034EA50003
:1018E8009309F0FF930EC00093172E009387F7001B
:1018F80093F7077F3301F14083274500130B01005D
:1019080093080B009387370093F7C7FF2320FB004A
:1019180093070000938DF7FF63D2C703638C07001A
:1019280003A8C8FF13582800130838001378C8FF05
:1019380023A0080103A80800637AB8049307F0FFFE
:10194800639AFD0623200700130540FF130104FBDB
:101958008320C1040324810483244104032901044E
:101968008329C103032A8103832A4103032B01032B
:10197800832BC102032C8102832C4102032D010217
:10198800832DC10113010105678000003388D70347
:101998000323C50033080301130348000328480044
:1019A80063046800938907009387170093884800A9
:1019B8006FF05FF6E388F9F8834705011309000023
:1019C80093F71700638807001309800073390930FB
:1019D800137989009307C000B387F902232EE4FA2C
:1019E800938C0600130C0600930405009306F0FF81
:1019F800138747008327C500B387E70083AB070039
:101A08006384771783A70B0083A64B00139A2900DA
:101A1800330A4B0123A0F60023A2D70083A70400B2
:101A280003260A0093850900B387FB4033C6C70223
:101A38001385040093891900EFF01FD31308C00021
:101A48009387F9FF63C2B70583C7040193F71700AB
:101A580063840700732909302320BC01939D2D005E
:101A680083A70400330BBB0183260B00B387FB401D
:101A780013050000B3C7D70223A0FC008327C4FBCB
:101A880023A077016FF09FEC03AD040083270A00C1
:101A9800B38E0903338DAB4193061000334DFD021D
:101AA800131D2D00832A4A003386A6019385090059
:101AB800338EDA02138504002328D4FB232CD4FAAE
:101AC800938AFAFF338ECB01232AC4FBEFF09FC61B
:101AD800032E44FB83A7040003A64400B30A5E0157
:101AE800B38AFA4083D78400832684FB832E04FBC1
:101AF800B387C7021308C00093084000130380008F
:101B080063F4FA0283A7C400B387D701138647009A
:101B18002320CE0003A687002322CE0003A6870039
:101B28002320C60123A4C70193861600E39C16F759
:101B380083C7040193F71700639A0700130900008D
:101B480093891900130A4A006FF09FEF732909302F
:101B580083C7040193F71700E38207FE7339033044
:101B6800137989006FF0DFFD9389F9FF93874BFFA5
:101B7800E396D9E8930B00006FF01FED130101FA0B
:101B8800232C8104232A910423206105232E110488
:101B98002328210523263105232441052322510525
:101BA800232E7103232C8103232A91032328A103C5
:101BB8002326B103130401068347A50093040500F7
:101BC80093061000939727009387F70093F7077FF2
:101BD8003301F14083274500130B010013070B0065
:101BE8009387370093F7C7FF2320FB0013074700AD
:101BF80063FCD50883C7040113890500130A06008E
:101C080093F7170093090000638807009309800081
:101C1800F3B9093093F98900930CC000130D8000C3
:101C2800930A4000930DF00093172900B307FB00B7
:101C380083AB070003D7840003A64400B3077A03E5
:101C480083A60400138CFBFF3307C702B386F60094
:101C5800B307FC0063E8E70437560080B7550080F7
:101C680037550080130545629306200A13068667D8
:101C78009385C56AEF008072375500801305856C1F
:101C8800EF00C0716F0000008327C7FF938616001E
:101C980093D727009387370093F7C7FF2320F700D0
:101CA8006FF0DFF413060A0093050900138504009A
:101CB8002326D4FAEFF01FA8B307990303A7C4009B
:101CC8008326C4FAB307F7001387470023A0E6006A
:101CD80003A7870023A2E60003A787002320D700D5
:101CE80023A4D70083C7040193F71700639E070452
:101CF80093070000938907006316090603C70401C8
:101D08001377170063160710130104FA8320C1051F
:101D18000324810583244105032901058329C1047E
:101D2800032A8104832A4104032B0104832BC10362
:101D3800032C8103832C4103032D0103832DC1024E
:101D48001301010667800000F3A9093083C7040165
:101D580093F71700E38E07F8F3370D3093F78700F2
:101D68006FF05FF99306C4FB13060A009305090098
:101D7800138504002326F4FAEFF05F9833455503E2
:101D88008326C4FB8327C4FA1317250003A506007E
:101D98003355E5001375F500E312B5F79307000016
:101DA8009378CAFF83D6840083A544003386F8005D
:101DB80033087603B386B602330788016370D70405
:101DC8009305090013850400232214FB2324F4FA45
:101DD800232604FBEFF05F9903A704000328C4FA45
:101DE800832844FA832784FA3307070183264700A8
:101DF8000327070023A0E6002322D70093871700B4
:101E0800E39257FB1309F9FF334A5A036FF0DFE1F6
:101E1800F3A707306FF05FEF13050000678000003D
:101E280083A705009387170023A0F500B7670080F4
:101E380003A307CF67000300130101FB23248104D8
:101E4800232E3103232C4103232A51032328610322
:101E5800232611042322910423202105232671031C
:101E680023248103232291032320A103232EB101DC
:101E7800130A0500938A050093090600138B0600D0
:101E8800130410006354E0001304070093071000C4
:101E9800130C00026314FB00130C0003B7D49A3B25
:101EA80013091000930CA000130700009384F49FFB
:101EB800930D2000130DA000938B140063140700EA
:101EC80063F2340933D5790393850A00130919009D
:101ED80013050503E7000A0013071000938CFCFFA5
:101EE80093071000B3F97903B3D4A403E396FCFC79
:101EF80093850A0013850903E7000A009307300059
:101F080033042441630AFB068320C10403248104AB
:101F180083244104032901048329C103032A81037B
:101F2800832A4103032B0103832BC102032C810263
:101F3800832C4102032D0102832DC10113010105E8
:101F480067800000E34C94F9E3EA6DF993850A0091
:101F580013050C002326E100E7000A001309190005
:101F68000327C1006FF09FF793850A00130500024D
:101F7800E7000A001304F4FFE34880FE6FF0DFF87F
:101F8800B767008023A8A7CE67800000130101FB74
:101F9800232481042322910423202105232E3103A5
:101FA800232C4103232A510323286103232291036D
:101FB800232EB10123261104232671032324810330
:101FC8002320A1031304050093840500130B0600C6
:101FD800938C0600130A00001309F0FF9309000010
:101FE800930D0000930A100003450B0063100504CD
:101FF8008320C104032481048324410403290104A8
:102008008329C103032A8103832A4103032B010384
:10201800832BC102032C8102832C4102032D010270
:10202800832DC1011301010567800000639E0D0027
:1020380093065002630AD53093850400E700040034
:10204800130B1B006FF05FFA93064006630ED51062
:1020580063E2A6069306900363EAA60293061003BA
:102068006374D50E9306D002630AD52E9307000336
:102078006300F50C130750026312E5029385040010
:1020880013055002E70004006F0000129306800554
:10209800630CD51613073006630CE52893850400F6
:1020A80013055002E70004009385040003450B0064
:1020B8006FF05FFD930600076308D51263E0A60280
:1020C800930690066302D50A9306C006630AD508EC
:1020D80093068006E306D5F66FF05FFC930650077B
:1020E8006302D50E63EEA60213073007E318E5FA7C
:1020F800138C4C0083AC0C00938B0C0003C50B00B5
:1021080063160520930730006398F900B38B9B4151
:10211800B30B794163447021930C0C006F00C00825
:10212800930680076302D50E9306A0076FF09FFA07
:10213800635E090063880922130905FDE39209F02B
:10214800930920006FF0DFEFE34809FE9306A00033
:102158003309D902130909FD330925016FF01FFE60
:10216800130A1A006FF0DFED63C44A0503A60C00DA
:10217800938C4C0063500602938504001305D0022B
:102188002324C100E7000400032681001309F9FF96
:102198003306C0401307090093860900938504009D
:1021A80013050400EFF05FC9930D00006FF05FE9BD
:1021B80093877C0013F787FF930C8700032607009B
:1021C8006FF05FFB63C84A0103A60C00938C4C00B8
:1021D8006FF05FFC93877C0013F787FF930C8700F1
:1021E800032607006FF01FFB938504001305000307
:1021F800E70004009385040013058007E700040046
:10220800130980009309100063CA4A0983A70C00C8
:10221800938C4C002324F10013068000130C00005B
:10222800130D00009305800083278100938BF5FF31
:1022380013952B0033D5A7001375F5006312050815
:102248009306000363140D00639655093385A600B1
:102258001315850193850400135585412326C10074
:10226800E7000400130C1C000326C10063940B0450
:1022780093063000930D0000E394D9DC131719007E
:10228800330C8741E35280F3938504001305000261
:10229800E7000400130CFCFF6FF0DFFE93877C005F
:1022A80093F687FF83A70600938C86002324F1000A
:1022B8006FF09FF6138D0D0093850B006FF0DFF61E
:1022C8009307900093067005E3E2A7F893060003CE
:1022D8006FF0DFF79307F6FF2326F100634AC90082
:1022E800639C59019385040013050003E70004006B
:1022F8000326C1006FF05FFC93072000E39AF9FE04
:1023080093850400130500026FF05FFE93850400B7
:10231800938B1B00E70004006FF05FDE93850400D9
:1023280013050002E7000400938BFBFF6FF09FDEAC
:1023380003A50C00938B4C0093850400E700040070
:10234800938C0B006FF05FE6130A00001309F0FF8F
:1023580093090000930D10006FF09FCE9309300091
:102368006FF01FCE930910006FF09FCD130101FE8F
:10237800130605003725008093860500130585E2BE
:102388009305C100232E110023260100EFF01FC082
:102398008320C1011301010267800000130101FCC1
:1023A8002322B10293054102232E11002324C102E6
:1023B8002326D1022328E102232AF102232C010338
:1023C800232E11032326B100EFF05FFA8320C10109
:1023D80013010104678000006780000093078000F4
:1023E800F3A70730730050106780000093071000B0
:1023F8003395A70073254530678000009307800058
:10240800F3B7073073504030735040346780000092
:10241800130101FF232481002322910037640080E7
:10242800232611009307A00093040500130484D702
:10243800631CF500032504009305D000832745009D
:1024480083A74700E78007000325040093F5F40FEE
:102458008327450083A74700E78007008320C10042
:102468000324810013850400832441001301010122
:102478006780000037250080130585416FF05FB045
:1024880037550080130101FF1305C56C2326110081
:10249800EF00C072B767008023ACA7D6EFF09FFDAE
:1024A8008320C100130500001301010167800000AB
:1024B800B70710F003A747F403A507F483A547F46B
:1024C800E39AE5FE67800000130101FE232C8100DA
:1024D800232E1100232A91002328210123263101CC
:1024E8001304800073340430B7640080938404D8E4
:1024F800EFF01FFC03A9040083A94400130705009B
:10250800330525413337A700B385354137D6010058
:102518001306064C93060000B385E540EFD05FD65E
:10252800B7D701009387074CB387A70213748400B9
:1025380033892701B337F900B387370123A0240172
:1025480023A2F40073240430032481018320C101F1
:1025580083244101032901018329C10013010102D8
:102568006F10D07D130101FF23261100EFF05FF4F7
:10257800B7D701009387074C370710F0B307F5006A
:102588009306F0FF2326D7F433B5A7003305B5002B
:102598002324F7F42326A7F413057000EFF01FE5B2
:1025A8008320C100130500001301010167800000AA
:1025B800639C050C130101FF2324810023261100CD
:1025C800232291009307F0FF130405006316F5001A
:1025D800B79700001384E7BC93048000F3B4043079
:1025E800EFF01FED379700009307F4FF1307E7BCE0
:1025F80093F484006354F7089307070037D7010062
:102608009305074CB386B702B7670080938707D84E
:1026180003A6070003A847009307F74BB387C740F3
:10262800B387A7003305A6401307703EB387D700CA
:10263800B3D7B702B387B7023305F5006344A700E1
:10264800B387B700370710F03386C7009306F0FF4B
:102658002326D7F4B337F600B38707012324C7F43A
:102668002326F7F4F3A404308320C1000324810057
:10267800832441001301010167800000E3D007F8BB
:10268800930700006FF09FF767800000130101FFB8
:10269800232481002326110013048000733404309E
:1026A800EFF01FE1B767008083A707D81374840091
:1026B8003305F540B7D701009387074C3355F5022A
:1026C800732404308320C100032481001301010115
:1026D800678000008347050003C705006394E7008F
:1026E800639607003385E7406780000013051500EF
:1026F800938515006FF01FFEB347B50093F73700B9
:10270800638007069307050013070000631AE606AF
:1027180067800000E30E06FE9385150003C7F5FFEA
:10272800938717001306F6FFA38FE7FE13F737000A
:10273800E31207FE930630003308E64063E606031B
:10274800135726009306C0FFB306D70213172700B6
:10275800B387E700B385E5003306D6006FF0DFFAEC
:10276800930705006FF09FFCB388E50083A8080075
:102778003388E70013074700232018016FF0DFFBB9
:102788003388E50003480800B386E70013071700FD
:10279800238006016FF09FF793F6F50F9307050066
:1027A80013F737006318070493F5F50F139785009F
:1027B800B365B70013970501B365B7003383C70046
:1027C8001387070013083000B308E340636E18034B
:1027D8001357260093152700B387B7009305C0FF4A
:1027E8003307B7023307C7003387E7006394E7026C
:1027F80067800000E30E06FE93871700A38FD7FEBD
:102808001306F6FF6FF0DFF913074700232EB7FE14
:102818006FF09FFB93871700A38FD7FE6FF01FFD04
:10282800130101FF232601008327C10093871700A6
:102838002326F100B70701F023A0B7001301010117
:10284800678000001305F0FF678000001305000093
:1028580067800000130101FE232C81008327850077
:1028680037640080232A9100130444CFB7640080A2
:10287800232E11002328210123263101938484D893
:1028880093091000232004001309050023A0340134
:10289800E78007008327490023203401E7800700E9
:1028A800930720002320F4008327C900E78007004E
:1028B800930730002320F4000324810123A004009F
:1028C8008320C10183244101032901018329C10017
:1028D80037650080130585F9130101026F10C03DAB
:1028E80037650080130101FFB76700801307F0FF09
:1028F800130585F92326110023A4E7D8EF10C03B60
:10290800EF1000328320C100130101016F10D007BE
:10291800130101FA232A9104B764008083A7C4D85D
:10292800232E1104232C8104232821052326310575
:10293800232441052322510523206105232E7103F9
:10294800232C8103232A91032328A1032326B103DF
:1029580063C4070837640080130610009309050054
:10296800138C0500130584F993050000EF10002C63
:10297800375500809385090013050570EFF01FA2F5
:102988003759008013058971B75A0080EFF01FA1ED
:102998009384C4D8130A0000232E8100B76C0080EA
:1029A800376B0080373D0080B76D0080B75B0080D3
:1029B800938A4A6F83274C00639E07049385090016
:1029C80063060A103755008013058578EFF01F9DC0
:1029D8009307100023A0F4008320C1050324810578
:1029E80083244105032901058329C104032A81049D
:1029F800832A4104032B0104832BC103032C810385
:102A0800832C4103032D0103832DC1021301010609
:102A18006780000083250C00B75700801385077670
:102A2800EFF0DF972322010083270C0113070C0026
:102A38001306004093E787009308F0FF130800008F
:102A48009306CD852320F10093850C73930700002E
:102A580013058BFAEF10004A8327C1019305F0FF95
:102A6800138587F9EF10C02D93878DD813058BFA3E
:102A780003A40700EF104071B7670080938787D8D9
:102A880003A70700130414009307E0FF133414008E
:102A980003260C006314F702B75500809385457729
:102AA8001385CB77EFF09F8F13058971EFF01F8F98
:102AB800330A8A00130C4C016FF0DFEF93172400E0
:102AC800B387FA0083A507006FF09FFD3755008094
:102AD8001305057AEFF09F8C83A70400B337F00045
:102AE8006FF05FEFB767008083A7C7D8130101FFB6
:102AF8002324810037550080232611003754008095
:102B08001305857163820702EFF05F89B75500806E
:102B18009385C57B1305447C032481008320C10071
:102B2800130101016FF09F87EFF05F87B7550080B1
:102B38009385C57D6FF01FFE130101FF2326110049
:102B4800EFD09FB78320C100130101016FF09FF9F7
:102B580013172500B7570080130515009387877F43
:102B680013152500130101FF3387E700B387A7007A
:102B780023248100232291000324070083A4070053
:102B880023261100636C94008320C1000324810074
:102B9800832441001301010167800000832704009A
:102BA8001305040083A74700E780070063040500B6
:102BB800232204001304C4006FF0DFFC130101FF9B
:102BC800B767008023229100B76400802324810026
:102BD80023261100138487D023202101938787D0CF
:102BE800938484D3631C940013090500138407009D
:102BF80063149402130400006F0040040327440088
:102C08006308070003270400032707006308A702D7
:102C18001304C4006FF01FFD832744006396070068
:102C28001304C4006FF0DFFC8327040013050900B8
:102C380083A50700EFF01FAAE31405FE130504009F
:102C48008320C1000324810083244100032901005B
:102C58001301010167800000130101FF2324810093
:102C680023229100232611001304800093042000DE
:102C7800F3370430EF10406863C4A4001305100054
:102C880093051000EF101006EFF04FF56FF05FFEA0
:102C980037650080B7670080130605D7938747120A
:102CA8003386C74093050000130505D76FF0DFAEE4
:102CB800130101FF1305200023261100EFF05FE93F
:102CC800376500801305C581EFF04FED130530001F
:102CD800EFF01FE8EF100034EFF01FE6B767008051
:102CE8009387870803C7C7001377E7FF2386E700A2
:102CF8008320C1001301010167800000130101F660
:102D0800232A910893040101130600079305000084
:102D180013850400232E1108232C81082328210958
:102D280023263109EFF05FA737640080B77700806A
:102D38009309840F938707731305000023A2F900F2
:102D4800EFF01FE113051000EFF09FE0930710105C
:102D580023A49900231EF100EF009049B767008073
:102D68009387C780376900802322F100B736008037
:102D780093071000B7750080930489082320F10099
:102D880013070000930700009308000013080000D1
:102D9800938686CB13060020938505B3130589080F
:102DA80023A09902EF10401183C7D4001304840FA5
:102DB80013F7B7FFA386E40093F7B701639C0700F6
:102DC80003A704029307F0FF6316F70013058908A9
:102DD800EF004079B7670080938747812322F1008D
:102DE8003765008093071000B7360080B7750080FC
:102DF800930485012320F1009308F00013080000D4
:102E08009307000013070000938606C613060020E8
:102E1800938505D313058501EF10000A83C7D400F5
:102E2800232694001305800093F7B7FFA386F400C8
:102E3800B767008093870711232CF400232EF40032
:102E48007335053013758500EFD08FBE8347D500E5
:102E580093F7F701639A0700032705029307F0FF2A
:102E68006314F7006F00007067800000130101FD14
:102E7800232481022322910223202103232E3101BE
:102E880023261102232C4101130405001389050090
:102E9800930906002326D10093048000F3B404307C
:102EA80013058500EF00900793F484008326C10082
:102EB80063000504130A0500EFF05FF923260A06EC
:102EC800232A3A0113850400EF000050130500007F
:102ED8008320C102032481028324410203290102C1
:102EE8008329C101032A81011301010367800000BE
:102EF8006388060413058000EF105030930705001F
:102F0800130540FFE38607FC1307100023A23701CF
:102F180023A0E70003A70700937637006318090288
:102F2800032704003367D70023A0E70003274400E2
:102F38002320F400E31807F82322F4006FF09FF829
:102F480023A00900938709006FF0DFFC032709001D
:102F58001377C7FF6318070223A0D700832644000E
:102F6800639806002322F4002320F4006FF09FF5F5
:102F780003A706001377370033E7E70023A0E6002E
:102F88006FF09FFB3367D70023A0E70003250900F4
:102F980013753500B3E7A7002320F9006FF09FF2FF
:102FA800130101FF232481002326110013040500C7
:102FB800630E05008327050093F737006388070031
:102FC8000324450063840500EF1050221305040014
:102FD8008320C100032481001301010167800000E0
:102FE8009307850023200500232205002324F500EC
:102FF8002326F50067800000130101FF23248100C8
:103008002326110023229100130480007334043016
:103018001305850013748400EF004070630A0500EF
:1030280093040500EFF09FE223A6040623AA0400F8
:1030380013050400032481008320C1008324410078
:10304800130101016F0040381386050083254500F0
:10305800930600006FF09FE1130101FE232E11007B
:10306800232C8100232A91002328210123263101C2
:10307800232441012322510163860500130A060017
:10308800631A060237660080B765008037550080EE
:10309800130545629306A00E130686859385458819
:1030A800EFF0CFAF3765008013054589EFF00FAF1C
:1030B8006F00000093090500138405009304800045
:1030C800F3B40430930A850013850A00EF00006505
:1030D80093F4840013090500631C090083A74900C1
:1030E800639E070423A0890023A249016F00800280
:1030F80013050900EFF09FD5232A89000324040053
:103108002326090613850A00EF004061130905000C
:10311800E31404FC032481018320C1010329010174
:103128008329C100032A8100832A410013850400F2
:1031380083244101130101026F00002983A50700C0
:1031480093F535003364B40023A087006FF0DFF9EE
:10315800130101FF232481001384050083A50500C2
:1031680023261100639A050237660080B765008040
:10317800375500801305456293068010130686852F
:103188009385C58AEFF08FA1376500801305858C7C
:10319800EFF0CFA06F00000003264400EFF0DFEB54
:1031A8008320C1002320040023220400032481007B
:1031B8001301010167800000130101FF232481002E
:1031C800232611009307050013048000733404308C
:1031D8000325050013748400630005040327050014
:1031E80083A647001377C7FF23A0E7006314D50021
:1031F80023A2E70093051000EFF09FDA930705007C
:10320800732404308320C100032481001385070040
:10321800130101016780000013860500639805000B
:1032280073240430930700006FF0DFFD9385870057
:1032380013050400EF00C07393070000E31405FCB6
:10324800B767008083A7071083A747016FF09FFB2C
:10325800130101FF23261100EFF04FC3B767008069
:1032680083A747D98320C100376700803385A7002B
:103278002324A710930500001385070013010101FB
:103288006F104026130580007335053013758500CF
:1032980067800000130101FF232481003764008048
:1032A8009307840F2322910083A447022326110049
:1032B800938747021304840F6384F4006394040023
:1032C8008324C400832784006318050463860704E5
:1032D80003C7D7001377F7016310070483A6070213
:1032E8001307F0FF639AE60283D6E7001307F00797
:1032F8006374D70237670080032747D0638EE700DF
:103308002320F4028320C100032481008324410088
:10331800130101016780000063849700EFF05FF3F9
:10332800232094026FF01FFE130101FE232E1100CB
:10333800232C81002326B10013040500EFF09FF42D
:10334800B767008023A40710130494009307A00014
:103358003344F4028325C100B76700802324A10009
:1033680023AA87D8B767008023A8B7D8EFF05FEE05
:103378000325810013758500732505308320C1015D
:10338800032481011301010267800000130101FF7A
:10339800232481002326110013040500EFF09FEE7B
:1033A80093070500032504006314A4001305000017
:1033B80093F78700F3A707308320C1000324810017
:1033C8001301010167800000B76700809387870FAA
:1033D80083A6070013070500639A060083A68700E3
:1033E80083A707026384F6006FC09FE41377870002
:1033F8007327073067800000130101FF2324810031
:10340800376400801304840F832784002326110067
:103418002322910083C7F700639A0702376600806A
:10342800B765008037550080130545629306701D07
:103438001306C6999385859CEFE05FF637550080A3
:103448001305856CEFE09FF56F00000083270400EB
:10345800638A070237660080B765008037550080A9
:10346800130545629306801D1306C6999385C59575
:10347800EFE0DFF2375500801305856CEFE01FF2AF
:103488006F000000EFF01FE003278400930405009D
:10349800130510008347F70093F4840093871700FF
:1034A800A307F700EFF01FDFF3A404301305800033
:1034B80073350530032481008320C1008324410033
:1034C80013758500130101016FF01FF0B7670080C5
:1034D80083A747D06398F50237660080B7650080F8
:1034E80037550080130101FF9306D0211306C699B2
:1034F8009385858F1305456223261100EFE01FEAA7
:103508006F000000832705006310F502832745003C
:1035180023A0A50023A2F5008327450023A0B70018
:103528002322B50067800000E38207FE0387E500D9
:103538008386E700635ED70003A7470023A0F50052
:1035480023A2E5002320B70023A2B700678000006C
:1035580083264500E38CD7FA83A70700E39A07FC84
:103568006FF0DFFA130101FF2326110023248100E5
:103578002322910093040500EFF0DFD01304050027
:1035880037650080938504001305C511EFF01FF41B
:1035980083C7D400130500001374840093E707045D
:1035A800A386F400EFF01FCF732404308320C100FA
:1035B8000324810083244100130101016780000076
:1035C8008347D50093F7F701639A0700032705029D
:1035D8009307F0FF6314F7006FF0DFF867800000CF
:1035E800B767008083A747D06398F50237660080E5
:1035F800B765008037550080130101FF9306C0228C
:103608001306C6999385858F1305456223261100F5
:10361800EFE0DFD86F00000003A7450083A705008F
:103628002320F70023A2E70067800000130101FFB1
:10363800232481002322910013040500232611006E
:10364800EFF05FC4930405000325840063140502AA
:1036580037660080B76500803755008093061015DF
:103668001306C6999385C59013054562EFE01FD3ED
:103678006F00000093050400EFF09FF68347D40025
:1036880093F4840093F7D7FFA306F400F3A404305F
:10369800232404008320C1000324810083244100E3
:1036A8001301010167800000130101FF2324810039
:1036B8002326110013040500EFF05FF713058401BA
:1036C800032481008320C100130101016F00903D94
:1036D800832705FF130101FF232481002322910082
:1036E8002326110013040500930485FE6386070052
:1036F80013850400EFF09FF3834754FF8320C10034
:103708001385040093F7B7FFA30AF4FE032481008E
:1037180083244100130101016FF09FEA130101FFA7
:10372800930500002324810023261100EFF01FC613
:103738001304050063080500EFF05FEF130584012B
:10374800EF005036130504008320C10003248100D4
:103758001301010167800000130101FE23282101E4
:10376800376900801309890F232E1100232C81004B
:10377800232A9100232631011304050093094902E5
:10378800EFF05FB09305040093040500138509006A
:10379800EFF01FE59305040013850900EFF01FD330
:1037A8008347D4000325890093F4840093E7070432
:1037B80033058540A306F40013351500EFF09FADDF
:1037C800F3A404308320C10103248101832441012F
:1037D800032901018329C100130101026780000048
:1037E800B767008083A747D963880706B767008053
:1037F8009387870F03A787009306F0070356E70010
:1038080063ECC604B76600800306E70083A606D902
:103818006344D604B766008083A646D0630ED702F9
:10382800032607029306F0FF6318D60283A6070152
:103838006340D502130101FF130507002326110079
:10384800EFF09FF18320C100130101016FF05FA029
:10385800B386A64023A8D70067800000130101FFA4
:10386800232481002322910013040500232611003C
:1038780023202101EFF01FA18347D4009304050002
:1038880093F70704638A0702376900801309890FD1
:103898001305490293050400EFF09FD48347D40031
:1038A8000325890093F7F7FB33058540A306F40049
:1038B80013351500EFF01F9E93F48400F3A4043031
:1038C8008320C100032481008324410003290100CF
:1038D8001301010167800000130101FF2324810007
:1038E800232291002320210193040500232611009F
:1038F8001389050013040600EFF05FF683C7D400B0
:1039080093E72700A386F400630A090023A424018F
:103918009385040013050900EFF05FBB9307F0FFE0
:10392800630CF402130694001304A00033468602C5
:10393800032481008320C100032901001385840129
:1039480083244100B73500809385856D13010101FB
:10395800130616006F0050248320C1000324810041
:10396800832441000329010013010101678000003D
:10397800130101FFB76700802324810013040500A9
:1039880003A5071023261100EFF01FF51305040007
:10399800032481008320C100130101016FC05F89E6
:1039A800130101FF2322910023261100930405002F
:1039B800232481001305000003A404006384840009
:1039C800631C04008320C100032481008324410078
:1039D800130101016780000013050400EFF0DFCC3C
:1039E80013050400EFF0DFBD130510006FF0DFFCD6
:1039F800B76700809387870F1387470223A2E702E0
:103A080023A4E70293050000130500006FF0DF917F
:103A1800130101FF23248100376400808327840F6A
:103A2800232611002322910023202101638A070203
:103A380037660080B76500803755008013054562FA
:103A4800930660301306C6999385C595EFE01F95D8
:103A5800375500801305856CEFE05F946F00000018
:103A68001304840FB76700800327840083A747D017
:103A7800630CF702EFF01F818325840013094402C9
:103A88009304050013050900EFF09FB58325840012
:103A98001305090093F48400EFF05FA313051000E9
:103AA800EFF04FFFF3A404300327840083270402B8
:103AB8006304F70213058000733505300324810081
:103AC8008320C10083244100032901001375850068
:103AD800130101016FC0CFF58320C10003248100C9
:103AE80083244100032901001301010167800000BC
:103AF800130101FD23202103376900801309890F71
:103B080083270900232611022324810223229102FC
:103B1800232E3101638A070237660080B76500806B
:103B28003755008013054562930640321306C6993F
:103B38009385C595EFE09F86375500801305856C02
:103B4800EFE0DF856F0000009307F0FF631AF502CE
:103B580037660080B76500803755008013054562D9
:103B6800930650321306C6999385458EEFE01F835E
:103B7800375500801305856CEFE05F826F00000009
:103B8800631605022326A100EFF09FE80325C10074
:103B98008320C102032481028324410203290102F4
:103BA8008329C101130101036780000013049500F4
:103BB8001305A0003344A402EF00D02D9309800020
:103BC80013041400B304A400F3B9093003258900D1
:103BD800EFF0DFC803258900B7350080130604001D
:103BE8009385856D13058501EF00007B13F589002A
:103BF800EFC00FE4EF00102AB384A44013050000BF
:103C0800E35890F81305803EB395A40213064006C6
:103C1800930600003385A402EFC08FE66FF05FF7CC
:103C2800B767008003A5071067800000130101FF34
:103C380023261100631A060237660080B7650080E4
:103C480037550080130545629306D0031306069F77
:103C58009385C5A1EFE08FF437650080130585A231
:103C6800EFE0CFF36F000000637AB602376600809A
:103C7800B765008037550080130545629306E00359
:103C88001306069F938505A4EFE04FF13765008082
:103C9800130585A5EFE08FF06F0000008320C100B9
:103CA8002324B5002326C5002320A5002322A50030
:103CB8001301010167800000130101FF2324810023
:103CC8002320210123261100232291001309050036
:103CD800130480007334043013748400EFF01FA4BD
:103CE800630205048347D5009304050093F7F701A1
:103CF800639A0700032705029307F0FF6314F70090
:103D0800EFF05F8623A60406130504000324810050
:103D18008320C1008324410003290100130101010C
:103D28006FF08FEA032789008327C900B387E7402C
:103D3800B337F000B387E7002324F9006FF0DFFC06
:103D4800B767008083A7870F138605006380070481
:103D5800638E050237660080B7650080375500809E
:103D6800130101FF13054562930630081306069FE9
:103D7800938505A823261100EFE04FE23755008010
:103D88001305856CEFE08FE16F000000930780005A
:103D9800F3B707300327850093F78700630C070004
:103DA8001307F7FF2324E500F3A7073013050000E6
:103DB8006780000063180600F3A70730130500FFAB
:103DC8006780000093050500138507006FF05FBA50
:103DD800130101FF2324810023261100130480000E
:103DE80073340430138695009305A0003346B60259
:103DF800B73500809385856D13058501137484009C
:103E080013061600EF004059732404308320C100C4
:103E18000324810013010101678000008347D50056
:103E280093F7F701639A0700032705029307F0FF4A
:103E38006314F7006FF00FF367800000B767008026
:103E480003A5870F3335A00067800000B76700809F
:103E580083A7071003C5C700137515006780000006
:103E6800130101FF2324810023261100130480007D
:103E7800733404300347D5001374840093764700E5
:103E8800639C0600732404308320C100032481004E
:103E980013010101678000001377B7FFA306E5004F
:103EA800EFF0DFF713050400032481008320C1002D
:103EB800130101016FF04FD1130101FE0323010229
:103EC800232C8100232E11002320610013040500F8
:103ED800EFD04FEFB767008083A707108320C10199
:103EE80083A787062324F406032481011301010212
:103EF80067800000376300800323830F130101FEEE
:103F0800232A9100232E1100232C810083244102AF
:103F1800630A030237660080B76500803755008062
:103F2800130545629306801A130646AB9385C5951B
:103F3800EFE0CFC637650080130545AEEFE00FC64A
:103F48006F0000000323010223220100130405006F
:103F580023206100EFF05FF69307F0FF6388F40019
:103F68006392040213050400EFF09FEF13050400A9
:103F78008320C1010324810183244101130101022B
:103F8800678000009385040013050400EFF05FE4E8
:103F98006FF0DFFD83270506130101FF232481004D
:103FA800232611001304050063840700E780070037
:103FB8008347D40013F7F701631A07028326040224
:103FC8001307F0FF6394E60213050400EFF01F895E
:103FD8008347D4008320C10093E78700A306F40039
:103FE80003248100130101016780000093F7270073
:103FF8006386070013050400EFF04FE3032704026C
:104008009307F0FFE306F7FC13058401EF0080290E
:104018006FF01FFC130101FDB7670080232E3101EB
:10402800B7690080232481022322910223261102EA
:1040380023202103138487D3938487D3938989D337
:1040480063603405B767008003A7870F630C070612
:1040580037660080B76500803755008013054562D4
:104068009306200F130646929385C595EFE00FB38C
:10407800375500801305856CEFE04FB26F000000E4
:104088008327C4022322F100832704022320F1009E
:10409800832744018328C4010328840103270401DA
:1040A8008326C400032684008325440003250400D6
:1040B800EFF09FE08327040023AE87041304040372
:1040C8006FF01FF89387870F03A7870093061000E8
:1040D8008347F700639AD70237660080B765008088
:1040E80037550080130545629306300F1306469234
:1040F80093854597EFE08FAA375500801305856CA7
:10410800EFE0CFA96F0000009387F7FFA307F70040
:104118001309800073390930138404001379890066
:104128009304F0FF63623403732909300324810286
:104138008320C10283244102032901028329C1018A
:10414800130101036FF04FAB832544026388950088
:104158000325040063980500EFF09FD013040403BF
:104168006FF05FFCEFF0DFC66FF05FFF9307F0FFC3
:104178002306D500A306C5002307B500A30705003D
:104188002320F50267800000130101FF232481002A
:104198002326110023229100130480007334043075
:1041A8008347C50093F71700638A070237660080C4
:1041B800B7650080375500801305456293063002C5
:1041C8001306C6B0938505B4EFE04F9D37650080B0
:1041D800130545B7EFE08F9C6F00000093040500BE
:1041E800EFF05FDBB767008003A7870F13748400C5
:1041F800630E0700732404308320C1000324810068
:104208008324410013010101678000009387870F11
:1042180083A787001305040063949700EFC04F81BC
:10422800032481008320C10083244100130101017C
:104238006FF08F99B767008083A787D963940700C9
:104248006FE0CFC4130500006780000013058000ED
:1042580073350530137585006780000083270500D6
:10426800638807020327450063040702B7660080D6
:1042780083A6C6CF630AD50083A6870003268500D8
:10428800B386C60023A4D7002320F70023A2E700A3
:104298009307F0FF23220500232005002324F500BF
:1042A80067800000130101FF23248100232291006D
:1042B8002326110093040500EFF05FF903A784009B
:1042C8009307F0FF130405001305F0FF6308F700D8
:1042D80013850400EFF09FF81305000013748400A1
:1042E800732404308320C100032481008324410007
:1042F8001301010167800000B767008083C7C7D931
:10430800130101FF23248100232611002322910099
:10431800232021011304F0FF63960700370400806F
:104328001344F4FFEFF09FF2B7670080938787CFBD
:1043380003A90700930405006304F9026302090254
:1043480003248900EFF01FEF3305A4401304000095
:104358006348050003248900EFF0DFED3304A4402F
:1043680093F48400F3A40430B767008083A7871010
:104378006386070063D487001384070013050400CD
:104388008320C10003248100832441000329010004
:10439800130101016780000083278500130101FED6
:1043A800232E1100232C8100232A910063CA0702BF
:1043B80037660080B7650080375500801305456271
:1043C80093063004130606B9938505BCEFD01FFD8C
:1043D800375500801305856CEFD05FFC6F00000037
:1043E8002326B5002326C10013040500EFF01FE6BD
:1043F80093040500EFF01FE40326C1006344C000E6
:1044080013061000B767008003A787CF3306A600FE
:104418002324C400938787CF6306F70083A547004A
:104428006310070203A747002320F4002322E400B7
:1044380003A747002320870023A287006F000006F8
:104448008326870063DA060237660080B765008036
:1044580037550080130545629306C004130606B954
:10446800938505BDEFD09FF3375500801305856C04
:10447800EFD0DFF26F00000003268400635AD604F1
:10448800B386C6402324D700832647002320E400B0
:104498002322D40023A086002322870003A7070035
:1044A800630AF7006318E400EFF01FE593050000C6
:1044B800EFE00F9093F48400F3A404308320C1014B
:1044C8000324810183244101130101026780000054
:1044D800B306D6402324D400E386E5F40327070077
:1044E8006FF01FF4130101FE2326B100232E1100E3
:1044F800232C8100232A910093040500EFF01FD597
:1045080013040500EFF05FDF8325C10063DAA40020
:104518009307100063D6A70013850400EFE04F89C6
:1045280013748400732404308320C101032481019F
:10453800832441011301010267800000130101FE79
:10454800232E1100232C8100232A91001304050037
:104558002326310123244101B76900802328210142
:10456800376A0080EFF0CFA7B7640080EFF01FCE66
:10457800130A8ACF23AC89D8938404DA938989D91A
:1045880003240A0083A7090083A6040003A84400A3
:1045980013798500630C4401630A0400032784002F
:1045A80063DEE7043307F7402324E400B386D7002B
:1045B80013D7F74133070701B3B7F600B387E7000E
:1045C80023A0D40023A2F40023A00900EFF0DFD237
:1045D80093050000EFD0DFFD732909308320C10166
:1045E8000324810183244101032901018329C10096
:1045F800032A81001301010267800000B306D70077
:104608009355F74133B6E600B38505013306B60086
:10461800B387E740232404001305040023A0D40033
:1046280023A2C40023A0F900EFF05FC37329093067
:104638008327C40013050400E7800700EFF01FC1BB
:104648006FF01FF4130101FF2326110023248100BA
:10465800EFF0DFBF13040500EFE04F8337670080FA
:10466800130707DA9307050003250700832547008A
:10467800137484003385A700B337F500B385B700FA
:10468800732404308320C100032481001301010135
:1046980067800000130101FF23261100EFF09FFA45
:1046A8008320C1001301010167800000130101FF8D
:1046B80023261100EFF01FFE9307803EB335F50265
:1046C80013064006930600003305F502EFB05FBB02
:1046D8008320C1001301010167800000130101FF5D
:1046E800232481002322910037640080B76400806E
:1046F80023261100130484D3938484D3636E940017
:104708008320C10003248100832441001305000095
:104718001301010167800000930744011305040099
:10472800232AF400232CF400EFD08F871304C4014C
:104738006FF0DFFCB767008083A7870F130101FBC9
:104748002322910423202105232E310323286103EA
:10475800232EB1012326110423248104232C410391
:10476800232A51032326710323248103232291033F
:104778002320A1039309050013890500130B0600E4
:10478800938D060093040000638C07026386060479
:1047980037660080B765008037550080130545628D
:1047A80093067003130606BE938505C1EFD01FBF9D
:1047B800375500801305856CEFD05FBE6F00000091
:1047C800635CD000EFF01FE893849D009307A0007E
:1047D800B3C4F402B384A40037640080130484D300
:1047E80033848940B777DBB613542440938777DB4B
:1047F8003304F40237FAFFFFB71A0000930B50FF97
:10480800130C40FF130AFA0F938AFAFF930C8000E7
:10481800138D49011374F40F130709009306C1009F
:104828001306810093050B0013850900EFD04F870D
:1048380063127503130709009306C100130681006C
:1048480093050B0013850900EFD08F85631475015C
:10485800130540FF832781002302890093F7F7009F
:104868001397870083274900B3F74701B3E7E700A9
:104878000327C100B3F757011317C700B3E7E700D1
:104888002322F900630C0502638A0D02631885036D
:1048980073B50C3013860D0093050D001375850054
:1048A800EFF00F8D9307F0FFE388FDF6EFF09FD947
:1048B800B38DA440E3D20DF6130550FF8320C10445
:1048C8000324810483244104032901048329C103A7
:1048D800032A8103832A4103032B0103832BC1028B
:1048E800032C8102832C4102032D0102832DC10177
:1048F8001301010567800000130101FF23229100C5
:10490800834405009307C00103260500B384F4021D
:10491800232021013769008093558600130989D324
:104928001356C60093F5F5002324810023261100B1
:104938001304800033059900EFD04FA4733404307A
:10494800138544013305A90013748400EFF04F85E3
:1049580063060502B767008083A7870F6390070285
:1049680013050400032481008320C100832441002F
:1049780003290100130101016FE01FA5732404300E
:104988008320C100032481008324410003290100FE
:10499800130101016780000013864500637EB6009D
:1049A8001305000067800000130500008320C10183
:1049B8001301010267800000130101FE9306000045
:1049C80093058100232E1100EFF0DFD6E31E05FCCE
:1049D80003258100130640009305C100EFD0DFD105
:1049E80003258100130545006FF05FFC6306050091
:1049F8001305C5FF6FF05FF067800000B7670080A0
:104A080083A707109305050003A58706630405001F
:104A18006FF09FF8130500006780000067800000B2
:104A2800000000001C150080000000001C1500801C
:104A3800000000001C150080000000001C1500800C
:104A4800000000001C150080000000001C150080FC
:104A5800000000001C15008000000000D024008029
:104A6800000000001C150080000000001C150080DC
:104A7800000000001C150080000000001C150080CC
:104A8800000000001C150080000000001C150080BC
:104A9800000000001C150080000000001C150080AC
:104AA800000000001C150080000000001C1500809C
:104AB800000000001C150080000000001C1500808C
:104AC800000000001C150080000000001C1500807C
:104AD800000000001C150080000000001C1500806C
:104AE800000000001C150080000000001C1500805C
:104AF800000000001C150080000000001C1500804C
:104B0800000000001C150080000000001C1500803B
:104B1800000000001C150080000000001C1500802B
:104B2800000000001C150080000000001C1500801B
:104B3800000000001C150080000000001C1500800B
:104B4800000000001C150080000000001C150080FB
:104B5800000000001C150080000000001C150080EB
:104B6800000000001C150080000000001C150080DB
:104B7800685200808824008000000000D45600801D
:104B88006C25008000000000CC560080542800806E
:104B98000000000068520080E44600800000000029
:104BA80000010202030303030404040404040404CC
:104BB800050505050505050505050505050505059D
:104BC800060606060606060606060606060606067D
:104BD800060606060606060606060606060606066D
:104BE800070707070707070707070707070707074D
:104BF800070707070707070707070707070707073D
:104C0800070707070707070707070707070707072C
:104C1800070707070707070707070707070707071C
:104C280008080808080808080808080808080808FC
:104C380008080808080808080808080808080808EC
:104C480008080808080808080808080808080808DC
:104C580008080808080808080808080808080808CC
:104C680008080808080808080808080808080808BC
:104C780008080808080808080808080808080808AC
:104C8800080808080808080808080808080808089C
:104C9800080808080808080808080808080808088C
:104CA800746573745F6669666F5F74687265616462
:104CB8003274687265616400746573745F666966EE
:104CC8006F5F746872656164326973720000000016
:104CD800746573745F6669666F5F6973723274684E
:104CE8007265616400000000746573745F666966CC
:104CF8006F5F6765745F6661696C000074657374E3
:104D08005F6669666F5F6C6F6F70000074657374BF
:104D18005F6669666F5F63616E63656C5F77616923
:104D280074000000746573745F6669666F5F697309
:104D38005F656D7074795F74687265616400000006
:104D4800746573745F6669666F5F69735F656D70BC
:104D580074795F69737200006669666F5F61706974
:104D680000000000746669666F5F7468726561644C
:104D78005F746872656164002F686F6D652F6D6977
:104D8800616F752F70726F2F72697363762F7A65F2
:104D9800706879722F74657374732F6B65726E65A2
:104DA8006C2F6669666F2F6669666F5F6170692F21
:104DB8007372632F746573745F6669666F5F63618E
:104DC8006E63656C2E6300000A20202020417373F7
:104DD800657274696F6E206661696C6564206174C0
:104DE8002025733A25643A2025733A2025730A0052
:104DF8006B5F6669666F5F676574206469646E27B8
:104E08007420676574202774696D656F75742065F3
:104E18007870697265642720737461747573000013
:104E280028726574206973206E6F74204E554C4C3F
:104E3800290000006B5F6669666F5F6765742064B0
:104E480069646E2774206765742063616E63656C9E
:104E58006C656420696E206578706563746564208C
:104E680074696D656672616D65000000286475720D
:104E7800203C2038302069732066616C73652900F6
:104E8800746669666F5F67657400000074497372C1
:104E98005F656E7472795F7075740000744973721F
:104EA8005F656E7472795F67657400007466696621
:104EB8006F5F69735F656D707479000074657374F2
:104EC8005F6669666F5F69735F656D7074795F743B
:104ED80068726561640000002F686F6D652F6D69E9
:104EE800616F752F70726F2F72697363762F7A6591
:104EF800706879722F74657374732F6B65726E6541
:104F08006C2F6669666F2F6669666F5F6170692FBF
:104F18007372632F746573745F6669666F5F636F1E
:104F28006E74657874732E63000000006B5F6669A9
:104F3800666F5F69735F656D707479282873747222
:104F4800756374206B5F6669666F202A2970292053
:104F580069732066616C7365000000006B5F6669A9
:104F6800666F5F69735F656D7074792828737472F2
:104F7800756374206B5F6669666F202A2970292023
:104F880069732074727565006B5F6669666F5F6927
:104F9800735F656D70747928266669666F29206964
:104FA800732066616C73650072785F646174612058
:104FB8006E6F7420657175616C20746F2028766F30
:104FC8006964202A2926646174615B695D000000B8
:104FD80072785F64617461206E6F742065717561A9
:104FE8006C20746F2028766F6964202A29266461F2
:104FF80074615F6C5B695D0072785F6461746120E5
:105008006E6F7420657175616C20746F2028766FDF
:105018006964202A2926646174615F736C5B695D29
:10502800000000006B5F6669666F5F69735F656D9E
:1050380070747928706669666F29206973207472A4
:10504800756500006B5F6669666F5F69735F656DA4
:1050580070747928706669666F29206973206661A3
:105068006C736500746573745F6669666F5F676506
:10507800745F6661696C00002F686F6D652F6D69DC
:10508800616F752F70726F2F72697363762F7A65EF
:10509800706879722F74657374732F6B65726E659F
:1050A8006C2F6669666F2F6669666F5F6170692F1E
:1050B8007372632F746573745F6669666F5F666188
:1050C800696C2E63000000006B5F6669666F5F673E
:1050D800657428266669666F2C204B5F4E4F5F57B4
:1050E80041495429206973206E6F74204E554C4CE9
:1050F800000000006B5F6669666F5F67657428264D
:105108006669666F2C2054494D454F5554292069CE
:1051180073206E6F74204E554C4C0000746669669F
:105128006F5F6765740000002F686F6D652F6D698C
:10513800616F752F70726F2F72697363762F7A653E
:10514800706879722F74657374732F6B65726E65EE
:105158006C2F6669666F2F6669666F5F6170692F6D
:105168007372632F746573745F6669666F5F6C6FC3
:105178006F702E6300000000697372206669666FA5
:10518800206765740A000000697372206669666F9B
:1051980020707574202D2D2D3E20000074687265D6
:1051A8006164206669666F206765740A0000000004
:1051B800746872656164206669666F207075742012
:1051C8002D2D2D3E200000002A205061737320648D
:1051D800617461206279206669666F20696E206C4F
:1051E8006F6F702025640A006D61696E20666966BC
:1051F8006F20707574202D2D2D3E20006D61696E15
:10520800206669666F206765740A0000F4130080E1
:10521800AC140080AC140080E8130080F413008004
:1052280094140080A014008098540080B854008022
:10523800D4540080E8540080F45400800C55008059
:10524800756E6B6E6F776E00457863657074696F05
:105258006E20636175736520257320282564290AEB
:10526800000000002A2A2A2A204B65726E656C20ED
:10527800416C6C6F636174696F6E204661696C750F
:10528800726521202A2A2A2A0A0000002A2A2A2AA4
:105298002A204B65726E656C204F4F505321202A8F
:1052A8002A2A2A2A0A0000002A2A2A2A2A204B65A2
:1052B800726E656C2050616E696321202A2A2A2A41
:1052C8002A0A00002A2A2A2A20556E6B6E6F776EEA
:1052D80020466174616C204572726F7220256421CA
:1052E800202A2A2A2A0A000043757272656E7420E1
:1052F800746872656164204944203D2025700A461F
:1053080061756C74696E6720696E73747275637405
:10531800696F6E2061646472657373203D20307814
:1053280025780A202072613A203078257820206775
:10533800703A2030782578202074703A203078250B
:1053480078202074303A20307825780A202074316B
:105358003A2030782578202074323A203078257821
:10536800202074333A2030782578202074343A206D
:10537800307825780A202074353A2030782578202E
:105388002074363A2030782578202061303A203051
:10539800782578202061313A20307825780A202035
:1053A80061323A2030782578202061333A203078ED
:1053B8002578202061343A203078257820206135FE
:1053C8003A20307825780A202061363A203078252E
:1053D80078202061373A20307825780A00000000CC
:1053E80049535200657373656E7469616C20746803
:1053F8007265616400000000466174616C2066613A
:10540800756C7420696E20257321205370696E6E47
:10541800696E672E2E2E0A00466174616C206661E3
:10542800756C7420696E20746872656164202570DB
:10543800212041626F7274696E672E0A00000000B5
:10544800ADBAADDEADBAADDEADBAADDEADBAADDE8C
:10545800ADBAADDEADBAADDEADBAADDEADBAADDE7C
:10546800ADBAADDEADBAADDEADBAADDEADBAADDE6C
:10547800ADBAADDEADBAADDEADBAADDEADBAADDE5C
:10548800ADBAADDEADBAADDEADBAADDEADBAADDE4C
:10549800496E737472756374696F6E2061646472A7
:1054A800657373206D6973616C69676E656400006C
:1054B800496E737472756374696F6E2041636365B6
:1054C8007373206661756C7400000000496C6C652C
:1054D80067616C20696E737472756374696F6E00AE
:1054E800427265616B706F696E7400004C6F616425
:1054F8002061646472657373206D6973616C696798
:105508006E6564004C6F616420616363657373202A
:105518006661756C7400000053707572696F7573FD
:1055280020696E7465727275707420646574656341
:1055380074656421204952513A2025640A0000000C
:105548002F686F6D652F6D69616F752F70726F2F82
:1055580072697363762F7A65706879722F617263E6
:10556800682F726973637633322F636F72652F7495
:1055780068726561642E6300282828287072696F34
:10558800726974792929203D3D203135202626204D
:105598005F69735F69646C655F74687265616428CC
:1055A800287468726561645F66756E6329292920AD
:1055B8007C7C20285F69735F7072696F5F686967B8
:1055C8006865725F6F725F657175616C28282870F5
:1055D80072696F7269747929292C20283135202D38
:1055E80020312929202626205F69735F7072696F30
:1055F8005F6C6F7765725F6F725F657175616C283C
:1056080028287072696F7269747929292C202828D2
:105618002D313629292929290000000041535345F5
:105628005254494F4E204641494C205B25735D201A
:10563800402025733A25640A0000000009696E7647
:10564800616C6964207072696F72697479202825A9
:1056580064293B20616C6C6F7765642072616E67AA
:10566800653A20256420746F2025640A0000000034
:105678002F686F6D652F6D69616F752F70726F2F51
:1056880072697363762F7A65706879722F6C6962B4
:105698002F6D656D706F6F6C2F6D656D706F6F6CB2
:1056A8002E630000626C6F636B5F666974732870A9
:1056B8002C20626C6F636B2C206C737A29000000BD
:1056C800090A000075617274300000007379735F15
:1056D800636C6F636B0000004C28008028280080F2
:1056E800000000000000000000000000E8570080F3
:1056F800F05700807457008052756E6E696E67208F
:10570800746573742073756974652025730A0000C5
:105718003D3D3D3D3D3D3D3D3D3D3D3D3D3D3D3DB1
:105728003D3D3D3D3D3D3D3D3D3D3D3D3D3D3D3DA1
:105738003D3D3D3D3D3D3D3D3D3D3D3D3D3D3D3D91
:105748003D3D3D3D3D3D3D3D3D3D3D3D3D3D3D3D81
:105758003D3D3D0A000000007374617274696E6714
:105768002074657374202D2025730A00534B49500B
:10577800000000002573202D2025730A000000007A
:105788005465737420737569746520257320666188
:10579800696C65642E0A000054657374207375691A
:1057A8007465202573207375636365656465640A91
:1057B800000000004641494C4544000050524F4A01
:1057C80045435420455845435554494F4E20257369
:1057D8000A0000005355434345535346554C0000B7
:1057E80050415353000000004641494C000000005E
:1057F800085D00802C5D0080385D0080385D008089
:10580800385D00806D61696E0000000069646C6538
:10581800000000002A2A2A2A2A20426F6F74696E23
:1058280067205A6570687972204F53207A657068CE
:1058380079722D76312E31332E302D333032302D92
:105848006733376633373434202A2A2A2A2A0A004B
:105858002F686F6D652F6D69616F752F70726F2F6F
:1058680072697363762F7A65706879722F6B6572C7
:105878006E656C2F71756575652E6300686561646A
:10588800202626207461696C0000000009696E7684
:10589800616C69642068656164206F722074616955
:1058A8006C0A0000217379735F736C6973745F69A4
:1058B800735F656D707479286C69737429000000D2
:1058C800096C697374206D757374206E6F7420622F
:1058D8006520656D7074790A000000006475726156
:1058E80074696F6E20213D20282D312900000000A9
:1058F800215F69735F69646C6528746872656164A7
:10590800290000007468726561642D3E62617365E8
:105918002E70656E6465645F6F6E00002F686F6D32
:10592800652F6D69616F752F70726F2F7269736360
:10593800762F7A65706879722F6B65726E656C2F39
:10594800696E636C7564652F6B73636865642E6834
:105958000000000021285F6B65726E656C2E6E6515
:105968007374656420213D20305529005F6B657292
:105978006E656C2E63757272656E742D3E6261730E
:10598800652E73636865645F6C6F636B6564202163
:105998003D2031002F686F6D652F6D69616F752F20
:1059A80070726F2F72697363762F7A657068797277
:1059B8002F6B65726E656C2F73636865642E630068
:1059C8005F6B65726E656C2E63757272656E742D91
:1059D8003E626173652E73636865645F6C6F636BA9
:1059E800656420213D2030002F686F6D652F6D693B
:1059F800616F752F70726F2F72697363762F7A6576
:105A0800706879722F6B65726E656C2F73656D2E79
:105A1800630000006C696D697420213D20305500D9
:105A2800096C696D69742063616E6E6F74206265BC
:105A3800207A65726F0A0000696E697469616C5F2B
:105A4800636F756E74203C3D206C696D697400004D
:105A580009636F756E742063616E6E6F7420626582
:105A68002067726561746572207468616E206C6964
:105A78006D69740A000000002828285F6B65726E43
:105A8800656C2E6E657374656420213D2030552940
:105A9800203D3D203029207C7C202874696D656F6D
:105AA8007574203D3D203029290000002F686F6D56
:105AB800652F6D69616F752F70726F2F72697363CF
:105AC800762F7A65706879722F6B65726E656C2FA8
