:0200000480007A
:100000009702000093824201739052306F00106299
:020010000000EE
:02001200FFFFEE
:100014005D7106C00EC212C416C61AC81ECA72CCBE
:1000240076CE7AD07ED22AD42ED632D836DA3ADCBC
:100034003EDEC2C0C6C2F322103496C4F32200309E
:1000440096C6EF00E01A1303000005E9F3222034FA
:10005400B70300809383F3FFB3F272002D43638AE6
:10006400620013050100970000009380E0116F0007
:100074003052A642910296C441A0930201009743D4
:1000840000009383632403A14300411116C003AE0F
:100094000300050E23A0C3016308030097000000BA
:1000A400938080036F00305573252034B70200809D
:1000B4009382F2FF33755500EF00801297320000EF
:1000C4009382C2070E05AA9203A5020003A342006D
:1000D400E7000300174300001303031F83230300F7
:1000E400FD132320730082421381020083238300C3
:1000F400032E030263087E08974200009382C21C09
:1001040003A382002326830223289302232A2303A2
:10011400232C3303232E4303232053052322630577
:10012400232473052326830523289305232AA30563
:10013400232CB30523242302974300009383C3E0B5
:1001440003AE03002326C30703A3020223A4620011
:10015400032183020324C3028324030303294303E7
:1001640083298303032AC303832A0304032B43043D
:10017400832B8304032CC304832C0305032D430521
:10018400832D8305A64273901234B64273900230D5
:10019400824092412242B2424243D243624EF24EE4
:1001A400025F925F2255B2554256D2566257F257B9
:1001B4000648964861617300203000007300000017
:1001C400974200009382421003A382008323C30654
:1001D4002189F322053013850300678000000000A5
:1001E4000543B312A30073B34234678000000000D8
:1001F400F322203437030080B3F2620013050000B9
:0A0204006383020005056780000017
:02020E00FFFFF0
:10021000130101FD232291022328610123261102EB
:100220002324810223202103232E3101232C410189
:10023000232A5101232671012324810123229101C4
:10024000130B050093840500639C06381304060015
:1002500093090500173900001309890663F8C512D0
:10026000B7070100938A05006378F6109306F00F34
:10027000B3B6C60093963600B357D6003309F900DB
:1002800003470900B306D700130700023307D7401E
:10029000630C0700B394E400B356DB003314E600AC
:1002A000B3EA9600B319EB00135B040193050B004E
:1002B00013850A00EF0040631309050093050B0046
:1002C000931B040113850A00EF00805D93DB0B0193
:1002D000930405009305050013850B00EF00805083
:1002E0001319090113D709013367E900138A0400C0
:1002F000637EA70033078700138AF4FF63688700D3
:100300006376A700138AE4FF33078700B304A7408E
:1003100093050B0013850400EF00005D1309050031
:1003200093050B0013850400EF0080579399090192
:1003300093040500930505001319090113850B00AB
:1003400093D90901EF00004AB3693901138604000B
:1003500063FCA900B30934011386F4FF63E6890046
:1003600063F4A9001386E4FF93170A01B3E7C700FB
:10037000130A00006F000013B70700019306000185
:10038000E36CF6EE930680016FF01FEF138A060010
:10039000631A06009305000013051000EF0040509B
:1003A00013040500B7070100637CF4129307F00FF4
:1003B00063F48700130A8000B35744013309F9003E
:1003C0008346090013060002B38646013306D64071
:1003D00063120612B3848440130A1000135B0401F5
:1003E00093050B0013850400EF000050130905006E
:1003F00093050B0013850400931B0401EF00404A92
:1004000093DB0B01930405009305050013850B0096
:10041000EF00403D1319090113D709013367E900C3
:10042000938A0400637EA70033078700938AF4FF52
:10043000636887006376A700938AE4FF3307870029
:10044000B304A74093050B0013850400EF00C049D7
:100450001309050093050B0013850400EF004044C9
:1004600093990901930405009305050013190901E7
:1004700013850B0093D90901EF00C036B369390128
:100480001386040063FCA900B30934011386F4FF4A
:1004900063E6890063F4A9001386E4FF93970A01D9
:1004A000B3E7C7001385070093050A008320C10244
:1004B0000324810283244102032901028329C1010B
:1004C000032A8101832A4101032B0101832BC100EF
:1004D000032C8100832C410013010103678000007D
:1004E000B7070001130A0001E368F4EC130A800166
:1004F0006FF09FEC3314C40033DAD400B319CB008F
:10050000B356DB00135B0401B394C40093050B00E6
:1005100013050A00B3EA9600EF00003D1309050039
:1005200093050B0013050A00931B0401EF004037ED
:1005300093DB0B01930405009305050013850B0065
:10054000EF00402A1319090113D70A013367E900A4
:10055000138A0400637EA70033078700138AF4FF21
:10056000636887006376A700138AE4FF3307870078
:10057000B304A74093050B0013850400EF00C036B9
:100580001309050093050B0013850400EF004031AB
:10059000930405009305050013850B00EF008024EC
:1005A00093960A011319090193D60601B367D9007E
:1005B0001387040063FEA700B38787001387F4FF47
:1005C00063E8870063F6A7001387E4FFB38787001B
:1005D000131A0A01B384A740336AEA006FF01FE0E0
:1005E00063ECD51EB707010063F4F6049305F00F22
:1005F00033B5D5001315350033D7A6009737000063
:10060000938707CCB387E70083C50700130A00026E
:10061000B385A500330ABA4063160A029307100097
:10062000E3E296E83336CB00934716006FF09FE77E
:10063000B707000113050001E3E0F6FC1305800194
:100640006FF09FFBB35AB600B3964601B3EADA00E7
:1006500033D9B400B3974401B355BB0093DB0A010F
:10066000B3E4F5001305090093850B00B3194601A7
:10067000EF0080271304050093850B001305090084
:10068000139C0A01EF00C021135C0C011309050043
:100690009305050013050C00EF00C01413140401AA
:1006A00013D704013367E400930C0900637EA700AD
:1006B00033075701930CF9FF636857016376A7006E
:1006C000930CE9FF330757013309A74093850B00CB
:1006D00013050900EF0040211304050093850B006A
:1006E00013050900EF00C01B130905009305050061
:1006F00013050C00EF00000F93970401131404017D
:1007000093D707013367F40013060900637EA7003F
:10071000330757011306F9FF636857016376A70093
:100720001306E9FF3307570193970C01370E0100B9
:10073000B3E7C7001308FEFF33F3070133F80901DD
:100740003307A74093DE070193D90901130503007E
:1007500093050800EF000009930805009385090040
:1007600013050300EF0000081303050093050800BC
:1007700013850E00EF00000713080500938509009C
:1007800013850E00EF00000693D608013303030122
:10079000B386660063F406013305C50113D606016E
:1007A0003305A6006366A702E314A7BC3707010060
:1007B0001307F7FFB3F6E60093960601B3F8E800D7
:1007C00033164B01B3861601130A0000E37CD6CC26
:1007D0009387F7FF6FF0DFB9130A0000930700005B
:1007E0006FF05FCC130605001305000093F61500AB
:1007F000638406003305C50093D515001316160053
:10080000E39605FE67800000130101FF13830600D5
:1008100023261100130E0500930805009306060019
:1008200013070000930700001308000013F51600DB
:10083000931E1700630C050033850801333805014A
:10084000B387E700B307F8001308050013D7F801D2
:1008500093D6160033E7EE0093981800E39806FC51
:100860006388050013050600EFF0DFF7B387A700E4
:10087000630A030013050E0093050300EFF09FF6D3
:10088000B307F5008320C100130508009385070016
:1008900013010101678000006340050663C6050679
:1008A00013860500930505001305F0FF630C06028F
:1008B00093061000637AB6006358C0001316160042
:1008C00093961600E36AB6FE1305000063E6C500C2
:1008D000B385C5403365D50093D616001356160070
:1008E000E39606FE6780000093820000EFF05FFB56
:1008F00013850500678002003305A04063D805001A
:10090000B305B0406FF0DFF9B305B040938200004B
:10091000EFF01FF93305A0406780020093820000CA
:1009200063CA0500634C0500EFF09FF713850500CF
:1009300067800200B305B040E35805FE3305A040D0
:10094000EFF01FF63305B040678002008280B747A2
:1009500000809387C7FC984341113AC63247050788
:1009600098C341018280797106CE22CC42D446D60A
:100970000DED368637350080BA862E87B735008074
:100980003E849385053E3C10130505423EC6EF00AC
:10099000506BB2452285EF00106937350080130592
:1009A000855FEF00106AEF104025F2406244456118
:1009B0008280B7470080B74500803745008001112D
:1009C00023A607FCFD56B747008013060040938519
:1009D00005301305850006CE23A407FCEF20601A1E
:1009E000B7160080B74500803745008002C202C0BC
:1009F000B148014881470147938686AE13060040FF
:100A00009385057013058508EF101072B7160080E6
:100A1000B755008037450080814701479386C6B3AC
:100A20001306004002C202C0B1480148938505B0D8
:100A30001305850FEF10506FA9653745008093852A
:100A400005C4130505FAEF10D05AF240B7370080FD
:100A50003737008037360080B7350080938747519D
:100A60001307073D9306B00D1306063E93854553C5
:100A7000133515000561C5BD797126D2856422D470
:100A80004AD04ECE52CC06D62A8993848438EF20A1
:100A90004043AA9433B4A400B71900802E949389DC
:100AA000E994374A0080EF20C04163CF850063148A
:100AB000B400636B9500B25022544A859254025997
:100AC000F249624A456182808545680002C24EC48F
:100AD00002C6EF200041058911E54C0013058A008C
:100AE000EF10C05E0509C1B741114AC03749008007
:100AF00022C4FD55130509F83744008006C626C2F6
:100B0000130484FCEF10F04E0840B7440080AD376A
:100B100008C0138504F9EF105048FD55130509F876
:100B2000EF10304D0840893F08C02244B2400249CE
:100B3000138504F9924441016F10304639716EC635
:100B4000B74D008013850DF806DE22DC26DA4AD880
:100B50004ED652D456D25AD05ECE62CC66CA6AC83D
:100B6000EF10B0430145093FB74C0080156D2A8452
:100B700093050DE213850CF9EF10B047373900806B
:100B8000B7340080373C0080B73B008093078C442B
:100B90001307C93B1386043E9385CB469306200A70
:100BA00013351500374A00807D3B130A8AFCB7498C
:100BB000008003250A009389C9FC83A709002295B8
:100BC000373B0080B73A00801D8D1307C93B930760
:100BD0004B4A1386043E9306500A93858A4C13357C
:100BE00015005133A9452945EF10C05D13850DF857
:100BF000EF10B03A2285493593050DE22A8413851A
:100C00000CF9EF10103F93078C441307C93B138670
:100C1000043E9385CB469306F00A13351500A133A5
:100C200003250A0093074B4A1307C93B2A9403A5DF
:100C300009001386043E93858A4C3305A44013357E
:100C400015009306200B05336254F250D2544259DA
:100C5000B259225A925A025BF24B624CD24C424D2C
:100C6000B24D37450080130505FA21616F10F0324F
:100C7000B745008037350080938505F11305C556CB
:100C80006F00107A411106C622C499476302F5022B
:100C9000EF10D0410DC1EF10704121E1B735008058
:100CA000938545753735008013058576EF007039DB
:100CB000EF00303BF5BFEF10504071FD374400802E
:100CC0001304842C0C443735008013058578EF001D
:100CD00050370844EF101063E1BFB73500809385AB
:100CE0000575C9B75D71A2C4A6C286C69947AA8414
:100CF0002E8463E9A7083737008093172500130770
:100D0000C757BA979C438287373500801305455DE6
:100D1000EF003033EF1090207C408328040103283B
:100D2000C4003ED83C40584014403ED65C5C304441
:100D3000AA853ED41C5C37350080130585653ED2FC
:100D40005C583ED01C583ECE5C543ECC1C543ECA2F
:100D50005C503EC81C503EC65C4C3EC41C4C3EC25F
:100D60005C483EC01C44EF00D02DA2852685193F6B
:100D7000373500801305C55F61BF37350080130527
:100D8000856179B737350080A68513054563EF0087
:100D9000502B49B7411122C406C62A847326203439
:100DA00006060582954763E3C7023737008093172D
:100DB000260013078759BA978C43373500801305EF
:100DC000855BEF001028A2850145293FB7350080DB
:100DD0009385055BDDB7411106C6F3252034374501
:100DE00000808605858113058588EF009025B7353D
:100DF00000809385057B1145F535B74700809387C3
:100E000007FD984311CB03A3070023A00700B747B2
:100E1000008003A547FD02838280411106C6EF10C2
:100E20002006EF009025EF10C00A000017510000C7
:100E30001301418DB7120000938202801691F13F99
:100E40006F00200C0000797122D426D24AD04ECEF9
:100E500006D6B689BD46AA842E8432896393D80605
:100E6000B72600809386A6E56392D906C256C6854A
:100E70002685114642C63EC43AC2EF105047A247EB
:100E8000930509FBA29523AE040423A00406C1998F
:100E90009CD989671247324893870788FCC5B717E2
:100EA0000080B2502254938707E423A43503D8D599
:100EB00023AA0503BCC58CD402599254F24945615A
:100EC0008280938608017946E372D6FA374600801D
:100ED000B745008037450080E1461306068B9385B1
:100EE000858E1305C59846C2EF00B0159248374568
:100EF0000080C1563946C6851305C59AEF007014A7
:100F000001A04111AA872E85B285368606C6829732
:100F1000EF10D000EF10103F411126C206C622C4C8
:100F20004AC0AA84FD552685EF10C01A2A847DD9AF
:100F300003294500F9552105EF10107C058919C1D9
:100F400022850299EF106073F1BF93971500AE9759
:100F5000139727005C45BA970307B5006353B700A2
:100F60009C431357F6417D8B329715870A07BA9732
:100F70009CC21375F60182800111740006CEF13710
:100F8000324785473395A7001C43F240C98F1CC3E5
:100F9000056182800111740006CE453F32478547C6
:100FA0003395A7001C43F2401345F5FF7D8D08C320
:100FB00005618280011126CA444122CC2A8403554E
:100FC0008500A6854AC84EC652C456C25AC006CE2F
:100FD000EFF05F8183290400834AA400FD572A8A29
:100FE000AA99A305F40001497D4B6341590381444B
:100FF0008357840063CFF404F2406244D2444249F0
:10100000B249224A924A024B05618280A6855285E6
:10101000EFF01F89131719004A97931727005844B8
:101020003E97930747005CC31CC76349AB00A30509
:10103000240189808D04F198050945BF7D059357EA
:10104000F541FD8BAA9795878A0723203701BE9922
:10105000CDB74C402685EFF0EFF81C402686814541
:101060003E955C4485041387470018C1984758C1D2
:10107000984708C388C7228501379DBF1D71A2CC40
:10108000CEC6DAC086CEA6CACAC8D2C4D6C25EDE72
:1010900062DC66DA6AD86ED68010034EA500FD5970
:1010A00093172E00BD0793F7077F3301F1405C4192
:1010B0000A8BDA888D07F19B2320FB008147938AF6
:1010C000F7FF63D0C70391CB03A8C8FF13582800CC
:1010D0000D081378C8FF23A0080103A8080063794E
:1010E000B802FD576397FA042320070051551301F6
:1010F00004FAF6406644D6444649B649264A964A1A
:10110000064BF25B625CD25C425DB25D256182801F
:101110000323C500139817003E980A081A98130372
:1011200048000328480063036800BE8985079108CA
:1011300079B7E38BF9FA834705010149858B91C79C
:101140002149733909301379890093971900232AAB
:10115000E4FACE9758458A079107BA97B68C232CA4
:10116000C4FAAA847D5703AA0700638347139397A1
:10117000290003274A00330DFB0083270A0083253B
:101180000D00A14D1CC3D8C388403305AA40EFF021
:10119000AFF02A86CE852685F53B85091387F9FFB2
:1011A000634D570383C70401858B99C373290930A5
:1011B000832784FB884023A057018A0A569B8325F6
:1011C0000B003305AA40EFF02FED832744FB23A04B
:1011D000AC00014523A0470119BF884083250D00BD
:1011E000854B3305AA40EFF02FEB93981900931726
:1011F0002500CE98232EF4FA8A0803274D00DE85B9
:10120000232614FB3A852328E4FAEFF0AFDD832789
:10121000C4FB330CAA00CE853386FB002685A93B90
:10122000032704FB9040CC407D1703D584006297D0
:10123000118F2328E4FAEFF0EFDA032704FB832869
:10124000C4FA6370A702D8444697130647002320C8
:10125000CC0010472322CC001047232086012324F2
:101260008701850B9147E39AFBF803C70401058BBF
:1012700009E701498509110D15B77329093003C71D
:101280000401058B7DD773B90D3013798900DDB763
:10129000FD1993074AFFE398E9EC014A21B71D7154
:1012A000A2CCA6CAD2C486CECAC8CEC6D6C2DAC01E
:1012B0005EDE62DC66DA6AD86ED680100347A5006F
:1012C000AA840A073D071377077F3301E14058419D
:1012D0000A8AD2860D07719B2320EA0005459106F4
:1012E00063FBA50603C704012E8CB289058B014957
:1012F00011C721497339093013798900114D13172A
:101300002C005297832A070083AB04004E85D685B4
:10131000EFF04FCD138BFAFFB30D6501AA9BCC40C4
:1013200003D58400EFF00FCC63EFAD0237460080A9
:10133000B7450080374500801305C5989306200AFD
:101340001306069E938545A1ED29374500801305B8
:1013500005A3C52901A003A7C6FF050509830D073D
:10136000719B98C2ADBF4E86E28526853131131739
:101370001C00629793162700D844369793064700BF
:1013800023A0DB00144723A2DB00144723A076012F
:101390002324770103C70401058B15EB814B5E897C
:1013A00063130C0483C70401858BF9E3130104FA6A
:1013B000F6406644D6444649B649264A964A064B04
:1013C000F25B625CD25C425DB25D25618280732912
:1013D000093003C70401058B71D3A147F3BB073064
:1013E00093FB8B006DBF9306C4FB4E86E28526857A
:1013F000A93E8326C4FB1357F5410D8B2A978842DB
:10140000719BBD473357E5003D8BE31DF7F8814CD9
:1014100093FDC9FF33869D013285D6852324C4FA06
:10142000EFF04FBCB3066501AA8BCC4003D5840016
:101430002326D4FAEFF00FBB8326C4FA032684FADE
:1014400063FDA600E2852685B1369440B69B03A6CF
:101450004B0083A60B0014C2D0C2850CE39CACFBEE
:1014600013D6F9410D8AB2997D1C93D9294041BD0B
:10147000F3AB0B3025BF014582809C4185079CC1A1
:10148000B747008003A387F30283397122DC4ED66D
:1014900052D45AD06AC806DE26DA4AD856D25ECE70
:1014A00062CC66CA6EC6AA892E8A328D368B0544F6
:1014B0006353E0003A848547930C00026314FB00F9
:1014C000930C0003B7D49A3B0549A94A014C938475
:1014D000F49F894D938B140063140C0063F2A407EE
:1014E000DE856A85EFF0CFBBD285130505038299AF
:1014F0000509054CDE856A85EFF00FBF2A8DA945E9
:101500002685EFF0EFB9FD1A8547AA84E394FAFC2B
:10151000D28513050D0382998D4733042441630F4F
:10152000FB02F2506254D2544259B259225A925A92
:10153000025BF24B624CD24C424DB24D2161828033
:10154000E34A54FBE3E86DFBD28566858299050981
:1015500055B7D2851305000282997D14E34B80FEB6
:10156000C9B7B747008023ACA7F282805D71A2C4DF
:10157000A6C2CAC04EDE52DC56DA5AD866D26ECE49
:1015800086C65ED662D46AD02A84AE84328BB68C8C
:10159000014A7D598149814D854A03450B0005E18A
:1015A000B640264496440649F259625AD25A425BE2
:1015B000B25B225C925C025DF24D61618280639A53
:1015C0000D00930650026307D524A6850294050BEF
:1015D000E9B793064006630BD50E63EBA6049306AA
:1015E000900363E7A602930610036375D50C930678
:1015F000D0026306D522930700036303F50A13079D
:101600005002631FE500A685130550020294E5A071
:10161000930680056303D512130730066304E51EA5
:10162000A685130550020294A68503450B00F9BF59
:10163000930600076309D50E63EFA6009306900694
:101640006306D5089306C0066300D5089306800696
:10165000E30FD5F6F1B7930650076308D50A63EA9E
:10166000A60213073007E31DE5FA138C4C0083AC88
:101670000C00E68B03C50B00631C05168D476398B1
:10168000F900B38B9B41B30B794163477017E28C30
:101690009DA0930680076302D50A9306A0074DBF5D
:1016A000635C0900638F0916130905FDE39109F2D4
:1016B000894931BFE34A09FE931629003699060984
:1016C000130909FD2A99DDB7050A11B763C74A0353
:1016D00003A60C00910C635B0600A6851305D002DF
:1016E00032C4029422467D193306C0404A87CE8612
:1016F000A6852285593B814DD9BD93877C0013F780
:1017000087FF930C87001043F9B763C64A0103A60D
:101710000C00910CE1BF93877C0013F787FF930CBB
:1017200087001043E1B7A685130500030294A68540
:101730001305800702942149854963C34A0783A79B
:101740000C00910C3EC42146014C014DA145A2471D
:10175000938BF5FF13952B0033D5A7003D8929ED19
:101760009306000363140D006390550736956205D8
:10177000A685618532C60294050C3246639B0B0236
:101780008D46814DE395D9E413171900330C874139
:10179000E35380F7A6851305000202947D1CCDBF9C
:1017A00093877C0093F687FF9C42938C86003EC40F
:1017B00059BF6E8DDE8561BFA54793067005E3E7CF
:1017C000A7FA930600035DB79307F6FF3EC663488A
:1017D000C90063985901A685130500030294324697
:1017E000D1BF8947E39DF9FEA68513050002FDB729
:1017F000A685850B0294BDBDA68513050002029443
:10180000FD1B61B503A50C00938B4C00A6850294CB
:10181000DE8CD5B5014A7D598149854D4DBB8D4939
:101820007DB385496DB301112A8637150080AE86D8
:101830001305A5476C0006CE02C60D3BF2400561BC
:10184000828039712ED24C1006CE32D436D63AD898
:101850003EDA42DC46DE2EC6F937F2402161828054
:101860008280A147F3A7073073005010828085471C
:101870003395A700732545308280A147F3B7073021
:1018800073504030735040348280411122C426C2CC
:101890003744008006C6A947AA84130484FD631751
:1018A000F5000840B5455C41DC438297084093F55C
:1018B000F40F5C41DC438297B24022442685924477
:1018C00041018280372500801305A58859B9374525
:1018D00000804111130545A306C60D23B7470080BC
:1018E00023ACA7FCC537B240014541018280B70750
:1018F00010F003A747F403A507F483A547F4E39A80
:10190000E5FE8280011122CC06CE26CA4AC84EC608
:1019100052C4214473340430B7440080938404FEDD
:10192000F93703A9040003AA4400AA873305254117
:10193000B3B7A700B385454175661306064C8146CB
:101940009D8DEFE0FF8CAA89F5659385054C4E854A
:10195000EFE05FE92A993335A900529523A02401CD
:10196000C8C02188732404306244F240D244424902
:10197000224A4E85B24905616F10E045411106C605
:10198000BD37F5679387074C370710F0AA97FD56C8
:101990002326D7F433B5A7002E952324F7F4232666
:1019A000A7F41D45E935B240014541018280CDEDE6
:1019B000011122CC06CE26CA4AC84EC652C4FD57D3
:1019C0002A846315F50025651304E5BCA144F3B42E
:1019D0000430313FA567AA899387E7BC1305F4FF5C
:1019E000A18863DFA7063E8575649305044CEFE08C
:1019F0007FDFB7470080938707FE03A9070003AA8C
:101A000047009307F44BB3872741CE973E95930544
:101A1000044CEFE0FFE89305044CEFE0BFDCB309B2
:101A20003941AA999307703E63C537011304044CEA
:101A30002295B70710F02A997D5723A6E7F433358E
:101A4000A900529523A427F523A6A7F4F3A40430F4
:101A5000F2406244D2444249B249224A056182803E
:101A6000E35405F8014549B78280411122C406C6F6
:101A7000214473340430A53DB747008083A707FE97
:101A8000F5659385054C1D8DEFE09FE1218873245A
:101A90000430B2402244410182808347050003C7DD
:101AA00005006393E70081E73385E7408280050501
:101AB0008505E5B7B347B5008D8B95CFAA8701475C
:101AC0006317E60482807DDE850503C7F5FF850781
:101AD0007D16A38FE7FE13F7370075F78D463308A1
:101AE000E64063EC06011357260093162700158E77
:101AF000B697B695E9B7AA87F9BFB388E50083A87A
:101B000008003388E700110723201801C9BF338874
:101B1000E50003480800B386E700050723800601B7
:101B200045B793F6F50FAA8713F737001DEB93F52A
:101B3000F50F13978500D98D13970501D98D338340
:101B4000C7003E870D48B308E3406362180313578C
:101B5000260093152700AE970D8E3E96639DC70015
:101B600082807DDE8507A38FD7FE7D1675BF1107A6
:101B7000232EB7FEC9BF8507A38FD7FEC5B7411176
:101B800002C6B24785073EC6B70701F08CC34101C4
:101B900082807D55828001458280011122CC1C45C6
:101BA0003744008026CA1304C4F3B744008006CE2D
:101BB0004AC84EC6938484FE8549232004002A899E
:101BC00023A0340182978327490023203401829780
:101BD00089471CC08327C90082978D471CC0624477
:101BE00023A00400F240D2444249B2493745008064
:101BF0001305851605616F00503A37450080411185
:101C0000B74700807D571305851606C623A4E7FE57
:101C1000EF00B038EF009030B24041016F00906E9D
:101C20001D71A6CAB744008083A7C4FE86CEA2CC8D
:101C3000CAC8CEC6D2C4D6C2DAC05EDE62DC66DAFC
:101C40006AD86ED663C60706374400800546AA895F
:101C50002E8C130584168145EF00F02C374500804B
:101C6000CE85130585A6F13E37490080130509A8E6
:101C7000B74A0080F9369384C4FE014A22CEB75C8D
:101C80000080374B0080372D0080B74D0080B74B68
:101C90000080938ACAA583274C0095EBCE85630FFD
:101CA0000A0A37450080130505AF613E85479CC091
:101CB000F6406644D6444649B649264A964A064BFB
:101CC000F25B625CD25C425DB25D256182808325FD
:101CD0000C00B7470080138587ACA53602C2832766
:101CE0000C0162871306004093E78700FD58014806
:101CF0009306ADB93EC093850CF0814713058B1751
:101D0000EF009042F247FD5513858716EF00702EC5
:101D100093878DFE13058B178043EF00B05EB747A6
:101D20000080938787FE98430504F9571334140005
:101D300003260C00631FF700B74500809385C5ADEF
:101D400013854BAEFD3C130509A8E53C229A510CC6
:101D500099B793172400D6978C43DDB73745008099
:101D6000130585B0F93C9C40B337F00089B7B747FD
:101D7000008083A7C7FE411122C43745008006C6F4
:101D800037440080130505A881CF653CB745008026
:101D9000938545B21305C4B22244B240410155B403
:101DA000EFF03FAAB7450080938545B4E5B74111F0
:101DB00006C6EFE0FFEBB240410155BF1317250007
:101DC000B74700800505938707B60A0541113E977E
:101DD000AA9722C426C20043844306C663679400C0
:101DE000B24022449244410182801C402285DC435F
:101DF000829719C1232204003104CDB74111B7479E
:101E0000008026C2B744008022C406C6138407F5AA
:101E10004AC0938707F5938404F8631894002A89CD
:101E20003E84631C9400014415A0584009C7184023
:101E30001843630DA7003104CDB75C4099E331042A
:101E4000CDB71C404A858C43893975F92285B2404B
:101E500022449244024941018280411122C426C297
:101E600006C621448944F3370430EF00905D63C314
:101E7000A40005458545EF00D072EFF09F9EE5B7C1
:101E800037450080B7470080130685FC9387472FAE
:101E90003386C7408145130585FC61B14111094571
:101EA00006C6293F37450080130545B8EFF07F99F6
:101EB0000D452937EF007033DD3DB747008093872C
:101EC000872503C7C700799B2386E700B2404101FD
:101ED0008280357126CB04081306000781452685CC
:101EE00006CF22CD4AC94EC72D3937440080B76787
:101EF00000809309842C938707F0014523A2F90001
:101F0000753D0545653D9307101023A49900231ED8
:101F1000F100EF000075B7470080938747B7374956
:101F200000803EC2B72600808547B75500809304E5
:101F300089253EC001478147814801489386C6E90B
:101F400013060020938505301305892523A09902E7
:101F5000EF00501B83C7D4001304842C13F7B7FF82
:101F6000A386E400ED8B81EB9850FD576315F700D5
:101F700013058925C52EB74700809387C7B73EC292
:101F8000374500808547B7260080B7550080930409
:101F9000851E3EC0BD480148814701479386A6E59E
:101FA00013060020938505501305851EEF0090153C
:101FB00083C7D40044C42145ED9BA386F400B747F2
:101FC00000809387072E1CCC5CCC733505302189AB
:101FD000EFE00F9F8347D500FD8B91E71851FD5728
:101FE0006313F70041A68280797122D426D24AD0A9
:101FF0004ECE06D652CC2A842E89B28936C6A1444A
:10200000F3B4043021055121A188B24615C12A8AB2
:10201000D13723260A06232A3A012685192C0145A1
:10202000B250225492540259F249624A4561828068
:1020300085CA2145EF10000FAA875155F5D30547F2
:1020400023A2370198C3984393763700631E090093
:102050001840558F98C358401CC061F35CC075BFD1
:1020600023A00900CE87C5B703270900719B01EFA4
:1020700094C3544081E65CC01CC045B798420D8BA8
:102080005D8F98C2E1BF558F98C3032509000D8964
:10209000C98F2320F90051B7411122C406C62A84F2
:1020A00001C91C418D8B89C7404199C1EF100007C0
:1020B0002285B2402244410182809307850023207B
:1020C0000500232205001CC55CC582802E864C417C
:1020D000814619BF411122C406C6AA872144733420
:1020E00004300841218815C11841D443719B98C31D
:1020F0006313D500D8C385454537AA8773240430B8
:10210000B24022443E85410182802E8689E57324B7
:1021100004308147F5B7938587002285FD298147E3
:1021200065F1B747008083A7072DDC4BD1BF411174
:1021300006C6EFF09F93B747008083A747FFB240E2
:10214000374700803E95232CA72C81453E854101D1
:102150006F0030452145733505302189828041115A
:1021600022C4374400809307842C26C2C45306C679
:10217000938747021304842C6383F40091E0444462
:102180001C4405ED9DCB03C7D7007D8B1DE7945301
:102190007D576394E60283D6E7001307F007637E5A
:1021A000D700374700800327C7F46388E7001CD0B7
:1021B000B240224492444101828063839700853F6C
:1021C00004D0FDB7011106CE22CC26CA4AC84EC69D
:1021D000AE84AA894137B7470080A9452A84138570
:1021E000990023AC072CEFE02FEBB747008037496D
:1021F0000080232AA9FE23A897FE21880D3F73247F
:102200000430F2406244D2444249B24905618280BE
:10221000411122C406C62A84353FAA8708406313A9
:10222000A4000145A18BF3A70730B240224441012D
:102230008280B74700809387872C94432A8799E64A
:1022400094479C536384F6006FD09FF7218B7327CC
:1022500007308280411122C4374400801304842C4B
:102260001C4406C626C283C7F70085EB37460080AC
:10227000B7450080374500801305C5989306701D4B
:10228000130646C6938505C9EFF0AFDB37450080DE
:10229000130505A3EFF0EFDA01A01C4085CB37460C
:1022A0000080B7450080374500801305C598930628
:1022B000801D130646C6938545C2EFF08FD837457B
:1022C0000080130505A3EFF0CFD701A061351844B6
:1022D000AA8405458347F700A1888507A307F7006F
:1022E000BD3DF3A404302145733505302244B2408E
:1022F00092442189410135BFB747008083A7C7F4C5
:102300006395F50237460080B74500803745008069
:1023100041119306D021130646C6938505BC1305CB
:10232000C59806C6EFF0EFD101A01C416319F50076
:102330005C4188C1DCC15C418CC34CC18280EDDB57
:102340000387E5008386E7006358D700D8439CC124
:10235000D8C10CC3CCC382805441E38BD7FC9C43CF
:10236000F5F3F9B7411106C622C426C2AA84DD33AB
:102370002A8437450080A6851305C52EB53F83C73F
:10238000D4000145218893E70704A386F400C13BEC
:1023900073240430B2402244924441018280834736
:1023A000D500FD8B91E71851FD576313F7005DBF12
:1023B0008280B747008083A7C7F46395F50237464C
:1023C0000080B74500803745008041119306C02248
:1023D000130646C6938505BC1305C59806C6EFF0DF
:1023E0004FC601A0D8419C411CC3D8C38280411173
:1023F00022C426C22A8406C6B13BAA84084415E139
:1024000037460080B7450080374500809306101599
:10241000130646C6938545BD1305C598EFF06FC2F8
:1024200001A0A28579378347D400A188F59BA30634
:10243000F400F3A4043023240400B2402244924464
:1024400041018280411122C406C62A844D371305FA
:1024500084012244B24041016F00C07B832705FF05
:10246000411122C426C206C62A84930485FE99C35C
:102470002685B53F834754FFB2402685ED9BA30ACE
:10248000F4FE22449244410119BF4111814522C406
:1024900006C6BD3B2A8411C5993F13058401EF0090
:1024A00060772285B24022444101828001114AC8EE
:1024B000374900801309892C06CE22CC26CA4EC685
:1024C0002A84930949027931A285AA844E85D5359B
:1024D000A2854E8515358347D40003258900A18840
:1024E00093E70704018DA306F40013351500853921
:1024F000F3A40430F2406244D2444249B249056137
:102500008280B747008083A747FFB9CBB7470080D9
:102510009387872C98479306F0070356E70063E1FB
:10252000C604B74600800306E70083A606FF63499A
:10253000D602B746008083A6C6F46303D7021053C1
:10254000FD56631FD600944B634AD50041113A856E
:1025500006C6A93FB24041016FF07FBD898E94CB82
:102560008280411122C426C22A8406C64AC0EFF0E6
:102570007FBE8347D400AA8493F7070495C73749E1
:1025800000801309892C13054902A2851D35834754
:10259000D4000325890093F7F7FB018DA306F4000F
:1025A00013351500EFF0BFBBA188F3A40430B2408F
:1025B00022449244024941018280411122C426C230
:1025C0002A844AC006C6AE843289613F8347D4005C
:1025D00093E72700A306F40089C404C4A2852685D6
:1025E000213BFD576305F902A94513059900EFE06A
:1025F000AFAA13061500130584012244B240924489
:102600000249B72500809385C545410165A5B240C3
:10261000224492440249410182804111B74700801F
:1026200022C42A8403A5072D06C6413F22852244E1
:10263000B24041016FD0DFB8411126C206C6AA845C
:1026400022C4014580406383840011E4B2402244E7
:102650009244410182802285F533228589330545E4
:10266000D5B7B74700809387872C13874702D8D305
:1026700098D7814501456FF0FFB4411122C437441A
:1026800000808327842C06C626C24AC085CB3746E5
:102690000080B7450080374500801305C598930634
:1026A0006030130646C6938545C2EFF08F993745D3
:1026B0000080130505A3EFF0CF9801A01304842C2C
:1026C000B7470080184483A7C7F46304F702EFF00C
:1026D0007FA80C4413094402AA844A85D9390C44C2
:1026E0004A85A188EFF05FC10545EFF05FA7F3A42D
:1026F000043018441C50630DF70021457335053034
:102700002244B24092440249218941016FD05FAB1B
:10271000B24022449244024941018280B74700807E
:1027200003A5072D8280411106C605EA37460080C1
:10273000B7450080374500801305C5989306D00340
:10274000130686CB938545CEEFF0AF8F37450080DB
:10275000130505CFEFF0EF8E01A06379B60237467F
:102760000080B7450080374500801305C598930663
:10277000E003130686CB938585D0EFF08F8C374529
:102780000080130505D2EFF0CF8B01A0B2400CC53D
:1027900050C508C148C141018280411122C44AC0CC
:1027A00006C626C22A892144733404302188F139AF
:1027B00015C58347D500AA84FD8B99E71851FD57AD
:1027C0006314F700EFF01FBA23A604062285224403
:1027D000B2409244024941016FF0BFA5032789002E
:1027E0008327C900998FB337F000BA972324F900E3
:1027F000F1BFB747008083A7872C2E869DCB95C954
:1028000037460080B74500803745008041111305E9
:10281000C59893063008130686CB938585D406C6E3
:10282000EFF02F8237450080130505A3EFF06F818D
:1028300001A0A147F3B707301845A18B19C77D1731
:1028400018C5F3A707300145828009E6F3A70730D2
:1028500041558280AA853E85C9B3411122C426C252
:1028600006C6AA8421442E8573340430A945250563
:10287000EFE08F82B7250080130615009385C545CC
:10288000138584010529218873240430B240224431
:102890009244410182808347D500FD8B99E718510E
:1028A000FD576314F7006FF0FFAB8280B7470080DD
:1028B00003A5872C3335A0008280B747008083A70B
:1028C000072D03C5C700058982808280411122C47B
:1028D00006C62144733404300347D500218893761B
:1028E000470099E673240430B240224441018280BB
:1028F0006D9BA306E500453722852244B240410185
:102900006FF03F930111025322CC06CE1AC02A84E5
:10291000EFE06FD3B747008083A7072DF240BC5785
:102920003CD4624405618280374300800323832CBA
:10293000011126CA06CE22CC9254630903023746FF
:102940000080B7450080374500801305C598930681
:10295000801A1306C6D7938545C2EFE09FEE374530
:1029600000801305C5DAEFE0DFED01A0025302C2DB
:102970002A841AC0413FFD576385F40089E8228507
:10298000B1372285F2406244D24405618280A68537
:102990002285E135FDB73C51411122C406C62A8487
:1029A00091C382978347D40013F7F70115E31450BE
:1029B0007D57639FE6002285EFF0BFBA8347D400BE
:1029C000B24093E78700A306F400224441018280CD
:1029D000898B81C72285EFF09FA11850FD57E30F27
:1029E000F7FC130584013D24D1BF7971B7470080FE
:1029F0004ECEB749008022D426D206D64AD01384C0
:102A000007F8938407F8938909F8636E3403B7478E
:102A1000008003A7872C21CF37460080B745008070
:102A2000374500801305C5989306200F1306C6BED0
:102A3000938545C2EFE0FFE037450080130505A30D
:102A4000EFE03FE001A05C543EC21C503EC05C4839
:102A50008328C401032884011848544410444C407E
:102A600008404D351C40E0CF1304040379BF938721
:102A7000872C984785468347F7006399D7023746E6
:102A80000080B7450080374500801305C598930640
:102A9000300F1306C6BE9385C5C3EFE09FDA3745F6
:102AA0000080130505A3EFE0DFD901A0FD17A30700
:102AB000F700214973390930268413798900FD54C0
:102AC000636C3401732909302254B2509254025974
:102AD000F24945616FF00FF84C506385950008404E
:102AE00089E5ED3313040403E1BF853BE5BFFD57E2
:102AF0002306D500A306C5002307B500A3070500DC
:102B00001CD18280411122C406C626C221447334DE
:102B100004308347C500858B85CB37460080B74599
:102B20000080374500801305C598930630021306D0
:102B300046DD938585E0EFE0DFD037450080130563
:102B4000C5E3EFE01FD001A0AA84B135B7470080EC
:102B500003A7872C218801CB73240430B240224480
:102B60009244410182809387872C9C4722856394FD
:102B70009700EFD0EFE42244B240924441016FF05D
:102B80004FEB797106D622D42ACE2ECC32CA36C863
:102B9000EFF0AFD2C2467247E24552461304070136
:102BA000B688B716008002C202C02285014881475C
:102BB000938686F1953B22852254B250B74500801A
:102BC000938585E545616FF05FD0B747008083A7A7
:102BD00087FF99E36FE07FE90145828021457335E6
:102BE0000530218982801C4199CF584109CFB746D1
:102BF000008083A646F46306D50094471045B2963C
:102C000094C71CC3D8C3FD57232205002320050009
:102C10001CC58280411122C426C206C6AA847D3FFB
:102C20009844FD572A847D556305F7002685653F46
:102C30000145218873240430B2402244924441016A
:102C40008280B747008083C7C7FF411122C406C6F0
:102C500026C24AC07D5489E7370400801344F4FF3C
:102C6000B53FB7470080938707F403A90700AA84FC
:102C70006300F902630E090003248900B9373305A4
:102C8000A440014463460500032489003D3F098CAC
:102C9000A188F3A40430B747008083A7872D81C79C
:102CA00063D387003E842285B24022449244024985
:102CB000410182801C45011106CE22CC26CA63C97F
:102CC000070237460080B74500803745008013056E
:102CD000C59893063004130646E6938545E9EFE070
:102CE0005FB637450080130505A3EFE09FB501A04F
:102CF0004CC532C62A84DD35AA84C13D32466343C1
:102D0000C0000546B747008003A707F42A9610C401
:102D1000938707F46304F700CC4301EBD8431CC04E
:102D200058C0D84300C3C0C3A9A0144763D9060242
:102D300037460080B7450080374500801305C598A9
:102D40009306C004130646E6938545EAEFE07FAF9D
:102D500037450080130505A3EFE0BFAE01A0104486
:102D6000635AD602918E14C7544318C054C080C20F
:102D700040C398436308F7006316E400D9358145E2
:102D8000EFE0FFC2A188F3A40430F2406244D244D1
:102D900005618280B306D64014C4E381E5F8184388
:102DA000ADBF01112EC606CE22CC26CAAA843D355F
:102DB0002A84413DB24563D8A400854763D5A70066
:102DC0002685EFE0DFBE218873240430F2406244A0
:102DD000D24405618280011106CE22CC26CA2A8403
:102DE0004EC652C4B74900804AC8374A0080EFF047
:102DF0004FF1B7440080DD33130A0AF423AC89FE97
:102E000093840400938989FF03240A0083A709009F
:102E1000944003A84400137985006308440111C459
:102E2000184463DDE7021D8F18C4BE9613D7F7411F
:102E30004297B3B7F600BA9794C0DCC023A009004C
:102E400009358145EFE0BFB673290930F24062448D
:102E5000D2444249B249224A05618280BA969355CA
:102E6000F74133B6E600C2952E96998F23240400CD
:102E7000228594C0D0C023A0F900EFF0DFD67329DB
:102E800009305C4422858297EFF05FD5B5BF4111D0
:102E900006C622C4EFF09FD42A84EFE01FBD374757
:102EA000008013070700AA8708434C4321883E95FA
:102EB000B337F500BE9573240430B240224441017B
:102EC0008280411106C6E1371306803E8146EFD06D
:102ED000BF93130640068146EFD08FB3B240410145
:102EE0008280A147F3B707301841A18BD98D0CC15F
:102EF000F3A707303A858280A147F3B7073018411E
:102F0000A18BF98D0CC1F3A707303A85828041115E
:102F100022C426C237440080B744008006C613048A
:102F200004F8938404F863689400B2402244924405
:102F30000145410182809307440122855CC81CCC75
:102F4000EFE04F877104C5B7B747008083A7872C90
:102F50005D71A2C4A6C2CAC04EDE5AD886C652DC73
:102F600056DA5ED662D466D26AD06ECEAA892E892F
:102F7000328B368481448DCBB1C237460080B74551
:102F80000080374500801305C5989306700313062B
:102F900046EB938545EEEFE0DF8A37450080130569
:102FA00005A3EFE01F8A01A0635AD000CD35AA84A3
:102FB000A94513059400EFD03F8EAA9437450080B1
:102FC000130505F83385A940B775DBB6938575DB26
:102FD0000985EFD03F817D7A856A137CF50FD55B3B
:102FE000D15C130AFA0FFD1A214D938D49014A87CE
:102FF00074003000DA854E85EFE04F88631C750160
:103000004A8774003000DA854E85EFE02F8763131E
:1030100075015155A24723028901BD8B1397870083
:1030200083274900B3F74701D98F3247B3F75701D8
:103030003207D98F2322F90005C51DC063129503FD
:1030400073350D302286EE852189EFF00FDDFD57B7
:10305000E30FF4F82D3D3384A440E35A04F85555AA
:10306000B640264496440649F259625AD25A425B07
:10307000B25B225C925C025DF24D616182808347AB
:1030800005004111104122C4139437004AC01D8C21
:10309000374900800A0493558600130909F83182E4
:1030A000BD893305890026C206C6A144EFE02F9FE3
:1030B000F3B40430130544014A95A188EFF0CFD74B
:1030C00011CDB747008083A7872C89EB2244B240FB
:1030D00002492685924441016FF0AF95F3A4043074
:1030E000B240224492440249410182801386450045
:1030F0006378B600014582800145F2400561828017
:10310000011181462C0006CE81357DF52245114600
:103110006C00EFE03F9A22451105C5B719C1711542
:10312000B9BF8280B747008083A7072DAA85A8571B
:0A31300011C16DBF0145828082804D
:02313A00FFFF95
:10313C0000000000D60D008000000000D60D0080BD
:10314C0000000000D60D008000000000D60D0080AD
:10315C0000000000D60D008000000000D60D00809D
:10316C0000000000D60D0080000000000419008053
:10317C0000000000D60D008000000000D60D00807D
:10318C0000000000D60D008000000000D60D00806D
:10319C0000000000D60D008000000000D60D00805D
:1031AC0000000000D60D008000000000D60D00804D
:1031BC0000000000D60D008000000000D60D00803D
:1031CC0000000000D60D008000000000D60D00802D
:1031DC0000000000D60D008000000000D60D00801D
:1031EC0000000000D60D008000000000D60D00800D
:1031FC0000000000D60D008000000000D60D0080FD
:10320C0000000000D60D008000000000D60D0080EC
:10321C0000000000D60D008000000000D60D0080DC
:10322C0000000000D60D008000000000D60D0080CC
:10323C0000000000D60D008000000000D60D0080BC
:10324C0000000000D60D008000000000D60D0080AC
:10325C0000000000D60D008000000000D60D00809C
:10326C0000000000D60D008000000000D60D00808C
:10327C0000000000D60D008000000000D60D00807C
:10328C00D0350080CE180080000000003C3A008051
:10329C007C19008000000000343A0080961B0080EE
:1032AC0000000000D03500800E2F008000000000D0
:1032BC0000010202030303030404040404040404D1
:1032CC0005050505050505050505050505050505A2
:1032DC000606060606060606060606060606060682
:1032EC000606060606060606060606060606060672
:1032FC000707070707070707070707070707070752
:10330C000707070707070707070707070707070741
:10331C000707070707070707070707070707070731
:10332C000707070707070707070707070707070721
:10333C000808080808080808080808080808080801
:10334C0008080808080808080808080808080808F1
:10335C0008080808080808080808080808080808E1
:10336C0008080808080808080808080808080808D1
:10337C0008080808080808080808080808080808C1
:10338C0008080808080808080808080808080808B1
:10339C0008080808080808080808080808080808A1
:1033AC000808080808080808080808080808080891
:1033BC0072656772657373696F6E5F74687265614D
:1033CC0064000000746573745F637269746963618F
:1033DC006C0000002F686F6D652F6D69616F752F24
:1033EC0070726F2F72697363762F7A657068797259
:1033FC002F74657374732F6B65726E656C2F6372AB
:10340C0069746963616C2F7372632F6D61696E2EC1
:10341C00630000000A2020202041737365727469D8
:10342C006F6E206661696C65642061742025733A47
:10343C0025643A2025733A2025730A0054696D657A
:10344C0064206F75742077616974696E6720666F8C
:10345C007220524547524553535F53454D0000006F
:10346C00286B5F73656D5F74616B652826524547E9
:10347C00524553535F53454D2C20544553545F5480
:10348C00494D454F555429203D3D2030206973202E
:10349C0066616C7365290000556E657870656374A0
:1034AC0065642076616C756520666F72203C637272
:1034BC0069746963616C5F7661723E00286372693E
:1034CC00746963616C5F766172206E6F74206571D4
:1034DC0075616C20746F206E63616C6C73202B2093
:1034EC00616C745F7468726561645F697465726144
:1034FC0074696F6E73290000746573745F6372690D
:10350C00746963616C00000054696D6564206F75AB
:10351C00742077616974696E6720666F72205445F8
:10352C0053545F53454D0000286B5F73656D5F749A
:10353C00616B652826544553545F53454D2C2054DC
:10354C004553545F54494D454F5554202A20322938
:10355C00203D3D20302069732066616C7365290025
:10356C006B65726E656C5F637269746963616C0024
:10357C00140D0080840D0080840D0080080D0080E7
:10358C00140D0080700D00807A0D008000380080D2
:10359C00203800803C380080503800805C38008037
:1035AC0074380080756E6B6E6F776E00457863654E
:1035BC007074696F6E2063617573652025732028A4
:1035CC002564290A000000002A2A2A2A204B657249
:1035DC006E656C20416C6C6F636174696F6E204614
:1035EC0061696C75726521202A2A2A2A0A0000005A
:1035FC002A2A2A2A2A204B65726E656C204F4F505E
:10360C005321202A2A2A2A2A0A0000002A2A2A2A96
:10361C002A204B65726E656C2050616E69632120A7
:10362C002A2A2A2A2A0A00002A2A2A2A20556E6BBC
:10363C006E6F776E20466174616C204572726F728A
:10364C0020256421202A2A2A2A0A00004375727236
:10365C00656E7420746872656164204944203D2055
:10366C0025700A4661756C74696E6720696E737497
:10367C0072756374696F6E20616464726573732014
:10368C003D20307825780A202072613A2030782548
:10369C0078202067703A2030782578202074703A92
:1036AC002030782578202074303A20307825780A1C
:1036BC00202074313A2030782578202074323A203A
:1036CC0030782578202074333A20307825782020E3
:1036DC0074343A20307825780A202074353A20301A
:1036EC00782578202074363A20307825782020618F
:1036FC00303A2030782578202061313A20307825F6
:10370C00780A202061323A203078257820206133E5
:10371C003A2030782578202061343A20307825788A
:10372C00202061353A20307825780A202061363AFD
:10373C002030782578202061373A20307825780A97
:10374C000000000049535200657373656E74696123
:10375C006C207468726561640000000046617461DD
:10376C006C206661756C7420696E20257321205362
:10377C0070696E6E696E672E2E2E0A00466174613A
:10378C006C206661756C7420696E2074687265615A
:10379C0064202570212041626F7274696E672E0A55
:1037AC0000000000ADBAADDEADBAADDEADBAADDE37
:1037BC00ADBAADDEADBAADDEADBAADDEADBAADDE35
:1037CC00ADBAADDEADBAADDEADBAADDEADBAADDE25
:1037DC00ADBAADDEADBAADDEADBAADDEADBAADDE15
:1037EC00ADBAADDEADBAADDEADBAADDEADBAADDE05
:1037FC00ADBAADDE496E737472756374696F6E2009
:10380C0061646472657373206D6973616C69676E52
:10381C0065640000496E737472756374696F6E2011
:10382C00416363657373206661756C7400000000FE
:10383C00496C6C6567616C20696E73747275637426
:10384C00696F6E00427265616B706F696E74000017
:10385C004C6F61642061646472657373206D69736D
:10386C00616C69676E6564004C6F616420616363B1
:10387C00657373206661756C74000000537075720B
:10388C00696F757320696E746572727570742064DB
:10389C006574656374656421204952513A2025642E
:1038AC000A0000002F686F6D652F6D69616F752FB1
:1038BC0070726F2F72697363762F7A657068797284
:1038CC002F617263682F726973637633322F636F63
:1038DC0072652F7468726561642E6300282828282D
:1038EC007072696F726974792929203D3D203135D8
:1038FC00202626205F69735F69646C655F7468724B
:10390C0065616428287468726561645F66756E63AE
:10391C00292929207C7C20285F69735F7072696F6C
:10392C005F6869676865725F6F725F657175616CFE
:10393C002828287072696F7269747929292C2028BB
:10394C003135202D20312929202626205F69735FEF
:10395C007072696F5F6C6F7765725F6F725F6571A4
:10396C0075616C2828287072696F726974792929BD
:10397C002C2028282D31362929292929000000003E
:10398C00415353455254494F4E204641494C205BBC
:10399C0025735D20402025733A25640A0000000041
:1039AC0009696E76616C6964207072696F726974F2
:1039BC007920282564293B20616C6C6F7765642025
:1039CC0072616E67653A20256420746F2025640A45
:1039DC00000000002F686F6D652F6D69616F752F8A
:1039EC0070726F2F72697363762F7A657068797253
:1039FC002F6C69622F6D656D706F6F6C2F6D656DBF
:103A0C00706F6F6C2E630000626C6F636B5F666926
:103A1C00747328702C20626C6F636B2C206C737A1F
:103A2C0029000000090A0000756172743000000062
:103A3C007379735F636C6F636B000000921B008083
:103A4C007E1B008000000000000000000000000051
:103A5C00503B0080583B0080DC3A008052756E6E03
:103A6C00696E67207465737420737569746520259D
:103A7C00730A00003D3D3D3D3D3D3D3D3D3D3D3DE1
:103A8C003D3D3D3D3D3D3D3D3D3D3D3D3D3D3D3D5A
:103A9C003D3D3D3D3D3D3D3D3D3D3D3D3D3D3D3D4A
:103AAC003D3D3D3D3D3D3D3D3D3D3D3D3D3D3D3D3A
:103ABC003D3D3D3D3D3D3D0A00000000737461728B
:103ACC0074696E672074657374202D2025730A0049
:103ADC00534B4950000000002573202D2025730AFC
:103AEC00000000005465737420737569746520259B
:103AFC0073206661696C65642E0A000054657374EA
:103B0C00207375697465202573207375636365650F
:103B1C006465640A000000004641494C45440000BD
:103B2C0050524F4A45435420455845435554494FEC
:103B3C004E2025730A00000053554343455353460A
:103B4C00554C000050415353000000004641494C75
:103B5C0000000000503F0080743F0080803F0080D8
:103B6C00803F0080803F00806D61696E0000000026
:103B7C0069646C65000000002A2A2A2A2A20426FF8
:103B8C006F74696E67205A6570687972204F532084
:103B9C007A65706879722D76312E31332E302D3353
:103BAC003032302D6733376633373434202A2A2AA3
:103BBC002A2A0A00215F69735F69646C652874683E
:103BCC0072656164290000007468726561642D3E41
:103BDC00626173652E70656E6465645F6F6E000064
:103BEC002F686F6D652F6D69616F752F70726F2FF8
:103BFC0072697363762F7A65706879722F6B657250
:103C0C006E656C2F696E636C7564652F6B7363687E
:103C1C0065642E680000000021285F6B65726E657C
:103C2C006C2E6E657374656420213D20305529001F
:103C3C005F6B65726E656C2E63757272656E742D3A
:103C4C003E626173652E73636865645F6C6F636B52
:103C5C00656420213D2031002F686F6D652F6D69E3
:103C6C00616F752F70726F2F72697363762F7A651F
:103C7C00706879722F6B65726E656C2F73636865F3
:103C8C00642E63005F6B65726E656C2E6375727269
:103C9C00656E742D3E626173652E73636865645F37
:103CAC006C6F636B656420213D2030002F686F6D55
:103CBC00652F6D69616F752F70726F2F72697363E9
:103CCC00762F7A65706879722F6B65726E656C2FC2
:103CDC0073656D2E630000006C696D697420213D65
:103CEC0020305500096C696D69742063616E6E6FCC
:103CFC0074206265207A65726F0A0000696E6974BF
:103D0C0069616C5F636F756E74203C3D206C696DEE
:103D1C006974000009636F756E742063616E6E6F59
:103D2C0074206265206772656174657220746861C5
:103D3C006E206C696D69740A000000002828285FE9
:103D4C006B65726E656C2E6E657374656420213DB7
:103D5C0020305529203D3D203029207C7C202874A2
:103D6C00696D656F7574203D3D2030292900000078
:103D7C002F686F6D652F6D69616F752F70726F2F66
:103D8C0072697363762F7A65706879722F6B6572BE
:103D9C006E656C2F7468726561642E6300000000A0
:103DAC000954687265616473206D6179206E6F745B
:103DBC00206265206372656174656420696E2049B8
:103DCC005352730A000000002F686F6D652F6D69E8
:103DDC00616F752F70726F2F72697363762F7A65AE
:103DEC00706879722F6B65726E656C2F7468726572
:103DFC0061645F61626F72742E6300002874687274
:103E0C006561642D3E626173652E757365725F6FBB
:103E1C007074696F6E73202620282831554C203C15
:103E2C003C20283029292929203D3D203000000044
:103E3C0009657373656E7469616C20746872656171
:103E4C00642061626F727465640A0000776F726B34
:103E5C0071756575650000002F686F6D652F6D6954
:103E6C00616F752F70726F2F72697363762F7A651D
:103E7C00706879722F6B65726E656C2F74696D65E5
:103E8C006F75742E63000000746F2D3E647469634B
:103E9C006B73203C20300000742D3E647469636B9E
:103EAC0073203E3D203000002F686F6D652F6D69CB
:103EBC00616F752F70726F2F72697363762F7A65CD
:103ECC00706879722F6B65726E656C2F6D656D7095
:103EDC006F6F6C2E630000002128285F6B65726E7B
:103EEC00656C2E6E657374656420213D20305529F8
:103EFC002026262074696D656F757420213D203055
:043F0C002900000088
:103F100004350080B20900804C0900804C09008003
:103F20000000000000000000000000000000000091
:103F30000000000000000000761400800300000074
:103F4000403F0080403F0080F5FFFFFFE8410080D8
:103F5000B03200800000000000000000A4320080A9
:103F6000483A0080000000008C3200800000000011
:103F700000000000983200800000000000000000F7
:103F8000803F0080803F008000000000FFFFFFFFB7
:103F9000903F0080903F008000000000FFFFFFFF87
:103FA000A03F0080A03F008000000000FFFFFFFF57
:103FB000B03F0080B03F0080000000000000000023
:043FC0000F000000EE
:040000058000000077
:00000001FF
