:0200000480007A
:100000009702000093820201739052306F10D00A61
:10001000130101FB2320110023223100232441007E
:100020002326510023286100232A7100232CC101BB
:10003000232ED1012320E1032322F1032324A10253
:100040002326B1022328C102232AD102232CE10254
:10005000232EF1022320010523221105F32210345F
:1000600023245104F322003023265104EF00002002
:100070001303000063160504F3222034B703008045
:100080009383F3FFB3F272001303B000638A62003C
:100090001305010097000000938040146F10C07298
:1000A000832281049382420023245104976200003A
:1000B0009382C20C03A30200631403006F000009C3
:1000C00093020100976300009383C34303A143009D
:1000D000130101FF2320510003AE0300130E1E0085
:1000E00023A0C30163080300970000009380C003AE
:1000F0006F10407673252034B70200809382F2FFA0
:1001000033755500EF00801597520000938282D21C
:1001100013153500B382A20003A5020003A3420019
:10012000E7000300176300001303C33D83230300AC
:100130009383F3FF232073008322010013810200C5
:1001400083238300032E030263087E089762000066
:100150009382423B03A38200232683022328930237
:10016000232A2303232C3303232E43032320530565
:10017000232263052324730523268305232893055F
:10018000232AA305232CB30523242302976300000D
:100190009383C3F703AE03002326C30703A302021E
:1001A00023A46200032183020324C30283240303E4
:1001B0000329430383298303032AC303832A0304F4
:1001C000032B4304832B8304032CC304832C0305D8
:1001D000032D4305832D83058322810473901234FC
:1001E0008322C104739002308320010083214100E7
:1001F000032281008322C1000323010183234101E3
:10020000032E8101832EC101032F0102832F41029E
:10021000032581028325C1020326010383264103AE
:10022000032781038327C103032801048328410492
:100230001301010573002030730000009762000075
:100240009382422C03A382008323C3061375850087
:10025000F3220530138503006780000013031000AC
:10026000B312A30073B3423467800000F32220343A
:1002700037030080B3F262001305000063840200BC
:08028000130515006780000062
:10028800130101FD23229102232861012326110273
:100298002324810223202103232E3101232C410111
:1002A800232A51012326710123248101232291014C
:1002B800130B050093840500639C0638130406009D
:1002C8009309050017590000130949CE63F8C512B0
:1002D800B7070100938A05006378F6109306F00FBC
:1002E800B3B6C60093963600B357D6003309F90063
:1002F80003470900B306D700130700023307D740A6
:10030800630C0700B394E400B356DB003314E60033
:10031800B3EA9600B319EB00135B040193050B00D5
:1003280013850A00EF0040631309050093050B00CD
:10033800931B040113850A00EF00805D93DB0B011A
:10034800930405009305050013850B00EF0080500A
:100358001319090113D709013367E900138A040047
:10036800637EA70033078700138AF4FF636887005A
:100378006376A700138AE4FF33078700B304A74016
:1003880093050B0013850400EF00005D13090500B9
:1003980093050B0013850400EF008057939909011A
:1003A80093040500930505001319090113850B0033
:1003B80093D90901EF00004AB36939011386040093
:1003C80063FCA900B30934011386F4FF63E68900CE
:1003D80063F4A9001386E4FF93170A01B3E7C70083
:1003E800130A00006F000013B7070001930600010D
:1003F800E36CF6EE930680016FF01FEF138A060098
:10040800631A06009305000013051000EF00405022
:1004180013040500B7070100637CF4129307F00F7B
:1004280063F48700130A8000B35744013309F900C5
:100438008346090013060002B38646013306D640F8
:1004480063120612B3848440130A1000135B04017C
:1004580093050B0013850400EF00005013090500F5
:1004680093050B0013850400931B0401EF00404A19
:1004780093DB0B01930405009305050013850B001E
:10048800EF00403D1319090113D709013367E9004B
:10049800938A0400637EA70033078700938AF4FFDA
:1004A800636887006376A700938AE4FF33078700B1
:1004B800B304A74093050B0013850400EF00C0495F
:1004C8001309050093050B0013850400EF00404451
:1004D800939909019304050093050500131909016F
:1004E80013850B0093D90901EF00C036B3693901B0
:1004F8001386040063FCA900B30934011386F4FFD2
:1005080063E6890063F4A9001386E4FF93970A0160
:10051800B3E7C7001385070093050A008320C102CB
:100528000324810283244102032901028329C10192
:10053800032A8101832A4101032B0101832BC10076
:10054800032C8100832C4100130101036780000004
:10055800B7070001130A0001E368F4EC130A8001ED
:100568006FF09FEC3314C40033DAD400B319CB0016
:10057800B356DB00135B0401B394C40093050B006E
:1005880013050A00B3EA9600EF00003D13090500C1
:1005980093050B0013050A00931B0401EF00403775
:1005A80093DB0B01930405009305050013850B00ED
:1005B800EF00402A1319090113D70A013367E9002C
:1005C800138A0400637EA70033078700138AF4FFA9
:1005D800636887006376A700138AE4FF3307870000
:1005E800B304A74093050B0013850400EF00C03641
:1005F8001309050093050B0013850400EF00403133
:10060800930405009305050013850B00EF00802473
:1006180093960A011319090193D60601B367D90005
:100628001387040063FEA700B38787001387F4FFCE
:1006380063E8870063F6A7001387E4FFB3878700A2
:10064800131A0A01B384A740336AEA006FF01FE067
:1006580063ECD51EB707010063F4F6049305F00FA9
:1006680033B5D5001315350033D7A60097570000CA
:100678009387C793B387E70083C50700130A00026F
:10068800B385A500330ABA4063160A02930710001F
:10069800E3E296E83336CB00934716006FF09FE706
:1006A800B707000113050001E3E0F6FC130580011C
:1006B8006FF09FFBB35AB600B3964601B3EADA006F
:1006C80033D9B400B3974401B355BB0093DB0A0197
:1006D800B3E4F5001305090093850B00B31946012F
:1006E800EF0080271304050093850B00130509000C
:1006F800139C0A01EF00C021135C0C0113090500CB
:100708009305050013050C00EF00C0141314040131
:1007180013D704013367E400930C0900637EA70034
:1007280033075701930CF9FF636857016376A700F5
:10073800930CE9FF330757013309A74093850B0052
:1007480013050900EF0040211304050093850B00F1
:1007580013050900EF00C01B1309050093050500E8
:1007680013050C00EF00000F939704011314040104
:1007780093D707013367F40013060900637EA700C7
:10078800330757011306F9FF636857016376A7001B
:100798001306E9FF3307570193970C01370E010041
:1007A800B3E7C7001308FEFF33F3070133F8090165
:1007B8003307A74093DE070193D909011305030006
:1007C80093050800EF0000099308050093850900C8
:1007D80013050300EF000008130305009305080044
:1007E80013850E00EF000007130805009385090024
:1007F80013850E00EF00000693D6080133030301AA
:10080800B386660063F406013305C50113D60601F5
:100818003305A6006366A702E314A7BC37070100E7
:100828001307F7FFB3F6E60093960601B3F8E8005E
:1008380033164B01B3861601130A0000E37CD6CCAD
:100848009387F7FF6FF0DFB9130A000093070000E2
:100858006FF05FCC130605001305000093F6150032
:10086800638406003305C50093D5150013161600DA
:10087800E39605FE67800000130101FF138306005D
:1008880023261100130E05009308050093060600A1
:1008980013070000930700001308000013F5160063
:1008A800931E1700630C05003385080133380501D2
:1008B800B387E700B307F8001308050013D7F8015A
:1008C80093D6160033E7EE0093981800E39806FCD9
:1008D8006388050013050600EFF0DFF7B387A7006C
:1008E800630A030013050E0093050300EFF09FF65B
:1008F800B307F5008320C10013050800938507009E
:1009080013010101678000006340050663C6050600
:1009180013860500930505001305F0FF630C060216
:1009280093061000637AB6006358C00013161600C9
:1009380093961600E36AB6FE1305000063E6C50049
:10094800B385C5403365D50093D6160013561600F7
:10095800E39606FE6780000093820000EFF05FFBDD
:1009680013850500678002003305A04063D80500A1
:10097800B305B0406FF0DFF9B305B04093820000D3
:10098800EFF01FF93305A040678002009382000052
:1009980063CA0500634C0500EFF09FF71385050057
:1009A80067800200B305B040E35805FE3305A04058
:1009B800EFF01FF63305B040678002006780000043
:1009C800B765008037550080938545041305851663
:1009D8006F204031130101FD232E1100232C8100CB
:1009E8002324010323261103631805041386060034
:1009F80013870500B7560080B7550080375500802B
:100A080093864617138407009385851893078102F8
:100A18001305851D2326F100EF10D0528325C10050
:100A280013050400EF10104F375500801305856932
:100A3800EF105051EF2000288320C10103248101C9
:100A48001301010367800000130101FD23229102B5
:100A58001307050093040500B7160080B7650080EA
:100A68003765008093080000130800009307000012
:100A7800938686B31306002093850553232201002D
:100A8800232001001305051C2326110223248102BB
:100A980023202103232E3101EF309005130905008F
:100AA800EF4080009305401F1304050013850400E0
:100AB800EF20D02D93090500EF30107F33048540D7
:100AC80013050900EF30102C37590080B754008007
:100AD800B7570080B7550080130749171386841845
:100AE80013B51900938707209306B0029385052351
:100AF800EFF05FEE13350405032481028320C10261
:100B08008329C10113074917138684180329010291
:100B180083244102B7570080B75500809387472444
:100B2800930620039385C527130101036FF09FEAFD
:100B3800130101FF2324810013040500130520037A
:100B480023261100EF300039130504000324810027
:100B58008320C100130101016F205007130101FF19
:100B680023248100376400801305041B2326110009
:100B7800EF2050041305041BEFF01FED0324810040
:100B88008320C10037650080130545161301010154
:100B98006FF09FEB130101FD232E110023240103A5
:100BA80023261103631605041386060037550080B3
:100BB8009306070013870500B75500809307810245
:100BC8009385852E1305851D2326F100EF10903798
:100BD8008325C1003755008013050567EF10903352
:100BE8003755008013058569EF10D035EF20800C4C
:100BF8008320C1011301010367800000130101FE76
:100C0800232C81009305000037640080232E1100F7
:100C1800232A91002328210123263101232441017D
:100C280023225101130A050013040423EF20101690
:100C380037590080B7590080B7540080B75A0080F0
:100C48003305854093870967130709291386842E7E
:100C58009306600393858A3B13351500EFF09FF3E5
:100C68009305000013050A00EF20501213048400B6
:100C78003305854093870967130709291386842E4E
:100C88009306600393858A3B13351500EFF09FF0B8
:100C98009305000013050A0037640080EF20100F49
:100CA80013040424B75A00803305854093870967E5
:100CB800130709291386842E9306B00393850A3EE9
:100CC80013351500EFF01FED9305000013050A001A
:100CD800EF20D00B13048400330585409387096700
:100CE800130709291386842E9306B00393850A3EB9
:100CF80013351500EFF01FEA9305000013050A00ED
:100D080037640080EF20900813040425B75A008048
:100D18003305854093870967130709291386842EAD
:100D28009306000493858A4013351500EFF09FE67B
:100D38009305000013050A00EF20500513048400F2
:100D480033058540032481018320C101032A8100E2
:100D580093870967130709298329C100032901011A
:100D68001386842E93858A4083244101832A410077
:100D78009306000413351500130101026FF09FE17B
:100D8800130101FF23248100232611001304050009
:100D9800EFF0DFE603250400032481008320C1006F
:100DA800B75700803757008037560080B755008006
:100DB800938707671307C72A9306E0041306862E4E
:100DC8009385C53313351500130101016FF09FDCBE
:100DD800130101FF23261100EFF05FE28320C10019
:100DE8003765008013050526130101016F30802B3C
:100DF800130101FF232481001304050037650080D7
:100E0800130610009305000013050526232611007C
:100E1800EF30802037150080930504001305C5ECDA
:100E2800EF00502513050400032481008320C1002E
:100E3800130101016FF09FDC130101FEB76500800B
:100E4800232A91009384052393850523232E1100DB
:100E5800232C810013040500EF20405C9385840057
:100E680013050400EF20805BB76500809387052495
:100E78001386870023A0C7001305040023A40700D6
:100E880093850524EF20805AB7670080938707254C
:100E980013878700930581001305040023A4070026
:100EA80023A0E7002324F1002326E100EF20806738
:100EB8008320C1010324810183244101130101021C
:100EC80067800000130101FF2324810023261100FD
:100ED80013040500EFF05FF60325040003248100E6
:100EE8008320C100B75700803757008037560080ED
:100EF800B7550080938707671307C72993068004AF
:100F08001306862E9385C5363335A00013010101DB
:100F18006FF05FC8130101FE23244101376A008086
:100F2800232631019309050013050A27232E1100F2
:100F3800232C8100232A910023282101EFF0DFEFE1
:100F480003A50900B7540080375900803754008042
:100F5800B7550080930709671387C42B1306842E9F
:100F680093069007938545433335A000EFF09FC261
:100F780013050A27EFF09FC803A509001306842E5E
:100F8800032481018320C1018329C100032A810030
:100F9800930709671387C42B03290101832441019F
:100FA800B75500809306D00793854545133515003E
:100FB800130101026FF01FBE130101FE232C8100F3
:100FC80037640080232A910013061000930405005B
:100FD8009305000013050426232E11002328210160
:100FE800EF308003B7160080B76500803765008052
:100FF80013870400930800001308000093070000FB
:10100800938686DD1306002093850573232201004D
:101018002320010013050528EF30802D1309050052
:1010280013850400EFF05FE1130504269305F0FF34
:10103800EF30C00F032481018320C10183244101C3
:101048001305090003290101130101026F308053C0
:10105800130101FF23248100130405003765008074
:10106800930500001306100013050526232611001A
:10107800EF20907A13050400EFF01FDC93050400BD
:10108800032481008320C10037150080130585D80B
:10109800130101016F00007E130101FF2324810069
:1010A800376400801305042723261100EF208030C1
:1010B80013050427EFF05FF0032481008320C100AB
:1010C8003765008013054515130101016FF0DFEE48
:1010D800130101FF232481003764008013050427CE
:1010E80023261100EF20002D13050427EFF05FD011
:1010F800032481008320C10037650080130545154E
:10110800130101016FF0DFCE130101FF23248100D9
:10111800376400801305042723261100EF20802957
:1011280013050427EFF0DFF2032481008320C100B8
:101138003765008013054515130101016FF05FF154
:10114800130101FF2324810037640080130504275D
:101158002326110023229100EF20C02593040427A1
:1011680003A50400B7570080375700803756008022
:10117800B755008013351500938707671307C72CE9
:101188009306700B1306862E93858539EFF09FA082
:1011980013050427032481008320C1008324410010
:1011A800130101016FF01FD7130101FF23248100F0
:1011B800376400801305042723261100EF20801FC1
:1011C80093050427032481008320C100371500807C
:1011D8001305C5F1130101016F00C069130101FD79
:1011E800232E110023240103232611036318050469
:1011F8001386060013870500B7560080B755008090
:101208003755008093078102938646479385854822
:101218001305851D2326F100EF10C0528325C10058
:101228003755008013050567EF10C04E375500800D
:1012380013058569EF100051EF10D0278320C101F5
:101248001301010367800000130101FE130501006B
:10125800232E1100232C8100232A91002328210109
:10126800EF2040159305000013050100EF20003220
:10127800B75400803759008037540080B755008034
:101288009307096713874447130684489306C001E8
:101298009385854D13351500EFF05FF493054006EF
:1012A80013050100EF20802EB755008093070967CA
:1012B80013874447130684489306D0019385455005
:1012C80013351500EFF09FF18320C101032481013C
:1012D80083244101032901011301010267800000F1
:1012E800130101FFB7650080232291009384052F25
:1012F8009385052F2326110023248100130405005C
:10130800EF20C0119385840013050400EF2000111D
:101318009385040113050400EF2040101305040011
:10132800032481008320C100938584018324410024
:10133800130101016F20800E130101FD232E1100FE
:101348002324010323261103631A05043757008059
:10135800B7560080B7550080375500809307810243
:101368001307873B9386C65213063002938585532D
:101378001305851D2326F100EF10C03C8325C1000D
:101388003755008013050567EF10C03837550080C2
:1013980013058569EF10003BEF10D0118320C101C0
:1013A8001301010367800000130101FE232C810053
:1013B800376400801304042F232A91002328210175
:1013C80023263101232441012322510123206101D5
:1013D800232E1100130B050093040402375A0080D2
:1013E800B75A0080B759008037590080930500002C
:1013F80013050B00EF2080193305854093870A6792
:101408001307CA5293063002138689539305893B02
:101418001335150013048400EFF01FF2E31894FC51
:101428008320C1010324810183244101032901018F
:101438008329C100032A8100832A4100032B01006C
:101448001301010267800000130101FF23248100BA
:10145800130405003755008013058558232611000D
:10146800EF10402E13050400EFF01FF437550080ED
:1014780013058559EF10002D13050400032481007E
:101488008320C100130101016FF09FE5130101FFE3
:101498002322910093040500375500801305C55A8F
:1014A8002326110023248100EF10C029138504008E
:1014B800EFF09FEF3764008013050431EF20903E72
:1014C800375500801305055CEF10C027138504000D
:1014D800EFF01FE113050431032481008320C100CC
:1014E80083244100130101016F20D03B130101FC4B
:1014F800232C81023764008013050432232A9102C9
:101508002328210323244103232251032320610399
:10151800232E7101232C8101232A91012328A10163
:10152800232E11022326310393040000EF10906844
:10153800375D008037690080377C0080B76B00809A
:10154800B71C0080375B0080B71A0080375A0080CC
:101558009385040013058D5DEF10C01E130610005F
:101568009305000013050931EF20102B93070000A5
:1015780093080000130800001307043293864C49AF
:101588001306002093050C93232201002320010059
:1015980013850B33EF20D0559309050013058B5F96
:1015A800EF10401A13050432EFF09FD3930504326D
:1015B80013850A45EF00002C9305F0FF1305093148
:1015C800EF20D0369305F0FF13050931EF201036D0
:1015D8001305CA60EF10001713050432EFF0DFDCC3
:1015E80013850900EF20107A3755008013058569A7
:1015F800EF1040159384140093070002E39AF4F463
:101608008320C103032481038324410303290103A5
:101618008329C102032A8102832A4102032B010282
:10162800832BC101032C8101832C4101032D01016E
:101638001301010467800000130101FF2326110034
:1016480023248100930760006304F502EF20D03E55
:1016580063040502EF20503E63160504B755008069
:101668009385457F3765008013058580EF10800DD1
:10167800EF1040116FF0DFFFEF20103DE31C05FC79
:101688003764008013040450832584003765008084
:1016980013058582EF10000B03258400EF20906E60
:1016A8006FF01FFDB75500809385057F6FF09FFB96
:1016B800130101FB2324810423229104232611040E
:1016C80093076000930405001384050063E0A70EE8
:1016D80037570080931725001307C761B387E700C2
:1016E80083A7070067800700375500801305456703
:1016F800EF104005EF20901183274404832804014C
:101708000328C4002328F102832704040327440084
:10171800832604002326F1028327C40303268404B6
:10172800930505002324F10283278403375500809D
:101738001305856F2322F102832744032320F10236
:1017480083270403232EF1008327C402232CF100EE
:1017580083278402232AF100832744022328F100E7
:10176800832704022326F1008327C4012324F100E0
:10177800832784012322F100832744012320F100D9
:1017880083278400EF00107C930504001385040070
:10179800EFF09FEA375500801305C5696FF05FF5D4
:1017A800375500801305856B6FF09FF4375500801F
:1017B800938504001305456DEF00D0786FF09FF313
:1017C800130101FF232481002326110013040500BF
:1017D800732620341316160013561600930750006C
:1017E80063E8C702375700809317260013078763FB
:1017F800B307F70083A507003755008013058565F3
:10180800EF0050749305040013050000EFF05FEA41
:10181800B7550080938505656FF01FFE130101FF22
:1018280023261100F3252034376500809395150091
:1018380093D5150013058592EF00D070B765008029
:101848009385058513054000EFF09FE6B767008094
:101858009387871703A70700630C070003A30700F4
:1018680023A00700B767008003A5C7176700030018
:101878006780000093078000F3B707303767008060
:10188800232CA71637670080232EB7167300000095
:1018980093F78700F3A7073067800000130101FF63
:1018A80023261100EF10007CEF00D06FEF105002DC
:1018B80017610000130181A7B7120000938202800C
:1018C80033015100EFF09FFD6F008011130101FDFE
:1018D800232481022322910223202103232E310174
:1018E80023261102938906009306F000930405004D
:1018F8001384050013090600639CD808B7360080D6
:1019080093864603639CD9088326010393850800C0
:101918001385040013064000232601012324F10047
:101928002322E100EF20504483278100930509FB1F
:10193800B305B40023AE040423A0040693F505FF01
:1019480023A8F502B7270000032741000328C10098
:101958009387078823A6F504B72700808320C10250
:10196800032481029387078D23A4350323A6E50268
:1019780023AA050323A4F50423A4B402032901021E
:10198800832441028329C1011301010367800000F8
:10199800938608011306E001E378D6F637660080DF
:1019A800B7650080376500809306800113060695A9
:1019B800938585981305C5A223221101EF0090583D
:1019C8008328410037650080930600FF1306E00076
:1019D800938508001305C5A4EF00D0566F000000DA
:1019E800130101FF93070500138505009305060001
:1019F8001386060023261100E7800700EF20006108
:101A0800EF20503893971500B387B7001397270036
:101A18008327C500B387E7000307B5006354B70001
:101A280083A707001357F6411377F7013307C70059
:101A38001357574013172700B387E70023A0F60072
:101A48001375F60167800000130101FE9306C100BB
:101A5800232E1100EFF01FFB0327C100930710008E
:101A68003395A700832707008320C101B3E7A700A8
:101A78002320F7001301010267800000130101FE13
:101A88009306C100232E1100EFF0DFF70327C100F2
:101A9800930710003395A700832707008320C1010F
:101AA8001345F5FF33F5A7002320A7001301010212
:101AB80067800000130101FE232A9100832445005A
:101AC800232C810013040500035585009385040029
:101AD80023282101232631012324410123225101F6
:101AE80023206101232E1100EFE0DFD683290400B3
:101AF800834AA4009307F0FF130A0500B389A900DD
:101B0800A305F40013090000130BF001634C5903FB
:101B1800930400008357840063CCF4088320C10138
:101B28000324810183244101032901018329C10080
:101B3800032A8100832A4100032B010013010102BB
:101B4800678000009385040013050A00EFE05FDC5E
:101B58001317190033072701931727000327C40019
:101B68003307F700930747002322F7002324F700E1
:101B7800634EAB00A305240193D42400938434005E
:101B880093F4C4FF130919006FF05FF81305F5010A
:101B98009357F54193F7F701B387A70093D75740B9
:101BA8009397270023203701B389F9006FF0DFFCF2
:101BB8008325440013850400EFE0DFC98327040070
:101BC80013860400930500003385A7008327C4000B
:101BD80093841400138747002320E50003A7870098
:101BE8002322E50003A787002320A70023A4A7003A
:101BF80013050400EFF05FE56FF0DFF1130101FA60
:101C0800232C81042326310523206105232E11046A
:101C1800232A910423282105232441052322510541
:101C2800232E7103232C8103232A91032328A10344
:101C38002326B10313040106034EA5009309F0FF00
:101C480093172E009387F70093F7077F3301F1402E
:101C580083274500130B010093080B009387370077
:101C680093F7C7FF2320FB0093070000938AF7FF31
:101C780063D2C703638C070003A8C8FF1358280062
:101C8800130838001378C8FF23A0080103A8080028
:101C9800637AB8049307F0FF639EFA0623200700CF
:101CA800130540FF130104FA8320C10503248105AD
:101CB80083244105032901058329C104032A8104DA
:101CC800832A4104032B0104832BC103032C8103C2
:101CD800832C4103032D0103832DC1021301010647
:101CE800678000000323C500139817003308F80025
:101CF8001318280033080301130348000328480079
:101D08006304680093890700938717009388480045
:101D18006FF0DFF5E384F9F8834705011309000044
:101D280093F7170063880700130980007339093097
:101D38001379890093971900232AE4FAB3873701A6
:101D48000327C5009397270093874700B307F70039
:101D5800938C0600232CC4FA930405001307F0FFA4
:101D680003AA0700638047199397290003274A00AD
:101D7800330DFB0083270A0083250D00930D800097
:101D88002320F70023A2E70003A504003305AA4097
:101D9800EFE09FB71306050093850900138504003B
:101DA800EFF0DFCD938919001387F9FF63445705D6
:101DB80083C7040193F71700638407007329093068
:101DC800832784FB03A5040023A05701939A2A00C4
:101DD800330B5B0183250B003305AA40EFE0DFB22C
:101DE800832744FB23A0AC001305000023A0470170
:101DF8006FF05FEB03A5040083250D00930B100023
:101E08003305AA40EFE05FB09398190093172500B7
:101E1800B3883801232EF4FA9398280003274D003D
:101E280093850B00232614FB130507002328E4FAE7
:101E3800EFE05FA28327C4FB330CAA009385090057
:101E48003386FB0013850400EFF01FC0032704FB53
:101E580003A6040083A544001307F7FF03D58400F5
:101E68003307EC003307C7402328E4FAEFE09F9ECE
:101E7800032704FB8328C4FA6374A70203A7C400DA
:101E880033071701130647002320CC0003268700D9
:101E98002322CC00032687002320860123248701E0
:101EA800938B1B0093074000E39AFBF603C70401DA
:101EB80013771700631A07001309000093891900A4
:101EC800130D4D006FF05FEE7329093003C704014D
:101ED80013771700E30207FE73B90D3013798900F1
:101EE8006FF0DFFD9389F9FF93074AFFE39AE9E66C
:101EF800130A00006FF0DFEB130101FA232C8104B1
:101F0800232A910423244105232E11042328210583
:101F1800232631052322510523206105232E710331
:101F2800232C8103232A91032328A1032326B10309
:101F3800130401060347A50093040500131727009F
:101F48001307F7001377077F3301E14003274500A4
:101F5800130A010093060A00130737001377C7FF17
:101F68002320EA00130510009386460063FAA508AB
:101F780003C70401138C05009309060013771700A3
:101F8800130900006308070013098000733909303A
:101F980013798900130D400013172C003307EA004A
:101FA800832A070083AB04001385090093850A0080
:101FB800EFE05F8A138BFAFFB30D6501B38BAB00BB
:101FC80083A5440003D58400EFE0DF8863E8AD040F
:101FD80037660080B7650080376500801305C5A2A5
:101FE8009306200A130606A8938545ABEF00807573
:101FF80037650080130505ADEF00C0746F00000061
:1020080003A7C6FF1305150013572700130737004A
:102018001377C7FF23A0E6006FF01FF513860900AA
:1020280093050C0013850400EFF01FA213171C0082
:10203800330787019316270003A7C4003307D70087
:102048009306470023A0DB008326870023A2DB003A
:102058008326870023A076012324770103C7040180
:1020680013771700631E0704930B000013890B00F6
:1020780063180C0683C7040193F7170063920712CD
:10208800130104FA8320C105032481058324410533
:10209800032901058329C104032A8104832A4104F1
:1020A800032B0104832BC103032C8103832C4103DD
:1020B800032D0103832DC10213010106678000006F
:1020C8007329093003C7040113771700E30E07F8D3
:1020D80093078000F3BB073093FB8B006FF01FF969
:1020E8009306C4FB1386090093050C0013850400AE
:1020F800EFF05F918326C4FB1357F5411377370040
:102108003307A70003A506001377C7FF9307F0005E
:102118003357E5001377F700E31EF7F4930C00003C
:1021280093FDC9FF33869D011305060093850A00B8
:102138002324C4FAEFE00FF2B3066501930B050000
:1021480083A5440003D584002326D4FAEFE08FF05A
:102158008326C4FA032684FA63F4A60293050C00C6
:1021680013850400EFF09F9183A60400B38B7601DA
:1021780003A64B0083A60B002320D60023A2C6008B
:10218800938C1C00E390ACFB13D6F9411376360010
:10219800B3093601130CFCFF93D929406FF0DFDF38
:1021A800F3AB0B306FF0DFED130500006780000024
:1021B80083A705009387170023A0F500B767008061
:1021C80003A3870F67000300130101FC232C81027E
:1021D8002326310323244103232061032328A1015B
:1021E800232E1102232A910223282103232251039B
:1021F800232E7101232C8101232A91012326B10169
:1022080093090500138A0500130D0600138B0600B9
:10221800130410006354E000130407009307100030
:10222800930C00026314FB00930C0003B7D49A3B91
:1022380013091000930AA000130C00009384F49F64
:10224800930D2000938B140063140C0063F2A40B0D
:1022580093850B0013050D00EFE08FEB93050A0043
:1022680013050503E780090013091900130C100072
:1022780093850B0013050D00EFE00FEE130D05001D
:102288009305A00013850400EFE08FE8938AFAFF16
:102298009307100093040500E396FAFA93050A00E1
:1022A80013050D03E7800900930730003304244128
:1022B8006306FB068320C1030324810383244103AF
:1022C800032901038329C102032A8102832A4102C7
:1022D800032B0102832BC101032C8101832C4101B3
:1022E800032D0101832DC100130101046780000043
:1022F800E34054F9E3EE6DF793050A0013850C00EB
:10230800E7800900130919006FF09FF693050A008A
:1023180013050002E78009001304F4FFE34880FE78
:102328006FF05FF9B767008023ACA70E67800000E5
:10233800130101FB23248104232291042320210576
:10234800232E3103232C4103232A5103232861031D
:1023580023229103232EB10123261104232671037E
:10236800232481032320A10313040500938405007B
:10237800130B0600938C0600130A00001309F0FFE4
:1023880093090000930D0000930A100003450B0009
:10239800631005048320C1040324810483244104B9
:1023A800032901048329C103032A8103832A4103E2
:1023B800032B0103832BC102032C8102832C4102CE
:1023C800032D0102832DC10113010105678000005F
:1023D800639E0D0093065002630CD530938504006C
:1023E800E7000400130B1B006FF05FFA930640062A
:1023F8006300D51263E2A6069306900363EAA60279
:10240800930610036374D50E9306D002630CD52E81
:10241800930700036300F50C130750026312E502EB
:102428009385040013055002E70004006F00401272
:1024380093068005630ED51613073006630EE5284C
:102448009385040013055002E700040093850400F7
:1024580003450B006FF05FFD93060007630AD51272
:1024680063E0A602930690066304D50A9306C006A5
:10247800630CD50893068006E306D5F66FF05FFC7B
:10248800930650076304D50E63EEA60213073007C0
:10249800E318E5FA138C4C0083AC0C00938B0C000A
:1024A80003C50B0063180520930730006398F900F3
:1024B800B38B9B41B30B794163467021930C0C009D
:1024C8006F000009930680076304D50E9306A007E2
:1024D8006FF09FFA635E0900638A0922130905FDFC
:1024E800E39209F0930920006FF0DFEFE34809FE5B
:1024F800931629003389260113191900130909FDB8
:10250800330925016FF0DFFD130A1A006FF09FED04
:1025180063C44A0503A60C00938C4C006350060262
:10252800938504001305D0022324C100E7000400AA
:10253800032681001309F9FF3306C0401307090079
:10254800938609009385040013050400EFF0DFC7A4
:10255800930D00006FF01FE993877C0013F787FF46
:10256800930C8700032607006FF05FFB63C84A01DE
:1025780003A60C00938C4C006FF05FFC93877C00E3
:1025880013F787FF930C8700032607006FF01FFBE4
:102598009385040013050003E700040093850400F5
:1025A80013058007E7000400130980009309100051
:1025B80063CA4A0983A70C00938C4C002324F100BA
:1025C80013068000130C0000130D00009305800013
:1025D80083278100938BF5FF13952B0033D5A70034
:1025E8001375F500631205089306000363140D00C4
:1025F800639655093385A600131585019385040054
:10260800135585412326C100E7000400130C1C0064
:102618000326C10063940B0493063000930D000059
:10262800E392D9DC13171900330C8741E35280F386
:102638009385040013050002E7000400130CFCFF57
:102648006FF0DFFE93877C0093F687FF83A7060071
:10265800938C86002324F1006FF09FF6138D0D00F4
:1026680093850B006FF0DFF69307900093067005D3
:10267800E3E2A7F8930600036FF0DFF79307F6FF8E
:102688002326F100634AC900639C5901938504001D
:1026980013050003E70004000326C1006FF05FFC88
:1026A80093072000E39AF9FE9385040013050002BE
:1026B8006FF05FFE93850400938B1B00E700040016
:1026C8006FF01FDE9385040013050002E700040085
:1026D800938BFBFF6FF05FDE03A50C00938B4C0020
:1026E80093850400E7000400938C0B006FF05FE60D
:1026F800130A00001309F0FF93090000930D10005E
:102708006FF05FCE930930006FF0DFCD93091000B2
:102718006FF05FCD130101FE130605003725008019
:10272800938605001305851B9305C100232E110010
:1027380023260100EFF0DFBF8320C101130101024E
:1027480067800000130101FC2322B10293054102B6
:10275800232E11002324C1022326D1022328E102BB
:10276800232AF102232C0103232E11032326B1006F
:10277800EFF05FFA8320C1011301010467800000B4
:102788006780000093078000F3A70730730050109C
:1027980067800000930710003395A7007325453024
:1027A8006780000093078000F3B70730735040300C
:1027B8007350403467800000130101FF2324810017
:1027C8002322910037640080232611009307A0007C
:1027D8009304050013040418631CF5000325040082
:1027E8009305D0008327450083A74700E7800700AB
:1027F8000325040093F5F40F8327450083A74700BA
:10280800E78007008320C1000324810013850400AA
:1028180083244100130101016780000037250080EF
:102828001305057C6FF01FB037650080130101FFA9
:10283800130545AD23261100EF008075B7670080AA
:1028480023A0A718EFF09FFD8320C1001305000007
:102858001301010167800000B70710F003A747F4D0
:1028680003A507F483A547F4E39AE5FE6780000013
:10287800130101FE232C8100232E1100232A91002D
:102888002328210123263101232441011304800038
:1028980073340430B764008093848418EFF0DFFB4E
:1028A80003A9040003AA4400930705003305254142
:1028B800B3B7A700B385454137D601001306064CC8
:1028C80093060000B385F540EFD09F9B9309050060
:1028D800B7D501009385054C13850900EFD09FF704
:1028E800330925013335A9003305450123A0240107
:1028F80023A2A400137484007324043003248101E8
:102908008320C1018324410103290101032A810095
:10291800138509008329C100130101026F20C0013A
:10292800130101FF23261100EFF01FF3B7D70100B1
:102938009387074C370710F0B307F5009306F0FFAD
:102948002326D7F433B5A7003305B5002324F7F4BD
:102958002326A7F413057000EFF0DFE38320C100FE
:102968001305000013010101678000006390051042
:10297800130101FE232C8100232E1100232A91002C
:102988002328210123263101232441019307F0FF45
:10299800130405006316F500379500001304E5BC21
:1029A80093048000F3B40430EFF01FEBB7970000F6
:1029B800930905009387E7BC1305F4FF93F484009B
:1029C80063D0A70A1385070037D401009305044C88
:1029D800EFD05FE8B76700809387871803A90700DF
:1029E80003AA47009307F44BB3872741B3873701FE
:1029F8003385A7009305044CEFD09FF19305044C51
:102A0800EFD05FE5B3093941B389A9009307703E58
:102A180063C637011304044C33058500B70710F06B
:102A2800330925011307F0FF23A6E7F43335A9007E
:102A38003305450123A427F523A6A7F4F3A40430FE
:102A48008320C10103248101832441010329010159
:102A58008329C100032A8100130101026780000055
:102A6800E35405F6130500006FF01FF667800000B9
:102A7800130101FF23248100232611001304800081
:102A880073340430EFF05FDDB767008083A78718E1
:102A9800B7D501009385054C3305F540EFD05FE7C6
:102AA80013748400732404308320C100032481003C
:102AB80013010101678000008347050003C7050073
:102AC8006394E700639607003385E740678000005A
:102AD80013051500938515006FF01FFEB347B50069
:102AE80093F73700638C070493070500130700006A
:102AF8006316E60667800000E30E06FE9385150060
:102B080003C7F5FF938717001306F6FFA38FE7FEA9
:102B180013F73700E31207FE930630003308E64048
:102B280063E2060313572600931627003306D640A0
:102B3800B387D700B385D5006FF05FFB9307050017
:102B48006FF01FFDB388E50083A808003388E7000D
:102B580013074700232018016FF05FFC3388E50056
:102B680003480800B386E70013071700238006010F
:102B78006FF01FF893F6F50F9307050013F737006A
:102B88006314070493F5F50F13978500B365B70031
:102B980013970501B365B7003383C7001387070090
:102BA80013083000B308E340636A1803135726007C
:102BB80093152700B387B7003306B6403386C7009E
:102BC8006394C70267800000E30E06FE9387170030
:102BD800A38FD7FE1306F6FF6FF05FFA13074700BF
:102BE800232EB7FE6FF01FFC93871700A38FD7FE25
:102BF8006FF01FFD130101FF232601008327C10089
:102C0800938717002326F100B70701F023A0B70028
:102C180013010101678000001305F0FF67800000C1
:102C28001305000067800000130101FE232C8100BA
:102C38008327850037640080232A91001304C40F7A
:102C4800B7640080232E1100232821012326310197
:102C58009384041993091000232004001309050024
:102C680023A03401E780070083274900232034018B
:102C7800E7800700930720002320F4008327C9007A
:102C8800E7800700930730002320F4000324810124
:102C980023A004008320C1018324410103290101E9
:102CA8008329C100376500801305053A1301010225
:102CB8006F10403F37650080130101FFB767008040
:102CC8001307F0FF1305053A2326110023A8E71878
:102CD800EF10403DEF1080338320C1001301010144
:102CE8006F10500A130101FA232A9104B764008077
:102CF80083A74419232E1104232C8104232821059A
:102D0800232631052324410523225105232061056B
:102D1800232E7103232C8103232A91032328A10343
:102D28002326B10363C40708376400801306100024
:102D380093090500138C05001305043A9305000058
:102D4800EF10802D3765008093850900130585B045
:102D5800EFF05F9F37690080130509B2B76A0080FA
:102D6800EFF05F9E93844419130A0000232E81001C
:102D7800B77C0080376B0080373D0080B76D0080DE
:102D8800B76B0080938ACAAF83274C00639E070401
:102D98009385090063060A1037650080130505B995
:102DA800EFF05F9A9307100023A0F4008320C10579
:102DB8000324810583244105032901058329C104CE
:102DC800032A8104832A4104032B0104832BC103B2
:102DD800032C8103832C4103032D0103832DC1029E
:102DE800130101066780000083250C00B767008087
:102DF800138587B6EFF01F952322010083270C0166
:102E080013070C001306004093E787009308F0FFB0
:102E18001308000093060DC32320F10093850CB31B
:102E28009307000013050B3BEF10804C8327C1016B
:102E38009305F0FF1385073AEF10402F93870D197C
:102E480013050B3B03A40700EF10C073B76700809E
:102E58009387071903A70700130414009307E0FFDB
:102E68001334140003260C006314F702B7650080BE
:102E78009385C5B713854BB8EFF0DF8C130509B2FE
:102E8800EFF05F8C330A8A00130C4C016FF0DFEF10
:102E980093172400B387FA0083A507006FF09FFDFE
:102EA80037650080130585BAEFF0DF8983A7040032
:102EB800B337F0006FF05FEFB767008083A747195B
:102EC800130101FF232481003765008023261100A8
:102ED80037640080130505B263820702EFF09F860E
:102EE800B7650080938545BC1305C4BC03248100E5
:102EF8008320C100130101016FF0DF84EFF09F848C
:102F0800B7650080938545BE6FF01FFE130101FF72
:102F180023261100EFD0DFAA8320C100130101018D
:102F28006FF09FF913172500B76700801305150088
:102F3800938707C013152500130101FF3387E700A6
:102F4800B387A700232481002322910003240700CC
:102F580083A4070023261100636C94008320C1001A
:102F680003248100832441001301010167800000CC
:102F7800832704001305040083A74700E7800700A0
:102F880063040500232204001304C4006FF0DFFC6F
:102F9800130101FFB767008023229100B764008006
:102FA80023248100232611001384071123202101E3
:102FB8009387071193840414631C94001309050074
:102FC8001384070063149402130400006F00400484
:102FD80003274400630807000327040003270700AA
:102FE8006308A7021304C4006FF01FFD8327440081
:102FF800639607001304C4006FF0DFFC8327040006
:103008001305090083A50700EFF01FABE31405FEC5
:10301800130504008320C100032481008324410098
:10302800032901001301010167800000130101FF5A
:1030380023248100232291002326110013048000F9
:1030480093042000F3370430EF10C06A63C4A4006F
:103058001305100093051000EF109008EFF08FF2A1
:103068006FF05FFE37650080B7670080130685172D
:103078009387C7523386C740930500001305851709
:103088006FF05FAF130101FF130520002326110025
:10309800EFF05FE937650080130545C2EFF08FEA6E
:1030A80013053000EFF01FE8EF108036EFF01FE651
:1030B800B76700809387074903C7C7001377E7FFFF
:1030C8002386E7008320C100130101016780000007
:1030D800130101F6232A910893040101130600073E
:1030E8009305000013850400232E1108232C810862
:1030F8002328210923263109EFF0DFA73764008050
:10310800B787008093090450938707B3130500001D
:1031180023A2F900EFF01FE113051000EFF09FE084
:103128009307101023A49900231EF100EF00904A82
:10313800B7670080938747C1376900802322F10071
:10314800B736008093071000B775008093040949CB
:103158002320F100130700009307000093080000E4
:10316800130800009386C60813060020938505F30C
:103178001305094923A09902EF10C01383C7D4008F
:103188001304045013F7B7FFA386E40093F7B701BD
:10319800639C070003A704029307F0FF6316F70078
:1031A80013050949EF00407AB76700809387C7C1C4
:1031B8002322F1003765008093071000B73600809E
:1031C800B7750080930405422320F1009308F000AE
:1031D80013080000930700001307000093864603B6
:1031E800130600209385051313050542EF10800C84
:1031F80083C7D400232694001305800093F7B7FFF4
:10320800A386F400B767008093878751232CF400C6
:10321800232EF4007335053013758500EFD04F81E8
:103228008347D50093F7F701639A07000327050240
:103238009307F0FF6314F7006F00007167800000C8
:10324800130101FD2324810223229102232021035B
:10325800232E310123261102232C410113040500DA
:1032680013890500930906002326D10093048000E2
:10327800F3B4043013058500EF00900893F484003C
:103288008326C10063000504130A0500EFF05FF907
:1032980023260A06232A3A0113850400EF00005169
:1032A800130500008320C102032481028324410204
:1032B800032901028329C101032A810113010103A2
:1032C800678000006388060413058000EF109033C0
:1032D80093070500130540FFE38607FC130710005A
:1032E80023A2370123A0E70003A70700937637003E
:1032F80063180902032704003367D70023A0E700F7
:10330800032744002320F400E31807F82322F400DD
:103318006FF09FF823A00900938709006FF0DFFC86
:10332800032709001377C7FF6318070223A0D700F4
:1033380083264400639806002322F4002320F40027
:103348006FF09FF503A706001377370033E7E70010
:1033580023A0E6006FF09FFB3367D70023A0E700A8
:103368000325090013753500B3E7A7002320F900EA
:103378006FF09FF2130101FF23248100232611001F
:1033880013040500630E05008327050093F7370033
:10339800638807000324450063840500EF10902527
:1033A800130504008320C1000324810013010101D7
:1033B800678000009307850023200500232205006D
:1033C8002324F5002326F50067800000130101FF80
:1033D8002324810023261100232291001304800056
:1033E800733404301305850013748400EF004071B2
:1033F800630A050093040500EFF09FE223A6040684
:1034080023AA040013050400032481008320C100BB
:1034180083244100130101016F0040391386050020
:1034280083254500930600006FF09FE1130101FE1C
:10343800232E1100232C8100232A91002328210107
:1034480023263101232441012322510163860500EB
:10345800130A0600631A060237660080B765008003
:10346800376500801305C5A29306A00E130606C68D
:103478009385C5C8EFF00FAD376500801305C5C942
:10348800EFF04FAC6F0000009309050013840500AE
:1034980093048000F3B40430930A850013850A006E
:1034A800EF00006693F4840013090500631C09000B
:1034B80083A74900639E070423A0890023A249012A
:1034C8006F00800213050900EFF09FD5232A8900B9
:1034D800032404002326090613850A00EF0040622E
:1034E80013090500E31404FC032481018320C101AE
:1034F800032901018329C100032A8100832A41008D
:103508001385040083244101130101026F00002A7E
:1035180083A5070093F535003364B40023A0870022
:103528006FF0DFF9130101FF2324810013840500E4
:1035380083A5050023261100639A050237660080DB
:10354800B7650080376500801305C5A29306801013
:10355800130606C6938545CBEFF0CF9E37650080EE
:10356800130505CDEFF00F9E6F0000000326440001
:10357800EFF0DFEB8320C1002320040023220400A6
:10358800032481001301010167800000130101FF7A
:1035980023248100232611009307050013048000CB
:1035A8007334043003250500137484006300050494
:1035B8000327050083A647001377C7FF23A0E7006A
:1035C8006314D50023A2E70093051000EFF09FDAFB
:1035D80093070500732404308320C100032481006D
:1035E8001385070013010101678000001386050099
:1035F8006398050073240430930700006FF0DFFD23
:103608009385870013050400EF00C074930700003A
:10361800E31405FCB767008083A7875083A7470199
:103628006FF09FFB130101FF23261100EFF04FC439
:10363800B767008083A7C7198320C1003767008058
:103648003385A7002328A75093050000138507009A
:10365800130101016F10C028130580007335053070
:103668001375850067800000130101FF2324810082
:1036780037640080930704502322910083A44702F3
:103688002326110093874702130404506384F4002F
:10369800639404008324C40083278400631805040A
:1036A8006386070403C7D7001377F701631007047D
:1036B80083A607021307F0FF639AE60283D6E700A2
:1036C8001307F0076374D702376700800327C71012
:1036D800638EE7002320F4028320C10003248100C5
:1036E800832441001301010167800000638497006F
:1036F800EFF05FF3232094026FF01FFE130101FE29
:10370800232E1100232C8100232A91002328210134
:10371800232631019384050093090500EFF0DFF3B8
:10372800B76700809305A00013040500138599006E
:1037380023A80750EFD04F9DB767008037690080F6
:10374800232EA91823AC971813748400EFF09FED6B
:10375800732404308320C10103248101832441019F
:10376800032901018329C1001301010267800000B8
:10377800130101FF232481002326110013040500EF
:10378800EFF09FED93070500032504006314A400E0
:103798001305000093F78700F3A707308320C100C3
:1037A800032481001301010167800000B7670080CE
:1037B8009387075083A6070013070500639A06003E
:1037C80083A6870083A707026384F6006FC05FA6FD
:1037D800137787007327073067800000130101FF04
:1037E8002324810037640080130404508327840055
:1037F800232611002322910083C7F700639A07024A
:1038080037660080B7650080376500801305C5A25C
:103818009306701D130646DA938505DDEFE09FF2E7
:1038280037650080130505ADEFE0DFF16F0000009C
:1038380083270400638A070237660080B765008023
:10384800376500801305C5A29306801D130646DA66
:10385800938545D6EFE01FEF37650080130505AD6A
:10386800EFE05FEE6F000000EFF01FDF032784003A
:1038780093040500130510008347F70093F48400B0
:1038880093871700A307F700EFF01FDEF3A40430B7
:103898001305800073350530032481008320C1009F
:1038A8008324410013758500130101016FF01FF097
:1038B800B767008083A7C7106398F5023766008052
:1038C800B765008037650080130101FF9306D0219A
:1038D800130646DA938505D01305C5A223261100E1
:1038E800EFE05FE66F000000832705006310F50234
:1038F8008327450023A0A50023A2F50083274500C0
:1039080023A0B7002322B50067800000E38207FEEA
:103918000387E5008386E700635ED70003A74700B7
:1039280023A0F50023A2E5002320B70023A2B700B7
:103938006780000083264500E38CD7FA83A7070039
:10394800E39A07FC6FF0DFFA130101FF2326110049
:10395800232481002322910093040500EFF0DFCF98
:10396800130405003765008093850400130545524C
:10397800EFF01FF483C7D40013050000137484000C
:1039880093E70704A386F400EFF01FCE73240430F6
:103998008320C10003248100832441001301010115
:1039A800678000008347D50093F7F701639A070003
:1039B800032705029307F0FF6314F7006FF0DFF8A1
:1039C80067800000B767008083A7C7106398F50277
:1039D80037660080B765008037650080130101FFF6
:1039E8009306C022130646DA938505D01305C5A2AF
:1039F80023261100EFE01FD56F00000003A7450044
:103A080083A705002320F70023A2E70067800000B2
:103A1800130101FF232481002322910013040500D0
:103A280023261100EFF05FC39304050003258400EB
:103A38006314050237660080B7650080376500802B
:103A480093061015130646DA938545D11305C5A2CA
:103A5800EFE05FCF6F00000093050400EFF09FF6E2
:103A68008347D40093F4840093F7D7FFA306F400A8
:103A7800F3A40430232404008320C100032481001C
:103A8800832441001301010167800000130101FF35
:103A9800232481002326110013040500EFF05FF7AB
:103AA80013058401032481008320C100130101014F
:103AB8006F00103F832705FF130101FF23248100B6
:103AC800232291002326110013040500930485FE88
:103AD8006386070013850400EFF09FF3834754FFC4
:103AE8008320C1001385040093F7B7FFA30AF4FEEF
:103AF8000324810083244100130101016FF09FEA30
:103B0800130101FF930500002324810023261100DF
:103B1800EFF01FC61304050063080500EFF05FEF20
:103B280013058401EF00D037130504008320C1007A
:103B3800032481001301010167800000130101FEC5
:103B4800232821013769008013090950232E110009
:103B5800232C8100232A9100232631011304050018
:103B680093094902EFF05FAF930504009304050041
:103B780013850900EFF01FE593050400138509007C
:103B8800EFF01FD38347D4000325890093F4840002
:103B980093E7070433058540A306F40013351500A1
:103BA800EFF09FACF3A404308320C101032481010A
:103BB80083244101032901018329C1001301010262
:103BC80067800000B767008083A7C7196388070666
:103BD800B76700809387075003A787009306F0070D
:103BE8000356E70063ECC604B76600800306E700E7
:103BF80083A686196344D604B766008083A6C610D8
:103C0800630ED702032607029306F0FF6318D60255
:103C180083A607016340D502130101FF13050700BE
:103C280023261100EFF09FF18320C1001301010149
:103C38006FF05F9FB386A64023A8D7006780000077
:103C4800130101FF2324810023229100130405009E
:103C58002326110023202101EFF01FA08347D40061
:103C68009304050093F70704638A07023769008005
:103C7800130909501305490293050400EFF09FD476
:103C88008347D4000325890093F7F7FB3305854064
:103C9800A306F40013351500EFF01F9D93F484007C
:103CA800F3A404308320C10003248100832441004D
:103CB800032901001301010167800000130101FFBE
:103CC80023248100232291001304050023202101CD
:103CD800232611009384050013090600EFF05FF610
:103CE8008347D40093E72700A306F400638A0400FF
:103CF800232494009305040013850400EFF05FBBB0
:103D08009307F0FF630CF9029305A00013059900CF
:103D1800EFC09FBF1306150013058401032481001B
:103D28008320C1008324410003290100B745008096
:103D38009385C5AB130101016F00D0258320C10015
:103D48000324810083244100032901001301010198
:103D580067800000130101FFB767008023248100FA
:103D68001304050003A5875023261100EFF01FF563
:103D780013050400032481008320C10013010101FD
:103D88006FC00FCB130101FF2322910023261100DE
:103D980093040500232481001305000003A40400F4
:103DA80063848400631C04008320C1000324810011
:103DB80083244100130101016780000013050400FA
:103DC800EFF0DFCC13050400EFF0DFBD13051000A2
:103DD8006FF0DFFCB76700809387075013874702AF
:103DE80023A2E70223A4E7029305000013050000BD
:103DF8006FF0DF90130101FF2324810037640080F6
:103E08008327045023261100232291002320210117
:103E1800638A070237660080B765008037650080CF
:103E28001305C5A293066030130646DA938545D676
:103E3800EFE05F9137650080130505ADEFE09F90D7
:103E48006F00000013040450B76700800327840044
:103E580083A7C710630CF702EFF01F808325840047
:103E6800130944029304050013050900EFF09FB5F8
:103E7800832584001305090093F48400EFF05FA301
:103E880013051000EFF04FFEF3A40430032784005D
:103E9800832704026304F702130580007335053095
:103EA800032481008320C1008324410003290100E9
:103EB80013758500130101016FC08FB78320C100FE
:103EC8000324810083244100032901001301010117
:103ED80067800000130101FD2324810237640080FC
:103EE800130404508327040023261102232291027D
:103EF80023202103232E3101638A070237660080BD
:103F0800B7650080376500801305C5A29306403267
:103F1800130646DA938545D6EFE0DF8237650080E1
:103F2800130505ADEFE01F826F0000009307F0FF57
:103F3800631AF50237660080B76500803765008030
:103F48001305C5A293065032130646DA9385C5CEEB
:103F5800EFE04FFF37650080130505ADEFE08FFEFA
:103F68006F000000631605022326A100EFF09FE80A
:103F78000325C1008320C102032481028324410256
:103F8800032901028329C10113010103678000008D
:103F98009305A00013059500EFC01F97930915001E
:103FA800EF00102FB384A90013098000733909307A
:103FB80003258400EFF0DFC803258400B74500809F
:103FC800138609009385C5AB13058501EF00807C36
:103FD80013758900EFC0CFA5EF00902BB384A440E0
:103FE80013050000E35890F81306803E930600007E
:103FF8001385040093D5F441EFC01F8813064006CB
:1040080093060000EFC0CFA76FF0DFF6B767008018
:1040180003A5875067800000130101FF23261100C4
:10402800631A060237660080B7650080376500802E
:104038001305C5A29306D003130686DF938545E2D0
:10404800EFE04FF037650080130505E3EFE08FEFF1
:104058006F000000637AB60237660080B76500809B
:10406800376500801305C5A29306E003130686DFB3
:10407800938585E4EFE00FED37650080130505E6CD
:10408800EFE04FEC6F0000008320C1002324B5004F
:104098002326C5002320A5002322A5001301010122
:1040A80067800000130101FF2324810023202101E0
:1040B8002326110023229100130905001304800010
:1040C8007334043013748400EFF09FA36302050473
:1040D8008347D5009304050093F7F701639A070017
:1040E800032705029307F0FF6314F700EFF0DF855D
:1040F80023A6040613050400032481008320C100BD
:104108008324410003290100130101016FF00FEA24
:10411800032789008327C900B387E740B337F00036
:10412800B387E7002324F9006FF0DFFCB76700804E
:1041380083A707501386050063800704638E050272
:1041480037660080B765008037650080130101FF7E
:104158001305C5A293063008130686DF938585E804
:1041680023261100EFE00FDE37650080130505AD4B
:10417800EFE04FDD6F00000093078000F3B70730D2
:104188000327850093F78700630C07001307F7FFE1
:104198002324E500F3A7073013050000678000001B
:1041A80063180600F3A70730130500FF67800000B7
:1041B80093050500138507006FF0DFB9130101FFB0
:1041C8002324810023229100232611009304050053
:1041D8001304800013850500733404309305A00090
:1041E80013059500EFC04FF2B74500801306150080
:1041F8009385C5AB13858401EF00C05913748400FF
:10420800732404308320C1000324810083244100E7
:1042180013010101678000008347D50093F7F70178
:10422800639A0700032705029307F0FF6314F7005A
:104238006FF08FF167800000B767008003A5075013
:104248003335A00067800000B767008083A78750D8
:1042580003C5C7001375150067800000130101FF2F
:1042680023248100232611001304800073340430B2
:104278000347D5001374840093764700639C0600B7
:10428800732404308320C100032481001301010139
:10429800678000001377B7FFA306E500EFF0DFF7AC
:1042A80013050400032481008320C10013010101C8
:1042B8006FF0CFCF130101FE03230102232C8100ED
:1042C800232E11002320610013040500EFD00FE016
:1042D800B767008083A787508320C10183A787061B
:1042E8002324F406032481011301010267800000DE
:1042F8003763008003230350130101FE232A910032
:10430800232E1100232C810083244102630A030217
:1043180037660080B7650080376500801305C5A241
:104328009306801A1306C6EB938545D6EFE08FC136
:10433800376500801305C5EEEFE0CFC06F000000C1
:104348000323010223220100130405002320610036
:10435800EFF05FF69307F0FF6388F40063920402BE
:1043680013050400EFF09FEF130504008320C1013B
:1043780003248101832441011301010267800000A5
:104388009385040013050400EFF05FE36FF0DFFD91
:1043980083270506130101FF23248100232611002A
:1043A8001304050063840700E78007008347D400EF
:1043B80013F7F701631A0702832604021307F0FFB5
:1043C8006394E60213050400EFF09F878347D40047
:1043D8008320C10093E78700A306F400032481002B
:1043E800130101016780000093F727006386070027
:1043F80013050400EFF0CFE1032704029307F0FF51
:10440800E306F7FC13058401EF0080296FF01FFC19
:10441800130101FDB7670080232E3101B7690080C1
:10442800232481022322910223261102232021031F
:10443800138407149384071493890914636034055B
:10444800B767008003A70750630C0706376600802C
:10445800B7650080376500801305C5A29306200F55
:104468001306C6D2938545D6EFE0CFAD37650080F9
:10447800130505ADEFE00FAD6F0000008327C40200
:104488002322F100832704022320F100832744011B
:104498008328C40103288401032704018326C40058
:1044A800032684008325440003250400EFF09FE0E1
:1044B8008327040023AE8704130404036FF01FF856
:1044C8009387075003A78700930610008347F700D8
:1044D800639AD70237660080B76500803765008029
:1044E8001305C5A29306300F1306C6D29385C5D708
:1044F800EFE04FA537650080130505ADEFE08FA409
:104508006F0000009387F7FFA307F70013098000E7
:104518007339093013840400137989009304F0FF78
:104528006362340373290930032481028320C102A2
:1045380083244102032901028329C10113010103D4
:104548006FF0CFA9832544026388950003250400F2
:1045580063980500EFF09FD0130404036FF05FFC2D
:10456800EFF0DFC56FF05FFF9307F0FF2306D5007C
:10457800A306C5002307B500A30705002320F502FD
:1045880067800000130101FF232481002326110006
:104598002322910013048000733404308347C5003C
:1045A80093F71700638A070237660080B7650080B3
:1045B800376500801305C5A293063002130646F13D
:1045C800938585F4EFE00F98376500801305C5F7EC
:1045D800EFE04F976F00000093040500EFF05FDBFA
:1045E800B767008003A7075013748400630E0700A1
:1045F800732404308320C1000324810083244100F4
:1046080013010101678000009387075083A7870083
:104618001305040063949700EFB09FC10324810041
:104628008320C10083244100130101016FF00F981A
:10463800B767008083A7071A639407006FE04FC32A
:1046480013050000678000001305800073350530EE
:1046580013758500678000008327050063880702BB
:104668000327450063040702B766008083A6461047
:10467800630AD50083A6870003268500B386C60093
:1046880023A4D7002320F70023A2E7009307F0FF15
:1046980023220500232005002324F500678000005D
:1046A800130101FF232481002322910023261100F6
:1046B80093040500EFF05FF903A784009307F0FF68
:1046C800130405001305F0FF6308F70013850400C1
:1046D800EFF09FF81305000013748400732404306E
:1046E8008320C100032481008324410013010101B8
:1046F80067800000B767008083C7471A130101FF6E
:104708002324810023261100232291002320210144
:104718001304F0FF63960700370400801344F4FF86
:10472800EFF09FF2B76700809387071003A907008F
:10473800930405006304F902630209020324890053
:10474800EFF01FEF3305A440130400006348050091
:1047580003248900EFF0DFED3304A44093F48400D0
:10476800F3A40430B767008083A707516386070066
:1047780063D4870013840700130504008320C10055
:10478800032481008324410003290100130101014E
:104798006780000083278500130101FE232E110086
:1047A800232C8100232A910063CA07023766008000
:1047B800B7650080376500801305C5A293063004ED
:1047C800130686F9938585FCEFD0DFF737650080FF
:1047D800130505ADEFD01FF76F0000002326B500C5
:1047E8002326C10013040500EFF01FE6930405001B
:1047F800EFF01FE40326C1006344C0001306100055
:10480800B767008003A707103306A6002324C40057
:10481800938707106306F70083A547006310070214
:1048280003A747002320F4002322E40003A747003E
:104838002320870023A287006F00000683268700B5
:1048480063DA060237660080B76500803765008046
:104858001305C5A29306C004130686F9938585FD42
:10486800EFD05FEE37650080130505ADEFD09FED03
:104878006F00000003268400635AD604B386C6403E
:104888002324D700832647002320E4002322D400D2
:1048980023A086002322870003A70700630AF700E6
:1048A8006318E400EFF01FE593050000EFE00F8CBC
:1048B80093F48400F3A404308320C101032481010C
:1048C800832441011301010267800000B306D6402A
:1048D8002324D400E386E5F4032707006FF01FF4D0
:1048E800130101FE2326B100232E1100232C810081
:1048F800232A910093040500EFF01FD51304050047
:10490800EFF05FDF8325C10063DAA400930710008E
:1049180063D6A70013850400EFE04F851374840065
:10492800732404308320C1010324810183244101BD
:104938001301010267800000130101FE232E1100FC
:10494800232C8100232A910013040500232631011A
:1049580023244101B769008023282101376A008098
:10496800EFF04FA6B7640080EFF01FCE130A0A10CD
:1049780023A0891A9384841A9389091A03240A00A4
:1049880083A7090083A6040003A8440013798500BF
:10499800630C4401630A04000327840063DEE70410
:1049A8003307F7402324E400B386D70013D7F74131
:1049B80033070701B3B7F600B387E70023A0D40095
:1049C80023A2F40023A00900EFF0DFD29305000032
:1049D800EFD0DFF9732909308320C1010324810155
:1049E80083244101032901018329C100032A81008D
:1049F8001301010267800000B306D7009355F74101
:104A080033B6E600B38505013306B600B387E74041
:104A1800232404001305040023A0D40023A2C40007
:104A280023A0F900EFF05FC3732909308327C4007E
:104A380013050400E7800700EFF01FC16FF01FF4B3
:104A4800130101FF2326110023248100EFF0DFBFAB
:104A580013040500EFE0CF81376700801307871A3A
:104A68009307050003250700832547001374840076
:104A78003385A700B337F500B385B7007324043036
:104A88008320C10003248100130101016780000015
:104A9800130101FF23261100EFF09FFA8320C100C4
:104AA8001301010167800000130101FF2326110093
:104AB800EFF01FFE1306803E9306000093050000EA
:104AC800EFB09FDB1306400693060000EFB04FFBE4
:104AD8008320C1001301010167800000130101FF59
:104AE800232481002322910037640080B76400806A
:104AF800232611001304041493840414636E940091
:104B08008320C10003248100832441001305000091
:104B18001301010167800000930744011305040095
:104B2800232AF400232CF400EFC0DFF81304C40197
:104B38006FF0DFFCB767008083A70750130101FB04
:104B4800232481042322910423202105232E3103C9
:104B58002328610323261104232C4103232A51030C
:104B68002326710323248103232291032320A103F5
:104B7800232EB1019309050013890500130B0600C4
:104B88001384060093040000638C070263880604FC
:104B980037660080B7650080376500801305C5A2B9
:104BA80093067003130686FE93858501EFD09FB99F
:104BB80037650080130505ADEFD0DFB86F00000042
:104BC800635ED000EFF0DFE7930405009305A000D3
:104BD80013059400EFB05FD3B304950037650080E8
:104BE800130505143385A940B775DBB6938575DBC6
:104BF80013552540EFB01FC637FAFFFFB71A00005C
:104C0800137CF50F930B50FF930C40FF130AFA0F18
:104C1800938AFAFF130D8000938D49011307090049
:104C28009306C1001306810093050B001385090044
:104C3800EFC0DFFC63127503130709009306C10078
:104C48001306810093050B0013850900EFC01FFBB5
:104C580063147501130540FF83278100230289012E
:104C680093F7F7001397870083274900B3F74701A5
:104C7800B3E7E7000327C100B3F757011317C700CD
:104C8800B3E7E7002322F900630C0502630A040274
:104C98006318950373350D301306040093850D00D2
:104CA80013758500EFF00F8B9307F0FFE308F4F618
:104CB800EFF01FD93384A440E35204F6130550FFE4
:104CC8008320C104032481048324410403290104AB
:104CD8008329C103032A8103832A4103032B010388
:104CE800832BC102032C8102832C4102032D010274
:104CF800832DC1011301010567800000834705006A
:104D0800130101FF032605002324810013943700B3
:104D1800232021013304F440376900801314240050
:104D280093558600130909141356C60093F5F50028
:104D38003305890023229100232611009304800063
:104D4800EFD08F9BF3B40430130544013305A90059
:104D580093F48400EFF00F8363060502B7670080C1
:104D680083A7075063900702032481008320C100B2
:104D78000329010013850400832441001301010164
:104D88006FE0DFA2F3A404308320C1000324810074
:104D980083244100032901001301010167800000F9
:104DA80013864500637EB600130500006780000087
:104DB800130500008320C101130101026780000070
:104DC800130101FE9306000093058100232E1100B4
:104DD800EFF05FD6E31E05FC0325810013064000B3
:104DE8009305C100EFD09FCF03258100130545002F
:104DF8006FF05FFC630605001305C5FF6FF01FF039
:104E080067800000B767008083A787509305050077
:104E180003A58706630405006FF09FF813050000DB
:084E28006780000067800000B4
:104E300000000000241800800000000024180080FA
:104E400000000000241800800000000024180080EA
:104E500000000000241800800000000024180080DA
:104E60000000000024180080000000007828008066
:104E700000000000241800800000000024180080BA
:104E800000000000241800800000000024180080AA
:104E9000000000002418008000000000241800809A
:104EA000000000002418008000000000241800808A
:104EB000000000002418008000000000241800807A
:104EC000000000002418008000000000241800806A
:104ED000000000002418008000000000241800805A
:104EE000000000002418008000000000241800804A
:104EF000000000002418008000000000241800803A
:104F00000000000024180080000000002418008029
:104F10000000000024180080000000002418008019
:104F20000000000024180080000000002418008009
:104F300000000000241800800000000024180080F9
:104F400000000000241800800000000024180080E9
:104F500000000000241800800000000024180080D9
:104F600000000000241800800000000024180080C9
:104F700000000000241800800000000024180080B9
:104F8000705600803028008000000000DC5A00804D
:104F90002829008000000000D45A0080282C0080BE
:104FA0000000000070560080E44A0080000000000D
:104FB00000010202030303030404040404040404C0
:104FC0000505050505050505050505050505050591
:104FD0000606060606060606060606060606060671
:104FE0000606060606060606060606060606060661
:104FF0000707070707070707070707070707070741
:105000000707070707070707070707070707070730
:105010000707070707070707070707070707070720
:105020000707070707070707070707070707070710
:1050300008080808080808080808080808080808F0
:1050400008080808080808080808080808080808E0
:1050500008080808080808080808080808080808D0
:1050600008080808080808080808080808080808C0
:1050700008080808080808080808080808080808B0
:1050800008080808080808080808080808080808A0
:105090000808080808080808080808080808080890
:1050A0000808080808080808080808080808080880
:1050B000746573745F6669666F5F74687265616456
:1050C0003274687265616400746573745F666966E2
:1050D0006F5F74687265616432697372000000000A
:1050E000746573745F6669666F5F69737232746842
:1050F0007265616400000000746573745F666966C0
:105100006F5F6765745F6661696C000074657374D6
:105110005F6669666F5F6C6F6F70000074657374B3
:105120005F6669666F5F63616E63656C5F77616917
:1051300074000000746573745F6669666F5F6973FD
:105140005F656D7074795F746872656164000000FA
:10515000746573745F6669666F5F69735F656D70B0
:1051600074795F69737200006669666F5F61706968
:1051700000000000746669666F5F74687265616440
:105180005F746872656164002F686F6D652F6D696B
:10519000616F752F70726F2F72697363762F7A65E6
:1051A000706879722F74657374732F6B65726E6596
:1051B0006C2F6669666F2F6669666F5F6170692F15
:1051C0007372632F746573745F6669666F5F636182
:1051D0006E63656C2E6300000A20202020417373EB
:1051E000657274696F6E206661696C6564206174B4
:1051F0002025733A25643A2025733A2025730A0046
:105200006B5F6669666F5F676574206469646E27AB
:105210007420676574202774696D656F75742065E7
:105220007870697265642720737461747573000007
:1052300028726574206973206E6F74204E554C4C33
:10524000290000006B5F6669666F5F6765742064A4
:1052500069646E2774206765742063616E63656C92
:105260006C656420696E2065787065637465642080
:1052700074696D656672616D650000002864757201
:10528000203C2038302069732066616C73652900EA
:10529000746669666F5F67657400000074497372B5
:1052A0005F656E7472795F70757400007449737213
:1052B0005F656E7472795F67657400007466696615
:1052C0006F5F69735F656D707479000074657374E6
:1052D0005F6669666F5F69735F656D7074795F742F
:1052E00068726561640000002F686F6D652F6D69DD
:1052F000616F752F70726F2F72697363762F7A6585
:10530000706879722F74657374732F6B65726E6534
:105310006C2F6669666F2F6669666F5F6170692FB3
:105320007372632F746573745F6669666F5F636F12
:105330006E74657874732E63000000006B5F66699D
:10534000666F5F69735F656D707479282873747216
:10535000756374206B5F6669666F202A2970292047
:1053600069732066616C7365000000006B5F66699D
:10537000666F5F69735F656D7074792828737472E6
:10538000756374206B5F6669666F202A2970292017
:1053900069732074727565006B5F6669666F5F691B
:1053A000735F656D70747928266669666F29206958
:1053B000732066616C73650072785F64617461204C
:1053C0006E6F7420657175616C20746F2028766F24
:1053D0006964202A2926646174615B695D000000AC
:1053E00072785F64617461206E6F7420657175619D
:1053F0006C20746F2028766F6964202A29266461E6
:1054000074615F6C5B695D0072785F6461746120D8
:105410006E6F7420657175616C20746F2028766FD3
:105420006964202A2926646174615F736C5B695D1D
:10543000000000006B5F6669666F5F69735F656D92
:1054400070747928706669666F2920697320747298
:10545000756500006B5F6669666F5F69735F656D98
:1054600070747928706669666F2920697320666197
:105470006C736500746573745F6669666F5F6765FA
:10548000745F6661696C00002F686F6D652F6D69D0
:10549000616F752F70726F2F72697363762F7A65E3
:1054A000706879722F74657374732F6B65726E6593
:1054B0006C2F6669666F2F6669666F5F6170692F12
:1054C0007372632F746573745F6669666F5F66617C
:1054D000696C2E63000000006B5F6669666F5F6732
:1054E000657428266669666F2C204B5F4E4F5F57A8
:1054F00041495429206973206E6F74204E554C4CDD
:10550000000000006B5F6669666F5F676574282640
:105510006669666F2C2054494D454F5554292069C2
:1055200073206E6F74204E554C4C00007466696693
:105530006F5F6765740000002F686F6D652F6D6980
:10554000616F752F70726F2F72697363762F7A6532
:10555000706879722F74657374732F6B65726E65E2
:105560006C2F6669666F2F6669666F5F6170692F61
:105570007372632F746573745F6669666F5F6C6FB7
:105580006F702E6300000000697372206669666F99
:10559000206765740A000000697372206669666F8F
:1055A00020707574202D2D2D3E20000074687265CA
:1055B0006164206669666F206765740A00000000F8
:1055C000746872656164206669666F207075742006
:1055D0002D2D2D3E200000002A2050617373206481
:1055E000617461206279206669666F20696E206C43
:1055F0006F6F702025640A006D61696E20666966B0
:105600006F20707574202D2D2D3E20006D61696E08
:10561000206669666F206765740A0000FC160080CA
:10562000B4170080B4170080F0160080FC160080CC
:105630009C170080A8170080A0580080C0580080E8
:10564000DC580080F0580080FC580080145900801D
:10565000756E6B6E6F776E00457863657074696FF9
:105660006E20636175736520257320282564290ADF
:10567000000000002A2A2A2A204B65726E656C20E1
:10568000416C6C6F636174696F6E204661696C7503
:10569000726521202A2A2A2A0A0000002A2A2A2A98
:1056A0002A204B65726E656C204F4F505321202A83
:1056B0002A2A2A2A0A0000002A2A2A2A2A204B6596
:1056C000726E656C2050616E696321202A2A2A2A35
:1056D0002A0A00002A2A2A2A20556E6B6E6F776EDE
:1056E00020466174616C204572726F7220256421BE
:1056F000202A2A2A2A0A000043757272656E7420D5
:10570000746872656164204944203D2025700A4612
:1057100061756C74696E6720696E737472756374F9
:10572000696F6E2061646472657373203D20307808
:1057300025780A202072613A203078257820206769
:10574000703A2030782578202074703A20307825FF
:1057500078202074303A20307825780A202074315F
:105760003A2030782578202074323A203078257815
:10577000202074333A2030782578202074343A2061
:10578000307825780A202074353A20307825782022
:105790002074363A2030782578202061303A203045
:1057A000782578202061313A20307825780A202029
:1057B00061323A2030782578202061333A203078E1
:1057C0002578202061343A203078257820206135F2
:1057D0003A20307825780A202061363A2030782522
:1057E00078202061373A20307825780A00000000C0
:1057F00049535200657373656E7469616C207468F7
:105800007265616400000000466174616C2066612D
:10581000756C7420696E20257321205370696E6E3B
:10582000696E672E2E2E0A00466174616C206661D7
:10583000756C7420696E20746872656164202570CF
:10584000212041626F7274696E672E0A00000000A9
:10585000ADBAADDEADBAADDEADBAADDEADBAADDE80
:10586000ADBAADDEADBAADDEADBAADDEADBAADDE70
:10587000ADBAADDEADBAADDEADBAADDEADBAADDE60
:10588000ADBAADDEADBAADDEADBAADDEADBAADDE50
:10589000ADBAADDEADBAADDEADBAADDEADBAADDE40
:1058A000496E737472756374696F6E20616464729B
:1058B000657373206D6973616C69676E6564000060
:1058C000496E737472756374696F6E2041636365AA
:1058D0007373206661756C7400000000496C6C6520
:1058E00067616C20696E737472756374696F6E00A2
:1058F000427265616B706F696E7400004C6F616419
:105900002061646472657373206D6973616C69678B
:105910006E6564004C6F616420616363657373201E
:105920006661756C7400000053707572696F7573F1
:1059300020696E7465727275707420646574656335
:1059400074656421204952513A2025640A00000000
:105950002F686F6D652F6D69616F752F70726F2F76
:1059600072697363762F7A65706879722F617263DA
:10597000682F726973637633322F636F72652F7489
:1059800068726561642E6300282828287072696F28
:10599000726974792929203D3D2031352026262041
:1059A0005F69735F69646C655F74687265616428C0
:1059B000287468726561645F66756E6329292920A1
:1059C0007C7C20285F69735F7072696F5F686967AC
:1059D0006865725F6F725F657175616C28282870E9
:1059E00072696F7269747929292C20283135202D2C
:1059F00020312929202626205F69735F7072696F24
:105A00005F6C6F7765725F6F725F657175616C282F
:105A100028287072696F7269747929292C202828C6
:105A20002D313629292929290000000041535345E9
:105A30005254494F4E204641494C205B25735D200E
:105A4000402025733A25640A0000000009696E763B
:105A5000616C6964207072696F726974792028259D
:105A600064293B20616C6C6F7765642072616E679E
:105A7000653A20256420746F2025640A0000000028
:105A80002F686F6D652F6D69616F752F70726F2F45
:105A900072697363762F7A65706879722F6C6962A8
:105AA0002F6D656D706F6F6C2F6D656D706F6F6CA6
:105AB0002E630000626C6F636B5F6669747328709D
:105AC0002C20626C6F636B2C206C737A29000000B1
