:0200000480007A
:100000009702000093824201739052306F00503C7F
:020010000000EE
:02001200FFFFEE
:100014005D7106C00EC212C416C61AC81ECA72CCBE
:1000240076CE7AD07ED22AD42ED632D836DA3ADCBC
:100034003EDEC2C0C6C2F322103496C4F32200309E
:1000440096C6EF00E01A1303000005E9F3222034FA
:10005400B70300809383F3FFB3F272002D43638AE6
:10006400620013050100970000009380E0116F0007
:10007400702CA642910296C441A0930201009743BA
:1000840000009383E3B203A14300411116C003AE01
:100094000300050E23A0C3016308030097000000BA
:1000A400938080036F00702F73252034B702008083
:1000B4009382F2FF33755500EF00801297320000EF
:1000C400938242A30E05AA9203A5020003A3420051
:1000D400E700030017430000130383AD83230300E9
:1000E400FD132320730082421381020083238300C3
:1000F400032E030263087E0897420000938242ABFA
:1001040003A382002326830223289302232A2303A2
:10011400232C3303232E4303232053052322630577
:10012400232473052326830523289305232AA30563
:10013400232CB30523242302973300009383C36243
:1001440003AE03002326C30703A3020223A4620011
:10015400032183020324C3028324030303294303E7
:1001640083298303032AC303832A0304032B43043D
:10017400832B8304032CC304832C0305032D430521
:10018400832D8305A64273901234B64273900230D5
:10019400824092412242B2424243D243624EF24EE4
:1001A400025F925F2255B2554256D2566257F257B9
:1001B4000648964861617300203000007300000017
:1001C400974200009382C29E03A382008323C30646
:1001D4002189F322053013850300678000000000A5
:1001E4000543B312A30073B34234678000000000D8
:1001F400F322203437030080B3F2620013050000B9
:0A0204006383020005056780000017
:02020E00FFFFF0
:10021000130101FD232291022328610123261102EB
:100220002324810223202103232E3101232C410189
:10023000232A5101232671012324810123229101C4
:10024000130B050093840500639C06381304060015
:100250009309050017390000130909A263F8C512B4
:10026000B7070100938A05006378F6109306F00F34
:10027000B3B6C60093963600B357D6003309F900DB
:1002800003470900B306D700130700023307D7401E
:10029000630C0700B394E400B356DB003314E600AC
:1002A000B3EA9600B319EB00135B040193050B004E
:1002B00013850A00EF00405A1309050093050B004F
:1002C000931B040113850A00EF00805493DB0B019C
:1002D000930405009305050013850B00EF00805083
:1002E0001319090113D709013367E900138A0400C0
:1002F000637EA70033078700138AF4FF63688700D3
:100300006376A700138AE4FF33078700B304A7408E
:1003100093050B0013850400EF000054130905003A
:1003200093050B0013850400EF00804E939909019B
:1003300093040500930505001319090113850B00AB
:1003400093D90901EF00004AB3693901138604000B
:1003500063FCA900B30934011386F4FF63E6890046
:1003600063F4A9001386E4FF93170A01B3E7C700FB
:10037000130A00006F000013B70700019306000185
:10038000E36CF6EE930680016FF01FEF138A060010
:10039000631A06009305000013051000EF004047A4
:1003A00013040500B7070100637CF4129307F00FF4
:1003B00063F48700130A8000B35744013309F9003E
:1003C0008346090013060002B38646013306D64071
:1003D00063120612B3848440130A1000135B0401F5
:1003E00093050B0013850400EF0000471309050077
:1003F00093050B0013850400931B0401EF0040419B
:1004000093DB0B01930405009305050013850B0096
:10041000EF00403D1319090113D709013367E900C3
:10042000938A0400637EA70033078700938AF4FF52
:10043000636887006376A700938AE4FF3307870029
:10044000B304A74093050B0013850400EF00C040E0
:100450001309050093050B0013850400EF00403BD2
:1004600093990901930405009305050013190901E7
:1004700013850B0093D90901EF00C036B369390128
:100480001386040063FCA900B30934011386F4FF4A
:1004900063E6890063F4A9001386E4FF93970A01D9
:1004A000B3E7C7001385070093050A008320C10244
:1004B0000324810283244102032901028329C1010B
:1004C000032A8101832A4101032B0101832BC100EF
:1004D000032C8100832C410013010103678000007D
:1004E000B7070001130A0001E368F4EC130A800166
:1004F0006FF09FEC3314C40033DAD400B319CB008F
:10050000B356DB00135B0401B394C40093050B00E6
:1005100013050A00B3EA9600EF0000341309050042
:1005200093050B0013050A00931B0401EF00402EF6
:1005300093DB0B01930405009305050013850B0065
:10054000EF00402A1319090113D70A013367E900A4
:10055000138A0400637EA70033078700138AF4FF21
:10056000636887006376A700138AE4FF3307870078
:10057000B304A74093050B0013850400EF00C02DC2
:100580001309050093050B0013850400EF004028B4
:10059000930405009305050013850B00EF008024EC
:1005A00093960A011319090193D60601B367D9007E
:1005B0001387040063FEA700B38787001387F4FF47
:1005C00063E8870063F6A7001387E4FFB38787001B
:1005D000131A0A01B384A740336AEA006FF01FE0E0
:1005E00063ECD51EB707010063F4F6049305F00F22
:1005F00033B5D5001315350033D7A6009727000073
:1006000093878767B387E70083C50700130A000253
:10061000B385A500330ABA4063160A029307100097
:10062000E3E296E83336CB00934716006FF09FE77E
:10063000B707000113050001E3E0F6FC1305800194
:100640006FF09FFBB35AB600B3964601B3EADA00E7
:1006500033D9B400B3974401B355BB0093DB0A010F
:10066000B3E4F5001305090093850B00B3194601A7
:10067000EF00801E1304050093850B00130509008D
:10068000139C0A01EF00C018135C0C01130905004C
:100690009305050013050C00EF00C01413140401AA
:1006A00013D704013367E400930C0900637EA700AD
:1006B00033075701930CF9FF636857016376A7006E
:1006C000930CE9FF330757013309A74093850B00CB
:1006D00013050900EF0040181304050093850B0073
:1006E00013050900EF00C01213090500930505006A
:1006F00013050C00EF00000F93970401131404017D
:1007000093D707013367F40013060900637EA7003F
:10071000330757011306F9FF636857016376A70093
:100720001306E9FF3307570193970C01370E0100B9
:10073000B3E7C7001308FEFF33F3070133F80901DD
:100740003307A74093DE070193D90901130503007E
:1007500093050800EF000009930805009385090040
:1007600013050300EF0000081303050093050800BC
:1007700013850E00EF00000713080500938509009C
:1007800013850E00EF00000693D608013303030122
:10079000B386660063F406013305C50113D606016E
:1007A0003305A6006366A702E314A7BC3707010060
:1007B0001307F7FFB3F6E60093960601B3F8E800D7
:1007C00033164B01B3861601130A0000E37CD6CC26
:1007D0009387F7FF6FF0DFB9130A0000930700005B
:1007E0006FF05FCC130605001305000093F61500AB
:1007F000638406003305C50093D515001316160053
:10080000E39605FE678000006340050663C60506A3
:1008100013860500930505001305F0FF630C06021F
:1008200093061000637AB6006358C00013161600D2
:1008300093961600E36AB6FE1305000063E6C50052
:10084000B385C5403365D50093D616001356160000
:10085000E39606FE6780000093820000EFF05FFBE6
:1008600013850500678002003305A04063D80500AA
:10087000B305B0406FF0DFF9B305B04093820000DC
:10088000EFF01FF93305A04067800200938200005B
:1008900063CA0500634C0500EFF09FF71385050060
:1008A00067800200B305B040E35805FE3305A04061
:1008B000EFF01FF63305B0406780020082803735C5
:1008C000008019711305057F86DEA2DCA6DACAD87E
:1008D000CED6D2D4EF206020B707008085077D8D6B
:1008E000635605007D151365E5FF0505B7370080E4
:1008F000938707760A053E958329050013060004B1
:10090000814508108A84EF00F071130A01042689DA
:100910000010A2859306800C11464E85EF10A03C76
:100920002320A90021041109E31544FFA2859306A1
:10093000800C41464E85EF10003B2AC80144154902
:100940009C4099E7131534001C103E95EF10E052BF
:1009500005049104E31624FF37450080130505883C
:10096000EF10302CF6506654D6544659B659265AD4
:1009700009618280397122DC4ED637440080B74944
:10098000008026DA4AD81146814513850988130468
:10099000048937490080040852D456D25AD006DE62
:1009A000130909BEEF10B020930A041C268A371BD6
:1009B0000080CA85228502C202C08548014881475D
:1009C00001479306EB8B13060020EF10503D2320C8
:1009D000AA001304040713090920110AE31B54FD9C
:1009E0001144FD55138509887D14EF10F02875F822
:1009F0001384040188409104EF103057E39C84FE77
:100A0000F2506254D2544259B259225A925A025B5D
:100A100021618280B73500803735008093858572EB
:100A20001305C5D86F00906D411106C622C49947C1
:100A30006302F502EF10302C0DC1EF10D02B21E135
:100A4000B7350080938585F7373500801305C5F8E5
:100A5000EF00F035EF00B037F5BFEF10B02A71FDB1
:100A600037440080130404BB0C4437350080130561
:100A7000C5FAEF00D0330844EF10304FE1BFB7356F
:100A80000080938545F7C9B75D71A2C4A6C286C62A
:100A90009947AA842E8463E9A70837370080931703
:100AA0002500130707DABA979C4382873735008001
:100AB000130585DFEF00B02FEF10D00E7C408328A8
:100AC00004010328C4003ED83C40584014403ED6A0
:100AD0005C5C3044AA853ED41C5C3735008013052D
:100AE000C5E73ED25C583ED01C583ECE5C543ECC4E
:100AF0001C543ECA5C503EC81C503EC65C4C3EC4B2
:100B00001C4C3EC25C483EC01C44EF00502AA285EB
:100B10002685193F37350080130505E261BF37355B
:100B200000801305C5E379B737350080A685130526
:100B300085E5EF00D02749B7411122C406C62A84B3
:100B40007326203406060582954763E3C7023737CC
:100B50000080931726001307C7DBBA978C433735FD
:100B600000801305C5DDEF009024A2850145293FD3
:100B7000B7350080938545DDDDB7411106C6F32505
:100B8000203437350080860585811305C50AEF00BE
:100B90001022B7350080938545FD1145F535B737EF
:100BA00000809387477F984311CB03A3070023A0BE
:100BB0000700B737008003A5877F02838280411139
:100BC00006C6EF007079EF001022EF00107E0000E3
:100BD0001741000013010101B71200009382028047
:100BE0001691F13F6F00200C0000797122D426D2BB
:100BF0004AD04ECE06D6B689BD46AA842E84328906
:100C00006393D806B7260080938646B36392D906CD
:100C1000C256C6852685114642C63EC43AC2EF106A
:100C20007033A247930509FBA29523AE040423A0C9
:100C30000406C1999CD9896712473248938707886F
:100C4000FCC5B7170080B2502254938747BE23A437
:100C50003503D8D523AA0503BCC58CD402599254B8
:100C6000F24945618280938608017946E372D6FA9B
:100C700037360080B735008037350080E1461306EF
:100C8000460D9385C5101305051B46C2EF003012B3
:100C9000924837350080C1563946C6851305051D73
:100CA000EF00F01001A04111AA872E85B28536868B
:100CB00006C68297EF10006FEF10302B9397150048
:100CC000AE97139727005C45BA970307B5006353A7
:100CD000B7009C431357F6417D8B329715870A075F
:100CE000BA979CC21375F60182800111740006CE7A
:100CF000F137324785473395A7001C43F240C98F2F
:100D00001CC3056182800111740006CE453F324745
:100D100085473395A7001C43F2401345F5FF7D8DB1
:100D200008C305618280011126CA444122CC2A846D
:100D300003558500A6854AC84EC652C456C25AC03D
:100D400006CE4D3483290400834AA400FD572A8A25
:100D5000AA99A305F40001497D4B634159038144DD
:100D60008357840063CEF404F2406244D244424983
:100D7000B249224A924A024B05618280A685528579
:100D8000413C131719004A979317270058443E9780
:100D9000930747005CC31CC76349AB00A30524014C
:100DA00089808D04F19805094DBF7D059357F54164
:100DB000FD8BAA9795878A0723203701BE99CDB767
:100DC0004C40268505341C40268681453E955C4472
:100DD00085041387470018C1984758C1984708C32E
:100DE00088C722851937ADBF1D71A2CCCEC6DAC027
:100DF00086CEA6CACAC8D2C4D6C25EDE62DC66DAB5
:100E00006AD86ED68010034EA500FD5993172E00A8
:100E1000BD0793F7077F3301F1405C410A8BDA8805
:100E20008D07F19B2320FB008147938AF7FF63D056
:100E3000C70391CB03A8C8FF135828000D081378E7
:100E4000C8FF23A0080103A808006379B802FD5772
:100E50006397FA04232007005155130104FAF64062
:100E60006644D6444649B649264A964A064BF25B42
:100E7000625CD25C425DB25D256182800323C50065
:100E8000139817003E980A081A981303480003287D
:100E9000480063036800BE898507910879B7E38B32
:100EA000F9FA834705010149858B91C721497339B7
:100EB00009301379890093971900232AE4FACE9711
:100EC00058458A079107BA97B68C232CC4FAAA848E
:100ED0007D5703AA070063834713939729000327CD
:100EE0004A00330DFB0083270A0083250D00A14D26
:100EF0001CC3D8C388403305AA40EFF0FF902A8670
:100F0000CE852685093585091387F9FF634D57037B
:100F100083C70401858B99C373290930832784FB18
:100F2000884023A057018A0A569B83250B0033056E
:100F3000AA40EFF07F8D832744FB23A0AC0001453E
:100F400023A0470119BF884083250D00854B330539
:100F5000AA40EFF07F8B9398190093172500CE9845
:100F6000232EF4FA8A0803274D00DE85232614FB7E
:100F70003A852328E4FAEFF0FF868327C4FB330C7D
:100F8000AA00CE853386FB0026858533032704FB24
:100F90009040CC407D1703D584006297118F2328A1
:100FA000E4FAEFF03F84032704FB8328C4FA63705C
:100FB000A702D8444697130647002320CC001047C9
:100FC0002322CC0010472320860123248701850B90
:100FD0009147E39AFBF803C70401058B09E7014930
:100FE0008509110D15B77329093003C70401058B55
:100FF0007DD773B90D3013798900DDB7FD199307DB
:101000004AFFE398E9EC014A21B71D71A2CCA6CAB8
:10101000D2C486CECAC8CEC6D6C2DAC05EDE62DC14
:1010200066DA6AD86ED680100347A500AA840A073C
:101030003D071377077F3301E14058410A8AD28682
:101040000D07719B2320EA000545910663FBA50669
:1010500003C704012E8CB289058B014911C72149B0
:101060007339093013798900114D13172C005297E9
:10107000832A070083AB04004E85D685EFF08FF6F8
:10108000138BFAFFB30D6501AA9BCC4003D58400F6
:10109000EFF04FF563EFAD0237360080B7350080D3
:1010A000373500801305051B9306200A13064620DA
:1010B00093858523ED293735008013054525C529FE
:1010C00001A003A7C6FF050509830D07719B98C200
:1010D000ADBF4E86E2852685093913171C0062973D
:1010E00093162700D84436979306470023A0DB00C9
:1010F000144723A2DB00144723A0760123247701A1
:1011000003C70401058B15EB814B5E8963130C0447
:1011100083C70401858BF9E3130104FAF6406644A2
:10112000D6444649B649264A964A064BF25B625C6B
:10113000D25C425DB25D256182807329093003C7AC
:101140000401058B71D3A147F3BB073093FB8B00E0
:101150006DBF9306C4FB4E86E285268585368326C1
:10116000C4FB1357F5410D8B2A978842719BBD47ED
:101170003357E5003D8BE31DF7F8814C93FDC9FF24
:1011800033869D013285D6852324C4FAEFF08FE59E
:10119000B3066501AA8BCC4003D584002326D4FA7C
:1011A000EFF04FE48326C4FA032684FA63FDA60019
:1011B000E2852685893E9440B69B03A64B0083A614
:1011C0000B0014C2D0C2850CE39CACFB13D6F941D2
:1011D0000D8AB2997D1C93D9294041BDF3AB0B30E8
:1011E00025BF014582809C4185079CC1B73700809F
:1011F00003A307750283397122DC4ED652D45AD02C
:101200006AC806DE26DA4AD856D25ECE62CC66CAF4
:101210006EC6AA892E8A328D368B05446353E00050
:101220003A848547930C00026314FB00930C00037F
:10123000B7D49A3B0549A94A014C9384F49F894D40
:10124000938B140063140C0063F2A407DE856A8597
:10125000EFF00FDCD2851305050382990509054CD3
:10126000DE856A85EFF04FDF2A8DA9452685EFF0F0
:101270002FDAFD1A8547AA84E394FAFCD285130578
:101280000D0382998D4733042441630FFB02F25012
:101290006254D2544259B259225A925A025BF24BCA
:1012A000624CD24C424DB24D21618280E34A54FBE4
:1012B000E3E86DFBD28566858299050955B7D2852D
:1012C0001305000282997D14E34B80FEC9B7B7373E
:1012D000008023A8A77482805D71A2C4A6C2CAC080
:1012E0004EDE52DC56DA5AD866D26ECE86C65ED64E
:1012F00062D46AD02A84AE84328BB68C014A7D597E
:101300008149814D854A03450B0005E1B6402644DD
:1013100096440649F259625AD25A425BB25B225C49
:10132000925C025DF24D61618280639A0D009306CA
:1013300050026307D524A6850294050BE9B79306EE
:101340004006630BD50E63EBA6049306900363E798
:10135000A602930610036375D50C9306D0026306AC
:10136000D522930700036303F50A13075002631F96
:10137000E500A685130550020294E5A093068005BA
:101380006303D512130730066304E51EA685130513
:1013900050020294A68503450B00F9BF930600078F
:1013A0006309D50E63EFA600930690066306D50881
:1013B0009306C0066300D50893068006E30FD5F6B2
:1013C000F1B7930650076308D50A63EAA60213072C
:1013D0003007E31DE5FA138C4C0083AC0C00E68B60
:1013E00003C50B00631C05168D476398F900B38B8A
:1013F0009B41B30B794163477017E28C9DA0930624
:1014000080076302D50A9306A0074DBF635C0900FD
:10141000638F0916130905FDE39109F2894931BF6C
:10142000E34A09FE9316290036990609130909FDB6
:101430002A99DDB7050A11B763C74A0303A60C0052
:10144000910C635B0600A6851305D00232C402949A
:1014500022467D193306C0404A87CE86A68522855E
:10146000593B814DD9BD93877C0013F787FF930CBF
:1014700087001043F9B763C64A0103A60C00910C1C
:10148000E1BF93877C0013F787FF930C870010431D
:10149000E1B7A685130500030294A685130580070E
:1014A00002942149854963C34A0783A70C00910C24
:1014B0003EC42146014C014DA145A247938BF5FF47
:1014C00013952B0033D5A7003D8929ED9306000322
:1014D00063140D006390550736956205A6856185F6
:1014E00032C60294050C3246639B0B028D46814D39
:1014F000E395D9E413171900330C8741E35380F7C0
:10150000A6851305000202947D1CCDBF93877C0045
:1015100093F687FF9C42938C86003EC459BF6E8D24
:10152000DE8561BFA54793067005E3E7A7FA93063A
:1015300000035DB79307F6FF3EC66348C900639892
:101540005901A6851305000302943246D1BF89478D
:10155000E39DF9FEA68513050002FDB7A685850B60
:101560000294BDBDA685130500020294FD1B61B562
:1015700003A50C00938B4C00A6850294DE8CD5B598
:10158000014A7D598149854D4DBB8D497DB38549C2
:101590006DB301112A8637150080AE861305651ECE
:1015A0006C0006CE02C60D3BF240056182803971A7
:1015B0002ED24C1006CE32D436D63AD83EDA42DCA1
:1015C00046DE2EC6F937F240216182808280A14733
:1015D000F3A7073073005010828085473395A7002A
:1015E000732545308280A147F3B7073073504030F0
:1015F000735040348280411122C426C237340080A7
:1016000006C6A947AA841304C47F6317F5000840DF
:10161000B5455C41DC438297084093F5F40F5C418B
:10162000DC438297B2402244268592444101828065
:10163000371500801305655F59B9373500804111B2
:101640001305852506C64129B737008023AEA77E3E
:10165000C537B240014541018280B70710F003A7AA
:1016600047F403A507F483A547F4E39AE5FE8280D7
:10167000011122CC06CE26CA4AC84EC652C4214405
:1016800073340430B744008093840480F93703A98D
:10169000040003AA4400AA8733052541B3B7A70075
:1016A000B38545410D66130606EE81469D8DEFE03C
:1016B0003FB6AA898D65938505EE4E85EFF08F9232
:1016C0002A993335A900529523A02401C8C0218846
:1016D000732404306244F240D2444249224A4E8587
:1016E000B24905616F100031411106C6BD378D67E3
:1016F000938707EE370710F0AA97FD562326D7F4F5
:1017000033B5A7002E952324F7F42326A7F41D450F
:10171000E935B240014541018280DDED011122CC65
:1017200006CE26CA4AC84EC652C4FD572A8463163E
:10173000F5003775050013048561A144F3B4043046
:10174000293FB7770500AA89938787611305F4FFBE
:10175000A18863DFA7063E850D64930504EEEFF0D4
:101760006F88B74700809387078003A9070003AA03
:1017700047009307F4EDB3872741CE973E95930535
:1017800004EEEFF0EF88930504EEEFF0AF85B309B8
:101790003941AA999307703E63C53701130404EEDB
:1017A0002295B70710F02A997D5723A6E7F4333521
:1017B000A900529523A427F523A6A7F4F3A4043087
:1017C000F2406244D2444249B249224A05618280D1
:1017D000E35405F8014549B78280411122C406C689
:1017E000214473340430953DB747008083A70780B8
:1017F0008D65938505EE1D8DEFF08F812188732413
:101800000430B2402244410182808347050003C76F
:1018100005006393E70081E73385E7408280050593
:101820008505E5B793F6F50FAA8713F737001DEB8B
:1018300093F5F50F13978500D98D13970501D98D71
:101840003383C7003E870D48B308E3406362180343
:101850001357260093152700AE970D8E3E96639D75
:10186000C70082807DDE8507A38FD7FE7D1675BFFA
:101870001107232EB7FEC9BF8507A38FD7FEC5B7B3
:10188000411102C6B24785073EC6B70701F08CC3B7
:10189000410182807D55828001458280011122CCE8
:1018A0001C453734008026CA13044475B7440080B1
:1018B00006CE4AC84EC693848480854923200400FE
:1018C0002A8923A0340182978327490023203401E9
:1018D000829789471CC08327C90082978D471CC007
:1018E000624423A00400F240D2444249B249374541
:1018F0000080130505A505616F00B0321D71A6CAF1
:10190000B744008083A7C48086CEA2CCCAC8CEC606
:10191000D2C4D6C2DAC05EDE62DC66DA6AD86ED6BF
:1019200063C60706374400800546AA892E8C130536
:1019300004A58145EF00B02737350080CE8513051B
:10194000C528B531373900801305492AB73A0080D8
:10195000B9399384C480014A22CEB74C0080374BFA
:101960000080372D0080B74D0080B73B0080938A00
:101970000A2883274C0095EBCE85630F0A0A37357A
:10198000008013054531253185479CC0F6406644EB
:10199000D6444649B649264A964A064BF25B625CF3
:1019A000D25C425DB25D2561828083250C00B73731
:1019B00000801385C72EE53E02C283270C01628793
:1019C0001306004093E78700FD5801489306CD8930
:1019D0003EC093850C3E814713050BA6EF00303CBB
:1019E000F247FD55138507A5EF00102993878D80D9
:1019F00013050BA68043EF005057B747008093872D
:101A0000878098430504F9571334140003260C000B
:101A1000631FF700B73500809385053013858B3041
:101A200079361305492A6136229A510C99B79317D2
:101A30002400D6978C43DDB7373500801305C532B7
:101A4000BD369C40B337F00089B7B747008083A705
:101A5000C780411122C43735008006C63734008064
:101A60001305452A81CFA136B7350080938585348B
:101A7000130504352244B240410115BE0D3EB73571
:101A8000008093858536EDB7411106C6EFE09FF8DB
:101A9000B24041015DBF13172500B737008005052F
:101AA000938747380A0541113E97AA9722C426C258
:101AB0000043844306C663679400B24022449244C4
:101AC000410182801C402285DC43829719C1232278
:101AD00004003104CDB74111B737008026C2B734B6
:101AE000008022C406C6138407774AC0938707770D
:101AF0009384047A631894002A893E84631C9400BA
:101B0000014415A0584009C718401843630DA700A9
:101B10003104CDB75C4099E33104CDB71C404A8510
:101B20008C43E53175F92285B24022449244024942
:101B300041018280411122C426C206C62144894443
:101B4000F3370430EF00D05163C3A4000545854549
:101B5000EF001067AD3CEDB737350080B747008028
:101B60001306057F9387C7BD3386C740814513059C
:101B7000057F4DB94111094506C6313F3735008013
:101B80001305853AEFF0BFA20D453137EF00B02CB9
:101B9000E53DB7470080938707B403C7C700799B2B
:101BA0002386E700B24041018280357126CB0408CC
:101BB000130600078145268506CF22CD4AC94EC7A8
:101BC000953137440080B7570080930904BB938751
:101BD000073E014523A2F9007D3D05456D3D930774
:101BE000101023A49900231EF100EF00207AB737CC
:101BF000008093878739374900803EC2B72600802E
:101C00008547B7450080930409B43EC0014781472A
:101C100081480148938646B7130600209385057EC8
:101C2000130509B423A09902EF00301583C7D4002F
:101C3000130404BB13F7B7FFA386E400ED8B81EB1D
:101C40009850FD576315F700130509B49929B73764
:101C500000809387073A3EC2374500808547B72604
:101C60000080B7550080930405AD3EC0BD480148D3
:101C700081470147938646B3130600209385059E4E
:101C8000130505ADEF00700F83C7D40044C4214590
:101C9000ED9BA386F400B7470080938787BC1CCCDC
:101CA0005CCC733505302189EFE08FD1411122C41E
:101CB00026C237340080B734008006C61304047A85
:101CC0009384847D63689400B24022449244014529
:101CD000410182809307440122855CC81CCCEFF04F
:101CE0008F847104C5B7B747008083A707BB5D71B8
:101CF000A2C4A6C2CAC04EDE5AD886C652DC56DA84
:101D00005ED662D466D26AD06ECE2A89AE84328B19
:101D1000368481498DCB95CE37360080B73500802B
:101D2000373500801305051B930670031306463EE6
:101D300093854541EFF0BF87373500801305452572
:101D4000EFF0FF8601A06356D000EF00F055B30915
:101D5000A400373500801305057A3305A940B7750F
:101D6000DBB6938575DB0985EFE0DFA77D7A856AB1
:101D7000137CF50FD55BD15C130AFA0FFD1A214DC8
:101D8000930D4901268774003000DA854A85EFF00B
:101D9000AF85631C7501268774003000DA854A859B
:101DA000EFF08F84631375015155A247238284019C
:101DB000BD8B13978700DC40B3F74701D98F3247BB
:101DC000B3F757013207D98FDCC005C51DC06312B8
:101DD000950373350D302286EE852189A523FD57A5
:101DE000E302F4FAEF00504C3384A940E35C04F8BA
:101DF0005555B640264496440649F259625AD25A7D
:101E0000425BB25B225C925C025DF24D616182805A
:101E1000834705004111104122C4139437004AC082
:101E20001D8C373900800A04935586001309097AFE
:101E30003182BD893305890026C206C6A144EFF070
:101E4000CF9CF3B40430130544014A95A188112BAB
:101E500009CDB747008083A707BB81EB2244B2407E
:101E6000024926859244410121A2F3A40430B240E4
:101E700022449244024941018280110551BF41111F
:101E800006C6EFF09F95B747008083A74781B24011
:101E9000374700803E952320A7BC81453E85410100
:101EA0006F00103221457335053021898280411140
:101EB00022C437440080930704BB26C2C45306C61D
:101EC00093874702130404BB6383F40091E0444406
:101ED0001C4405ED9DCB03C7D7007D8B1DE79453B4
:101EE0007D576394E60283D6E7001307F007637E0D
:101EF000D700373700800327C7766388E7001CD0F8
:101F0000B240224492444101828063839700853F1E
:101F100004D0FDB7011106CE22CC2EC62A84593733
:101F2000B245B747008023A007BCB747008023AA6B
:101F30008780B74700802AC423A8B7808937224505
:101F4000218973250530F240624405618280411188
:101F500022C406C62A84B937AA8708406313A4009E
:101F60000145A18BF3A70730B24022444101828092
:101F7000B7470080938707BB94432A8799E6944725
:101F80009C536384F6006FE0AFA3218B7327073067
:101F90008280411122C437440080130404BB1C44D6
:101FA00006C626C283C7F70085EB37360080B735F3
:101FB0000080373500801305051B9306701D13063E
:101FC000464E93850551EFF08FDE373500801305BF
:101FD0004525EFF0CFDD01A01C4085CB37360080D2
:101FE000B7350080373500801305051B9306801D2B
:101FF0001306464E9385454AEFF06FDB3735008078
:1020000013054525EFF0AFDA01A0693D1844AA8415
:1020100005458347F700A1888507A307F700413DE1
:10202000F3A404302145733505302244B240924474
:102030002189410135BFB737008083A7C7766395F3
:10204000F50237360080B735008037350080411102
:102050009306D0211306464E938505441305051BB0
:1020600006C6EFF0CFD401A01C416319F5005C4116
:1020700088C1DCC15C418CC34CC18280EDDB03872D
:10208000E5008386E7006358D700D8439CC1D8C1D8
:102090000CC3CCC382805441E38BD7FC9C43F5F343
:1020A000F9B7411106C622C426C2AA84E53B2A8498
:1020B00037450080A685130545BDB53F83C7D400CD
:1020C0000145218893E70704A386F400CD337324E8
:1020D0000430B24022449244410182808347D500BB
:1020E000FD8B91E71851FD576313F7005DBF8280A8
:1020F000B737008083A7C7766395F502373600802F
:10210000B73500803735008041119306C022130691
:10211000464E938505441305051B06C6EFF02FC9EF
:1021200001A0D8419C411CC3D8C38280411122C464
:1021300026C22A8406C6BD33AA84084415E1373670
:102140000080B735008037350080930610151306E0
:10215000464E938545451305051BEFF04FC501A07D
:10216000A28579378347D400A188F59BA306F400A4
:10217000F3A4043023240400B240224492444101D9
:102180008280411122C406C62A844D37130584017A
:102190002244B240410171AD832705FF411122C4A1
:1021A00026C206C62A84930485FE99C32685BD3FB0
:1021B000834754FFB2402685ED9BA30AF4FE2244D8
:1021C0009244410121BF4111814522C406C64133D9
:1021D0002A8409C5A13F13058401A12D2285B2409F
:1021E00022444101828001114AC837490080130905
:1021F00009BB06CE22CC26CA4EC62A8493094902C0
:102200005531A285AA844E85E535A2854E852535B2
:102210008347D40003258900A18893E70704018D33
:10222000A306F400133515005931F3A40430F2402D
:102230006244D2444249B24905618280B747008076
:1022400083A74781B1CBB7470080938707BB9847E7
:102250009306F0070356E70063E0C604B746008024
:102260000306E70083A606816348D602B7360080DE
:1022700083A6C6766302D7021053FD56631ED600AE
:10228000944B6349D50041113A8506C6A93FB24037
:102290004101F5B6898E94CB8280411122C426C2B9
:1022A0002A8406C64AC0FD3E8347D400AA8493F719
:1022B00007048DC737490080130909BB130549027C
:1022C000A2853D358347D4000325890093F7F7FBAA
:1022D000018DA306F40013351500D13EA188F3A4A7
:1022E0000430B240224492440249410182804111AB
:1022F00022C426C22A844AC006C6AE843289713FEF
:102300008347D40093E72700A306F40089C404C4DC
:10231000A28526850D33FD576300F902130584015C
:102320002244B2409244130619000249B7250080A6
:1023300093858519410171ABB24022449244024910
:10234000410182804111B747008022C42A8403A53D
:1023500087BB06C6693F22852244B24041016FD047
:102360003FE6411126C206C6AA8422C40145804028
:102370006383840011E4B24022449244410182808C
:10238000228501352285993B0545D5B7B7470080A1
:10239000938707BB13874702D8D398D78145054554
:1023A0006FF05FB7B747008003A587BB82804111FC
:1023B00006C605EA37360080B7350080373500801D
:1023C0001305051B9306D0031306865393854556C4
:1023D000EFF0EF9D3735008013050557EFF02F9D87
:1023E00001A06379B60237360080B73500803735F3
:1023F00000801305051B9306E0031306865393859F
:102400008558EFF0CF9A373500801305055AEFF065
:102410000F9A01A0B2400CC550C508C148C1410186
:102420008280411122C44AC006C626C22A8921449C
:10243000733404302188413B0DC58347D500AA84FD
:10244000FD8B91E71851FD576313F700993923A6C7
:10245000040622852244B2409244024941016FF0B1
:102460003FB1032789008327C900998FB337F00054
:10247000BA972324F900F1BFB747008083A707BBB1
:102480002E869DCB95C937360080B735008037350D
:10249000008041111305051B93063008130686536F
:1024A0009385855C06C6EFF08F9037350080130565
:1024B0004525EFF0CF8F01A0A147F3B707301845AE
:1024C000A18B19C77D1718C5F3A707300145828076
:1024D00009E6F3A7073041558280AA853E859DB560
:1024E0008347D500FD8B99E71851FD576314F7001A
:1024F0006FF03FBB8280B747008003A507BB333531
:10250000A0008280B747008083A787BB03C5C700B0
:1025100005898280411122C406C6214473340430E7
:102520000347D50021889376470099E67324043049
:10253000B2402244410182806D9BA306E5004D37E5
:1025400022852244B24041016FF09FA291E1D9B7A8
:10255000411122C406C62144733404301386150089
:10256000B7250080938585196105A52621887324E8
:102570000430B2402244410182800111025322CC36
:1025800006CE1AC02A84EFE04FE6B747008083A743
:1025900087BBF240BC573CD462440561828037431C
:1025A0000080032303BB011126CA06CE22CC92541D
:1025B0006309030237360080B73500803735008065
:1025C0001305051B9306801A1306C65F9385454ABB
:1025D000EFE0FFFD373500801305C562EFE03FFDFA
:1025E00001A0025302C22A841AC0413FFD576385ED
:1025F000F400A6852285993F2285F2406244D244A8
:10260000056182803C51411122C406C62A8491C3CF
:1026100082978347D40013F7F7010DE314507D57D9
:10262000639EE600228595398347D400B24093E744
:102630008700A306F400224441018280898B81C770
:102640002285EFF0BFAE1850FD57E30FF7FC1305DE
:102650008401C522D1BF7971B73700804ECEB7391A
:10266000008022D426D206D64AD01384077A9384D7
:10267000077A9389097A636E3403B747008003A70A
:1026800007BB21CF37360080B73500803735008053
:102690001305051B9306200F1306C6469385454A6E
:1026A000EFE0FFF03735008013054525EFE03FF000
:1026B00001A05C543EC21C503EC05C488328C4014B
:1026C000032884011848544410444C400840753590
:1026D0001C40E0CF1304040379BF938707BB9847DE
:1026E00085468347F7006399D70237360080B735B0
:1026F0000080373500801305051B9306300F130645
:10270000C6469385C54BEFE09FEA37350080130539
:102710004525EFE0DFE901A0FD17A307F7002149F8
:1027200073390930268413798900FD54636C3401B0
:10273000732909302254B25092540259F24945612A
:102740006FF03F854C5063849500084001351304B9
:102750000403E9BFFD572306D500A306C5002307E0
:10276000B500A30705001CD18280411122C406C612
:1027700026C22144733404308347C500858B85CB42
:1027800037360080B7350080373500801305051BCC
:10279000930630021306466593858568EFE03FE1B6
:1027A000373500801305C56BEFE07FE001A0AA84F8
:1027B000913DB747008003A707BB218801CB732455
:1027C0000430B2402244924441018280938707BB87
:1027D0009C47228563949700EFD09F9E2244B2408D
:1027E000924441016FF0CFF8B747008083A78781FB
:1027F00099E36FE09FFE01458280214573350530E6
:10280000218982801C4199CF584109CFB736008079
:1028100083A6C6756306D50094471045B29694C743
:102820001CC3D8C3FD5723220500232005001CC567
:102830008280411122C426C206C6AA847D3F9844E4
:10284000FD572A847D556305F7002685653F0145C0
:10285000218873240430B240224492444101828092
:10286000B747008083C7C781411122C406C626C26C
:102870004AC07D5489E7370400801344F4FFB53F14
:10288000B73700809387877503A90700AA84630080
:10289000F902630E090003248900B9373305A44007
:1028A000014463460500032489003D3F098CA1884B
:1028B000F3A40430B747008083A707BC81C763D364
:1028C00087003E842285B24022449244024941015D
:1028D00082801C45011106CE22CC26CA63C907029C
:1028E00037360080B7350080373500801305051B6B
:1028F000930630041306866D93858570EFE03FCB19
:102900003735008013054525EFE07FCA01A04CC58F
:1029100032C62A84DD35AA84C13D32466343C000F5
:102920000546B737008003A787752A9610C493879A
:1029300087756304F700CC4301EBD8431CC058C033
:10294000D84300C3C0C3A9A0144763D906023736D1
:102950000080B7350080373500801305051B9306CE
:10296000C0041306866D93858571EFE05FC437352B
:10297000008013054525EFE09FC301A01044635A72
:10298000D602918E14C7544318C054C080C240C3AD
:1029900098436308F7006316E400D9358145EFE0FA
:1029A000DFD7A188F3A40430F2406244D244056129
:1029B0008280B306D64014C4E381E5F81843ADBF66
:1029C00001112EC606CE22CC26CAAA843D352A8401
:1029D000413DB24563D8A400854763D5A70026854D
:1029E000EFE0BFD3218873240430F2406244D24424
:1029F00005618280011106CE22CC26CA2A844EC6E9
:102A000052C4B74900804AC8373A0080EFF01F83AC
:102A1000B7440080DD33130A8A7523AC8980938420
:102A200004829389898103240A0083A709009440C2
:102A300003A84400137985006308440111C41844B5
:102A400063DDE7021D8F18C4BE9613D7F741429786
:102A5000B3B7F600BA9794C0DCC023A009000935CB
:102A60008145EFE09FCB73290930F2406244D244A4
:102A70004249B249224A05618280BA969355F7418C
:102A800033B6E600C2952E96998F23240400228542
:102A900094C0D0C023A0F900B533732909305C4439
:102AA00022858297993B41B7411106C622C4B133B2
:102AB0002A84EFE09FD23747008013070782AA8756
:102AC00008434C4321883E95B337F500BE957324E7
:102AD0000430B240224441018280A147F3B707305D
:102AE0001841A18B9306170014C1F3A707303A854C
:042AF00082808280DE
:102AF400000000007A0B0080000000007A0B0080C8
:102B0400000000007A0B0080000000007A0B0080B7
:102B1400000000007A0B0080000000007A0B0080A7
:102B2400000000007A0B0080000000007016008096
:102B3400000000007A0B0080000000007A0B008087
:102B4400000000007A0B0080000000007A0B008077
:102B5400000000007A0B0080000000007A0B008067
:102B6400000000007A0B0080000000007A0B008057
:102B7400000000007A0B0080000000007A0B008047
:102B8400000000007A0B0080000000007A0B008037
:102B9400000000007A0B0080000000007A0B008027
:102BA400000000007A0B0080000000007A0B008017
:102BB400000000007A0B0080000000007A0B008007
:102BC400000000007A0B0080000000007A0B0080F7
:102BD400000000007A0B0080000000007A0B0080E7
:102BE400000000007A0B0080000000007A0B0080D7
:102BF400000000007A0B0080000000007A0B0080C7
:102C0400000000007A0B0080000000007A0B0080B6
:102C1400000000007A0B0080000000007A0B0080A6
:102C2400000000007A0B0080000000007A0B008096
:102C3400000000007A0B0080000000007A0B008086
:102C4400F42D00803A1600800000000060320080FD
:102C5400E8160080000000005832008098180080B8
:102C640000000000F42D0080AC1C00800000000077
:102C7400000102020303030304040404040404041F
:102C840005050505050505050505050505050505F0
:102C940006060606060606060606060606060606D0
:102CA40006060606060606060606060606060606C0
:102CB40007070707070707070707070707070707A0
:102CC4000707070707070707070707070707070790
:102CD4000707070707070707070707070707070780
:102CE4000707070707070707070707070707070770
:102CF4000808080808080808080808080808080850
:102D0400080808080808080808080808080808083F
:102D1400080808080808080808080808080808082F
:102D2400080808080808080808080808080808081F
:102D3400080808080808080808080808080808080F
:102D440008080808080808080808080808080808FF
:102D540008080808080808080808080808080808EF
:102D640008080808080808080808080808080808DF
:102D7400746573745F6D706F6F6C5F746872656196
:102D840064736166650000006D706F6F6C5F7468DA
:102D9400726561647361666500000000B80A0080B2
:102DA400280B0080280B0080AC0A0080B80A008041
:102DB400140B00801E0B00802430008044300080FF
:102DC4006030008074300080803000809830008053
:102DD400756E6B6E6F776E00457863657074696F9E
:102DE4006E20636175736520257320282564290A84
:102DF400000000002A2A2A2A204B65726E656C2086
:102E0400416C6C6F636174696F6E204661696C75A7
:102E1400726521202A2A2A2A0A0000002A2A2A2A3C
:102E24002A204B65726E656C204F4F505321202A27
:102E34002A2A2A2A0A0000002A2A2A2A2A204B653A
:102E4400726E656C2050616E696321202A2A2A2AD9
:102E54002A0A00002A2A2A2A20556E6B6E6F776E82
:102E640020466174616C204572726F722025642162
:102E7400202A2A2A2A0A000043757272656E742079
:102E8400746872656164204944203D2025700A46B7
:102E940061756C74696E6720696E7374727563749E
:102EA400696F6E2061646472657373203D203078AD
:102EB40025780A202072613A20307825782020670E
:102EC400703A2030782578202074703A20307825A4
:102ED40078202074303A20307825780A2020743104
:102EE4003A2030782578202074323A2030782578BA
:102EF400202074333A2030782578202074343A2006
:102F0400307825780A202074353A203078257820C6
:102F14002074363A2030782578202061303A2030E9
:102F2400782578202061313A20307825780A2020CD
:102F340061323A2030782578202061333A20307885
:102F44002578202061343A20307825782020613596
:102F54003A20307825780A202061363A20307825C6
:102F640078202061373A20307825780A0000000064
:102F740049535200657373656E7469616C2074689B
:102F84007265616400000000466174616C206661D2
:102F9400756C7420696E20257321205370696E6EE0
:102FA400696E672E2E2E0A00466174616C2066617C
:102FB400756C7420696E2074687265616420257074
:102FC400212041626F7274696E672E0A000000004E
:102FD400ADBAADDEADBAADDEADBAADDEADBAADDE25
:102FE400ADBAADDEADBAADDEADBAADDEADBAADDE15
:102FF400ADBAADDEADBAADDEADBAADDEADBAADDE05
:10300400ADBAADDEADBAADDEADBAADDEADBAADDEF4
:10301400ADBAADDEADBAADDEADBAADDEADBAADDEE4
:10302400496E737472756374696F6E20616464723F
:10303400657373206D6973616C69676E6564000004
:10304400496E737472756374696F6E20416363654E
:103054007373206661756C7400000000496C6C65C4
:1030640067616C20696E737472756374696F6E0046
:10307400427265616B706F696E7400004C6F6164BD
:103084002061646472657373206D6973616C696730
:103094006E6564004C6F61642061636365737320C3
:1030A4006661756C7400000053707572696F757396
:1030B40020696E74657272757074206465746563DA
:1030C40074656421204952513A2025640A000000A5
:1030D4002F686F6D652F6D69616F752F70726F2F1B
:1030E40072697363762F7A65706879722F6172637F
:1030F400682F726973637633322F636F72652F742E
:1031040068726561642E6300282828287072696FCC
:10311400726974792929203D3D20313520262620E5
:103124005F69735F69646C655F7468726561642864
:10313400287468726561645F66756E632929292045
:103144007C7C20285F69735F7072696F5F68696750
:103154006865725F6F725F657175616C282828708D
:1031640072696F7269747929292C20283135202DD0
:1031740020312929202626205F69735F7072696FC8
:103184005F6C6F7765725F6F725F657175616C28D4
:1031940028287072696F7269747929292C2028286B
:1031A4002D3136292929292900000000415353458E
:1031B4005254494F4E204641494C205B25735D20B3
:1031C400402025733A25640A0000000009696E76E0
:1031D400616C6964207072696F7269747920282542
:1031E40064293B20616C6C6F7765642072616E6743
:1031F400653A20256420746F2025640A00000000CD
:103204002F686F6D652F6D69616F752F70726F2FE9
:1032140072697363762F7A65706879722F6C69624C
:103224002F6D656D706F6F6C2F6D656D706F6F6C4A
:103234002E630000626C6F636B5F66697473287041
:103244002C20626C6F636B2C206C737A2900000055
:10325400090A000075617274300000007379735FAD
:10326400636C6F636B00000094180080801800800A
:103274000000000000000000000000007433008023
:103284007C3300800033008052756E6E696E672057
:10329400746573742073756974652025730A00005E
:1032A4003D3D3D3D3D3D3D3D3D3D3D3D3D3D3D3D4A
:1032B4003D3D3D3D3D3D3D3D3D3D3D3D3D3D3D3D3A
:1032C4003D3D3D3D3D3D3D3D3D3D3D3D3D3D3D3D2A
:1032D4003D3D3D3D3D3D3D3D3D3D3D3D3D3D3D3D1A
:1032E4003D3D3D0A000000007374617274696E67AD
:1032F4002074657374202D2025730A00534B4950A4
:10330400000000002573202D2025730A0000000012
:103314005465737420737569746520257320666120
:10332400696C65642E0A00005465737420737569B2
:103334007465202573207375636365656465640A29
:10334400000000004641494C4544000050524F4A99
:1033540045435420455845435554494F4E20257301
:103364000A0000005355434345535346554C00004F
:1033740050415353000000004641494C00000000F6
:103384007037008094370080A0370080A037008019
:10339400A03700806D61696E0000000069646C658F
:1033A400000000002A2A2A2A2A20426F6F74696EBC
:1033B40067205A6570687972204F53207A65706867
:1033C40079722D76312E31332E302D333032302D2B
:1033D4006733376633373434202A2A2A2A2A0A00E4
:1033E4002F686F6D652F6D69616F752F70726F2F08
:1033F40072697363762F7A65706879722F6B657260
:103404006E656C2F6D656D706F6F6C2E63000000C0
:103414002128285F6B65726E656C2E6E657374650A
:103424006420213D203055292026262074696D65AD
:103434006F757420213D203029000000215F6973DD
:103444005F69646C652874687265616429000000B2
:103454007468726561642D3E626173652E70656E79
:103464006465645F6F6E00002F686F6D652F6D6912
:10347400616F752F70726F2F72697363762F7A651F
:10348400706879722F6B65726E656C2F696E636CF0
:103494007564652F6B73636865642E6800000000B3
:1034A40021285F6B65726E656C2E6E65737465643E
:1034B40020213D20305529005F6B65726E656C2EAE
:1034C40063757272656E742D3E626173652E7363EB
:1034D4006865645F6C6F636B656420213D20310017
:1034E4002F686F6D652F6D69616F752F70726F2F07
:1034F40072697363762F7A65706879722F6B65725F
:103504006E656C2F73636865642E63005F6B657210
:103514006E656C2E63757272656E742D3E62617396
:10352400652E73636865645F6C6F636B65642021EB
:103534003D2030002F686F6D652F6D69616F752FA9
:1035440070726F2F72697363762F7A6570687972FF
:103554002F6B65726E656C2F73656D2E63000000B2
:103564006C696D697420213D20305500096C696DCA
:1035740069742063616E6E6F74206265207A65726F
:103584006F0A0000696E697469616C5F636F756EC0
:1035940074203C3D206C696D6974000009636F758B
:1035A4006E742063616E6E6F74206265206772654D
:1035B40061746572207468616E206C696D69740A47
:1035C400000000002828285F6B65726E656C2E6E03
:1035D400657374656420213D20305529203D3D20CC
:1035E4003029207C7C202874696D656F7574203DBA
:1035F4003D203029290000002F686F6D652F6D690B
:10360400616F752F70726F2F72697363762F7A658D
:10361400706879722F6B65726E656C2F7468726551
:1036240061642E630000000009546872656164736C
:10363400206D6179206E6F7420626520637265610C
:1036440074656420696E20495352730A00000000B7
:103654002F686F6D652F6D69616F752F70726F2F95
:1036640072697363762F7A65706879722F6B6572ED
:103674006E656C2F7468726561645F61626F7274E9
:103684002E630000287468726561642D3E62617364
:10369400652E757365725F6F7074696F6E73202623
:1036A40020282831554C203C3C2028302929292920
:1036B400203D3D203000000009657373656E746918
:1036C400616C207468726561642061626F727465F4
:1036D400640A00002F686F6D652F6D69616F752F27
:1036E40070726F2F72697363762F7A65706879725E
:1036F4002F6B65726E656C2F74696D656F75742EB2
:1037040063000000746F2D3E647469636B73203C26
:1037140020300000742D3E647469636B73203E3D59
:043724002030000051
:10372800742D008074090080BC080080BC080080EB
:103738000000000000000000000000000000000081
:103748000000000000000000E211008003000000FB
:103758005837008058370080A0370080BC37008079
:08376800F5FFFFFFD03A0080DD
:10377000682C008000000000000000005C2C00802D
:103780006C32008000000000442C0080000000002B
:1037900000000000502C008000000000000000002D
:1037A0002838008010000000020001006838008006
:1037B0000100000000000000000000004838008008
:1037C00010000000020001007438008001000000B9
:0837D0000000000000000000F1
:1037D800D8370080D83700800000000000000000C3
:0437E8000F000000CE
:040000058000000077
:00000001FF
