:0200000480007A
:100000009702000093820201739052306F00106ECD
:10001000130101FB2320110023223100232441007E
:100020002326510023286100232A7100232CC101BB
:10003000232ED1012320E1032322F1032324A10253
:100040002326B1022328C102232AD102232CE10254
:10005000232EF1022320010523221105F32210345F
:1000600023245104F322003023265104EF00001F03
:1000700013030000631E0502F3222034B70300803F
:100080009383F3FFB3F272001303B000638A62003C
:100090001305010097000000938040136F009058F3
:1000A0008322810493824200232451046F000009BB
:1000B0009302010097530000938343F303A143008D
:1000C000130101FF2320510003AE0300130E1E0095
:1000D00023A0C30163080300970000009380C003BE
:1000E0006F00105D73252034B70200809382F2FF09
:1000F00033755500EF00801597420000938282D23D
:1001000013153500B382A20003A5020003A3420029
:10011000E700030017530000130343ED832303009C
:100120009383F3FF232073008322010013810200D5
:1001300083238300032E030263087E089752000086
:100140009382C2EA03A38200232683022328930218
:10015000232A2303232C3303232E43032320530575
:10016000232263052324730523268305232893056F
:10017000232AA305232CB30523242302975300002D
:10018000938303AE03AE03002326C30703A3020237
:1001900023A46200032183020324C30283240303F4
:1001A0000329430383298303032AC303832A030404
:1001B000032B4304832B8304032CC304832C0305E8
:1001C000032D4305832D830583228104739012340C
:1001D0008322C104739002308320010083214100F7
:1001E000032281008322C1000323010183234101F3
:1001F000032E8101832EC101032F0102832F4102AF
:10020000032581028325C1020326010383264103BE
:10021000032781038327C1030328010483284104A2
:100220001301010573002030730000009752000095
:100230009382C2DB03A382008323C3061375850068
:10024000F3220530138503006780000013031000BC
:10025000B312A30073B3423467800000F32220344A
:1002600037030080B3F262001305000063840200CC
:08027000130515006780000072
:10027800130101FD23229102232861012326110283
:100288002324810223202103232E3101232C410121
:10029800232A51012326710123248101232291015C
:1002A800130B050093840500639C063813040600AD
:1002B8009309050017490000130909CF63F8C5120F
:1002C800B7070100938A05006378F6109306F00FCC
:1002D800B3B6C60093963600B357D6003309F90073
:1002E80003470900B306D700130700023307D740B6
:1002F800630C0700B394E400B356DB003314E60044
:10030800B3EA9600B319EB00135B040193050B00E5
:1003180013850A00EF00405A1309050093050B00E6
:10032800931B040113850A00EF00805493DB0B0133
:10033800930405009305050013850B00EF0080501A
:100348001319090113D709013367E900138A040057
:10035800637EA70033078700138AF4FF636887006A
:100368006376A700138AE4FF33078700B304A74026
:1003780093050B0013850400EF00005413090500D2
:1003880093050B0013850400EF00804E9399090133
:1003980093040500930505001319090113850B0043
:1003A80093D90901EF00004AB369390113860400A3
:1003B80063FCA900B30934011386F4FF63E68900DE
:1003C80063F4A9001386E4FF93170A01B3E7C70093
:1003D800130A00006F000013B7070001930600011D
:1003E800E36CF6EE930680016FF01FEF138A0600A8
:1003F800631A06009305000013051000EF0040473C
:1004080013040500B7070100637CF4129307F00F8B
:1004180063F48700130A8000B35744013309F900D5
:100428008346090013060002B38646013306D64008
:1004380063120612B3848440130A1000135B04018C
:1004480093050B0013850400EF000047130905000E
:1004580093050B0013850400931B0401EF00404132
:1004680093DB0B01930405009305050013850B002E
:10047800EF00403D1319090113D709013367E9005B
:10048800938A0400637EA70033078700938AF4FFEA
:10049800636887006376A700938AE4FF33078700C1
:1004A800B304A74093050B0013850400EF00C04078
:1004B8001309050093050B0013850400EF00403B6A
:1004C800939909019304050093050500131909017F
:1004D80013850B0093D90901EF00C036B3693901C0
:1004E8001386040063FCA900B30934011386F4FFE2
:1004F80063E6890063F4A9001386E4FF93970A0171
:10050800B3E7C7001385070093050A008320C102DB
:100518000324810283244102032901028329C101A2
:10052800032A8101832A4101032B0101832BC10086
:10053800032C8100832C4100130101036780000014
:10054800B7070001130A0001E368F4EC130A8001FD
:100558006FF09FEC3314C40033DAD400B319CB0026
:10056800B356DB00135B0401B394C40093050B007E
:1005780013050A00B3EA9600EF00003413090500DA
:1005880093050B0013050A00931B0401EF00402E8E
:1005980093DB0B01930405009305050013850B00FD
:1005A800EF00402A1319090113D70A013367E9003C
:1005B800138A0400637EA70033078700138AF4FFB9
:1005C800636887006376A700138AE4FF3307870010
:1005D800B304A74093050B0013850400EF00C02D5A
:1005E8001309050093050B0013850400EF0040284C
:1005F800930405009305050013850B00EF00802484
:1006080093960A011319090193D60601B367D90015
:100618001387040063FEA700B38787001387F4FFDE
:1006280063E8870063F6A7001387E4FFB3878700B2
:10063800131A0A01B384A740336AEA006FF01FE077
:1006480063ECD51EB707010063F4F6049305F00FB9
:1006580033B5D5001315350033D7A60097470000EA
:1006680093878794B387E70083C50700130A0002BE
:10067800B385A500330ABA4063160A02930710002F
:10068800E3E296E83336CB00934716006FF09FE716
:10069800B707000113050001E3E0F6FC130580012C
:1006A8006FF09FFBB35AB600B3964601B3EADA007F
:1006B80033D9B400B3974401B355BB0093DB0A01A7
:1006C800B3E4F5001305090093850B00B31946013F
:1006D800EF00801E1304050093850B001305090025
:1006E800139C0A01EF00C018135C0C0113090500E4
:1006F8009305050013050C00EF00C0141314040142
:1007080013D704013367E400930C0900637EA70044
:1007180033075701930CF9FF636857016376A70005
:10072800930CE9FF330757013309A74093850B0062
:1007380013050900EF0040181304050093850B000A
:1007480013050900EF00C012130905009305050001
:1007580013050C00EF00000F939704011314040114
:1007680093D707013367F40013060900637EA700D7
:10077800330757011306F9FF636857016376A7002B
:100788001306E9FF3307570193970C01370E010051
:10079800B3E7C7001308FEFF33F3070133F8090175
:1007A8003307A74093DE070193D909011305030016
:1007B80093050800EF0000099308050093850900D8
:1007C80013050300EF000008130305009305080054
:1007D80013850E00EF000007130805009385090034
:1007E80013850E00EF00000693D6080133030301BA
:1007F800B386660063F406013305C50113D6060106
:100808003305A6006366A702E314A7BC37070100F7
:100818001307F7FFB3F6E60093960601B3F8E8006E
:1008280033164B01B3861601130A0000E37CD6CCBD
:100838009387F7FF6FF0DFB9130A000093070000F2
:100848006FF05FCC130605001305000093F6150042
:10085800638406003305C50093D5150013161600EA
:10086800E39605FE678000006340050663C605063B
:1008780013860500930505001305F0FF630C0602B7
:1008880093061000637AB6006358C000131616006A
:1008980093961600E36AB6FE1305000063E6C500EA
:1008A800B385C5403365D50093D616001356160098
:1008B800E39606FE6780000093820000EFF05FFB7E
:1008C80013850500678002003305A04063D8050042
:1008D800B305B0406FF0DFF9B305B0409382000074
:1008E800EFF01FF93305A0406780020093820000F3
:1008F80063CA0500634C0500EFF09FF713850500F8
:1009080067800200B305B040E35805FE3305A040F8
:10091800EFF01FF63305B0406780020067800000E3
:10092800130101FD232E11002324010323261103A3
:10093800631805041386060013870500B746008070
:10094800B745008037450080930781029386C60A21
:100958009385C50B130545102326F100EF100012EF
:100968008325C100374500801305C527EF10000E09
:10097800374500801305452AEF104010EF10006737
:100988008320C1011301010367800000130101FCEA
:10099800232C81021306C0021304050093050000EE
:1009A80013054100232E1102EF104050B757008065
:1009B80083A787D0639007021306000093054100C0
:1009C8001305040023260100232401002328010025
:1009D800EF10106B8320C10303248103130101046A
:1009E80067800000130101FC232C81021304050019
:1009F8003745008013054521232E1102EF1000080A
:100A08001306C0029305000013054100EF10004AC9
:100A1800B757008083A787D0639007021306F0FFBB
:100A28009305410013050400232601002324010037
:100A380023280100EF10D0648320C103032481031D
:100A48001301010467800000130101F723248108C2
:100A5800375400802326110823229108130484D0D8
:100A680023200400EF205009B7540080B7160080F7
:100A7800B75500803755008093070000138784DF3F
:100A8800232201002320010093080000130800001E
:100A98009386C69E1306002093850502130585E1FB
:100AA800EF20504203270400B757008023A8A7D09F
:100AB800138407D163180704930700042328A102AD
:100AC8009306F0FF1306010493054101138584DFA3
:100AD800232CF100EF105060B747008037470080A3
:100AE80037460080B74500809387C7271307C70A92
:100AF800930630041306C60B9385C51213351500EB
:100B0800EFF01FE203250400EF2010658320C108E1
:100B18000324810883244108130101096780000028
:100B2800130101F6232C8108232A910837540080E9
:100B3800B7540080232E11082328210923263109C0
:100B48002324410923225109130484D09306000069
:100B58001306010493054101930A0004138584DFF9
:100B680023200400232C510123280102EF10D05622
:100B7800B7490080374A008037490080B745008070
:100B88009307CA271387C90A930660041306C90B7B
:100B98009385051A3335A000EFF09FD8B71600806B
:100BA800B75500803755008093070000138784DF0E
:100BB80023220100232001009308000013080000ED
:100BC800938646991306002093850502130585E14F
:100BD800EF20502F03270400B757008023A6A7D083
:100BE8001384C7D06310070493062000130601047A
:100BF80093054101138584DF232C51012328010229
:100C0800EF10904DB74500809307CA271387C90A8C
:100C1800930690041306C90B9385C51D133515005B
:100C2800EFF01FD003250400EF2010538320C109E3
:100C38000324810983244109032901098329C1085F
:100C4800032A8108832A41081301010A67800000EA
:100C580037550080130101FF130585DF2326110096
:100C6800EF1090403755008093050000130585E08C
:100C780013061000EF2000698320C100B7550080DB
:100C880037450080938505C11305451913010101F6
:100C98006F10C038130101FF23261100232481009F
:100CA800930760006304F502EF2050166304050201
:100CB800EF20D01563160504B745008093850540DD
:100CC8003745008013054541EF00505BEF00105F8A
:100CD8006FF0DFFFEF209014E31C05FC3754008011
:100CE800130484FE8325840037450080130545439B
:100CF800EF00D05803258400EF2010466FF01FFD49
:100D0800B74500809385C53F6FF09FFB130101FB3A
:100D180023248104232291042326110493076000CD
:100D2800930405001384050063E0A70E374700808D
:100D38009317250013078722B387E70083A70700C7
:100D4800678007003745008013050528EF0010531A
:100D5800EF20805A83274404832804010328C40011
:100D68002328F10283270404032744008326040070
:100D78002326F1028327C403032684049305050070
:100D88002324F10283278403374500801305453067
:100D98002322F102832744032320F102832704033B
:100DA800232EF1008327C402232CF1008327840219
:100DB800232AF100832744022328F1008327040211
:100DC8002326F1008327C4012324F100832784010B
:100DD8002322F100832744012320F1008327840084
:100DE800EF00D0499305040013850400EFF09FEA53
:100DF800374500801305852A6FF05FF53745008079
:100E08001305452C6FF09FF4374500809385040047
:100E18001305052EEF0090466FF09FF3130101FFB5
:100E2800232481002326110013040500732620348F
:100E380013161600135616009307500063E8C702EE
:100E4800374700809317260013074724B307F70096
:100E580083A507003745008013054526EF0010429B
:100E68009305040013050000EFF05FEAB745008022
:100E78009385C5256FF01FFE130101FF232611007E
:100E8800F3252034374500809395150093D5150038
:100E980013054553EF00903EB74500809385C5453F
:100EA80013054000EFF09FE6B7570080938747D1BE
:100EB80003A70700630C070003A3070023A007008C
:100EC800B757008003A587D167000300678000003B
:100ED800130101FF23261100EF10404CEF001040D2
:100EE800EF10805217510000130141B3B7120000F0
:100EF8009382028033015100EFF09FFD6F00801153
:100F0800130101FD232481022322910223202103BE
:100F1800232E310123261102938906009306F0003F
:100F2800930405001384050013090600639CD80880
:100F3800B72600809386C636639CD90883260103AA
:100F48009385080013850400130640002326010139
:100F58002324F1002322E100EF20501E8327810083
:100F6800930509FBB305B40023AE040423A00406CB
:100F780093F505FF23A8F502B727000003274100D2
:100F88000328C1009387078823A6F504B7170080B4
:100F98008320C10203248102938747F023A43503E9
:100FA80023A6E50223AA050323A4F50423A4B40277
:100FB80003290102832441028329C101130101038A
:100FC80067800000938608011306E001E378D6F6EF
:100FD80037460080B745008037450080930680017A
:100FE8001306C655938545591305856323221101B8
:100FF800EF00D0288328410037450080930600FF82
:101008001306E0009385080013058565EF00102797
:101018006F000000130101FF930705001385050009
:10102800930506001386060023261100E7800700B3
:10103800EF20802CEF20501293971500B387B7004C
:10104800139727008327C500B387E7000307B50078
:101058006354B70083A707001357F6411377F701C6
:101068003307C7001357574013172700B387E70004
:1010780023A0F6001375F60167800000130101FE36
:101088009306C100232E1100EFF01FFB0327C100B8
:10109800930710003395A700832707008320C10119
:1010A800B3E7A7002320F7001301010267800000BF
:1010B800130101FE9306C100232E1100EFF0DFF7A4
:1010C8000327C100930710003395A7008327070063
:1010D8008320C1011345F5FF33F5A7002320A7009E
:1010E8001301010267800000130101FE232A910009
:1010F80083244500232C8100130405000355850033
:10110800938504002328210123263101232441014A
:101118002322510123206101232E1100EFF08FF2C9
:1011280083290400834AA4009307F0FF130A0500EB
:10113800B389A900A305F40013090000130BF001FB
:10114800634C5903930400008357840063CCF4086C
:101158008320C10103248101832441010329010162
:101168008329C100032A8100832A4100032B01003F
:1011780013010102678000009385040013050A002B
:10118800EFF00FEF13171900330727019317270004
:101198000327C4003307F700930747002322F7000B
:1011A8002324F700634EAB00A305240193D4240045
:1011B8009384340093F4C4FF130919006FF05FF8A7
:1011C8001305F5019357F54193F7F701B387A70086
:1011D80093D757409397270023203701B389F90005
:1011E8006FF0DFFC8325440013850400EFF08FE5E2
:1011F8008327040013860400930500003385A700A5
:101208008327C40093841400138747002320E50034
:1012180003A787002322E50003A787002320A70050
:1012280023A4A70013050400EFF05FE56FF0DFF1DA
:10123800130101FA232C8104232A91042324410554
:10124800232E1104232821052326310523225105A5
:1012580023206105232E7103232C8103232A910364
:101268002328A1032326B103130401060347A5007D
:1012780093040500131727001307F7001377077F58
:101288003301E14003274500130A010093060A00D1
:10129800130737001377C7FF2320EA001305100050
:1012A8009386460063FAA50803C70401138C05005A
:1012B8009309060013771700130900006308070055
:1012C800130980007339093013798900130D400020
:1012D80013172C003307EA00832A070083AB0400A6
:1012E8001385090093850A00EFF0CFD5138BFAFF19
:1012F800B30D6501B38BAB0083A5440003D584000F
:10130800EFF04FD463E8AD0437460080B74500805E
:1013180037450080130585639306200A1306C668BF
:101328009385056CEF008075374500801305C56D02
:10133800EF00C0746F00000003A7C6FF1305150077
:1013480013572700130737001377C7FF23A0E600BA
:101358006FF01FF51386090093050C001385040030
:10136800EFF0DFD113171C0033078701931627000E
:1013780003A7C4003307D7009306470023A0DB0068
:101388008326870023A2DB008326870023A076011B
:101398002324770103C7040113771700631E07048A
:1013A800930B000013890B0063180C0683C7040114
:1013B80093F7170063920712130104FA8320C105FB
:1013C8000324810583244105032901058329C104D8
:1013D800032A8104832A4104032B0104832BC103BC
:1013E800032C8103832C4103032D0103832DC102A8
:1013F80013010106678000007329093003C704013F
:1014080013771700E30E07F893078000F3BB073044
:1014180093FB8B006FF01FF99306C4FB138609003A
:1014280093050C0013850400EFF01FC18326C4FB4D
:101438001357F541137737003307A70003A50600B4
:101448001377C7FF9307F0003357E5001377F700CA
:10145800E31EF7F4930C000093FDC9FF33869D014A
:101468001305060093850A002324C4FAEFF08FBD04
:10147800B3066501930B050083A5440003D58400DA
:101488002326D4FAEFF00FBC8326C4FA032684FA85
:1014980063F4A60293050C0013850400EFF05FC106
:1014A80083A60400B38B760103A64B0083A60B002A
:1014B8002320D60023A2C600938C1C00E390ACFB2B
:1014C80013D6F94113763600B3093601130CFCFF25
:1014D80093D929406FF0DFDFF3AB0B306FF0DFED0E
:1014E800130500006780000083A705009387170095
:1014F80023A0F500B757008003A3C7C46700030003
:10150800130101FC232C81022326310323244103E8
:10151800232061032328A101232E1102232A9102EB
:101528002328210323225103232E7101232C810117
:10153800232A91012326B10193090500138A050086
:10154800130D0600138B0600130410006354E0000B
:101558001304070093071000930C00026314FB00A8
:10156800930C0003B7D49A3B13091000930AA00008
:10157800130C00009384F49F930D2000938B1400A8
:1015880063140C0063F2A40B93850B0013050D0084
:10159800EFF00FAE93050A0013050503E780090075
:1015A80013091900130C100093850B0013050D0087
:1015B800EFF08FB0130D05009305A000138504000C
:1015C800EFF00FAB938AFAFF93071000930405001E
:1015D800E396FAFA93050A0013050D03E78009005C
:1015E80093073000330424416306FB068320C103BC
:1015F8000324810383244103032901038329C102AE
:10160800032A8102832A4102032B0102832BC10191
:10161800032C8101832C4101032D0101832DC1007D
:101628001301010467800000E34054F9E3EE6DF70D
:1016380093050A0013850C00E780090013091900B7
:101648006FF09FF693050A0013050002E780090072
:101658001304F4FFE34880FE6FF05FF9B75700808A
:1016680023A6A7C467800000130101FB232481047B
:101678002322910423202105232E3103232C410307
:10168800232A51032328610323229103232EB10126
:101698002326110423267103232481032320A10375
:1016A8001304050093840500130B0600938C0600B1
:1016B800130A00001309F0FF93090000930D0000BE
:1016C800930A100003450B00631005048320C1042E
:1016D8000324810483244104032901048329C103C9
:1016E800032A8103832A4103032B0103832BC102AD
:1016F800032C8102832C4102032D0102832DC10199
:101708001301010567800000639E0D0093065002D7
:10171800630CD53093850400E7000400130B1B000D
:101728006FF05FFA930640066300D51263E2A606DF
:101738009306900363EAA602930610036374D50E1A
:101748009306D002630CD52E930700036300F50CB3
:10175800130750026312E502938504001305500233
:10176800E70004006F00401293068005630ED5164B
:1017780013073006630EE52893850400130550020D
:10178800E70004009385040003450B006FF05FFD3C
:1017980093060007630AD51263E0A6029306900633
:1017A8006304D50A9306C006630CD5089306800621
:1017B800E306D5F66FF05FFC930650076304D50E79
:1017C80063EEA60213073007E318E5FA138C4C0002
:1017D80083AC0C00938B0C0003C50B006318052029
:1017E800930730006398F900B38B9B41B30B7941A1
:1017F80063467021930C0C006F0000099306800764
:101808006304D50E9306A0076FF09FFA635E090084
:10181800638A0922130905FDE39209F09309200060
:101828006FF0DFEFE34809FE93162900338926019C
:1018380013191900130909FD330925016FF0DFFD9C
:10184800130A1A006FF09FED63C44A0503A60C0043
:10185800938C4C0063500602938504001305D00254
:101868002324C100E7000400032681001309F9FFBF
:101878003306C040130709009386090093850400C6
:1018880013050400EFF0DFC7930D00006FF01FE9A8
:1018980093877C0013F787FF930C870003260700C4
:1018A8006FF05FFB63C84A0103A60C00938C4C00E1
:1018B8006FF05FFC93877C0013F787FF930C87001A
:1018C800032607006FF01FFB938504001305000330
:1018D800E70004009385040013058007E70004006F
:1018E800130980009309100063CA4A0983A70C00F2
:1018F800938C4C002324F10013068000130C000085
:10190800130D00009305800083278100938BF5FF5A
:1019180013952B0033D5A7001375F500631205083E
:101928009306000363140D00639655093385A600DA
:101938001315850193850400135585412326C1009D
:10194800E7000400130C1C000326C10063940B0479
:1019580093063000930D0000E392D9DC13171900A9
:10196800330C8741E35280F393850400130500028A
:10197800E7000400130CFCFF6FF0DFFE93877C0088
:1019880093F687FF83A70600938C86002324F10033
:101998006FF09FF6138D0D0093850B006FF0DFF647
:1019A8009307900093067005E3E2A7F893060003F7
:1019B8006FF0DFF79307F6FF2326F100634AC900AB
:1019C800639C59019385040013050003E700040094
:1019D8000326C1006FF05FFC93072000E39AF9FE2D
:1019E80093850400130500026FF05FFE93850400E1
:1019F800938B1B00E70004006FF01FDE9385040043
:101A080013050002E7000400938BFBFF6FF05FDE15
:101A180003A50C00938B4C0093850400E700040099
:101A2800938C0B006FF05FE6130A00001309F0FFB8
:101A380093090000930D10006FF05FCE93093000FA
:101A48006FF0DFCD930910006FF05FCD130101FE39
:101A58001306050037150080938605001305054F0A
:101A68009305C100232E110023260100EFF0DFBFEC
:101A78008320C1011301010267800000130101FCEA
:101A88002322B10293054102232E11002324C1020F
:101A98002326D1022328E102232AF102232C010361
:101AA800232E11032326B100EFF05FFA8320C10132
:101AB800130101046780000067800000930780001D
:101AC800F3A70730730050106780000093071000D9
:101AD8003395A70073254530678000009307800081
:101AE800F3B70730735040307350403467800000BC
:101AF800130101FF23248100232291003754008021
:101B0800232611009307A000930405001304C4D1F1
:101B1800631CF500032504009305D00083274500C6
:101B280083A74700E78007000325040093F5F40F17
:101B38008327450083A74700E78007008320C1006B
:101B4800032481001385040083244100130101014B
:101B58006780000037250080130585AF6FF01FB040
:101B680037450080130101FF1305056E2326110078
:101B7800EF008075B757008023AEA7D0EFF09FFD28
:101B88008320C100130500001301010167800000D4
:101B9800B70710F003A747F403A507F483A547F494
:101BA800E39AE5FE67800000130101FE232C810003
:101BB800232E1100232A91002328210123263101F5
:101BC800232441011304800073340430B754008087
:101BD800938404D2EFF0DFFB03A9040003AA4400B6
:101BE8009307050033052541B3B7A700B3854541E1
:101BF80037D601001306064C93060000B385F5405E
:101C0800EFE00FE793090500B7D501009385054C70
:101C180013850900EFE01FC3330925013335A900F7
:101C28003305450123A0240123A2A40013748400D2
:101C380073240430032481018320C10183244101DA
:101C480003290101032A8100138509008329C100A2
:101C5800130101026F20800B130101FF23261100DD
:101C6800EFF01FF3B7D701009387074C370710F041
:101C7800B307F5009306F0FF2326D7F433B5A70082
:101C88003305B5002324F7F42326A7F413057000C1
:101C9800EFF0DFE38320C100130500001301010109
:101CA8006780000063900510130101FE232C81005A
:101CB800232E1100232A91002328210123263101F4
:101CC800232441019307F0FF130405006316F50070
:101CD800379500001304E5BC93048000F3B4043086
:101CE800EFF01FEBB7970000930905009387E7BC57
:101CF8001305F4FF93F4840063D0A70A1385070043
:101D080037D401009305044CEFE0DFB3B7570080E8
:101D1800938707D203A9070003AA47009307F44B48
:101D2800B3872741B38737013385A7009305044C50
:101D3800EFE01FB49305044CEFE0DFB0B30939417D
:101D4800B389A9009307703E63C637011304044C96
:101D580033058500B70710F0330925011307F0FF95
:101D680023A6E7F43335A9003305450123A427F555
:101D780023A6A7F4F3A404308320C101032481011E
:101D880083244101032901018329C100032A810019
:101D98001301010267800000E35405F613050000F3
:101DA8006FF01FF667800000130101FF23248100F4
:101DB800232611001304800073340430EFF05FDD34
:101DC800B757008083A707D2B7D501009385054C84
:101DD8003305F540EFE0DFA9137484007324043061
:101DE8008320C100032481001301010167800000E2
:101DF8008347050003C705006394E700639607005F
:101E08003385E740678000001305150093851500AA
:101E18006FF01FFEB347B50093F73700638C0704D4
:101E280093070500130700006316E60667800000A5
:101E3800E30E06FE9385150003C7F5FF9387170089
:101E48001306F6FFA38FE7FE13F73700E31207FE2A
:101E5800930630003308E64063E206031357260072
:101E6800931627003306D640B387D700B385D5002D
:101E78006FF05FFB930705006FF01FFDB388E50067
:101E880083A808003388E7001307470023201801B8
:101E98006FF05FFC3388E50003480800B386E7006D
:101EA80013071700238006016FF01FF893F6F50F4C
:101EB8009307050013F737006314070493F5F50F2C
:101EC80013978500B365B70013970501B365B7008D
:101ED8003383C7001387070013083000B308E340B3
:101EE800636A18031357260093152700B387B700B2
:101EF8003306B6403386C7006394C7026780000084
:101F0800E30E06FE93871700A38FD7FE1306F6FF8E
:101F18006FF05FFA13074700232EB7FE6FF01FFC20
:101F280093871700A38FD7FE6FF01FFD130101FFE2
:101F3800232601008327C100938717002326F10079
:101F4800B70701F023A0B700130101016780000063
:101F58001305F0FF6780000013050000678000008C
:101F6800130101FE232C810083278500375400804C
:101F7800232A9100130404C5B7540080232E1100AE
:101F88002328210123263101938484D29309100048
:101F9800232004001309050023A03401E78007006B
:101FA8008327490023203401E78007009307200096
:101FB8002320F4008327C900E78007009307300037
:101FC8002320F4000324810123A004008320C101FD
:101FD80083244101032901018329C1003755008069
:101FE800130585E8130101026F10803A3755008008
:101FF800130101FFB75700801307F0FF130585E8A9
:102008002326110023A4E7D2EF108038EF10C02E4A
:102018008320C100130101016F101014130101FA8C
:10202800232A9104B754008083A7C4D2232E110415
:10203800232C810423282105232631052324410547
:102048002322510523206105232E7103232C8103AC
:10205800232A91032328A1032326B10363C4070875
:10206800375400801306100093090500138C0500EF
:10207800130584E893050000EF10C0283745008059
:102088009385090013054571EFF05F9F374900807C
:102098001305C972B74A0080EFF05F9E9384C4D2DB
:1020A800130A0000232E8100B75C0080375B008094
:1020B800372D0080B75D0080B74B0080938A8A7007
:1020C80083274C00639E07049385090063060A1062
:1020D800374500801305C579EFF05F9A9307100024
:1020E80023A0F4008320C10503248105832441052E
:1020F800032901058329C104032A8104832A410491
:10210800032B0104832BC103032C8103832C41037C
:10211800032D0103832DC10213010106678000000E
:1021280083250C00B747008013854777EFF01F958C
:102138002322010083270C0113070C00130600401B
:1021480093E787009308F0FF1308000093068DF6C5
:102158002320F10093850C229307000013058BE9D7
:10216800EF1040568327C1019305F0FF138587E8D8
:10217800EF10802A93878DD213058BE903A40700FB
:10218800EF10807DB7570080938787D203A7070099
:10219800130414009307E0FF1334140003260C0003
:1021A8006314F702B74500809385857813850B790A
:1021B800EFF0DF8C1305C972EFF05F8C330A8A00E9
:1021C800130C4C016FF0DFEF93172400B387FA006C
:1021D80083A507006FF09FFD374500801305457BF9
:1021E800EFF0DF8983A70400B337F0006FF05FEFEB
:1021F800B757008083A7C7D2130101FF23248100AA
:102208003745008023261100374400801305C57226
:1022180063820702EFF09F86B74500809385057DAE
:102228001305847D032481008320C100130101016B
:102238006FF0DF84EFF09F84B74500809385057FBA
:102248006FF01FFE130101FF23261100EFE05FA0CE
:102258008320C100130101016FF09FF913172500B6
:10226800B7570080130515009387C78013152500FD
:10227800130101FF3387E700B387A70023248100F8
:10228800232291000324070083A4070023261100BA
:10229800636C94008320C1000324810083244100DF
:1022A800130101016780000083270400130504005F
:1022B80083A74700E7800700630405002322040082
:1022C8001304C4006FF0DFFC130101FFB75700804F
:1022D80023229100B7540080232481002326110073
:1022E800138447C623202101938747C6938404CAD1
:1022F800631C9400130905001384070063149402F7
:10230800130400006F00400403274400630807001B
:1023180003270400032707006308A7021304C40067
:102328006FF01FFD83274400639607001304C40061
:102338006FF0DFFC832704001305090083A507005D
:10234800EFF01FABE31405FE130504008320C10062
:1023580003248100832441000329010013010101A2
:1023680067800000130101FF2324810023229100CC
:10237800232611001304800093042000F33704304F
:10238800EF10807463C4A4001305100093051000B7
:10239800EF105012EFF08FF26FF05FFE37550080AC
:1023A800B7570080130685D0938747013386C74007
:1023B80093050000130585D06FF05FAF130101FF8F
:1023C8001305200023261100EFF05FE93755008040
:1023D80013050583EFF08FEA13053000EFF01FE8CF
:1023E800EF104040EFF01FE6B7570080938787F75C
:1023F80003C7C7001377E7FF2386E7008320C100E0
:102408001301010167800000130101F6232A9108D6
:1024180093040101130600079305000013850400C7
:10242800232E1108232C810823282109232631096A
:10243800EFF0DFA737540080B7670080930984FE68
:10244800938707221305000023A2F900EFF01FE18C
:1024580013051000EFF09FE09307101023A49900D4
:10246800231EF100EF005067B7570080938707825B
:10247800375900802322F100B72600809307100007
:10248800B7550080930489F72320F1001307000053
:102498009307000093080000130800009386463C49
:1024A8001306002093850562130589F723A0990276
:1024B800EF10801D83C7D400130484FE13F7B7FF01
:1024C800A386E40093F7B701639C070003A70402FF
:1024D8009307F0FF6316F700130589F7EF009012D2
:1024E800B7570080938787822322F10037550080F1
:1024F80093071000B7260080B7650080930485F025
:102508002320F1009308F00013080000930700004F
:10251800130700009386C6361306002093850582AC
:10252800130585F0EF10401683C7D40023269400C6
:102538001305800093F7B7FFA386F400B757008010
:1025480093870700232CF400232EF40073350530FD
:1025580013758500EFD0DFCC03270502930705002C
:102568006308070083A605021305F0FF6318D70662
:1025780083A6C50103A7C701638606001305F0FFFC
:10258800639EE60423AEE50003A7050283A6870041
:1025980023A0E70203A7850023A4D50083A645004E
:1025A80023A4E70003A747006374D70023A2E5002C
:1025B80003A7470183A6C70023AAE50003A687014E
:1025C80023A6D50023ACC500638C060023AA05000A
:1025D80083A747021305000023A2F50267800000C5
:1025E800E30807FE23A6E5006FF09FFE130101FF35
:1025F800232481003764008013048424232291005B
:1026080023202101232611009304843437590080A4
:10261800130504009306000013061000930500003C
:10262800EF10C031930504001305C9CE1304440507
:10263800EF009067E31E94FC8320C100032481000F
:10264800832441000329010013050000130101013F
:10265800678000008347D50093F7F701639A070066
:10266800032705029307F0FF6314F7006F008079D2
:1026780067800000B7570080130101FD83A707FF9B
:10268800232C410103AA450223248102232021038C
:102698002326110223229102232E3101232A5101DC
:1026A80023AEF50013090500232ABA00130480009D
:1026B80073340430832485009307850013748400E1
:1026C800938A05006398F404631E060A7324043091
:1026D800930900FB6F0080081306F0FF93050000C4
:1026E80013050400032481028320C10283244102CC
:1026F800032901028329C101032A8101832A410197
:10270800130101036F0050358327C900E38EF4FAE3
:1027180083A40400E38A04FA83A5440113850A000C
:102728002326C100EFF05FE3930905000326C100EB
:10273800E31C05FC13850400EF0010011385040059
:1027480023A60406EFF01FF18347DA0093F717007A
:10275800E38407F813050400EF0000518320C10249
:1027680003248102138509008324410203290102FD
:102778008329C101032A8101832A4101130101032D
:10278800678000008347DA009305090093F7170074
:10279800E38807F41306F0FF13050A00EF0050273B
:1027A80073240430930900006FF05FFB8327450210
:1027B800638A070A83274501130101FF2324810047
:1027C800232611001304050063880700130545013B
:1027D800EF008030232A0400832544028327440025
:1027E8002322040203A745012322F70083C7D5004B
:1027F80093F7170063860702032487023755008082
:102808001305C5CEEF00504A6306040413050400FF
:10281800032481008320C100130101016F00503798
:10282800130480007334043083C7D5001385050072
:1028380023A6050693F7D7FFA386F500EFF09FE1DF
:1028480013758400032481008320C1001301010152
:102858006F0080418320C10003248100130101011E
:102868006780000067800000930785002320A5008B
:102878002322A5002324F5002326F5006780000005
:10288800B757008083A707FF23A2F5026FF09FDEEA
:10289800130101FF232481002326110013040500DE
:1028A800639C050023220500032481008320C100C6
:1028B800130101016FF09FEF138505008325C40004
:1028C800638805000326440063040600EFF08FD4F4
:1028D800130504006FF05FFDB7570080138787FE6C
:1028E80003278700130101FD2324810223202103EC
:1028F800232E3101232A510123261102232291027A
:10290800232C41019309050013890500930A060049
:1029180023A0E502130480007334043083240500E7
:1029280013748400138A87FE631A95026398060855
:1029380073240430130500FB6F0000068327490049
:10294800639A070413050900EFF05FE66F0080043F
:1029580083A74900E38CF4FC83A40400E38804FC07
:1029680003A54401930509002326D100EFF0DFBE3B
:102978008326C100E31E05FC13850400EF00C05C3C
:1029880073240430E38C0AFA93850A0013050900BE
:10299800EFF01FF0130500008320C1020324810219
:1029A80083244102032901028329C101032A8101E9
:1029B800832A4101130101036780000083278A00ED
:1029C800138606009385890023AA270113050400AE
:1029D800EF009008E31205FC6FF0DFFA130101FF26
:1029E800232481002322910037540080B7540080AB
:1029F80023261100130404CA938484CD636E9400C3
:102A08008320C100032481008324410013050000B2
:102A180013010101678000009307440113050400B6
:102A2800232AF400232CF400EFE00FEC1304C40174
:102A38006FF0DFFC83470500130101FF0326050043
:102A48002324810013943700232021013304F44008
:102A5800375900801314240093558600130909CAB6
:102A68001356C60093F5F50033058900232291001B
:102A78002326110093048000EFE08FFBF3B40430A9
:102A8800130544013305A90093F48400EF00C07FC7
:102A980063060502B757008083A787FE6390070285
:102AA800032481008320C100032901001385040049
:102AB80083244100130101016F00001BF3A40430BB
:102AC8008320C100032481008324410003290100DD
:102AD8001301010167800000130545006FF09FF5A1
:102AE800130101FF23261100EFF00FACB757008048
:102AF80083A747D38320C100375700803385A700B9
:102B0800232CA7FE9305000013850700130101017C
:102B18006F10401A13058000733505301375850052
:102B280067800000130101FF2324810037540080CF
:102B3800930784FE2322910083A4470223261100D1
:102B480093874702130484FE6384F40063940400AB
:102B58008324C4008327840063180504638607045C
:102B680003C7D7001377F7016310070483A607028A
:102B78001307F0FF639AE60283D6E7001307F0070E
:102B88006374D70237570080032707C6638EE700B0
:102B98002320F4028320C100032481008324410000
:102BA800130101016780000063849700EFF05FF371
:102BB800232094026FF01FFE130101FE232E110043
:102BC800232C8100232A9100232821012326310167
:102BD8009384050093090500EFF0DFF3B7570080F1
:102BE8009305A000130405001385990023AC07FE84
:102BF800EFD09FC7B757008037590080232AA9D242
:102C080023A897D213748400EFF09FED7324043047
:102C18008320C10103248101832441010329010187
:102C28008329C1001301010267800000130101FF1D
:102C3800232481002326110013040500EFF09FEDE3
:102C480093070500032504006314A400130500007E
:102C580093F78700F3A707308320C100032481007E
:102C68001301010167800000B7570080938787FE32
:102C780083A6070013070500639A060083A687004A
:102C880083A707026384F6006FD08FD91377870074
:102C98007327073067800000130101FF2324810098
:102CA80037540080130484FE8327840023261100F0
:102CB8002322910083C7F700639A070237560080E2
:102CC800B755008037450080130585639306701D4E
:102CD8001306869493854597EFE05FDA37450080C1
:102CE8001305C56DEFE09FD96F000000832704002E
:102CF800638A070237560080B75500803745008041
:102D0800130585639306801D130686949385859025
:102D1800EFE0DFD6374500801305C56DEFE01FD61D
:102D28006F000000EFF01FDF032784009304050005
:102D3800130510008347F70093F484009387170066
:102D4800A307F700EFF01FDEF3A40430130580009B
:102D580073350530032481008320C100832441009A
:102D680013758500130101016FF01FF0B75700803C
:102D780083A707C66398F50237560080B7550080C9
:102D880037450080130101FF9306D021130686946E
:102D98009385458A1305856323261100EFE01FCE2E
:102DA8006F000000832705006310F50283274500A4
:102DB80023A0A50023A2F5008327450023A0B70080
:102DC8002322B50067800000E38207FE0387E50041
:102DD8008386E700635ED70003A7470023A0F500BA
:102DE80023A2E5002320B70023A2B70067800000D4
:102DF80083264500E38CD7FA83A70700E39A07FCEC
:102E08006FF0DFFA130101FF23261100232481004C
:102E18002322910093040500EFF0DFCF130405008F
:102E280037550080938504001305C500EFF01FF4A3
:102E380083C7D400130500001374840093E70704C4
:102E4800A386F400EFF01FCE732404308320C10062
:102E580003248100832441001301010167800000DD
:102E68008347D50093F7F701639A07000327050204
:102E78009307F0FF6314F7006FF0DFF86780000036
:102E8800B757008083A707C66398F50237560080B6
:102E9800B755008037450080130101FF9306C02213
:102EA800130686949385458A1305856323261100A6
:102EB800EFE0DFBC6F00000003A7450083A7050013
:102EC8002320F70023A2E70067800000130101FF19
:102ED80023248100232291001304050023261100D6
:102EE800EFF05FC393040500032584006314050213
:102EF80037560080B7550080374500809306101577
:102F0800130686949385858B13058563EFE01FB7B9
:102F18006F00000093050400EFF09FF68347D4008C
:102F280093F4840093F7D7FFA306F400F3A40430C6
:102F3800232404008320C10003248100832441004A
:102F48001301010167800000130101FF23248100A0
:102F58002326110013040500EFF05FF71305840121
:102F6800032481008320C100130101016F00903008
:102F7800832705FF130101FF2324810023229100E9
:102F88002326110013040500930485FE63860700B9
:102F980013850400EFF09FF3834754FF8320C1009B
:102FA8001385040093F7B7FFA30AF4FE03248100F6
:102FB80083244100130101016FF09FEA130101FF0F
:102FC800930500002324810023261100EFF01FC67B
:102FD8001304050063080500EFF05FEF1305840193
:102FE800EF005029130504008320C1000324810049
:102FF8001301010167800000130101FE232821014C
:1030080037590080130989FE232E1100232C8100D3
:10301800232A91002326310113040500930949024C
:10302800EFF05FAF930504009304050013850900D2
:10303800EFF01FE59305040013850900EFF01FD397
:103048008347D4000325890093F4840093E7070499
:1030580033058540A306F40013351500EFF09FAC47
:10306800F3A404308320C101032481018324410196
:10307800032901018329C1001301010267800000AF
:10308800B757008083A747D363880706B7570080E0
:10309800938787FE03A787009306F0070356E70088
:1030A80063ECC604B75600800306E70083A606D380
:1030B8006344D604B756008083A606C6630ED702BB
:1030C800032607029306F0FF6318D60283A60701BA
:1030D8006340D502130101FF1305070023261100E1
:1030E800EFF09FF18320C100130101016FF05F9F92
:1030F800B386A64023A8D70067800000130101FF0C
:1031080023248100232291001304050023261100A3
:1031180023202101EFF01FA08347D400930405006A
:1031280093F70704638A070237590080130989FE59
:103138001305490293050400EFF09FD48347D40098
:103148000325890093F7F7FB33058540A306F400B0
:1031580013351500EFF01F9D93F48400F3A4043099
:103168008320C10003248100832441000329010036
:103178001301010167800000130101FF232481006E
:103188002322910013040500232021012326110086
:103198009384050013090600EFF05FF68347D40017
:1031A80093E72700A306F400638A0400232494000D
:1031B8009305040013850400EFF05FBB9307F0FF4D
:1031C800630CF9029305A00013059900EFD0CFE92D
:1031D8001306150013058401032481008320C10010
:1031E8008324410003290100B7350080938585F7C2
:1031F800130101016F0050178320C10003248100CF
:1032080083244100032901001301010167800000A4
:10321800B757008083A707FF638EA7028347D500AF
:1032280093F717006398070237560080B755008058
:1032380037450080130101FF9306B01413068694E6
:103248009385C5861305856323261100EFE01F8348
:103258006F0000006FF05FF2130101FFB7570080A5
:10326800232481001304050003A507FF232611006A
:10327800EFF09FF013050400032481008320C100B0
:10328800130101016FC0DFF9130101FF232291002F
:103298002326110093040500232481001305000050
:1032A80003A4040063848400631C04008320C10019
:1032B8000324810083244100130101016780000079
:1032C80013050400EFF05FC813050400EFF05FB9C1
:1032D800130510006FF0DFFCB7570080938787FE57
:1032E8001387470223A2E70223A4E70293050000FD
:1032F800130500006FF05F8CB757008003A507FF28
:1033080067800000130101FF23261100631A0602DB
:1033180037560080B7550080374500801305856310
:103328009306D0031306C6999385859CEFE00FF5A5
:10333800375500801305459DEFE04FF46F000000FE
:10334800637AB60237560080B7550080374500804B
:10335800130585639306E0031306C6999385C59EF6
:10336800EFE0CFF137550080130545A0EFE00FF1EE
:103378006F0000008320C1002324B5002326C50068
:103388002320A5002322A500130101016780000066
:10339800130101FF2324810023202101232611008A
:1033A80023229100130905001304800073340430AC
:1033B80013748400EFF09FC0630205048347D500AF
:1033C8009304050093F7F701639A070003270502A2
:1033D8009307F0FF6314F700EFF0DFA223A60406BB
:1033E80013050400032481008320C10083244100C5
:1033F80003290100130101016FF01F8703278900CA
:103408008327C900B387E740B337F000B387E700E5
:103418002324F9006FF0DFFCB757008083A787FEED
:103428001386050063800704638E05023756008003
:10343800B755008037450080130101FF13058563E8
:10344800930630081306C6999385C5A22326110052
:10345800EFE0CFE2374500801305C56DEFE00FE2DE
:103468006F00000093078000F3B70730032785003B
:1034780093F78700630C07001307F7FF2324E50081
:10348800F3A70730130500006780000063180600E3
:10349800F3A70730130500FF6780000093050500B8
:1034A800138507006FF05FDB0327C500832705013D
:1034B800130101FE232E1100232C8100232A9100E1
:1034C8002328210123263101631AF7023756008089
:1034D800B75500803745008013058563930670064D
:1034E8001306C6A8938505A6EFE04FD93755008087
:1034F8001305C5A7EFE08FD86F000000130905007A
:10350800938905001304800073340430EFF01FAB77
:103518001374840093040500630405048347D500ED
:1035280093F7F701639A0700032705029307F0FF53
:103538006314F700EFF01F8D1305040003248101C5
:1035480023AA340123A604068320C1018324410150
:10355800032901018329C100130101026FF0CFF093
:103568008327C90023A03701938747002326F90042
:10357800732404308320C101032481018324410181
:10358800032901018329C10013010102678000009A
:10359800130101FF23248100232291002326110017
:1035A8009304050013048000138505007334043068
:1035B8009305A00013059500EFD00FABB735008039
:1035C80013061500938585F713858401EF00C0590C
:1035D80013748400732404308320C1000324810001
:1035E8008324410013010101678000008347D5004F
:1035F80093F7F701639A0700032705029307F0FF83
:103608006314F7006FF01F8067800000B7570080D1
:1036180003A587FE3335A00067800000B7570080F8
:1036280083A707FF03C5C70013751500678000004F
:10363800130101FF232481002326110013048000B5
:10364800733404300347D50013748400937647001D
:10365800639C0600732404308320C1000324810086
:1036680013010101678000001377B7FFA306E50087
:10367800EFF0DFF713050400032481008320C10065
:10368800130101016FF04FDE130101FE0323010254
:10369800232C8100232E1100232061001304050030
:1036A800EFD01F86B757008083A707FF8320C1018B
:1036B80083A787062324F40603248101130101024A
:1036C8006780000037530080032383FE130101FE47
:1036D800232A9100232E1100232C810083244102E8
:1036E800630A030237560080B755008037450080CB
:1036F800130585639306801A130646AE9385859055
:10370800EFE0CFB737550080130545B1EFE00FB7AD
:103718006F000000032301022322010013040500A7
:1037280023206100EFF05FF69307F0FF6388F40051
:103738006392040213050400EFF09FEF13050400E1
:103748008320C10103248101832441011301010263
:10375800678000009385040013050400EFF05FE321
:103768006FF0DFFD83270506130101FF2324810085
:10377800232611001304050063840700E78007006F
:103788008347D40013F7F701631A0702832604025C
:103798001307F0FF6394E60213050400EFF01F9689
:1037A8008347D4008320C10093E78700A306F40071
:1037B80003248100130101016780000093F72700AB
:1037C8006386070013050400EFF04FF00327040297
:1037D8009307F0FFE306F7FC13058401EF00802947
:1037E8006FF01FFC130101FDB7570080232E310134
:1037F800B759008023248102232291022326110233
:1038080023202103138407CA938407CA938909CA0A
:1038180063603405B757008003A787FE630C07066B
:1038280037560080B75500803745008013058563FB
:103838009306200F1306068D93858590EFE00FA45D
:10384800374500801305C56DEFE04FA36F000000FA
:103858008327C4022322F100832704022320F100D6
:10386800832744018328C401032884010327040112
:103878008326C4000326840083254400032504000E
:10388800EFF09FE08327040023AE870413040403AA
:103898006FF01FF8938787FE03A787009306100031
:1038A8008347F700639AD70237560080B7550080E0
:1038B80037450080130585639306300F1306068D80
:1038C80093850592EFE08F9B374500801305C56D02
:1038D800EFE0CF9A6F0000009387F7FFA307F70088
:1038E800130980007339093013840400137989009F
:1038F8009304F0FF636234037329093003248102BF
:103908008320C10283244102032901028329C101C2
:10391800130101036FF04FB88325440263889500B3
:103928000325040063980500EFF09FD013040403F7
:103938006FF05FFCEFF0DFC56FF05FFF9307F0FFFC
:103948002306D500A306C5002307B500A307050075
:103958002320F50267800000130101FF2324810062
:1039680023261100232291001304800073340430AD
:103978008347C50093F71700638A0702375600800C
:10398800B7550080374500801305856393063002DC
:103998001306C6B3938505B7EFE04F8E3755008001
:1039A800130545BAEFE08F8D6F0000009304050002
:1039B800EFF05FDBB757008003A787FE137484001E
:1039C800630E0700732404308320C10003248100A0
:1039D800832441001301010167800000938787FE5B
:1039E80083A787001305040063949700EFC05F83E3
:1039F800032481008320C1008324410013010101B5
:103A08006FF08FA6B757008083A787D3639407000A
:103A18006FE08FB913050000678000001305800070
:103A2800733505301375850067800000832705000E
:103A3800638807020327450063040702B75600801E
:103A480083A686C5630AD50083A68700032685005A
:103A5800B386C60023A4D7002320F70023A2E700DB
:103A68009307F0FF23220500232005002324F500F7
:103A780067800000130101FF2324810023229100A5
:103A88002326110093040500EFF05FF903A78400D3
:103A98009307F0FF130405001305F0FF6308F70010
:103AA80013850400EFF09FF81305000013748400D9
:103AB800732404308320C10003248100832441003F
:103AC8001301010167800000B757008083C7C7D37F
:103AD800130101FF232481002326110023229100D2
:103AE800232021011304F0FF6396070037040080A8
:103AF8001344F4FFEFF09FF2B7570080938747C550
:103B080003A90700930405006304F902630209028C
:103B180003248900EFF01FEF3305A44013040000CD
:103B28006348050003248900EFF0DFED3304A44067
:103B380093F48400F3A40430B757008083A787FF69
:103B48006386070063D48700138407001305040005
:103B58008320C1000324810083244100032901003C
:103B6800130101016780000083278500130101FE0E
:103B7800232E1100232C8100232A910063CA0702F7
:103B880037560080B7550080374500801305856398
:103B980093063004130606BC938505BFEFD01FEECD
:103BA800374500801305C56DEFD05FED6F0000004D
:103BB8002326B5002326C10013040500EFF01FE6F5
:103BC80093040500EFF01FE40326C1006344C0001E
:103BD80013061000B757008003A747C53306A60091
:103BE8002324C400938747C56306F70083A54700CD
:103BF8006310070203A747002320F4002322E400F0
:103C080003A747002320870023A287006F00000630
:103C18008326870063DA060237560080B75500808E
:103C280037450080130585639306C004130606BC58
:103C3800938505C0EFD09FE4374500801305C56D17
:103C4800EFD0DFE36F00000003268400635AD60438
:103C5800B386C6402324D700832647002320E400E8
:103C68002322D40023A086002322870003A707006D
:103C7800630AF7006318E400EFF01FE593050000FE
:103C8800EFE04F8293F48400F3A404308320C10151
:103C9800032481018324410113010102678000008C
:103CA800B306D6402324D400E386E5F403270700AF
:103CB8006FF01FF4130101FE2326B100232E11001B
:103CC800232C8100232A910093040500EFF01FD5CF
:103CD80013040500EFF05FDF8325C10063DAA40059
:103CE8009307100063D6A70013850400EFD09FFB4D
:103CF80013748400732404308320C10103248101D8
:103D0800832441011301010267800000130101FEB1
:103D1800232E1100232C8100232A9100130405006F
:103D28002326310123244101B7590080232821018A
:103D3800375A0080EFF0CFB4B7540080EFF01FCEB1
:103D4800130A4AC523AC89D2938404D4938989D3AE
:103D580003240A0083A7090083A6040003A84400DB
:103D680013798500630C4401630A04000327840067
:103D780063DEE7043307F7402324E400B386D70063
:103D880013D7F74133070701B3B7F600B387E70046
:103D980023A0D40023A2F40023A00900EFF0DFD26F
:103DA80093050000EFD01FF0732909308320C1016B
:103DB8000324810183244101032901018329C100CE
:103DC800032A81001301010267800000B306D700AF
:103DD8009355F74133B6E600B38505013306B600BF
:103DE800B387E740232404001305040023A0D4006C
:103DF80023A2C40023A0F900EFF05FC373290930A0
:103E08008327C40013050400E7800700EFF01FC1F3
:083E18006FF01FF46780000049
:103E200000000000800E008000000000800E008076
:103E300000000000800E008000000000800E008066
:103E400000000000800E008000000000800E008056
:103E500000000000800E008000000000B01B008009
:103E600000000000800E008000000000800E008036
:103E700000000000800E008000000000800E008026
:103E800000000000800E008000000000800E008016
:103E900000000000800E008000000000800E008006
:103EA00000000000800E008000000000800E0080F6
:103EB00000000000800E008000000000800E0080E6
:103EC00000000000800E008000000000800E0080D6
:103ED00000000000800E008000000000800E0080C6
:103EE00000000000800E008000000000800E0080B6
:103EF00000000000800E008000000000800E0080A6
:103F000000000000800E008000000000800E008095
:103F100000000000800E008000000000800E008085
:103F200000000000800E008000000000800E008075
:103F300000000000800E008000000000800E008065
:103F400000000000800E008000000000800E008055
:103F500000000000800E008000000000800E008045
:103F600000000000800E008000000000800E008035
:103F70007C420080681B008000000000E846008052
:103F8000601C008000000000E0460080601F008090
:103F9000000000007C420080F4250080000000004A
:0C3FA0007C420080E4290080000000004A
:103FAC0000010202030303030404040404040404D4
:103FBC0005050505050505050505050505050505A5
:103FCC000606060606060606060606060606060685
:103FDC000606060606060606060606060606060675
:103FEC000707070707070707070707070707070755
:103FFC000707070707070707070707070707070745
:10400C000707070707070707070707070707070734
:10401C000707070707070707070707070707070724
:10402C000808080808080808080808080808080804
:10403C0008080808080808080808080808080808F4
:10404C0008080808080808080808080808080808E4
:10405C0008080808080808080808080808080808D4
:10406C0008080808080808080808080808080808C4
:10407C0008080808080808080808080808080808B4
:10408C0008080808080808080808080808080808A4
:10409C000808080808080808080808080808080894
:1040AC006D73675F72656365697665720000000009
:1040BC002F686F6D652F6D69616F752F70726F2F23
:1040CC0072697363762F7A65706879722F74657371
:1040DC0074732F6B65726E656C2F6D626F782F6DBC
:1040EC00626F785F75736167652F7372632F6D6193
:1040FC00696E2E63000000000A202020204173739B
:10410C00657274696F6E206661696C656420617498
:10411C002025733A25643A2025733A2025730A002A
:10412C006B5F6D626F785F67657428706D626F7816
:10413C002C20266D6D73672C207278646174612C51
:10414C00204B5F464F524556455229203D3D20306D
:10415C002069732066616C7365000000746573746C
:10416C005F6D73675F7265636569766572000000E9
:10417C006D73675F72656365697665725F756E6C8A
:10418C00696D697465640000746573745F6D626F4A
:10419C00780000006B5F6D626F785F6765742870E4
:1041AC006D626F782C20266D6D73672C207278648D
:1041BC006174612C204B5F4E4F5F5741495429204D
:1041CC003D3D20302069732074727565000000003D
:1041DC006B5F6D626F785F67657428706D626F7866
:1041EC002C20266D6D73672C207278646174612CA1
:1041FC002074696D656F757429203D3D20302069F0
:10420C00732066616C73650053656E64657220552E
:10421C004E4C494D495445440A000000580D00804D
:10422C00100E0080100E00804C0D0080580D008088
:10423C00F80D0080040E0080AC440080CC4400805B
:10424C00E8440080FC440080084500802045008044
:10425C00756E6B6E6F776E00457863657074696F01
:10426C006E20636175736520257320282564290AE7
:10427C00000000002A2A2A2A204B65726E656C20E9
:10428C00416C6C6F636174696F6E204661696C750B
:10429C00726521202A2A2A2A0A0000002A2A2A2AA0
:1042AC002A204B65726E656C204F4F505321202A8B
:1042BC002A2A2A2A0A0000002A2A2A2A2A204B659E
:1042CC00726E656C2050616E696321202A2A2A2A3D
:1042DC002A0A00002A2A2A2A20556E6B6E6F776EE6
:1042EC0020466174616C204572726F7220256421C6
:1042FC00202A2A2A2A0A000043757272656E7420DD
:10430C00746872656164204944203D2025700A461A
:10431C0061756C74696E6720696E73747275637401
:10432C00696F6E2061646472657373203D20307810
:10433C0025780A202072613A203078257820206771
:10434C00703A2030782578202074703A2030782507
:10435C0078202074303A20307825780A2020743167
:10436C003A2030782578202074323A20307825781D
:10437C00202074333A2030782578202074343A2069
:10438C00307825780A202074353A2030782578202A
:10439C002074363A2030782578202061303A20304D
:1043AC00782578202061313A20307825780A202031
:1043BC0061323A2030782578202061333A203078E9
:1043CC002578202061343A203078257820206135FA
:1043DC003A20307825780A202061363A203078252A
:1043EC0078202061373A20307825780A00000000C8
:1043FC0049535200657373656E7469616C207468FF
:10440C007265616400000000466174616C20666135
:10441C00756C7420696E20257321205370696E6E43
:10442C00696E672E2E2E0A00466174616C206661DF
:10443C00756C7420696E20746872656164202570D7
:10444C00212041626F7274696E672E0A00000000B1
:10445C00ADBAADDEADBAADDEADBAADDEADBAADDE88
:10446C00ADBAADDEADBAADDEADBAADDEADBAADDE78
:10447C00ADBAADDEADBAADDEADBAADDEADBAADDE68
:10448C00ADBAADDEADBAADDEADBAADDEADBAADDE58
:10449C00ADBAADDEADBAADDEADBAADDEADBAADDE48
:1044AC00496E737472756374696F6E2061646472A3
:1044BC00657373206D6973616C69676E6564000068
:1044CC00496E737472756374696F6E2041636365B2
:1044DC007373206661756C7400000000496C6C6528
:1044EC0067616C20696E737472756374696F6E00AA
:1044FC00427265616B706F696E7400004C6F616421
:10450C002061646472657373206D6973616C696793
:10451C006E6564004C6F6164206163636573732026
:10452C006661756C7400000053707572696F7573F9
:10453C0020696E746572727570742064657465633D
:10454C0074656421204952513A2025640A00000008
:10455C002F686F6D652F6D69616F752F70726F2F7E
:10456C0072697363762F7A65706879722F617263E2
:10457C00682F726973637633322F636F72652F7491
:10458C0068726561642E6300282828287072696F30
:10459C00726974792929203D3D2031352026262049
:1045AC005F69735F69646C655F74687265616428C8
:1045BC00287468726561645F66756E6329292920A9
:1045CC007C7C20285F69735F7072696F5F686967B4
:1045DC006865725F6F725F657175616C28282870F1
:1045EC0072696F7269747929292C20283135202D34
:1045FC0020312929202626205F69735F7072696F2C
:10460C005F6C6F7765725F6F725F657175616C2837
:10461C0028287072696F7269747929292C202828CE
:10462C002D313629292929290000000041535345F1
:10463C005254494F4E204641494C205B25735D2016
:10464C00402025733A25640A0000000009696E7643
:10465C00616C6964207072696F72697479202825A5
:10466C0064293B20616C6C6F7765642072616E67A6
:10467C00653A20256420746F2025640A0000000030
:10468C002F686F6D652F6D69616F752F70726F2F4D
:10469C0072697363762F7A65706879722F6C6962B0
:1046AC002F6D656D706F6F6C2F6D656D706F6F6CAE
:1046BC002E630000626C6F636B5F666974732870A5
:1046CC002C20626C6F636B2C206C737A29000000B9
:1046DC00090A000075617274300000007379735F11
:1046EC00636C6F636B000000581F0080341F0080E8
:1046FC00000000000000000000000000FC470080EB
:10470C00044800808847008052756E6E696E672081
:10471C00746573742073756974652025730A0000C1
:10472C003D3D3D3D3D3D3D3D3D3D3D3D3D3D3D3DAD
:10473C003D3D3D3D3D3D3D3D3D3D3D3D3D3D3D3D9D
:10474C003D3D3D3D3D3D3D3D3D3D3D3D3D3D3D3D8D
:10475C003D3D3D3D3D3D3D3D3D3D3D3D3D3D3D3D7D
:10476C003D3D3D0A000000007374617274696E6710
:10477C002074657374202D2025730A00534B495007
:10478C00000000002573202D2025730A0000000076
:10479C005465737420737569746520257320666184
:1047AC00696C65642E0A0000546573742073756916
:1047BC007465202573207375636365656465640A8D
:1047CC00000000004641494C4544000050524F4AFD
:1047DC0045435420455845435554494F4E20257365
:1047EC000A0000005355434345535346554C0000B3
:1047FC0050415353000000004641494C000000005A
:10480C00644C0080944C0080A04C0080A04C008034
:10481C00A04C00806D61696E0000000069646C65DD
:10482C00000000002A2A2A2A2A20426F6F74696E1F
:10483C0067205A6570687972204F53207A657068CA
:10484C0079722D76312E31332E302D333032302D8E
:10485C006733376633373434202A2A2A2A2A0A0047
:10486C00746872656164203D3D205F6B65726E6596
:10487C006C2E63757272656E74207C7C205F69731C
:10488C005F7468726561645F64756D6D79287468B6
:10489C007265616429000000215F69735F69646C53
:1048AC00652874687265616429000000746872651B
:1048BC0061642D3E626173652E70656E6465645F24
:1048CC006F6E00002F686F6D652F6D69616F752FAE
:1048DC0070726F2F72697363762F7A657068797254
:1048EC002F6B65726E656C2F696E636C7564652FCA
:1048FC006B73636865642E680000000021285F6B91
:10490C0065726E656C2E6E657374656420213D2036
:10491C00305529005F6B65726E656C2E6375727213
:10492C00656E742D3E626173652E73636865645F9A
:10493C006C6F636B656420213D2031002F686F6DB7
:10494C00652F6D69616F752F70726F2F726973634C
:10495C00762F7A65706879722F6B65726E656C2F25
:10496C0073636865642E63005F6B65726E656C2E95
:10497C0063757272656E742D3E626173652E73631E
:10498C006865645F6C6F636B656420213D2030004B
:10499C002F686F6D652F6D69616F752F70726F2F3A
:1049AC0072697363762F7A65706879722F6B657292
:1049BC006E656C2F73656D2E630000006C696D69FC
:1049CC007420213D20305500096C696D6974206399
:1049DC00616E6E6F74206265207A65726F0A0000DA
:1049EC00696E697469616C5F636F756E74203C3DB0
:1049FC00206C696D6974000009636F756E742063B7
:104A0C00616E6E6F74206265206772656174657289
:104A1C00207468616E206C696D69740A0000000076
:104A2C002828285F6B65726E656C2E6E65737465D5
:104A3C006420213D20305529203D3D203029207C0B
:104A4C007C202874696D656F7574203D3D2030297C
:104A5C0029000000737461636B2D3E6E65787420C1
:104A6C00213D20737461636B2D3E746F70000000E8
:104A7C0009737461636B2069732066756C6C0A0032
:104A8C002F686F6D652F6D69616F752F70726F2F49
:104A9C0072697363762F7A65706879722F6B6572A1
:104AAC006E656C2F737461636B2E63005F77616945
:104ABC0074715F686561642826737461636B2D3E45
:104ACC00776169745F7129203D3D202828766F69D4
:104ADC0064202A29302900002F686F6D652F6D69BD
:104AEC00616F752F70726F2F72697363762F7A6591
:104AFC00706879722F6B65726E656C2F7468726555
:104B0C0061642E630000000009546872656164736F
:104B1C00206D6179206E6F7420626520637265610F
:104B2C0074656420696E20495352730A00000000BA
:104B3C002F686F6D652F6D69616F752F70726F2F98
:104B4C0072697363762F7A65706879722F6B6572F0
:104B5C006E656C2F7468726561645F61626F7274EC
:104B6C002E630000287468726561642D3E62617367
:104B7C00652E757365725F6F7074696F6E73202626
:104B8C0020282831554C203C3C2028302929292923
:104B9C00203D3D203000000009657373656E74691B
:104BAC00616C207468726561642061626F727465F7
:104BBC00640A00002F686F6D652F6D69616F752F2A
:104BCC0070726F2F72697363762F7A657068797261
:104BDC002F6B65726E656C2F74696D656F75742EB5
:104BEC0063000000746F2D3E647469636B73203C2A
:104BFC0020300000742D3E647469636B73203E3D5D
:044C0C002030000054
:104C100068410080280B008024090080240900805E
:104C2000000000007C410080500A008024090080C0
:104C300024090080000000000000000000000000C7
:104C4000000000000000000000000000E8140080E8
:104C500003000000544C0080544C0080F5FFFFFF1F
:044C6000084F008079
:104C6400943F00800000000000000000A03F00808E
:104C74000000000000000000883F0080F44600802F
:104C840000000000703F00800000000000000000F1
:0C4C94007C3F00800000000000000000D9
:104CA000484D00804000000001000200C84D008017
:104CB000010000000000000000000000884D00809E
:104CC0004000000001000200E04D008001000000F3
:084CD0000000000000000000DC
:104CD800D84C0080D84C0080000000000000000084
:044CE8000F000000B9
:104CEC00EC4C0080EC4C0080206200802062008044
:084CFC00486200800000000086
:040000058000000077
:00000001FF
