:0200000480007A
:100000009702000093820201739052306F104028D3
:10001000130101FB2320110023223100232441007E
:100020002326510023286100232A7100232CC101BB
:10003000232ED1012320E1032322F1032324A10253
:100040002326B1022328C102232AD102232CE10254
:10005000232EF1022320010523221105F32210345F
:1000600023245104F322003023265104EF00001F03
:1000700013030000631E0502F3222034B70300803F
:100080009383F3FFB3F272001303B000638A62003C
:100090001305010097000000938040136F10C012F9
:1000A0008322810493824200232451046F000009BB
:1000B00093020100975300009383435303A143002D
:1000C000130101FF2320510003AE0300130E1E0095
:1000D00023A0C30163080300970000009380C003BE
:1000E0006F10401773252034B70200809382F2FF0F
:1000F00033755500EF00801597420000938202D4BB
:1001000013153500B382A20003A5020003A3420029
:10011000E7000300175300001303434D832303003C
:100120009383F3FF232073008322010013810200D5
:1001300083238300032E030263087E089752000086
:100140009382C24A03A382002326830223289302B8
:10015000232A2303232C3303232E43032320530575
:10016000232263052324730523268305232893056F
:10017000232AA305232CB30523242302975300002D
:10018000938343DF03AE03002326C30703A30202C6
:1001900023A46200032183020324C30283240303F4
:1001A0000329430383298303032AC303832A030404
:1001B000032B4304832B8304032CC304832C0305E8
:1001C000032D4305832D830583228104739012340C
:1001D0008322C104739002308320010083214100F7
:1001E000032281008322C1000323010183234101F3
:1001F000032E8101832EC101032F0102832F4102AF
:10020000032581028325C1020326010383264103BE
:10021000032781038327C1030328010483284104A2
:100220001301010573002030730000009752000095
:100230009382C23B03A382008323C3061375850008
:10024000F3220530138503006780000013031000BC
:10025000B312A30073B3423467800000F32220344A
:1002600037030080B3F262001305000063840200CC
:08027000130515006780000072
:10027800938705001308060013870600130305007B
:1002880063960628974800009388C8D463F6C50E7D
:10029800370701006378E60C1307F00F3337C70000
:1002A80013173700B356E600B388D80083C6080092
:1002B8003387E60093060002B386E640638C0600A7
:1002C800B397D7003357E5003318D600B365F70066
:1002D8003313D5001355080133F7A5021316080187
:1002E8001356060193560301B3D5A5021317070148
:1002F800B366D700B307B6021387050063FEF6009E
:10030800B38606011387F5FF63E8060163F6F60076
:100318001387E5FFB3860601B386F640B3F7A60256
:100328001313030113530301B3D6A60293970701CE
:1003380033E36700B305D60213850600637CB30078
:10034800330368001385F6FF636603016374B30023
:100358001385E6FF131707013367A700930500000D
:100368006F00400EB706000113070001E36CD6F2D8
:10037800130780016FF01FF3631606009306100041
:1003880033D8C602B70601006372D80C9306F00F83
:1003980063F4060113078000B356E800B388D80059
:1003A80083C60800B386E600130700023307D74068
:1003B8006318070AB387074193051000135608010D
:1003C8009318080193D808019356030133F7C7021D
:1003D800B3D7C70213170701B366D7003385F802EE
:1003E8001387070063FEA600B38606011387F7FF8D
:1003F80063E8060163F6A6001387E7FFB3860601E4
:10040800B386A640B3F7C6021313030113530301BF
:10041800B3D6C6029397070133E36700B388D802BF
:1004280013850600637C1301330368001385F6FF08
:1004380063660301637413011385E6FF131707014D
:100448003367A7001305070067800000B70600019F
:1004580013070001E362D8F4130780016FF0DFF39C
:100468003318E800B3D5D7003313E500B356D500E9
:1004780013550801B397E70033F7A502B3E8F60070
:100488009317080193D7070113D60801B3D5A5021E
:10049800131707013367C700B386B7021386050031
:1004A800637ED700330707011386F5FF63680701EA
:1004B8006376D7001386E5FF33070701B306D740F5
:1004C80033F7A6029398080193D80801B3D6A60279
:1004D80013170701B385D702B367170113870600FF
:1004E80063FEB700B38707011387F6FF63E80701C8
:1004F80063F6B7001387E6FFB3870701B387B740F2
:1005080093150601B3E5E5006FF05FEB63E6D518D8
:100518003707010063F4E6041308F00F3337D800F7
:100528001317370033D8E60097450000938585AA4E
:10053800B385050103C80500930500023308E800E8
:10054800B38505416396050213071000E3ECF6EE48
:100558003335C500134715006FF0DFEEB70500010E
:1005680013070001E3E0B6FC130780016FF09FFB5F
:1005780033570601B396B600B366D70093DE06017B
:1005880033D70701B378D703B397B70033580501BA
:100598003363F8009397060193D7070113580301B3
:1005A8003316B6003357D7039398080133E8080188
:1005B800338FE702130E0700637EE8013308D80083
:1005C800130EF7FF6368D8006376E801130EE7FFA0
:1005D8003308D8003308E841B378D8033358D80330
:1005E80093980801B38E07039317030193D7070164
:1005F800B3E7F8001307080063FED701B387D700F5
:100608001307F8FF63E8D70063F6D7011307E8FF7D
:10061800B387D700131E0E01B387D741B70E010069
:100628003367EE001388FEFF337307019358070101
:100638003378060113560601330E03033388080383
:1006480093560E013303C30233030301B3866600D6
:10065800B388C80263F40601B388D80113D606012B
:10066800B308160163E61703E39A17CFB70701002B
:100678009387F7FFB3F6F60093960601337EFE00E4
:100688003315B500B386C60193050000E37CD5DABF
:100698001307F7FF6FF09FCC9305000013070000C6
:1006A8006FF05FDA678000006F20103737150000A1
:1006B800130101FF1305C5DA232611002324810045
:1006C800EFF09FFE375400809305803E1305841198
:1006D800EF109074930750FF6306F50437460080C7
:1006E800B745008037450080B757008013071000D2
:1006F800938545501305C550930620051306860DAE
:1007080023A0E714EF10803C930584110324810093
:100718008320C100374500801305C551130101012D
:100728006F10C03A8320C100032481001301010126
:1007380067800000130101FF23229100B714000015
:100748001385449C2326110023248100EFF0DFF554
:1007580037540080938584BB13054410EF10D06B89
:10076800930750FF6308F50437460080B7450080BB
:1007780037450080B7570080130710009385455010
:100788001305C550930610091306060F23A0E71496
:10079800EF10C03393054410032481008320C10067
:1007A80083244100374500801305C5511301010119
:1007B8006F10C0318320C1000324810083244100CD
:1007C800130101016780000037150000130101FFC4
:1007D800130565EA2324810023261100375400807D
:1007E800EFF09FEC9305007D13058411EF10D062A4
:1007F8006306050437460080B7450080374500800A
:10080800B757008013071000938545501305C5504E
:10081800930610071306460E23A0E714EF10002BCB
:1008280093058411032481008320C100374500808B
:1008380013050554130101016F1040291305841194
:10084800032481008320C100130101016F10506F40
:10085800130101FF1305C05D232481002326110025
:1008680037540080EFF05FE49305F0FF1305040FA1
:10087800EF10905A6306050437460080B74500809C
:1008880037450080B75700801307100093854550FF
:100898001305C5509306800A1306C60F23A0E71454
:1008A800EF10C0229305040F032481008320C100A8
:1008B8003745008013050554130101016F1000210D
:1008C8001305040F032481008320C10013010101D3
:1008D8006F101067130101FF1305401F2326110035
:1008E80023248100EFF05FDC37540080930500007B
:1008F8001305C40DEF105052930700FF6306F5046B
:1009080037460080B745008037450080B7570080DC
:1009180013071000938545501305C5509306200C06
:100928001306861023A0E714EF10401A37450080FD
:100938009305C40D1305C555032481008320C10008
:10094800130101016F1080189305F0FF1305C40D02
:10095800EF10904C6300050437460080B7450080CF
:1009680037450080B757008013071000938545501E
:100978001305C5509306A00C1306861023A0E71490
:10098800EF10C014374500809305C40D13050554B6
:100998006FF09FFA1305C40D032481008320C10062
:1009A800130101016F10D05937150000130101FF21
:1009B8001305C5DA2324810023261100375400804B
:1009C800EFF09FCE9305F0FF13054410EF10D044CD
:1009D8006308050437460080B74500803745008026
:1009E800B757008013071000938545501305C5506D
:1009F8009306000E1306461123A0E714EF10000D0E
:100A0800032481008320C100B7550080374500804A
:100A18009385050F13050554130101016F10000B91
:100A280013054410032481008320C1001301010130
:100A38006F101051130101FD232E1100232C81008A
:100A480023240103232611036318050413860600D3
:100A580013870500B7460080B745008037450080FA
:100A680093860612138407009385C51293078102A3
:100A7800130505172326F100EF1040058325C10053
:100A880013050400EF108001374500801305C56287
:100A9800EF10C003EF10C0578320C1010324810168
:100AA8001301010367800000130101F723261108D1
:100AB800232481082322910823202109232E31078A
:100AC80023286107232671072324810723229107FE
:100AD8002320A107232C4107232A5107EF20D00602
:100AE8009305A000EF20005BB7450080138485FBC9
:100AF80013060001938585FB13050104EF10C0322E
:100B0800B7570080938747102324F102B757008016
:100B18009387070F2326F102B75700809387C70DE5
:100B28001306000193050401130501052328F102AA
:100B3800EF10802F93078000B7450080374500806D
:100B4800232AF102232CF1029385C51F93079000F5
:100B580013054521232EF102EF0050773745008019
:100B680013058522B749008037490080374D00803A
:100B7800B74C0080EF009075130B000093840900B8
:100B880013040900930B0D00138C0C009307010448
:100B9800B387670103A8070093050000B75A0080D0
:100BA80013050800232E0101EF1010270328C101A7
:100BB800B7470080938707271387091293062011E8
:100BC8001306C9129305CD2813351500EFF09FE6DB
:100BD8001305803EEFF05FADEF200077EF20004B6C
:100BE80093070105B387670103A807009308050069
:100BF800B74700803305A840B74500809387072A88
:100C080013870912930670111306C9129385052CD0
:100C180013351500EFF01FE203A50A14374A0080C8
:100C280093874C60138709129306A0111306C91203
:100C380093050A2E13351500EFF0DFDF130B4B0079
:100C480093070001938A0A14E312FBF4EF20C06FA4
:100C5800EF20C04393050500374500801305C52FD5
:100C6800EF00D0661305803EEFF01FA4EF20C06DA3
:100C7800EF20C041130BA5FF133B1B00374D00802D
:100C880037480080B7470080138709121306C91236
:100C98009305CD35232EA1001308483213050B0008
:100CA8009387073393068012EFF0DFD88328C101BA
:100CB800B74C0080138709121306C9129305CD3566
:100CC8001308600093870C379306901213050B00E6
:100CD800EFF05FD63755008013058511EF105026C9
:100CE800EF208066EF20803A130B95FF133B1B0023
:100CF800374D008037480080B747008013870912B6
:100D08001306C912232EA1001308083913050B0076
:100D1800938787399306D0129305CD3BEFF09FD187
:100D28008328C101138709121306C91213050B0082
:100D38001308700093870C379306E0129305CD3B98
:100D4800EFF05FCF1305803EEFF01F969309000088
:100D5800374B00801309C000EF20005FEF200033FD
:100D680093074103B387370103A8070093080500D9
:100D7800138704123305A840930670131306C41290
:100D880093050B3D93870C3713351500EFF09FCA79
:100D980093078102B387370103A5070093894900A8
:100DA800EF10101A03A50A0093074C60138704126A
:100DB8009306A0131306C41293050A2E13351500C3
:100DC800EFF05FC7E39A29F9EF200058EF20002CD5
:100DD80093080500B7450080130565FF1308A000B8
:100DE80093870C37138704121306C4129306E01373
:100DF8009385053F13351500EFF0DFC31305803EDB
:100E0800EFF09F8A03A50A0093074C60138704122A
:100E18001306C4129306201493050A2E13351500E1
:100E2800EFF05FC13745008013058540EF00104A99
:100E380037590080930500001305C912EF10C07DD3
:100E4800B7470080138704121306C41293874742DA
:100E5800930690149385CB2813351500EFF09FBDAA
:100E6800930500001305C912EF10007BB7470080F7
:100E7800138704121306C4129385CB28938747441B
:100E88009306C01413351500EFF0DFBAB7160080CB
:100E9800B7550080375500809308C000130800003C
:100EA80093070000130700009386C6FC1306002072
:100EB8009385056223203101232201001305854112
:100EC800EF20C07513051000EFF00FFE1305C912CF
:100ED800EF1010071305C912EF10900693050000D4
:100EE8001305C912EF10407313050501B7470080B9
:100EF800B7450080138704121306C4129387074767
:100F0800930690159385854913351500EFF09FB228
:100F18009305803E1305C912EF100070B747008093
:100F2800138704121306C4129385CB289387474B63
:100F38009306C01513351500EFF0DFAF1305C9127E
:100F4800EF101000032481088320C108832441087E
:100F5800032901088329C107032A8107832A410736
:100F6800032B0107832BC106032C8106832C410622
:100F7800032D0106374500801305054E13010109AD
:100F88006F00D034130101FF23261100EF20C03B6E
:100F9800EF20803BEF20403BEF20003BEF20C03AA2
:100FA800EF20803AEF20403A8320C100B7550080F7
:100FB80037450080938585F31305C51E130101018C
:100FC8006F100008130101FF2324810037540080AB
:100FD8009305F0FF1305C41223261100EF10C06318
:100FE800630E050237460080B7450080374500800C
:100FF8001305C5509306A00213064658938545501D
:10100800EF00D02C032481008320C10037450080E5
:1010180013050559130101016F00502B1305401FDB
:10102800EF20801F1305C412032481008320C10010
:10103800130101016F10C070130101FF2326110075
:1010480023248100930760006304F502EF20805198
:1010580063040502EF20005163160504B7450080BC
:1010680093858578374500801305C579EF001026EC
:10107800EF00D0296FF0DFFFEF20C04FE31C05FC25
:10108800375400801304845E83258400374500802C
:101098001305C57BEF00902303258400EF20500142
:1010A8006FF01FFDB7450080938545786FF09FFB73
:1010B800130101FB23248104232291042326110414
:1010C80093076000930405001384050063E0A70EEE
:1010D80037470080931725001307075BB387E7009E
:1010E80083A70700678007003745008013058560E0
:1010F800EF00D01DEF2040258327440483280401F6
:101108000328C4002328F10283270404032744008A
:10111800832604002326F1028327C40303268404BC
:10112800930505002324F1028327840337450080B3
:101138001305C5682322F102832744032320F10203
:1011480083270403232EF1008327C402232CF100F4
:1011580083278402232AF100832744022328F100ED
:10116800832704022326F1008327C4012324F100E6
:10117800832784012322F100832744012320F100DF
:1011880083278400EF00901493050400138504005E
:10119800EFF09FEA37450080130505636FF05FF5B0
:1011A800374500801305C5646FF09FF4374500800C
:1011B8009385040013058566EF0050116FF09FF3C7
:1011C800130101FF232481002326110013040500C5
:1011D8007326203413161600135616009307500072
:1011E80063E8C70237470080931726001307C75CD8
:1011F800B307F70083A50700374500801305C55ED0
:10120800EF00D00C9305040013050000EFF05FEA2F
:10121800B74500809385455E6FF01FFE130101FFFF
:1012280023261100F32520343755008093951500A7
:1012380093D515001305C58BEF005009B7450080FD
:101248009385457E13054000EFF09FE6B757008071
:101258009387471403A70700630C070003A307003D
:1012680023A00700B757008003A587146700030071
:1012780067800000130101FF23261100EF104014BE
:10128800EF00D00AEF10801A1751000013010179FE
:10129800B71200009382028033015100EFF09FFDE6
:1012A8006F008011130101FD232481022322910282
:1012B80023202103232E31012326110293890600BE
:1012C8009306F00093040500138405001309060033
:1012D800639CD808B726008093860639639CD90892
:1012E8008326010393850800138504001306400034
:1012F800232601012324F1002322E100EF20805955
:1013080083278100930509FBB305B40023AE0404C9
:1013180023A0040693F505FF23A8F502B7270000CC
:10132800032741000328C1009387078823A6F504F3
:10133800B71700808320C102032481029387872A7C
:1013480023A4350323A6E50223AA050323A4F50451
:1013580023A4B40203290102832441028329C10181
:101368001301010367800000938608011306E0015A
:10137800E378D6F637560080B75500803755008099
:10138800930680011306468E9385C5911305059C27
:1013980023221101EF008073832841003755008014
:1013A800930600FF1306E000938508001305059EC9
:1013B800EF00C0716F000000130101FF93070500E3
:1013C80013850500930506001386060023261100E1
:1013D800E7800700EF105077EF20804D9307C0009B
:1013E8003387F5028327C500B387E7000307B500F5
:1013F8006354B70083A70700130700023347E602C8
:101408001375F60113172700B387E70023A0F6002A
:1014180067800000130101FE9306C100232E11000E
:10142800EFF0DFFB0327C100930710003395A700F7
:10143800832707008320C101B3E7A7002320F70013
:1014480013010102678000008327450003588500C7
:10145800130101FF232481003308F8021304050057
:10146800032505008348A4001307F0FF2326110075
:1014780023229100A305E400930500001303C00094
:1014880033050501130EF001930E000263C2150324
:10149800930400008357840063C4F4068320C100CA
:1014A80003248100832441001301010167800000A7
:1014B8003357F8020326C400B3866502B306D60084
:1014C8001386460023A2C60023A4C600634EEE007E
:1014D800A305B40093D727009387370093F7C7FF76
:1014E800938515006FF09FFA1307F7013347D70369
:1014F80023A0A600131727003305E5006FF09FFD12
:101508008327440013860400930500003387F40200
:10151800832704001305040093841400B387E700AD
:101528000327C4009306470023A0D700832687001B
:1015380023A2D7008326870023A0F6002324F700E0
:10154800EFF05FED6FF01FF51305000067800000F6
:1015580083A705009387170023A0F500B7570080DD
:1015680003A307F667000300130101FB232481048A
:10157800232E3103232C4103232A510323286103FB
:1015880023261104232291042320210523267103F5
:1015980023248103232291032320A103232EB101B5
:1015A800130A0500938A050093090600138B0600A9
:1015B800130410006354E00013040700930710009D
:1015C800130C00026314FB00130C0003B7D49A3BFE
:1015D80013091000930CA000130700009384F49FD4
:1015E800930D2000130DA000938B140063140700C3
:1015F80063F2340933D5790393850A001309190076
:1016080013050503E7000A0013071000938CFCFF7D
:1016180093071000B3F97903B3D4A403E396FCFC51
:1016280093850A0013850903E7000A009307300031
:1016380033042441630AFB068320C1040324810484
:1016480083244104032901048329C103032A810354
:10165800832A4103032B0103832BC102032C81023C
:10166800832C4102032D0102832DC10113010105C1
:1016780067800000E34C94F9E3EA6DF993850A006A
:1016880013050C002326E100E7000A0013091900DE
:101698000327C1006FF09FF793850A001305000226
:1016A800E7000A001304F4FFE34880FE6FF0DFF858
:1016B800B757008023A0A7F667800000130101FB3D
:1016C800232481042322910423202105232E31037E
:1016D800232C4103232A5103232861032322910346
:1016E800232EB10123261104232671032324810309
:1016F8002320A1031304050093840500130B06009F
:10170800938C0600130A00001309F0FF93090000E8
:10171800930D0000930A100003450B0063100504A5
:101728008320C10403248104832441040329010480
:101738008329C103032A8103832A4103032B01035D
:10174800832BC102032C8102832C4102032D010249
:10175800832DC1011301010567800000639E0D0000
:1017680093065002630AD53093850400E70004000D
:10177800130B1B006FF05FFA93064006630ED5103B
:1017880063E2A6069306900363EAA6029306100393
:101798006374D50E9306D002630AD52E930700030F
:1017A8006300F50C130750026312E50293850400E9
:1017B80013055002E70004006F000012930680052D
:1017C800630CD51613073006630CE52893850400CF
:1017D80013055002E70004009385040003450B003D
:1017E8006FF05FFD930600076308D51263E0A60259
:1017F800930690066302D50A9306C006630AD508C5
:1018080093068006E306D5F66FF05FFC9306500753
:101818006302D50E63EEA60213073007E318E5FA54
:10182800138C4C0083AC0C00938B0C0003C50B008D
:1018380063160520930730006398F900B38B9B412A
:10184800B30B794163447021930C0C006F00C008FE
:10185800930680076302D50E9306A0076FF09FFAE0
:10186800635E090063880922130905FDE39209F004
:10187800930920006FF0DFEFE34809FE9306A0000C
:101888003309D902130909FD330925016FF01FFE39
:10189800130A1A006FF0DFED63C44A0503A60C00B3
:1018A800938C4C0063500602938504001305D00204
:1018B8002324C100E7000400032681001309F9FF6F
:1018C8003306C04013070900938609009385040076
:1018D80013050400EFF05FC9930D00006FF05FE996
:1018E80093877C0013F787FF930C87000326070074
:1018F8006FF05FFB63C84A0103A60C00938C4C0091
:101908006FF05FFC93877C0013F787FF930C8700C9
:10191800032607006FF01FFB9385040013050003DF
:10192800E70004009385040013058007E70004001E
:10193800130980009309100063CA4A0983A70C00A1
:10194800938C4C002324F10013068000130C000034
:10195800130D00009305800083278100938BF5FF0A
:1019680013952B0033D5A7001375F50063120508EE
:101978009306000363140D00639655093385A6008A
:101988001315850193850400135585412326C1004D
:10199800E7000400130C1C000326C10063940B0429
:1019A80093063000930D0000E394D9DC1317190057
:1019B800330C8741E35280F393850400130500023A
:1019C800E7000400130CFCFF6FF0DFFE93877C0038
:1019D80093F687FF83A70600938C86002324F100E3
:1019E8006FF09FF6138D0D0093850B006FF0DFF6F7
:1019F8009307900093067005E3E2A7F893060003A7
:101A08006FF0DFF79307F6FF2326F100634AC9005A
:101A1800639C59019385040013050003E700040043
:101A28000326C1006FF05FFC93072000E39AF9FEDC
:101A380093850400130500026FF05FFE9385040090
:101A4800938B1B00E70004006FF05FDE93850400B2
:101A580013050002E7000400938BFBFF6FF09FDE85
:101A680003A50C00938B4C0093850400E700040049
:101A7800938C0B006FF05FE6130A00001309F0FF68
:101A880093090000930D10006FF09FCE930930006A
:101A98006FF01FCE930910006FF09FCD130101FE68
:101AA8001306050037150080938605001305855534
:101AB8009305C100232E110023260100EFF01FC05B
:101AC8008320C1011301010267800000130101FC9A
:101AD8002322B10293054102232E11002324C102BF
:101AE8002326D1022328E102232AF102232C010311
:101AF800232E11032326B100EFF05FFA8320C101E2
:101B080013010104678000006780000093078000CC
:101B1800F3A7073073005010678000009307100088
:101B28003395A70073254530678000009307800030
:101B3800F3B707307350403073504034678000006B
:101B4800130101FF232481002322910037540080D0
:101B5800232611009307A000930405001304C4145E
:101B6800631CF500032504009305D0008327450076
:101B780083A74700E78007000325040093F5F40FC7
:101B88008327450083A74700E78007008320C1001B
:101B980003248100138504008324410013010101FB
:101BA8006780000037250080130585B46FF05FB0AB
:101BB80037550080130101FF130545A123261100A5
:101BC800EF00C072B757008023A6A714EFF09FFD5F
:101BD8008320C10013050000130101016780000084
:101BE800B70710F003A747F403A507F483A547F444
:101BF800E39AE5FE67800000130101FE232C8100B3
:101C0800232E1100232A91002328210123263101A4
:101C18001304800073340430B7540080938404158F
:101C2800EFF01FFC03A9040083A944001307050073
:101C3800330525413337A700B385354137D6010031
:101C48001306064C93060000B385E540EFE04FE22B
:101C5800B7D701009387074CB387A7021374840092
:101C680033892701B337F900B387370123A024014B
:101C780023A2F40073240430032481018320C101CA
:101C880083244101032901018329C10013010102B1
:101C98006F10507D130101FF23261100EFF05FF450
:101CA800B7D701009387074C370710F0B307F50043
:101CB8009306F0FF2326D7F433B5A7003305B50004
:101CC8002324F7F42326A7F413057000EFF01FE58B
:101CD8008320C10013050000130101016780000083
:101CE800639C050C130101FF2324810023261100A6
:101CF800232291009307F0FF130405006316F500F3
:101D0800B79700001384E7BC93048000F3B4043051
:101D1800EFF01FED379700009307F4FF1307E7BCB8
:101D280093F484006354F7089307070037D701003A
:101D38009305074CB386B702B757008093870715FA
:101D480003A6070003A847009307F74BB387C740CC
:101D5800B387A7003305A6401307703EB387D700A3
:101D6800B3D7B702B387B7023305F5006344A700BA
:101D7800B387B700370710F03386C7009306F0FF24
:101D88002326D7F4B337F600B38707012324C7F413
:101D98002326F7F4F3A404308320C1000324810030
:101DA800832441001301010167800000E3D007F894
:101DB800930700006FF09FF767800000130101FF91
:101DC8002324810023261100130480007334043077
:101DD800EFF01FE1B757008083A70715137484003D
:101DE8003305F540B7D701009387074C3355F50203
:101DF800732404308320C1000324810013010101EE
:101E0800678000008347050003C705006394E70067
:101E1800639607003385E7406780000013051500C7
:101E2800938515006FF01FFEB347B50093F7370091
:101E3800638007069307050013070000631AE60688
:101E480067800000E30E06FE9385150003C7F5FFC3
:101E5800938717001306F6FFA38FE7FE13F73700E3
:101E6800E31207FE930630003308E64063E60603F4
:101E7800135726009306C0FFB306D702131727008F
:101E8800B387E700B385E5003306D6006FF0DFFAC5
:101E9800930705006FF09FFCB388E50083A808004E
:101EA8003388E70013074700232018016FF0DFFB92
:101EB8003388E50003480800B386E70013071700D6
:101EC800238006016FF09FF793F6F50F930705003F
:101ED80013F737006318070493F5F50F1397850078
:101EE800B365B70013970501B365B7003383C7001F
:101EF8001387070013083000B308E340636E180324
:101F08001357260093152700B387B7009305C0FF22
:101F18003307B7023307C7003387E7006394E70244
:101F280067800000E30E06FE93871700A38FD7FE95
:101F38001306F6FF6FF0DFF913074700232EB7FEED
:101F48006FF09FFB93871700A38FD7FE6FF01FFDDD
:101F5800130101FF232601008327C100938717007F
:101F68002326F100B70701F023A0B70013010101F0
:101F7800678000001305F0FF67800000130500006C
:101F880067800000130101FE232C81008327850050
:101F980037540080232A9100130444F6B754008074
:101FA800232E11002328210123263101938484152F
:101FB80093091000232004001309050023A034010D
:101FC800E78007008327490023203401E7800700C2
:101FD800930720002320F4008327C900E780070027
:101FE800930730002320F4000324810123A0040078
:101FF8008320C10183244101032901018329C100F0
:102008003755008013058548130101026F10403DC4
:1020180037550080130101FFB75700801307F0FF01
:10202800130585482326110023ACE714EF10403B25
:10203800EF1080318320C100130101016F10500798
:10204800130101FA232A9104B754008083A7C41509
:10205800232E1104232C810423282105232631054E
:10206800232441052322510523206105232E7103D2
:10207800232C8103232A91032328A1032326B103B8
:1020880063C407083754008013061000930905003D
:10209800138C05001305844893050000EF10802B6E
:1020A8003755008093850900130585A4EFF01FA21A
:1020B8003749008013058922B75A0080EFF01FA125
:1020C8009384C415130A0000232E8100B76C008086
:1020D800375B0080372D0080B75D0080B75B0080DC
:1020E800938ACAA383274C00639E0704938509003B
:1020F80063060A1037550080130545A7EFF01F9DAA
:102108009307100023A0F4008320C1050324810550
:1021180083244105032901058329C104032A810475
:10212800832A4104032B0104832BC103032C81035D
:10213800832C4103032D0103832DC10213010106E2
:102148006780000083250C00B7470080138547216E
:10215800EFF0DF972322010083270C0113070C00FF
:102168001306002093E787009308F0FF1308000088
:102178009306CDF82320F10093850C4293070000C5
:1021880013058B49EF1080498327C1019305F0FFA0
:1021980013858748EF10402D93878D1513058B49BC
:1021A80003A40700EF10C070B75700809387871506
:1021B80003A70700130414009307E0FF1334140067
:1021C80003260C006314F702B7550080938505A613
:1021D80013858BA6EFF09F8F13058922EFF01F8FD1
:1021E800330A8A00130C4C016FF0DFEF93172400B9
:1021F800B387FA0083A507006FF09FFD375500806D
:102208001305C5A8EFF09F8C83A70400B337F0002F
:102218006FF05FEFB757008083A7C715130101FF61
:10222800232481003745008023261100375400807D
:102238001305852263820702EFF05F89B755008096
:10224800938585AA130504AB032481008320C1006C
:10225800130101016FF09F87EFF05F87B75500808A
:10226800938585AC6FF01FFE130101FF2326110033
:10227800EFE05FD18320C100130101016FF09FF9E6
:1022880013172500B7570080130515009387C7ADAE
:1022980013152500130101FF3387E700B387A70053
:1022A80023248100232291000324070083A407002C
:1022B80023261100636C94008320C100032481004D
:1022C8008324410013010101678000008327040073
:1022D8001305040083A74700E7800700630405008F
:1022E800232204001304C4006FF0DFFC130101FF74
:1022F800B757008023229100B7540080232481001F
:1023080023261100138487F723202101938787F759
:10231800938484FA631C940013090500138407004E
:1023280063149402130400006F0040040327440060
:102338006308070003270400032707006308A702B0
:102348001304C4006FF01FFD832744006396070041
:102358001304C4006FF0DFFC832704001305090091
:1023680083A50700EFF01FAAE31405FE1305040078
:102378008320C10003248100832441000329010034
:102388001301010167800000130101FF232481006C
:1023980023229100232611001304800093042000B7
:1023A800F3370430EF10C06763C4A40013051000AE
:1023B80093051000EF109005EFF04FF56FF05FFEFA
:1023C80037550080B7570080130605149387476177
:1023D8003386C74093050000130505146FF0DFAE80
:1023E800130101FF1305200023261100EFF05FE918
:1023F80037550080130505B0EFF04FED1305300099
:10240800EFF01FE8EF108033EFF01FE6B7570080BA
:102418009387875703C7C7001377E7FF2386E7002B
:102428008320C1001301010167800000130101F638
:10243800232A91089304010113060007930500005D
:1024480013850400232E1108232C81082328210931
:1024580023263109EFF05FA737540080B777008053
:102468009309845E938707221305000023A2F900CD
:10247800EFF01FE113051000EFF09FE09307101035
:1024880023A49900231EF100EF00503EB7570080A7
:10249800938707AF375900802322F100B7260080C1
:1024A80093071000B7650080930489572320F10033
:1024B80013070000930700009308A000130800000A
:1024C8009386863E13060020938505621305895777
:1024D80023A09902EF10C01083C7D4001304845EB0
:1024E80013F7B7FFA386E40093F7B701639C0700CF
:1024F80003A704029307F0FF6316F7001305895733
:10250800EF004068B7570080938787AF2322F10018
:102518003755008093071000B7260080B7750080F4
:10252800930485502320F1009308F000130800005D
:10253800930700001307000093860639130600204E
:102548009385058213058550EF10800983C7D40051
:10255800232694001305800093F7B7FFA386F400A1
:10256800B757008093870760232CF400232EF400CC
:102578007335053013758500EFD09FCAB7570080B3
:1025880003A7875E130101FF23261100630A0702D0
:1025980037560080B7550080375500801305059CD5
:1025A8009306200F130606BA938585BDEFF00FD268
:1025B80037550080130505BFEFF04FD16F000000BD
:1025C8009387875E03A78700930610008347F70069
:1025D800639AD70237560080B75500803755008078
:1025E8001305059C9306300F130606BA938545BF5D
:1025F800EFF0CFCD37550080130505BFEFF00FCDB5
:102608006F0000009387F7FFA307F7008320C1003E
:102618001301010167800000130101FF23248100D9
:1026280023202101130405002326110023229100F1
:1026380013890500EFF09FF40327C400B757008003
:102648009387875E630A07020326840083A68700B0
:102658006308D604631A0904EF00003C130500FF61
:102668008320C10003248100832441000329010041
:10267800130101016780000083A687008386E600B6
:1026880083A78700130717002328D4002326E40014
:102698002324F400EF004038130500006FF05FFCBE
:1026A800832604016FF0DFFD8307E6008385E600DB
:1026B80063D4B7009385070063D405009305000031
:1026C80093048000F3B404300325840093F4840059
:1026D8008307E50063D4F500EF00100C130609002A
:1026E8009305040013850400EF001008E30405FABD
:1026F8008327040083250401630EF400638C07001C
:102708008387E70063D4B7009385070063D4050087
:102718009305000093048000F3B40430032584007B
:1027280093F484008307E5006384F500EF00D00686
:10273800F3A40430EF00402E130550FF6FF05FF252
:102748008327C500130101FF2326110023248100DC
:102758002322910023202101639A07023756008023
:10276800B7550080375500801305059C9306600D0A
:102778001306C6B3938585B6EFF04FB5375500807D
:10278800130505BFEFF08FB46F000000B757008046
:102798000327850083A7075F13040500630AF70270
:1027A80037560080B7550080375500801305059CC3
:1027B8009306700D1306C6B3938505B8EFF00FB1F5
:1027C80037550080130505BFEFF04FB06F000000CC
:1027D800EFF0DFDA8327C400130710006382E702F3
:1027E8009387F7FF2326F400032481008320C10088
:1027F8008324410003290100130101016F00C02156
:1028080093048000F3B40430032584008325040175
:1028180093F484008307E5006384F500EF00C07734
:1028280013050400EF00004F2324A400130905003A
:10283800630C05028347D50093F7F701639A0700F5
:10284800032705029307F0FF6314F700EF008033B6
:10285800F3A704308307E900232609062328F40098
:10286800F3A404306FF05FF8232604006FF05FFFD5
:10287800130101FF23261100EFF04FD4B757008052
:1028880083A747168320C100375700803385A700E8
:10289800232CA75E9305000013850700130101018F
:1028A8006F10C03613058000733505301375850029
:1028B80067800000130101FF232481003754008042
:1028C8009307845E2322910083A4470223261100E4
:1028D800938747021304845E6384F40063940400BE
:1028E8008324C400832784006318050463860704CF
:1028F80003C7D7001377F7016310070483A60702FD
:102908001307F0FF639AE60283D6E7001307F00780
:102918006374D70237570080032747F7638EE700B1
:102928002320F4028320C100032481008324410072
:10293800130101016780000063849700EFF05FF3E3
:10294800232094026FF01FFE130101FE232E1100B5
:10295800232C81002326B10013040500EFF09FF417
:10296800B757008023AC075E130494009307A000B8
:102978003344F4028325C100B75700802324A10003
:1029880023A28716B757008023A0B716EFF05FEE93
:102998000325810013758500732505308320C10147
:1029A800032481011301010267800000130101FF64
:1029B800232481002326110013040500EFF09FEE65
:1029C80093070500032504006314A4001305000001
:1029D80093F78700F3A707308320C1000324810001
:1029E8001301010167800000B75700809387875E55
:1029F80083A6070013070500639A060083A68700CD
:102A080083A707026384F6006FD09F81137787003E
:102A18007327073067800000130101FF232481001A
:102A2800375400801304845E832784002326110012
:102A38002322910083C7F700639A07023756008064
:102A4800B7550080375500801305059C9306701D07
:102A5800130646CF938505D2EFF04F873755008090
:102A6800130505BFEFF08F866F0000008327040071
:102A7800638A070237560080B755008037550080B3
:102A88001305059C9306801D130646CF938585BDC7
:102A9800EFF0CF8337550080130505BFEFF00F83A4
:102AA8006F000000EFF01FE0032784009304050087
:102AB800130510008347F70093F4840093871700E9
:102AC800A307F700EFF01FDFF3A40430130580001D
:102AD80073350530032481008320C100832441001D
:102AE80013758500130101016FF01FF0B7570080BF
:102AF80083A747F76398F50237560080B7550080DB
:102B080037550080130101FF9306D021130646CFE5
:102B1800938585CC1305059C23261100EFE01FFB48
:102B28006F000000832705006310F5028327450026
:102B380023A0A50023A2F5008327450023A0B70002
:102B48002322B50067800000E38207FE0387E500C3
:102B58008386E700635ED70003A7470023A0F5003C
:102B680023A2E5002320B70023A2B7006780000056
:102B780083264500E38CD7FA83A70700E39A07FC6E
:102B88006FF0DFFA130101FF2326110023248100CF
:102B98002322910093040500EFF0DFD01304050011
:102BA80037550080938504001305C560EFF01FF4C6
:102BB80083C7D400130500001374840093E7070447
:102BC800A386F400EFF01FCF732404308320C100E4
:102BD8000324810083244100130101016780000060
:102BE8008347D50093F7F701639A07000327050287
:102BF8009307F0FF6314F7006FF0DFF867800000B9
:102C0800B757008083A747F76398F50237560080C7
:102C1800B755008037550080130101FF9306C02285
:102C2800130646CF938585CC1305059C23261100F2
:102C3800EFE0DFE96F00000003A7450083A7050068
:102C48002320F70023A2E70067800000130101FF9B
:102C58002324810023229100130405002326110058
:102C6800EFF05FC493040500032584006314050294
:102C780037560080B75500803755008093061015E9
:102C8800130646CF9385C5CD1305059CEFE01FE4D9
:102C98006F00000093050400EFF09FF68347D4000F
:102CA80093F4840093F7D7FFA306F400F3A4043049
:102CB800232404008320C1000324810083244100CD
:102CC8001301010167800000832705FF130101FF3D
:102CD80023248100232291002326110013040500D8
:102CE800930485FE6386070013850400EFF01FF642
:102CF800834754FF8320C1001385040093F7B7FF6F
:102D0800A30AF4FE03248100832441001301010176
:102D18006FF01FED130101FF9305000023248100CC
:102D280023261100EFF09FC813040500630805006F
:102D3800EFF0DFF113058401EF005049130504009B
:102D48008320C10003248100130101016780000072
:102D5800130101FE23282101375900801309895ED8
:102D6800232E1100232C8100232A910023263101D0
:102D78001304050093094902EFF0DFB2930504003C
:102D88009304050013850900EFF09FE793050400FD
:102D980013850900EFF09FD58347D40003258900E8
:102DA80093F4840093E7070433058540A306F400F1
:102DB80013351500EFF01FB0F3A404308320C101D0
:102DC8000324810183244101032901018329C100CE
:102DD8001301010267800000B757008083A74716D8
:102DE80063880706B75700809387875E03A7870025
:102DF8009306F0070356E70063ECC604B756008055
:102E08000306E70083A606166344D604B756008077
:102E180083A646F7630ED702032607029306F0FF40
:102E28006318D60283A607016340D502130101FF88
:102E38001305070023261100EFF09FF18320C1003E
:102E4800130101016FF0DFA2B386A64023A8D700C3
:102E580067800000130101FF2324810023229100D1
:102E6800130405002326110023202101EFF09FA35E
:102E78008347D4009304050093F70704638A070285
:102E8800375900801309895E130549029305040028
:102E9800EFF01FD78347D4000325890093F7F7FB8A
:102EA80033058540A306F40013351500EFF09FA005
:102EB80093F48400F3A404308320C1000324810028
:102EC80083244100032901001301010167800000E8
:102ED800130101FF232481002322910023202101D3
:102EE8009304050023261100138905001304060026
:102EF800EFF05FF683C7D40093E72700A386F400BA
:102F0800630A090023A4240193850400130509001A
:102F1800EFF0DFBD9307F0FF630CF4021306940093
:102F28001304A00033468602032481008320C100D5
:102F3800032901001385840183244100B7350080EB
:102F4800938505CD13010101130616006F00503754
:102F58008320C10003248100832441000329010048
:102F68001301010167800000130101FFB7570080BA
:102F7800232481001304050003A5075F23261100FD
:102F8800EFF01FF513050400032481008320C1001E
:102F9800130101016FD0CFA8130101FE232C81007A
:102FA800232A910023282101130405001389050011
:102FB800232E110023263101EFF0DF8E8347D40042
:102FC800131989019304050093F7F70113598941EF
:102FD800639A0706032704029307F0FF6314F706B2
:102FE800B75900809389C9609305040013850900C7
:102FF800EFF01FC19305040013850900230724017E
:10300800EFF0DFAE13051000EFF0DF8A9307100032
:1030180093F48400F3A40430638C07021305800042
:1030280073350530032481018320C10183244101C4
:10303800032901018329C1001375850013010102C9
:103048006FF09F9A23072401930700006FF05FFC3D
:103058008320C10103248101832441010329010143
:103068008329C1001301010267800000B75700805F
:103078009387875E1387470223A2E70223A4E70208
:1030880093050000130500006FF01F8C0305E50091
:1030980067800000130101FF23261100232481000B
:1030A800138705019307E00163F2E7041384050021
:1030B80037560080B7550080375500809306D02CCE
:1030C800130646CF938505C31305059CEFE01FA0A3
:1030D80037550080930600FF1306E00093050400AF
:1030E8001305059EEFE09F9E6F000000B757008014
:1030F80083A7875E638A070237560080B75500802A
:10310800375500801305059C9306E02C130646CF1F
:10311800938585BDEFE09F9B37550080130505BF5C
:10312800EFE0DF9A6F000000032481008320C100D4
:10313800130101016FF05FE6130101FF23248100F1
:10314800375400808327845E2326110023229100B0
:1031580023202101638A070237560080B755008073
:10316800375500801305059C93066030130646CF3B
:10317800938585BDEFE09F9537550080130505BF02
:10318800EFE0DF946F0000001304845EB7570080FF
:103198000327840083A747F7630CF702EFF08FF04B
:1031A80083258400130944029304050013050900CC
:1031B800EFF01FA5832584001305090093F484000C
:1031C800EFF0DF9213051000EFF0CFEEF3A4043018
:1031D80003278400832704026304F7021305800091
:1031E80073350530032481008320C1008324410006
:1031F8000329010013758500130101016FD04F8267
:103208008320C10003248100832441000329010095
:103218001301010167800000130101FD2320210330
:10322800375900801309895E832709002326110274
:103238002324810223229102232E3101638A07026B
:1032480037560080B7550080375500801305059C18
:1032580093064032130646CF938585BDEFE01F875E
:1032680037550080130505BFEFE05F866F0000004B
:103278009307F0FF631AF50237560080B7550080B0
:10328800375500801305059C93065032130646CF28
:103298009385C5C1EFE09F8337550080130505BFAF
:1032A800EFE0DF826F000000631605022326A1000D
:1032B800EFF09FE80325C1008320C10203248102A7
:1032C80083244102032901028329C1011301010357
:1032D80067800000130495001305A0003344A4027E
:1032E800EF00D02D9309800013041400B304A40048
:1032F800F3B9093003258900EFF0DFB5032589000C
:10330800B735008013060400938505CD13058501A4
:10331800EF00007B13F58900EFC09FF0EF00102A43
:10332800B384A44013050000E35890F81305803EC9
:10333800B395A40213064006930600003385A40241
:10334800EFC01FF36FF05FF7B757008003A5075F63
:1033580067800000130101FF23261100631A06028B
:1033680037560080B7550080375500801305059CF7
:103378009306D003130686D4938545D7EFE00FF55F
:1033880037550080130505D8EFE04FF46F000000B3
:10339800637AB60237560080B755008037550080EB
:1033A8001305059C9306E003130686D4938585D9F7
:1033B800EFE0CFF137550080130505DBEFE00FF1A3
:1033C8006F0000008320C1002324B5002326C50018
:1033D8002320A5002322A500130101016780000016
:1033E800130101FF2324810023202101232611003A
:1033F800232291001309050013048000733404305C
:1034080013748400EFF01F91630205048347D5000D
:103418009304050093F7F701639A07000327050251
:103428009307F0FF6314F700EFF0CFF523A6040627
:1034380013050400032481008320C1008324410074
:1034480003290100130101016FF00FDA0327890036
:103458008327C900B387E740B337F000B387E70095
:103468002324F9006FF0DFFCB757008083A7875E3D
:103478001386050063800704638E050237560080B3
:10348800B755008037550080130101FF1305059CCF
:1034980093063008130686D4938585DD232611000C
:1034A800EFE0CFE237550080130505BFEFE00FE2EC
:1034B8006F00000093078000F3B7073003278500EB
:1034C80093F78700630C07001307F7FF2324E50031
:1034D800F3A7073013050000678000006318060093
:1034E800F3A70730130500FF678000009305050068
:1034F800138507006FF05FA7130101FF23248100E4
:1035080023261100130480007334043013869500B9
:103518009305A0003346B602B7350080938505CDE4
:10352800130585011374840013061600EF00405933
:10353800732404308320C100032481001301010196
:10354800678000008347D50093F7F701639A070067
:10355800032705029307F0FF6314F7006FF08FE26B
:1035680067800000B757008003A5875E3335A00049
:1035780067800000B757008083A7075F03C5C700AF
:103588001375150067800000130101FF23248100D3
:103598002326110013048000733404300347D50038
:1035A8001374840093764700639C060073240430E8
:1035B8008320C100032481001301010167800000FA
:1035C8001377B7FFA306E500EFF0DFF71305040054
:1035D800032481008320C100130101016FF0CFC0D3
:1035E800130101FE03230102232C8100232E110065
:1035F8002320610013040500EFD0DFCAB75700800D
:1036080083A7075F8320C10183A787062324F406C5
:1036180003248101130101026780000037530080F1
:103628000323835E130101FE232A9100232E110038
:10363800232C810083244102630A03023756008049
:10364800B7550080375500801305059C9306801AEE
:103658001306C6E0938585BDEFE04FC73755008058
:103668001305C5E3EFE08FC66F00000003230102D6
:10367800232201001304050023206100EFF05FF608
:103688009307F0FF6388F4006392040213050400B3
:10369800EFF09FEF130504008320C101032481018B
:1036A800832441011301010267800000938504000F
:1036B80013050400EFF05FE46FF0DFFD83270506D4
:1036C800130101FF232481002326110013040500A0
:1036D80063840700E78007008347D40013F7F701E6
:1036E800631A0702832604021307F0FF6394E602B5
:1036F80013050400EFF00FF68347D4008320C100C0
:1037080093E78700A306F400032481001301010155
:103718006780000093F727006386070013050400FD
:10372800EFF0CFD2032704029307F0FFE306F7FC7C
:1037380013058401EF0080296FF01FFC130101FDC0
:10374800B7570080232E3101B75900802324810206
:10375800232291022326110223202103138487FAAE
:10376800938487FA9389890C63603405B75700807E
:1037780003A7875E630C070637560080B75500809D
:10378800375500801305059C9306200F130606BACB
:10379800938585BDEFE08FB337550080130505BFCE
:1037A800EFE0CFB26F0000008327C4022322F100AC
:1037B800832704022320F100832744018328C401BE
:1037C80003288401032704018326C40003268400F8
:1037D8008325440003250400EFF09FE083270400BD
:1037E80023AE8704130404036FF01FF89387875EE2
:1037F80003A78700930610008347F700639AD70250
:1038080037560080B7550080375500801305059C52
:103818009306300F130606BA938545BFEFE00FAB4A
:1038280037550080130505BFEFE04FAA6F00000071
:103838009387F7FFA307F70013098000733909304E
:1038480013840400137989009304F0FF636234033E
:1038580073290930032481028320C1028324410291
:10386800032901028329C101130101036FF0CF9AD3
:1038780083254402638895000325040063980500A6
:10388800EFF09FD0130404036FF05FFCEFF0DFC686
:103898006FF05FFF9307F0FF2306D500A306C5006E
:1038A8002307B500A30705002320F5026780000061
:1038B800130101FF232481002326110023229100F4
:1038C80013048000733404308347C50093F717004E
:1038D800638A070237560080B75500803755008045
:1038E8001305059C93063002130646E6938585E981
:1038F800EFE0CF9D375500801305C5ECEFE00F9D35
:103908006F00000093040500EFF05FDBB7570080FD
:1039180003A7875E13748400630E070073240430C2
:103928008320C10003248100832441001301010185
:10393800678000009387875E83A7870013050400CC
:1039480063949700EFC0DF8D032481008320C100BA
:1039580083244100130101016FF00F89B7570080DC
:1039680083A78716639407006FE04FC5130500000F
:1039780067800000130580007335053013758500D6
:103988006780000083270500638807020327450036
:1039980063040702B756008083A6C6F6630AD500FB
:1039A80083A6870003268500B386C60023A4D70014
:1039B8002320F70023A2E7009307F0FF2322050046
:1039C800232005002324F50067800000130101FF70
:1039D800232481002322910023261100930405004B
:1039E800EFF05FF903A784009307F0FF13040500C5
:1039F8001305F0FF6308F70013850400EFF09FF844
:103A08001305000013748400732404308320C1005C
:103A18000324810083244100130101016780000011
:103A2800B757008083C7C716130101FF23248100FD
:103A38002326110023229100232021011304F0FFE3
:103A480063960700370400801344F4FFEFF09FF2F9
:103A5800B7570080938787F603A9070093040500EA
:103A68006304F9026302090203248900EFF01FEFDF
:103A78003305A440130400006348050003248900AB
:103A8800EFF0DFED3304A44093F48400F3A4043092
:103A9800B757008083A7875F6386070063D48700D2
:103AA80013840700130504008320C1000324810048
:103AB80083244100032901001301010167800000EC
:103AC80083278500130101FE232E1100232C81007A
:103AD800232A910063CA070237560080B755008031
:103AE800375500801305059C93063004130686EEAF
:103AF800938585F1EFD09FFD37550080130505BFED
:103B0800EFD0DFFC6F0000002326B5002326C1009C
:103B180013040500EFF01FE693040500EFF01FE41F
:103B28000326C1006344C00013061000B757008085
:103B380003A787F63306A6002324C400938787F6D5
:103B48006306F70083A547006310070203A7470031
:103B58002320F4002322E40003A747002320870042
:103B680023A287006F0000068326870063DA060217
:103B780037560080B7550080375500801305059CDF
:103B88009306C004130686EE938585F2EFD01FF4E2
:103B980037550080130505BFEFD05FF36F000000B5
:103BA80003268400635AD604B386C6402324D7006C
:103BB800832647002320E4002322D40023A0860084
:103BC8002322870003A70700630AF7006318E400AD
:103BD800EFF01FE593050000EFE08F9093F4840069
:103BE800F3A404308320C10103248101832441010B
:103BF8001301010267800000B306D6402324D400D5
:103C0800E386E5F4032707006FF01FF4130101FEB4
:103C18002326B100232E1100232C8100232A910092
:103C280093040500EFF01FD513040500EFF05FDFE4
:103C38008325C10063DAA4009307100063D6A700A8
:103C480013850400EFE0CF891374840073240430D3
:103C58008320C1010324810183244101130101024E
:103C680067800000130101FE232E1100232C810020
:103C7800232A91001304050023263101232441013E
:103C8800B759008023282101375A0080EFF0CF94DC
:103C9800B7540080EFF01FCE130A8AF623A48916C2
:103CA800938404179389891603240A0083A70900BB
:103CB80083A6040003A8440013798500630C44011B
:103CC800630A04000327840063DEE7043307F74030
:103CD8002324E400B386D70013D7F741330707013D
:103CE800B3B7F600B387E70023A0D40023A2F400FB
:103CF80023A00900EFF0DFD293050000EFD05FFEAC
:103D0800732909308320C1010324810183244101DF
:103D1800032901018329C100032A8100130101023B
:103D280067800000B306D7009355F74133B6E60025
:103D3800B38505013306B600B387E74023240400A2
:103D48001305040023A0D40023A2C40023A0F90073
:103D5800EFF05FC3732909308327C40013050400FB
:103D6800E7800700EFF01FC16FF01FF4130101FF98
:103D78002326110023248100EFF0DFBF1304050080
:103D8800EFE0CF8337570080130707179307050025
:103D98000325070083254700137484003385A70093
:103DA800B337F500B385B700732404308320C1000E
:103DB800032481001301010167800000130101FF42
:103DC80023261100EFF09FFA8320C100130101019F
:103DD80067800000130101FF232481002322910042
:103DE80037540080B7540080232611001304840C34
:103DF8009384840C636E94008320C10003248100A3
:103E080083244100130500001301010167800000AD
:103E18009307440113050400232AF400232CF4001B
:103E2800EFD08FE21304C4016FF0DFFC678000005D
:103E3800000000002412008000000000241200800E
:103E480000000000241200800000000024120080FE
:103E580000000000241200800000000024120080EE
:103E6800000000002412008000000000001C0080F8
:103E780000000000241200800000000024120080CE
:103E880000000000241200800000000024120080BE
:103E980000000000241200800000000024120080AE
:103EA800000000002412008000000000241200809E
:103EB800000000002412008000000000241200808E
:103EC800000000002412008000000000241200807E
:103ED800000000002412008000000000241200806E
:103EE800000000002412008000000000241200805E
:103EF800000000002412008000000000241200804E
:103F0800000000002412008000000000241200803D
:103F1800000000002412008000000000241200802D
:103F2800000000002412008000000000241200801D
:103F3800000000002412008000000000241200800D
:103F480000000000241200800000000024120080FD
:103F580000000000241200800000000024120080ED
:103F680000000000241200800000000024120080DD
:103F780000000000241200800000000024120080CD
:103F880004460080B81B0080000000001C4A008026
:103F98009C1C008000000000144A0080841F0080E0
:103FA8000000000004460080DC3D008000000000A6
:103FB800DC500080F05000800451008018510080CF
:103FC80009000000080000000700000005000000CC
:103FD80000010202030303030404040404040404A8
:103FE8000505050505050505050505050505050579
:103FF8000606060606060606060606060606060659
:104008000606060606060606060606060606060648
:104018000707070707070707070707070707070728
:104028000707070707070707070707070707070718
:104038000707070707070707070707070707070708
:1040480007070707070707070707070707070707F8
:1040580008080808080808080808080808080808D8
:1040680008080808080808080808080808080808C8
:1040780008080808080808080808080808080808B8
:1040880008080808080808080808080808080808A8
:104098000808080808080808080808080808080898
:1040A8000808080808080808080808080808080888
:1040B8000808080808080808080808080808080878
:1040C8000808080808080808080808080808080868
:1040D8007468726561645F303500000074687265E9
:1040E80061645F30360000007468726561645F3037
:1040F800370000007468726561645F303800000042
:104108007468726561645F303900000074687265B4
:1041180061645F3131000000746573745F6D75749C
:10412800657800002F686F6D652F6D69616F752F59
:1041380070726F2F72697363762F7A6570687972FF
:104148002F74657374732F6B65726E656C2F6D7544
:104158007465782F6D757465782F7372632F6D6130
:10416800696E2E63000000000A202020204173732E
:10417800657274696F6E206661696C65642061742C
:104188002025733A25643A2025733A2025730A00BE
:10419800746573745F6D7574657800005448524592
:1041A80041445F31310000005448524541445F307A
:1041B800390000005448524541445F30380000003F
:1041C8005448524541445F30370000005448524536
:1041D80041445F30360000005448524541445F3046
:1041E800350000006D757465785F636F6D706C6580
:1041F8007800000054657374206B65726E656C20DE
:104208004D757465782041504900000073746172DF
:1042180074696E672074657374202D2025730A00F5
:104228003D3D3D3D3D3D3D3D3D3D3D3D3D3D3D3DB6
:104238003D3D3D3D3D3D3D3D3D3D3D3D3D3D3D3DA6
:104248003D3D3D3D3D3D3D3D3D3D3D3D3D3D3D3D96
:104258003D3D3D3D3D3D3D3D3D3D3D3D3D3D3D3D86
:104268003D3D3D0A000000004661696C65642074AC
:104278006F206C6F636B206D7574657820307825BE
:10428800780A0000287276206E6F74206571756157
:104298006C20746F203029006578706563746564DC
:1042A800207072696F726974792025642C206E6F92
:1042B800742025640A000000287276206E6F74202E
:1042C800657175616C20746F207072696F726974A2
:1042D800795B695D2900000074635F7263206E6F0B
:1042E8007420657175616C20746F2054435F504170
:1042F80053530000446F6E65204C4F434B494E4763
:1043080021202043757272656E74207072696F7215
:10431800697479203D2025640A000000746872657C
:1043280061645F303500000025732074696D656431
:10433800206F757420616E64206F757420707269C7
:104348006F726974792073686F756C642064726F1A
:10435800702E0A00287276206E6F74206571756160
:104368006C20746F20362900457870656374656425
:10437800207072696F726974792025642C206E6FC1
:10438800742025640A0000006D757465785F340038
:104398004761766520257320616E64207072696FAD
:1043A800726974792073686F756C642064726F70B9
:1043B8002E0A0000287276206E6F74206571756170
:1043C8006C20746F20372900287276206E6F742055
:1043D800657175616C20746F2064726F707072699A
:1043E8005B695D2900000000287276206E6F7420DA
:1043F800657175616C20746F2031302900000000F0
:1044080054657374696E6720726563757273697633
:1044180065206C6F636B696E670A00004661696CA2
:10442800656420746F206C6F636B207072697661AD
:104438007465206D75746578000000004661696CCC
:10444800656420746F207265637572736976656C34
:1044580079206C6F636B2070726976617465206D6A
:104468007574657800000000556E65787065637432
:1044780065646C7920676F74206C6F636B206F6E56
:104488002070726976617465206D757465780000B6
:10449800287276206E6F7420657175616C20746F58
:1044A800202D454255535929000000004661696C8A
:1044B800656420746F2072652D6F627461696E2067
:1044C8006C6F636B206F6E20707269766174652003
:1044D8006D7574657800000052656375727369764E
:1044E80065206C6F636B696E6720746573747320E5
:1044F8007375636365737366756C0A004641494C4E
:10450800000000002573202D2025734025642E20EF
:10451800000000004661696C656420746F2074694E
:104528006D656F7574206F6E206D757465782030B9
:104538007825780A000000004661696C656420747B
:104548006F2074616B65206D7574657820307825EF
:10455800780A00004661696C656420746F204E4FCC
:10456800542074616B65206C6F636B6564206D7596
:1045780074657820307825780A00000074687265C0
:1045880061645F31320000004661696C65642074C3
:104598006F206F627461696E2070726976617465EC
:1045A800206D757465780A00FC100080B4110080D5
:1045B800B4110080F0100080FC1000809C11008075
:1045C800A81100803448008054480080704800805A
:1045D8008448008090480080A8480080756E6B6E03
:1045E8006F776E00457863657074696F6E206361DC
:1045F80075736520257320282564290A00000000AA
:104608002A2A2A2A204B65726E656C20416C6C6FD1
:10461800636174696F6E204661696C7572652120EB
:104628002A2A2A2A0A0000002A2A2A2A2A204B652E
:10463800726E656C204F4F505321202A2A2A2A2A4D
:104648000A0000002A2A2A2A2A204B65726E656C05
:104658002050616E696321202A2A2A2A2A0A00002A
:104668002A2A2A2A20556E6B6E6F776E204661744F
:10467800616C204572726F7220256421202A2A2AD3
:104688002A0A000043757272656E74207468726538
:104698006164204944203D2025700A4661756C7488
:1046A800696E6720696E737472756374696F6E20C2
:1046B80061646472657373203D20307825780A2020
:1046C8002072613A2030782578202067703A2030AF
:1046D800782578202074703A203078257820207446
:1046E800303A20307825780A202074313A20307802
:1046F8002578202074323A203078257820207433A9
:104708003A2030782578202074343A20307825787B
:104718000A202074353A2030782578202074363ADB
:104728002030782578202061303A2030782578208C
:104738002061313A20307825780A202061323A20E9
:1047480030782578202061333A2030782578202069
:1047580061343A2030782578202061353A20307845
:1047680025780A202061363A203078257820206183
:10477800373A20307825780A000000004953520063
:10478800657373656E7469616C20746872656164C1
:1047980000000000466174616C206661756C7420CD
:1047A800696E20257321205370696E6E696E672EBD
:1047B8002E2E0A00466174616C206661756C742047
:1047C800696E2074687265616420257021204162D9
:1047D8006F7274696E672E0A00000000ADBAADDE14
:1047E800ADBAADDEADBAADDEADBAADDEADBAADDEF9
:1047F800ADBAADDEADBAADDEADBAADDEADBAADDEE9
:10480800ADBAADDEADBAADDEADBAADDEADBAADDED8
:10481800ADBAADDEADBAADDEADBAADDEADBAADDEC8
:10482800ADBAADDEADBAADDEADBAADDE496E73740C
:1048380072756374696F6E20616464726573732046
:104848006D6973616C69676E65640000496E7374A5
:1048580072756374696F6E20416363657373206654
:1048680061756C7400000000496C6C6567616C20B0
:10487800696E737472756374696F6E0042726561F4
:104888006B706F696E7400004C6F616420616464C2
:1048980072657373206D6973616C69676E65640016
:1048A8004C6F616420616363657373206661756C26
:1048B8007400000053707572696F757320696E74A7
:1048C80065727275707420646574656374656421BB
:1048D800204952513A2025640A0000002F686F6D64
:1048E800652F6D69616F752F70726F2F72697363B1
:1048F800762F7A65706879722F617263682F726992
:1049080073637633322F636F72652F7468726561D3
:10491800642E6300282828287072696F7269747978
:104928002929203D3D203135202626205F69735FE7
:1049380069646C655F74687265616428287468725C
:104948006561645F66756E63292929207C7C20284F
:104958005F69735F7072696F5F6869676865725FC6
:104968006F725F657175616C2828287072696F7243
:1049780069747929292C20283135202D20312929BD
:10498800202626205F69735F7072696F5F6C6F778E
:1049980065725F6F725F657175616C282828707227
:1049A800696F7269747929292C2028282D313629B4
:1049B8002929292900000000415353455254494FE1
:1049C8004E204641494C205B25735D2040202573CD
:1049D8003A25640A0000000009696E76616C696412
:1049E800207072696F7269747920282564293B20C8
:1049F800616C6C6F7765642072616E67653A20251B
:104A08006420746F2025640A0000000075617274C8
:104A1800300000007379735F636C6F636B00000094
:104A28007C1F0080581F008000000000000000006C
:104A380000000000D44A008004450080604A0080DD
:104A480052756E6E696E672074657374207375692C
:104A580074652025730A0000534B4950000000007C
:104A68002573202D2025730A0000000054657374F7
:104A7800207375697465202573206661696C6564A7
:104A88002E0A0000546573742073756974652025B7
:104A980073207375636365656465640A00000000CC
:104AA8004641494C4544000050524F4A4543542022
:104AB800455845435554494F4E2025730A00000078
:104AC8005355434345535346554C000050415353A7
:104AD80000000000784F00809C4F0080A84F0080A5
:104AE800A84F0080A84F00806D61696E000000002B
:104AF80069646C65000000002A2A2A2A2A20426F6D
:104B08006F74696E67205A6570687972204F5320F8
:104B18007A65706879722D76312E31332E302D33C7
:104B28003032302D6733376633373434202A2A2A17
:104B38002A2A0A002F686F6D652F6D69616F752FBE
:104B480070726F2F72697363762F7A6570687972E5
:104B58002F6B65726E656C2F6D757465782E6300AA
:104B68006D757465782D3E6C6F636B5F636F756EE2
:104B780074203E20305500006D757465782D3E6FA9
:104B8800776E6572203D3D205F6B65726E656C2E99
:104B980063757272656E74002F686F6D652F6D692D
:104BA800616F752F70726F2F72697363762F7A65D4
:104BB800706879722F6B65726E656C2F696E636CA5
:104BC8007564652F6B73636865642E680000000068
:104BD80021285F6B65726E656C2E6E6573746564F3
:104BE80020213D2030552900090A00005F6B6572BD
:104BF8006E656C2E63757272656E742D3E6261739C
:104C0800652E73636865645F6C6F636B65642021F0
:104C18003D2031006475726174696F6E20213D20FA
:104C2800282D312900000000282828287072696F73
:104C38002929203D3D203135202626205F69735FD4
:104C480069646C655F7468726561642828282876D1
:104C58006F6964202A293029292929207C7C202869
:104C68005F69735F7072696F5F6869676865725FB3
:104C78006F725F657175616C2828287072696F2979
:104C8800292C20283135202D20312929202626209D
:104C98005F69735F7072696F5F6C6F7765725F6F62
:104CA800725F657175616C2828287072696F29298F
:104CB8002C2028282D3136292929292900000000EF
:104CC800215F69735F69646C6528746872656164E3
:104CD800290000007468726561642D3E6261736525
:104CE8002E70656E6465645F6F6E00002F686F6D6F
:104CF800652F6D69616F752F70726F2F726973639D
:104D0800762F7A65706879722F6B65726E656C2F75
:104D180073636865642E63005F6B65726E656C2EE5
:104D280063757272656E742D3E626173652E73636E
:104D38006865645F6C6F636B656420213D2030009B
:104D48002F686F6D652F6D69616F752F70726F2F8A
:104D580072697363762F7A65706879722F6B6572E2
:104D68006E656C2F73656D2E630000006C696D694C
:104D78007420213D20305500096C696D69742063E9
:104D8800616E6E6F74206265207A65726F0A00002A
:104D9800696E697469616C5F636F756E74203C3D00
:104DA800206C696D6974000009636F756E74206307
:104DB800616E6E6F742062652067726561746572DA
:104DC800207468616E206C696D69740A00000000C7
:104DD8002828285F6B65726E656C2E6E6573746526
:104DE8006420213D20305529203D3D203029207C5C
:104DF8007C202874696D656F7574203D3D203029CD
:104E0800290000002F686F6D652F6D69616F752F20
:104E180070726F2F72697363762F7A657068797212
:104E28002F6B65726E656C2F7468726561642E6392
:104E3800000000000954687265616473206D61792F
:104E4800206E6F74206265206372656174656420EA
:104E5800696E20495352730A000000002F686F6D75
:104E6800652F6D69616F752F70726F2F726973632B
:104E7800762F7A65706879722F6B65726E656C2F04
:104E88007468726561645F61626F72742E6300009A
:104E9800287468726561642D3E626173652E75734E
:104EA80065725F6F7074696F6E73202620282831D1
:104EB800554C203C3C20283029292929203D3D20DB
:104EC8003000000009657373656E7469616C207445
:104ED80068726561642061626F727465640A0000BB
:104EE8002F686F6D652F6D69616F752F70726F2FE9
:104EF80072697363762F7A65706879722F6B657241
:104F08006E656C2F74696D656F75742E6300000093
:104F1800746F2D3E647469636B73203C203000000D
:104F2800742D3E647469636B73203E3D203000002D
:104F380098410080B00A0080AC060080AC06008072
:104F48000400000000000000000000000000000055
:104F58000000000000000000501500800300000061
:104F6800684F0080684F0080F5FFFFFF08550080FC
:104F7800AC3F00800000000000000000A03F00805F
:104F8800284A008000000000883F008000000000E0
:104F980000000000943F00800000000000000000B6
:104FA800785100802058008000020000B40600807C
:104FB80000000000000000000000000005000000E4
:104FC800040000000000000000000000E041008034
:104FD800E8510080205A008000020000D0070080BD
:104FE80000000000000000000000000006000000B3
:104FF800040000000000000000000000D441008010
:1050080058520080205C0080000200003C070080AD
:105018000000000000000000000000000700000081
:10502800040000000000000000000000C8410080EB
:10503800C8520080205E00800002000058080080EE
:105048000000000000000000000000000800000050
:10505800040000000000000000000000BC410080C7
:10506800385300802060008000020000DC080080C7
:10507800000000000000000000000000090000001F
:10508800040000000000000000000000B0410080A3
:10509800A85300802062008000020000B009008050
:1050A8000000000000000000000000000B000000ED
:1050B800040000000000000000000000A44100807F
:1050C800C8500080C85000800000000000000000A8
:1050D8000F000000DC500080DC5000800000000061
:1050E800000000000F000000F0500080F050008029
:1050F80000000000000000000F00000004510080C4
:105108000451008000000000000000000F000000B3
:1051180018510080185100800000000000000000B5
:105128000F0000002C5100802C510080000000006E
:08513800000000000F00000060
:040000058000000077
:00000001FF
