:0200000480007A
:100000009702000093824201739052306F00106D8E
:020010000000EE
:02001200FFFFEE
:100014005D7106C00EC212C416C61AC81ECA72CCBE
:1000240076CE7AD07ED22AD42ED632D836DA3ADCBC
:100034003EDEC2C0C6C2F322103496C4F32200309E
:1000440096C6EF00E01B1303000021E1F3222034E5
:10005400B70300809383F3FFB3F272002D43638AE6
:10006400620013050100970000009380E0126F0006
:10007400305BA642910296C4974200009382C2105C
:1000840003A302006313030041A0930201009743FA
:1000940000009383234303A14300411116C003AE20
:1000A4000300050E23A0C3016308030097000000AA
:1000B400938080036F00305D73252034B702008085
:1000C4009382F2FF33755500EF00801297320000DF
:1000D400938282010E05AA9203A5020003A34200A3
:1000E400E7000300174300001303C33D8323030009
:1000F400FD132320730082421381020083238300B3
:10010400032E030263087E08974200009382823B19
:1001140003A382002326830223289302232A230392
:10012400232C3303232E4303232053052322630567
:10013400232473052326830523289305232AA30553
:10014400232CB30523242302974300009383C3F98C
:1001540003AE03002326C30703A3020223A4620001
:10016400032183020324C3028324030303294303D7
:1001740083298303032AC303832A0304032B43042D
:10018400832B8304032CC304832C0305032D430511
:10019400832D8305A64273901234B64273900230C5
:1001A400824092412242B2424243D243624EF24ED4
:1001B400025F925F2255B2554256D2566257F257A9
:1001C4000648964861617300203000007300000007
:1001D400974200009382022F03A382008323C30665
:1001E4002189F32205301385030067800000000095
:1001F4000543B312A30073B34234678000000000C8
:10020400F322203437030080B3F2620013050000A8
:0A0214006383020005056780000007
:02021E00FFFFE0
:10022000130101FD232291022328610123261102DB
:100230002324810223202103232E3101232C410179
:10024000232A5101232671012324810123229101B4
:10025000130B050093840500639C06381304060005
:1002600093090500173900001309490063F8C51206
:10027000B7070100938A05006378F6109306F00F24
:10028000B3B6C60093963600B357D6003309F900CB
:1002900003470900B306D700130700023307D7400E
:1002A000630C0700B394E400B356DB003314E6009C
:1002B000B3EA9600B319EB00135B040193050B003E
:1002C00013850A00EF00405A1309050093050B003F
:1002D000931B040113850A00EF00805493DB0B018C
:1002E000930405009305050013850B00EF00805073
:1002F0001319090113D709013367E900138A0400B0
:10030000637EA70033078700138AF4FF63688700C2
:100310006376A700138AE4FF33078700B304A7407E
:1003200093050B0013850400EF000054130905002A
:1003300093050B0013850400EF00804E939909018B
:1003400093040500930505001319090113850B009B
:1003500093D90901EF00004AB369390113860400FB
:1003600063FCA900B30934011386F4FF63E6890036
:1003700063F4A9001386E4FF93170A01B3E7C700EB
:10038000130A00006F000013B70700019306000175
:10039000E36CF6EE930680016FF01FEF138A060000
:1003A000631A06009305000013051000EF00404794
:1003B00013040500B7070100637CF4129307F00FE4
:1003C00063F48700130A8000B35744013309F9002E
:1003D0008346090013060002B38646013306D64061
:1003E00063120612B3848440130A1000135B0401E5
:1003F00093050B0013850400EF0000471309050067
:1004000093050B0013850400931B0401EF0040418A
:1004100093DB0B01930405009305050013850B0086
:10042000EF00403D1319090113D709013367E900B3
:10043000938A0400637EA70033078700938AF4FF42
:10044000636887006376A700938AE4FF3307870019
:10045000B304A74093050B0013850400EF00C040D0
:100460001309050093050B0013850400EF00403BC2
:1004700093990901930405009305050013190901D7
:1004800013850B0093D90901EF00C036B369390118
:100490001386040063FCA900B30934011386F4FF3A
:1004A00063E6890063F4A9001386E4FF93970A01C9
:1004B000B3E7C7001385070093050A008320C10234
:1004C0000324810283244102032901028329C101FB
:1004D000032A8101832A4101032B0101832BC100DF
:1004E000032C8100832C410013010103678000006D
:1004F000B7070001130A0001E368F4EC130A800156
:100500006FF09FEC3314C40033DAD400B319CB007E
:10051000B356DB00135B0401B394C40093050B00D6
:1005200013050A00B3EA9600EF0000341309050032
:1005300093050B0013050A00931B0401EF00402EE6
:1005400093DB0B01930405009305050013850B0055
:10055000EF00402A1319090113D70A013367E90094
:10056000138A0400637EA70033078700138AF4FF11
:10057000636887006376A700138AE4FF3307870068
:10058000B304A74093050B0013850400EF00C02DB2
:100590001309050093050B0013850400EF004028A4
:1005A000930405009305050013850B00EF008024DC
:1005B00093960A011319090193D60601B367D9006E
:1005C0001387040063FEA700B38787001387F4FF37
:1005D00063E8870063F6A7001387E4FFB38787000B
:1005E000131A0A01B384A740336AEA006FF01FE0D0
:1005F00063ECD51EB707010063F4F6049305F00F12
:1006000033B5D5001315350033D7A6009737000052
:100610009387C7C5B387E70083C50700130A0002A5
:10062000B385A500330ABA4063160A029307100087
:10063000E3E296E83336CB00934716006FF09FE76E
:10064000B707000113050001E3E0F6FC1305800184
:100650006FF09FFBB35AB600B3964601B3EADA00D7
:1006600033D9B400B3974401B355BB0093DB0A01FF
:10067000B3E4F5001305090093850B00B319460197
:10068000EF00801E1304050093850B00130509007D
:10069000139C0A01EF00C018135C0C01130905003C
:1006A0009305050013050C00EF00C014131404019A
:1006B00013D704013367E400930C0900637EA7009D
:1006C00033075701930CF9FF636857016376A7005E
:1006D000930CE9FF330757013309A74093850B00BB
:1006E00013050900EF0040181304050093850B0063
:1006F00013050900EF00C01213090500930505005A
:1007000013050C00EF00000F93970401131404016C
:1007100093D707013367F40013060900637EA7002F
:10072000330757011306F9FF636857016376A70083
:100730001306E9FF3307570193970C01370E0100A9
:10074000B3E7C7001308FEFF33F3070133F80901CD
:100750003307A74093DE070193D90901130503006E
:1007600093050800EF000009930805009385090030
:1007700013050300EF0000081303050093050800AC
:1007800013850E00EF00000713080500938509008C
:1007900013850E00EF00000693D608013303030112
:1007A000B386660063F406013305C50113D606015E
:1007B0003305A6006366A702E314A7BC3707010050
:1007C0001307F7FFB3F6E60093960601B3F8E800C7
:1007D00033164B01B3861601130A0000E37CD6CC16
:1007E0009387F7FF6FF0DFB9130A0000930700004B
:1007F0006FF05FCC130605001305000093F615009B
:10080000638406003305C50093D515001316160042
:10081000E39605FE678000006340050663C6050693
:1008200013860500930505001305F0FF630C06020F
:1008300093061000637AB6006358C00013161600C2
:1008400093961600E36AB6FE1305000063E6C50042
:10085000B385C5403365D50093D6160013561600F0
:10086000E39606FE6780000093820000EFF05FFBD6
:1008700013850500678002003305A04063D805009A
:10088000B305B0406FF0DFF9B305B04093820000CC
:10089000EFF01FF93305A04067800200938200004B
:1008A00063CA0500634C0500EFF09FF71385050050
:1008B00067800200B305B040E35805FE3305A04051
:1008C000EFF01FF63305B0406780020082806F10A2
:1008D000003D6F10C03C411106C6EF10504FEF10A5
:1008E000104FEF10D04EEF10904EEF10504EEF1013
:1008F000104EB7470080B240938707123CD5B745EA
:10090000008037350080938545041305C5404101BB
:100910006F10403B411122C4374400801304040D82
:100920000C4026C206C6AA84EF1090674C402244B1
:10093000B2402685924441016F109066E1BF797103
:1009400006CE22CC42D446D60DED36863735008011
:10095000BA862E87B73500803E84938545443C1087
:10096000130585493EC6EF00B075B2452285EF00FC
:100970007073373500801305456BEF007074EF100E
:10098000A02FF240624445618280397122DC3744F5
:1009900000801304040D26DA4AD84ED652D456D21B
:1009A0005AD05ECE06DEAA8B130A84FF3739008048
:1009B000B7390080B7340080373B0080B73A0080F9
:1009C00001466C005E85EF10F0679387C9681307D6
:1009D000894193064002138644449305CB50133556
:1009E0001500B13F4840B2471307894193065002B2
:1009F0001D8D138644449387C96893850A54133523
:100A0000150071142D3FE31D44FBF2506254D25483
:100A10004259B259225A925A025BF24B21618280AA
:100A2000411106C622C426C237440080AA84B13FC1
:100A30001305C42CEF1090412685E93D1305C42C05
:100A40002244B240924441016F1050403DBF4111D9
:100A500022C42A8437450080054681451305C52CEC
:100A600006C6EF10703737150080A2851305C593B1
:100A70002D292285193F2285713DA2852244B2404D
:100A8000371500801305C5A4410105A1011126CA2F
:100A9000B744008022CC05462A8481451385C42CA6
:100AA00006CE4AC8EF105033B147B7160080B7459D
:100AB000008037450080228781480148938606A23E
:100AC000130600203EC093850550814702C21305DE
:100AD000452FEF1090692A8922852D3DFD551385FC
:100AE000C42CEF10303CFD551385C42CEF10903B07
:100AF0002285613D6244F240D2444A854249056103
:100B00006F206004411122C4B74500803744008043
:100B10001305C42D09469385050D06C6EF10103F39
:100B20001305C42DA5372244B24037450080130574
:100B300005154101A1BF411122C4B74500803744CA
:100B400000801305C42D09469385050D06C6EF10D8
:100B5000F03B1305C42DE53D2244B24037450080EB
:100B6000130505154101E5B5011122CC374400807C
:100B700089451305841606CE26CA4AC8B7440080A4
:100B8000EF10D0391385C42C05468145EF10D024D1
:100B9000B7160080B74500803745008013078416DC
:100BA0008147938606A21306002081480148938559
:100BB000055002C202C01305452FEF10105B2A89B1
:100BC00013058416813BFD551385C42CEF10902D21
:100BD000FD551385C42CEF10F02C130584167533C6
:100BE0004A85EF10507613058416EF1010369305E2
:100BF000101013058416EF1070326244F240D24494
:100C000042493105B73700803737008037360080DA
:100C1000B73500809387074C130747429306700A45
:100C2000130646449385054F13351500056101BB36
:100C3000797106CE42D446D631E136862E87B73654
:100C40000080B7350080373500803C10938606560B
:100C500093850557130585493EC6EF007046B2459A
:100C6000373500801305C568EF00D0433735008065
:100C70001305456BEF00D044EF100000F2404561D2
:100C80008280797122D4B7450080374400801305F3
:100C9000C42D09469385051806D626D24AD04ECED5
:100CA000EF10D0266C0001461305C42DEF109039CB
:100CB00037390080B7390080B73400804105B73537
:100CC00000809387C96813070956D54613860457D1
:100CD0009385055C13351500A13F6C001306400693
:100CE0001305C42DEF1010362D05B73500809387FE
:100CF000C9681307095613860457DD469385C55FF7
:100D0000133515003537B250225492540259F24926
:100D100045618280411106C622C499476302F502EB
:100D2000EF10103D0DC1EF10B03C21E1B745008040
:100D3000938505813745008013054582EF005038C3
:100D4000EF00103AF5BFEF10903B71FD3744008083
:100D50001304444C0C443745008013054584EF00D0
:100D600030360844EF10305EE1BFB7450080938510
:100D7000C580C9B75D71A2C4A6C286C69947AA84B8
:100D80002E8463E9A70837370080931725001307DF
:100D90008763BA979C4382873735008013050569BE
:100DA000EF001032EF10B0027C40832804010328CA
:100DB000C4003ED83C40584014403ED65C5C3044B1
:100DC000AA853ED41C5C37350080130545713ED2A0
:100DD0005C583ED01C583ECE5C543ECC1C543ECA9F
:100DE0005C503EC81C503EC65C4C3EC41C4C3EC2CF
:100DF0005C483EC01C44EF00B02CA2852685193FFC
:100E0000373500801305856B61BF373500801305CA
:100E1000456D79B737350080A6851305056FEF005E
:100E2000302A49B7411122C406C62A8473262034C9
:100E300006060582954763E3C7023737008093179C
:100E4000260013074765BA978C4337350080130592
:100E50004567EF00F026A2850145293FB7350080A0
:100E60009385C566DDB7411106C6F32520343745A5
:100E700000808605858113054594EF007024B745F1
:100E800000809385C5861145F535B7470080938767
:100E90008718984311CB03A3070023A00700B74787
:100EA000008003A5C71802838280A147F3B70730EB
:100EB000374700802324A718374700802326B71818
:100EC00073000000A18BF3A707308280411106C692
:100ED000EF10E005EF005022EF10800A17410000EC
:100EE00013014102B7120000938202801691F93F6C
:100EF0006F00200C0000797122D426D24AD04ECE49
:100F000006D6B689BD46AA842E8432896393D80654
:100F1000B7260080938686F06392D906C256C685AE
:100F20002685114642C63EC43AC2EF107040A24721
:100F3000930509FBA29523AE040423A00406C199DE
:100F40009CD989671247324893870788FCC5B71731
:100F50000080B2502254938707EF23A43503D8D5DD
:100F600023AA0503BCC58CD402599254F2494561A9
:100F70008280938608017946E372D6FA374600806C
:100F8000B745008037450080E1461306C696938535
:100F9000459A130585A446C2EF0090129248374542
:100FA0000080C1563946C685130585A6EF0050114D
:100FB00001A04111AA872E85B285368606C6829782
:100FC000EF10E060EF10303893971500AE9713974D
:100FD00027005C45BA970307B5006353B7009C43ED
:100FE0001357F6417D8B329715870A07BA979CC233
:100FF0001375F60182800111740006CEF137324775
:1010000085473395A7001C43F240C98F1CC3056177
:1010100082800111740006CE453F324785473395E3
:10102000A7001C43F2401345F5FF7D8D08C3056101
:101030008280011126CA444122CC2A8403558500AE
:10104000A6854AC84EC652C456C25AC006CEEFF054
:101050006FFA83290400834AA400FD572A8AAA99BB
:10106000A305F40001497D4B634159038144835733
:10107000840063CFF404F2406244D2444249B2494E
:10108000224A924A024B05618280A6855285EFF082
:101090002FF9131719004A979317270058443E97C2
:1010A000930747005CC31CC76349AB00A305240139
:1010B00089808D04F198050945BF7D059357F54159
:1010C000FD8BAA9795878A0723203701BE99CDB754
:1010D0004C402685EFF00FF21C40268681453E9558
:1010E0005C4485041387470018C1984758C1984746
:1010F00008C388C7228501379DBF1D71A2CCCEC60B
:10110000DAC086CEA6CACAC8D2C4D6C25EDE62DC47
:1011100066DA6AD86ED68010034EA500FD59931783
:101120002E00BD0793F7077F3301F1405C410A8B26
:10113000DA888D07F19B2320FB008147938AF7FF14
:1011400063D0C70391CB03A8C8FF135828000D082C
:101150001378C8FF23A0080103A808006379B80228
:10116000FD576397FA04232007005155130104FA31
:10117000F6406644D6444649B649264A964A064B46
:10118000F25B625CD25C425DB25D256182800323CA
:10119000C500139817003E980A081A9813034800D0
:1011A0000328480063036800BE898507910879B762
:1011B000E38BF9FA834705010149858B91C72149E2
:1011C000733909301379890093971900232AE4FAB7
:1011D000CE9758458A079107BA97B68C232CC4FA44
:1011E000AA847D5703AA07006383471393972900B6
:1011F00003274A00330DFB0083270A0083250D00D7
:10120000A14D1CC3D8C388403305AA40EFF0CFE0FE
:101210002A86CE852685F53B85091387F9FF634D20
:10122000570383C70401858B99C37329093083272A
:1012300084FB884023A057018A0A569B83250B0014
:101240003305AA40EFF04FDD832744FB23A0AC0019
:10125000014523A0470119BF884083250D00854B18
:101260003305AA40EFF04FDB939819009317250040
:10127000CE98232EF4FA8A0803274D00DE85232614
:1012800014FB3A852328E4FAEFF0CFD68327C4FB7A
:10129000330CAA00CE853386FB002685A93B0327A5
:1012A00004FB9040CC407D1703D584006297118FDA
:1012B0002328E4FAEFF00FD4032704FB8328C4FAB1
:1012C0006370A702D8444697130647002320CC003A
:1012D00010472322CC0010472320860123248701B6
:1012E000850B9147E39AFBF803C70401058B09E7D7
:1012F00001498509110D15B77329093003C7040188
:10130000058B7DD773B90D3013798900DDB7FD19D1
:1013100093074AFFE398E9EC014A21B71D71A2CC7B
:10132000A6CAD2C486CECAC8CEC6D6C2DAC05EDECF
:1013300062DC66DA6AD86ED680100347A500AA84FC
:101340000A073D071377077F3301E14058410A8AB6
:10135000D2860D07719B2320EA000545910663FBA9
:10136000A50603C704012E8CB289058B014911C75C
:1013700021497339093013798900114D13172C0055
:101380005297832A070083AB04004E85D685EFF081
:101390006FC6138BFAFFB30D6501AA9BCC4003D532
:1013A0008400EFF02FC563EFAD0237460080B745EC
:1013B000008037450080130585A49306200A130694
:1013C000C6A9938505ADED29374500801305C5AE47
:1013D000C52901A003A7C6FF050509830D07719B59
:1013E00098C2ADBF4E86E2852685313113171C00A9
:1013F000629793162700D84436979306470023A098
:10140000DB00144723A2DB00144723A0760123242A
:10141000770103C70401058B15EB814B5E896313CC
:101420000C0483C70401858BF9E3130104FAF64029
:101430006644D6444649B649264A964A064BF25B6C
:10144000625CD25C425DB25D2561828073290930A5
:1014500003C70401058B71D3A147F3BB073093FB8E
:101460008B006DBF9306C4FB4E86E2852685A93EA0
:101470008326C4FB1357F5410D8B2A978842719B35
:10148000BD473357E5003D8BE31DF7F8814C93FDD5
:10149000C9FF33869D013285D6852324C4FAEFF037
:1014A0006FB5B3066501AA8BCC4003D58400232613
:1014B000D4FAEFF02FB48326C4FA032684FA63FD2E
:1014C000A600E2852685B1369440B69B03A64B0064
:1014D00083A60B0014C2D0C2850CE39CACFB13D6D0
:1014E000F9410D8AB2997D1C93D9294041BDF3ABD6
:1014F0000B3025BF014582809C4185079CC1B747C1
:10150000008003A3870D0283397122DC4ED652D4AA
:101510005AD06AC806DE26DA4AD856D25ECE62CCE7
:1015200066CA6EC6AA892E8A328D368B05446353ED
:10153000E0003A848547930C00026314FB00930C8F
:101540000003B7D49A3B0549A94A014C9384F49F00
:10155000894D938B140063140C0063F2A407DE859D
:101560006A85EFF0EFABD285130505038299050973
:10157000054CDE856A85EFF02FAF2A8DA9452685BB
:10158000EFF00FAAFD1A8547AA84E394FAFCD285EE
:1015900013050D0382998D4733042441630FFB0229
:1015A000F2506254D2544259B259225A925A025BB2
:1015B000F24B624CD24C424DB24D21618280E34AE3
:1015C00054FBE3E86DFBD28566858299050955B722
:1015D000D2851305000282997D14E34B80FEC9B7C2
:1015E000B747008023ACA70C82805D71A2C4A6C25D
:1015F000CAC04EDE52DC56DA5AD866D26ECE86C6E5
:101600005ED662D46AD02A84AE84328BB68C014A0C
:101610007D598149814D854A03450B0005E1B6405E
:10162000264496440649F259625AD25A425BB25B4A
:10163000225C925C025DF24D61618280639A0D00D2
:10164000930650026307D524A6850294050BE9B7DB
:1016500093064006630BD50E63EBA6049306900336
:1016600063E7A602930610036375D50C9306D002B8
:101670006306D522930700036303F50A130750029C
:10168000631FE500A685130550020294E5A09306AA
:1016900080056303D512130730066304E51EA68593
:1016A000130550020294A68503450B00F9BF93066B
:1016B00000076309D50E63EFA60093069006630644
:1016C000D5089306C0066300D50893068006E30F8D
:1016D000D5F6F1B7930650076308D50A63EAA60268
:1016E00013073007E31DE5FA138C4C0083AC0C00A4
:1016F000E68B03C50B00631C05168D476398F90044
:10170000B38B9B41B30B794163477017E28C9DA06B
:10171000930680076302D50A9306A0074DBF635C5A
:101720000900638F0916130905FDE39109F2894940
:1017300031BFE34A09FE93162900369906091309B9
:1017400009FD2A99DDB7050A11B763C74A0303A645
:101750000C00910C635B0600A6851305D00232C411
:10176000029422467D193306C0404A87CE86A6855C
:101770002285593B814DD9BD93877C0013F787FFA4
:10178000930C87001043F9B763C64A0103A60C0007
:10179000910CE1BF93877C0013F787FF930C8700C0
:1017A0001043E1B7A685130500030294A68513052F
:1017B000800702942149854963C34A0783A70C0027
:1017C000910C3EC42146014C014DA145A247938B8B
:1017D000F5FF13952B0033D5A7003D8929ED93061E
:1017E000000363140D006390550736956205A685C6
:1017F000618532C60294050C3246639B0B028D460E
:10180000814DE395D9E413171900330C8741E35355
:1018100080F7A6851305000202947D1CCDBF938737
:101820007C0093F687FF9C42938C86003EC459BF90
:101830006E8DDE8561BFA54793067005E3E7A7FAC5
:10184000930600035DB79307F6FF3EC66348C900E1
:1018500063985901A6851305000302943246D1BF4F
:101860008947E39DF9FEA68513050002FDB7A6850D
:10187000850B0294BDBDA685130500020294FD1BD5
:1018800061B503A50C00938B4C00A6850294DE8CF9
:10189000D5B5014A7D598149854D4DBB8D497DB3F3
:1018A00085496DB301112A8637150080AE86130570
:1018B000854F6C0006CE02C60D3BF240056182806A
:1018C00039712ED24C1006CE32D436D63AD83EDA02
:1018D00042DC46DE2EC6F937F240216182808280EA
:1018E000A147F3A7073073005010828085473395D6
:1018F000A700732545308280A147F3B707307350A6
:101900004030735040348280411122C426C2374493
:10191000008006C6A947AA84130404196317F500BA
:101920000840B5455C41DC438297084093F5F40FCD
:101930005C41DC438297B2402244268592444101B7
:101940008280372500801305859059B9374500807E
:101950004111130505AF06C6892BB747008023A8A0
:10196000A718C537B240014541018280B70710F082
:1019700003A747F403A507F483A547F4E39AE5FE1C
:101980008280011122CC06CE26CA4AC84EC652C455
:10199000214473340430B744008093848419F937A8
:1019A00003A9040003AA4400AA8733052541B3B75D
:1019B000A700B385454175661306064C81469D8D8B
:1019C000EFE01F86AA89F5659385054C4E85EFE00B
:1019D0007FE22A993335A900529523A02401C8C07B
:1019E0002188732404306244F240D2444249224A9E
:1019F0004E85B24905616F10A03D411106C6BD3745
:101A0000F5679387074C370710F0AA97FD562326F2
:101A1000D7F433B5A7002E952324F7F42326A7F493
:101A20001D45E935B240014541018280CDED0111EE
:101A300022CC06CE26CA4AC84EC652C4FD572A84B6
:101A40006315F50025651304E5BCA144F3B4043027
:101A5000313FA567AA899387E7BC1305F4FFA188E6
:101A600063DFA7063E8575649305044CEFE09FD8BD
:101A7000B74700809387871903A9070003AA470087
:101A80009307F44BB3872741CE973E959305044CBB
:101A9000EFE01FD99305044CEFE0DFD5B3093941DE
:101AA000AA999307703E63C537011304044C22952D
:101AB000B70710F02A997D5723A6E7F43335A9001C
:101AC000529523A427F523A6A7F4F3A40430F240EB
:101AD0006244D2444249B249224A05618280E354B9
:101AE00005F8014549B78280411122C406C6214448
:101AF00073340430A53DB747008083A78719F56587
:101B00009385054C1D8DEFE0BFD1218873240430EF
:101B1000B2402244410182808347050003C705008B
:101B20006393E70081E73385E740828005058505FB
:101B3000E5B7B347B5008D8B95CFAA8701476317EB
:101B4000E60482807DDE850503C7F5FF85077D16E7
:101B5000A38FE7FE13F7370075F78D463308E6408D
:101B600063EC06011357260093162700158EB697CF
:101B7000B695E9B7AA87F9BFB388E50083A808003E
:101B80003388E700110723201801C9BF3388E50017
:101B900003480800B386E70005072380060145B720
:101BA00093F6F50FAA8713F737001DEB93F5F50FA2
:101BB00013978500D98D13970501D98D3383C700FD
:101BC0003E870D48B308E3406362180313572600AD
:101BD00093152700AE970D8E3E96639DC7008280B9
:101BE0007DDE8507A38FD7FE7D1675BF1107232ED7
:101BF000B7FEC9BF8507A38FD7FEC5B7411102C67F
:101C0000B24785073EC6B70701F08CC34101828009
:101C10007D55828001458280011122CC1C453744CC
:101C2000008026CA1304C40DB744008006CE4AC8FB
:101C30004EC69384041A8549232004002A8923A0D0
:101C400034018297832749002320340182978947F2
:101C50001CC08327C90082978D471CC0624423A003
:101C60000400F240D2444249B2493745008013058E
:101C7000453605616F00901D374500804111B7471B
:101C800000807D571305453606C623A0E71AEF00EE
:101C9000F01BEF00D013B24041016F00D06A37450E
:101CA00000804111B747008079571305453606C6B5
:101CB00023A0E71AEF009019EF007011B240410124
:101CC0006F0070681D71A6CAB744008083A7441ACC
:101CD00086CEA2CCCAC8CEC6D2C4D6C2DAC05EDE18
:101CE00062DC66DA6AD86ED663C6070637440080BF
:101CF0000546AA892E8C130544368145EF00D00D88
:101D000037450080CE85130545B25D3E37490080DA
:101D10001305C9B3B74A008065369384441A014A53
:101D200022CEB74C0080374B0080372D0080B74D56
:101D30000080B74B0080938A8AB183274C0095EBD3
:101D4000CE8563010A0C374500801305C5BA8D3E68
:101D500085479CC0F6406644D6444649B649264A63
:101D6000964A064BF25B625CD25C425DB25D2561D5
:101D7000828083250C00B7470080138547B88936D9
:101D800002C283270C0162871306004093E7870095
:101D9000FD58014893068DC13EC093850C70814764
:101DA00013054B37EF00703CF247FD55138547365E
:101DB000EF00500F93870D1A13054B378043EF0048
:101DC0009058B74700809387071A98430504F9573E
:101DD0001334140003260C006311F702B74500808A
:101DE000938585B913850BBAEFF09FAD1305C9B381
:101DF000EFF01FAD229A510C89B793172400D697A4
:101E00008C43CDB737450080130545BCEFF05FAB81
:101E10009C40B337F00035BFB747008083A7471A0F
:101E2000411122C43745008006C63744008013059F
:101E3000C5B391CFEFF0DFA8B7450080938505BE0D
:101E4000130584BE2244B24041016FF07FA7EFF03A
:101E50003FA7B7450080938505C0DDB7411106C691
:101E6000EFE07FA7B240410145BF13172500B747F8
:101E7000008005059387C7C10A0541113E97AA97BF
:101E800022C426C20043844306C663679400B2405E
:101E900022449244410182801C402285DC43829787
:101EA00019C1232204003104CDB74111B747008086
:101EB00026C2B744008022C406C61384070F4AC056
:101EC0009387070F93840412631894002A893E8431
:101ED000631C9400014415A0584009C718401843DA
:101EE000630DA7003104CDB75C4099E33104CDB751
:101EF0001C404A858C430D3175F92285B24022443D
:101F00009244024941018280411122C426C206C680
:101F100021448944F3370430EF00505263C3A400D6
:101F200005458545EF009067EFF09F9BE5B7374586
:101F30000080B7470080130605189387074F338644
:101F4000C740814513050518A1B94111094506C6C9
:101F5000293F37450080130505C4EFF07F960D45F6
:101F60002937EF00B02CDD3DB74700809387474508
:101F700003C7C700799B2386E700B24041018280F6
:101F8000357126CB0408130600078145268506CF48
:101F900022CD4AC94EC7293137440080B757008047
:101FA0009309444C93870770014523A2F900753DBE
:101FB0000545653D9307101023A49900231EF100E9
:101FC000DD2BB7470080938707C3374900803EC2A7
:101FD000B72600808547B7550080930449453EC029
:101FE00001478147814801489386A6F413060020E3
:101FF000938505B01305494523A09902EF00B0145D
:1020000083C7D4001304444C13F7B7FFA386E4003E
:10201000ED8B81EB9850FD576315F700130549458B
:10202000592CB7470080938787C33EC2374500804D
:102030008547B7260080B75500809304453E3EC0D3
:10204000BD48014881470147938686F0130600206A
:10205000938505D01305453EEF00F00E83C7D400ED
:1020600044C42145ED9BA386F400B74700809387C5
:10207000C74D1CCC5CCC733505302189EFE04F9502
:10208000411106C6EFF05FA6B747008083A7C71AC5
:10209000B240374700803E95232AA74C81453E85B4
:1020A00041016F00B04F2145733505302189828091
:1020B000411122C4374400809307444C26C2C453C4
:1020C00006C6938747021304444C6383F40091E0EF
:1020D00044441C4405ED9DCB03C7D7007D8B1DE711
:1020E00094537D576394E60283D6E7001307F00705
:1020F000637ED700374700800327C70E6388E70059
:102100001CD0B240224492444101828063839700F4
:10211000853F04D0FDB7011106CE22CC26CA4AC89D
:102120004EC6AE84AA894137B7470080A9452A84A4
:102130001385990023AA074CEFE00FEEB747008004
:10214000374900802326A91A23A4971A21880D3F16
:1021500073240430F2406244D2444249B2490561DA
:102160008280411122C406C62A84353FAA870840CE
:102170006313A4000145A18BF3A70730B2402244AA
:1021800041018280B74700809387474C94432A8758
:1021900099E694479C536384F6006FE06F83218B2C
:1021A000732707308280411122C437440080130412
:1021B000444C1C4406C626C283C7F70085EB37464D
:1021C0000080B745008037450080130585A493063D
:1021D000701D130606D29385C5D4EFF06FEE374518
:1021E00000801305C5AEEFF0AFED01A01C4085CB1C
:1021F00037460080B745008037450080130585A429
:102200009306801D130606D2938505CEEFF04FEBA3
:10221000374500801305C5AEEFF08FEA01A06135A8
:102220001844AA8405458347F700A1888507A307BA
:10223000F700BD3DF3A40430214573350530224439
:10224000B24092442189410135BFB747008083A73E
:10225000C70E6395F50237460080B74500803745C5
:10226000008041119306D021130606D29385C5C77D
:10227000130585A406C6EFF0AFE401A01C41631965
:10228000F5005C4188C1DCC15C418CC34CC18280DB
:10229000EDDB0387E5008386E7006358D700D8436A
:1022A0009CC1D8C10CC3CCC382805441E38BD7FC02
:1022B0009C43F5F3F9B7411106C622C426C2AA848D
:1022C000DD332A8437450080A6851305854EB53F4A
:1022D00083C7D4000145218893E70704A386F4004F
:1022E000C13B73240430B2402244924441018280B5
:1022F0008347D500FD8B91E71851FD576313F70015
:102300005DBF8280B747008083A7C70E6395F50243
:1023100037460080B745008037450080411193065D
:10232000C022130606D29385C5C7130585A406C629
:10233000EFF00FD901A0D8419C411CC3D8C38280C3
:10234000411122C426C22A8406C6B13BAA8408448D
:1023500015E137460080B745008037450080930679
:102360001015130606D2938505C9130585A4EFF051
:102370002FD501A0A28579378347D400A188F59B8A
:10238000A306F400F3A4043023240400B240224442
:10239000924441018280411122C406C62A844D37ED
:1023A000130584012244B24041016F005006832787
:1023B00005FF411122C426C206C62A84930485FE65
:1023C00099C32685B53F834754FFB2402685ED9BD0
:1023D000A30AF4FE22449244410119BF41118145F0
:1023E00022C406C6BD3B2A8411C5993F130584014A
:1023F000EF00F0012285B2402244410182800111A8
:102400004AC8374900801309494C06CE22CC26CA57
:102410004EC62A84930949027931A285AA844E8541
:10242000D535A2854E8515358347D400032589000F
:10243000A18893E70704018DA306F4001335150066
:102440008539F3A40430F2406244D2444249B2498F
:1024500005618280B747008083A7C71AB9CBB74709
:1024600000809387474C98479306F0070356E70090
:1024700063E1C604B74600800306E70083A6861A18
:102480006349D602B746008083A6C60E6303D7020F
:102490001053FD56631FD600944B634AD50041117B
:1024A0003A8506C6A93FB24041016FF07FBD898ED3
:1024B00094CB8280411122C426C22A8406C64AC017
:1024C000EFF07FBE8347D400AA8493F7070495C733
:1024D000374900801309494C13054902A2851D356F
:1024E0008347D4000325890093F7F7FB018DA306EA
:1024F000F40013351500EFF0BFBBA188F3A404303E
:10250000B24022449244024941018280411122C4D6
:1025100026C22A844AC006C6AE843289613F8347F8
:10252000D40093E72700A306F40089C404C4A2855D
:102530002685213BFD576306F902A945130599003D
:10254000EFE08FAD13061500130584012244B2405D
:1025500092440249B72500809385E53A41016F0016
:102560000075B240224492440249410182804111E7
:10257000B747008022C42A8403A5C74C06C6793712
:1025800022852244B24041016FD09FC4411126C22E
:1025900006C6AA8422C4014580406383840011E4F6
:1025A000B24022449244410182802285ED3322854B
:1025B00081330545D5B7B74700809387474C1387CC
:1025C0004702D8D398D7814501456FF0DFB4B747AC
:1025D000008003A5C74C8280411106C605EA374634
:1025E0000080B745008037450080130585A4930619
:1025F000D003130646D7938505DAEFF06FAC374565
:1026000000801305C5DAEFF0AFAB01A06379B60225
:1026100037460080B745008037450080130585A404
:102620009306E003130646D7938545DCEFF04FA9E8
:10263000374500801305C5DDEFF08FA801A0B2403B
:102640000CC550C508C148C141018280411122C456
:102650004AC006C626C22A89214473340430218820
:10266000B53B15C58347D500AA84FD8B99E7185162
:10267000FD576314F700EFF01FC423A6040622855C
:102680002244B2409244024941016FF0BFAF032798
:1026900089008327C900998FB337F000BA972324A4
:1026A000F900F1BFB747008083A7474C2E869DCB2A
:1026B00095C937460080B7450080374500804111F5
:1026C000130585A493063008130646D7938545E085
:1026D00006C6EFF0EF9E374500801305C5AEEFF05C
:1026E0002F9E01A0A147F3B707301845A18B19C74A
:1026F0007D1718C5F3A707300145828009E6F3A7C7
:10270000073041558280AA853E8595B50A060CC5DD
:102710004CC5B29508C148C10CC98280011122CCB8
:102720002A842E8506CE2EC6EF00B01A09CD324679
:10273000AA852285E13F8547230AF4000145F2403E
:102740006244056182805155DDBF1C41411122C4A4
:1027500006C62A846304F50295C337460080B74550
:1027600000803745008093069005130646E6938562
:1027700005E9130585A4EFF0AF9401A08347440158
:10278000858B99CB0844EF005014834744012324E0
:102790000400F99B230AF400B240224441018280E4
:1027A00058451C49011106CE22CC26CA4AC84EC63D
:1027B0006319F70237460080B7450080374500802F
:1027C000130585A493067006130646E6938585E3F4
:1027D000EFF00F8F37450080130545E5EFF04F8E82
:1027E00001A02A89AE89214473340430EFF01FBF61
:1027F0002188AA8405C98347D500FD8B99E7185124
:10280000FD576314F700EFF01FAB2285624423AA43
:10281000340123A60406F240D2444249B24905617C
:102820006FF05F968327C90023A037019107232605
:10283000F90073240430F2406244D2444249B24960
:1028400005618280A147F3B707305845032885000A
:10285000A18B637CE8009306C7FF0327C7FF54C51D
:1028600098C1F3A707300145828009E6F3A7073036
:1028700041558280411122C42E84AA853E8506C618
:10288000FD31D5576309F500B747008083A7C74CD2
:102890000145DC4B1CC0B240224441018280411101
:1028A00022C426C206C6AA8421442E85733404306D
:1028B000A9452505EFD05FF6B72500801306150062
:1028C0009385E53A13858401DD262188732404303D
:1028D000B24022449244410182808347D500FD8B5F
:1028E00099E71851FD576314F7006FF0DF9C828061
:1028F000B747008003A5474C3335A0008280B74717
:10290000008083A7C74C03C5C70005898280411199
:1029100022C406C62144733404300347D5002188FD
:102920009376470099E673240430B2402244410173
:1029300082806D9BA306E5004D3722852244B2407C
:1029400041016FF03F840111025322CC06CE1AC020
:102950002A84EFE04FDAB747008083A7C74CF240E4
:10296000BC573CD462440561828037430080032316
:10297000434C011126CA06CE22CC925463090302AD
:1029800037460080B745008037450080130585A491
:102990009306801A1306C6EB938505CEEFE05FF22F
:1029A000374500801305C5EEEFE09FF101A002530B
:1029B00002C22A841AC0413FFD576385F40089E8AA
:1029C0002285B1372285F2406244D244056182807B
:1029D000A6852285E935FDB73C51411122C406C6C2
:1029E0002A8491C382978347D40013F7F70115E334
:1029F00014507D57639FE6002285EFF0BFAB8347FD
:102A0000D400B24093E78700A306F40022444101BA
:102A10008280898B81C72285EFF09F921850FD57E5
:102A2000E30FF7FC13058401DD22D1BF7971B747AD
:102A300000804ECEB749008022D426D206D64AD096
:102A4000138407129384071293890912636E340367
:102A5000B747008003A7474C21CF37460080B745D2
:102A6000008037450080130585A49306200F1306C8
:102A700086CA938505CEEFE0BFE437450080130595
:102A8000C5AEEFE0FFE301A05C543EC21C503EC067
:102A90005C488328C4010328840118485444104426
:102AA0004C4008404D351C40E0CF1304040379BF6F
:102AB0009387474C984785468347F7006399D70229
:102AC00037460080B745008037450080130585A450
:102AD0009306300F130686CA938585CFEFE05FDE3D
:102AE000374500801305C5AEEFE09FDD01A0FD175F
:102AF000A307F70021497339093026841379890027
:102B0000FD54636C3401732909302254B25092543D
:102B10000259F24945616FF00FE94C506385950009
:102B2000084089E5ED3313040403E1BF8D3BE5BFA5
:102B3000FD572306D500A306C5002307B500A3074C
:102B400005001CD18280411122C406C626C2214440
:102B5000733404308347C500858B85CB37460080AE
:102B6000B745008037450080130585A493063002E1
:102B7000130646F1938585F4EFE09FD43745008036
:102B80001305C5F7EFE0DFD301A0AA84B135B7473D
:102B9000008003A7474C218801CB73240430B24046
:102BA00022449244410182809387474C9C4722856E
:102BB00063949700EFD0CFE12244B24092444101A8
:102BC0006FF04FDCB747008083A7071B99E36FE0E6
:102BD000BFF101458280214573350530218982800E
:102BE0001C4199CF584109CFB746008083A6460EB5
:102BF0006306D50094471045B29694C71CC3D8C34A
:102C0000FD5723220500232005001CC582804111A9
:102C100022C426C206C6AA847D3F9844FD572A8452
:102C20007D556305F7002685653F0145218873249E
:102C30000430B2402244924441018280B747008070
:102C400083C7471B411122C406C626C24AC07D5411
:102C500089E7370400801344F4FFB53FB74700808D
:102C60009387070E03A90700AA846300F902630E85
:102C7000090003248900B9373305A44001446346A1
:102C80000500032489003D3F098CA188F3A404308A
:102C9000B747008083A7474D81C763D387003E8431
:102CA0002285B240224492440249410182801C455F
:102CB000011106CE22CC26CA63C90702374600801E
:102CC000B745008037450080130585A4930630047E
:102CD000130686F9938585FCEFE09FBE374500809B
:102CE0001305C5AEEFE0DFBD01A04CC532C62A8496
:102CF000DD35AA84C13D32466343C0000546B7476F
:102D0000008003A7070E2A9610C49387070E63045A
:102D1000F700CC4301EBD8431CC058C0D84300C3D4
:102D2000C0C3A9A0144763D9060237460080B7453F
:102D3000008037450080130585A49306C004130660
:102D400086F9938585FDEFE0BFB737450080130511
:102D5000C5AEEFE0FFB601A01044635AD602918ED3
:102D600014C7544318C054C080C240C3984363087A
:102D7000F7006316E400D9358145EFE03FCBA18829
:102D8000F3A40430F2406244D24405618280B30669
:102D9000D64014C4E381E5F81843ADBF01112EC637
:102DA00006CE22CC26CAAA843D352A84413DB245AE
:102DB00063D8A400854763D5A7002685EFE01FC729
:102DC000218873240430F2406244D2440561828039
:102DD000011106CE22CC26CA2A844EC652C4B74957
:102DE00000804AC8374A0080EFF0CFE6B744008041
:102DF000DD33130A0A0E23A8891A9384841B93894E
:102E0000091B03240A0083A70900944003A8440077
:102E1000137985006308440111C4184463DDE70297
:102E20001D8F18C4BE9613D7F7414297B3B7F6006B
:102E3000BA9794C0DCC023A0090009358145EFE0B2
:102E4000FFBE73290930F2406244D2444249B2497C
:102E5000224A05618280BA969355F74133B6E6005F
:102E6000C2952E96998F23240400228594C0D0C049
:102E700023A0F900EFF0DFD6732909305C442285E6
:102E80008297EFF05FD5B5BF411106C622C4EFF0BF
:102E90009FD42A84EFE05FC5374700801307871B64
:102EA000AA8708434C4321883E95B337F500BE9569
:102EB00073240430B240224441018280411122C473
:102EC00026C237440080B744008006C613040412AB
:102ED0009384C41363689400B24022449244014531
:102EE000410182809307440122855CC81CCCEFE03D
:102EF0004F947104C5B7B747008083A7474C5D71F5
:102F0000A2C4A6C2CAC04EDE5AD886C652DC56DA61
:102F10005ED662D466D26AD06ECEAA892E89328BF2
:102F2000368481448DCBB1C237460080B7450080DE
:102F300037450080130585A493067003130686FEAB
:102F400093858501EFE0DF97374500801305C5AE17
:102F5000EFE01F9701A0635AD0003D37AA84A9452E
:102F600013059400EFD05F8BAA94374500801305BA
:102F700005123385A940B775DBB6938575DB0985E6
:102F8000EFD05F877D7A856A137CF50FD55BD15CC6
:102F9000130AFA0FFD1A214D938D49014A877400D7
:102FA0003000DA854E85EFE04F95631C75014A8746
:102FB00074003000DA854E85EFE02F9463137501BD
:102FC0005155A24723028901BD8B139787008327A0
:102FD0004900B3F74701D98F3247B3F7570132079A
:102FE000D98F2322F90005C51DC0631295037335DF
:102FF0000D302286EE852189EFF06FD7FD57E30F64
:10300000F4F859353384A440E35A04F85555B640D2
:10301000264496440649F259625AD25A425BB25B40
:10302000225C925C025DF24D616182808347050003
:103030004111104122C4139437004AC01D8C3749F6
:1030400000800A0493558600130909123182BD8954
:103050003305890026C206C6A144EFE02FACF3B4C5
:103060000430130544014A95A188EFF02FD211CD09
:10307000B747008083A7474C89EB2244B2400249FE
:103080002685924441016FF0EF8FF3A40430B240E3
:1030900022449244024941018280138645006378AC
:1030A000B600014582800145F24005618280011130
:1030B00081462C0006CE81357DF5224511466C00F7
:1030C000EFE03FA722451105C5B719C17115B9BF7A
:1030D0008280B747008083A7C74CAA85A85711C133
:0830E0006DBF01458280828072
:1030E80000000000660E008000000000660E0080F0
:1030F80000000000660E008000000000660E0080E0
:1031080000000000660E008000000000660E0080CF
:1031180000000000660E0080000000008219008098
:1031280000000000660E008000000000660E0080AF
:1031380000000000660E008000000000660E00809F
:1031480000000000660E008000000000660E00808F
:1031580000000000660E008000000000660E00807F
:1031680000000000660E008000000000660E00806F
:1031780000000000660E008000000000660E00805F
:1031880000000000660E008000000000660E00804F
:1031980000000000660E008000000000660E00803F
:1031A80000000000660E008000000000660E00802F
:1031B80000000000660E008000000000660E00801F
:1031C80000000000660E008000000000660E00800F
:1031D80000000000660E008000000000660E0080FF
:1031E80000000000660E008000000000660E0080EF
:1031F80000000000660E008000000000660E0080DF
:1032080000000000660E008000000000660E0080CE
:1032180000000000660E008000000000660E0080BE
:1032280000000000660E008000000000660E0080AE
:103238008C3600804C19008000000000F83A0080AD
:10324800FA19008000000000F03A0080141C008089
:10325800000000008C360080BC2E008000000000BA
:103268000001020203030303040404040404040425
:1032780005050505050505050505050505050505F6
:1032880006060606060606060606060606060606D6
:1032980006060606060606060606060606060606C6
:1032A80007070707070707070707070707070707A6
:1032B8000707070707070707070707070707070796
:1032C8000707070707070707070707070707070786
:1032D8000707070707070707070707070707070776
:1032E8000808080808080808080808080808080856
:1032F8000808080808080808080808080808080846
:103308000808080808080808080808080808080835
:103318000808080808080808080808080808080825
:103328000808080808080808080808080808080815
:103338000808080808080808080808080808080805
:1033480008080808080808080808080808080808F5
:1033580008080808080808080808080808080808E5
:10336800746573745F737461636B5F7468726561AD
:103378006432746872656164000000007465737477
:103388005F737461636B5F757365725F7468726590
:1033980061643274687265616400000074657374F6
:1033A8005F737461636B5F746872656164326973BB
:1033B80072000000746573745F737461636B5F708F
:1033C8006F705F6661696C00746573745F737461B4
:1033D800636B5F757365725F706F705F6661696C50
:1033E80000000000746573745F737461636B5F61E0
:1033F8006C6C6F635F74687265616432746872655F
:1034080061640000737461636B5F61706900000040
:1034180074737461636B5F706F70000074657374AC
:103428005F737461636B5F616C6C6F635F74687208
:103438006561643274687265616400002F686F6D3D
:10344800652F6D69616F752F70726F2F7269736365
:10345800762F7A65706879722F74657374732F6B21
:1034680065726E656C2F737461636B2F737461631F
:103478006B5F6170692F7372632F746573745F7308
:103488007461636B5F636F6E74657874732E630029
:103498000A20202020417373657274696F6E20665C
:1034A80061696C65642061742025733A25643A204B
:1034B80025733A2025730A007265736F7572636508
:1034C80020706F6F6C20697320736D616C6C65720E
:1034D800207468656E207265717565737465642003
:1034E800627566666572000028726574203D3D202D
:1034F8002D454E4F4D454D2069732066616C7365AF
:10350800290000006B5F737461636B5F706F7028D4
:1035180070737461636B2C202672785F64617461C8
:103528002C204B5F4E4F5F57414954292069732027
:10353800747275650000000072785F6461746120C0
:103548006E6F7420657175616C20746F206461748E
:10355800615B695D00000000737461636B5F706F8D
:10356800705F6661696C00002F686F6D652F6D690B
:10357800616F752F70726F2F72697363762F7A651A
:10358800706879722F74657374732F6B65726E65CA
:103598006C2F737461636B2F737461636B5F6170FD
:1035A800692F7372632F746573745F737461636BCF
:1035B8005F6661696C2E63006B5F737461636B5F38
:1035C800706F7028737461636B2C202672785F6447
:1035D8006174612C204B5F4E4F5F5741495429203D
:1035E8006E6F7420657175616C20746F202D454273
:1035F800555359006B5F737461636B5F706F70280C
:10360800737461636B2C202672785F646174612C1B
:103618002054494D454F555429206E6F74206571CB
:1036280075616C20746F202D45414741494E00005B
:10363800A40D0080140E0080140E0080980D0080E8
:10364800A40D0080000E00800A0E0080BC380080A7
:10365800DC380080F83800800C3900801839008088
:1036680030390080756E6B6E6F776E0045786365D4
:103678007074696F6E2063617573652025732028E7
:103688002564290A000000002A2A2A2A204B65728C
:103698006E656C20416C6C6F636174696F6E204657
:1036A80061696C75726521202A2A2A2A0A0000009D
:1036B8002A2A2A2A2A204B65726E656C204F4F50A1
:1036C8005321202A2A2A2A2A0A0000002A2A2A2ADA
:1036D8002A204B65726E656C2050616E69632120EB
:1036E8002A2A2A2A2A0A00002A2A2A2A20556E6B00
:1036F8006E6F776E20466174616C204572726F72CE
:1037080020256421202A2A2A2A0A00004375727279
:10371800656E7420746872656164204944203D2098
:1037280025700A4661756C74696E6720696E7374DA
:1037380072756374696F6E20616464726573732057
:103748003D20307825780A202072613A203078258B
:1037580078202067703A2030782578202074703AD5
:103768002030782578202074303A20307825780A5F
:10377800202074313A2030782578202074323A207D
:1037880030782578202074333A2030782578202026
:1037980074343A20307825780A202074353A20305D
:1037A800782578202074363A2030782578202061D2
:1037B800303A2030782578202061313A2030782539
:1037C800780A202061323A20307825782020613329
:1037D8003A2030782578202061343A2030782578CE
:1037E800202061353A20307825780A202061363A41
:1037F8002030782578202061373A20307825780ADB
:103808000000000049535200657373656E74696166
:103818006C20746872656164000000004661746120
:103828006C206661756C7420696E202573212053A5
:1038380070696E6E696E672E2E2E0A00466174617D
:103848006C206661756C7420696E2074687265619D
:1038580064202570212041626F7274696E672E0A98
:1038680000000000ADBAADDEADBAADDEADBAADDE7A
:10387800ADBAADDEADBAADDEADBAADDEADBAADDE78
:10388800ADBAADDEADBAADDEADBAADDEADBAADDE68
:10389800ADBAADDEADBAADDEADBAADDEADBAADDE58
:1038A800ADBAADDEADBAADDEADBAADDEADBAADDE48
:1038B800ADBAADDE496E737472756374696F6E204C
:1038C80061646472657373206D6973616C69676E96
:1038D80065640000496E737472756374696F6E2055
:1038E800416363657373206661756C740000000042
:1038F800496C6C6567616C20696E7374727563746A
:10390800696F6E00427265616B706F696E7400005A
:103918004C6F61642061646472657373206D6973B0
:10392800616C69676E6564004C6F616420616363F4
:10393800657373206661756C74000000537075724E
:10394800696F757320696E7465727275707420641E
:103958006574656374656421204952513A20256471
:103968000A0000002F686F6D652F6D69616F752FF4
:1039780070726F2F72697363762F7A6570687972C7
:103988002F617263682F726973637633322F636FA6
:1039980072652F7468726561642E63002828282870
:1039A8007072696F726974792929203D3D2031351B
:1039B800202626205F69735F69646C655F7468728E
:1039C80065616428287468726561645F66756E63F2
:1039D800292929207C7C20285F69735F7072696FB0
:1039E8005F6869676865725F6F725F657175616C42
:1039F8002828287072696F7269747929292C2028FF
:103A08003135202D20312929202626205F69735F32
:103A18007072696F5F6C6F7765725F6F725F6571E7
:103A280075616C2828287072696F72697479292900
:103A38002C2028282D313629292929290000000081
:103A4800415353455254494F4E204641494C205BFF
:103A580025735D20402025733A25640A0000000084
:103A680009696E76616C6964207072696F72697435
:103A78007920282564293B20616C6C6F7765642068
:103A880072616E67653A20256420746F2025640A88
:103A9800000000002F686F6D652F6D69616F752FCD
:103AA80070726F2F72697363762F7A657068797296
:103AB8002F6C69622F6D656D706F6F6C2F6D656D02
:103AC800706F6F6C2E630000626C6F636B5F66696A
:103AD800747328702C20626C6F636B2C206C737A63
:103AE80029000000090A00007561727430000000A6
:103AF8007379735F636C6F636B000000101C008048
:103B0800FC1B008000000000000000000000000016
:103B18000C3C0080143C0080983B008052756E6E0F
:103B2800696E6720746573742073756974652025E0
:103B3800730A00003D3D3D3D3D3D3D3D3D3D3D3D24
:103B48003D3D3D3D3D3D3D3D3D3D3D3D3D3D3D3D9D
:103B58003D3D3D3D3D3D3D3D3D3D3D3D3D3D3D3D8D
:103B68003D3D3D3D3D3D3D3D3D3D3D3D3D3D3D3D7D
:103B78003D3D3D3D3D3D3D0A0000000073746172CE
:103B880074696E672074657374202D2025730A008C
:103B9800534B4950000000002573202D2025730A3F
:103BA80000000000546573742073756974652025DE
:103BB80073206661696C65642E0A0000546573742D
:103BC8002073756974652025732073756363656553
:103BD8006465640A000000004641494C4544000001
:103BE80050524F4A45435420455845435554494F30
:103BF8004E2025730A00000053554343455353464E
:103C0800554C000050415353000000004641494CB8
:103C180000000000F0400080144100802041008036
:103C280020410080204100806D61696E0000000025
:103C380069646C65000000002A2A2A2A2A20426F3B
:103C48006F74696E67205A6570687972204F5320C7
:103C58007A65706879722D76312E31332E302D3396
:103C68003032302D6733376633373434202A2A2AE6
:103C78002A2A0A00215F69735F69646C6528746881
:103C880072656164290000007468726561642D3E84
:103C9800626173652E70656E6465645F6F6E0000A7
:103CA8002F686F6D652F6D69616F752F70726F2F3B
:103CB80072697363762F7A65706879722F6B657293
:103CC8006E656C2F696E636C7564652F6B736368C2
:103CD80065642E680000000021285F6B65726E65C0
:103CE8006C2E6E657374656420213D203055290063
:103CF8005F6B65726E656C2E63757272656E742D7E
:103D08003E626173652E73636865645F6C6F636B95
:103D1800656420213D2031002F686F6D652F6D6926
:103D2800616F752F70726F2F72697363762F7A6562
:103D3800706879722F6B65726E656C2F7363686536
:103D4800642E63005F6B65726E656C2E63757272AC
:103D5800656E742D3E626173652E73636865645F7A
:103D68006C6F636B656420213D2030002F686F6D98
:103D7800652F6D69616F752F70726F2F726973632C
:103D8800762F7A65706879722F6B65726E656C2F05
:103D980073656D2E630000006C696D697420213DA8
:103DA80020305500096C696D69742063616E6E6F0F
:103DB80074206265207A65726F0A0000696E697402
:103DC80069616C5F636F756E74203C3D206C696D32
:103DD8006974000009636F756E742063616E6E6F9D
:103DE8007420626520677265617465722074686109
:103DF8006E206C696D69740A000000002828285F2D
:103E08006B65726E656C2E6E657374656420213DFA
:103E180020305529203D3D203029207C7C202874E5
:103E2800696D656F7574203D3D20302929000000BB
:103E3800737461636B2D3E6E65787420213D207329
:103E48007461636B2D3E746F7000000009737461B8
:103E5800636B2069732066756C6C0A002F686F6D40
:103E6800652F6D69616F752F70726F2F726973633B
:103E7800762F7A65706879722F6B65726E656C2F14
:103E8800737461636B2E63005F77616974715F6837
:103E98006561642826737461636B2D3E776169746C
:103EA8005F7129203D3D202828766F6964202A29E2
:103EB800302900002F686F6D652F6D69616F752F50
:103EC80070726F2F72697363762F7A657068797272
:103ED8002F6B65726E656C2F7468726561642E63F2
:103EE800000000000954687265616473206D61798F
:103EF800206E6F742062652063726561746564204A
:103F0800696E20495352730A000000002F686F6DD4
:103F1800652F6D69616F752F70726F2F726973638A
:103F2800762F7A65706879722F6B65726E656C2F63
:103F38007468726561645F61626F72742E630000F9
:103F4800287468726561642D3E626173652E7573AD
:103F580065725F6F7074696F6E7320262028283130
:103F6800554C203C3C20283029292929203D3D203A
:103F78003000000009657373656E7469616C2074A4
:103F880068726561642061626F727465640A00001A
:103F98002F686F6D652F6D69616F752F70726F2F48
:103FA80072697363762F7A65706879722F6B6572A0
:103FB8006E656C2F74696D656F75742E63000000F3
:103FC800746F2D3E647469636B73203C203000006D
:103FD800742D3E647469636B73203E3D203000008D
:103FE8002F686F6D652F6D69616F752F70726F2FF8
:103FF80072697363762F7A65706879722F6B657250
:104008006E656C2F6D656D706F6F6C2E63000000B0
:104018002128285F6B65726E656C2E6E65737465FA
:104028006420213D203055292026262074696D659D
:0C4038006F757420213D2030290000002D
:1040440068330080040B0080CC080080CC0800801A
:104054000000000084330080CE080080CC0800807B
:10406400CC08008004000000A4330080360B0080DC
:10407400CC080080CC08008000000000BC33008025
:10408400820C0080CC080080CC0800800000000076
:10409400D0330080D2080080CC080080CC08008097
:1040A40004000000EC330080680B0080CC08008022
:1040B400CC080080000000000000000000000000A8
:1040C400000000000000000000000000CDAB000074
:1040D40034120000F414008003000000E04000806B
:0C40E400E0400080F5FFFFFFE443008097
:1040F0005C320080000000000000000050320080B0
:10410000043B008000000000383200800000000006
:1041100000000000443200800000000000000000A9
:10412000C04100808000000002000100C042008009
:0C41300001000000000000000000000082
:10413C003C4100803C410080000000000000000079
:04414C000F00000060
:104150005041008050410080F0440080F0440080D5
:10416000F844008000000000684100806841008041
:10417000F8440080F8440080004500800000000002
:040000058000000077
:00000001FF
