:0200000480007A
:100000009702000093824201739052306F100045B6
:020010000000EE
:02001200FFFFEE
:100014005D7106C00EC212C416C61AC81ECA72CCBE
:1000240076CE7AD07ED22AD42ED632D836DA3ADCBC
:100034003EDEC2C0C6C2F322103496C4F32200309E
:1000440096C6EF00E01B1303000021E1F3222034E5
:10005400B70300809383F3FFB3F272002D43638AE6
:10006400620013050100970000009380E0126F10F6
:100074002033A642910296C4975200009382C2BED6
:1000840003A302006313030041A0930201009753EA
:1000940000009383E3F503A14300411116C003AEAE
:1000A4000300050E23A0C3016308030097000000AA
:1000B400938080036F10203573252034B7020080AD
:1000C4009382F2FF33755500EF00801297420000CF
:1000D400938242850E05AA9203A5020003A342005F
:1000E400E700030017530000130383F08323030086
:1000F400FD132320730082421381020083238300B3
:10010400032E030263087E0897520000938242EE96
:1001140003A382002326830223289302232A230392
:10012400232C3303232E4303232053052322630567
:10013400232473052326830523289305232AA30553
:10014400232CB3052324230297530000938303AB8A
:1001540003AE03002326C30703A3020223A4620001
:10016400032183020324C3028324030303294303D7
:1001740083298303032AC303832A0304032B43042D
:10018400832B8304032CC304832C0305032D430511
:10019400832D8305A64273901234B64273900230C5
:1001A400824092412242B2424243D243624EF24ED4
:1001B400025F925F2255B2554256D2566257F257A9
:1001C4000648964861617300203000007300000007
:1001D400975200009382C2E103A382008323C306E3
:1001E4002189F32205301385030067800000000095
:1001F4000543B312A30073B34234678000000000C8
:10020400F322203437030080B3F2620013050000A8
:0A0214006383020005056780000007
:02021E00FFFFE0
:10022000130101FD232291022328610123261102DB
:100230002324810223202103232E3101232C410179
:10024000232A5101232671012324810123229101B4
:10025000130B050093840500639C06381304060005
:1002600093090500174900001309098463F8C512B2
:10027000B7070100938A05006378F6109306F00F24
:10028000B3B6C60093963600B357D6003309F900CB
:1002900003470900B306D700130700023307D7400E
:1002A000630C0700B394E400B356DB003314E6009C
:1002B000B3EA9600B319EB00135B040193050B003E
:1002C00013850A00EF0040631309050093050B0036
:1002D000931B040113850A00EF00805D93DB0B0183
:1002E000930405009305050013850B00EF00805073
:1002F0001319090113D709013367E900138A0400B0
:10030000637EA70033078700138AF4FF63688700C2
:100310006376A700138AE4FF33078700B304A7407E
:1003200093050B0013850400EF00005D1309050021
:1003300093050B0013850400EF0080579399090182
:1003400093040500930505001319090113850B009B
:1003500093D90901EF00004AB369390113860400FB
:1003600063FCA900B30934011386F4FF63E6890036
:1003700063F4A9001386E4FF93170A01B3E7C700EB
:10038000130A00006F000013B70700019306000175
:10039000E36CF6EE930680016FF01FEF138A060000
:1003A000631A06009305000013051000EF0040508B
:1003B00013040500B7070100637CF4129307F00FE4
:1003C00063F48700130A8000B35744013309F9002E
:1003D0008346090013060002B38646013306D64061
:1003E00063120612B3848440130A1000135B0401E5
:1003F00093050B0013850400EF000050130905005E
:1004000093050B0013850400931B0401EF00404A81
:1004100093DB0B01930405009305050013850B0086
:10042000EF00403D1319090113D709013367E900B3
:10043000938A0400637EA70033078700938AF4FF42
:10044000636887006376A700938AE4FF3307870019
:10045000B304A74093050B0013850400EF00C049C7
:100460001309050093050B0013850400EF004044B9
:1004700093990901930405009305050013190901D7
:1004800013850B0093D90901EF00C036B369390118
:100490001386040063FCA900B30934011386F4FF3A
:1004A00063E6890063F4A9001386E4FF93970A01C9
:1004B000B3E7C7001385070093050A008320C10234
:1004C0000324810283244102032901028329C101FB
:1004D000032A8101832A4101032B0101832BC100DF
:1004E000032C8100832C410013010103678000006D
:1004F000B7070001130A0001E368F4EC130A800156
:100500006FF09FEC3314C40033DAD400B319CB007E
:10051000B356DB00135B0401B394C40093050B00D6
:1005200013050A00B3EA9600EF00003D1309050029
:1005300093050B0013050A00931B0401EF004037DD
:1005400093DB0B01930405009305050013850B0055
:10055000EF00402A1319090113D70A013367E90094
:10056000138A0400637EA70033078700138AF4FF11
:10057000636887006376A700138AE4FF3307870068
:10058000B304A74093050B0013850400EF00C036A9
:100590001309050093050B0013850400EF0040319B
:1005A000930405009305050013850B00EF008024DC
:1005B00093960A011319090193D60601B367D9006E
:1005C0001387040063FEA700B38787001387F4FF37
:1005D00063E8870063F6A7001387E4FFB38787000B
:1005E000131A0A01B384A740336AEA006FF01FE0D0
:1005F00063ECD51EB707010063F4F6049305F00F12
:1006000033B5D5001315350033D7A6009737000052
:1006100093878749B387E70083C50700130A000261
:10062000B385A500330ABA4063160A029307100087
:10063000E3E296E83336CB00934716006FF09FE76E
:10064000B707000113050001E3E0F6FC1305800184
:100650006FF09FFBB35AB600B3964601B3EADA00D7
:1006600033D9B400B3974401B355BB0093DB0A01FF
:10067000B3E4F5001305090093850B00B319460197
:10068000EF0080271304050093850B001305090074
:10069000139C0A01EF00C021135C0C011309050033
:1006A0009305050013050C00EF00C014131404019A
:1006B00013D704013367E400930C0900637EA7009D
:1006C00033075701930CF9FF636857016376A7005E
:1006D000930CE9FF330757013309A74093850B00BB
:1006E00013050900EF0040211304050093850B005A
:1006F00013050900EF00C01B130905009305050051
:1007000013050C00EF00000F93970401131404016C
:1007100093D707013367F40013060900637EA7002F
:10072000330757011306F9FF636857016376A70083
:100730001306E9FF3307570193970C01370E0100A9
:10074000B3E7C7001308FEFF33F3070133F80901CD
:100750003307A74093DE070193D90901130503006E
:1007600093050800EF000009930805009385090030
:1007700013050300EF0000081303050093050800AC
:1007800013850E00EF00000713080500938509008C
:1007900013850E00EF00000693D608013303030112
:1007A000B386660063F406013305C50113D606015E
:1007B0003305A6006366A702E314A7BC3707010050
:1007C0001307F7FFB3F6E60093960601B3F8E800C7
:1007D00033164B01B3861601130A0000E37CD6CC16
:1007E0009387F7FF6FF0DFB9130A0000930700004B
:1007F0006FF05FCC130605001305000093F615009B
:10080000638406003305C50093D515001316160042
:10081000E39605FE67800000130101FF13830600C5
:1008200023261100130E0500930805009306060009
:1008300013070000930700001308000013F51600CB
:10084000931E1700630C050033850801333805013A
:10085000B387E700B307F8001308050013D7F801C2
:1008600093D6160033E7EE0093981800E39806FC41
:100870006388050013050600EFF0DFF7B387A700D4
:10088000630A030013050E0093050300EFF09FF6C3
:10089000B307F5008320C100130508009385070006
:1008A00013010101678000006340050663C6050669
:1008B00013860500930505001305F0FF630C06027F
:1008C00093061000637AB6006358C0001316160032
:1008D00093961600E36AB6FE1305000063E6C500B2
:1008E000B385C5403365D50093D616001356160060
:1008F000E39606FE6780000093820000EFF05FFB46
:1009000013850500678002003305A04063D8050009
:10091000B305B0406FF0DFF9B305B040938200003B
:10092000EFF01FF93305A0406780020093820000BA
:1009300063CA0500634C0500EFF09FF713850500BF
:1009400067800200B305B040E35805FE3305A040C0
:10095000EFF01FF63305B040678002008280B75584
:10096000008037450080938585B31305C5C56F109A
:10097000100B797106CE22CC42D446D621E13686C0
:100980002E87B7460080B7450080374500809386A4
:1009900086C63E849385C5C73C101305C5CC3EC6AC
:1009A000EF10004AB2452285EF10C047374500805E
:1009B0001305C518EF10C048EF101004F240624450
:1009C00045618280797126D22A87AA84B716008071
:1009D000B75500803755008081480148814793868C
:1009E00086A7130600209385050202C202C01305E4
:1009F00005CB06D622D44AD04ECEEF2000762A89E7
:100A0000EF20F04C9305401F2A842685EF10905F5D
:100A1000AA89EF20D04B330485404A85EF2010127D
:100A200037490080B7440080B7470080B745008051
:100A3000130789C61386C4C713B51900938747CF18
:100A40009306B002938545D22D3713350405225401
:100A5000B250F249130789C61386C4C7025992548B
:100A6000B7470080B7450080938787D3930620035C
:100A7000938505D74561F5BD411122C42A8413052C
:100A8000200306C6EF20803D22852244B24041016A
:100A90006F10F044411122C437540080130504CA7A
:100AA00006C6EF10B042130504CA293F2244B240E3
:100AB00037550080130585C5410129B7797106CEE8
:100AC00042D446D61DED368637450080BA862E873D
:100AD000B74500803C109385C5DD1305C5CC3EC6E7
:100AE000EF100036B2453745008013054516EF106C
:100AF0006033374500801305C518EF106034EF10E0
:100B0000A06FF24045618280011122CC81453754AB
:100B1000008006CE26CA4AC84EC652C456C22A8A89
:100B2000130404D2EF10104E37490080B7490080FB
:100B3000B7440080B74A0080018D93874916130798
:100B400049D81386C4DD930660039385CAEA13353A
:100B50001500AD3781455285EF10D04A2104018D33
:100B600093874916130749D81386C4DD930660039B
:100B70009385CAEA1335150091378145528537545C
:100B80000080EF103048130404D3B74A0080018D71
:100B900093874916130749D81386C4DD9306B0031B
:100BA00093854AED13351500113F81455285EF10AD
:100BB00070452104018D93874916130749D8138680
:100BC000C4DD9306B00393854AED13351500FD355A
:100BD0008145528537540080EF10D042130404D46D
:100BE000B74A0080018D93874916130749D81386A9
:100BF000C4DD930600049385CAEF133515007D3DCF
:100C000081455285EF1010402104018D6244F2406D
:100C1000224A93874916130749D8B2494249138695
:100C2000C4DD9385CAEFD244924A9306000413357B
:100C30001500056161B5411122C406C62A84E93553
:100C400008402244B240B74700803747008037460B
:100C50000080B745008093874716130707DA93068D
:100C6000E0041306C6DD938505E313351500410145
:100C7000B1B5411106C6493DB24037550080130554
:100C800005D541016F206034411122C42A843755B3
:100C9000008005468145130505D506C6EF20A02B2B
:100CA00037150080A285130505D2EF000078228554
:100CB0002244B240410189BD0111B755008026CAC6
:100CC000938405D2938505D206CE22CC2A84EF10D8
:100CD000F023938584002285EF105023B7550080C0
:100CE000938705D31386870090C3228523A407002A
:100CF000938505D3EF101022B7570080938707D450
:100D0000138787002C00228523A4070098C33EC4C4
:100D10003AC6EF10502AF2406244D2440561828004
:100D2000411122C406C62A84413F08402244B240F1
:100D3000B74700803747008037460080B7450080BE
:100D400093874716130707D9930680041306C6DD59
:100D5000938505E63335A00041018DB3011152C4DE
:100D6000375A00804EC6AA8913050AD606CE22CC71
:100D700026CA4AC8913703A50900B74400803749FD
:100D8000008037440080B7450080930749161387D9
:100D900004DB1306C4DD93069007938585F2333593
:100DA000A000293B13050AD6853303A509001306C5
:100DB000C4DD6244F240B249224A930749161387C0
:100DC00004DB4249D244B74500809306D00793859F
:100DD00085F4133515000561D5B1011122CC3754C6
:100DE000008026CA0546AA848145130504D506CE8F
:100DF0004AC8EF204016B7160080B7550080375517
:100E000000802687814801488147938626C71306BC
:100E100000209385052202C202C0130505D7EF20EA
:100E2000C0332A892685493D130504D5FD55EF2099
:100E3000601F6244F240D2444A85424905616F20F6
:100E4000E04F411122C42A84375500808145054670
:100E5000130505D506C6EF2000102285B13DA285F9
:100E60002244B24037150080130565C3410175ABBC
:100E7000411122C437540080130504D606C6EF1072
:100E8000F004130504D6913F2244B2403755008048
:100E9000130585C4410191B7411122C43754008024
:100EA000130504D606C6EF107002130504D6E93BFD
:100EB0002244B24037550080130585C44101E9B38F
:100EC000411122C437540080130504D606C6EF1022
:100ED000E07F130504D6B5372244B2403755008071
:100EE000130585C44101B1BF411122C437540080AC
:100EF000130504D606C626C2EF10407D930404D61F
:100F00008840B74700803747008037460080B745A4
:100F100000801335150093874716130707DC9306E7
:100F2000700B1306C6DD9385C5E8493E130504D64C
:100F30002244B2409244410115B5411122C43754B4
:100F40000080130504D606C6EF104078930504D63A
:100F50002244B240371500801305C5D54101F1A1E7
:100F6000797106CE42D446D631E136862E87B74611
:100F70000080B7450080374500803C10938686F698
:100F80009385C5F71305C5CC3EC6EF00706BB2451F
:100F90003745008013054516EF00D06837450080BF
:100FA0001305C518EF00D069EF100025F240456128
:100FB000828001110A8506CE22CC26CA4AC8EF10CB
:100FC000E07081450A85EF10F003B744008037498F
:100FD000008037440080B745008093074916138787
:100FE00084F61306C4F7F1469385C5FC1335150046
:100FF000853F930540060A85EF10D000B745008075
:1010000093074916138784F61306C4F7F5469385AC
:1010100085FF13351500A937F2406244D244424996
:10102000056182804111B755008026C2938405DE98
:10103000938505DE06C622C42A84EF10206D9385B1
:1010400084002285EF10806C938504012285EF10C7
:10105000E06B22852244B240938584019244410191
:101060006F10C06A797106CE42D446D631E5374753
:101070000080B7460080B7450080374500803C10AF
:101080001307C7EA93860602130630029385C5024A
:101090001305C5CC3EC6EF00B05AB24537450080B7
:1010A00013054516EF001058374500801305C51885
:1010B000EF001059EF104014F24045618280011199
:1010C00022CC37540080130404DE26CA4AC84EC618
:1010D00052C456C25AC006CE2A8B93040402374A21
:1010E0000080B74A0080B7490080374900808145B9
:1010F0005A85EF102071018D93874A1613070A0253
:10110000930630021386C9029305C9EA1335150008
:101110002104893FE31D94FCF2406244D2444249D9
:10112000B249224A924A024B05618280411122C48F
:101130002A84374500801305C50706C6EF005050C6
:101140002285B53F374500801305C508EF00504F95
:1011500022852244B2404101F1B5411126C2AA8440
:10116000374500801305050A06C622C4EF00504D1E
:101170002685B13737540080130504E0EF10F06482
:10118000374500801305450BEF00904B2685593DF0
:10119000130504E02244B240924441016F10F06212
:1011A000397122DC37540080130504E126DA4AD86D
:1011B00052D456D25AD05ECE62CC66CA6AC806DE17
:1011C0004ED68144EF108050374D00803759008053
:1011D000375C0080B75B0080B71C0080374B008015
:1011E000B71A0080374A0080A6851305CD0CEF00A2
:1011F000304505468145130509E0EF10D05581477C
:1012000081480148130704E19386AC1513060020BA
:1012100093050C4202C202C013850BE2EF10F0737B
:10122000AA891305CB0EEF00B041130504E1DD3BA5
:10123000930504E11385CA12CD2AFD55130509E073
:10124000EF10505EFD55130509E0EF10B05D13057A
:101250000A10EF00F03E130504E195354E85EF20AE
:10126000E00D374500801305C518EF00703D85047B
:1012700093070002E39AF4F6F2506254D2544259B2
:10128000B259225A925A025BF24B624CD24C424DF6
:1012900021618280411106C622C499476302F5028A
:1012A000EF1010640DC1EF10B06321E1B74500806D
:1012B0009385852E374500801305C52FEF005038E4
:1012C000EF00103AF5BFEF10906271FD37540080C7
:1012D000130404FF0C44374500801305C531EF00AB
:1012E00030360844EF208005E1BFB7450080938584
:1012F000452EC9B75D71A2C4A6C286C69947AA8405
:101300002E8463E9A7083747008093172500130749
:101310000711BA979C4382873745008013058516CD
:10132000EF001032EF1090427C4083280401032824
:10133000C4003ED83C40584014403ED65C5C30442B
:10134000AA853ED41C5C374500801305C51E3ED2DD
:101350005C583ED01C583ECE5C543ECC1C543ECA19
:101360005C503EC81C503EC65C4C3EC41C4C3EC249
:101370005C483EC01C44EF00B02CA2852685193F76
:10138000374500801305051961BF374500801305F7
:10139000C51A79B737450080A6851305851CEF006F
:1013A000302A49B7411122C406C62A847326203444
:1013B00006060582954763E3C70237470080931707
:1013C00026001307C712BA978C43374500801305D0
:1013D000C514EF00F026A2850145293FB7450080DE
:1013E00093854514DDB7411106C6F32520343745F2
:1013F0000080860585811305C541EF007024B7453F
:101400000080938545341145F535B75700809387A3
:1014100087C6984311CB03A3070023A00700B75743
:10142000008003A5C7C602838280A147F3B70730B7
:10143000375700802324A7C6375700802326B7C616
:1014400073000000A18BF3A707308280411106C60C
:10145000EF100004EF005022EF10A0081751000019
:101460001301419CB7120000938202801691F93F4C
:101470006F00200C0000797122D426D24AD04ECEC3
:1014800006D6B689BD46AA842E8432896393D806CF
:10149000B72600809386A6466392D906C256C685B3
:1014A0002685114642C63EC43AC2EF10D067A24715
:1014B000930509FBA29523AE040423A00406C19959
:1014C0009CD989671247324893870788FCC5B717AC
:1014D0000080B25022549387074723A43503D8D500
:1014E00023AA0503BCC58CD402599254F249456124
:1014F0008280938608017946E372D6FA37460080E7
:10150000B745008037450080E14613064644938581
:10151000C5471305055246C2EF0090129248374561
:101520000080C1563946C68513050554EF00501199
:1015300001A04111AA872E85B285368606C68297FC
:10154000EF10D020EF10905F93971500AE97139790
:1015500027005C45BA970307B5006353B7009C4367
:101560001357F6417D8B329715870A07BA979CC2AD
:101570001375F60182800111740006CEF1373247EF
:1015800085473395A7001C43F240C98F1CC30561F2
:1015900082800111740006CE453F3247854733955E
:1015A000A7001C43F2401345F5FF7D8D08C305617C
:1015B0008280011126CA444122CC2A840355850029
:1015C000A6854AC84EC652C456C25AC006CEEFF0CF
:1015D0006FA283290400834AA400FD572A8AAA998E
:1015E000A305F40001497D4B6341590381448357AE
:1015F000840063CFF404F2406244D2444249B249C9
:10160000224A924A024B05618280A6855285EFF0FC
:101610002FAA131719004A979317270058443E978B
:10162000930747005CC31CC76349AB00A3052401B3
:1016300089808D04F198050945BF7D059357F541D3
:10164000FD8BAA9795878A0723203701BE99CDB7CE
:101650004C402685EFF00F9A1C40268681453E952A
:101660005C4485041387470018C1984758C19847C0
:1016700008C388C7228501379DBF1D71A2CCCEC685
:10168000DAC086CEA6CACAC8D2C4D6C25EDE62DCC2
:1016900066DA6AD86ED68010034EA500FD599317FE
:1016A0002E00BD0793F7077F3301F1405C410A8BA1
:1016B000DA888D07F19B2320FB008147938AF7FF8F
:1016C00063D0C70391CB03A8C8FF135828000D08A7
:1016D0001378C8FF23A0080103A808006379B802A3
:1016E000FD576397FA04232007005155130104FAAC
:1016F000F6406644D6444649B649264A964A064BC1
:10170000F25B625CD25C425DB25D25618280032344
:10171000C500139817003E980A081A98130348004A
:101720000328480063036800BE898507910879B7DC
:10173000E38BF9FA834705010149858B91C721495C
:10174000733909301379890093971900232AE4FA31
:10175000CE9758458A079107BA97B68C232CC4FABE
:10176000AA847D5703AA0700638347139397290030
:1017700003274A00330DFB0083270A0083250D0051
:10178000A14D1CC3D8C388403305AA40EFF0CF91C8
:101790002A86CE852685F53B85091387F9FF634D9B
:1017A000570383C70401858B99C3732909308327A5
:1017B00084FB884023A057018A0A569B83250B008F
:1017C0003305AA40EFF04F8E832744FB23A0AC00E3
:1017D000014523A0470119BF884083250D00854B93
:1017E0003305AA40EFF04F8C93981900931725000A
:1017F000CE98232EF4FA8A0803274D00DE8523268F
:1018000014FB3A852328E4FAEFE0DFFE8327C4FBCC
:10181000330CAA00CE853386FB002685A93B03271F
:1018200004FB9040CC407D1703D584006297118F54
:101830002328E4FAEFE01FFC032704FB8328C4FA03
:101840006370A702D8444697130647002320CC00B4
:1018500010472322CC001047232086012324870130
:10186000850B9147E39AFBF803C70401058B09E751
:1018700001498509110D15B77329093003C7040102
:10188000058B7DD773B90D3013798900DDB7FD194C
:1018900093074AFFE398E9EC014A21B71D71A2CCF6
:1018A000A6CAD2C486CECAC8CEC6D6C2DAC05EDE4A
:1018B00062DC66DA6AD86ED680100347A500AA8477
:1018C0000A073D071377077F3301E14058410A8A31
:1018D000D2860D07719B2320EA000545910663FB24
:1018E000A50603C704012E8CB289058B014911C7D7
:1018F00021497339093013798900114D13172C00D0
:101900005297832A070083AB04004E85D685EFE00B
:101910007FEE138BFAFFB30D6501AA9BCC4003D574
:101920008400EFE03FED63EFAD0237460080B7453E
:10193000008037450080130505529306200A1306E0
:1019400046579385855AED29374500801305455C38
:10195000C52901A003A7C6FF050509830D07719BD3
:1019600098C2ADBF4E86E2852685313113171C0023
:10197000629793162700D84436979306470023A012
:10198000DB00144723A2DB00144723A076012324A5
:10199000770103C70401058B15EB814B5E89631347
:1019A0000C0483C70401858BF9E3130104FAF640A4
:1019B0006644D6444649B649264A964A064BF25BE7
:1019C000625CD25C425DB25D256182807329093020
:1019D00003C70401058B71D3A147F3BB073093FB09
:1019E0008B006DBF9306C4FB4E86E2852685A93E1B
:1019F0008326C4FB1357F5410D8B2A978842719BB0
:101A0000BD473357E5003D8BE31DF7F8814C93FD4F
:101A1000C9FF33869D013285D6852324C4FAEFE0C1
:101A20007FDDB3066501AA8BCC4003D58400232655
:101A3000D4FAEFE03FDC8326C4FA032684FA63FD80
:101A4000A600E2852685B1369440B69B03A64B00DE
:101A500083A60B0014C2D0C2850CE39CACFB13D64A
:101A6000F9410D8AB2997D1C93D9294041BDF3AB50
:101A70000B3025BF014582809C4185079CC1B7572B
:101A8000008003A3C7BE0283397122DC4ED652D434
:101A90005AD06AC806DE26DA4AD856D25ECE62CC62
:101AA00066CA6EC6AA892E8A328D368B0544635368
:101AB000E0003A848547930C00026314FB00930C0A
:101AC0000003B7D49A3B0549A94A014C9384F49F7B
:101AD000894D938B140063140C0063F2A407DE8518
:101AE0006A85EFE0FFDCD2851305050382990509BD
:101AF000054CDE856A85EFE03FE02A8DA945268505
:101B0000EFE01FDBFD1A8547AA84E394FAFCD28537
:101B100013050D0382998D4733042441630FFB02A3
:101B2000F2506254D2544259B259225A925A025B2C
:101B3000F24B624CD24C424DB24D21618280E34A5D
:101B400054FBE3E86DFBD28566858299050955B79C
:101B5000D2851305000282997D14E34B80FEC9B73C
:101B6000B757008023A6A7BE82805D71A2C4A6C21B
:101B7000CAC04EDE52DC56DA5AD866D26ECE86C65F
:101B80005ED662D46AD02A84AE84328BB68C014A87
:101B90007D598149814D854A03450B0005E1B640D9
:101BA000264496440649F259625AD25A425BB25BC5
:101BB000225C925C025DF24D61618280639A0D004D
:101BC000930650026307D524A6850294050BE9B756
:101BD00093064006630BD50E63EBA60493069003B1
:101BE00063E7A602930610036375D50C9306D00233
:101BF0006306D522930700036303F50A1307500217
:101C0000631FE500A685130550020294E5A0930624
:101C100080056303D512130730066304E51EA6850D
:101C2000130550020294A68503450B00F9BF9306E5
:101C300000076309D50E63EFA600930690066306BE
:101C4000D5089306C0066300D50893068006E30F07
:101C5000D5F6F1B7930650076308D50A63EAA602E2
:101C600013073007E31DE5FA138C4C0083AC0C001E
:101C7000E68B03C50B00631C05168D476398F900BE
:101C8000B38B9B41B30B794163477017E28C9DA0E6
:101C9000930680076302D50A9306A0074DBF635CD5
:101CA0000900638F0916130905FDE39109F28949BB
:101CB00031BFE34A09FE9316290036990609130934
:101CC00009FD2A99DDB7050A11B763C74A0303A6C0
:101CD0000C00910C635B0600A6851305D00232C48C
:101CE000029422467D193306C0404A87CE86A685D7
:101CF0002285593B814DD9BD93877C0013F787FF1F
:101D0000930C87001043F9B763C64A0103A60C0081
:101D1000910CE1BF93877C0013F787FF930C87003A
:101D20001043E1B7A685130500030294A6851305A9
:101D3000800702942149854963C34A0783A70C00A1
:101D4000910C3EC42146014C014DA145A247938B05
:101D5000F5FF13952B0033D5A7003D8929ED930698
:101D6000000363140D006390550736956205A68540
:101D7000618532C60294050C3246639B0B028D4688
:101D8000814DE395D9E413171900330C8741E353D0
:101D900080F7A6851305000202947D1CCDBF9387B2
:101DA0007C0093F687FF9C42938C86003EC459BF0B
:101DB0006E8DDE8561BFA54793067005E3E7A7FA40
:101DC000930600035DB79307F6FF3EC66348C9005C
:101DD00063985901A6851305000302943246D1BFCA
:101DE0008947E39DF9FEA68513050002FDB7A68588
:101DF000850B0294BDBDA685130500020294FD1B50
:101E000061B503A50C00938B4C00A6850294DE8C73
:101E1000D5B5014A7D598149854D4DBB8D497DB36D
:101E200085496DB301112A8637250080AE861305DA
:101E300085A76C0006CE02C60D3BF240056182808C
:101E400039712ED24C1006CE32D436D63AD83EDA7C
:101E500042DC46DE2EC6F937F24021618280828064
:101E6000A147F3A707307300501082808547339550
:101E7000A700732545308280A147F3B70730735020
:101E80004030735040348280411122C426C23754FE
:101E9000008006C6A947AA84130404C76317F50087
:101EA0000840B5455C41DC438297084093F5F40F48
:101EB0005C41DC438297B240224426859244410132
:101EC000828037250080130585E859B937450080A1
:101ED00041111305855C06C6152BB757008023A852
:101EE000A7C6C537B240014541018280B70710F04F
:101EF00003A747F403A507F483A547F4E39AE5FE97
:101F00008280011122CC06CE26CA4AC84EC652C4CF
:101F1000214473340430B7540080938484C7F93764
:101F200003A9040003AA4400AA8733052541B3B7D7
:101F3000A700B385454175661306064C81469D8D05
:101F4000EFE00FAEAA89F5659385054C4E85EFE06D
:101F50007F8A2A993335A900529523A02401C8C04D
:101F60002188732404306244F240D2444249224A18
:101F70004E85B24905616F10C065411106C6BD3777
:101F8000F5679387074C370710F0AA97FD5623266D
:101F9000D7F433B5A7002E952324F7F42326A7F40E
:101FA0001D45E935B240014541018280CDED011169
:101FB00022CC06CE26CA4AC84EC652C4FD572A8431
:101FC0006315F50025651304E5BCA144F3B40430A2
:101FD000313FA567AA899387E7BC1305F4FFA18861
:101FE00063DFA7063E8575649305044CEFE09F8090
:101FF000B7570080938787C703A9070003AA470044
:102000009307F44BB3872741CE973E959305044C35
:10201000EFE01F8A9305044CEFE0CFFDB30939418F
:10202000AA999307703E63C537011304044C2295A7
:10203000B70710F02A997D5723A6E7F43335A90096
:10204000529523A427F523A6A7F4F3A40430F24065
:102050006244D2444249B249224A05618280E35433
:1020600005F8014549B78280411122C406C62144C2
:1020700073340430A53DB757008083A787C7F56543
:102080009385054C1D8DEFE0BF82218873240430B9
:10209000B2402244410182808347050003C7050006
:1020A0006393E70081E73385E74082800505850576
:1020B000E5B7B347B5008D8B95CFAA870147631766
:1020C000E60482807DDE850503C7F5FF85077D1662
:1020D000A38FE7FE13F7370075F78D463308E64008
:1020E00063EC06011357260093162700158EB6974A
:1020F000B695E9B7AA87F9BFB388E50083A80800B9
:102100003388E700110723201801C9BF3388E50091
:1021100003480800B386E70005072380060145B79A
:1021200093F6F50FAA8713F737001DEB93F5F50F1C
:1021300013978500D98D13970501D98D3383C70077
:102140003E870D48B308E340636218031357260027
:1021500093152700AE970D8E3E96639DC700828033
:102160007DDE8507A38FD7FE7D1675BF1107232E51
:10217000B7FEC9BF8507A38FD7FEC5B7411102C6F9
:10218000B24785073EC6B70701F08CC34101828084
:102190007D55828001458280011122CC1C45375437
:1021A000008026CA130404BFB754008006CE4AC874
:1021B0004EC6938404C88549232004002A8923A09D
:1021C000340182978327490023203401829789476D
:1021D0001CC08327C90082978D471CC0624423A07E
:1021E0000400F240D2444249B249375500801305F9
:1021F00005E905616F00705D375500804111B757E3
:1022000000807D57130505E906C623A0E7C8EF0047
:10221000D05BEF00B053B24041016F1020121D712E
:10222000A6CAB754008083A744C886CEA2CCCAC829
:10223000CEC6D2C4D6C2DAC05EDE62DC66DA6AD846
:102240006ED663C90706375400800546AA892E8CCE
:10225000130504E98145EF00105037450080CE8515
:102260001305C55FEFF0DFBD3749008013054961F5
:10227000B74A0080EFF0DFBC938444C8014A22CE05
:10228000B75C0080375B0080372D0080B75D008031
:10229000B74B0080938A0A5F83274C009DEBCE8565
:1022A00063030A0C3745008013054568EFF05FB9FA
:1022B00085479CC0F6406644D6444649B649264AFE
:1022C000964A064BF25B625CD25C425DB25D256170
:1022D000828083250C00B74700801385C765EFF027
:1022E0003FB602C283270C0162871306004093E7C2
:1022F0008700FD58014893068D193EC093850C62F6
:10230000814713050BEAEF005065F247FD55138531
:1023100007E9EF00305193870DC813050BEA80439E
:10232000EF10C001B7570080938707C89843050492
:10233000F9571334140003260C006311F702B74554
:1023400000809385056713858B67EFF07FAF1305DA
:102350004961EFF0FFAE229A510C3DBF9317240064
:10236000D6978C43CDB7374500801305C569EFF08C
:102370003FAD9C40B337F0002DBFB757008083A717
:1023800047C8411122C43745008006C63744008043
:102390001305456191CFEFF0BFAAB7450080938543
:1023A000856B1305046C2244B24041016FF05FA9B4
:1023B000EFF01FA9B74500809385856DDDB741110A
:1023C00006C6EFE0CFD9B240410145BF1317250043
:1023D000B747008005059387476F0A0541113E976F
:1023E000AA9722C426C20043844306C663679400AA
:1023F000B24022449244410182801C402285DC4349
:10240000829719C1232204003104CDB74111B75777
:10241000008026C2B754008022C406C6138447C079
:102420004AC0938747C0938444C3631894002A89A1
:102430003E84631C9400014415A0584009C718400D
:102440001843630DA7003104CDB75C4099E3310414
:10245000CDB71C404A858C43813175F92285B24045
:1024600022449244024941018280411122C426C281
:1024700006C621448944F3370430EF00B07B63C3C0
:10248000A40005458545EF104011EFF07F9DE5B7AD
:1024900037550080B7570080130685C69387C7015C
:1024A0003386C7408145130585C69DB9411109454D
:1024B00006C6293F3745008013058571EFF05F9808
:1024C0000D452937EF009055DD3DB75700809387C4
:1024D00007F803C7C700799B2386E700B240410194
:1024E0008280357126CB04081306000781452685B6
:1024F00006CF22CD4AC94EC7EFF09FC237540080A5
:10250000B7670080930904FF93870762014523A200
:10251000F9006D3D05455D3D9307101023A499001A
:10252000231EF100EF00D007B74700809387877024
:10253000375900803EC2B72600808547B7650080C6
:10254000930409F83EC001478147814801489386BA
:10255000C64A13060020938505A2130509F823A097
:102560009902EF00503D83C7D400130404FF13F712
:10257000B7FFA386E400ED8B81EB9850FD57631500
:10258000F700130509F83923B747008093870771CF
:102590003EC2375500808547B7260080B76500806A
:1025A000930405F13EC0BD48014881470147938629
:1025B000A64613060020938505C2130505F1EF001A
:1025C000903783C7D40044C42145ED9BA386F40013
:1025D000B7570080938787001CCC5CCC73350530DF
:1025E0002189EFD0FFBE8347D500FD8B91E71851BD
:1025F000FD576313F70079A98280797122D426D21E
:102600004AD04ECE06D652CC2A842E89B28936C6FE
:10261000A144F3B4043021055523A188B24615C165
:102620002A8AD13723260A06232A3A012685152E1F
:102630000145B250225492540259F249624A45610E
:10264000828085CA2145EF10802CAA875155F5D389
:10265000054723A2370198C3984393763700631E3A
:1026600009001840558F98C358401CC061F35CC0E6
:1026700075BF23A00900CE87C5B703270900719B4A
:1026800001EF94C3544081E65CC01CC045B798423A
:102690000D8B5D8F98C2E1BF558F98C3032509004C
:1026A0000D89C98F2320F90051B7411122C406C6F4
:1026B0002A8401C91C418D8B89C7404199C1EF1003
:1026C00060242285B2402244410182809307850024
:1026D00023200500232205001CC55CC58280411112
:1026E00022C406C626C22144733404302105218841
:1026F000F12119C5AA84C53D23A6040623AA040016
:1027000022852244B24092444101A1AC2E864C4124
:102710008146E5B5011106CE22CC26CA4AC84EC66E
:1027200052C456C299C1328A05EA37460080B7457D
:10273000008037450080130505529306A00E13064E
:10274000467593850578EFF0AFEF374500801305A8
:102750000579EFF0EFEE01A0AA892E84A144F3B42D
:102760000430930A850056859129A1882A89631A25
:10277000090083A749009DEB23A0890023A24901FA
:1027800021A84A858D35232A890000402326090681
:1027900056852D212A8961FC6244F2404249B249A2
:1027A000224A924A2685D244056165AA8C438D89C6
:1027B0004D8C80C3E1B7411122C42E848C4106C6E2
:1027C00085E937460080B74500803745008013050E
:1027D000055293068010130646759385857AEFF0AF
:1027E0002FE6374500801305457CEFF06FE501A02B
:1027F00050400D37B240232004002322040022441D
:1028000041018280411122C406C6AA872144733443
:1028100004300841218815C11841D443719B98C3E5
:102820006313D500D8C385454935AA87732404307E
:10283000B24022443E85410182802E8689E5732480
:1028400004308147F5B79385870022852923814786
:1028500065F1B757008083A787FFDC4BD1BF4111DB
:1028600006C6EFF07F80B757008083A7C7C8B24085
:10287000375700803E952320A70081453E854101C2
:102880006F00B05121457335053021898280411197
:1028900022C437540080930704FF26C2C45306C6DF
:1028A00093874702130404FF6383F40091E04444D8
:1028B0001C4405ED9DCB03C7D7007D8B1DE79453CA
:1028C0007D576394E60283D6E7001307F007637E23
:1028D000D70037570080032707C06388E7001CD064
:1028E000B240224492444101828063839700853F35
:1028F00004D0FDB7011106CE22CC26CA4AC84EC666
:10290000AE84AA894137B7570080A9452A84138528
:10291000990023A00700EFD03FF9B757008037593F
:1029200000802326A9C823A497C821880D3F7324BB
:102930000430F2406244D2444249B2490561828087
:10294000411122C406C62A84353FAA870840631372
:10295000A4000145A18BF3A70730B24022444101F6
:102960008280B7570080938707FF94432A8799E6B0
:1029700094479C536384F6006FD09F85218B732707
:1029800007308280411122C437540080130404FFB1
:102990001C4406C626C283C7F70085EB3756008065
:1029A000B755008037450080130505529306701D0A
:1029B000130686899385458CEFF08FC837450080D4
:1029C0001305455CEFF0CFC701A01C4085CB3756FF
:1029D0000080B755008037450080130505529306E7
:1029E000801D1306868993858585EFF06FC5374571
:1029F00000801305455CEFF0AFC401A061351844B9
:102A0000AA8405458347F700A1888507A307F70037
:102A1000BD3DF3A404302145733505302244B24056
:102A200092442189410135BFB757008083A707C071
:102A30006395F50237560080B74500803745008022
:102A400041119306D021130686899385457F13058E
:102A5000055206C6EFF0CFBE01A01C416319F50078
:102A60005C4188C1DCC15C418CC34CC18280EDDB20
:102A70000387E5008386E7006358D700D8439CC1ED
:102A8000D8C10CC3CCC382805441E38BD7FC9C4398
:102A9000F5F3F9B7411106C622C426C2AA84DD3374
:102AA0002A8437550080A68513054501B53F83C7A5
:102AB000D4000145218893E70704A386F400C13BB5
:102AC00073240430B24022449244410182808347FF
:102AD000D500FD8B91E71851FD576313F7005DBFDB
:102AE0008280B757008083A707C06395F5023756E9
:102AF0000080B74500803745008041119306C02211
:102B0000130686899385457F1305055206C6EFF0A7
:102B10002FB301A0D8419C411CC3D8C3828041116E
:102B200022C426C22A8406C6EFF0DFD5AA84084450
:102B300015E137560080B755008037450080930671
:102B40001015130686899385858013050552EFF0CD
:102B50002FAF01A0A28571378347D400A188F59BD0
:102B6000A306F400F3A4043023240400B24022445A
:102B7000924441018280411122C406C62A8445370D
:102B8000130584012244B24041016F00D00783271E
:102B900005FF411122C426C206C62A84930485FE7D
:102BA00099C32685AD3F834754FFB2402685ED9BF0
:102BB000A30AF4FE22449244410111BF4111814510
:102BC00022C406C6EFF0DFD72A8411C5893F13055A
:102BD0008401EF0050032285B240224441018280EB
:102BE00001114AC837590080130909FF06CE22CCCB
:102BF00026CA4EC62A8493094902EFF0BFC8A285AF
:102C0000AA844E85F93DA2854E85393D8347D4007F
:102C100003258900A18893E70704018DA306F4002A
:102C200013351500EFF0BFC6F3A40430F240624440
:102C3000D2444249B24905618280B757008083A7D8
:102C4000C7C8B9CBB7570080938707FF984793064B
:102C5000F0070356E70063E1C604B7560080030699
:102C6000E70083A686C86349D602B756008083A6CC
:102C700006C06303D7021053FD56631FD600944B62
:102C8000634AD50041113A8506C6993FB2404101D9
:102C90006FF0FFBC898E94CB8280411122C426C282
:102CA0002A8406C64AC0EFF0FFBD8347D400AA8439
:102CB00093F7070495C737590080130909FF1305D7
:102CC0004902A285393D8347D4000325890093F743
:102CD000F7FB018DA306F40013351500EFF03FBBA1
:102CE000A188F3A40430B240224492440249410135
:102CF0008280411122C426C22A844AC006C6AE84FC
:102D00003289613F8347D40093E72700A306F4008C
:102D100091C404C4A2852685EFF01FD1FD57630638
:102D2000F902A94513059900EFD01FB81306150045
:102D3000130584012244B24092440249B735008011
:102D40009385E5B841016F000076B2402244924479
:102D50000249410182804111B757008022C42A8470
:102D600003A587FF06C6713722852244B240410180
:102D70006FD00FC6411126C206C6AA8422C40145DF
:102D800080406383840011E4B240224492444101B4
:102D900082802285CD332285EFF07FD30545CDB7E4
:102DA000B7570080938707FF13874702D8D398D778
:102DB000814501456FF01FB4411122C43754008092
:102DC000832704FF06C626C24AC085CB375600803B
:102DD000B7550080374500801305055293066030D3
:102DE0001306868993858585EFF08F8537450080AA
:102DF0001305455CEFF0CF8401A0130404FFB7571F
:102E00000080184483A707C06305F702EFF09FA76F
:102E10000C4413094402AA844A85EFF09FCC0C4469
:102E20004A85A188EFF05FC00545EFF05FA6F3A4E7
:102E3000043018441C50630DF700214573350530EC
:102E40002244B24092440249218941016FD04FB8D7
:102E5000B24022449244024941018280797122D4D5
:102E600037540080130404FF1C4006D626D24AD0F3
:102E70004ECE85CB37560080B75500803745008051
:102E8000130505529306403213068689938585857E
:102E9000EFE01FFB374500801305455CEFE05FFA6C
:102EA00001A0FD576319F50237560080B745008031
:102EB0003745008013050552930650321306868964
:102EC0009385057EEFE0DFF7374500801305455C0D
:102ED000EFE01FF701A019E92AC6F93D3245B250CB
:102EE000225492540259F24945618280A945250530
:102EF000EFD09F9B93091500EF00A07CB384A9003D
:102F00002149733909300844EFF03FD90844B735F7
:102F100000804E869385E5B861057123137589009D
:102F2000EFD00FABEF00E079898C0145E35990FABF
:102F30001306803E8146268593D5F441EFD0DF8D80
:102F4000130640068146EFD0AFAD51BFB7570080A2
:102F500003A587FF8280411106C605EA3756008027
:102F6000B755008037450080130505529306D003FE
:102F70001306C68E93858591EFE09FEC3755008050
:102F800013054592EFE0DFEB01A06379B6023756F7
:102F90000080B75500803745008013050552930621
:102FA000E0031306C68E9385C593EFE07FE937559E
:102FB000008013054595EFE0BFE801A0B2400CC5C5
:102FC00050C508C148C141018280411122C44AC094
:102FD00006C626C22A892144733404302188EFF0C2
:102FE000FFBD15C58347D500AA84FD8B99E718510D
:102FF000FD576314F700EFF0FFA923A6040622850E
:103000002244B2409244024941016FF09F95032748
:1030100089008327C900998FB337F000BA9723241A
:10302000F900F1BFB757008083A707FF2E869DCB1D
:1030300095C937560080B75500803745008041114B
:1030400013050552930630081306C68E9385C5975F
:1030500006C6EFE0FFDE374500801305455CEFE074
:103060003FDE01A0A147F3B707301845A18B19C770
:103070007D1718C5F3A707300145828009E6F3A73D
:10308000073041558280AA853E856FF0DFCC411123
:1030900022C426C206C6AA8421442E857334043075
:1030A000A9452505EFD05F80B735008013061500D0
:1030B0009385E5B813858401FD26218873240430A7
:1030C000B24022449244410182808347D500FD8B67
:1030D00099E71851FD576314F7006FF0BF9B82808A
:1030E000B757008003A507FF3335A0008280B7578C
:1030F000008083A787FF03C5C7000589828041112F
:1031000022C406C62144733404300347D500218805
:103110009376470099E673240430B240224441017B
:1031200082806D9BA306E5004D3722852244B24084
:1031300041016FF01F830111025322CC06CE1AC049
:103140002A84EFE04FB3B757008083A787FFF24090
:10315000BC573CD46244056182803753008003230E
:1031600003FF011126CA06CE22CC92546309030242
:1031700037560080B755008037450080130505524B
:103180009306801A1306069B93858585EFE05FCB37
:10319000375500801305059EEFE09FCA01A002533A
:1031A00002C22A841AC0413FFD576385F40089E8B2
:1031B0002285B1372285F2406244D2440561828083
:1031C000A6852285E935FDB73C51411122C406C6CA
:1031D0002A8491C382978347D40013F7F70115E33C
:1031E00014507D57639FE6002285EFF01FAB8347A5
:1031F000D400B24093E78700A306F40022444101C3
:103200008280898B81C72285EFF07F911850FD570E
:10321000E30FF7FC13058401FD22D1BF7971B75785
:1032200000804ECEB759008022D426D206D64AD08E
:10323000138447C3938447C3938949C3636E34039C
:10324000B757008003A707FF29CF37560080B7552F
:10325000008037450080130505529306200F1306A2
:10326000068293858585EFE0BFBD37450080130555
:10327000455CEFE0FFBC01A05C543EC21C503EC068
:103280005C488328C401032884011848544410442E
:103290004C400840EFF03FEA1C40E0CF1304040329
:1032A00071BF938707FF984785468347F700639967
:1032B000D70237560080B755008037450080130588
:1032C00005529306300F1306068293850587EFE0BB
:1032D0003FB7374500801305455CEFE07FB601A09E
:1032E000FD17A307F70021497339093026841379A4
:1032F0008900FD54636C3401732909302254B250A3
:1033000092540259F24945616FF0CFE74C50638601
:103310009500084091E5EFF09FDE13040403D9BF48
:10332000EFF0FFD6DDBFFD572306D500A306C5008D
:103330002307B500A30705001CD18280411122C4D8
:1033400006C626C22144733404308347C500858BEA
:1033500085CB37560080B755008037450080130570
:10336000055293063002130686A09385C5A3EFE0AD
:103370003FAD37550080130505A7EFE07FAC01A0F6
:10338000AA84EFF07FE4B757008003A707FF2188E6
:1033900001CB73240430B240224492444101828024
:1033A000938707FF9C47228563949700EFC05FE2F5
:1033B0002244B240924441016FF0AFDAB757008027
:1033C00083A707C999E36FE03FCA01458280214581
:1033D00073350530218982801C4199CF584109CF2E
:1033E000B756008083A686BF6306D5009447104574
:1033F000B29694C71CC3D8C3FD57232205002320CF
:1034000005001CC58280411122C426C206C6AA84BA
:103410007D3F9844FD572A847D556305F700268536
:10342000653F0145218873240430B2402244924410
:1034300041018280B757008083C747C9411122C428
:1034400006C626C24AC07D5489E73704008013446B
:10345000F4FFB53FB7570080938747BF03A9070024
:10346000AA846300F902630E090003248900B937B6
:103470003305A440014463460500032489003D3F11
:10348000098CA188F3A40430B757008083A70700F4
:1034900081C763D387003E842285B2402244924490
:1034A0000249410182801C45011106CE22CC26CA68
:1034B00063C9070237560080B75500803745008042
:1034C00013050552930630041306C6A89385C5ABB1
:1034D000EFE01F97374500801305455CEFE05F96EE
:1034E00001A04CC532C62A84EFF07FEEAA84EFF02B
:1034F000FFEC32466343C0000546B757008003A780
:1035000047BF2A9610C4938747BF6304F700CC4394
:1035100001EBD8431CC058C0D84300C3C0C3A9A006
:10352000144763D9060237560080B75500803745E7
:103530000080130505529306C0041306C6A89385A0
:10354000C5ACEFE0FF8F374500801305455CEFE029
:103550003F8F01A01044635BD602918E14C7544381
:1035600018C054C080C240C398436309F700631772
:10357000E400EFF03FEC8145EFE05FA3A188F3A406
:103580000430F2406244D24405618280B306D640E2
:1035900014C4E380E5F81843A5BF01112EC606CE7A
:1035A00022CC26CAAA84EFF09FE22A84EFF09FE89B
:1035B000B24563D8A400854763D5A7002685EFE010
:1035C000FF9E218873240430F2406244D244056196
:1035D0008280011106CE22CC26CA2A844EC652C44D
:1035E000B75900804AC8375A0080EFF00FE5B7544A
:1035F0000080EFF0DFDD130A4ABF23A889C8938457
:1036000084C9938909C903240A0083A70900944047
:1036100003A84400137985006308440111C41844C9
:1036200063DEE7021D8F18C4BE9613D7F741429799
:10363000B3B7F600BA9794C0DCC023A00900EFF03E
:103640007FDF8145EFE09F9673290930F2406244A5
:10365000D2444249B249224A05618280BA969355C2
:10366000F74133B6E600C2952E96998F23240400C5
:10367000228594C0D0C023A0F900EFF0FFD57329B4
:1036800009305C4422858297EFF07FD4ADBF4111B1
:1036900006C622C4EFF0BFD32A84EFE0FF9C375761
:1036A0000080130787C9AA8708434C4321883E95A9
:1036B000B337F500BE9573240430B2402244410173
:1036C0008280411106C6E137B2404101828041113A
:1036D00006C6C53F1306803E81468145EFD0CF9395
:1036E000130640068146EFC0BFB3B240410182805D
:1036F000411122C426C237540080B754008006C648
:10370000130444C3938444C363689400B2402244C6
:1037100092440145410182809307440122855CC89F
:103720001CCCEFD01FE97104C5B7B757008083A741
:1037300007FF5D71A2C4A6C2CAC04EDE5AD886C6B3
:1037400052DC56DA5ED662D466D26AD06ECEAA89D0
:103750002E89328B368481448DCBB9C23756008096
:10376000B755008037450080130505529306700356
:103770001306C6AD9385C5B0EFE08FEC37450080EA
:103780001305455CEFE0CFEB01A0635BD000EFF0E9
:103790001FF0AA84A94513059400EFD0EF90AA94D6
:1037A00037550080130545C33385A940B775DBB68F
:1037B000938575DB0985EFD0EF837D7A856A137C6D
:1037C000F50FD55BD15C130AFA0FFD1A214D938DCD
:1037D00049014A8774003000DA854E85EFD0FFE951
:1037E000631C75014A8774003000DA854E85EFD07E
:1037F000DFE8631375015155A24723028901BD8B90
:103800001397870083274900B3F74701D98F3247C1
:10381000B3F757013207D98F2322F9000DC505C42C
:103820006313950373350D302286EE852189EFF001
:103830008FD2FD57E30FF4F8EFF07FE53384A44017
:10384000E35904F85555B640264496440649F259C2
:10385000625AD25A425BB25B225C925C025DF24DCC
:1038600061618280834705004111104122C4139495
:1038700037004AC01D8C375900800A0493558600D2
:10388000130949C33182BD893305890026C206C6A2
:10389000A144EFE0AF80F3B40430130544014A952E
:1038A000A188EFF02FCD11CDB757008083A707FF78
:1038B00089EB2244B24002492685924441016FF0CF
:1038C0004F8AF3A40430B240224492440249410199
:1038D0008280138645006378B600014582800145E9
:1038E000F24005618280011181462C0006CEEFF086
:1038F000DFE375F5224511466C00EFE08FFB2245B2
:103900001105F9BF01C571156FF0DFF58280B7575A
:10391000008083A787FFAA85A85711C15DBF014515
:04392000828082809F
:1039240000000000E613008000000000E6130080A1
:1039340000000000E613008000000000E613008091
:1039440000000000E613008000000000E613008081
:1039540000000000E613008000000000021F008049
:1039640000000000E613008000000000E613008061
:1039740000000000E613008000000000E613008051
:1039840000000000E613008000000000E613008041
:1039940000000000E613008000000000E613008031
:1039A40000000000E613008000000000E613008021
:1039B40000000000E613008000000000E613008011
:1039C40000000000E613008000000000E613008001
:1039D40000000000E613008000000000E6130080F1
:1039E40000000000E613008000000000E6130080E1
:1039F40000000000E613008000000000E6130080D1
:103A040000000000E613008000000000E6130080C0
:103A140000000000E613008000000000E6130080B0
:103A240000000000E613008000000000E6130080A0
:103A340000000000E613008000000000E613008090
:103A440000000000E613008000000000E613008080
:103A540000000000E613008000000000E613008070
:103A640000000000E613008000000000E613008060
:103A740064410080CC1E008000000000D04500801E
:103A84007A1F008000000000C84500809421008057
:103A94000000000064410080F03600800000000057
:103AA40000010202030303030404040404040404E1
:103AB40005050505050505050505050505050505B2
:103AC4000606060606060606060606060606060692
:103AD4000606060606060606060606060606060682
:103AE4000707070707070707070707070707070762
:103AF4000707070707070707070707070707070752
:103B04000707070707070707070707070707070741
:103B14000707070707070707070707070707070731
:103B24000808080808080808080808080808080811
:103B34000808080808080808080808080808080801
:103B440008080808080808080808080808080808F1
:103B540008080808080808080808080808080808E1
:103B640008080808080808080808080808080808D1
:103B740008080808080808080808080808080808C1
:103B840008080808080808080808080808080808B1
:103B940008080808080808080808080808080808A1
:103BA400746573745F6669666F5F74687265616477
:103BB4003274687265616400746573745F66696603
:103BC4006F5F74687265616432697372000000002B
:103BD400746573745F6669666F5F69737232746863
:103BE4007265616400000000746573745F666966E1
:103BF4006F5F6765745F6661696C000074657374F8
:103C04005F6669666F5F6C6F6F70000074657374D4
:103C14005F6669666F5F63616E63656C5F77616938
:103C240074000000746573745F6669666F5F69731E
:103C34005F656D7074795F7468726561640000001B
:103C4400746573745F6669666F5F69735F656D70D1
:103C540074795F69737200006669666F5F61706989
:103C640000000000746669666F5F74687265616461
:103C74005F746872656164002F686F6D652F6D698C
:103C8400616F752F70726F2F72697363762F7A6507
:103C9400706879722F74657374732F6B65726E65B7
:103CA4006C2F6669666F2F6669666F5F6170692F36
:103CB4007372632F746573745F6669666F5F6361A3
:103CC4006E63656C2E6300000A202020204173730C
:103CD400657274696F6E206661696C6564206174D5
:103CE4002025733A25643A2025733A2025730A0067
:103CF4006B5F6669666F5F676574206469646E27CD
:103D04007420676574202774696D656F7574206508
:103D14007870697265642720737461747573000028
:103D240028726574206973206E6F74204E554C4C54
:103D3400290000006B5F6669666F5F6765742064C5
:103D440069646E2774206765742063616E63656CB3
:103D54006C656420696E20657870656374656420A1
:103D640074696D656672616D650000002864757222
:103D7400203C2038302069732066616C736529000B
:103D8400746669666F5F67657400000074497372D6
:103D94005F656E7472795F70757400007449737234
:103DA4005F656E7472795F67657400007466696636
:103DB4006F5F69735F656D70747900007465737407
:103DC4005F6669666F5F69735F656D7074795F7450
:103DD40068726561640000002F686F6D652F6D69FE
:103DE400616F752F70726F2F72697363762F7A65A6
:103DF400706879722F74657374732F6B65726E6556
:103E04006C2F6669666F2F6669666F5F6170692FD4
:103E14007372632F746573745F6669666F5F636F33
:103E24006E74657874732E63000000006B5F6669BE
:103E3400666F5F69735F656D707479282873747237
:103E4400756374206B5F6669666F202A2970292068
:103E540069732066616C7365000000006B5F6669BE
:103E6400666F5F69735F656D707479282873747207
:103E7400756374206B5F6669666F202A2970292038
:103E840069732074727565006B5F6669666F5F693C
:103E9400735F656D70747928266669666F29206979
:103EA400732066616C73650072785F64617461206D
:103EB4006E6F7420657175616C20746F2028766F45
:103EC4006964202A2926646174615B695D000000CD
:103ED40072785F64617461206E6F742065717561BE
:103EE4006C20746F2028766F6964202A2926646107
:103EF40074615F6C5B695D0072785F6461746120FA
:103F04006E6F7420657175616C20746F2028766FF4
:103F14006964202A2926646174615F736C5B695D3E
:103F2400000000006B5F6669666F5F69735F656DB3
:103F340070747928706669666F29206973207472B9
:103F4400756500006B5F6669666F5F69735F656DB9
:103F540070747928706669666F29206973206661B8
:103F64006C736500746573745F6669666F5F67651B
:103F7400745F6661696C00002F686F6D652F6D69F1
:103F8400616F752F70726F2F72697363762F7A6504
:103F9400706879722F74657374732F6B65726E65B4
:103FA4006C2F6669666F2F6669666F5F6170692F33
:103FB4007372632F746573745F6669666F5F66619D
:103FC400696C2E63000000006B5F6669666F5F6753
:103FD400657428266669666F2C204B5F4E4F5F57C9
:103FE40041495429206973206E6F74204E554C4CFE
:103FF400000000006B5F6669666F5F676574282662
:104004006669666F2C2054494D454F5554292069E3
:1040140073206E6F74204E554C4C000074666966B4
:104024006F5F6765740000002F686F6D652F6D69A1
:10403400616F752F70726F2F72697363762F7A6553
:10404400706879722F74657374732F6B65726E6503
:104054006C2F6669666F2F6669666F5F6170692F82
:104064007372632F746573745F6669666F5F6C6FD8
:104074006F702E6300000000697372206669666FBA
:10408400206765740A000000697372206669666FB0
:1040940020707574202D2D2D3E20000074687265EB
:1040A4006164206669666F206765740A0000000019
:1040B400746872656164206669666F207075742027
:1040C4002D2D2D3E200000002A20506173732064A2
:1040D400617461206279206669666F20696E206C64
:1040E4006F6F702025640A006D61696E20666966D1
:1040F4006F20707574202D2D2D3E20006D61696E2A
:10410400206669666F206765740A000024130080C6
:1041140094130080941300801813008024130080EB
:10412400801300808A13008094430080B44300808D
:10413400D0430080E4430080F043008008440080C2
:10414400756E6B6E6F776E00457863657074696F1A
:104154006E20636175736520257320282564290A00
:10416400000000002A2A2A2A204B65726E656C2002
:10417400416C6C6F636174696F6E204661696C7524
:10418400726521202A2A2A2A0A0000002A2A2A2AB9
:104194002A204B65726E656C204F4F505321202AA4
:1041A4002A2A2A2A0A0000002A2A2A2A2A204B65B7
:1041B400726E656C2050616E696321202A2A2A2A56
:1041C4002A0A00002A2A2A2A20556E6B6E6F776EFF
:1041D40020466174616C204572726F7220256421DF
:1041E400202A2A2A2A0A000043757272656E7420F6
:1041F400746872656164204944203D2025700A4634
:1042040061756C74696E6720696E7374727563741A
:10421400696F6E2061646472657373203D20307829
:1042240025780A202072613A20307825782020678A
:10423400703A2030782578202074703A2030782520
:1042440078202074303A20307825780A2020743180
:104254003A2030782578202074323A203078257836
:10426400202074333A2030782578202074343A2082
:10427400307825780A202074353A20307825782043
:104284002074363A2030782578202061303A203066
:10429400782578202061313A20307825780A20204A
:1042A40061323A2030782578202061333A20307802
:1042B4002578202061343A20307825782020613513
:1042C4003A20307825780A202061363A2030782543
:1042D40078202061373A20307825780A00000000E1
:1042E40049535200657373656E7469616C20746818
:1042F4007265616400000000466174616C2066614F
:10430400756C7420696E20257321205370696E6E5C
:10431400696E672E2E2E0A00466174616C206661F8
:10432400756C7420696E20746872656164202570F0
:10433400212041626F7274696E672E0A00000000CA
:10434400ADBAADDEADBAADDEADBAADDEADBAADDEA1
:10435400ADBAADDEADBAADDEADBAADDEADBAADDE91
:10436400ADBAADDEADBAADDEADBAADDEADBAADDE81
:10437400ADBAADDEADBAADDEADBAADDEADBAADDE71
:10438400ADBAADDEADBAADDEADBAADDEADBAADDE61
:10439400496E737472756374696F6E2061646472BC
:1043A400657373206D6973616C69676E6564000081
:1043B400496E737472756374696F6E2041636365CB
:1043C4007373206661756C7400000000496C6C6541
:1043D40067616C20696E737472756374696F6E00C3
:1043E400427265616B706F696E7400004C6F61643A
:1043F4002061646472657373206D6973616C6967AD
:104404006E6564004C6F616420616363657373203F
:104414006661756C7400000053707572696F757312
:1044240020696E7465727275707420646574656356
:1044340074656421204952513A2025640A00000021
:104444002F686F6D652F6D69616F752F70726F2F97
:1044540072697363762F7A65706879722F617263FB
:10446400682F726973637633322F636F72652F74AA
:1044740068726561642E6300282828287072696F49
:10448400726974792929203D3D2031352026262062
:104494005F69735F69646C655F74687265616428E1
:1044A400287468726561645F66756E6329292920C2
:1044B4007C7C20285F69735F7072696F5F686967CD
:1044C4006865725F6F725F657175616C282828700A
:1044D40072696F7269747929292C20283135202D4D
:1044E40020312929202626205F69735F7072696F45
:1044F4005F6C6F7765725F6F725F657175616C2851
:1045040028287072696F7269747929292C202828E7
:104514002D3136292929292900000000415353450A
:104524005254494F4E204641494C205B25735D202F
:10453400402025733A25640A0000000009696E765C
:10454400616C6964207072696F72697479202825BE
:1045540064293B20616C6C6F7765642072616E67BF
:10456400653A20256420746F2025640A0000000049
:104574002F686F6D652F6D69616F752F70726F2F66
:1045840072697363762F7A65706879722F6C6962C9
:104594002F6D656D706F6F6C2F6D656D706F6F6CC7
:1045A4002E630000626C6F636B5F666974732870BE
:1045B4002C20626C6F636B2C206C737A29000000D2
:1045C400090A000075617274300000007379735F2A
:1045D400636C6F636B000000902100807C2100807D
:1045E400000000000000000000000000E44600801D
:1045F400EC4600807046008052756E6E696E6720CE
:10460400746573742073756974652025730A0000DA
:104614003D3D3D3D3D3D3D3D3D3D3D3D3D3D3D3DC6
:104624003D3D3D3D3D3D3D3D3D3D3D3D3D3D3D3DB6
:104634003D3D3D3D3D3D3D3D3D3D3D3D3D3D3D3DA6
:104644003D3D3D3D3D3D3D3D3D3D3D3D3D3D3D3D96
:104654003D3D3D0A000000007374617274696E6729
:104664002074657374202D2025730A00534B495020
:10467400000000002573202D2025730A000000008F
:10468400546573742073756974652025732066619D
:10469400696C65642E0A000054657374207375692F
:1046A4007465202573207375636365656465640AA6
:1046B400000000004641494C4544000050524F4A16
:1046C40045435420455845435554494F4E2025737E
:1046D4000A0000005355434345535346554C0000CC
:1046E40050415353000000004641494C0000000073
:1046F400044C0080284C0080344C0080344C0080F2
:10470400344C00806D61696E0000000069646C6562
:10471400000000002A2A2A2A2A20426F6F74696E38
:1047240067205A6570687972204F53207A657068E3
:1047340079722D76312E31332E302D333032302DA7
:104744006733376633373434202A2A2A2A2A0A0060
:104754002F686F6D652F6D69616F752F70726F2F84
:1047640072697363762F7A65706879722F6B6572DC
:104774006E656C2F71756575652E6300686561647F
:10478400202626207461696C0000000009696E7699
:10479400616C69642068656164206F72207461696A
:1047A4006C0A0000217379735F736C6973745F69B9
:1047B400735F656D707479286C69737429000000E7
:1047C400096C697374206D757374206E6F74206244
:1047D4006520656D7074790A00000000647572616B
:1047E40074696F6E20213D20282D312900000000BE
:1047F400215F69735F69646C6528746872656164BC
:10480400290000007468726561642D3E62617365FD
:104814002E70656E6465645F6F6E00002F686F6D47
:10482400652F6D69616F752F70726F2F7269736375
:10483400762F7A65706879722F6B65726E656C2F4E
:10484400696E636C7564652F6B73636865642E6849
:104854000000000021285F6B65726E656C2E6E652A
:104864007374656420213D20305529005F6B6572A7
:104874006E656C2E63757272656E742D3E62617323
:10488400652E73636865645F6C6F636B6564202178
:104894003D2031002F686F6D652F6D69616F752F35
:1048A40070726F2F72697363762F7A65706879728C
:1048B4002F6B65726E656C2F73636865642E63007D
:1048C4005F6B65726E656C2E63757272656E742DA6
:1048D4003E626173652E73636865645F6C6F636BBE
:1048E400656420213D2030002F686F6D652F6D6950
:1048F400616F752F70726F2F72697363762F7A658B
:10490400706879722F6B65726E656C2F73656D2E8E
:10491400630000006C696D697420213D20305500EE
:10492400096C696D69742063616E6E6F74206265D1
:10493400207A65726F0A0000696E697469616C5F40
:10494400636F756E74203C3D206C696D6974000062
:1049540009636F756E742063616E6E6F7420626597
:104964002067726561746572207468616E206C6979
:104974006D69740A000000002828285F6B65726E58
:10498400656C2E6E657374656420213D2030552955
:10499400203D3D203029207C7C202874696D656F82
:1049A4007574203D3D203029290000002F686F6D6B
:1049B400652F6D69616F752F70726F2F72697363E4
:1049C400762F7A65706879722F6B65726E656C2FBD
:1049D4007468726561642E63000000000954687293
:1049E40065616473206D6179206E6F742062652047
:1049F4006372656174656420696E20495352730A59
:104A0400000000002F686F6D652F6D69616F752F51
:104A140070726F2F72697363762F7A65706879721A
:104A24002F6B65726E656C2F7468726561645F616B
:104A3400626F72742E630000287468726561642D5D
:104A44003E626173652E757365725F6F7074696F12
:104A54006E73202620282831554C203C3C202830D9
:104A640029292929203D3D20300000000965737360
:104A7400656E7469616C207468726561642061623A
:104A84006F727465640A00002F686F6D652F6D691D
:104A9400616F752F70726F2F72697363762F7A65E9
:104AA400706879722F6B65726E656C2F74696D65B1
:104AB4006F75742E63000000746F2D3E6474696317
:104AC4006B73203C20300000742D3E647469636B6A
:104AD40073203E3D203000002F686F6D652F6D6997
:104AE400616F752F70726F2F72697363762F7A6599
:104AF400706879722F6B65726E656C2F6D656D7061
:104B04006F6F6C2E630000002128285F6B65726E46
:104B1400656C2E6E657374656420213D20305529C3
:104B24002026262074696D656F757420213D203020
:044B34002900000054
:104B3800A43B0080700E00805C0900805C09008046
:104B480000000000BC3B0080980E00805C090080DB
:104B58005C09008000000000D43B0080C00E00808B
:104B68005C0900805C09008000000000EC3B0080CC
:104B7800B20F00805C0900805C0900800000000022
:104B8800003C0080A01100805C0900805C09008066
:104B980000000000103C0080940A00805C0900803E
:104BA8005C09008000000000283C0080E80E0080BE
:104BB8005C0900805C09008000000000443C008023
:104BC8003A0F00805C0900805C090080000000004A
:104BD80000000000000000000000000000000000CD
:104BE80000000000741A008003000000F44B0080ED
:0C4BF800F44B0080F5FFFFFF104F008021
:104C0400983A008000000000000000008C3A008008
:104C1400DC45008000000000743A008000000000C1
:104C240000000000803A0080000000000000000046
:104C3400344C0080344C0080000000000000000070
:044C44000F0000005D
:104C48000000000000000000504C0080504C008024
:104C58000000000000000000604C0080604C0080F4
:040000058000000077
:00000001FF
