:0200000480007A
:100000009702000093820201739052306F10400EED
:10001000130101FB2320110023223100232441007E
:100020002326510023286100232A7100232CC101BB
:10003000232ED1012320E1032322F1032324A10253
:100040002326B1022328C102232AD102232CE10254
:10005000232EF1022320010523221105F32210345F
:1000600023245104F322003023265104EF00002002
:100070001303000063160504F3222034B703008045
:100080009383F3FFB3F272001303B000638A62003C
:100090001305010097000000938040146F00507614
:1000A000832281049382420023245104975200004A
:1000B0009382029703A30200631403006F000009F8
:1000C00093020100975300009383C3BF03A1430031
:1000D000130101FF2320510003AE0300130E1E0085
:1000E00023A0C30163080300970000009380C003AE
:1000F0006F00D07973252034B70200809382F2FF1D
:1001000033755500EF0080159742000093820297E7
:1001100013153500B382A20003A5020003A3420019
:10012000E7000300175300001303C3B98323030040
:100130009383F3FF232073008322010013810200C5
:1001400083238300032E030263087E089752000076
:10015000938242B703A382002326830223289302BB
:10016000232A2303232C3303232E43032320530565
:10017000232263052324730523268305232893055F
:10018000232AA305232CB30523242302975300001D
:100190009383C38303AE03002326C30703A3020292
:1001A00023A46200032183020324C30283240303E4
:1001B0000329430383298303032AC303832A0304F4
:1001C000032B4304832B8304032CC304832C0305D8
:1001D000032D4305832D83058322810473901234FC
:1001E0008322C104739002308320010083214100E7
:1001F000032281008322C1000323010183234101E3
:10020000032E8101832EC101032F0102832F41029E
:10021000032581028325C1020326010383264103AE
:10022000032781038327C103032801048328410492
:100230001301010573002030730000009752000085
:10024000938242A803A382008323C306137585000B
:10025000F3220530138503006780000013031000AC
:10026000B312A30073B3423467800000F32220343A
:1002700037030080B3F262001305000063840200BC
:08028000130515006780000062
:10028800130101FD23229102232861012326110273
:100298002324810223202103232E3101232C410111
:1002A800232A51012326710123248101232291014C
:1002B800130B050093840500639C0638130406009D
:1002C80093090500174900001309C99263F8C5127C
:1002D800B7070100938A05006378F6109306F00FBC
:1002E800B3B6C60093963600B357D6003309F90063
:1002F80003470900B306D700130700023307D740A6
:10030800630C0700B394E400B356DB003314E60033
:10031800B3EA9600B319EB00135B040193050B00D5
:1003280013850A00EF0040631309050093050B00CD
:10033800931B040113850A00EF00805D93DB0B011A
:10034800930405009305050013850B00EF0080500A
:100358001319090113D709013367E900138A040047
:10036800637EA70033078700138AF4FF636887005A
:100378006376A700138AE4FF33078700B304A74016
:1003880093050B0013850400EF00005D13090500B9
:1003980093050B0013850400EF008057939909011A
:1003A80093040500930505001319090113850B0033
:1003B80093D90901EF00004AB36939011386040093
:1003C80063FCA900B30934011386F4FF63E68900CE
:1003D80063F4A9001386E4FF93170A01B3E7C70083
:1003E800130A00006F000013B7070001930600010D
:1003F800E36CF6EE930680016FF01FEF138A060098
:10040800631A06009305000013051000EF00405022
:1004180013040500B7070100637CF4129307F00F7B
:1004280063F48700130A8000B35744013309F900C5
:100438008346090013060002B38646013306D640F8
:1004480063120612B3848440130A1000135B04017C
:1004580093050B0013850400EF00005013090500F5
:1004680093050B0013850400931B0401EF00404A19
:1004780093DB0B01930405009305050013850B001E
:10048800EF00403D1319090113D709013367E9004B
:10049800938A0400637EA70033078700938AF4FFDA
:1004A800636887006376A700938AE4FF33078700B1
:1004B800B304A74093050B0013850400EF00C0495F
:1004C8001309050093050B0013850400EF00404451
:1004D800939909019304050093050500131909016F
:1004E80013850B0093D90901EF00C036B3693901B0
:1004F8001386040063FCA900B30934011386F4FFD2
:1005080063E6890063F4A9001386E4FF93970A0160
:10051800B3E7C7001385070093050A008320C102CB
:100528000324810283244102032901028329C10192
:10053800032A8101832A4101032B0101832BC10076
:10054800032C8100832C4100130101036780000004
:10055800B7070001130A0001E368F4EC130A8001ED
:100568006FF09FEC3314C40033DAD400B319CB0016
:10057800B356DB00135B0401B394C40093050B006E
:1005880013050A00B3EA9600EF00003D13090500C1
:1005980093050B0013050A00931B0401EF00403775
:1005A80093DB0B01930405009305050013850B00ED
:1005B800EF00402A1319090113D70A013367E9002C
:1005C800138A0400637EA70033078700138AF4FFA9
:1005D800636887006376A700138AE4FF3307870000
:1005E800B304A74093050B0013850400EF00C03641
:1005F8001309050093050B0013850400EF00403133
:10060800930405009305050013850B00EF00802473
:1006180093960A011319090193D60601B367D90005
:100628001387040063FEA700B38787001387F4FFCE
:1006380063E8870063F6A7001387E4FFB3878700A2
:10064800131A0A01B384A740336AEA006FF01FE067
:1006580063ECD51EB707010063F4F6049305F00FA9
:1006680033B5D5001315350033D7A60097370000EA
:1006780093874758B387E70083C50700130A00022A
:10068800B385A500330ABA4063160A02930710001F
:10069800E3E296E83336CB00934716006FF09FE706
:1006A800B707000113050001E3E0F6FC130580011C
:1006B8006FF09FFBB35AB600B3964601B3EADA006F
:1006C80033D9B400B3974401B355BB0093DB0A0197
:1006D800B3E4F5001305090093850B00B31946012F
:1006E800EF0080271304050093850B00130509000C
:1006F800139C0A01EF00C021135C0C0113090500CB
:100708009305050013050C00EF00C0141314040131
:1007180013D704013367E400930C0900637EA70034
:1007280033075701930CF9FF636857016376A700F5
:10073800930CE9FF330757013309A74093850B0052
:1007480013050900EF0040211304050093850B00F1
:1007580013050900EF00C01B1309050093050500E8
:1007680013050C00EF00000F939704011314040104
:1007780093D707013367F40013060900637EA700C7
:10078800330757011306F9FF636857016376A7001B
:100798001306E9FF3307570193970C01370E010041
:1007A800B3E7C7001308FEFF33F3070133F8090165
:1007B8003307A74093DE070193D909011305030006
:1007C80093050800EF0000099308050093850900C8
:1007D80013050300EF000008130305009305080044
:1007E80013850E00EF000007130805009385090024
:1007F80013850E00EF00000693D6080133030301AA
:10080800B386660063F406013305C50113D60601F5
:100818003305A6006366A702E314A7BC37070100E7
:100828001307F7FFB3F6E60093960601B3F8E8005E
:1008380033164B01B3861601130A0000E37CD6CCAD
:100848009387F7FF6FF0DFB9130A000093070000E2
:100858006FF05FCC130605001305000093F6150032
:10086800638406003305C50093D5150013161600DA
:10087800E39605FE67800000130101FF138306005D
:1008880023261100130E05009308050093060600A1
:1008980013070000930700001308000013F5160063
:1008A800931E1700630C05003385080133380501D2
:1008B800B387E700B307F8001308050013D7F8015A
:1008C80093D6160033E7EE0093981800E39806FCD9
:1008D8006388050013050600EFF0DFF7B387A7006C
:1008E800630A030013050E0093050300EFF09FF65B
:1008F800B307F5008320C10013050800938507009E
:1009080013010101678000006340050663C6050600
:1009180013860500930505001305F0FF630C060216
:1009280093061000637AB6006358C00013161600C9
:1009380093961600E36AB6FE1305000063E6C50049
:10094800B385C5403365D50093D6160013561600F7
:10095800E39606FE6780000093820000EFF05FFBDD
:1009680013850500678002003305A04063D80500A1
:10097800B305B0406FF0DFF9B305B04093820000D3
:10098800EFF01FF93305A040678002009382000052
:1009980063CA0500634C0500EFF09FF71385050057
:1009A80067800200B305B040E35805FE3305A04058
:1009B800EFF01FF63305B040678002006780000043
:1009C8006F204050130101FF2324810023261100CA
:1009D800EF30000113040500EF308000E30EA4FEA1
:1009E8008320C100032481001301010167800000F6
:1009F800130101FD232E1100232C81002324010360
:100A080023261103631805041386060013870500BF
:100A1800B7460080B745008037450080938646D0AA
:100A280013840700938505D1930781021305C5D464
:100A38002326F100EF0050768325C100130504003A
:100A4800EF00907237450080130545E2EF00D0743F
:100A5800EF1000428320C101032481011301010327
:100A680067800000130101FF23229100B754008022
:100A7800232481009305F0FF138504AC37540080CC
:100A880023261100130484A1EF20C05D0325040070
:100A9800EF2040439305F0FF138504ACEF20805C02
:100AA80083250400032481008320C100832441009E
:100AB800371500801305859C130101016F00005F45
:100AC800130101FE232E1100232C8100232A9100FB
:100AD80023282101EF20004793050000EF20C012D2
:100AE80037590080130509B51306F0FF9305000078
:100AF800EF200046375500801306F0FF93050000ED
:100B0800130505ACEF20C044B75400801306F0FF6E
:100B180093050000138504ADEF208043374500801E
:100B2800130585D8EF005067B7160080B7550080C9
:100B3800375500809308C0FF130800009307000092
:100B480013070000938646C81306001823220100E5
:100B580023200100938505CF130505AE3754008087
:100B6800EF20806C130484A1930505002320A400C2
:100B780037450080130545DAEF001062B71600808C
:100B8800B755008037550080930860FF13080000B0
:100B980093070000130700009386C6A613060018E3
:100BA8002322010023200100938505E7130505A5ED
:100BB800EF2080679305050037450080130545DC65
:100BC800EF00905D130509B5EF2040419305F0FF54
:100BD800138504ADEF200049032504003749008040
:100BE800B7440080EF20002EB757008003C5479B0D
:100BF800B7450080B7470080130749D0138604D152
:100C0800938747DE9306E00D938545DF134515006E
:100C1800EFF01FDE374500801305C5E0EF00D05721
:100C2800EFF05FDAEF20D05B130405001305803E78
:100C3800EF20C015EF20D05A3308854003248101E6
:100C48008320C101130749D0138604D10329010168
:100C5800832441011305E8C0B7470080B7450080E9
:100C68009308203F938787E29306700E938505E5E6
:100C780013352500130101026FF09FD73755008007
:100C8800130101FF9305F0FF130505B52326110095
:100C9800232481002322910023202101EF20803C7E
:100CA80037450080130585E9EF00104FEFF09FD11D
:100CB800EF201053130405001305803EEF20000DAC
:100CC800EF201052330485409307E4C093041000CA
:100CD80063E0F40837450080130505ECEF00D04BBE
:100CE80037590080130509ACEF20402FEFF09FCD56
:100CF800EF20104F130405001305803EEF20000974
:100D0800EF20104E3304854063F884089306D0071B
:100D180037460080B745008037450080938585EFCA
:100D2800130505F0130686CFEF00104737450080FE
:100D3800930504001305C5F3032481008320C10033
:100D48008324410003290100130101016F00D044ED
:100D580037460080B745008037450080130686CFA8
:100D6800938585EF130505F09306E006EF00D04262
:100D780093050400032481008320C10083244100DB
:100D880003290100374500801306203F130505F1AC
:100D9800130101016F00504037450080130585F6A7
:100DA800EF00903F130509ACEF204023EFF09FC1FF
:100DB800EF201043130405001305803EEF10107D4B
:100DC800EF2010423304854063F684009306B00890
:100DD8006FF01FF437450080130505FAEF00D03B8C
:100DE80037550080130505ADEF20401FEFF09FBD7C
:100DF800EF20103F130405001305803EEF10107913
:100E0800EF20103E3304854063FA840237460080A1
:100E1800B745008037450080938585EF130505F0B9
:100E280093069009130686CFEF00103737450080E8
:100E380093050400130585FD6FF01FF08320C100A2
:100E480003248100B7570080238A079A832441002E
:100E5800032901001301010167800000B7550080D4
:100E6800374500809385C598130505D86F10400352
:100E7800130101FF2326110023248100930760003A
:100E88006304F502EF20C02E63040502EF20402E14
:100E980063160504B74500809385451E37450080D5
:100EA8001305851FEF00502FEF0010336FF0DFFFA1
:100EB800EF20002DE31C05FC37540080130404CCFC
:100EC800832584003745008013058521EF00D02C49
:100ED80003258400EF20805E6FF01FFDB74500807A
:100EE8009385051E6FF09FFB130101FB23248104EA
:100EF800232291042326110493076000930405001C
:100F08001384050063E0A70E374700809317250078
:100F18001307C700B387E70083A7070067800700A8
:100F28003745008013054506EF001027EF208001A4
:100F380083274404832804010328C4002328F102DA
:100F48008327040403274400832604002326F10290
:100F58008327C40303268404930505002324F10290
:100F680083278403374500801305850E2322F10269
:100F7800832744032320F10283270403232EF1004F
:100F88008327C402232CF10083278402232AF1003B
:100F9800832744022328F100832704022326F10033
:100FA8008327C4012324F100832784012322F1002D
:100FB800832744012320F10083278400EF00D01DFC
:100FC8009305040013850400EFF09FEA374500807D
:100FD8001305C5086FF05FF5374500801305850ACE
:100FE8006FF09FF437450080938504001305450C86
:100FF800EF00901A6FF09FF3130101FF2324810083
:101008002326110013040500732620341316160036
:10101800135616009307500063E8C702374700804D
:101028009317260013078702B307F70083A5070065
:101038003745008013058504EF001016930504005A
:1010480013050000EFF05FEAB745008093850504BB
:101058006FF01FFE130101FF23261100F325203432
:10106800374500809395150093D5150013058531F4
:10107800EF009012B74500809385052413054000C2
:10108800EFF09FE6B75700809387C7A103A7070033
:10109800630C070003A3070023A00700B7570080CD
:1010A80003A507A26700030067800000930780007C
:1010B800F3B7073037570080232EA7A03757008093
:1010C8002320B7A27300000093F78700F3A7073027
:1010D80067800000130101FF23261100EF10401460
:1010E800EF009011EF10801A1741000013010170F2
:1010F800B71200009382028033015100EFF09FFD88
:101108006F008011130101FD232481022322910223
:1011180023202103232E310123261102938906005F
:101128009306F000930405001384050013090600D4
:10113800639CD808B72600809386061F639CD9084D
:1011480083260103938508001385040013064000D5
:10115800232601012324F1002322E100EF2040345B
:1011680083278100930509FBB305B40023AE04046B
:1011780023A0040693F505FF23A8F502B72700006E
:10118800032741000328C1009387078823A6F50495
:10119800B71700808320C102032481029387871038
:1011A80023A4350323A6E50223AA050323A4F504F3
:1011B80023A4B40203290102832441028329C10123
:1011C8001301010367800000938608011306E001FC
:1011D800E378D6F637460080B7450080374500806B
:1011E8009306800113060634938585371305C54198
:1011F80023221101EF00407A8328410037450080FF
:10120800930600FF1306E000938508001305C54305
:10121800EF0080786F000000130101FF93070500BD
:101228001385050093050600138606002326110082
:10123800E7800700EF101051EF2040289397150022
:10124800B387B700139727008327C500B387E70044
:101258000307B5006354B70083A707001357F64187
:101268001377F7013307C7001357574013172700A1
:10127800B387E70023A0F6001375F6016780000026
:10128800130101FE9306C100232E1100EFF01FFB8E
:101298000327C100930710003395A7008327070091
:1012A8008320C101B3E7A7002320F700130101023F
:1012B80067800000130101FE232A91008324450062
:1012C800232C810013040500035585009385040031
:1012D80023282101232631012324410123225101FE
:1012E80023206101232E1100EFF0CFD683290400BB
:1012F800834AA4009307F0FF130A0500B389A900E5
:10130800A305F40013090000130BF001634C590303
:10131800930400008357840063CCF4088320C10140
:101328000324810183244101032901018329C10088
:10133800032A8100832A4100032B010013010102C3
:10134800678000009385040013050A00EFF04FDC66
:101358001317190033072701931727000327C40021
:101368003307F700930747002322F7002324F700E9
:10137800634EAB00A305240193D424009384340066
:1013880093F4C4FF130919006FF05FF81305F50112
:101398009357F54193F7F701B387A70093D75740C1
:1013A8009397270023203701B389F9006FF0DFFCFA
:1013B8008325440013850400EFF0CFC98327040078
:1013C80013860400930500003385A7008327C40013
:1013D80093841400138747002320E50003A78700A0
:1013E8002322E50003A787002320A70023A4A70042
:1013F80013050400EFF0DFE86FF0DFF113050000DC
:101408006780000083A705009387170023A0F500D5
:10141800B757008003A3879B67000300130101FCF3
:10142800232C810223263103232441032320610333
:101438002328A101232E1102232A91022328210304
:1014480023225103232E7101232C8101232A910188
:101458002326B10193090500138A0500130D060020
:10146800138B0600130410006354E00013040700F4
:1014780093071000930C00026314FB00930C000305
:10148800B7D49A3B13091000930AA000130C00006C
:101498009384F49F930D2000938B140063140C0025
:1014A80063F2A40B93850B0013050D00EFF04FC6F4
:1014B80093050A0013050503E780090013091900BD
:1014C800130C100093850B0013050D00EFF0CFC827
:1014D800130D05009305A00013850400EFF04FC31A
:1014E800938AFAFF9307100093040500E396FAFA2B
:1014F80093050A0013050D03E780090093073000E0
:10150800330424416306FB068320C10303248103BB
:1015180083244103032901038329C102032A810289
:10152800832A4102032B0102832BC101032C810171
:10153800832C4101032D0101832DC10013010104F6
:1015480067800000E34054F9E3EE6DF793050A0065
:1015580013850C00E7800900130919006FF09FF646
:1015680093050A0013050002E78009001304F4FF3D
:10157800E34880FE6FF05FF9B757008023ACA79A65
:1015880067800000130101FB2324810423229104B6
:1015980023202105232E3103232C4103232A510321
:1015A8002328610323229103232EB101232611044A
:1015B80023267103232481032320A1031304050098
:1015C80093840500130B0600938C0600130A000091
:1015D8001309F0FF93090000930D0000930A10000F
:1015E80003450B00631005048320C1040324810410
:1015F80083244104032901048329C103032A8103A5
:10160800832A4103032B0103832BC102032C81028C
:10161800832C4102032D0102832DC1011301010511
:1016280067800000639E0D0093065002630CD5305E
:1016380093850400E7000400130B1B006FF05FFAAA
:10164800930640066300D51263E2A606930690034C
:1016580063EAA602930610036374D50E9306D002BC
:10166800630CD52E930700036300F50C1307500293
:101678006312E5029385040013055002E700040095
:101688006F00401293068005630ED51613073006C7
:10169800630EE5289385040013055002E700040053
:1016A8009385040003450B006FF05FFD9306000768
:1016B800630AD51263E0A602930690066304D50A6E
:1016C8009306C006630CD50893068006E306D5F694
:1016D8006FF05FFC930650076304D50E63EEA60215
:1016E80013073007E318E5FA138C4C0083AC0C00A1
:1016F800938B0C0003C50B0063180520930730007B
:101708006398F900B38B9B41B30B79416346702111
:10171800930C0C006F000009930680076304D50E34
:101728009306A0076FF09FFA635E0900638A092297
:10173800130905FDE39209F0930920006FF0DFEF2C
:10174800E34809FE93162900338926011319190065
:10175800130909FD330925016FF0DFFD130A1A008B
:101768006FF09FED63C44A0503A60C00938C4C00F0
:1017780063500602938504001305D0022324C10098
:10178800E7000400032681001309F9FF3306C0406F
:1017980013070900938609009385040013050400C4
:1017A800EFF0DFC7930D00006FF01FE993877C000F
:1017B80013F787FF930C8700032607006FF05FFB82
:1017C80063C84A0103A60C00938C4C006FF05FFCC1
:1017D80093877C0013F787FF930C87000326070085
:1017E8006FF01FFB9385040013050003E700040056
:1017F8009385040013058007E7000400130980009F
:101808009309100063CA4A0983A70C00938C4C0003
:101818002324F10013068000130C0000130D0000B0
:101828009305800083278100938BF5FF13952B0088
:1018380033D5A7001375F500631205089306000356
:1018480063140D00639655093385A60013158501A9
:1018580093850400135585412326C100E700040041
:10186800130C1C000326C10063940B04930630007C
:10187800930D0000E392D9DC13171900330C87414C
:10188800E35280F39385040013050002E700040087
:10189800130CFCFF6FF0DFFE93877C0093F687FF45
:1018A80083A70600938C86002324F1006FF09FF62F
:1018B800138D0D0093850B006FF0DFF693079000F2
:1018C80093067005E3E2A7F8930600036FF0DFF7CD
:1018D8009307F6FF2326F100634AC900639C590168
:1018E8009385040013050003E70004000326C100E4
:1018F8006FF05FFC93072000E39AF9FE93850400DC
:10190800130500026FF05FFE93850400938B1B00A4
:10191800E70004006FF01FDE938504001305000242
:10192800E7000400938BFBFF6FF05FDE03A50C005C
:10193800938B4C0093850400E7000400938C0B0004
:101948006FF05FE6130A00001309F0FF9309000027
:10195800930D10006FF05FCE930930006FF0DFCD6C
:10196800930910006FF05FCD130101FE1306050007
:1019780037150080938605001305C5409305C100FF
:10198800232E110023260100EFF0DFBF8320C101C1
:101998001301010267800000130101FC2322B10238
:1019A80093054102232E11002324C1022326D102CC
:1019B8002328E102232AF102232C0103232E1103F9
:1019C8002326B100EFF05FFA8320C101130101045F
:1019D800678000006780000093078000F3A7073046
:1019E8007300501067800000930710003395A7001C
:1019F800732545306780000093078000F3B70730F0
:101A0800735040307350403467800000130101FF69
:101A180023248100232291003754008023261100BB
:101A28009307A00093040500130444A2631CF50067
:101A3800032504009305D0008327450083A74700AA
:101A4800E78007000325040093F5F40F832745007A
:101A580083A74700E78007008320C1000324810093
:101A680013850400832441001301010167800000ED
:101A780037250080130545A16FF01FB0374500805A
:101A8800130101FF1305054723261100EF00006C21
:101A9800B757008023A2A7A2EFF09FFD8320C100C3
:101AA800130500001301010167800000B70710F05B
:101AB80003A747F403A507F483A547F4E39AE5FED3
:101AC80067800000130101FE232C8100232E1100E2
:101AD800232A9100232821012326310123244101AF
:101AE8001304800073340430B7540080938484A2B4
:101AF800EFF0DFFB03A9040003AA440093070500E5
:101B080033052541B3B7A700B385454137D6010052
:101B18001306064C93060000B385F540EFE04FF638
:101B280093090500B7D501009385054C1385090075
:101B3800EFE05FD2330925013335A90033054501AC
:101B480023A0240123A2A400137484007324043066
:101B5800032481018320C101832441010329010158
:101B6800032A8100138509008329C100130101029A
:101B78006F101050130101FF23261100EFF01FF31F
:101B8800B7D701009387074C370710F0B307F50064
:101B98009306F0FF2326D7F433B5A7003305B50025
:101BA8002324F7F42326A7F413057000EFF0DFE3EE
:101BB8008320C100130500001301010167800000A4
:101BC80063900510130101FE232C8100232E1100C0
:101BD800232A9100232821012326310123244101AE
:101BE8009307F0FF130405006316F500379500000E
:101BF8001304E5BC93048000F3B40430EFF01FEB4A
:101C0800B7970000930905009387E7BC1305F4FF15
:101C180093F4840063D0A70A1385070037D4010022
:101C28009305044CEFE01FC3B7570080938787A242
:101C380003A9070003AA47009307F44BB38727417A
:101C4800B38737013385A7009305044CEFE05FCCD9
:101C58009305044CEFE01FC0B3093941B389A900CB
:101C68009307703E63C637011304044C330585009F
:101C7800B70710F0330925011307F0FF23A6E7F48F
:101C88003335A9003305450123A427F523A6A7F476
:101C9800F3A404308320C10103248101832441017A
:101CA800032901018329C100032A810013010102CC
:101CB80067800000E35405F6130500006FF01FF677
:101CC80067800000130101FF2324810023261100EF
:101CD8001304800073340430EFF05FDDB7570080E1
:101CE80083A787A2B7D501009385054C3305F54036
:101CF800EFE01FC213748400732404308320C100F2
:101D08000324810013010101678000008347050057
:101D180003C705006394E700639607003385E7402F
:101D28006780000013051500938515006FF01FFEEE
:101D380093F6F50F9307050013F7370063140704AC
:101D480093F5F50F13978500B365B7001397050151
:101D5800B365B7003383C700138707001308300043
:101D6800B308E340636A1803135726009315270046
:101D7800B387B7003306B6403386C7006394C702FB
:101D880067800000E30E06FE93871700A38FD7FE37
:101D98001306F6FF6FF05FFA13074700232EB7FE0E
:101DA8006FF01FFC93871700A38FD7FE6FF01FFDFE
:101DB800130101FF232601008327C1009387170021
:101DC8002326F100B70701F023A0B7001301010192
:101DD800678000001305F0FF67800000130500000E
:101DE80067800000130101FE232C810083278500F2
:101DF80037540080232A91001304C49BB7540080F1
:101E0800232E11002328210123263101938404A3C2
:101E180093091000232004001309050023A03401AE
:101E2800E78007008327490023203401E780070063
:101E3800930720002320F4008327C900E7800700C8
:101E4800930730002320F4000324810123A0040019
:101E58008320C10183244101032901018329C10091
:101E680037550080130505B6130101026F100017DE
:101E780037550080130101FFB75700801307F0FFA3
:101E8800130505B62326110023A8E7A2EF100015B5
:101E9800EF10400B8320C100130101016F10006295
:101EA800130101FA232A9104B754008083A744A39D
:101EB800232E1104232C81042328210523263105F0
:101EC800232441052322510523206105232E710374
:101ED800232C8103232A91032328A1032326B1035A
:101EE80063C40708375400801306100093090500DF
:101EF800138C0500130504B693050000EF10400588
:101F080037450080938509001305454AEFF0DFA89F
:101F1800374900801305C94BB74A0080EFF0DFA7A7
:101F2800938444A3130A0000232E8100B75C008029
:101F3800375B0080372D0080B75D0080B74B00808D
:101F4800938A8A4983274C00639E07049385090076
:101F580063060A10374500801305C552EFF0DFA36A
:101F68009307100023A0F4008320C10503248105F2
:101F780083244105032901058329C104032A810417
:101F8800832A4104032B0104832BC103032C8103FF
:101F9800832C4103032D0103832DC1021301010684
:101FA8006780000083250C00B747008013854750E1
:101FB800EFF09F9E2322010083270C0113070C00DA
:101FC8001306004093E787009308F0FF130800000A
:101FD8009306CDDE2320F10093850CFF93070000C4
:101FE80013050BB7EF1040248327C1019305F0FFB9
:101FF800138507B6EF10000793870DA313050BB7DA
:1020080003A40700EF10804BB7570080938707A3FE
:1020180003A70700130414009307E0FF1334140008
:1020280003260C006314F702B74500809385855199
:1020380013850B52EFF05F961305C94BEFF0DF9550
:10204800330A8A00130C4C016FF0DFEF931724005A
:10205800B387FA0083A507006FF09FFD374500801E
:1020680013054554EFF05F9383A70400B337F000DE
:102078006FF05FEFB757008083A747A3130101FFF5
:10208800232481003745008023261100374400802F
:102098001305C54B63820702EFF01F90B745008018
:1020A8009385055613058456032481008320C100B7
:1020B800130101016FF05F8EEFF01F8EB7450080AE
:1020C800938505586FF01FFE130101FF23261100A9
:1020D800EFE0DFD88320C100130101016FF09FF901
:1020E80013172500B7470080130515009387475934
:1020F80013152500130101FF3387E700B387A700F5
:1021080023248100232291000324070083A40700CD
:1021180023261100636C94008320C10003248100EE
:102128008324410013010101678000008327040014
:102138001305040083A74700E78007006304050030
:10214800232204001304C4006FF0DFFC130101FF15
:10215800B757008023229100B754008023248100C0
:10216800232611001384079D232021019387079DAF
:10217800938404A0631C94001309050013840700CA
:1021880063149402130400006F0040040327440002
:102198006308070003270400032707006308A70252
:1021A8001304C4006FF01FFD8327440063960700E3
:1021B8001304C4006FF0DFFC832704001305090033
:1021C80083A50700EFF09FB4E31405FE1305040090
:1021D8008320C100032481008324410003290100D6
:1021E8001301010167800000130101FF232481000E
:1021F8002322910023261100130480009304200059
:10220800F3370430EF10804263C4A40013051000B4
:1022180093051000EF104060EFF00FFC6FF05FFEC9
:1022280037550080B7570080130685A19387C7CE1E
:102238003386C74093050000130585A16FF05FAF93
:10224800130101FF1305200023261100EFF05FE9B9
:10225800374500801305855BEFF00FF41305300058
:10226800EFF01FE8EF10400EEFF01FE6B7570080C1
:10227800938707C503C7C7001377E7FF2386E700DF
:102288008320C1001301010167800000130101F6DA
:10229800232A9108930401011306000793050000FF
:1022A80013850400232E1108232C810823282109D3
:1022B80023263109EFF0DFA737540080B767008085
:1022C800930904CC938707FF1305000023A2F900A4
:1022D800EFF01FE113051000EFF09FE093071010D7
:1022E80023A49900231EF100EF001010B7470080C7
:1022F8009387875A375900802322F100B726008038
:1023080093071000B7550080930409C52320F100F6
:10231800130700009307000093080000130800004B
:1023280093868624130600209385053F130509C567
:1023380023A09902EF00906B83C7D400130404CC48
:1023480013F7B7FFA386E40093F7B701639C070070
:1023580003A704029307F0FF6316F700130509C5E6
:10236800EF00003AB74700809387075B2322F1000C
:102378003755008093071000B7260080B7550080B6
:10238800930405BE2320F1009308F0001308000011
:1023980093070000130700009386061F130600200A
:1023A8009385055F130505BEEF00506483C7D4000D
:1023B800232694001305800093F7B7FFA386F40043
:1023C800B7570080938787CD232CF400232EF40081
:1023D8007335053013758500EFD09FE5130101FFB4
:1023E80023261100EFF01F8EB757008083A7C7A3DD
:1023F8008320C100375700803385A7002328A7CC46
:102408009305000013850700130101016F10C040F8
:10241800130580007335053013758500678000004B
:10242800130101FF2324810037540080930704CC53
:102438002322910083A44702232611009387470291
:10244800130404CC6384F400639404008324C4005C
:1024580083278400631805046386070403C7D7002D
:102468001377F7016310070483A607021307F0FF29
:10247800639AE60283D6E7001307F0076374D7026E
:10248800375700800327C79C638EE7002320F40298
:102498008320C1000324810083244100130101012A
:1024A8006780000063849700EFF05FF323209402B5
:1024B8006FF01FFE130101FE232E1100232C810053
:1024C800232A910023282101232631019384050022
:1024D80093090500EFF0DFF3B75700809305A000DC
:1024E800130405001385990023A807CCEFE0CFC19A
:1024F800B757008037590080232EA9A223AC97A292
:1025080013748400EFF09FED732404308320C1011D
:102518000324810183244101032901018329C10086
:102528001301010267800000130101FF23248100C9
:102538002326110013040500EFF09FED9307050013
:10254800032504006314A4001305000093F7870013
:10255800F3A707308320C100032481001301010180
:1025680067800000B7570080938707CC83A60700D1
:1025780013070500639A060083A6870083A707024E
:102588006384F6006FD0DFCA13778700732707309C
:1025980067800000130101FF232481003754008065
:1025A800130404CC832784002326110023229100DE
:1025B80083C7F700639A070237460080B745008053
:1025C800374500801305C5419306701D13068674B0
:1025D80093854577EFF04FBC374500801305C571EB
:1025E800EFF08FBB6F00000083270400638A0702A7
:1025F80037460080B7450080374500801305C54140
:102608009306801D1306867493854570EFF0CFB846
:10261800374500801305C571EFF00FB86F00000053
:10262800EFF01FDF03278400930405001305100053
:102638008347F70093F4840093871700A307F700F4
:10264800EFF01FDEF3A40430130580007335053066
:10265800032481008320C100832441001375850071
:10266800130101016FF01FF0B757008083A7C79CC3
:102678006398F50237460080B745008037450080EB
:10268800130101FF9306D021130686749385056A0A
:102698001305C54123261100EFF00FB06F000000AD
:1026A800832705006310F5028327450023A0A500B2
:1026B80023A2F5008327450023A0B7002322B500F5
:1026C80067800000E38207FE0387E5008386E70052
:1026D800635ED70003A7470023A0F50023A2E50007
:1026E8002320B70023A2B700678000008326450097
:1026F800E38CD7FA83A70700E39A07FC6FF0DFFAA9
:10270800130101FF232611002324810023229100B5
:1027180093040500EFF0DFCF130405003755008060
:1027280093850400130545CEEFF01FF483C7D4004A
:10273800130500001374840093E70704A386F400CC
:10274800EFF01FCE732404308320C10003248100DE
:102758008324410013010101678000008347D500ED
:1027680093F7F701639A0700032705029307F0FF21
:102778006314F7006FF0DFF867800000B757008038
:1027880083A7C79C6398F50237460080B745008049
:1027980037450080130101FF9306C0221306867493
:1027A8009385056A1305C54123261100EFF0CF9ED6
:1027B8006F00000003A7450083A705002320F7004A
:1027C80023A2E70067800000130101FF2324810092
:1027D800232291001304050023261100EFF05FC3A4
:1027E800930405000325840063140502374600801E
:1027F800B745008037450080930610151306867488
:102808009385456B1305C541EFF00F996F000000E4
:1028180093050400EFF09FF68347D40093F48400F7
:1028280093F7D7FFA306F400F3A40430232404008D
:102838008320C10003248100832441001301010186
:1028480067800000832705FF130101FF232481000F
:10285800232291002326110013040500930485FE0A
:102868006386070013850400EFF01FF6834754FFC3
:102878008320C1001385040093F7B7FFA30AF4FE71
:102888000324810083244100130101016FF01FED2F
:10289800130101FF93050000232481002326110062
:1028A800EFF09FC81304050063080500EFF0DFF19F
:1028B80013058401EF005052130504008320C10062
:1028C800032481001301010167800000130101FE48
:1028D8002328210137590080130909CC232E110020
:1028E800232C8100232A910023263101130405009B
:1028F80093094902EFF0DFB1930504009304050042
:1029080013850900EFF09FE793050400138509007C
:10291800EFF09FD58347D4000325890093F4840002
:1029280093E7070433058540A306F4001335150023
:10293800EFF01FAFF3A404308320C1010324810109
:1029480083244101032901018329C10013010102E4
:1029580067800000B757008083A7C7A3638807066E
:10296800B7570080938707CC03A787009306F00723
:102978000356E70063ECC604B75600800306E70079
:1029880083A686A36344D604B756008083A6C69C54
:10299800630ED702032607029306F0FF6318D602D8
:1029A80083A607016340D502130101FF1305070041
:1029B80023261100EFF09FF18320C10013010101CC
:1029C8006FF0DFA1B386A64023A8D7006780000078
:1029D800130101FF23248100232291001304050021
:1029E8002326110023202101EFF09FA28347D40062
:1029F8009304050093F70704638A07023759008098
:102A0800130909CC1305490293050400EFF01FD7F9
:102A18008347D4000325890093F7F7FB33058540E6
:102A2800A306F40013351500EFF09F9F93F484007C
:102A3800F3A404308320C1000324810083244100CF
:102A4800032901001301010167800000130101FF40
:102A5800232481002322910013040500232021014F
:102A6800232611009384050013090600EFF05FF692
:102A78008347D40093E72700A306F400638A040081
:102A8800232494009305040013850400EFF0DFBDB0
:102A98009307F0FF630CF9029305A0001305990052
:102AA800EFD09FE613061500130584010324810067
:102AB8008320C1008324410003290100B735008029
:102AC8009385C584130101016F0050408320C10024
:102AD800032481008324410003290100130101011B
:102AE80067800000130101FFB7570080232481008D
:102AF8001304050003A587CC23261100EFF01FF56A
:102B080013050400032481008320C100130101017F
:102B18006FD00FF2130101FE232C8100232A9100AC
:102B2800232821011304050013890500232E110011
:102B380023263101EFF0DF8D8347D4001319890173
:102B48009304050093F7F70113598941639A07061F
:102B5800032704029307F0FF6314F706B7590080B0
:102B6800938949CE9305040013850900EFF01FC12E
:102B7800930504001385090023072401EFF0DFAE55
:102B880013051000EFF0DF899307100093F4840019
:102B9800F3A40430638C07021305800073350530F5
:102BA800032481018320C1018324410103290101F8
:102BB8008329C10013758500130101026FF09F9AE4
:102BC80023072401930700006FF05FFC8320C101F5
:102BD8000324810183244101032901018329C100C0
:102BE8001301010267800000B7570080938707CC64
:102BF8001387470223A2E70223A4E70293050000F4
:102C0800130500006FF01F8B130101FF232611002D
:102C180023248100138705019307E00163F2E70489
:102C28001384050037460080B7450080374500808B
:102C38009306D02C13068674938585601305C541C9
:102C4800EFE09FD537450080930600FF1306E000AC
:102C5800930504001305C543EFE01FD46F0000007F
:102C6800B757008083A707CC638A070237460080DE
:102C7800B7450080374500801305C5419306E02C11
:102C88001306867493854570EFE01FD137450080A1
:102C98001305C571EFE05FD06F00000003248100C9
:102CA8008320C100130101016FF0DFE6130101FF6A
:102CB8002324810037540080832704CC2326110065
:102CC8002322910023202101638A070237460080CE
:102CD800B7450080374500801305C541930660302D
:102CE8001306867493854570EFE01FCB3745008047
:102CF8001305C571EFE05FCA6F000000130404CC30
:102D0800B75700800327840083A7C79C630CF7028A
:102D1800EFF00FF0832584001309440293040500A3
:102D280013050900EFF09FA583258400130509000A
:102D380093F48400EFF05F9313051000EFF04FEE6B
:102D4800F3A4043003278400832704026304F702F2
:102D58001305800073350530032481008320C100EA
:102D68008324410003290100137585001301010123
:102D78006FD00FCC8320C10003248100832441003D
:102D8800032901001301010167800000130101FDFF
:102D98002324810237540080130404CC83270400C1
:102DA800232611022322910223202103232E3101FD
:102DB800638A070237460080B745008037450080A0
:102DC8001305C541930640321306867493854570F2
:102DD800EFE09FBC374500801305C571EFE0DFBB0E
:102DE8006F0000009307F0FF631AF5023746008072
:102DF800B7450080374500801305C541930650321A
:102E0800130686749385455FEFE01FB93745008048
:102E18001305C571EFE05FB86F0000006316050287
:102E28002326A100EFF09FE80325C1008320C102FB
:102E38000324810283244102032901028329C10159
:102E480013010103678000009305A0001305950096
:102E5800EFD09FAB93091500EF001037B384A9009A
:102E6800130980007339093003258400EFF05FB639
:102E780003258400B7350080138609009385C5842F
:102E880013058501EF00900413758900EFD04FBA40
:102E9800EF009033B384A44013050000E35890F882
:102EA8001306803E930600001385040093D5F44171
:102EB800EFD09F9C1306400693060000EFD04FBC4E
:102EC8006FF0DFF6130101FF232481002326110090
:102ED8002322910013048000733404308347D50003
:102EE8001374840093F72700638E0700732404305B
:102EF8008320C100032481008324410013010101C0
:102F0800678000009304050013058501EF00C06C7D
:102F18009307F0FFE30CF5FC13850400EFF01F8422
:102F2800B757008083A707CCE39207FC130504007A
:102F3800032481008320C10083244100130101017F
:102F48006FF04FE2B757008003A587CC6780000079
:102F5800130101FF23261100631A06023746008079
:102F6800B7450080374500801305C5419306D00357
:102F78001306C6799385857CEFE01FA2374500804C
:102F88001305457DEFE05FA16F000000637AB6028C
:102F980037460080B7450080374500801305C54196
:102FA8009306E0031306C6799385C57EEFE0DF9E9E
:102FB8003755008013054580EFE01F9E6F00000025
:102FC8008320C1002324B5002326C5002320A500A3
:102FD8002322A5001301010167800000130101FFEE
:102FE800232481002320210123261100232291007C
:102FF800130905001304800073340430137484002B
:10300800EFF01F89630205048347D5009304050088
:1030180093F7F701639A0700032705029307F0FF68
:103028006314F700EFF0CFED23A6040613050400A0
:10303800032481008320C100832441000329010067
:10304800130101016FF00FD2032789008327C900FC
:10305800B387E740B337F000B387E7002324F900CC
:103068006FF0DFFCB757008083A707CC13860500F5
:1030780063800704638E050237460080B7550080D9
:1030880037450080130101FF1305C5419306300839
:103098001306C6799385C58223261100EFE0DF8FDA
:1030A800374500801305C571EFE01F8F6F000000E2
:1030B80093078000F3B707300327850093F787004D
:1030C800630C07001307F7FF2324E500F3A7073075
:1030D800130500006780000063180600F3A7073097
:1030E800130500FF6780000093050500138507009E
:1030F8006FF05F9F130101FF2324810023229100B9
:10310800232611009304050013048000138505008D
:10311800733404309305A00013059500EFD0CFFE5B
:10312800B7350080130615009385C584138584017F
:10313800EF00C05913748400732404308320C10045
:1031480003248100832441001301010167800000EA
:103158008347D50093F7F701639A07000327050211
:103168009307F0FF6314F7006FF08FD967800000B2
:10317800B757008003A507CC3335A000678000004F
:10318800B757008083A787CC03C5C7001375150000
:1031980067800000130101FF23248100232611000A
:1031A80013048000733404300347D500137484007B
:1031B80093764700639C0600732404308320C10083
:1031C8000324810013010101678000001377B7FF12
:1031D800A306E500EFF0DFF71305040003248100E0
:1031E8008320C100130101016FF0CFB7130101FE65
:1031F80003230102232C8100232E110023206100C8
:1032080013040500EFD01FF0B757008083A787CCC1
:103218008320C10183A787062324F40603248101A0
:10322800130101026780000037530080032303CC99
:10323800130101FE232A9100232E1100232C810063
:1032480083244102630A030237560080B745008091
:10325800374500801305C5419306801A1306068674
:1032680093854570EFE04FF33755008013050589C6
:10327800EFE08FF26F000000032301022322010018
:103288001304050023206100EFF05FF69307F0FFB9
:103298006388F4006392040213050400EFF09FEFC3
:1032A800130504008320C101032481018324410103
:1032B80013010102678000009385040013050400D0
:1032C800EFF05FE36FF0DFFD83270506130101FFD1
:1032D80023248100232611001304050063840700BA
:1032E800E78007008347D40013F7F701631A070242
:1032F800832604021307F0FF6394E6021305040013
:10330800EFF00FED8347D4008320C10093E78700D7
:10331800A306F40003248100130101016780000063
:1033280093F727006386070013050400EFF0CFC961
:10333800032704029307F0FFE306F7FC1305840153
:10334800EF0080296FF01FFC130101FDB7570080C3
:10335800232E3101B75900802324810223229102B0
:103368002326110223202103138407A0938407A096
:10337800938909A063603405B757008003A707CC79
:10338800630C070637460080B74500803745008044
:103398001305C5419306200F1306C66C9385457027
:1033A800EFE08FDF374500801305C571EFE0CFDE12
:1033B8006F0000008327C4022322F1008327040240
:1033C8002320F100832744018328C40103288401B2
:1033D800032704018326C4000326840083254400B0
:1033E80003250400EFF09FE08327040023AE870441
:1033F800130404036FF01FF8938707CC03A7870013
:10340800930610008347F700639AD7023746008077
:10341800B7450080374500801305C5419306300F36
:103428001306C66C93850572EFE00FD73745008009
:103438001305C571EFE04FD66F0000009387F7FFC3
:10344800A307F700130980007339093013840400B7
:10345800137989009304F0FF6362340373290930F8
:10346800032481028320C10283244102032901022B
:103478008329C101130101036FF0CF918325440211
:10348800638895000325040063980500EFF09FD03A
:10349800130404036FF05FFCEFF0DFC56FF05FFF0C
:1034A8009307F0FF2306D500A306C5002307B50040
:1034B800A30705002320F50267800000130101FF20
:1034C8002324810023261100232291001304800065
:1034D800733404308347C50093F71700638A0702E3
:1034E80037560080B7550080374500801305C54121
:1034F800930630021306868B9385C58EEFE0CFC9FD
:103508003755008013050592EFE00FC96F000000E2
:1035180093040500EFF05FDBB757008003A707CCE3
:1035280013748400630E0700732404308320C100E1
:1035380003248100832441001301010167800000F6
:10354800938707CC83A7870013050400639497002B
:10355800EFC01FCE032481008320C10083244100D3
:10356800130101016FF00F80B757008083A707A4EC
:10357800639407006FE00FF51305000067800000F3
:1035880013058000733505301375850067800000CA
:1035980083270500638807020327450063040702A1
:1035A800B756008083A6469C630AD50083A6870089
:1035B80003268500B386C60023A4D7002320F7007E
:1035C80023A2E7009307F0FF23220500232005002C
:1035D8002324F50067800000130101FF23248100E4
:1035E800232291002326110093040500EFF05FF9D0
:1035F80003A784009307F0FF130405001305F0FFE9
:103608006308F70013850400EFF09FF81305000026
:1036180013748400732404308320C10003248100C0
:10362800832441001301010167800000B75700801F
:1036380083C747A4130101FF232481002326110017
:1036480023229100232021011304F0FF6396070031
:10365800370400801344F4FFEFF09FF2B75700805F
:103668009387079C03A90700930405006304F902E4
:103678006302090203248900EFF01FEF3305A44019
:10368800130400006348050003248900EFF0DFED10
:103698003304A44093F48400F3A40430B7570080A3
:1036A80083A707CD6386070063D4870013840700C8
:1036B800130504008320C1000324810083244100F2
:1036C8000329010013010101678000008327850099
:1036D800130101FE232E1100232C8100232A9100BF
:1036E80063CA070237560080B75500803745008007
:1036F8001305C541930630041306C6939385C596F2
:10370800EFE08FA9374500801305C571EFE0CFA81A
:103718006F0000002326B5002326C100130405000E
:10372800EFF01FE693040500EFF01FE40326C10045
:103738006344C00013061000B757008003A7079C16
:103748003306A6002324C4009387079C6306F7006A
:1037580083A547006310070203A747002320F4004E
:103768002322E40003A747002320870023A2870021
:103778006F0000068326870063DA0602375600804A
:10378800B7550080374500801305C5419306C0042E
:103798001306C6939385C597EFE00FA037450080C1
:1037A8001305C571EFE04F9F6F00000003268400EA
:1037B800635AD604B386C6402324D700832647001D
:1037C8002320E4002322D40023A08600232287009C
:1037D80003A70700630AF7006318E400EFF01FE58A
:1037E80093050000EFE0CFBD93F48400F3A4043008
:1037F8008320C101032481018324410113010102B3
:1038080067800000B306D6402324D400E386E5F49D
:10381800032707006FF01FF4130101FE2326B100F0
:10382800232E1100232C8100232A910093040500E4
:10383800EFF01FD513040500EFF05FDF8325C1000B
:1038480063DAA4009307100063D6A7001385040069
:10385800EFE00FB713748400732404308320C10190
:1038680003248101832441011301010267800000C0
:10387800130101FE232E1100232C8100232A91001D
:10388800130405002326310123244101B759008080
:1038980023282101375A0080EFF0CF8BB7540080DE
:1038A800EFF01FCE130A0A9C23A089A4938484A452
:1038B800938909A403240A0083A7090083A60400A6
:1038C80003A8440013798500630C4401630A0400CB
:1038D8000327840063DEE7043307F7402324E4006A
:1038E800B386D70013D7F74133070701B3B7F600FC
:1038F800B387E70023A0D40023A2F40023A0090083
:10390800EFF0DFD293050000EFE08FAB73290930A9
:103918008320C1010324810183244101032901017A
:103928008329C100032A8100130101026780000076
:10393800B306D7009355F74133B6E600B3850501C2
:103948003306B600B387E7402324040013050400B8
:1039580023A0D40023A2C40023A0F900EFF05FC382
:10396800732909308327C40013050400E780070082
:10397800EFF01FC16FF01FF4130101FF23261100A0
:1039880023248100EFF0DFBF13040500EFE08FB3BD
:1039980037570080130787A49307050003250700FE
:1039A80083254700137484003385A700B337F500D7
:1039B800B385B700732404308320C1000324810039
:1039C8001301010167800000130101FF2326110084
:1039D800EFF09FFA8320C100130101016780000006
:1039E800130101FF23261100EFF01FFE1306803E8E
:1039F8009306000093050000EFC01FE81306400679
:103A080093060000EFC0DF878320C1001301010186
:103A180067800000130101FF232481002322910005
:103A280037540080B754008023261100130404A0E3
:103A3800938404A0636E94008320C1000324810052
:103A48008324410013050000130101016780000071
:103A58009307440113050400232AF400232CF400DF
:103A6800EFD05F851304C4016FF0DFFC67800000AE
:103A7800000000005C100080000000005C10008066
:103A8800000000005C100080000000005C10008056
:103A9800000000005C100080000000005C10008046
:103AA800000000005C10008000000000CC1A0080BC
:103AB800000000005C100080000000005C10008026
:103AC800000000005C100080000000005C10008016
:103AD800000000005C100080000000005C10008006
:103AE800000000005C100080000000005C100080F6
:103AF800000000005C100080000000005C100080E6
:103B0800000000005C100080000000005C100080D5
:103B1800000000005C100080000000005C100080C5
:103B2800000000005C100080000000005C100080B5
:103B3800000000005C100080000000005C100080A5
:103B4800000000005C100080000000005C10008095
:103B5800000000005C100080000000005C10008085
:103B6800000000005C100080000000005C10008075
:103B7800000000005C100080000000005C10008065
:103B8800000000005C100080000000005C10008055
:103B9800000000005C100080000000005C10008045
:103BA800000000005C100080000000005C10008035
:103BB800000000005C100080000000005C10008025
:103BC80060400080841A0080000000007844008073
:103BD8007C1B00800000000070440080E41D008011
:103BE80000000000604000801C3A008000000000D7
:103BF800000102020303030304040404040404048C
:103C0800050505050505050505050505050505055C
:103C1800060606060606060606060606060606063C
:103C2800060606060606060606060606060606062C
:103C3800070707070707070707070707070707070C
:103C480007070707070707070707070707070707FC
:103C580007070707070707070707070707070707EC
:103C680007070707070707070707070707070707DC
:103C780008080808080808080808080808080808BC
:103C880008080808080808080808080808080808AC
:103C9800080808080808080808080808080808089C
:103CA800080808080808080808080808080808088C
:103CB800080808080808080808080808080808087C
:103CC800080808080808080808080808080808086C
:103CD800080808080808080808080808080808085C
:103CE800080808080808080808080808080808084C
:103CF800746573745F746872656164007465737465
:103D08005F736C65657000002F686F6D652F6D6956
:103D1800616F752F70726F2F72697363762F7A6572
:103D2800706879722F74657374732F6B65726E6522
:103D38006C2F736C6565702F7372632F6D61696E7C
:103D48002E6300000A202020204173736572746975
:103D58006F6E206661696C65642061742025733A12
:103D680025643A2025733A2025730A007465737414
:103D78005F736C6565700000736C656570000000AA
:103D88004B65726E656C206F626A65637473206937
:103D98006E697469616C697A65640A005465737444
:103DA8002074687265616420737461727465643A22
:103DB800206964203D2025700A00000048656C7069
:103DC80065722074687265616420737461727465C9
:103DD800643A206964203D2025700A007465737474
:103DE800206661696C75726500000000287465734F
:103DF800745F6661696C7572652069732074727589
:103E08006529000054657374696E67206B65726E6E
:103E1800656C206B5F736C65657028290A0000006B
:103E28006B5F736C656570282920736C65707420EE
:103E3800666F72202564207469636B732C206E6F23
:103E4800742025640A00000028736C6565705F742F
:103E5800696D655F76616C69642873746172745FFB
:103E68007469636B2C20656E645F7469636B2C20C6
:103E78004F4E455F5345434F4E445F414C49474E73
:103E88004544292069732066616C73652900000028
:103E980054657374696E67206E6F726D616C20650E
:103EA800787069726174696F6E206F66206B5F73DA
:103EB8006C65657028290A0054657374696E673AE1
:103EC80020746573742074687265616420736C650E
:103ED8006570202B2068656C706572207468726547
:103EE80061642077616B65757020746573740A006E
:103EF8004641494C000000002573202D20257340C1
:103F080025642E2000000000202A2A2A206B5F73D7
:103F18006C656570282920736C65707420666F72F3
:103F2800202564207469636B73206E6F7420256488
:103F38002E000000202A2A2A206B5F77616B6575A6
:103F480070282920746F6F6B20746F6F206C6F6EF0
:103F58006720282564207469636B73290A000000B0
:103F680054657374696E673A207465737420746855
:103F78007265616420736C656570202B20697372AB
:103F8800206F66666C6F61642077616B6575702061
:103F9800746573740A00000054657374696E673A37
:103FA80020746573742074687265616420736C652D
:103FB8006570202B206D61696E2077616B65757067
:103FC8002074657374207468726561640A00000067
:103FD800202A2A2A206B5F77616B65757028292053
:103FE800746F6F6B20746F6F206C6F6E672028255D
:103FF80064207469636B7329206174204C415354A5
:104008000A000000340F0080EC0F0080EC0F0080E5
:10401800280F0080340F0080D40F0080E00F00804C
:1040280090420080B0420080CC420080E042008094
:10403800EC42008004430080756E6B6E6F776E00F3
:10404800457863657074696F6E2063617573652068
:10405800257320282564290A000000002A2A2A2A14
:10406800204B65726E656C20416C6C6F636174697E
:104078006F6E204661696C75726521202A2A2A2A8A
:104088000A0000002A2A2A2A2A204B65726E656CCB
:10409800204F4F505321202A2A2A2A2A0A0000009A
:1040A8002A2A2A2A2A204B65726E656C2050616E76
:1040B800696321202A2A2A2A2A0A00002A2A2A2A67
:1040C80020556E6B6E6F776E20466174616C20456B
:1040D80072726F7220256421202A2A2A2A0A000077
:1040E80043757272656E74207468726561642049E4
:1040F80044203D2025700A4661756C74696E6720FE
:10410800696E737472756374696F6E20616464722A
:10411800657373203D20307825780A202072613A33
:104128002030782578202067703A2030782578204C
:104138002074703A2030782578202074303A203066
:104148007825780A202074313A2030782578202084
:1041580074323A2030782578202074333A20307829
:104168002578202074343A20307825780A20207465
:10417800353A2030782578202074363A2030782552
:1041880078202061303A2030782578202061313A33
:1041980020307825780A202061323A203078257836
:1041A800202061333A2030782578202061343A2065
:1041B80030782578202061353A20307825780A2013
:1041C8002061363A2030782578202061373A20302F
:1041D8007825780A0000000049535200657373651A
:1041E8006E7469616C207468726561640000000017
:1041F800466174616C206661756C7420696E202557
:104208007321205370696E6E696E672E2E2E0A0018
:10421800466174616C206661756C7420696E2074E7
:104228006872656164202570212041626F7274692B
:104238006E672E0A00000000ADBAADDEADBAADDE85
:10424800ADBAADDEADBAADDEADBAADDEADBAADDE9E
:10425800ADBAADDEADBAADDEADBAADDEADBAADDE8E
:10426800ADBAADDEADBAADDEADBAADDEADBAADDE7E
:10427800ADBAADDEADBAADDEADBAADDEADBAADDE6E
:10428800ADBAADDEADBAADDE496E737472756374E6
:10429800696F6E2061646472657373206D69736100
:1042A8006C69676E65640000496E73747275637437
:1042B800696F6E20416363657373206661756C7402
:1042C80000000000496C6C6567616C20696E73744E
:1042D80072756374696F6E00427265616B706F69A5
:1042E8006E7400004C6F616420616464726573735E
:1042F800206D6973616C69676E6564004C6F6164F9
:1043080020616363657373206661756C74000000D7
:1043180053707572696F757320696E746572727502
:104328007074206465746563746564212049525112
:104338003A2025640A0000002F686F6D652F6D69AB
:10434800616F752F70726F2F72697363762F7A653C
:10435800706879722F617263682F7269736376333C
:10436800322F636F72652F7468726561642E630003
:10437800282828287072696F726974792929203D64
:104388003D203135202626205F69735F69646C659E
:104398005F74687265616428287468726561645F17
:1043A80066756E63292929207C7C20285F69735FE4
:1043B8007072696F5F6869676865725F6F725F6561
:1043C8007175616C2828287072696F72697479290F
:1043D800292C20283135202D203129292026262056
:1043E8005F69735F7072696F5F6C6F7765725F6F1B
:1043F800725F657175616C2828287072696F7269BF
:10440800747929292C2028282D3136292929292968
:1044180000000000415353455254494F4E20464135
:10442800494C205B25735D20402025733A25640A9A
:104438000000000009696E76616C69642070726919
:104448006F7269747920282564293B20616C6C6F30
:104458007765642072616E67653A20256420746F01
:104468002025640A000000007561727430000000A5
:104478007379735F636C6F636B000000DC1D0080F1
:10448800B81D0080000000000000000000000000CF
:104498008C450080F83E00801845008052756E6E8D
:1044A800696E672074657374207375697465202557
:1044B800730A00003D3D3D3D3D3D3D3D3D3D3D3D9B
:1044C8003D3D3D3D3D3D3D3D3D3D3D3D3D3D3D3D14
:1044D8003D3D3D3D3D3D3D3D3D3D3D3D3D3D3D3D04
:1044E8003D3D3D3D3D3D3D3D3D3D3D3D3D3D3D3DF4
:1044F8003D3D3D3D3D3D3D0A000000007374617245
:1045080074696E672074657374202D2025730A0002
:10451800534B4950000000002573202D2025730AB5
:104528000000000054657374207375697465202554
:1045380073206661696C65642E0A000054657374A3
:1045480020737569746520257320737563636565C9
:104558006465640A000000004641494C4544000077
:1045680050524F4A45435420455845435554494FA6
:104578004E2025730A0000005355434345535346C4
:10458800554C00005041535300000000D0490080B2
:10459800F4490080004A0080004A0080004A0080F8
:1045A8006D61696E0000000069646C6500000000C0
:1045B8002A2A2A2A2A20426F6F74696E67205A6550
:1045C80070687972204F53207A65706879722D76F9
:1045D800312E31332E302D333032302D673337665C
:1045E80033373434202A2A2A2A2A0A006475726149
:1045F80074696F6E20213D20282D312900000000AC
:10460800282828287072696F2929203D3D203135D6
:10461800202626205F69735F69646C655F74687221
:1046280065616428282828766F6964202A2930293A
:10463800292929207C7C20285F69735F7072696F43
:104648005F6869676865725F6F725F657175616CD5
:104658002828287072696F29292C20283135202DA7
:1046680020312929202626205F69735F7072696FBF
:104678005F6C6F7765725F6F725F657175616C28CB
:1046880028287072696F29292C2028282D3136296D
:104698002929292900000000215F69735F69646C7A
:1046A8006528746872656164290000007468726521
:1046B80061642D3E626173652E70656E6465645F2A
:1046C8006F6E00002F686F6D652F6D69616F752FB4
:1046D80070726F2F72697363762F7A65706879725A
:1046E8002F6B65726E656C2F696E636C7564652FD0
:1046F8006B73636865642E680000000021285F6B97
:1047080065726E656C2E6E657374656420213D203C
:1047180030552900090A00005F6B65726E656C2EC2
:1047280063757272656E742D3E626173652E736374
:104738006865645F6C6F636B656420213D203100A0
:104748002F686F6D652F6D69616F752F70726F2F90
:1047580072697363762F7A65706879722F6B6572E8
:104768006E656C2F73636865642E63005F6B65729A
:104778006E656C2E63757272656E742D3E62617320
:10478800652E73636865645F6C6F636B6564202175
:104798003D2030002F686F6D652F6D69616F752F33
:1047A80070726F2F72697363762F7A657068797289
:1047B8002F6B65726E656C2F73656D2E630000003C
:1047C8006C696D697420213D20305500096C696D54
:1047D80069742063616E6E6F74206265207A6572F9
:1047E8006F0A0000696E697469616C5F636F756E4A
:1047F80074203C3D206C696D6974000009636F7515
:104808006E742063616E6E6F7420626520677265D6
:1048180061746572207468616E206C696D69740AD0
:10482800000000002828285F6B65726E656C2E6E8C
:10483800657374656420213D20305529203D3D2055
:104848003029207C7C202874696D656F7574203D43
:104858003D203029290000002F686F6D652F6D6994
:10486800616F752F70726F2F72697363762F7A6517
:10487800706879722F6B65726E656C2F74687265DB
:1048880061642E63000000000954687265616473F6
:10489800206D6179206E6F74206265206372656196
:1048A80074656420696E20495352730A0000000041
:1048B8002F686F6D652F6D69616F752F70726F2F1F
:1048C80072697363762F7A65706879722F6B657277
:1048D8006E656C2F7468726561645F61626F727473
:1048E8002E630000287468726561642D3E626173EE
:1048F800652E757365725F6F7074696F6E732026AD
:1049080020282831554C203C3C20283029292929A9
:10491800203D3D203000000009657373656E7469A1
:10492800616C207468726561642061626F7274657D
:10493800640A00002F686F6D652F6D69616F752FB0
:1049480070726F2F72697363762F7A6570687972E7
:104958002F6B65726E656C2F74696D656F75742E3B
:1049680063000000746F2D3E647469636B73203CB0
:1049780020300000742D3E647469636B73203E3DE3
:0449880020300000DB
:10498C00743D0080C80A0080C4090080C4090080FE
:10499C00000000000000000000000000000000000B
:1049AC000000000000000000010000000414008062
:1049BC0003000000C0490080C0490080F5FFFFFFE4
:0449CC00E04B00803C
:1049D000EC3B00800000000000000000E03B008095
:1049E0008444008000000000C83B008000000000FC
:1049F00000000000D43B0080000000000000000028
:104A0000004A0080004A0080000000000000000012
:044A10000F00000093
:040000058000000077
:00000001FF
