:0200000480007A
:100000009702000093820201739052306F00D05D1E
:10001000130101FB2320110023223100232441007E
:100020002326510023286100232A7100232CC101BB
:10003000232ED1012320E1032322F1032324A10253
:100040002326B1022328C102232AD102232CE10254
:10005000232EF1022320010523221105F32210345F
:1000600023245104F322003023265104EF00002002
:100070001303000063160504F3222034B703008045
:100080009383F3FFB3F272001303B000638A62003C
:100090001305010097000000938040146F00D045C5
:1000A000832281049382420023245104974200005A
:1000B0009382825903A30200631403006F000009B6
:1000C00093020100975300009383438203A14300EE
:1000D000130101FF2320510003AE0300130E1E0085
:1000E00023A0C30163080300970000009380C003AE
:1000F0006F00504973252034B70200809382F2FFCD
:1001000033755500EF008015973200009382C25975
:1001100013153500B382A20003A5020003A3420019
:10012000E7000300174300001303437C832303000D
:100130009383F3FF232073008322010013810200C5
:1001400083238300032E030263087E089742000086
:100150009382C27903A38200232683022328930279
:10016000232A2303232C3303232E43032320530565
:10017000232263052324730523268305232893055F
:10018000232AA305232CB30523242302974300002D
:100190009383834603AE03002326C30703A302020F
:1001A00023A46200032183020324C30283240303E4
:1001B0000329430383298303032AC303832A0304F4
:1001C000032B4304832B8304032CC304832C0305D8
:1001D000032D4305832D83058322810473901234FC
:1001E0008322C104739002308320010083214100E7
:1001F000032281008322C1000323010183234101E3
:10020000032E8101832EC101032F0102832F41029E
:10021000032581028325C1020326010383264103AE
:10022000032781038327C103032801048328410492
:100230001301010573002030730000009742000095
:100240009382C26A03A382008323C30613758500C9
:10025000F3220530138503006780000013031000AC
:10026000B312A30073B3423467800000F32220343A
:1002700037030080B3F262001305000063840200BC
:08028000130515006780000062
:10028800938705001308060013870600130305006B
:1002980063960628973800009388885863F6C50E39
:1002A800370701006378E60C1307F00F3337C700F0
:1002B80013173700B356E600B388D80083C6080082
:1002C8003387E60093060002B386E640638C060097
:1002D800B397D7003357E5003318D600B365F70056
:1002E8003313D5001355080133F7A5021316080177
:1002F8001356060193560301B3D5A5021317070138
:10030800B366D700B307B6021387050063FEF6008D
:10031800B38606011387F5FF63E8060163F6F60066
:100328001387E5FFB3860601B386F640B3F7A60246
:100338001313030113530301B3D6A60293970701BE
:1003480033E36700B305D60213850600637CB30068
:10035800330368001385F6FF636603016374B30013
:100368001385E6FF131707013367A70093050000FD
:100378006F00400EB706000113070001E36CD6F2C8
:10038800130780016FF01FF3631606009306100031
:1003980033D8C602B70601006372D80C9306F00F73
:1003A80063F4060113078000B356E800B388D80049
:1003B80083C60800B386E600130700023307D74058
:1003C8006318070AB38707419305100013560801FD
:1003D8009318080193D808019356030133F7C7020D
:1003E800B3D7C70213170701B366D7003385F802DE
:1003F8001387070063FEA600B38606011387F7FF7D
:1004080063E8060163F6A6001387E7FFB3860601D3
:10041800B386A640B3F7C6021313030113530301AF
:10042800B3D6C6029397070133E36700B388D802AF
:1004380013850600637C1301330368001385F6FFF8
:1004480063660301637413011385E6FF131707013D
:100458003367A7001305070067800000B70600018F
:1004680013070001E362D8F4130780016FF0DFF38C
:100478003318E800B3D5D7003313E500B356D500D9
:1004880013550801B397E70033F7A502B3E8F60060
:100498009317080193D7070113D60801B3D5A5020E
:1004A800131707013367C700B386B7021386050021
:1004B800637ED700330707011386F5FF63680701DA
:1004C8006376D7001386E5FF33070701B306D740E5
:1004D80033F7A6029398080193D80801B3D6A60269
:1004E80013170701B385D702B367170113870600EF
:1004F80063FEB700B38707011387F6FF63E80701B8
:1005080063F6B7001387E6FFB3870701B387B740E1
:1005180093150601B3E5E5006FF05FEB63E6D518C8
:100528003707010063F4E6041308F00F3337D800E7
:100538001317370033D8E600973500009385452E0A
:10054800B385050103C80500930500023308E800D8
:10055800B38505416396050213071000E3ECF6EE38
:100568003335C500134715006FF0DFEEB7050001FE
:1005780013070001E3E0B6FC130780016FF09FFB4F
:1005880033570601B396B600B366D70093DE06016B
:1005980033D70701B378D703B397B70033580501AA
:1005A8003363F8009397060193D7070113580301A3
:1005B8003316B6003357D7039398080133E8080178
:1005C800338FE702130E0700637EE8013308D80073
:1005D800130EF7FF6368D8006376E801130EE7FF90
:1005E8003308D8003308E841B378D8033358D80320
:1005F80093980801B38E07039317030193D7070154
:10060800B3E7F8001307080063FED701B387D700E4
:100618001307F8FF63E8D70063F6D7011307E8FF6D
:10062800B387D700131E0E01B387D741B70E010059
:100638003367EE001388FEFF3373070193580701F1
:100648003378060113560601330E03033388080373
:1006580093560E013303C30233030301B3866600C6
:10066800B388C80263F40601B388D80113D606011B
:10067800B308160163E61703E39A17CFB70701001B
:100688009387F7FFB3F6F60093960601337EFE00D4
:100698003315B500B386C60193050000E37CD5DAAF
:1006A8001307F7FF6FF09FCC9305000013070000B6
:1006B8006FF05FDA678000006F20C044130101FF0C
:1006C8002324810023261100EF20907413040500D1
:1006D800EF201074E30EA4FE8320C10003248100E0
:1006E8001301010167800000130101FD232E110091
:1006F800232C8100232401032326110363180504F6
:100708001386060013870500B7460080B7450080AA
:100718003745008093860693138407009385C59315
:1007280093078102130585972326F100EF00906F48
:100738008325C10013050400EF00D06B3745008006
:10074800130505A5EF00106EEF1000388320C101D6
:10075800032481011301010367800000130101FFD5
:1007680023229100B7440080232481009305F0FFE1
:100778001385846E37440080232611001304046413
:10078800EF20405203250400EF20C0379305F0FF07
:100798001385846EEF200051832504000324810013
:1007A8008320C10083244100370500801305056CB0
:1007B800130101016F00005F130101FE232E1100D8
:1007C800232C8100232A910023282101EF20803B3C
:1007D80093050000EF20C00737490080130589778B
:1007E8001306F0FF93050000EF20803A374500809C
:1007F8001306F0FF930500001305856EEF204039BE
:10080800B74400801306F0FF930500001385846F3A
:10081800EF200038374500801305459BEF009060B6
:10082800B7160080B7550080374500809308C0FF91
:100838001308000093070000130700009386C6976B
:100848001306001823220100232001009385059236
:100858001305857037440080EF200060130404649A
:10086800930505002320A400374500801305059D46
:10087800EF00505BB7060080B75500803745008011
:10088800930860FF13080000930700001307000097
:1008980093864676130600182322010023200100C0
:1008A800938505AA13058567EF20005B930505006E
:1008B800374500801305059FEF00D056130589774B
:1008C800EF20C0359305F0FF1385846FEF20803D3E
:1008D8000325040037490080B7440080EF208022B8
:1008E800B747008003C5075EB7450080B74700805B
:1008F800130709931386C493938707A19306E00D02
:10090800938505A213451500EFF01FDE37450080DB
:10091800130585A3EF001051EFF05FDAEF20504F79
:10092800130405001305803EEF20C00AEF20504E47
:1009380033088540032481018320C10113070993EB
:100948001386C49303290101832441011305E8C0D8
:10095800B7470080B74500809308203F938747A595
:100968009306700E9385C5A7133525001301010260
:100978006FF09FD737450080130101FF9305F0FF03
:100988001305857723261100232481002322910053
:1009980023202101EF20003137450080130545ACA5
:1009A800EF005048EFF09FD1EF2090461304050068
:1009B8001305803EEF200002EF2090453304854068
:1009C8009307E4C09304100063E0F40837450080FF
:1009D8001305C5AEEF001045374900801305896E31
:1009E800EF20C023EFF09FCDEF20904213040500C5
:1009F8001305803EEF10107EEF20904133048540B0
:100A080063F884089306D00737460080B74500800E
:100A180037450080938545B21305C5B21306469243
:100A2800EF0050403745008093050400130585B654
:100A3800032481008320C10083244100032901008D
:100A4800130101016F00103E37460080B745008052
:100A58003745008013064692938545B21305C5B203
:100A68009306E006EF00103C930504000324810080
:100A78008320C100832441000329010037450080F9
:100A88001306203F1305C5B3130101016F00903908
:100A980037450080130545B9EF00D0381305896E36
:100AA800EF20C017EFF09FC1EF2090361304050028
:100AB8001305803EEF101072EF2090353304854007
:100AC80063F684009306B0086FF01FF43745008082
:100AD8001305C5BCEF001035374500801305856F39
:100AE800EF20C013EFF09FBDEF20903213040500F4
:100AF8001305803EEF10106EEF20903133048540CF
:100B080063FA840237460080B74500803745008085
:100B1800938545B21305C5B293069009130646920C
:100B2800EF0050303745008093050400130545C099
:100B38006FF01FF08320C10003248100B7470080B5
:100B48002380075E8324410003290100130101016A
:100B580067800000B7450080374500809385855B36
:100B68001305C59A6F005079130101FF2326110060
:100B780023248100930760006304F502EF204022DC
:100B880063040502EF20C02163160504B745008001
:100B9800938505E137450080130545E2EF0090286D
:100BA800EF00502C6FF0DFFFEF208020E31C05FCE6
:100BB800375400801304848E8325840037450080D1
:100BC800130545E4EF00102603258400EF200052AA
:100BD8006FF01FFDB74500809385C5E06FF09FFB60
:100BE800130101FB232481042322910423261104E9
:100BF80093076000930405001384050063E0A70EC3
:100C08003747008093172500130787C3B387E7008A
:100C180083A707006780070037450080130505C9CB
:100C2800EF005020EF101076832744048328040136
:100C38000328C4002328F10283270404032744005F
:100C4800832604002326F1028327C4030326840491
:100C5800930505002324F102832784033745008088
:100C6800130545D12322F102832744032320F102EF
:100C780083270403232EF1008327C402232CF100C9
:100C880083278402232AF100832744022328F100C2
:100C9800832704022326F1008327C4012324F100BB
:100CA800832784012322F100832744012320F100B4
:100CB80083278400EF0010179305040013850400B0
:100CC800EFF09FEA37450080130585CB6FF05FF59D
:100CD80037450080130545CD6FF09FF437450080F8
:100CE80093850400130505CFEF00D0136FF09FF331
:100CF800130101FF2324810023261100130405009A
:100D08007326203413161600135616009307500046
:100D180063E8C7023747008093172600130747C5C3
:100D2800B307F70083A5070037450080130545C7BB
:100D3800EF00500F9305040013050000EFF05FEA81
:100D4800B74500809385C5C66FF01FFE130101FFEC
:100D580023261100F325203437450080939515008C
:100D680093D51500130545F4EF00D00BB745008067
:100D78009385C5E613054000EFF09FE6B74700806E
:100D88009387476403A70700630C070003A30700C2
:100D980023A00700B747008003A587646700030006
:100DA8006780000093078000F3B70730374700805B
:100DB8002322A764374700802324B7647300000008
:100DC80093F78700F3A7073067800000130101FF3E
:100DD80023261100EF10400AEF00D00AEF10801010
:100DE8001741000013018163B7120000938202804B
:100DF80033015100EFF09FFD6F008011130101FDD9
:100E0800232481022322910223202103232E31014E
:100E180023261102938906009306F0009304050027
:100E28001384050013090600639CD808B7260080C0
:100E3800938686E4639CD90883260103938508007A
:100E48001385040013064000232601012324F10022
:100E58002322E100EF20C02783278100930509FBA7
:100E6800B305B40023AE040423A0040693F505FFDC
:100E780023A8F502B7270000032741000328C10073
:100E88009387078823A6F504B71700808320C1023B
:100E980003248102938707E023A4350323A6E502F0
:100EA80023AA050323A4F50423A4B40203290102F9
:100EB800832441028329C1011301010367800000D3
:100EC800938608011306E001E378D6F637460080DA
:100ED800B745008037450080930680011306C6F6A3
:100EE800938545FA1305850423221101EF008073C9
:100EF8008328410037450080930600FF1306E00071
:100F08009385080013058506EF00C0716F00000087
:100F1800130101FF930705001385050093050600DB
:100F28001386060023261100E7800700EF1090457E
:100F3800EF20C01B9307C0003387F5028327C50045
:100F4800B387E7000307B5006354B70083A707001A
:100F5800130700023347E6021375F601131727003B
:100F6800B387E70023A0F60067800000130101FEA5
:100F78009306C100232E1100EFF0DFFB0327C10009
:100F8800930710003395A700832707008320C1012A
:100F9800B3E7A7002320F7001301010267800000D0
:100FA8008327450003588500130101FF232481008E
:100FB8003308F80213040500032505008348A4003C
:100FC8001307F0FF2326110023229100A305E40054
:100FD800930500001303C00033050501130EF0014B
:100FE800930E000263C21503930400008357840024
:100FF80063C4F4068320C1000324810083244100D4
:1010080013010101678000003357F8020326C4006A
:10101800B3866502B306D6001386460023A2C6002F
:1010280023A4C600634EEE00A305B40093D727009F
:101038009387370093F7C7FF938515006FF09FFAE2
:101048001307F7013347D70323A0A6001317270078
:101058003305E5006FF09FFD8327440013860400E5
:10106800930500003387F402832704001305040066
:1010780093841400B387E7000327C400930647004E
:1010880023A0D7008326870023A2D70083268700C2
:1010980023A0F6002324F700EFF05FED6FF01FF5B3
:1010A800130500006780000083A7050093871700D9
:1010B80023A0F500B747008003A3475E670003003D
:1010C800130101FB23248104232E3103232C410324
:1010D800232A510323286103232611042322910480
:1010E800232021052326710323248103232291032E
:1010F8002320A103232EB101130A0500938A0500BA
:1011080093090600138B0600130410006354E000D3
:101118001304070093071000130C00026314FB006C
:10112800130C0003B7D49A3B13091000930CA000CA
:10113800130700009384F49F930D2000130DA00063
:10114800938B14006314070063F2340933D57903D1
:1011580093850A001309190013050503E7000A001F
:1011680013071000938CFCFF93071000B3F9790361
:10117800B3D4A403E396FCFC93850A001385090302
:10118800E7000A009307300033042441630AFB0692
:101198008320C10403248104832441040329010416
:1011A8008329C103032A8103832A4103032B0103F3
:1011B800832BC102032C8102832C4102032D0102DF
:1011C800832DC1011301010567800000E34C94F9E8
:1011D800E3EA6DF993850A0013050C002326E10064
:1011E800E7000A00130919000327C1006FF09FF7F1
:1011F80093850A0013050002E7000A001304F4FFB0
:10120800E34880FE6FF0DFF8B747008023A2A75EAF
:1012180067800000130101FB232481042322910429
:1012280023202105232E3103232C4103232A510394
:101238002328610323229103232EB10123261104BD
:1012480023267103232481032320A103130405000B
:1012580093840500130B0600938C0600130A000004
:101268001309F0FF93090000930D0000930A100082
:1012780003450B00631005048320C1040324810483
:1012880083244104032901048329C103032A810318
:10129800832A4103032B0103832BC102032C810200
:1012A800832C4102032D0102832DC1011301010585
:1012B80067800000639E0D0093065002630AD530D4
:1012C80093850400E7000400130B1B006FF05FFA1E
:1012D80093064006630ED51063E2A60693069003B4
:1012E80063EAA602930610036374D50E9306D00230
:1012F800630AD52E930700036300F50C1307500209
:101308006312E5029385040013055002E700040008
:101318006F00001293068005630CD516130730067C
:10132800630CE5289385040013055002E7000400C8
:101338009385040003450B006FF05FFD93060007DB
:101348006308D51263E0A602930690066302D50AE5
:101358009306C006630AD50893068006E306D5F609
:101368006FF05FFC930650076302D50E63EEA6028A
:1013780013073007E318E5FA138C4C0083AC0C0014
:10138800938B0C0003C50B006316052093073000F0
:101398006398F900B38B9B41B30B79416344702187
:1013A800930C0C006F00C008930680076302D50EEB
:1013B8009306A0076FF09FFA635E0900638809220D
:1013C800130905FDE39209F0930920006FF0DFEFA0
:1013D800E34809FE9306A0003309D902130909FD61
:1013E800330925016FF01FFE130A1A006FF0DFEDB5
:1013F80063C44A0503A60C00938C4C006350060294
:10140800938504001305D0022324C100E7000400DB
:10141800032681001309F9FF3306C04013070900AA
:10142800938609009385040013050400EFF05FC953
:10143800930D00006FF05FE993877C0013F787FF37
:10144800930C8700032607006FF05FFB63C84A010F
:1014580003A60C00938C4C006FF05FFC93877C0014
:1014680013F787FF930C8700032607006FF01FFB15
:101478009385040013050003E70004009385040026
:1014880013058007E7000400130980009309100082
:1014980063CA4A0983A70C00938C4C002324F100EB
:1014A80013068000130C0000130D00009305800044
:1014B80083278100938BF5FF13952B0033D5A70065
:1014C8001375F500631205089306000363140D00F5
:1014D800639655093385A600131585019385040085
:1014E800135585412326C100E7000400130C1C0096
:1014F8000326C10063940B0493063000930D00008B
:10150800E394D9DC13171900330C8741E35280F3B5
:101518009385040013050002E7000400130CFCFF88
:101528006FF0DFFE93877C0093F687FF83A70600A2
:10153800938C86002324F1006FF09FF6138D0D0025
:1015480093850B006FF0DFF6930790009306700504
:10155800E3E2A7F8930600036FF0DFF79307F6FFBF
:101568002326F100634AC900639C5901938504004E
:1015780013050003E70004000326C1006FF05FFCB9
:1015880093072000E39AF9FE9385040013050002EF
:101598006FF05FFE93850400938B1B00E700040047
:1015A8006FF05FDE9385040013050002E700040076
:1015B800938BFBFF6FF09FDE03A50C00938B4C0011
:1015C80093850400E7000400938C0B006FF05FE63E
:1015D800130A00001309F0FF93090000930D10008F
:1015E8006FF09FCE930930006FF01FCE9309100063
:1015F8006FF09FCD130101FE13060500371500801B
:10160800938605001305050B9305C100232E1100D1
:1016180023260100EFF01FC08320C101130101023E
:1016280067800000130101FC2322B10293054102E7
:10163800232E11002324C1022326D1022328E102EC
:10164800232AF102232C0103232E11032326B100A0
:10165800EFF05FFA8320C1011301010467800000E5
:101668006780000093078000F3A7073073005010CD
:1016780067800000930710003395A7007325453055
:101688006780000093078000F3B70730735040303D
:101698007350403467800000130101FF2324810048
:1016A8002322910037440080232611009307A000CD
:1016B800930405001304C464631CF50003250400A7
:1016C8009305D0008327450083A74700E7800700DC
:1016D8000325040093F5F40F8327450083A74700EB
:1016E800E78007008320C1000324810013850400DC
:1016F8008324410013010101678000003715008031
:101708001305056A6FF05FB037450080130101FFCC
:101718001305C50923261100EF00C068B7470080EC
:1017280023A6A764EFF09FFD8320C10013050000E6
:101738001301010167800000B70710F003A747F401
:1017480003A507F483A547F4E39AE5FE6780000044
:10175800130101FE232C8100232E1100232A91005E
:101768002328210123263101130480007334043017
:10177800B744008093840465EFF01FFC03A90400BC
:1017880083A9440013070500330525413337A70013
:10179800B385354137D601001306064C9306000081
:1017A800B385E540EFE0DFADB7D701009387074C7D
:1017B800B387A7021374840033892701B337F9006C
:1017C800B387370123A0240123A2F4007324043033
:1017D800032481018320C1018324410103290101DC
:1017E8008329C100130101026F10904B130101FFFF
:1017F80023261100EFF05FF4B7D701009387074C59
:10180800370710F0B307F5009306F0FF2326D7F447
:1018180033B5A7003305B5002324F7F42326A7F42E
:1018280013057000EFF01FE58320C10013050000C9
:101838001301010167800000639C050C130101FF7F
:101848002324810023261100232291009307F0FF0F
:10185800130405006316F500B79700001384E7BC6E
:1018680093048000F3B40430EFF01FED37970000C5
:101878009307F4FF1307E7BC93F484006354F70855
:101888009307070037D701009305074CB386B702C3
:10189800B74700809387076503A6070003A847009A
:1018A8009307F74BB387C740B387A7003305A64014
:1018B8001307703EB387D700B3D7B702B387B70211
:1018C8003305F5006344A700B387B700370710F066
:1018D8003386C7009306F0FF2326D7F4B337F60004
:1018E800B38707012324C7F42326F7F4F3A40430AD
:1018F8008320C100032481008324410013010101D6
:1019080067800000E3D007F8930700006FF09FF7A7
:1019180067800000130101FF2324810023261100A2
:101928001304800073340430EFF01FE1B7470080E0
:1019380083A70765137484003305F540B7D7010002
:101948009387074C3355F502732404308320C10074
:10195800032481001301010167800000834705000B
:1019680003C705006394E700639607003385E740E3
:101978006780000013051500938515006FF01FFEA2
:1019880093F6F50F9307050013F73700631807045C
:1019980093F5F50F13978500B365B7001397050105
:1019A800B365B7003383C7001387070013083000F7
:1019B800B308E340636E18031357260093152700F6
:1019C800B387B7009305C0FF3307B7023307C700D3
:1019D8003387E7006394E70267800000E30E06FEA2
:1019E80093871700A38FD7FE1306F6FF6FF0DFF972
:1019F80013074700232EB7FE6FF09FFB938717004E
:101A0800A38FD7FE6FF01FFD130101FF23260100EE
:101A18008327C100938717002326F100B70701F039
:101A280023A0B70013010101678000001305F0FF30
:101A3800678000001305000067800000130101FEA5
:101A4800232C81008327850037440080232A9100B6
:101A58001304845EB7440080232E1100232821013B
:101A68002326310193848465930910002320040000
:101A78001309050023A03401E780070083274900E4
:101A880023203401E7800700930720002320F40077
:101A98008327C900E7800700930730002320F4005C
:101AA8000324810123A004008320C1018324410170
:101AB800032901018329C100374500801305857872
:101AC800130101026F10801537450080130101FFD3
:101AD800B74700801307F0FF130585782326110008
:101AE80023ACE764EF108013EF10C0098320C10016
:101AF800130101016F10805F130101FA232A910479
:101B0800B744008083A7C465232E1104232C8104C5
:101B180023282105232631052324410523225105A5
:101B280023206105232E7103232C8103232A91038B
:101B38002328A1032326B10363C407083744008080
:101B48001306100093090500138C0500130584780B
:101B580093050000EF10C003374500809385090006
:101B68001305050DEFF01FAC374900801305890EEA
:101B7800B74A0080EFF01FAB9384C465130A0000D6
:101B8800232E8100B75C0080374B0080372D008002
:101B9800B74D0080B74B0080938A4A0C83274C00CE
:101BA800639E07049385090063060A103745008081
:101BB80013058515EFF01FA79307100023A0F40065
:101BC8008320C105032481058324410503290105D8
:101BD8008329C104032A8104832A4104032B0104B5
:101BE800832BC103032C8103832C4103032D0103A1
:101BF800832DC102130101066780000083250C00B4
:101C0800B747008013850713EFF0DFA123220100F7
:101C180083270C0113070C001306004093E7870085
:101C28009308F0FF1308000093064DA42320F10049
:101C380093850CC29307000013058B79EF10C02120
:101C48008327C1019305F0FF13858778EF1080057E
:101C580093878D6513058B7903A40700EF1000495E
:101C6800B74700809387876503A70700130414000C
:101C78009307E0FF1334140003260C006314F702E3
:101C8800B7450080938545141385CB14EFF09F99D1
:101C98001305890EEFF01F99330A8A00130C4C01C3
:101CA8006FF0DFEF93172400B387FA0083A50700CE
:101CB8006FF09FFD3745008013050517EFF09F96DD
:101CC80083A70400B337F0006FF05FEFB7470080D9
:101CD80083A7C765130101FF2324810037450080CE
:101CE80023261100374400801305850E63820702FE
:101CF800EFF05F93B74500809385C5181305441925
:101D0800032481008320C100130101016FF09F911A
:101D1800EFF05F91B74500809385C51A6FF01FFEFD
:101D2800130101FF23261100EFE0DFE28320C10049
:101D3800130101016FF09FF913172500B7470080C1
:101D4800130515009387071C13152500130101FFC0
:101D58003387E700B387A70023248100232291005B
:101D68000324070083A4070023261100636C940052
:101D78008320C10003248100832441001301010151
:101D880067800000832704001305040083A7470029
:101D9800E780070063040500232204001304C4003D
:101DA8006FF0DFFC130101FFB74700802322910089
:101DB800B744008023248100232611001384C75FC1
:101DC800232021019387C75F9384C462631C940016
:101DD8001309050013840700631494021304000018
:101DE8006F0040040327440063080700032704002A
:101DF800032707006308A7021304C4006FF01FFD40
:101E080083274400639607001304C4006FF0DFFCC7
:101E1800832704001305090083A50700EFF01FB40A
:101E2800E31405FE130504008320C1000324810088
:101E38008324410003290100130101016780000088
:101E4800130101FF2324810023229100232611007E
:101E58001304800093042000F3370430EF1000408F
:101E680063C4A4001305100093051000EF10C05DB3
:101E7800EFF04FFF6FF05FFE37450080B7570080E7
:101E880013060564938747913386C740930500007E
:101E9800130505646FF0DFAE130101FF1305200081
:101EA80023261100EFF05FE9374500801305451E32
:101EB800EFF04FF713053000EFF01FE8EF10C00BFD
:101EC800EFF01FE6B75700809387878703C7C700DF
:101ED8001377E7FF2386E7008320C1001301010180
:101EE80067800000130101F6232A91089304010179
:101EF800130600079305000013850400232E11081C
:101F0800232C81082328210923263109EFF05FA714
:101F180037540080B76700809309848E938707C27F
:101F28001305000023A2F900EFF01FE113051000CC
:101F3800EFF09FE09307101023A49900231EF100EF
:101F4800EF00100FB74700809387471D375900806F
:101F58002322F100B726008093071000B7550080B0
:101F6800930489872320F1001307000093070000DA
:101F78009308000013080000938606EA1306002061
:101F8800938505021305898723A09902EF0010693C
:101F980083C7D4001304848E13F7B7FFA386E40025
:101FA80093F7B701639C070003A704029307F0FFA8
:101FB8006316F70013058987EF000039B7470080DB
:101FC8009387C71D2322F10037550080930710001F
:101FD800B7260080B7550080930485802320F10040
:101FE8009308F0001308000093070000130700008F
:101FF800938686E4130600209385052213058580C1
:10200800EF00D06183C7D400232694001305800015
:1020180093F7B7FFA386F400B7570080938707901C
:10202800232CF400232EF400733505301375850036
:10203800EFE00FA0130101FF23261100EFF09F8DA1
:10204800B747008083A747668320C10037570080C1
:102058003385A700232CA78E93050000138507005E
:10206800130101016F10403E1305800073350530E0
:102078001375850067800000130101FF2324810088
:10208800375400809307848E2322910083A447024B
:1020980023261100938747021304848E6384F40077
:1020A800639404008324C400832784006318050410
:1020B8006386070403C7D7001377F7016310070483
:1020C80083A607021307F0FF639AE60283D6E700A8
:1020D8001307F0076374D702374700800327875F29
:1020E800638EE7002320F4028320C10003248100CB
:1020F8008324410013010101678000006384970075
:10210800EFF05FF3232094026FF01FFE130101FE2E
:10211800232E1100232C81002326B100130405006F
:10212800EFF09FF4B757008023AC078E1304940098
:102138009307A0003344F4028325C100B747008009
:102148002324A10023A28766B747008023A0B7668F
:10215800EFF05FEE032581001375850073250530C8
:102168008320C1010324810113010102678000005B
:10217800130101FF23248100232611001304050005
:10218800EFF09FEE93070500032504006314A400F5
:102198001305000093F78700F3A707308320C100D9
:1021A800032481001301010167800000B7570080F4
:1021B8009387878E83A6070013070500639A060096
:1021C80083A6870083A707026384F6006FE04F8623
:1021D800137787007327073067800000130101FF1A
:1021E80023248100375400801304848E83278400BD
:1021F800232611002322910083C7F700639A070260
:1022080037460080B74500803745008013058504B0
:102218009306701D130646379385053AEFF08FC075
:102228003745008013058534EFF0CFBF6F000000FD
:1022380083270400638A070237460080B745008079
:1022480037450080130585049306801D130646371D
:1022580093850533EFF00FBD3745008013058534AE
:10226800EFF04FBC6F000000EFF01FE00327840081
:1022780093040500130510008347F70093F48400C6
:1022880093871700A307F700EFF01FDFF3A40430CC
:102298001305800073350530032481008320C100B5
:1022A8008324410013758500130101016FF01FF0AD
:1022B800B747008083A7875F6398F5023746008099
:1022C800B745008037450080130101FF9306D021F0
:1022D800130646379385C52C13058504232611005C
:1022E800EFF04FB46F000000832705006310F5027C
:1022F8008327450023A0A50023A2F50083274500D6
:1023080023A0B7002322B50067800000E38207FE00
:102318000387E5008386E700635ED70003A74700CD
:1023280023A0F50023A2E5002320B70023A2B700CD
:102338006780000083264500E38CD7FA83A707004F
:10234800E39A07FC6FF0DFFA130101FF232611005F
:10235800232481002322910093040500EFF0DFD0AD
:102368001304050037550080938504001305C590B4
:10237800EFF01FF483C7D400130500001374840022
:1023880093E70704A386F400EFF01FCF732404300B
:102398008320C1000324810083244100130101012B
:1023A800678000008347D50093F7F701639A070019
:1023B800032705029307F0FF6314F7006FF0DFF8B7
:1023C80067800000B747008083A7875F6398F5029E
:1023D80037460080B745008037450080130101FF6C
:1023E8009306C022130646379385C52C130585042A
:1023F80023261100EFF00FA36F00000003A745008C
:1024080083A705002320F70023A2E70067800000C8
:10241800130101FF232481002322910013040500E6
:1024280023261100EFF05FC4930405000325840000
:102438006314050237460080B745008037450080A1
:1024480093061015130646379385052E1305850444
:10245800EFF04F9D6F00000093050400EFF09FF62A
:102468008347D40093F4840093F7D7FFA306F400BE
:10247800F3A40430232404008320C1000324810032
:10248800832441001301010167800000832705FFB1
:10249800130101FF23248100232291002326110028
:1024A80013040500930485FE638607001385040062
:1024B800EFF01FF6834754FF8320C1001385040003
:1024C80093F7B7FFA30AF4FE032481008324410095
:1024D800130101016FF01FED130101FF93050000C7
:1024E8002324810023261100EFF09FC81304050060
:1024F80063080500EFF0DFF113058401EF00D05009
:10250800130504008320C100032481001301010185
:1025180067800000130101FE23282101375900803C
:102528001309898E232E1100232C8100232A910060
:10253800232631011304050093094902EFF0DFB2A5
:10254800930504009304050013850900EFF09FE745
:102558009305040013850900EFF09FD58347D40045
:102568000325890093F4840093E707043305854025
:10257800A306F40013351500EFF01FB0F3A40430E0
:102588008320C1010324810183244101032901011E
:102598008329C1001301010267800000B74700804A
:1025A80083A7476663880706B75700809387878E97
:1025B80003A787009306F0070356E70063ECC604F9
:1025C800B74600800306E70083A606666344D60480
:1025D800B746008083A6865F630ED70203260702EC
:1025E8009306F0FF6318D60283A607016340D5025D
:1025F800130101FF1305070023261100EFF09FF1D7
:102608008320C100130101016FF0DFA2B386A64049
:1026180023A8D70067800000130101FF232481004D
:1026280023229100130405002326110023202101F1
:10263800EFF09FA38347D4009304050093F70704A2
:10264800638A0702375900801309898E13054902E6
:1026580093050400EFF01FD78347D40003258900B2
:1026680093F7F7FB33058540A306F40013351500EF
:10267800EFF09FA093F48400F3A404308320C100FA
:10268800032481008324410003290100130101016F
:1026980067800000130101FF232481002322910099
:1026A8002320210193040500232611001389050026
:1026B80013040600EFF05FF683C7D40093E7270002
:1026C800A386F400630A090023A424019385040067
:1026D80013050900EFF0DFBD9307F0FF630CF40268
:1026E800130694001304A0003346860203248100D5
:1026F8008320C1000329010013858401832441003C
:10270800B72500809385454913010101130616007A
:102718006F00D03E8320C100032481008324410040
:10272800032901001301010167800000130101FF63
:10273800B7570080232481001304050003A5078FE1
:1027480023261100EFF01FF5130504000324810070
:102758008320C100130101016FD09FAD130101FE59
:10276800232C8100232A910023282101130405002A
:1027780013890500232E110023263101EFF0DF8E87
:102788008347D400131989019304050093F7F701CF
:1027980013598941639A0706032704029307F0FF38
:1027A8006314F706B75900809389C990930504000C
:1027B80013850900EFF01FC1930504001385090074
:1027C80023072401EFF0DFAE13051000EFF0DF8AD6
:1027D8009307100093F48400F3A40430638C070279
:1027E8001305800073350530032481018320C1015E
:1027F80083244101032901018329C1001375850040
:10280800130101026FF09F9A230724019307000028
:102818006FF05FFC8320C1010324810183244101FF
:10282800032901018329C100130101026780000007
:10283800B75700809387878E1387470223A2E70242
:1028480023A4E70293050000130500006FF01F8C16
:10285800130101FF2326110023248100138705019A
:102868009307E00163F2E70413840500374600800C
:10287800B7450080374500809306D02C13064637AD
:102888009385452313058504EFE0DFD9374500809C
:10289800930600FF1306E000930504001305850660
:1028A800EFE05FD86F000000B757008083A7878EDE
:1028B800638A070237460080B745008037450080A5
:1028C800130585049306E02C1306463793850533D4
:1028D800EFE05FD53745008013058534EFE09FD4DE
:1028E8006F000000032481008320C100130101014F
:1028F8006FF0DFE6130101FF2324810037540080C5
:102908008327848E2326110023229100232021016E
:10291800638A070237460080B74500803745008044
:1029280013058504930660301306463793850533EF
:10293800EFE05FCF3745008013058534EFE09FCE89
:102948006F0000001304848EB747008003278400BB
:1029580083A7875F630CF702EFF00FF183258400EC
:10296800130944029304050013050900EFF09FA51D
:10297800832584001305090093F48400EFF05F9326
:1029880013051000EFF04FEFF3A404300327840081
:10299800832704026304F7021305800073350530AA
:1029A800032481008320C1008324410003290100FE
:1029B80013758500130101016FD09F878320C10023
:1029C800032481008324410003290100130101012C
:1029D80067800000130101FD23202103375900807F
:1029E8001309898E832709002326110223248102D3
:1029F80023229102232E3101638A07023746008081
:102A0800B74500803745008013058504930640329A
:102A18001306463793850533EFE0DFC0374500805E
:102A280013058534EFE01FC06F0000009307F0FF27
:102A3800631AF50237460080B745008037450080A5
:102A480013058504930650321306463793850522ED
:102A5800EFE05FBD3745008013058534EFE09FBC8C
:102A68006F000000631605022326A100EFF09FE81F
:102A78000325C1008320C10203248102832441026B
:102A8800032901028329C1011301010367800000A2
:102A9800130495001305A0003344A402EF00D035B9
:102AA8009309800013041400B304A400F3B9093097
:102AB80003258900EFF05FB603258900B72500805C
:102AC800130604009385454913058501EF0010039B
:102AD80013F58900EFD0CFF5EF001032B384A4408E
:102AE80013050000E35890F81305803EB395A4023F
:102AF80013064006930600003385A402EFD04FF872
:102B08006FF05FF7130101FF2324810023261100D2
:102B18002322910013048000733404308347D500C6
:102B28001374840093F72700638E0700732404301E
:102B38008320C10003248100832441001301010183
:102B4800678000009304050013058501EF00C06B42
:102B58009307F0FFE30CF5FC13850400EFF09F8466
:102B6800B757008083A7878EE39207FC13050400FC
:102B7800032481008320C100832441001301010143
:102B88006FF0CFE2B757008003A5078F678000007A
:102B9800130101FF23261100631A0602374600803D
:102BA800B745008037450080130585049306D00398
:102BB8001306863C9385453FEFE0DFA63745008046
:102BC80013050540EFE01FA66F000000637AB60208
:102BD80037460080B74500803745008013058504D7
:102BE8009306E0031306863C93858541EFE09FA397
:102BF8003745008013050543EFE0DFA26F000000B2
:102C08008320C1002324B5002326C5002320A50066
:102C18002322A5001301010167800000130101FFB1
:102C2800232481002320210123261100232291003F
:102C380013090500130480007334043013748400EE
:102C4800EFF09F89630205048347D50093040500CC
:102C580093F7F701639A0700032705029307F0FF2C
:102C68006314F700EFF04FEE23A6040613050400E3
:102C7800032481008320C10083244100032901002B
:102C8800130101016FF08FD2032789008327C90040
:102C9800B387E740B337F000B387E7002324F90090
:102CA8006FF0DFFCB757008083A7878E1386050077
:102CB80063800704638E050237460080B7450080AD
:102CC80037450080130101FF13058504930630087A
:102CD8001306863C9385854523261100EFE09F94D3
:102CE8003745008013058534EFE0DF936F0000005F
:102CF80093078000F3B707300327850093F7870011
:102D0800630C07001307F7FF2324E500F3A7073038
:102D1800130500006780000063180600F3A707305A
:102D2800130500FF67800000930505001385070061
:102D38006FF0DF9F130101FF232481002326110078
:102D48001304800073340430138695009305A000A3
:102D58003346B602B725008093854549130585019A
:102D68001374840013061600EF00405973240430CE
:102D78008320C10003248100130101016780000042
:102D88008347D50093F7F701639A070003270502E5
:102D98009307F0FF6314F7006FF00FDB6780000004
:102DA800B757008003A5878E3335A00067800000E1
:102DB800B757008083A7078F03C5C7001375150091
:102DC80067800000130101FF2324810023261100DE
:102DD80013048000733404300347D500137484004F
:102DE80093764700639C0600732404308320C10057
:102DF8000324810013010101678000001377B7FFE6
:102E0800A306E500EFF0DFF71305040003248100B3
:102E18008320C100130101016FF04FB9130101FEB6
:102E280003230102232C8100232E1100232061009B
:102E380013040500EFD09FFCB757008083A7078FC6
:102E48008320C10183A787062324F4060324810174
:102E58001301010267800000375300800323838E2B
:102E6800130101FE232A9100232E1100232C810037
:102E780083244102630A030237460080B745008075
:102E880037450080130585049306801A1306C64843
:102E980093850533EFE00FF9374500801305C54BDF
:102EA800EFE04FF86F000000032301022322010026
:102EB8001304050023206100EFF05FF69307F0FF8D
:102EC8006388F4006392040213050400EFF09FEF97
:102ED800130504008320C1010324810183244101D7
:102EE80013010102678000009385040013050400A4
:102EF800EFF05FE46FF0DFFD83270506130101FFA4
:102F0800232481002326110013040500638407008D
:102F1800E78007008347D40013F7F701631A070215
:102F2800832604021307F0FF6394E60213050400E6
:102F3800EFF08FEE8347D4008320C10093E787002A
:102F4800A306F40003248100130101016780000037
:102F580093F727006386070013050400EFF04FCBB3
:102F6800032704029307F0FFE306F7FC1305840127
:102F7800EF0080296FF01FFC130101FDB7470080A7
:102F8800232E3101B7490080232481022322910294
:102F980023261102232021031384C7629384C76266
:102FA8009389C96263603405B757008003A7878E89
:102FB800630C070637460080B74500803745008018
:102FC800130585049306200F1306862F9385053372
:102FD800EFE04FE53745008013058534EFE08FE4D7
:102FE8006F0000008327C4022322F1008327040214
:102FF8002320F100832744018328C4010328840186
:10300800032704018326C400032684008325440083
:1030180003250400EFF09FE08327040023AE870414
:10302800130404036FF01FF89387878E03A78700A4
:10303800930610008347F700639AD702374600804B
:10304800B745008037450080130585049306300F87
:103058001306862F9385C534EFE0CFDC3745008013
:1030680013058534EFE00FDC6F0000009387F7FF4E
:10307800A307F7001309800073390930138404008B
:10308800137989009304F0FF6362340373290930CC
:10309800032481028320C1028324410203290102FF
:1030A8008329C101130101036FF04F938325440263
:1030B800638895000325040063980500EFF09FD00E
:1030C800130404036FF05FFCEFF0DFC66FF05FFFDF
:1030D8009307F0FF2306D500A306C5002307B50014
:1030E800A30705002320F50267800000130101FFF4
:1030F8002324810023261100232291001304800039
:10310800733404308347C50093F71700638A0702B6
:1031180037460080B7450080374500801305850491
:10312800930630021306464E93858551EFE08FCF04
:10313800374500801305C554EFE0CFCE6F0000007F
:1031480093040500EFF05FDBB757008003A7878E75
:1031580013748400630E0700732404308320C100B5
:1031680003248100832441001301010167800000CA
:103178009387878E83A787001305040063949700BD
:10318800EFD00F8B032481008320C10083244100EA
:10319800130101016FF08F81B747008083A787660D
:1031A800639407006FE00FF71305000067800000C5
:1031B800130580007335053013758500678000009E
:1031C8008327050063880702032745006304070275
:1031D800B746008083A6065F630AD50083A68700EA
:1031E80003268500B386C60023A4D7002320F70052
:1031F80023A2E7009307F0FF232205002320050000
:103208002324F50067800000130101FF23248100B7
:10321800232291002326110093040500EFF05FF9A3
:1032280003A784009307F0FF130405001305F0FFBC
:103238006308F70013850400EFF09FF813050000FA
:1032480013748400732404308320C1000324810094
:10325800832441001301010167800000B747008003
:1032680083C7C766130101FF2324810023261100A9
:1032780023229100232021011304F0FF6396070005
:10328800370400801344F4FFEFF09FF2B747008043
:103298009387C75E03A90700930405006304F90236
:1032A8006302090203248900EFF01FEF3305A440ED
:1032B800130400006348050003248900EFF0DFEDE4
:1032C8003304A44093F48400F3A40430B757008077
:1032D80083A7878F6386070063D48700138407005A
:1032E800130504008320C1000324810083244100C6
:1032F800032901001301010167800000832785006D
:10330800130101FE232E1100232C8100232A910092
:1033180063CA070237460080B745008037450080FA
:10332800130585049306300413068656938585593C
:10333800EFE04FAF3745008013058534EFE08FAEDF
:103348006F0000002326B5002326C10013040500E2
:10335800EFF01FE693040500EFF01FE40326C10019
:103368006344C00013061000B747008003A7C75E78
:103378003306A6002324C4009387C75E6306F700BC
:1033880083A547006310070203A747002320F40022
:103398002322E40003A747002320870023A28700F5
:1033A8006F0000068326870063DA0602374600802E
:1033B800B745008037450080130585049306C0048F
:1033C800130686569385855AEFE0CFA537450080CA
:1033D80013058534EFE00FA56F0000000326840075
:1033E800635AD604B386C6402324D70083264700F1
:1033F8002320E4002322D40023A086002322870070
:1034080003A70700630AF7006318E400EFF01FE55D
:1034180093050000EFE04FC293F48400F3A4043056
:103428008320C10103248101832441011301010286
:1034380067800000B306D6402324D400E386E5F471
:10344800032707006FF01FF4130101FE2326B100C4
:10345800232E1100232C8100232A910093040500B8
:10346800EFF01FD513040500EFF05FDF8325C100DF
:1034780063DAA4009307100063D6A700138504003D
:10348800EFE08FBB13748400732404308320C101E0
:103498000324810183244101130101026780000094
:1034A800130101FE232E1100232C8100232A9100F1
:1034B800130405002326310123244101B749008064
:1034C80023282101374A0080EFF04F8DB744008050
:1034D800EFF01FCE130ACA5E23A48966938404679B
:1034E8009389896603240A0083A7090083A6040038
:1034F80003A8440013798500630C4401630A04009F
:103508000327840063DEE7043307F7402324E4003D
:10351800B386D70013D7F74133070701B3B7F600CF
:10352800B387E70023A0D40023A2F40023A0090056
:10353800EFF0DFD293050000EFE00FB073290930F8
:103548008320C1010324810183244101032901014E
:103558008329C100032A810013010102678000004A
:10356800B306D7009355F74133B6E600B385050196
:103578003306B600B387E74023240400130504008C
:1035880023A0D40023A2C40023A0F900EFF05FC356
:10359800732909308327C40013050400E780070056
:1035A800EFF01FC16FF01FF4130101FF2326110074
:1035B80023248100EFF0DFBF13040500EFE08FB58F
:1035C800374700801307076793070500032507009F
:1035D80083254700137484003385A700B337F500AB
:1035E800B385B700732404308320C100032481000D
:1035F8001301010167800000130101FF2326110058
:10360800EFF09FFA8320C1001301010167800000D9
:10361800130101FF23261100EFF01FFE9307803EE0
:10362800B335F50213064006930600003305F5028C
:10363800EFC01FC58320C10013010101678000008E
:10364800130101FF232481002322910037440080C5
:10365800B7440080232611001304C4629384C46213
:10366800636E94008320C1000324810083244100F9
:10367800130500001301010167800000930744014E
:1036880013050400232AF400232CF400EFD05F91E3
:0C3698001304C4016FF0DFFC6780000029
:1036A40000000000540D008000000000540D008054
:1036B40000000000540D008000000000540D008044
:1036C40000000000540D008000000000540D008034
:1036D40000000000540D0080000000005817008016
:1036E40000000000540D008000000000540D008014
:1036F40000000000540D008000000000540D008004
:1037040000000000540D008000000000540D0080F3
:1037140000000000540D008000000000540D0080E3
:1037240000000000540D008000000000540D0080D3
:1037340000000000540D008000000000540D0080C3
:1037440000000000540D008000000000540D0080B3
:1037540000000000540D008000000000540D0080A3
:1037640000000000540D008000000000540D008093
:1037740000000000540D008000000000540D008083
:1037840000000000540D008000000000540D008073
:1037940000000000540D008000000000540D008063
:1037A40000000000540D008000000000540D008053
:1037B40000000000540D008000000000540D008043
:1037C40000000000540D008000000000540D008033
:1037D40000000000540D008000000000540D008023
:1037E40000000000540D008000000000540D008013
:1037F4008C3C00801017008000000000A440008072
:10380400F4170080000000009C4000803C1A0080F7
:10381400000000008C3C008048360080000000005E
:103824000001020203030303040404040404040463
:103834000505050505050505050505050505050534
:103844000606060606060606060606060606060614
:103854000606060606060606060606060606060604
:1038640007070707070707070707070707070707E4
:1038740007070707070707070707070707070707D4
:1038840007070707070707070707070707070707C4
:1038940007070707070707070707070707070707B4
:1038A4000808080808080808080808080808080894
:1038B4000808080808080808080808080808080884
:1038C4000808080808080808080808080808080874
:1038D4000808080808080808080808080808080864
:1038E4000808080808080808080808080808080854
:1038F4000808080808080808080808080808080844
:103904000808080808080808080808080808080833
:103914000808080808080808080808080808080823
:10392400746573745F74687265616400746573743C
:103934005F736C65657000002F686F6D652F6D692E
:10394400616F752F70726F2F72697363762F7A654A
:10395400706879722F74657374732F6B65726E65FA
:103964006C2F736C6565702F7372632F6D61696E54
:103974002E6300000A20202020417373657274694D
:103984006F6E206661696C65642061742025733AEA
:1039940025643A2025733A2025730A0074657374EC
:1039A4005F736C6565700000736C65657000000082
:1039B4004B65726E656C206F626A6563747320690F
:1039C4006E697469616C697A65640A00546573741C
:1039D4002074687265616420737461727465643AFA
:1039E400206964203D2025700A00000048656C7041
:1039F40065722074687265616420737461727465A1
:103A0400643A206964203D2025700A00746573744B
:103A1400206661696C757265000000002874657326
:103A2400745F6661696C7572652069732074727560
:103A34006529000054657374696E67206B65726E46
:103A4400656C206B5F736C65657028290A00000043
:103A54006B5F736C656570282920736C65707420C6
:103A6400666F72202564207469636B732C206E6FFB
:103A7400742025640A00000028736C6565705F7407
:103A8400696D655F76616C69642873746172745FD3
:103A94007469636B2C20656E645F7469636B2C209E
:103AA4004F4E455F5345434F4E445F414C49474E4B
:103AB4004544292069732066616C73652900000000
:103AC40054657374696E67206E6F726D616C2065E6
:103AD400787069726174696F6E206F66206B5F73B2
:103AE4006C65657028290A0054657374696E673AB9
:103AF40020746573742074687265616420736C65E6
:103B04006570202B2068656C70657220746872651E
:103B140061642077616B65757020746573740A0045
:103B24004641494C000000002573202D2025734098
:103B340025642E2000000000202A2A2A206B5F73AF
:103B44006C656570282920736C65707420666F72CB
:103B5400202564207469636B73206E6F7420256460
:103B64002E000000202A2A2A206B5F77616B65757E
:103B740070282920746F6F6B20746F6F206C6F6EC8
:103B84006720282564207469636B73290A00000088
:103B940054657374696E673A20746573742074682D
:103BA4007265616420736C656570202B2069737283
:103BB400206F66666C6F61642077616B6575702039
:103BC400746573740A00000054657374696E673A0F
:103BD40020746573742074687265616420736C6505
:103BE4006570202B206D61696E2077616B6575703F
:103BF4002074657374207468726561640A0000003F
:103C0400202A2A2A206B5F77616B6575702829202A
:103C1400746F6F6B20746F6F206C6F6E6720282534
:103C240064207469636B7329206174204C4153547C
:103C34000A0000002C0C0080E40C0080E40C0080DE
:103C4400200C00802C0C0080CC0C0080D80C008050
:103C5400BC3E0080DC3E0080F83E00800C3F0080CB
:103C6400183F0080303F0080756E6B6E6F776E007A
:103C7400457863657074696F6E2063617573652040
:103C8400257320282564290A000000002A2A2A2AEC
:103C9400204B65726E656C20416C6C6F6361746956
:103CA4006F6E204661696C75726521202A2A2A2A62
:103CB4000A0000002A2A2A2A2A204B65726E656CA3
:103CC400204F4F505321202A2A2A2A2A0A00000072
:103CD4002A2A2A2A2A204B65726E656C2050616E4E
:103CE400696321202A2A2A2A2A0A00002A2A2A2A3F
:103CF40020556E6B6E6F776E20466174616C204543
:103D040072726F7220256421202A2A2A2A0A00004E
:103D140043757272656E74207468726561642049BB
:103D240044203D2025700A4661756C74696E6720D5
:103D3400696E737472756374696F6E206164647202
:103D4400657373203D20307825780A202072613A0B
:103D54002030782578202067703A20307825782024
:103D64002074703A2030782578202074303A20303E
:103D74007825780A202074313A203078257820205C
:103D840074323A2030782578202074333A20307801
:103D94002578202074343A20307825780A2020743D
:103DA400353A2030782578202074363A203078252A
:103DB40078202061303A2030782578202061313A0B
:103DC40020307825780A202061323A20307825780E
:103DD400202061333A2030782578202061343A203D
:103DE40030782578202061353A20307825780A20EB
:103DF4002061363A2030782578202061373A203007
:103E04007825780A000000004953520065737365F1
:103E14006E7469616C2074687265616400000000EE
:103E2400466174616C206661756C7420696E20252E
:103E34007321205370696E6E696E672E2E2E0A00F0
:103E4400466174616C206661756C7420696E2074BF
:103E54006872656164202570212041626F72746903
:103E64006E672E0A00000000ADBAADDEADBAADDE5D
:103E7400ADBAADDEADBAADDEADBAADDEADBAADDE76
:103E8400ADBAADDEADBAADDEADBAADDEADBAADDE66
:103E9400ADBAADDEADBAADDEADBAADDEADBAADDE56
:103EA400ADBAADDEADBAADDEADBAADDEADBAADDE46
:103EB400ADBAADDEADBAADDE496E737472756374BE
:103EC400696F6E2061646472657373206D697361D8
:103ED4006C69676E65640000496E7374727563740F
:103EE400696F6E20416363657373206661756C74DA
:103EF40000000000496C6C6567616C20696E737426
:103F040072756374696F6E00427265616B706F697C
:103F14006E7400004C6F6164206164647265737335
:103F2400206D6973616C69676E6564004C6F6164D0
:103F340020616363657373206661756C74000000AF
:103F440053707572696F757320696E7465727275DA
:103F540070742064657465637465642120495251EA
:103F64003A2025640A0000002F686F6D652F6D6983
:103F7400616F752F70726F2F72697363762F7A6514
:103F8400706879722F617263682F72697363763314
:103F9400322F636F72652F7468726561642E6300DB
:103FA400282828287072696F726974792929203D3C
:103FB4003D203135202626205F69735F69646C6576
:103FC4005F74687265616428287468726561645FEF
:103FD40066756E63292929207C7C20285F69735FBC
:103FE4007072696F5F6869676865725F6F725F6539
:103FF4007175616C2828287072696F7269747929E7
:10400400292C20283135202D20312929202626202D
:104014005F69735F7072696F5F6C6F7765725F6FF2
:10402400725F657175616C2828287072696F726996
:10403400747929292C2028282D3136292929292940
:1040440000000000415353455254494F4E2046410D
:10405400494C205B25735D20402025733A25640A72
:104064000000000009696E76616C696420707269F1
:104074006F7269747920282564293B20616C6C6F08
:104084007765642072616E67653A20256420746FD9
:104094002025640A0000000075617274300000007D
:1040A4007379735F636C6F636B000000341A008074
:1040B400101A008000000000000000000000000052
:1040C400B8410080243B00804441008052756E6EEC
:1040D400696E67207465737420737569746520252F
:1040E400730A00003D3D3D3D3D3D3D3D3D3D3D3D73
:1040F4003D3D3D3D3D3D3D3D3D3D3D3D3D3D3D3DEC
:104104003D3D3D3D3D3D3D3D3D3D3D3D3D3D3D3DDB
:104114003D3D3D3D3D3D3D3D3D3D3D3D3D3D3D3DCB
:104124003D3D3D3D3D3D3D0A00000000737461721C
:1041340074696E672074657374202D2025730A00DA
:10414400534B4950000000002573202D2025730A8D
:10415400000000005465737420737569746520252C
:1041640073206661696C65642E0A0000546573747B
:1041740020737569746520257320737563636565A1
:104184006465640A000000004641494C454400004F
:1041940050524F4A45435420455845435554494F7E
:1041A4004E2025730A00000053554343455353469C
:1041B400554C00005041535300000000FC45008062
:1041C400204600802C4600802C4600802C4600802F
:1041D4006D61696E0000000069646C650000000098
:1041E4002A2A2A2A2A20426F6F74696E67205A6528
:1041F40070687972204F53207A65706879722D76D1
:10420400312E31332E302D333032302D6733376633
:1042140033373434202A2A2A2A2A0A006475726120
:1042240074696F6E20213D20282D31290000000083
:10423400282828287072696F2929203D3D203135AE
:10424400202626205F69735F69646C655F746872F9
:1042540065616428282828766F6964202A29302912
:10426400292929207C7C20285F69735F7072696F1B
:104274005F6869676865725F6F725F657175616CAD
:104284002828287072696F29292C20283135202D7F
:1042940020312929202626205F69735F7072696F97
:1042A4005F6C6F7765725F6F725F657175616C28A3
:1042B40028287072696F29292C2028282D31362945
:1042C4002929292900000000215F69735F69646C52
:1042D40065287468726561642900000074687265F9
:1042E40061642D3E626173652E70656E6465645F02
:1042F4006F6E00002F686F6D652F6D69616F752F8C
:1043040070726F2F72697363762F7A657068797231
:104314002F6B65726E656C2F696E636C7564652FA7
:104324006B73636865642E680000000021285F6B6E
:1043340065726E656C2E6E657374656420213D2014
:1043440030552900090A00005F6B65726E656C2E9A
:1043540063757272656E742D3E626173652E73634C
:104364006865645F6C6F636B656420213D20310078
:104374002F686F6D652F6D69616F752F70726F2F68
:1043840072697363762F7A65706879722F6B6572C0
:104394006E656C2F73636865642E63005F6B657272
:1043A4006E656C2E63757272656E742D3E626173F8
:1043B400652E73636865645F6C6F636B656420214D
:1043C4003D2030002F686F6D652F6D69616F752F0B
:1043D40070726F2F72697363762F7A657068797261
:1043E4002F6B65726E656C2F73656D2E6300000014
:1043F4006C696D697420213D20305500096C696D2C
:1044040069742063616E6E6F74206265207A6572D0
:104414006F0A0000696E697469616C5F636F756E21
:1044240074203C3D206C696D6974000009636F75EC
:104434006E742063616E6E6F7420626520677265AE
:1044440061746572207468616E206C696D69740AA8
:10445400000000002828285F6B65726E656C2E6E64
:10446400657374656420213D20305529203D3D202D
:104474003029207C7C202874696D656F7574203D1B
:104484003D203029290000002F686F6D652F6D696C
:10449400616F752F70726F2F72697363762F7A65EF
:1044A400706879722F6B65726E656C2F74687265B3
:1044B40061642E63000000000954687265616473CE
:1044C400206D6179206E6F7420626520637265616E
:1044D40074656420696E20495352730A0000000019
:1044E4002F686F6D652F6D69616F752F70726F2FF7
:1044F40072697363762F7A65706879722F6B65724F
:104504006E656C2F7468726561645F61626F72744A
:104514002E630000287468726561642D3E626173C5
:10452400652E757365725F6F7074696F6E73202684
:1045340020282831554C203C3C2028302929292981
:10454400203D3D203000000009657373656E746979
:10455400616C207468726561642061626F72746555
:10456400640A00002F686F6D652F6D69616F752F88
:1045740070726F2F72697363762F7A6570687972BF
:104584002F6B65726E656C2F74696D656F75742E13
:1045940063000000746F2D3E647469636B73203C88
:1045A40020300000742D3E647469636B73203E3DBB
:0445B40020300000B3
:1045B800A0390080C0070080BC060080BC060080CF
:1045C80000000000000000000000000000000000E3
:1045D800000000000000000001000000A81000809A
:1045E80003000000EC450080EC450080F5FFFFFF6C
:0445F80008480080EF
:1045FC001838008000000000000000000C3800801B
:10460C00B040008000000000F43700800000000083
:10461C0000000000003800800000000000000000D6
:10462C002C4600802C46008000000000000000009A
:04463C000F0000006B
:040000058000000077
:00000001FF
