:0200000480007A
:100000009702000093820201739052306F00904675
:10001000130101FB2320110023223100232441007E
:100020002326510023286100232A7100232CC101BB
:10003000232ED1012320E1032322F1032324A10253
:100040002326B1022328C102232AD102232CE10254
:10005000232EF1022320010523221105F32210345F
:1000600023245104F322003023265104EF00001F03
:1000700013030000631E0502F3222034B70300803F
:100080009383F3FFB3F272001303B000638A62003C
:100090001305010097000000938040136F0010319A
:1000A0008322810493824200232451046F000009BB
:1000B00093020100975300009383C3BE03A1430042
:1000C000130101FF2320510003AE0300130E1E0095
:1000D00023A0C30163080300970000009380C003BE
:1000E0006F00903573252034B70200809382F2FFB1
:1000F00033755500EF008015974200009382029EF1
:1001000013153500B382A20003A5020003A3420029
:10011000E7000300175300001303C3B88323030051
:100120009383F3FF232073008322010013810200D5
:1001300083238300032E030263087E089752000086
:10014000938242B603A382002326830223289302CC
:10015000232A2303232C3303232E43032320530575
:10016000232263052324730523268305232893056F
:10017000232AA305232CB30523242302974300003D
:100180009383837903AE03002326C30703A30202EC
:1001900023A46200032183020324C30283240303F4
:1001A0000329430383298303032AC303832A030404
:1001B000032B4304832B8304032CC304832C0305E8
:1001C000032D4305832D830583228104739012340C
:1001D0008322C104739002308320010083214100F7
:1001E000032281008322C1000323010183234101F3
:1001F000032E8101832EC101032F0102832F4102AF
:10020000032581028325C1020326010383264103BE
:10021000032781038327C1030328010483284104A2
:100220001301010573002030730000009752000095
:10023000938242A703A382008323C306137585001C
:10024000F3220530138503006780000013031000BC
:10025000B312A30073B3423467800000F32220344A
:1002600037030080B3F262001305000063840200CC
:08027000130515006780000072
:10027800938705001308060013870600130305007B
:1002880063960628974800009388889D63F6C50EF4
:10029800370701006378E60C1307F00F3337C70000
:1002A80013173700B356E600B388D80083C6080092
:1002B8003387E60093060002B386E640638C0600A7
:1002C800B397D7003357E5003318D600B365F70066
:1002D8003313D5001355080133F7A5021316080187
:1002E8001356060193560301B3D5A5021317070148
:1002F800B366D700B307B6021387050063FEF6009E
:10030800B38606011387F5FF63E8060163F6F60076
:100318001387E5FFB3860601B386F640B3F7A60256
:100328001313030113530301B3D6A60293970701CE
:1003380033E36700B305D60213850600637CB30078
:10034800330368001385F6FF636603016374B30023
:100358001385E6FF131707013367A700930500000D
:100368006F00400EB706000113070001E36CD6F2D8
:10037800130780016FF01FF3631606009306100041
:1003880033D8C602B70601006372D80C9306F00F83
:1003980063F4060113078000B356E800B388D80059
:1003A80083C60800B386E600130700023307D74068
:1003B8006318070AB387074193051000135608010D
:1003C8009318080193D808019356030133F7C7021D
:1003D800B3D7C70213170701B366D7003385F802EE
:1003E8001387070063FEA600B38606011387F7FF8D
:1003F80063E8060163F6A6001387E7FFB3860601E4
:10040800B386A640B3F7C6021313030113530301BF
:10041800B3D6C6029397070133E36700B388D802BF
:1004280013850600637C1301330368001385F6FF08
:1004380063660301637413011385E6FF131707014D
:100448003367A7001305070067800000B70600019F
:1004580013070001E362D8F4130780016FF0DFF39C
:100468003318E800B3D5D7003313E500B356D500E9
:1004780013550801B397E70033F7A502B3E8F60070
:100488009317080193D7070113D60801B3D5A5021E
:10049800131707013367C700B386B7021386050031
:1004A800637ED700330707011386F5FF63680701EA
:1004B8006376D7001386E5FF33070701B306D740F5
:1004C80033F7A6029398080193D80801B3D6A60279
:1004D80013170701B385D702B367170113870600FF
:1004E80063FEB700B38707011387F6FF63E80701C8
:1004F80063F6B7001387E6FFB3870701B387B740F2
:1005080093150601B3E5E5006FF05FEB63E6D518D8
:100518003707010063F4E6041308F00F3337D800F7
:100528001317370033D8E6009735000093854573D5
:10053800B385050103C80500930500023308E800E8
:10054800B38505416396050213071000E3ECF6EE48
:100558003335C500134715006FF0DFEEB70500010E
:1005680013070001E3E0B6FC130780016FF09FFB5F
:1005780033570601B396B600B366D70093DE06017B
:1005880033D70701B378D703B397B70033580501BA
:100598003363F8009397060193D7070113580301B3
:1005A8003316B6003357D7039398080133E8080188
:1005B800338FE702130E0700637EE8013308D80083
:1005C800130EF7FF6368D8006376E801130EE7FFA0
:1005D8003308D8003308E841B378D8033358D80330
:1005E80093980801B38E07039317030193D7070164
:1005F800B3E7F8001307080063FED701B387D700F5
:100608001307F8FF63E8D70063F6D7011307E8FF7D
:10061800B387D700131E0E01B387D741B70E010069
:100628003367EE001388FEFF337307019358070101
:100638003378060113560601330E03033388080383
:1006480093560E013303C30233030301B3866600D6
:10065800B388C80263F40601B388D80113D606012B
:10066800B308160163E61703E39A17CFB70701002B
:100678009387F7FFB3F6F60093960601337EFE00E4
:100688003315B500B386C60193050000E37CD5DABF
:100698001307F7FF6FF09FCC9305000013070000C6
:1006A8006FF05FDA67800000130101FD232E11004F
:1006B8002324010323261103631805041386060067
:1006C80013870500B7460080B7450080374500808E
:1006D80093078102938646D6938545D71305C5DBD4
:1006E8002326F100EF10000A8325C100374500805A
:1006F800130545F3EF100006374500801305C5F5CF
:10070800EF104008EF10405C8320C1011301010382
:1007180067800000130101FC232C81021306C0022C
:10072800130405009305000013054100232E110250
:10073800EF100045B757008083A7079C6390070216
:100748001306000093054100130504002326010049
:100758002324010023280100EF1050608320C103E7
:10076800032481031301010467800000130101FCC5
:10077800232C810213040500374500801305C5ECBE
:10078800232E1102EF1000001306C002930500008B
:1007980013054100EF10C03EB757008083A7079CA0
:1007A800639007021306F0FF930541001305040048
:1007B800232601002324010023280100EF10105AEA
:1007C8008320C1030324810313010104678000000F
:1007D800130101F7232481083754008023261108C8
:1007E800232291081304049C23200400EF20407D59
:1007F800B7540080B7060080B75500803755008091
:1008080093070000138704AB232201002320010073
:10081800930800001308000093864677130600200B
:10082800938505CD130505ADEF205035032704004A
:10083800B757008023A4A79C1384879C63180704D8
:10084800930700042328A1029306F0FF130601046E
:1008580093054101138504AB232CF100EF1090554B
:10086800B74700803747008037460080B74500808B
:10087800938747F3130747D693063004130646D7E2
:10088800938545DE13351500EFF01FE203250400BC
:10089800EF2010588320C1080324810883244108CD
:1008A8001301010967800000130101F6232C810858
:1008B800232A910837540080B7540080232E11084A
:1008C80023282109232631092324410923225109F8
:1008D8001304049C930600001306010493054101C8
:1008E800930A0004138504AB23200400232C510130
:1008F80023280102EF10104CB7490080374A0080C6
:1009080037490080B745008093074AF3138749D6D3
:1009180093066004130649D7938585E53335A0000F
:10092800EFF09FD8B7060080B75500803755008094
:1009380093070000138704AB232201002320010042
:1009480093080000130800009386C6711306002060
:10095800938505CD130505ADEF205022032704002C
:10096800B757008023A2A79C1384479C63100704F1
:10097800930620001306010493054101138504AB77
:10098800232C510123280102EF10D042B7450080E3
:1009980093074AF3138749D693069004130649D759
:1009A800938545E913351500EFF01FD003250400A2
:1009B800EF2010468320C1090324810983244109BB
:1009C800032901098329C108032A8108832A4108C8
:1009D8001301010A6780000037550080130101FFE9
:1009E800130505AB23261100EF10D03537550080CD
:1009F80093050000130505AC13061000EF20005DF9
:100A08008320C100B7550080374500809385858CC9
:100A18001305C5E4130101016F10002E130101FF36
:100A28002326110023248100930760006304F50244
:100A3800EF20500963040502EF20D008631605046F
:100A4800B74500809385850B374500801305C50C95
:100A5800EF005053EF0010576FF0DFFFEF209007C3
:100A6800E31C05FC37540080130404CA8325840062
:100A7800374500801305C50EEF00D05003258400CC
:100A8800EF2010396FF01FFDB74500809385450BA7
:100A98006FF09FFB130101FB23248104232291049F
:100AA80023261104930760009304050013840500AE
:100AB80063E0A70E3747008093172500130707EE5A
:100AC800B387E70083A707006780070037450080E2
:100AD800130585F3EF00104BEF20804E8327440465
:100AE800832804010328C4002328F102832704046F
:100AF80003274400832604002326F1028327C40326
:100B080003268404930505002324F1028327840324
:100B1800374500801305C5FB2322F10283274403D0
:100B28002320F10283270403232EF1008327C40224
:100B3800232CF10083278402232AF100832744020F
:100B48002328F100832704022326F1008327C40108
:100B58002324F100832784012322F1008327440101
:100B68002320F10083278400EF00D041930504007F
:100B780013850400EFF09FEA37450080130505F65A
:100B88006FF05FF5374500801305C5F76FF09FF4E8
:100B98003745008093850400130585F9EF00903EE2
:100BA8006FF09FF3130101FF232481002326110016
:100BB8001304050073262034131616001356160066
:100BC8009307500063E8C702374700809317260051
:100BD8001307C7EFB307F70083A507003745008061
:100BE8001305C5F1EF00103A930504001305000042
:100BF800EFF05FEAB7450080938545F16FF01FFE7F
:100C0800130101FF23261100F32520343745008006
:100C18009395150093D515001305C51EEF00903662
:100C2800B74500809385451113054000EFF09FE616
:100C3800B75700809387C79C03A70700630C07007A
:100C480003A3070023A00700B757008003A5079D4B
:100C58006700030067800000130101FF23261100CD
:100C6800EF108041EF001038EF10C0471751000017
:100C78001301C1A5B712000093820280330151000D
:100C8800EFF09FFD6F008011130101FD2324810205
:100C98002322910223202103232E3101232611022E
:100CA800938906009306F000930405001384050059
:100CB80013090600639CD808B7260080938686042B
:100CC800639CD908832601039385080013850400D3
:100CD80013064000232601012324F1002322E1000A
:100CE800EF20501183278100930509FBB305B40059
:100CF80023AE040423A0040693F505FF23A8F502F8
:100D0800B7270000032741000328C10093870788FD
:100D180023A6F504B71700808320C10203248102AB
:100D28009387C7C823A4350323A6E50223AA05038E
:100D380023A4F50423A4B402032901028324410255
:100D48008329C1011301010367800000938608010C
:100D58001306E001E378D6F637460080B7450080F1
:100D68003745008093068001130646219385C524E4
:100D78001305052F23221101EF00D02083284100FD
:100D880037450080930600FF1306E00093850800AE
:100D980013050531EF00101F6F000000130101FF5C
:100DA80093070500138505009305060013860600C2
:100DB80023261100E7800700EF208020EF20500550
:100DC8009307C0003387F5028327C500B387E70080
:100DD8000307B5006354B70083A707001307000291
:100DE8003347E6021375F60113172700B387E700A8
:100DF80023A0F60067800000130101FE9306C100DE
:100E0800232E1100EFF0DFFB0327C100930710002A
:100E18003395A700832707008320C101B3E7A70004
:100E28002320F7001301010267800000130101FE6F
:100E38009306C100232E1100EFF09FF80327C1008D
:100E4800930710003395A700832707008320C1016B
:100E58001345F5FF33F5A7002320A700130101026E
:100E6800678000008327450003588500130101FFB0
:100E7800232481003308F802130405000325050024
:100E88008348A4001307F0FF2326110023229100B2
:100E9800A305E400930500001303C0003305050112
:100EA800130EF001930E000263C2150393040000B1
:100EB8008357840063C4F4068320C100032481009F
:100EC8008324410013010101678000003357F802B1
:100ED8000326C400B3866502B306D600138646000F
:100EE80023A2C60023A4C600634EEE00A305B400E7
:100EF80093D727009387370093F7C7FF938515008B
:100F08006FF09FFA1307F7013347D70323A0A60012
:100F1800131727003305E5006FF09FFD8327440072
:100F280013860400930500003387F4028327040026
:100F38001305040093841400B387E7000327C40053
:100F48009306470023A0D7008326870023A2D70053
:100F58008326870023A0F6002324F700EFF0DFE9BB
:100F68006FF01FF5130101FA232C8104232A910441
:100F780023206105232E110423282105232631056A
:100F88002324410523225105232E7103232C810399
:100F9800232A91032328A1032326B103130401065E
:100FA8008347A50093040500930610009397270034
:100FB8009387F70093F7077F3301F14083274500B4
:100FC800130B010013070B009387370093F7C7FF34
:100FD8002320FB001307470063FCD50883C70401DF
:100FE80013890500130A060093F7170093090000F8
:100FF8006388070093098000F3B9093093F98900E1
:10100800930CC000130D8000930A4000930DF0006C
:1010180093172900B307FB0083AB070003D78400AD
:1010280003A64400B3077A0383A60400138CFBFFCE
:101038003307C702B386F600B307FC0063E8E7048A
:1010480037460080B7450080374500801305052FD7
:101058009306200A1306463493858537EF0080727D
:101068003745008013054539EF00C0716F00000057
:101078008327C7FF9386160093D7270093873700E7
:1010880093F7C7FF2320F7006FF0DFF413060A0079
:1010980093050900138504002326D4FAEFF0DFD561
:1010A800B307990303A7C4008326C4FAB307F7005C
:1010B8001387470023A0E60003A7870023A2E600C2
:1010C80003A787002320D70023A4D70083C70401E0
:1010D80093F71700639E070493070000938907009E
:1010E8006316090603C70401137717006316071070
:1010F800130104FA8320C1050324810583244105D3
:10110800032901058329C104032A8104832A410490
:10111800032B0104832BC103032C8103832C41037C
:10112800032D0103832DC10213010106678000000E
:10113800F3A9093083C7040193F71700E38E07F872
:10114800F3370D3093F787006FF05FF99306C4FB10
:1011580013060A0093050900138504002326F4FAF0
:10116800EFF01FC6334555038326C4FB8327C4FA13
:101178001317250003A506003355E5001375F50080
:10118800E312B5F7930700009378CAFF83D684006B
:1011980083A544003386F80033087603B386B60285
:1011A800330788016370D704930509001385040089
:1011B800232214FB2324F4FA232604FBEFF01FC791
:1011C80003A704000328C4FA832844FA832784FA6F
:1011D80033070701832647000327070023A0E600FB
:1011E8002322D70093871700E39257FB1309F9FFCF
:1011F800334A5A036FF0DFE1F3A707306FF05FEF70
:10120800130500006780000083A705009387170077
:1012180023A0F500B757008003A347906700030099
:10122800130101FB23248104232E3103232C4103C2
:10123800232A51032328610323261104232291041E
:1012480023202105232671032324810323229103CC
:101258002320A103232EB101130A0500938A050058
:1012680093090600138B0600130410006354E00072
:101278001304070093071000130C00026314FB000B
:10128800130C0003B7D49A3B13091000930CA00069
:10129800130700009384F49F930D2000130DA00002
:1012A800938B14006314070063F2340933D5790370
:1012B80093850A001309190013050503E7000A00BE
:1012C80013071000938CFCFF93071000B3F9790300
:1012D800B3D4A403E396FCFC93850A0013850903A1
:1012E800E7000A009307300033042441630AFB0631
:1012F8008320C104032481048324410403290104B5
:101308008329C103032A8103832A4103032B010391
:10131800832BC102032C8102832C4102032D01027D
:10132800832DC1011301010567800000E34C94F986
:10133800E3EA6DF993850A0013050C002326E10002
:10134800E7000A00130919000327C1006FF09FF78F
:1013580093850A0013050002E7000A001304F4FF4E
:10136800E34880FE6FF0DFF8B757008023A2A7900C
:1013780067800000130101FB2324810423229104C8
:1013880023202105232E3103232C4103232A510333
:101398002328610323229103232EB101232611045C
:1013A80023267103232481032320A10313040500AA
:1013B80093840500130B0600938C0600130A0000A3
:1013C8001309F0FF93090000930D0000930A100021
:1013D80003450B00631005048320C1040324810422
:1013E80083244104032901048329C103032A8103B7
:1013F800832A4103032B0103832BC102032C81029F
:10140800832C4102032D0102832DC1011301010523
:1014180067800000639E0D0093065002630AD53072
:1014280093850400E7000400130B1B006FF05FFABC
:1014380093064006630ED51063E2A6069306900352
:1014480063EAA602930610036374D50E9306D002CE
:10145800630AD52E930700036300F50C13075002A7
:101468006312E5029385040013055002E7000400A7
:101478006F00001293068005630CD516130730061B
:10148800630CE5289385040013055002E700040067
:101498009385040003450B006FF05FFD930600077A
:1014A8006308D51263E0A602930690066302D50A84
:1014B8009306C006630AD50893068006E306D5F6A8
:1014C8006FF05FFC930650076302D50E63EEA60229
:1014D80013073007E318E5FA138C4C0083AC0C00B3
:1014E800938B0C0003C50B0063160520930730008F
:1014F8006398F900B38B9B41B30B79416344702126
:10150800930C0C006F00C008930680076302D50E89
:101518009306A0076FF09FFA635E090063880922AB
:10152800130905FDE39209F0930920006FF0DFEF3E
:10153800E34809FE9306A0003309D902130909FDFF
:10154800330925016FF01FFE130A1A006FF0DFED53
:1015580063C44A0503A60C00938C4C006350060232
:10156800938504001305D0022324C100E70004007A
:10157800032681001309F9FF3306C0401307090049
:10158800938609009385040013050400EFF05FC9F2
:10159800930D00006FF05FE993877C0013F787FFD6
:1015A800930C8700032607006FF05FFB63C84A01AE
:1015B80003A60C00938C4C006FF05FFC93877C00B3
:1015C80013F787FF930C8700032607006FF01FFBB4
:1015D8009385040013050003E700040093850400C5
:1015E80013058007E7000400130980009309100021
:1015F80063CA4A0983A70C00938C4C002324F1008A
:1016080013068000130C0000130D000093058000E2
:1016180083278100938BF5FF13952B0033D5A70003
:101628001375F500631205089306000363140D0093
:10163800639655093385A600131585019385040023
:10164800135585412326C100E7000400130C1C0034
:101658000326C10063940B0493063000930D000029
:10166800E394D9DC13171900330C8741E35280F354
:101678009385040013050002E7000400130CFCFF27
:101688006FF0DFFE93877C0093F687FF83A7060041
:10169800938C86002324F1006FF09FF6138D0D00C4
:1016A80093850B006FF0DFF69307900093067005A3
:1016B800E3E2A7F8930600036FF0DFF79307F6FF5E
:1016C8002326F100634AC900639C590193850400ED
:1016D80013050003E70004000326C1006FF05FFC58
:1016E80093072000E39AF9FE93850400130500028E
:1016F8006FF05FFE93850400938B1B00E7000400E6
:101708006FF05FDE9385040013050002E700040014
:10171800938BFBFF6FF09FDE03A50C00938B4C00AF
:1017280093850400E7000400938C0B006FF05FE6DC
:10173800130A00001309F0FF93090000930D10002D
:101748006FF09FCE930930006FF01FCE9309100001
:101758006FF09FCD130101FE1306050037150080B9
:1017680093860500130505219305C100232E11005A
:1017780023260100EFF01FC08320C10113010102DD
:1017880067800000130101FC2322B1029305410286
:10179800232E11002324C1022326D1022328E1028B
:1017A800232AF102232C0103232E11032326B1003F
:1017B800EFF05FFA8320C101130101046780000084
:1017C8006780000093078000F3A70730730050106C
:1017D80067800000930710003395A70073254530F4
:1017E8006780000093078000F3B7073073504030DC
:1017F8007350403467800000130101FF23248100E7
:101808002322910037540080232611009307A0005B
:10181800930405001304449D631CF500032504008C
:101828009305D0008327450083A74700E78007007A
:101838000325040093F5F40F8327450083A7470089
:10184800E78007008320C10003248100138504007A
:1018580083244100130101016780000037250080BF
:10186800130505806FF05FB037450080130101FF55
:101878001305853923261100EF00C072B757008081
:1018880023AAA79CEFF09FFD8320C1001305000049
:101898001301010167800000B70710F003A747F4A0
:1018A80003A507F483A547F4E39AE5FE67800000E3
:1018B800130101FE232C8100232E1100232A9100FD
:1018C80023282101232631011304800073340430B6
:1018D800B75400809384849DEFF01FFC03A9040093
:1018E80083A9440013070500330525413337A700B2
:1018F800B385354137D601001306064C9306000020
:10190800B385E540EFE0DF96B7D701009387074C32
:10191800B387A7021374840033892701B337F9000A
:10192800B387370123A0240123A2F40073240430D1
:10193800032481018320C10183244101032901017A
:101948008329C100130101026F20C007130101FFA1
:1019580023261100EFF05FF4B7D701009387074CF7
:10196800370710F0B307F5009306F0FF2326D7F4E6
:1019780033B5A7003305B5002324F7F42326A7F4CD
:1019880013057000EFF01FE58320C1001305000068
:101998001301010167800000639C050C130101FF1E
:1019A8002324810023261100232291009307F0FFAE
:1019B800130405006316F500B79700001384E7BC0D
:1019C80093048000F3B40430EFF01FED3797000064
:1019D8009307F4FF1307E7BC93F484006354F708F4
:1019E8009307070037D701009305074CB386B70262
:1019F800B75700809387879D03A6070003A8470071
:101A08009307F74BB387C740B387A7003305A640B2
:101A18001307703EB387D700B3D7B702B387B702AF
:101A28003305F5006344A700B387B700370710F004
:101A38003386C7009306F0FF2326D7F4B337F600A2
:101A4800B38707012324C7F42326F7F4F3A404304B
:101A58008320C10003248100832441001301010174
:101A680067800000E3D007F8930700006FF09FF746
:101A780067800000130101FF232481002326110041
:101A88001304800073340430EFF01FE1B75700806F
:101A980083A7879D137484003305F540B7D70100E9
:101AA8009387074C3355F502732404308320C10013
:101AB80003248100130101016780000083470500AA
:101AC80003C705006394E700639607003385E74082
:101AD8006780000013051500938515006FF01FFE41
:101AE800B347B50093F737006380070693070500EF
:101AF80013070000631AE60667800000E30E06FE7F
:101B08009385150003C7F5FF938717001306F6FFA3
:101B1800A38FE7FE13F73700E31207FE93063000A2
:101B28003308E64063E60603135726009306C0FF12
:101B3800B306D70213172700B387E700B385E5007C
:101B48003306D6006FF0DFFA930705006FF09FFCAD
:101B5800B388E50083A808003388E7001307470027
:101B6800232018016FF0DFFB3388E50003480800E5
:101B7800B386E70013071700238006016FF09FF76D
:101B880093F6F50F9307050013F73700631807045A
:101B980093F5F50F13978500B365B7001397050103
:101BA800B365B7003383C7001387070013083000F5
:101BB800B308E340636E18031357260093152700F4
:101BC800B387B7009305C0FF3307B7023307C700D1
:101BD8003387E7006394E70267800000E30E06FEA0
:101BE80093871700A38FD7FE1306F6FF6FF0DFF970
:101BF80013074700232EB7FE6FF09FFB938717004C
:101C0800A38FD7FE6FF01FFD130101FF23260100EC
:101C18008327C100938717002326F100B70701F037
:101C280023A0B70013010101678000001305F0FF2E
:101C3800678000001305000067800000130101FEA3
:101C4800232C81008327850037540080232A9100A4
:101C580013048490B7540080232E110023282101F7
:101C6800232631019384049E930910002320040045
:101C78001309050023A03401E780070083274900E2
:101C880023203401E7800700930720002320F40075
:101C98008327C900E7800700930730002320F4005A
:101CA8000324810123A004008320C101832441016E
:101CB800032901018329C10037550080130505B4A4
:101CC800130101026F10403937550080130101FFDD
:101CD800B75700801307F0FF130505B4232611003A
:101CE80023A0E79EEF104037EF10802D8320C1001E
:101CF800130101016F10D011130101FA232A910475
:101D0800B754008083A7449E232E1104232C8104FA
:101D180023282105232631052324410523225105A3
:101D280023206105232E7103232C8103232A910389
:101D38002328A1032326B10363C40708375400806E
:101D48001306100093090500138C0500130504B44D
:101D580093050000EF108027374500809385090020
:101D68001305C53CEFF01FA2374900801305493E13
:101D7800B74A0080EFF01FA19384449E130A000025
:101D8800232E8100B75C0080375B0080372D0080F0
:101D9800B75D0080B74B0080938A0A3C83274C00CC
:101DA800639E07049385090063060A10374500807F
:101DB80013054545EFF01F9D9307100023A0F4007D
:101DC8008320C105032481058324410503290105D6
:101DD8008329C104032A8104832A4104032B0104B3
:101DE800832BC103032C8103832C4103032D01039F
:101DF800832DC102130101066780000083250C00B2
:101E0800B74700801385C742EFF0DF972322010010
:101E180083270C0113070C001306004093E7870083
:101E28009308F0FF1308000093064DC42320F10027
:101E380093850CED9307000013050BB5EF100054C4
:101E48008327C1019305F0FF138507B4EF104029DC
:101E580093870D9E13050BB503A40700EF10407B75
:101E6800B75700809387079E03A707001304140041
:101E78009307E0FF1334140003260C006314F702E1
:101E8800B74500809385054413858B44EFF09F8FF9
:101E98001305493EEFF01F8F330A8A00130C4C01DB
:101EA8006FF0DFEF93172400B387FA0083A50700CC
:101EB8006FF09FFD374500801305C546EFF09F8CF6
:101EC80083A70400B337F0006FF05FEFB7570080C7
:101ED80083A7479E130101FF232481003745008013
:101EE80023261100374400801305453E638207020C
:101EF800EFF05F89B745008093858548130504494D
:101F0800032481008320C100130101016FF09F8722
:101F1800EFF05F87B74500809385854A6FF01FFE15
:101F2800130101FF23261100EFE01FAB8320C1003E
:101F3800130101016FF09FF913172500B7470080BF
:101F4800130515009387474C13152500130101FF4E
:101F58003387E700B387A700232481002322910059
:101F68000324070083A4070023261100636C940050
:101F78008320C1000324810083244100130101014F
:101F880067800000832704001305040083A7470027
:101F9800E780070063040500232204001304C4003B
:101FA8006FF0DFFC130101FFB75700802322910077
:101FB800B754008023248100232611001384C7917D
:101FC800232021019387C79193848495631C9400EF
:101FD8001309050013840700631494021304000016
:101FE8006F00400403274400630807000327040028
:101FF800032707006308A7021304C4006FF01FFD3E
:1020080083274400639607001304C4006FF0DFFCC5
:10201800832704001305090083A50700EFF01FAA12
:10202800E31405FE130504008320C1000324810086
:102038008324410003290100130101016780000086
:10204800130101FF2324810023229100232611007C
:102058001304800093042000F3370430EF1040721B
:1020680063C4A4001305100093051000EF101010AE
:10207800EFF04FF56FF05FFE37550080B7570080DF
:102088001306059C9387C7CC3386C7409305000089
:102098001305059C6FF0DFAE130101FF1305200047
:1020A80023261100EFF05FE9374500801305854EC0
:1020B800EFF04FED13053000EFF01FE8EF10003E92
:1020C800EFF01FE6B7570080938707C303C7C70021
:1020D8001377E7FF2386E7008320C100130101017E
:1020E80067800000130101F6232A91089304010177
:1020F800130600079305000013850400232E11081A
:10210800232C81082328210923263109EFF05FA712
:1021180037540080B7670080930904CA938707ED96
:102128001305000023A2F900EFF01FE113051000CA
:10213800EFF09FE09307101023A49900231EF100ED
:10214800EF001066B74700809387874D37590080A6
:102158002322F100B726008093071000B7550080AE
:10216800930409C32320F10013070000930700001C
:1021780093080000130800009386060A130600203F
:102188009385052D130509C323A09902EF10401B61
:1021980083C7D400130404CA13F7B7FFA386E40067
:1021A80093F7B701639C070003A704029307F0FFA6
:1021B8006316F700130509C3EF005011B7470080F5
:1021C8009387074E2322F1003755008093071000AC
:1021D800B7260080B7550080930405BC2320F10082
:1021E8009308F0001308000093070000130700008D
:1021F80093868604130600209385054D130505BCB8
:10220800EF10001483C7D400232694001305800020
:1022180093F7B7FFA386F400B7570080938787CB5F
:10222800232CF400232EF400733505301375850034
:10223800EFD01FFF03270502930705006308070077
:1022480083A605021305F0FF6318D70683A6C50108
:1022580003A7C701638606001305F0FF639EE60423
:1022680023AEE50003A7050283A6870023A0E702A3
:1022780003A7850023A4D50083A6450023A4E7006F
:1022880003A747006374D70023A2E50003A747010B
:1022980083A6C70023AAE50003A6870123A6D500C5
:1022A80023ACC500638C060023AA050083A7470258
:1022B8001305000023A2F50267800000E30807FE6B
:1022C80023A6E5006FF09FFE130101FF2324810080
:1022D80037640080130484EF232291002320210116
:1022E8002326110093048434375900801305040011
:1022F800930600001306100093050000EF10802FCE
:10230800930504001305499A13044405EF00506629
:10231800E31E94FC8320C100032481008324410030
:102328000329010013050000130101016780000063
:102338008347D50093F7F701639A0700032705023F
:102348009307F0FF6314F7006F0040786780000080
:10235800B7570080130101FD83A787CA232C4101C9
:1023680003AA4502232481022320210323261102E4
:1023780023229102232E3101232A510123AEF50095
:1023880013090500232ABA001304800073340430AB
:10239800832485009307850013748400938A0500BD
:1023A8006398F404631E060A73240430930900FB3F
:1023B8006F0080081306F0FF930500001305040062
:1023C800032481028320C1028324410203290102DC
:1023D8008329C101032A8101832A410113010103D1
:1023E8006F0010348327C900E38EF4FA83A4040035
:1023F800E38A04FA83A5440113850A002326C10051
:10240800EFF05FE3930905000326C100E31C05FC18
:1024180013850400EF00C07F1385040023A604067B
:10242800EFF01FF18347DA0093F71700E38407F80A
:1024380013050400EF00C04F8320C102032481026A
:102448001385090083244102032901028329C1015C
:10245800032A8101832A41011301010367800000D7
:102468008347DA009305090093F71700E38807F418
:102478001306F0FF13050A00EF001026732404303A
:10248800930900006FF05FFB83274502638A070A00
:1024980083274501130101FF23248100232611000E
:1024A800130405006388070013054501EF00403059
:1024B800232A04008325440283274400232204029C
:1024C80003A745012322F70083C7D50093F7170018
:1024D8006386070203248702375500801305459A4F
:1024E800EF00104963060404130504000324810067
:1024F8008320C100130101016F001036130480000E
:102508007334043083C7D5001385050023A6050658
:1025180093F7D7FFA386F500EFF09FE113758400CA
:10252800032481008320C100130101016F00404092
:102538008320C1000324810013010101678000008A
:1025480067800000930785002320A5002322A500AB
:102558002324F5002326F50067800000B757008084
:1025680083A787CA23A2F5026FF09FDE130101FF3C
:10257800232481002326110013040500639C050011
:1025880023220500032481008320C10013010101D7
:102598006FF09FEF138505008325C400638805004D
:1025A8000326440063040600EFF08FD313050400EC
:1025B8006FF05FFDB7570080138707CA03278700AE
:1025C800130101FD2324810223202103232E31013D
:1025D800232A51012326110223229102232C41018F
:1025E8009309050013890500930A060023A0E50254
:1025F80013048000733404308324050013748400AA
:10260800138A07CA631A950263980608732404306C
:10261800130500FB6F00000683274900639A07042F
:1026280013050900EFF05FE66F00800483A74900F7
:10263800E38CF4FC83A40400E38804FC03A54401B0
:10264800930509002326D100EFF0DFBE8326C100E1
:10265800E31E05FC13850400EF00805B732404303F
:10266800E38C0AFA93850A0013050900EFF01FF0BE
:10267800130500008320C102032481028324410240
:10268800032901028329C101032A8101832A410107
:10269800130101036780000083278A001386060060
:1026A8009385890023AA270113050400EF0050072A
:1026B800E31205FC6FF0DFFA130101FF2324810008
:1026C8002322910037540080B7540080232611003C
:1026D8001304849593840499636E94008320C10045
:1026E8000324810083244100130500001301010124
:1026F800678000009307440113050400232AF400AF
:10270800232CF400EFE00FF61304C4016FF0DFFC94
:10271800130101FF23229100834405009307C001A0
:1027280003260500B384F4022320210137590080D1
:1027380093558600130989951356C60093F5F5003D
:1027480023248100232611001304800033059900F7
:10275800EFE05F8173340430138544013305A90029
:1027680013748400EF00C07E63060502B75700802B
:1027780083A707CA63900702130504000324810096
:102788008320C100832441000329010013010101B2
:102798006F00001A732404308320C10003248100D1
:1027A800832441000329010013010101678000000F
:1027B800130545006FF0DFF5130101FF2326110013
:1027C800EFF04FABB757008083A7C79E8320C100A7
:1027D800375700803385A7002328A7CA9305000030
:1027E80013850700130101016F10401813058000BD
:1027F800733505301375850067800000130101FFEC
:102808002324810037540080930704CA23229100AF
:1028180083A447022326110093874702130404CA9E
:102828006384F400639404008324C4008327840031
:10283800631805046386070403C7D7001377F701F5
:102848006310070483A607021307F0FF639AE602E2
:1028580083D6E7001307F0076374D7023757008061
:1028680003278791638EE7002320F4028320C100A9
:1028780003248100832441001301010167800000C3
:1028880063849700EFF05FF3232094026FF01FFE3C
:10289800130101FE232E1100232C81002326B100F1
:1028A80013040500EFF09FF4B757008023A807CA68
:1028B800130494009307A0003344F4028325C10055
:1028C800B75700802324A10023A6879EB75700800E
:1028D80023A4B79EEFF05FEE0325810013758500F2
:1028E800732505308320C1010324810113010102EE
:1028F80067800000130101FF2324810023261100B3
:1029080013040500EFF09FEE93070500032504006C
:102918006314A4001305000093F78700F3A707309A
:102928008320C10003248100130101016780000096
:10293800B7570080938707CA83A6070013070500C7
:10294800639A060083A6870083A707026384F600BC
:102958006FD01F8D137787007327073067800000BB
:10296800130101FF2324810037540080130404CA93
:1029780083278400232611002322910083C7F700B0
:10298800639A070237460080B745008037450080C4
:102998001305052F9306701D130606609385C562FF
:1029A800EFE05FDE3745008013054539EFE09FDD36
:1029B8006F00000083270400638A070237460080FF
:1029C800B7450080374500801305052F9306801D05
:1029D800130606609385055CEFE0DFDA3745008073
:1029E80013054539EFE01FDA6F000000EFF01FE034
:1029F8000327840093040500130510008347F7009C
:102A080093F4840093871700A307F700EFF01FDF04
:102A1800F3A40430130580007335053003248100C6
:102A28008320C1008324410013758500130101012F
:102A38006FF01FF0B757008083A787916398F5025E
:102A480037460080B745008037450080130101FFF5
:102A58009306D021130606609385C5551305052FE7
:102A680023261100EFE01FD26F0000008327050026
:102A78006310F5028327450023A0A50023A2F500D3
:102A88008327450023A0B7002322B50067800000F4
:102A9800E38207FE0387E5008386E700635ED700CD
:102AA80003A7470023A0F50023A2E5002320B700D1
:102AB80023A2B7006780000083264500E38CD7FA7D
:102AC80083A70700E39A07FC6FF0DFFA130101FF01
:102AD800232611002324810023229100930405005A
:102AE800EFF0DFD01304050037550080938504000C
:102AF800130545CCEFF01FF483C7D400130500007D
:102B08001374840093E70704A386F400EFF01FCF43
:102B1800732404308320C1000324810083244100EE
:102B280013010101678000008347D50093F7F7017F
:102B3800639A0700032705029307F0FF6314F70061
:102B48006FF0DFF867800000B757008083A7879190
:102B58006398F50237460080B74500803745008006
:102B6800130101FF9306C022130606609385C5551D
:102B78001305052F23261100EFE0DFC06F000000CA
:102B880003A7450083A705002320F70023A2E70039
:102B980067800000130101FF232481002322910094
:102BA8001304050023261100EFF05FC49304050009
:102BB800032584006314050237460080B74500806A
:102BC8003745008093061015130606609385055750
:102BD8001305052FEFE01FBB6F00000093050400ED
:102BE800EFF09FF68347D40093F4840093F7D7FF60
:102BF800A306F400F3A40430232404008320C100B6
:102C0800032481008324410013010101678000002F
:102C1800130101FF2324810023261100130405005A
:102C2800EFF05FF713058401032481008320C100BE
:102C3800130101016F00902F832705FF130101FF86
:102C48002324810023229100232611001304050068
:102C5800930485FE6386070013850400EFF09FF355
:102C6800834754FF8320C1001385040093F7B7FFFF
:102C7800A30AF4FE03248100832441001301010107
:102C88006FF09FEA130101FF9305000023248100E0
:102C980023261100EFF01FC6130405006308050082
:102CA800EFF05FEF13058401EF00502813050400CF
:102CB8008320C10003248100130101016780000003
:102CC800130101FE2328210137590080130909CA7D
:102CD800232E1100232C8100232A91002326310161
:102CE8001304050093094902EFF05FB0930504004F
:102CF8009304050013850900EFF01FE59305040010
:102D080013850900EFF01FD38347D40003258900FA
:102D180093F4840093E7070433058540A306F40081
:102D280013351500EFF09FADF3A404308320C101E3
:102D38000324810183244101032901018329C1005E
:102D48001301010267800000B757008083A7C79E60
:102D580063880706B7570080938707CA03A78700C9
:102D68009306F0070356E70063ECC604B7560080E5
:102D78000306E70083A6869E6344D604B756008000
:102D880083A68691630ED702032607029306F0FFF7
:102D98006318D60283A607016340D502130101FF19
:102DA8001305070023261100EFF09FF18320C100CF
:102DB800130101016FF05FA0B386A64023A8D700D6
:102DC80067800000130101FF232481002322910062
:102DD800130405002326110023202101EFF01FA171
:102DE8008347D4009304050093F70704638A070216
:102DF80037590080130909CA1305490293050400CD
:102E0800EFF09FD48347D4000325890093F7F7FB9D
:102E180033058540A306F40013351500EFF01F9E17
:102E280093F48400F3A404308320C10003248100B8
:102E38008324410003290100130101016780000078
:102E4800130101FF23248100232291002320210163
:102E580093040500232611001389050013040600B6
:102E6800EFF05FF683C7D40093E72700A386F4004A
:102E7800630A090023A424019385040013050900AB
:102E8800EFF05FBB9307F0FF630CF40213069400A6
:102E98001304A00033468602032481008320C10066
:102EA800032901001385840183244100B73500807C
:102EB800938505C413010101130616006F0050160F
:102EC8008320C100032481008324410003290100D9
:102ED8001301010167800000B757008083A787CAE4
:102EE800638EA7028347D50093F7170063980702FC
:102EF80037460080B745008037450080130101FF41
:102F08009306B01413060660938545521305052FE2
:102F180023261100EFE01F876F0000006FF05FF2BB
:102F2800130101FFB7570080232481001304050013
:102F380003A587CA23261100EFF09FF013050400AC
:102F4800032481008320C100130101016FD04FAD1C
:102F5800130101FF23229100232611009304050089
:102F6800232481001305000003A404006384840063
:102F7800631C04008320C1000324810083244100D2
:102F8800130101016780000013050400EFF05FC81A
:102F980013050400EFF05FB9130510006FF0DFFCB4
:102FA800B7570080938707CA1387470223A2E7020F
:102FB80023A4E70293050000130500006FF05F8D5E
:102FC800B757008003A587CA67800000130101FF77
:102FD80023261100631A060237460080B745008091
:102FE800374500801305052F9306D0031306466561
:102FF80093850568EFE00FF9374500801305C5682C
:10300800EFE04FF86F000000637AB60237460080A1
:10301800B7450080374500801305052F9306E00368
:10302800130646659385456AEFE0CFF5374500807E
:103038001305C56BEFE00FF56F0000008320C1009A
:103048002324B5002326C5002320A5002322A5009C
:103058001301010167800000130101FF232481008F
:1030680023202101232611002322910013090500A2
:10307800130480007334043013748400EFF09FC08D
:10308800630205048347D5009304050093F7F7010D
:10309800639A0700032705029307F0FF6314F700FC
:1030A800EFF0DFA223A60406130504000324810021
:1030B8008320C10083244100032901001301010179
:1030C8006FF01F87032789008327C900B387E7406C
:1030D800B337F000B387E7002324F9006FF0DFFC73
:1030E800B757008083A707CA1386050063800704C3
:1030F800638E050237460080B7450080374500805B
:10310800130101FF1305052F9306300813064665C2
:103118009385456E23261100EFE0CFE63745008002
:1031280013054539EFE00FE66F00000093078000B4
:10313800F3B707300327850093F78700630C070070
:103148001307F7FF2324E500F3A707301305000052
:103158006780000063180600F3A70730130500FF17
:103168006780000093050500138507006FF05FDB9B
:103178000327C50083270501130101FE232E110033
:10318800232C8100232A91002328210123263101A1
:10319800631AF70237460080B7450080374500803C
:1031A8001305052F930670061306467493858571DB
:1031B800EFE04FDD3745008013054573EFE08FDC06
:1031C8006F000000130905009389050013048000AF
:1031D80073340430EFF01FAB1374840093040500BC
:1031E800630405048347D50093F7F701639A070042
:1031F800032705029307F0FF6314F700EFF01F8D14
:10320800130504000324810123AA340123A604061C
:103218008320C10183244101032901018329C100BD
:10322800130101026FF0CFF08327C90023A03701F3
:10323800938747002326F900732404308320C101B3
:103248000324810183244101032901018329C10049
:103258001301010267800000130101FF232481008C
:10326800232611001304800073340430138695005C
:103278009305A0003346B602B7350080938505C490
:10328800130585011374840013061600EF004059D6
:10329800732404308320C100032481001301010139
:1032A800678000008347D50093F7F701639A07000A
:1032B800032705029307F0FF6314F7006FF01F81DF
:1032C80067800000B757008003A507CA3335A00000
:1032D80067800000B757008083A787CA03C5C70067
:1032E8001375150067800000130101FF2324810076
:1032F8002326110013048000733404300347D500DB
:103308001374840093764700639C0600732404308A
:103318008320C1000324810013010101678000009C
:103328001377B7FFA306E500EFF0DFF713050400F6
:10333800032481008320C100130101016FF04FDFD6
:10334800130101FE03230102232C8100232E110007
:103358002320610013040500EFD01F93B7570080A6
:1033680083A787CA8320C10183A787062324F4067D
:103378000324810113010102678000003753008094
:10338800032303CA130101FE232A9100232E1100EF
:10339800232C810083244102630A030237460080FC
:1033A800B7450080374500801305052F9306801A1E
:1033B8001306C6799385055CEFE0CFBC37450080DE
:1033C8001305C57CEFE00FBC6F000000032301026A
:1033D800232201001304050023206100EFF05FF6AB
:1033E8009307F0FF6388F400639204021305040056
:1033F800EFF09FEF130504008320C101032481012E
:1034080083244101130101026780000093850400B1
:1034180013050400EFF05FE46FF0DFFD8327050676
:10342800130101FF23248100232611001304050042
:1034380063840700E78007008347D40013F7F70188
:10344800631A0702832604021307F0FF6394E60257
:1034580013050400EFF01F978347D4008320C100B1
:1034680093E78700A306F4000324810013010101F8
:103478006780000093F727006386070013050400A0
:10348800EFF04FF1032704029307F0FFE306F7FC80
:1034980013058401EF0080296FF01FFC130101FD63
:1034A800B7570080232E3101B759008023248102A9
:1034B80023229102232611022320210313848795B6
:1034C800938487959389899563603405B7570080FD
:1034D80003A707CA630C070637460080B745008074
:1034E800374500801305052F9306200F13068658CD
:1034F8009385055CEFE00FA9374500801305453932
:10350800EFE04FA86F0000008327C4022322F100D8
:10351800832704022320F100832744018328C40160
:1035280003288401032704018326C400032684009A
:103538008325440003250400EFF09FE0832704005F
:1035480023AE8704130404036FF01FF8938707CA98
:1035580003A78700930610008347F700639AD702F2
:1035680037460080B7450080374500801305052F92
:103578009306300F130686589385855DEFE08FA07C
:103588003745008013054539EFE0CF9F6F000000F5
:103598009387F7FFA307F7001309800073390930F1
:1035A80013840400137989009304F0FF63623403E1
:1035B80073290930032481028320C1028324410234
:1035C800032901028329C101130101036FF04FB9D7
:1035D8008325440263889500032504006398050049
:1035E800EFF09FD0130404036FF05FFCEFF0DFC629
:1035F8006FF05FFF9307F0FF2306D500A306C50011
:103608002307B500A30705002320F5026780000003
:10361800130101FF23248100232611002322910096
:1036280013048000733404308347C50093F71700F0
:10363800638A070237460080B75500803745008007
:103648001305052F930630021306467F938585825E
:10365800EFE04F93375500801305C585EFE08F9253
:103668006F00000093040500EFF05FDBB7570080A0
:1036780003A707CA13748400630E07007324043079
:103688008320C10003248100832441001301010128
:1036980067800000938707CA83A787001305040083
:1036A80063949700EFC0DFB7032481008320C10033
:1036B80083244100130101016FF08FA7B7570080E1
:1036C80083A7079F639407006FE0CFBA1305000034
:1036D8006780000013058000733505301375850079
:1036E80067800000832705006388070203274500D9
:1036F80063040702B756008083A60691630AD500C3
:1037080083A6870003268500B386C60023A4D700B6
:103718002320F70023A2E7009307F0FF23220500E8
:10372800232005002324F50067800000130101FF12
:1037380023248100232291002326110093040500ED
:10374800EFF05FF903A784009307F0FF1304050067
:103758001305F0FF6308F70013850400EFF09FF8E6
:103768001305000013748400732404308320C100FF
:1037780003248100832441001301010167800000B4
:10378800B757008083C7479F130101FF2324810097
:103798002326110023229100232021011304F0FF86
:1037A80063960700370400801344F4FFEFF09FF29C
:1037B800B75700809387C79003A9070093040500B3
:1037C8006304F9026302090203248900EFF01FEF82
:1037D8003305A4401304000063480500032489004E
:1037E800EFF0DFED3304A44093F48400F3A4043035
:1037F800B757008083A707CB6386070063D4870089
:1038080013840700130504008320C10003248100EA
:10381800832441000329010013010101678000008E
:1038280083278500130101FE232E1100232C81001C
:10383800232A910063CA070237560080B7550080D3
:10384800374500801305052F930630041306868735
:103858009385858AEFD01FF33745008013054539D6
:10386800EFD05FF26F0000002326B5002326C100C9
:1038780013040500EFF01FE693040500EFF01FE4C2
:103888000326C1006344C00013061000B757008028
:1038980003A7C7903306A6002324C4009387C790C4
:1038A8006306F70083A547006310070203A74700D4
:1038B8002320F4002322E40003A7470023208700E5
:1038C80023A287006F0000068326870063DA0602BA
:1038D80037560080B7550080374500801305052FFF
:1038E8009306C004130686879385858BEFD09FE9DE
:1038F8003745008013054539EFD0DFE86F00000039
:1039080003268400635AD604B386C6402324D7000E
:10391800832647002320E4002322D40023A0860026
:103928002322870003A70700630AF7006318E4004F
:10393800EFF01FE593050000EFE00F8693F4840095
:10394800F3A404308320C1010324810183244101AD
:103958001301010267800000B306D6402324D40077
:10396800E386E5F4032707006FF01FF4130101FE57
:103978002326B100232E1100232C8100232A910035
:1039880093040500EFF01FD513040500EFF05FDF87
:103998008325C10063DAA4009307100063D6A7004B
:1039A80013850400EFD05FFF137484007324043080
:1039B8008320C101032481018324410113010102F1
:1039C80067800000130101FE232E1100232C8100C3
:1039D800232A9100130405002326310123244101E1
:1039E800B759008023282101375A0080EFF0CFB55E
:1039F800B7540080EFF01FCE130ACA9023A8899EFF
:103A08009384849F9389099F03240A0083A709004C
:103A180083A6040003A8440013798500630C4401BD
:103A2800630A04000327840063DEE7043307F740D2
:103A38002324E400B386D70013D7F74133070701DF
:103A4800B3B7F600B387E70023A0D40023A2F4009D
:103A580023A00900EFF0DFD293050000EFD0DFF3D9
:103A6800732909308320C101032481018324410182
:103A7800032901018329C100032A810013010102DE
:103A880067800000B306D7009355F74133B6E600C8
:103A9800B38505013306B600B387E7402324040045
:103AA8001305040023A0D40023A2C40023A0F90016
:103AB800EFF05FC3732909308327C400130504009E
:103AC800E7800700EFF01FC16FF01FF46780000068
:103AD80000000000080C008000000000080C0080B6
:103AE80000000000080C008000000000080C0080A6
:103AF80000000000080C008000000000080C008096
:103B080000000000080C008000000000B8180080C9
:103B180000000000080C008000000000080C008075
:103B280000000000080C008000000000080C008065
:103B380000000000080C008000000000080C008055
:103B480000000000080C008000000000080C008045
:103B580000000000080C008000000000080C008035
:103B680000000000080C008000000000080C008025
:103B780000000000080C008000000000080C008015
:103B880000000000080C008000000000080C008005
:103B980000000000080C008000000000080C0080F5
:103BA80000000000080C008000000000080C0080E5
:103BB80000000000080C008000000000080C0080D5
:103BC80000000000080C008000000000080C0080C5
:103BD80000000000080C008000000000080C0080B5
:103BE80000000000080C008000000000080C0080A5
:103BF80000000000080C008000000000080C008095
:103C080000000000080C008000000000080C008084
:103C180000000000080C008000000000080C008074
:103C2800343F00807018008000000000A04300802E
:103C38005419008000000000984300803C1C00805C
:103C480000000000343F0080D02200800000000007
:0C3C5800343F0080C02600800000000007
:103C6400000102020303030304040404040404041F
:103C740005050505050505050505050505050505F0
:103C840006060606060606060606060606060606D0
:103C940006060606060606060606060606060606C0
:103CA40007070707070707070707070707070707A0
:103CB4000707070707070707070707070707070790
:103CC4000707070707070707070707070707070780
:103CD4000707070707070707070707070707070770
:103CE4000808080808080808080808080808080850
:103CF4000808080808080808080808080808080840
:103D0400080808080808080808080808080808082F
:103D1400080808080808080808080808080808081F
:103D2400080808080808080808080808080808080F
:103D340008080808080808080808080808080808FF
:103D440008080808080808080808080808080808EF
:103D540008080808080808080808080808080808DF
:103D64006D73675F72656365697665720000000054
:103D74002F686F6D652F6D69616F752F70726F2F6E
:103D840072697363762F7A65706879722F746573BC
:103D940074732F6B65726E656C2F6D626F782F6D07
:103DA400626F785F75736167652F7372632F6D61DE
:103DB400696E2E63000000000A20202020417373E6
:103DC400657274696F6E206661696C6564206174E4
:103DD4002025733A25643A2025733A2025730A0076
:103DE4006B5F6D626F785F67657428706D626F7862
:103DF4002C20266D6D73672C207278646174612C9D
:103E0400204B5F464F524556455229203D3D2030B8
:103E14002069732066616C736500000074657374B7
:103E24005F6D73675F726563656976657200000034
:103E34006D73675F72656365697665725F756E6CD5
:103E4400696D697465640000746573745F6D626F95
:103E5400780000006B5F6D626F785F67657428702F
:103E64006D626F782C20266D6D73672C20727864D8
:103E74006174612C204B5F4E4F5F57414954292098
:103E84003D3D203020697320747275650000000088
:103E94006B5F6D626F785F67657428706D626F78B1
:103EA4002C20266D6D73672C207278646174612CEC
:103EB4002074696D656F757429203D3D203020693B
:103EC400732066616C73650053656E64657220557A
:103ED4004E4C494D495445440A000000E00A008014
:103EE400980B0080980B0080D40A0080E00A0080C0
:103EF400800B00808C0B0080644100808441008032
:103F0400A0410080B4410080C0410080D8410080BD
:103F1400756E6B6E6F776E00457863657074696F4C
:103F24006E20636175736520257320282564290A32
:103F3400000000002A2A2A2A204B65726E656C2034
:103F4400416C6C6F636174696F6E204661696C7556
:103F5400726521202A2A2A2A0A0000002A2A2A2AEB
:103F64002A204B65726E656C204F4F505321202AD6
:103F74002A2A2A2A0A0000002A2A2A2A2A204B65E9
:103F8400726E656C2050616E696321202A2A2A2A88
:103F94002A0A00002A2A2A2A20556E6B6E6F776E31
:103FA40020466174616C204572726F722025642111
:103FB400202A2A2A2A0A000043757272656E742028
:103FC400746872656164204944203D2025700A4666
:103FD40061756C74696E6720696E7374727563744D
:103FE400696F6E2061646472657373203D2030785C
:103FF40025780A202072613A2030782578202067BD
:10400400703A2030782578202074703A2030782552
:1040140078202074303A20307825780A20207431B2
:104024003A2030782578202074323A203078257868
:10403400202074333A2030782578202074343A20B4
:10404400307825780A202074353A20307825782075
:104054002074363A2030782578202061303A203098
:10406400782578202061313A20307825780A20207C
:1040740061323A2030782578202061333A20307834
:104084002578202061343A20307825782020613545
:104094003A20307825780A202061363A2030782575
:1040A40078202061373A20307825780A0000000013
:1040B40049535200657373656E7469616C2074684A
:1040C4007265616400000000466174616C20666181
:1040D400756C7420696E20257321205370696E6E8F
:1040E400696E672E2E2E0A00466174616C2066612B
:1040F400756C7420696E2074687265616420257023
:10410400212041626F7274696E672E0A00000000FC
:10411400ADBAADDEADBAADDEADBAADDEADBAADDED3
:10412400ADBAADDEADBAADDEADBAADDEADBAADDEC3
:10413400ADBAADDEADBAADDEADBAADDEADBAADDEB3
:10414400ADBAADDEADBAADDEADBAADDEADBAADDEA3
:10415400ADBAADDEADBAADDEADBAADDEADBAADDE93
:10416400496E737472756374696F6E2061646472EE
:10417400657373206D6973616C69676E65640000B3
:10418400496E737472756374696F6E2041636365FD
:104194007373206661756C7400000000496C6C6573
:1041A40067616C20696E737472756374696F6E00F5
:1041B400427265616B706F696E7400004C6F61646C
:1041C4002061646472657373206D6973616C6967DF
:1041D4006E6564004C6F6164206163636573732072
:1041E4006661756C7400000053707572696F757345
:1041F40020696E7465727275707420646574656389
:1042040074656421204952513A2025640A00000053
:104214002F686F6D652F6D69616F752F70726F2FC9
:1042240072697363762F7A65706879722F6172632D
:10423400682F726973637633322F636F72652F74DC
:1042440068726561642E6300282828287072696F7B
:10425400726974792929203D3D2031352026262094
:104264005F69735F69646C655F7468726561642813
:10427400287468726561645F66756E6329292920F4
:104284007C7C20285F69735F7072696F5F686967FF
:104294006865725F6F725F657175616C282828703C
:1042A40072696F7269747929292C20283135202D7F
:1042B40020312929202626205F69735F7072696F77
:1042C4005F6C6F7765725F6F725F657175616C2883
:1042D40028287072696F7269747929292C2028281A
:1042E4002D3136292929292900000000415353453D
:1042F4005254494F4E204641494C205B25735D2062
:10430400402025733A25640A0000000009696E768E
:10431400616C6964207072696F72697479202825F0
:1043240064293B20616C6C6F7765642072616E67F1
:10433400653A20256420746F2025640A000000007B
:104344002F686F6D652F6D69616F752F70726F2F98
:1043540072697363762F7A65706879722F6C6962FB
:104364002F6D656D706F6F6C2F6D656D706F6F6CF9
:104374002E630000626C6F636B5F666974732870F0
:104384002C20626C6F636B2C206C737A2900000004
:10439400090A000075617274300000007379735F5C
:1043A400636C6F636B000000341C0080101C008081
:1043B400000000000000000000000000B444008081
:1043C400BC4400804044008052756E6E696E672064
:1043D400746573742073756974652025730A00000D
:1043E4003D3D3D3D3D3D3D3D3D3D3D3D3D3D3D3DF9
:1043F4003D3D3D3D3D3D3D3D3D3D3D3D3D3D3D3DE9
:104404003D3D3D3D3D3D3D3D3D3D3D3D3D3D3D3DD8
:104414003D3D3D3D3D3D3D3D3D3D3D3D3D3D3D3DC8
:104424003D3D3D0A000000007374617274696E675B
:104434002074657374202D2025730A00534B495052
:10444400000000002573202D2025730A00000000C1
:1044540054657374207375697465202573206661CF
:10446400696C65642E0A0000546573742073756961
:104474007465202573207375636365656465640AD8
:10448400000000004641494C4544000050524F4A48
:1044940045435420455845435554494F4E202573B0
:1044A4000A0000005355434345535346554C0000FE
:1044B40050415353000000004641494C00000000A5
:1044C4001C4900804C4900805849008058490080AC
:1044D400584900806D61696E0000000069646C6574
:1044E400000000002A2A2A2A2A20426F6F74696E6B
:1044F40067205A6570687972204F53207A65706816
:1045040079722D76312E31332E302D333032302DD9
:104514006733376633373434202A2A2A2A2A0A0092
:10452400746872656164203D3D205F6B65726E65E1
:104534006C2E63757272656E74207C7C205F697367
:104544005F7468726561645F64756D6D7928746801
:104554007265616429000000215F69735F69646C9E
:104564006528746872656164290000007468726566
:1045740061642D3E626173652E70656E6465645F6F
:104584006F6E00002F686F6D652F6D69616F752FF9
:1045940070726F2F72697363762F7A65706879729F
:1045A4002F6B65726E656C2F696E636C7564652F15
:1045B4006B73636865642E680000000021285F6BDC
:1045C40065726E656C2E6E657374656420213D2082
:1045D400305529005F6B65726E656C2E637572725F
:1045E400656E742D3E626173652E73636865645FE6
:1045F4006C6F636B656420213D2031002F686F6D03
:10460400652F6D69616F752F70726F2F7269736397
:10461400762F7A65706879722F6B65726E656C2F70
:1046240073636865642E63005F6B65726E656C2EE0
:1046340063757272656E742D3E626173652E736369
:104644006865645F6C6F636B656420213D20300096
:104654002F686F6D652F6D69616F752F70726F2F85
:1046640072697363762F7A65706879722F6B6572DD
:104674006E656C2F73656D2E630000006C696D6947
:104684007420213D20305500096C696D69742063E4
:10469400616E6E6F74206265207A65726F0A000025
:1046A400696E697469616C5F636F756E74203C3DFB
:1046B400206C696D6974000009636F756E74206302
:1046C400616E6E6F742062652067726561746572D5
:1046D400207468616E206C696D69740A00000000C2
:1046E4002828285F6B65726E656C2E6E6573746521
:1046F4006420213D20305529203D3D203029207C57
:104704007C202874696D656F7574203D3D203029C7
:1047140029000000737461636B2D3E6E657874200C
:10472400213D20737461636B2D3E746F7000000033
:1047340009737461636B2069732066756C6C0A007D
:104744002F686F6D652F6D69616F752F70726F2F94
:1047540072697363762F7A65706879722F6B6572EC
:104764006E656C2F737461636B2E63005F77616990
:1047740074715F686561642826737461636B2D3E90
:10478400776169745F7129203D3D202828766F691F
:1047940064202A29302900002F686F6D652F6D6908
:1047A400616F752F70726F2F72697363762F7A65DC
:1047B400706879722F6B65726E656C2F74687265A0
:1047C40061642E63000000000954687265616473BB
:1047D400206D6179206E6F7420626520637265615B
:1047E40074656420696E20495352730A0000000006
:1047F4002F686F6D652F6D69616F752F70726F2FE4
:1048040072697363762F7A65706879722F6B65723B
:104814006E656C2F7468726561645F61626F727437
:104824002E630000287468726561642D3E626173B2
:10483400652E757365725F6F7074696F6E73202671
:1048440020282831554C203C3C202830292929296E
:10485400203D3D203000000009657373656E746966
:10486400616C207468726561642061626F72746542
:10487400640A00002F686F6D652F6D69616F752F75
:1048840070726F2F72697363762F7A6570687972AC
:104894002F6B65726E656C2F74696D656F75742E00
:1048A40063000000746F2D3E647469636B73203C75
:1048B40020300000742D3E647469636B73203E3DA8
:0448C40020300000A0
:1048C800203E0080B0080080AC060080AC06008066
:1048D80000000000343E0080D8070080AC0600804D
:1048E800AC0600800000000000000000000000008E
:1048F8000000000000000000000000000812008016
:10490800030000000C4900800C490080F5FFFFFF00
:04491800C04B008010
:10491C004C3C00800000000000000000583C00806F
:10492C000000000000000000403C0080AC43008010
:10493C0000000000283C0080000000000000000087
:0C494C00343C008000000000000000006F
:10495800004A00804000000001000200804A0080F8
:10496800010000000000000000000000404A008034
:104978004000000001000200984A00800100000089
:08498800000000000000000027
:104990009049008090490080000000000000000065
:0449A0000F00000004
:1049A400A4490080A4490080D05E0080D05E0080CD
:0849B400F85E00800000000025
:040000058000000077
:00000001FF
