:0200000480007A
:100000009702000093820201739052306F00D05328
:10001000130101FB2320110023223100232441007E
:100020002326510023286100232A7100232CC101BB
:10003000232ED1012320E1032322F1032324A10253
:100040002326B1022328C102232AD102232CE10254
:10005000232EF1022320010523221105F32210345F
:1000600023245104F322003023265104EF00001F03
:1000700013030000631E0502F3222034B70300803F
:100080009383F3FFB3F272001303B000638A62003C
:100090001305010097000000938040136F00503E4D
:1000A0008322810493824200232451046F000009BB
:1000B00093020100975300009383C30B03A14300F5
:1000C000130101FF2320510003AE0300130E1E0095
:1000D00023A0C30163080300970000009380C003BE
:1000E0006F00D04273252034B70200809382F2FF64
:1000F00033755500EF008015974200009382C2EEE1
:1001000013153500B382A20003A5020003A3420029
:10011000E7000300175300001303C3058323030004
:100120009383F3FF232073008322010013810200D5
:1001300083238300032E030263087E089752000086
:100140009382420303A3820023268302232893027F
:10015000232A2303232C3303232E43032320530575
:10016000232263052324730523268305232893056F
:10017000232AA305232CB30523242302975300002D
:10018000938343C703AE03002326C30703A30202DE
:1001900023A46200032183020324C30283240303F4
:1001A0000329430383298303032AC303832A030404
:1001B000032B4304832B8304032CC304832C0305E8
:1001C000032D4305832D830583228104739012340C
:1001D0008322C104739002308320010083214100F7
:1001E000032281008322C1000323010183234101F3
:1001F000032E8101832EC101032F0102832F4102AF
:10020000032581028325C1020326010383264103BE
:10021000032781038327C1030328010483284104A2
:100220001301010573002030730000009752000095
:10023000938242F403A382008323C30613758500CF
:10024000F3220530138503006780000013031000BC
:10025000B312A30073B3423467800000F32220344A
:1002600037030080B3F262001305000063840200CC
:08027000130515006780000072
:10027800938705001308060013870600130305007B
:100288006396062897480000938888ED63F6C50EA4
:10029800370701006378E60C1307F00F3337C70000
:1002A80013173700B356E600B388D80083C6080092
:1002B8003387E60093060002B386E640638C0600A7
:1002C800B397D7003357E5003318D600B365F70066
:1002D8003313D5001355080133F7A5021316080187
:1002E8001356060193560301B3D5A5021317070148
:1002F800B366D700B307B6021387050063FEF6009E
:10030800B38606011387F5FF63E8060163F6F60076
:100318001387E5FFB3860601B386F640B3F7A60256
:100328001313030113530301B3D6A60293970701CE
:1003380033E36700B305D60213850600637CB30078
:10034800330368001385F6FF636603016374B30023
:100358001385E6FF131707013367A700930500000D
:100368006F00400EB706000113070001E36CD6F2D8
:10037800130780016FF01FF3631606009306100041
:1003880033D8C602B70601006372D80C9306F00F83
:1003980063F4060113078000B356E800B388D80059
:1003A80083C60800B386E600130700023307D74068
:1003B8006318070AB387074193051000135608010D
:1003C8009318080193D808019356030133F7C7021D
:1003D800B3D7C70213170701B366D7003385F802EE
:1003E8001387070063FEA600B38606011387F7FF8D
:1003F80063E8060163F6A6001387E7FFB3860601E4
:10040800B386A640B3F7C6021313030113530301BF
:10041800B3D6C6029397070133E36700B388D802BF
:1004280013850600637C1301330368001385F6FF08
:1004380063660301637413011385E6FF131707014D
:100448003367A7001305070067800000B70600019F
:1004580013070001E362D8F4130780016FF0DFF39C
:100468003318E800B3D5D7003313E500B356D500E9
:1004780013550801B397E70033F7A502B3E8F60070
:100488009317080193D7070113D60801B3D5A5021E
:10049800131707013367C700B386B7021386050031
:1004A800637ED700330707011386F5FF63680701EA
:1004B8006376D7001386E5FF33070701B306D740F5
:1004C80033F7A6029398080193D80801B3D6A60279
:1004D80013170701B385D702B367170113870600FF
:1004E80063FEB700B38707011387F6FF63E80701C8
:1004F80063F6B7001387E6FFB3870701B387B740F2
:1005080093150601B3E5E5006FF05FEB63E6D518D8
:100518003707010063F4E6041308F00F3337D800F7
:100528001317370033D8E60097450000938545C375
:10053800B385050103C80500930500023308E800E8
:10054800B38505416396050213071000E3ECF6EE48
:100558003335C500134715006FF0DFEEB70500010E
:1005680013070001E3E0B6FC130780016FF09FFB5F
:1005780033570601B396B600B366D70093DE06017B
:1005880033D70701B378D703B397B70033580501BA
:100598003363F8009397060193D7070113580301B3
:1005A8003316B6003357D7039398080133E8080188
:1005B800338FE702130E0700637EE8013308D80083
:1005C800130EF7FF6368D8006376E801130EE7FFA0
:1005D8003308D8003308E841B378D8033358D80330
:1005E80093980801B38E07039317030193D7070164
:1005F800B3E7F8001307080063FED701B387D700F5
:100608001307F8FF63E8D70063F6D7011307E8FF7D
:10061800B387D700131E0E01B387D741B70E010069
:100628003367EE001388FEFF337307019358070101
:100638003378060113560601330E03033388080383
:1006480093560E013303C30233030301B3866600D6
:10065800B388C80263F40601B388D80113D606012B
:10066800B308160163E61703E39A17CFB70701002B
:100678009387F7FFB3F6F60093960601337EFE00E4
:100688003315B500B386C60193050000E37CD5DABF
:100698001307F7FF6FF09FCC9305000013070000C6
:1006A8006FF05FDA67800000B7570080938747E7ED
:1006B80003A70700130101FF2326E1000327C10058
:1006C8001307170023A0E70013010101678000004A
:1006D800130101FD232E1100232C81002324010383
:1006E8002326110363160504138606003745008088
:1006F8009306070013870500B74500801384070099
:1007080093858528930781021305852C2326F100FC
:10071800EF1080478325C10013050400EF10C04384
:10072800374500801305054AEF100046EF10101AF0
:100738008320C101032481011301010367800000A4
:10074800B7570080B755008037550080130101FE68
:1007580023AA07E69306F0FFB75700801306004068
:100768009385051A130505EB232E110023A807E628
:10077800EF20507DB7160080B755008037550080B0
:1007880023220100232001009308C0001308000061
:1007980093070000130700009386068E1306004097
:1007A8009385055A130505F3EF20D045B716008049
:1007B800B7650080375500809307000013070000D5
:1007C800938686951306004023220100232001000A
:1007D8009308C000130800009385059A130505FACD
:1007E800EF205042B7A5000037550080938505C417
:1007F800130585E4EF2090258320C101B7470080C9
:100808003747008037460080B74500809387C73B4D
:10081800130787279306B00D130686289385C53DD1
:1008280013351500130101026FF09FEA130101FD52
:1008380023229102B71400002324810223202103DC
:10084800232E3101232C410123261102130905000F
:1008580093848438EF30403CB304950033B4A4004B
:10086800B70900803304B4009389096B375A0080B4
:10087800EF30803A63C885026314B400636495025C
:100888008320C10203248102130509008324410245
:10089800032901028329C101032A810113010103EC
:1008A80067800000930510001305C1002322010092
:1008B8002324310123260100EF30803913751500F8
:1008C800631805009305410013050AEBEF109071BA
:1008D800130919006FF0DFF9130101FF232021012B
:1008E80037590080232481009305F0FF130589E21E
:1008F800375400802326110023229100130404E7B3
:10090800EF20D01403250400B7540080EFF01FF245
:100918002320A400138584E3EF20D00A9305F0FF79
:10092800130589E2EF20901203250400EFF01FF071
:100938002320A400032481008320C100032901008F
:10094800138584E383244100130101016F2090077C
:10095800130101FC2326B101B75D008013858DE2E8
:10096800232E1102232C8102232A910223282103FA
:100978002326310323244103232251032320610327
:10098800232E7101232C8101232A91012328A101FF
:10099800EF20500313050000EFF05FE9B75C00801B
:1009A800375D00001304050093050DE213858CE301
:1009B800EF20D00937490080B7440080374C0080C9
:1009C800B74B008093070C2F1307492613868428FA
:1009D80093854B319306200A13351500375A00804A
:1009E800EFF01FCF130A0AE7B759008003250A0062
:1009F800938949E783A709003305A400374B008092
:100A0800B74A00803305F540130749269307CB34CE
:100A1800138684289306500A93850A3713351500E0
:100A2800EFF01FCB9305A0001305A000EF10907303
:100A380013858DE2EF20007913050400EFF01FDF26
:100A480093050DE21304050013858CE3EF201000D5
:100A580093070C2F130749261386842893854B3157
:100A68009306F00A13351500EFF09FC603250A0018
:100A78009307CB34130749263304A40003A50900C0
:100A88001386842893850A373305A4401335150047
:100A98009306200BEFF0DFC3032481038320C103F7
:100AA80083244103032901038329C102032A810204
:100AB800832A4102032B0102832BC101032C8101EC
:100AC800832C4101032D0101832DC100375500807E
:100AD800130585E4130101046F20C06EB75500802B
:100AE80037450080938585DB130545416F1000610C
:100AF800130101FF232611002324810093076000BE
:100B08006304F502EF20500463040502EF20D003CC
:100B180063160504B74500809385C55F3745008097
:100B280013050561EF104006EF10000A6FF0DFFFB4
:100B3800EF209002E31C05FC3754008013040417CF
:100B4800832584003745008013050563EF10C00333
:100B580003258400EF2050346FF01FFDB745008057
:100B68009385855F6FF09FFB130101FB23248104AC
:100B7800232291042326110493076000930405009F
:100B88001384050063E0A70E3747008093172500FC
:100B980013074742B387E70083A70700678007006A
:100BA800374500801305C547EF00107EEF20005839
:100BB80083274404832804010328C4002328F1025E
:100BC8008327040403274400832604002326F10214
:100BD8008327C40303268404930505002324F10214
:100BE8008327840337450080130505502322F1022B
:100BF800832744032320F10283270403232EF100D3
:100C08008327C402232CF10083278402232AF100BE
:100C1800832744022328F100832704022326F100B6
:100C28008327C4012324F100832784012322F100B0
:100C3800832744012320F10083278400EF00D07428
:100C48009305040013850400EFF09FEA3745008000
:100C58001305454A6FF05FF5374500801305054CCD
:100C68006FF09FF437450080938504001305C54D48
:100C7800EF0090716FF09FF3130101FF23248100AF
:100C880023261100130405007326203413161600BA
:100C9800135616009307500063E8C70237470080D1
:100CA8009317260013070744B307F70083A5070027
:100CB8003745008013050546EF00106D93050400C5
:100CC80013050000EFF05FEAB7450080938585457E
:100CD8006FF01FFE130101FF23261100F3252034B6
:100CE800374500809395150093D5150013050573B6
:100CF800EF009069B745008093858565130540002E
:100D0800EFF09FE6B7570080938787E703A70700B0
:100D1800630C070003A3070023A00700B757008050
:100D280003A5C7E76700030067800000130101FF00
:100D380023261100EF108074EF00106BEF10C07ABB
:100D48001761000013018185B712000093820280A9
:100D580033015100EFF09FFD6F008011130101FD79
:100D6800232481022322910223202103232E3101EF
:100D780023261102938906009306F00093040500C8
:100D88001384050013090600639CD808B726008061
:100D98009386C644639CD90883260103938508007B
:100DA8001385040013064000232601012324F100C3
:100DB8002322E100EF20900C83278100930509FB93
:100DC800B305B40023AE040423A0040693F505FF7D
:100DD80023A8F502B7270000032741000328C10014
:100DE8009387078823A6F504B71700808320C102DC
:100DF80003248102938707D623A4350323A6E5029B
:100E080023AA050323A4F50423A4B4020329010299
:100E1800832441028329C101130101036780000073
:100E2800938608011306E001E378D6F6374600807A
:100E3800B7450080375500809306800113068675F4
:100E4800938505791305458323221101EF00D053BB
:100E58008328410037550080930600FF1306E00001
:100E68009385080013054585EF0010526F000000B8
:100E7800130101FF9307050013850500930506007C
:100E88001386060023261100E7800700EF20002ABA
:100E9800EF209000130101FF232291002326110067
:100EA8002324810023202101930405009305F0FFEA
:100EB80013850400EF10101413040500E30805FE61
:100EC800032945009305E0FF13058500EF20905A9C
:100ED800137515006306050013050400E7000900F3
:100EE800EF20C0166FF09FFC9307C0003387F50210
:100EF8008327C500B387E7000307B5006354B7002D
:100F080083A70700130700023347E6021375F601AB
:100F180013172700B387E70023A0F60067800000B7
:100F2800130101FE9306C100232E1100EFF0DFFB31
:100F38000327C100930710003395A70083270700F4
:100F48008320C101B3E7A7002320F70013010102A2
:100F580067800000130101FE9306C100232E1100D3
:100F6800EFF09FF80327C100930710003395A700FF
:100F7800832707008320C1011345F5FF33F5A70038
:100F88002320A70013010102678000008327450082
:100F980003588500130101FF232481003308F80258
:100FA80013040500032505008348A4001307F0FF78
:100FB8002326110023229100A305E40093050000D5
:100FC8001303C00033050501130EF001930E000250
:100FD80063C21503930400008357840063C4F406B6
:100FE8008320C100032481008324410013010101EF
:100FF800678000003357F8020326C400B3866502F1
:10100800B306D6001386460023A2C60023A4C60052
:10101800634EEE00A305B40093D7270093873700EB
:1010280093F7C7FF938515006FF09FFA1307F70131
:101038003347D70323A0A600131727003305E5007D
:101048006FF09FFD8327440013860400930500007A
:101058003387F402832704001305040093841400E3
:10106800B387E7000327C4009306470023A0D700EF
:101078008326870023A2D7008326870023A0F600B3
:101088002324F700EFF0DFE96FF01FF5130101FBF0
:1010980023248104232E31032328610323261104EA
:1010A8002322910423202105232C4103232A5103C1
:1010B8002326710323248103232291032320A103E0
:1010C800232EB10113040105034EA5009309F0FF77
:1010D800930EC00093172E009387F70093F7077FAE
:1010E8003301F14083274500130B010093080B00DF
:1010F8009387370093F7C7FF2320FB00930700006F
:10110800938DF7FF63D2C703638C070003A8C8FF5A
:1011180013582800130838001378C8FF23A00801C3
:1011280003A80800637AB8049307F0FF639AFD06E2
:1011380023200700130540FF130104FB8320C1048B
:101148000324810483244104032901048329C1035E
:10115800032A8103832A4103032B0103832BC10242
:10116800032C8102832C4102032D0102832DC1012E
:1011780013010105678000003388D7030323C500E6
:101188003308030113034800032848006304680078
:101198009389070093871700938848006FF05FF6DC
:1011A800E388F9F8834705011309000093F717004E
:1011B800638807001309800073390930137989009F
:1011C8009307C000B387F902232EE4FA938C060034
:1011D800130C0600930405009306F0FF13874700DD
:1011E8008327C500B387E70083AB070063847717BD
:1011F80083A70B0083A64B00139A2900330A4B01DF
:1012080023A0F60023A2D70083A7040003260A0020
:1012180093850900B387FB4033C6C70213850400D2
:1012280093891900EFF01FD31308C0009387F9FFC3
:1012380063C2B70583C7040193F7170063840700E7
:10124800732909302320BC01939D2D0083A7040036
:10125800330BBB0183260B00B387FB40130500004B
:10126800B3C7D70223A0FC008327C4FB23A07701C0
:101278006FF09FEC03AD040083270A00B38E0903C7
:10128800338DAB4193061000334DFD02131D2D0025
:10129800832A4A003386A60193850900338EDA0231
:1012A800138504002328D4FB232CD4FA938AFAFF4D
:1012B800338ECB01232AC4FBEFF09FC6032E44FBD9
:1012C80083A7040003A64400B30A5E01B38AFA4068
:1012D80083D78400832684FB832E04FBB387C7024D
:1012E8001308C000930840001303800063F4FA0257
:1012F80083A7C400B387D701138647002320CE00F5
:1013080003A687002322CE0003A687002320C60158
:1013180023A4C70193861600E39C16F783C704012C
:1013280093F71700639A07001309000093891900BF
:10133800130A4A006FF09FEF7329093083C704012D
:1013480093F71700E38207FE733903301379890096
:101358006FF0DFFD9389F9FF93874BFFE396D9E898
:10136800930B00006FF01FED130101FA232C810489
:10137800232A910423206105232E11042328210503
:10138800232631052324410523225105232E7103E9
:10139800232C8103232A91032328A1032326B103A5
:1013A800130401068347A500930405009306100063
:1013B800939727009387F70093F7077F3301F1404E
:1013C80083274500130B010013070B009387370091
:1013D80093F7C7FF2320FB001307470063FCD508DA
:1013E80083C7040113890500130A060093F7170041
:1013F800930900006388070093098000F3B9093056
:1014080093F98900930CC000130D8000930A4000E3
:10141800930DF00093172900B307FB0083AB070077
:1014280003D7840003A64400B3077A0383A6040005
:10143800138CFBFF3307C702B386F600B307FC0023
:1014480063E8E70437560080B755008037550080B9
:10145800130545839306200A130686889385C58B52
:10146800EF008072375500801305858DEF00C0713D
:101478006F0000008327C7FF9386160093D72700C5
:101488009387370093F7C7FF2320F7006FF0DFF447
:1014980013060A0093050900138504002326D4FACD
:1014A800EFF01FA8B307990303A7C4008326C4FA63
:1014B800B307F7001387470023A0E60003A78700B8
:1014C80023A2E60003A787002320D70023A4D70080
:1014D80083C7040193F71700639E0704930700006E
:1014E800938907006316090603C7040113771700D9
:1014F80063160710130104FA8320C105032481052C
:1015080083244105032901058329C104032A810491
:10151800832A4104032B0104832BC103032C810379
:10152800832C4103032D0103832DC10213010106FE
:1015380067800000F3A9093083C7040193F71700F7
:10154800E38E07F8F3370D3093F787006FF05FF9F4
:101558009306C4FB13060A009305090013850400CB
:101568002326F4FAEFF05F98334555038326C4FB2E
:101578008327C4FA1317250003A506003355E50091
:101588001375F500E312B5F7930700009378CAFFC7
:1015980083D6840083A544003386F8003308760395
:1015A800B386B602330788016370D7049305090030
:1015B80013850400232214FB2324F4FA232604FBB6
:1015C800EFF05F9903A704000328C4FA832844FABC
:1015D800832784FA33070701832647000327070078
:1015E80023A0E6002322D70093871700E39257FB36
:1015F8001309F9FF334A5A036FF0DFE1F3A7073005
:101608006FF05FEF130500006780000083A70500F7
:101618009387170023A0F500B757008003A307DEC0
:1016280067000300130101FB23248104232E3103E7
:10163800232C4103232A5103232861032326110461
:1016480023229104232021052326710323248103C7
:10165800232291032320A103232EB101130A05009D
:10166800938A050093090600138B060013041000E3
:101678006354E0001304070093071000130C0002E2
:101688006314FB00130C0003B7D49A3B1309100032
:10169800930CA000130700009384F49F930D20007F
:1016A800130DA000938B14006314070063F2340930
:1016B80033D5790393850A00130919001305050327
:1016C800E7000A0013071000938CFCFF9307100033
:1016D800B3F97903B3D4A403E396FCFC93850A0019
:1016E80013850903E7000A009307300033042441F7
:1016F800630AFB068320C104032481048324410474
:10170800032901048329C103032A8103832A41038E
:10171800032B0103832BC102032C8102832C41027A
:10172800032D0102832DC10113010105678000000B
:10173800E34C94F9E3EA6DF993850A0013050C006C
:101748002326E100E7000A00130919000327C10056
:101758006FF09FF793850A0013050002E7000A005F
:101768001304F4FFE34880FE6FF0DFF8B7570080FA
:1017780023A0A7DE67800000130101FB2324810456
:101788002322910423202105232E3103232C4103F6
:10179800232A51032328610323229103232EB10115
:1017A8002326110423267103232481032320A10364
:1017B8001304050093840500130B0600938C0600A0
:1017C800130A00001309F0FF93090000930D0000AD
:1017D800930A100003450B00631005048320C1041D
:1017E8000324810483244104032901048329C103B8
:1017F800032A8103832A4103032B0103832BC1029C
:10180800032C8102832C4102032D0102832DC10187
:101818001301010567800000639E0D0093065002C6
:10182800630AD53093850400E7000400130B1B00FE
:101838006FF05FFA93064006630ED51063E2A606C2
:101848009306900363EAA602930610036374D50E09
:101858009306D002630AD52E930700036300F50CA4
:10186800130750026312E502938504001305500222
:10187800E70004006F00001293068005630CD5167C
:1018880013073006630CE5289385040013055002FE
:10189800E70004009385040003450B006FF05FFD2B
:1018A800930600076308D51263E0A6029306900624
:1018B8006302D50A9306C006630AD5089306800614
:1018C800E306D5F66FF05FFC930650076302D50E6A
:1018D80063EEA60213073007E318E5FA138C4C00F1
:1018E80083AC0C00938B0C0003C50B00631605201A
:1018F800930730006398F900B38B9B41B30B794190
:1019080063447021930C0C006F00C0089306800795
:101918006302D50E9306A0076FF09FFA635E090075
:1019280063880922130905FDE39209F09309200051
:101938006FF0DFEFE34809FE9306A0003309D902F0
:10194800130909FD330925016FF01FFE130A1A0058
:101958006FF0DFED63C44A0503A60C00938C4C00BE
:1019680063500602938504001305D0022324C100A6
:10197800E7000400032681001309F9FF3306C0407D
:1019880013070900938609009385040013050400D2
:10199800EFF05FC9930D00006FF05FE993877C005B
:1019A80013F787FF930C8700032607006FF05FFB90
:1019B80063C84A0103A60C00938C4C006FF05FFCCF
:1019C80093877C0013F787FF930C87000326070093
:1019D8006FF01FFB9385040013050003E700040064
:1019E8009385040013058007E700040013098000AD
:1019F8009309100063CA4A0983A70C00938C4C0012
:101A08002324F10013068000130C0000130D0000BE
:101A18009305800083278100938BF5FF13952B0096
:101A280033D5A7001375F500631205089306000364
:101A380063140D00639655093385A60013158501B7
:101A480093850400135585412326C100E70004004F
:101A5800130C1C000326C10063940B04930630008A
:101A6800930D0000E394D9DC13171900330C874158
:101A7800E35280F39385040013050002E700040095
:101A8800130CFCFF6FF0DFFE93877C0093F687FF53
:101A980083A70600938C86002324F1006FF09FF63D
:101AA800138D0D0093850B006FF0DFF69307900000
:101AB80093067005E3E2A7F8930600036FF0DFF7DB
:101AC8009307F6FF2326F100634AC900639C590176
:101AD8009385040013050003E70004000326C100F2
:101AE8006FF05FFC93072000E39AF9FE93850400EA
:101AF800130500026FF05FFE93850400938B1B00B3
:101B0800E70004006FF05FDE938504001305000210
:101B1800E7000400938BFBFF6FF09FDE03A50C002A
:101B2800938B4C0093850400E7000400938C0B0012
:101B38006FF05FE6130A00001309F0FF9309000035
:101B4800930D10006FF09FCE930930006FF01FCEF9
:101B5800930910006FF09FCD130101FE13060500D5
:101B68003715008093860500130545619305C1006C
:101B7800232E110023260100EFF01FC08320C1018E
:101B88001301010267800000130101FC2322B10246
:101B980093054102232E11002324C1022326D102DA
:101BA8002328E102232AF102232C0103232E110307
:101BB8002326B100EFF05FFA8320C101130101046D
:101BC800678000006780000093078000F3A7073054
:101BD8007300501067800000930710003395A7002A
:101BE800732545306780000093078000F3B70730FE
:101BF800735040307350403467800000130101FF78
:101C080023248100232291003754008023261100C9
:101C18009307A00093040500130404E8631CF5006F
:101C2800032504009305D0008327450083A74700B8
:101C3800E78007000325040093F5F40F8327450088
:101C480083A74700E78007008320C10003248100A1
:101C580013850400832441001301010167800000FB
:101C680037250080130545C06FF05FB037550080F9
:101C7800130101FF1305C58D23261100EF00C07263
:101C8800B757008023A0A7E8EFF09FFD8320C1008D
:101C9800130500001301010167800000B70710F069
:101CA80003A747F403A507F483A547F4E39AE5FEE1
:101CB80067800000130101FE232C8100232E1100F0
:101CC800232A9100232821012326310113048000AF
:101CD80073340430B7540080938484E8EFF01FFC19
:101CE80003A9040083A9440013070500330525410F
:101CF8003337A700B385354137D601001306064CA4
:101D080093060000B385E540EFE08FD6B7D7010012
:101D18009387074CB387A70213748400338927017C
:101D2800B337F900B387370123A0240123A2F400B5
:101D380073240430032481018320C10183244101D9
:101D4800032901018329C100130101026F105057B3
:101D5800130101FF23261100EFF05FF4B7D701004C
:101D68009387074C370710F0B307F5009306F0FF89
:101D78002326D7F433B5A7003305B5002324F7F499
:101D88002326A7F413057000EFF01FE58320C10098
:101D9800130500001301010167800000639C050C16
:101DA800130101FF2324810023261100232291001F
:101DB8009307F0FF130405006316F500B7970000BA
:101DC8001384E7BC93048000F3B40430EFF01FEDF4
:101DD800379700009307F4FF1307E7BC93F48400D8
:101DE8006354F7089307070037D701009305074C9A
:101DF800B386B702B7570080938787E803A6070022
:101E080003A847009307F74BB387C740B387A700DA
:101E18003305A6401307703EB387D700B3D7B70280
:101E2800B387B7023305F5006344A700B387B7004B
:101E3800370710F03386C7009306F0FF2326D7F440
:101E4800B337F600B38707012324C7F42326F7F432
:101E5800F3A404308320C1000324810083244100BB
:101E68001301010167800000E3D007F89307000021
:101E78006FF09FF767800000130101FF23248100A2
:101E8800232611001304800073340430EFF01FE19F
:101E9800B757008083A787E8137484003305F5409B
:101EA800B7D701009387074C3355F50273240430E4
:101EB8008320C10003248100130101016780000011
:101EC8008347050003C705006394E700639607008E
:101ED8003385E740678000001305150093851500DA
:101EE8006FF01FFEB347B50093F73700638007060E
:101EF8009307050013070000631AE60667800000D1
:101F0800E30E06FE9385150003C7F5FF93871700B8
:101F18001306F6FFA38FE7FE13F73700E31207FE59
:101F2800930630003308E64063E60603135726009D
:101F38009306C0FFB306D70213172700B387E7003D
:101F4800B385E5003306D6006FF0DFFA9307050086
:101F58006FF09FFCB388E50083A808003388E7008A
:101F680013074700232018016FF0DFFB3388E500D3
:101F780003480800B386E70013071700238006010B
:101F88006FF09FF793F6F50F9307050013F73700E7
:101F98006318070493F5F50F13978500B365B70029
:101FA80013970501B365B7003383C700138707008C
:101FB80013083000B308E340636E18031357260074
:101FC80093152700B387B7009305C0FF3307B702FF
:101FD8003307C7003387E7006394E7026780000090
:101FE800E30E06FE93871700A38FD7FE1306F6FFAE
:101FF8006FF0DFF913074700232EB7FE6FF09FFB42
:1020080093871700A38FD7FE6FF01FFD130101FF01
:10201800232601008327C100938717002326F10098
:10202800B70701F023A0B700130101016780000082
:102038001305F0FF678000001305000067800000AB
:10204800130101FE232C810083278500375400806B
:10205800232A9100130444DEB7540080232E110074
:102068002328210123263101938404E993091000D0
:10207800232004001309050023A03401E78007008A
:102088008327490023203401E780070093072000B5
:102098002320F4008327C900E78007009307300056
:1020A8002320F4000324810123A004008320C1011C
:1020B80083244101032901018329C1003755008088
:1020C80013050501130101026F10C00F3755008079
:1020D800130101FFB75700801307F0FF130505012F
:1020E8002326110023A8E7E8EF10C00DEF10000425
:1020F8008320C100130101016F10005A130101FA76
:10210800232A9104B754008083A744E9232E11049D
:10211800232C810423282105232631052324410566
:102128002322510523206105232E7103232C8103CB
:10213800232A91032328A1032326B10363C4070894
:10214800375400801306100093090500138C05000E
:102158001305040193050000EF00107E3755008039
:102168009385090013050591EFF01FA237590080E8
:1021780013058992B75A0080EFF01FA1938444E9B0
:10218800130A0000232E8100B76C0080375B0080A3
:10219800372D0080B75D0080B75B0080938A4A9036
:1021A80083274C00639E07049385090063060A1081
:1021B8003755008013058599EFF01F9D9307100090
:1021C80023A0F4008320C10503248105832441054D
:1021D800032901058329C104032A8104832A4104B0
:1021E800032B0104832BC103032C8103832C41039C
:1021F800032D0103832DC10213010106678000002E
:1022080083250C00B757008013850797EFF0DF97F9
:102218002322010083270C0113070C00130600403A
:1022280093E787009308F0FF1308000093068D04D6
:102238002320F10093850CDA9307000013050B02A5
:10224800EF10401C8327C1019305F0FF1385070198
:10225800EF00D07F93870DE913050B0203A4070055
:10226800EF108043B7570080938707E903A707005B
:10227800130414009307E0FF1334140003260C0022
:102288006314F702B7550080938545981385CB985A
:10229800EFF09F8F13058992EFF01F8F330A8A00A2
:1022A800130C4C016FF0DFEF93172400B387FA008B
:1022B80083A507006FF09FFD375500801305059B28
:1022C800EFF09F8C83A70400B337F0006FF05FEF47
:1022D800B757008083A747E9130101FF2324810032
:1022E8003755008023261100375400801305859246
:1022F80063820702EFF05F89B75500809385C59C1C
:102308001305449D032481008320C10013010101AA
:102318006FF09F87EFF05F87B75500809385C59E64
:102328006FF01FFE130101FF23261100EFE00FFBE2
:102338008320C100130101016FF09FF913172500D5
:10234800B757008013051500938787A0131525003C
:10235800130101FF3387E700B387A7002324810017
:10236800232291000324070083A4070023261100D9
:10237800636C94008320C1000324810083244100FE
:10238800130101016780000083270400130504007E
:1023980083A74700E78007006304050023220400A1
:1023A8001304C4006FF0DFFC130101FFB75700806E
:1023B80023229100B7540080232481002326110092
:1023C800138487DF23202101938787DF938484E2A6
:1023D800631C940013090500138407006314940216
:1023E800130400006F00400403274400630807003B
:1023F80003270400032707006308A7021304C40087
:102408006FF01FFD83274400639607001304C40080
:102418006FF0DFFC832704001305090083A507007C
:10242800EFF01FAAE31405FE130504008320C10082
:1024380003248100832441000329010013010101C1
:1024480067800000130101FF2324810023229100EB
:10245800232611001304800093042000F33704306E
:10246800EF10C04163C4A4001305100093051000C9
:10247800EF10805FEFF04FF56FF05FFE375500808B
:10248800B7570080130605E79387C7193386C740F7
:1024980093050000130505E76FF0DFAE130101FF98
:1024A8001305200023261100EFF05FE9375500805F
:1024B8001305C5A2EFF04FED13053000EFF01FE84C
:1024C800EF104006EFF01FE6B7570080938707101C
:1024D80003C7C7001377E7FF2386E7008320C100FF
:1024E8001301010167800000130101F6232A9108F6
:1024F80093040101130600079305000013850400E7
:10250800232E1108232C8108232821092326310989
:10251800EFF05FA737540080B7770080930904175E
:10252800938707DA1305000023A2F900EFF01FE1F3
:1025380013051000EFF09FE09307101023A49900F3
:10254800231EF100EF00902EB75700809387C7A194
:10255800375900802322F100B72600809307100026
:10256800B7650080930409102320F10013070000C9
:102578009307000093080000130800009386464A5A
:10258800130600209385051A1305091023A0990244
:10259800EF00906383C7D4001304041713F7B7FF41
:1025A800A386E40093F7B701639C070003A704021E
:1025B8009307F0FF6316F70013050910EF00405E5C
:1025C800B7570080938747A22322F1003755008030
:1025D80093071000B7260080B765008093040509AB
:1025E8002320F1009308F00013080000930700006F
:1025F800130700009386C644130600209385053A06
:1026080013050509EF00505C83C7D4002326940006
:102618001305800093F7B7FFA386F400B75700802F
:1026280093878718232CF400232EF4007335053084
:1026380013758500EFD0DFBE8347D50093F7F70108
:10264800639A0700032705029307F0FF6314F70056
:102658006F00005567800000130101FD23248102EB
:102668002322910223202103232E31012326110244
:10267800232C410113040500138905009309060062
:102688002326D10093048000F3B404301305850099
:10269800EF00806C93F484008326C1006300050476
:1026A800130A0500EFF05FF923260A06232A3A01E8
:1026B80013850400EF000035130500008320C102D4
:1026C8000324810283244102032901028329C101D1
:1026D800032A81011301010367800000638806044F
:1026E80013058000EF10500D93070500130540FFF8
:1026F800E38607FC1307100023A2370123A0E70095
:1027080003A707009376370063180902032704001C
:102718003367D70023A0E700032744002320F400F1
:10272800E31807F82322F4006FF09FF823A00900AC
:10273800938709006FF0DFFC032709001377C7FFB1
:102748006318070223A0D700832644006398060075
:102758002322F4002320F4006FF09FF503A706005E
:102768001377370033E7E70023A0E6006FF09FFBFD
:102778003367D70023A0E700032509001375350048
:10278800B3E7A7002320F9006FF09FF2130101FFC0
:10279800232481002326110013040500630E05007D
:1027A8008327050093F73700638807000324450053
:1027B80063840500EF10407F130504008320C100E7
:1027C800032481001301010167800000930785003D
:1027D80023200500232205002324F5002326F500E5
:1027E80067800000138605008325450093060000D6
:1027F8006FF09FE6130101FF2324810023261100B7
:102808009307050013048000733404300325050082
:1028180013748400630005040327050083A647009A
:102828001377C7FF23A0E7006314D50023A2E700AE
:1028380093051000EFF09FF593070500732404300B
:102848008320C100032481001385070013010101BF
:102858006780000013860500639805007324043020
:10286800930700006FF0DFFD9385870013050400D0
:10287800EF00C07393070000E31405FCB75700800E
:1028880083A7871783A747016FF09FFB130101FFF9
:1028980023261100EFF04FDEB757008083A7C7E962
:1028A8008320C100375700803385A7002320A7184D
:1028B8009305000013850700130101016F10C01A6A
:1028C8001305800073350530137585006780000097
:1028D800130101FF23248100375400809307041754
:1028E8002322910083A447022326110093874702DD
:1028F800130404176384F400639404008324C4005D
:1029080083278400631805046386070403C7D70078
:102918001377F7016310070483A607021307F0FF74
:10292800639AE60283D6E7001307F0076374D702B9
:1029380037570080032747DF638EE7002320F40220
:102948008320C10003248100832441001301010175
:102958006780000063849700EFF05FF32320940200
:102968006FF01FFE130101FE232E1100232C81009E
:102978002326B10013040500EFF09FF4B757008039
:1029880023A00718130494009307A0003344F4020B
:102998008325C100B75700802324A10023AE87E810
:1029A800B757008023ACB7E8EFF05FEE032581004E
:1029B80013758500732505308320C1010324810127
:1029C8001301010267800000130101FF2324810025
:1029D8002326110013040500EFF09FEE930705006E
:1029E800032504006314A4001305000093F787006F
:1029F800F3A707308320C1000324810013010101DC
:102A080067800000B75700809387071783A60700E1
:102A180013070500639A060083A6870083A70702A9
:102A28006384F6006FD0CFFF1377870073270730D2
:102A380067800000130101FF2324810037540080C0
:102A480013040417832784002326110023229100EE
:102A580083C7F700639A070237560080B75500808E
:102A680037550080130545839306701D1306C6B0BD
:102A7800938585B3EFF04F91375500801305858D09
:102A8800EFF08F906F00000083270400638A07022D
:102A980037560080B75500803755008013054583A9
:102AA8009306801D1306C6B09385C5ACEFF0CF8D95
:102AB800375500801305858DEFF00F8D6F000000EE
:102AC800EFF01FE0032784009304050013051000AE
:102AD8008347F70093F4840093871700A307F70050
:102AE800EFF01FDFF3A404301305800073350530C1
:102AF800032481008320C1008324410013758500CD
:102B0800130101016FF01FF0B757008083A747DF5B
:102B18006398F50237560080B75500803755008016
:102B2800130101FF9306D0211306C6B0938585A62D
:102B38001305458323261100EFF00F856F00000071
:102B4800832705006310F5028327450023A0A5000D
:102B580023A2F5008327450023A0B7002322B50050
:102B680067800000E38207FE0387E5008386E700AD
:102B7800635ED70003A7470023A0F50023A2E50062
:102B88002320B70023A2B7006780000083264500F2
:102B9800E38CD7FA83A70700E39A07FC6FF0DFFA04
:102BA800130101FF23261100232481002322910011
:102BB80093040500EFF0DFD01304050037550080BB
:102BC8009385040013054519EFF01FF483C7D4005B
:102BD800130500001374840093E70704A386F40028
:102BE800EFF01FCF732404308320C1000324810039
:102BF8008324410013010101678000008347D50049
:102C080093F7F701639A0700032705029307F0FF7C
:102C18006314F7006FF0DFF867800000B757008093
:102C280083A747DF6398F50237560080B7550080C1
:102C380037550080130101FF9306C0221306C6B062
:102C4800938585A61305458323261100EFE0DFF35E
:102C58006F00000003A7450083A705002320F700A5
:102C680023A2E70067800000130101FF23248100ED
:102C7800232291001304050023261100EFF05FC4FE
:102C88009304050003258400631405023756008069
:102C9800B755008037550080930610151306C6B047
:102CA8009385C5A713054583EFE01FEE6F0000006D
:102CB80093050400EFF09FF68347D40093F4840053
:102CC80093F7D7FFA306F400F3A4043023240400E9
:102CD8008320C100032481008324410013010101E2
:102CE80067800000130101FF2324810023261100BF
:102CF80013040500EFF05FF7130584010324810036
:102D08008320C100130101016F001032832705FFE2
:102D1800130101FF2324810023229100232611009F
:102D280013040500930485FE6386070013850400D9
:102D3800EFF09FF3834754FF8320C10013850400FD
:102D480093F7B7FFA30AF4FE03248100832441000C
:102D5800130101016FF09FEA130101FF93050000C1
:102D68002324810023261100EFF01FC61304050059
:102D780063080500EFF05FEF13058401EF00D02A28
:102D8800130504008320C1000324810013010101FD
:102D980067800000130101FE2328210137590080B4
:102DA80013090917232E1100232C8100232A9100CF
:102DB800232631011304050093094902EFF05FB09F
:102DC800930504009304050013850900EFF01FE53F
:102DD8009305040013850900EFF01FD38347D4003F
:102DE8000325890093F4840093E70704330585409D
:102DF800A306F40013351500EFF09FADF3A40430DB
:102E08008320C10103248101832441010329010195
:102E18008329C1001301010267800000B7570080B1
:102E280083A7C7E963880706B75700809387071702
:102E380003A787009306F0070356E70063ECC60470
:102E4800B75600800306E70083A686E96344D604E4
:102E5800B756008083A646DF630ED7020326070213
:102E68009306F0FF6318D60283A607016340D502D4
:102E7800130101FF1305070023261100EFF09FF14E
:102E88008320C100130101016FF05FA0B386A64043
:102E980023A8D70067800000130101FF23248100C5
:102EA8002322910013040500232611002320210169
:102EB800EFF01FA18347D4009304050093F707049C
:102EC800638A070237590080130909171305490255
:102ED80093050400EFF09FD48347D40003258900AD
:102EE80093F7F7FB33058540A306F4001335150067
:102EF800EFF01F9E93F48400F3A404308320C100F4
:102F080003248100832441000329010013010101E6
:102F180067800000130101FF232481002322910010
:102F2800232021019304050023261100138905009D
:102F380013040600EFF05FF683C7D40093E7270079
:102F4800A386F400630A090023A4240193850400DE
:102F580013050900EFF05FBB9307F0FF630CF40261
:102F6800130694001304A00033468602032481004C
:102F78008320C100032901001385840183244100B3
:102F8800B7350080938545D113010101130616005A
:102F98006F00D0188320C1000324810083244100DE
:102FA800032901001301010167800000130101FFDB
:102FB800B7570080232481001304050003A5871751
:102FC80023261100EFF01FF51305040003248100E8
:102FD8008320C100130101016FD08FA4130101FFE9
:102FE8002322910023261100930405002324810045
:102FF8001305000003A4040063848400631C040018
:103008008320C100032481008324410013010101AE
:103018006780000013050400EFF0DFCC13050400FF
:10302800EFF0DFBD130510006FF0DFFCB75700802D
:10303800938707171387470223A2E70223A4E7020F
:1030480093050000130500006FF0DF91130101FFE5
:103058002324810037540080832704172326110076
:103068002322910023202101638A0702375600801A
:10307800B7550080375500801305458393066030A7
:103088001306C6B09385C5ACEFE01FB03755008076
:103098001305858DEFE05FAF6F0000001304041780
:1030A800B75700800327840083A747DF630CF70224
:1030B800EFF01F818325840013094402930405005F
:1030C80013050900EFF09FB5832584001305090057
:1030D80093F48400EFF05FA313051000EFF04FFFA7
:1030E800F3A4043003278400832704026304F7024F
:1030F8001305800073350530032481008320C10047
:10310800832441000329010013758500130101017F
:103118006FD00F918320C1000324810083244100D4
:10312800032901001301010167800000B7570080DF
:1031380003A5871767800000130101FF23261100EC
:10314800631A060237560080B7550080375500804D
:10315800130545839306D003130606B69385C5B8B1
:10316800EFE09FA237550080130585B9EFE0DFA196
:103178006F000000637AB60237560080B7550080AA
:1031880037550080130545839306E003130606B6FA
:10319800938505BBEFE05F9F37550080130585BC1D
:1031A800EFE09F9E6F0000008320C1002324B5003C
:1031B8002326C5002320A5002322A5001301010111
:1031C80067800000130101FF2324810023202101CF
:1031D80023261100232291001309050013048000FF
:1031E8007334043013748400EFF01FB763020504CE
:1031F8008347D5009304050093F7F701639A070006
:10320800032705029307F0FF6314F700EFF05F99B7
:1032180023A6040613050400032481008320C100AB
:103228008324410003290100130101016FF08FFD80
:10323800032789008327C900B387E740B337F00025
:10324800B387E7002324F9006FF0DFFCB75700804D
:1032580083A707171386050063800704638E05029A
:1032680037560080B755008037550080130101FF9D
:103278001305458393063008130606B6938505BFE4
:1032880023261100EFE05F90375500801305858DE8
:10329800EFE09F8F6F00000093078000F3B70730BF
:1032A8000327850093F78700630C07001307F7FFD0
:1032B8002324E500F3A7073013050000678000000A
:1032C80063180600F3A70730130500FF67800000A6
:1032D80093050500138507006FF05FCD130101FF0B
:1032E8002324810023261100130480007334043042
:1032F800138695009305A0003346B602B7350080C3
:10330800938545D1130585011374840013061600AF
:10331800EF00C060732404308320C10003248100BF
:1033280013010101678000008347D50093F7F70177
:10333800639A0700032705029307F0FF6314F70059
:103348006FF01F8667800000B757008003A5071736
:103358003335A00067800000B757008083A7871720
:1033680003C5C7001375150067800000678000005B
:10337800130101FF23248100232611001304800078
:10338800733404300347D5001374840093764700E0
:10339800639C0600732404308320C1000324810049
:1033A80013010101678000001377B7FFA306E5004A
:1033B800EFF09FF713050400032481008320C10068
:1033C800130101016FF00FE4130101FE0323010251
:1033D800232C8100232E11002320610013040500F3
:1033E800EFD0DF97B757008083A787178320C101E5
:1033F80083A787062324F40603248101130101020D
:10340800678000003753008003230317130101FE70
:10341800232A9100232E1100232C810083244102AA
:10342800630A030237560080B7550080375500807D
:10343800130545839306801A130646C29385C5ACC7
:10344800EFE08FF437550080130545C5EFE0CFF363
:103458006F0000000323010223220100130405006A
:1034680023206100EFF05FF69307F0FF6388F40014
:103478006392040213050400EFF09FEF13050400A4
:103488008320C10103248101832441011301010226
:10349800678000009385040013050400EFF01FE423
:1034A8006FF0DFFD83270506130101FF2324810048
:1034B800232611001304050063840700E780070032
:1034C8008347D40013F7F701631A0702832604021F
:1034D8001307F0FF6394E60213050400EFF0DF9B87
:1034E8008347D4008320C10093E78700A306F40034
:1034F80003248100130101016780000093F727006E
:103508006386070013050400EFF00FF60327040293
:103518009307F0FFE306F7FC13058401EF00C030C2
:103528006FF01FFC130101FDB7570080232E3101F6
:10353800B7590080232481022322910223261102F5
:1035480023202103138487E2938487E2938989E205
:1035580063603405B757008003A70717630C070695
:1035680037560080B75500803755008013054583CE
:103578009306200F130646A99385C5ACEFE0CFE06C
:10358800375500801305858DEFE00FE06F000000D0
:103598008327C4022322F100832704022320F10099
:1035A800832744018328C4010328840103270401D5
:1035B8008326C400032684008325440003250400D1
:1035C800EFF09FE08327040023AE8704130404036D
:1035D8006FF01FF89387071703A78700930610005B
:1035E8008347F700639AD70237560080B7550080A3
:1035F80037550080130545839306300F130646A9F7
:10360800938545AEEFE04FD8375500801305858D7B
:10361800EFE08FD76F0000009387F7FFA307F7004D
:103628001309800073390930138404001379890061
:103638009304F0FF63623403732909300324810281
:103648008320C10283244102032901028329C10185
:10365800130101036FF00FBE8325440263889500B0
:103668000325040063980500EFF09FD013040403BA
:103678006FF05FFCEFF09FC66FF05FFF9307F0FFFE
:103688002306D500A306C5002307B500A307050038
:103698002320F50267800000130101FF2324810025
:1036A8002326110023229100130480007334043070
:1036B8008347C50093F71700638A070237560080CF
:1036C800B7550080375500801305458393063002AF
:1036D8001306C6C7938505CBEFE00FCB375500809F
:1036E800130545CEEFE04FCA6F00000093040500B4
:1036F800EFF05FDBB757008003A707171374840048
:10370800630E0700732404308320C1000324810062
:103718008324410013010101678000009387071784
:1037280083A787001305040063949700EFC05FAF79
:10373800032481008320C100832441001301010177
:103748006FF04FAC130101FD2326110223248102DF
:10375800232EA100232CB100232AC1002328D10045
:10376800EFF0CF86832601010327C101832581015C
:10377800032641011304070193880600B716008049
:103788002322010023200100130504001308000070
:10379800930700009386C6E9EFF0DFC6130504001F
:1037A800032481028320C102B7550080938505D088
:1037B800130101036FF09FBBB757008083A707EA87
:1037C800639407006FE04FEB13050000678000006B
:1037D8001305800073350530137585006780000078
:1037E800832705006388070203274500630407024F
:1037F800B756008083A6C6DE630AD50083A6870075
:1038080003268500B386C60023A4D7002320F7002B
:1038180023A2E7009307F0FF2322050023200500D9
:103828002324F50067800000130101FF2324810091
:10383800232291002326110093040500EFF05FF97D
:1038480003A784009307F0FF130405001305F0FF96
:103858006308F70013850400EFF09FF813050000D4
:1038680013748400732404308320C100032481006E
:10387800832441001301010167800000B7570080CD
:1038880083C747EA130101FF23248100232611007F
:1038980023229100232021011304F0FF63960700DF
:1038A800370400801344F4FFEFF09FF2B75700800D
:1038B800938787DE03A90700930405006304F902D0
:1038C8006302090203248900EFF01FEF3305A440C7
:1038D800130400006348050003248900EFF0DFEDBE
:1038E8003304A44093F48400F3A40430B757008051
:1038F80083A707186386070063D48700138407002B
:10390800130504008320C10003248100832441009F
:103918000329010013010101678000008327850046
:10392800130101FE232E1100232C8100232A91006C
:1039380063CA070237560080B755008037550080A4
:1039480013054583930630041306C6D09385C5D363
:10395800EFE08FA3375500801305858DEFE0CFA2E8
:103968006F0000002326B5002326C10013040500BC
:10397800EFF01FE693040500EFF01FE40326C100F3
:103988006344C00013061000B757008003A787DE02
:103998003306A6002324C400938787DE6306F70056
:1039A80083A547006310070203A747002320F400FC
:1039B8002322E40003A747002320870023A28700CF
:1039C8006F0000068326870063DA060237560080F8
:1039D800B755008037550080130545839306C0040A
:1039E8001306C6D09385C5D4EFE00F9A37550080EB
:1039F8001305858DEFE04F996F00000003268400C2
:103A0800635AD604B386C6402324D70083264700CA
:103A18002320E4002322D40023A086002322870049
:103A280003A70700630AF7006318E400EFF01FE537
:103A380093050000EFE08FB693F48400F3A40430FC
:103A48008320C10103248101832441011301010260
:103A580067800000B306D6402324D400E386E5F44B
:103A6800032707006FF01FF4130101FE2326B1009E
:103A7800232E1100232C8100232A91009304050092
:103A8800EFF01FD513040500EFF05FDF8325C100B9
:103A980063DAA4009307100063D6A7001385040017
:103AA800EFE0CFAF13748400732404308320C10186
:103AB800032481018324410113010102678000006E
:103AC800130101FE232E1100232C8100232A9100CB
:103AD800130405002326310123244101B75900802E
:103AE80023282101375A0080EFF04FB3B7540080E4
:103AF800EFF01FCE130A8ADE23A089EA938484EAB2
:103B0800938909EA03240A0083A7090083A604000D
:103B180003A8440013798500630C4401630A040078
:103B28000327840063DEE7043307F7402324E40017
:103B3800B386D70013D7F74133070701B3B7F600A9
:103B4800B387E70023A0D40023A2F40023A0090030
:103B5800EFF0DFD293050000EFE04FA4732909309E
:103B68008320C10103248101832441010329010128
:103B78008329C100032A8100130101026780000024
:103B8800B306D7009355F74133B6E600B385050170
:103B98003306B600B387E740232404001305040066
:103BA80023A0D40023A2C40023A0F900EFF05FC330
:103BB800732909308327C40013050400E780070030
:103BC800EFF01FC16FF01FF4130101FF232611004E
:103BD80023248100EFF0DFBF13040500EFE0CFA935
:103BE80037570080130787EA930705000325070066
:103BF80083254700137484003385A700B337F50085
:103C0800B385B700732404308320C10003248100E6
:103C18001301010167800000130101FF2326110031
:103C2800EFF09FFA9307803E33B7A70213064006CA
:103C380093060000B385B7023385A702B385E50074
:103C4800EFC00FE38320C10013010101678000006A
:103C580093078000F3B707300327050093F7870021
:103C6800B365B7002320B500F3A707301305070095
:103C78006780000093078000F3B70730032705002B
:103C880093F78700B375B7002320B500F3A7073073
:103C98001305070067800000130101FF232481003A
:103CA8002322910037540080B75400802326110046
:103CB800130484E2938484E2636E94008320C10039
:103CC800032481008324410013050000130101012E
:103CD800678000009307440113050400232AF400B9
:103CE800232CF400EFD08FAA1304C4016FF0DFFC7B
:103CF800B757008083A70717130101FB23229104FC
:103D080023202105232E310323286103232EB1010B
:103D18002326110423248104232C4103232A51033D
:103D28002326710323248103232291032320A10343
:103D38009309050013890500130B0600938D0600EF
:103D480093040000638C07026386060437560080DC
:103D5800B7550080375500801305458393067003D7
:103D68001306C6D59385C5D8EFD01FE23755008016
:103D78001305858DEFD05FE16F000000635CD00014
:103D8800EFF09FE493849D009307A000B3C4F4026E
:103D9800B384A40037540080130484E23384894038
:103DA800B777DBB613542440938777DB3304F402E8
:103DB80037FAFFFFB71A0000930B50FF130C40FFB0
:103DC800130AFA0F938AFAFF930C8000138D4901A6
:103DD8001374F40F130709009306C100130681003A
:103DE80093050B0013850900EFD04FAA63127503E2
:103DF800130709009306C1001306810093050B0001
:103E080013850900EFD08FA863147501130540FFCF
:103E1800832781002302890093F7F700139787000F
:103E280083274900B3F74701B3E7E7000327C10039
:103E3800B3F757011317C700B3E7E7002322F900C8
:103E4800630C0502638A0D026318850373B50C3091
:103E580013860D0093050D0013758500EFF00F957F
:103E68009307F0FFE388FDF6EFF01FD6B38DA4406B
:103E7800E3D20DF6130550FF8320C1040324810407
:103E880083244104032901048329C103032A8103EC
:103E9800832A4103032B0103832BC102032C8102D4
:103EA800832C4102032D0102832DC1011301010559
:103EB80067800000130101FF23229100834405005D
:103EC8009307C00103260500B384F40223202101CF
:103ED8003759008093558600130989E21356C600A6
:103EE80093F5F50023248100232611001304800094
:103EF80033059900EFD04FC773340430138544015C
:103F08003305A90013748400EFF04F8D6306050292
:103F1800B757008083A707176390070213050400AB
:103F2800032481008320C100832441000329010068
:103F3800130101016FE01FAD732404308320C10019
:103F48000324810083244100032901001301010196
:103F58006780000013864500637EB60013050000E5
:103F680067800000130500008320C10113010102CE
:103F780067800000130101FE93060000930581008D
:103F8800232E1100EFF0DFD6E31E05FC0325810088
:103F9800130640009305C100EFD0DFF4032581002C
:103FA800130545006FF05FFC630605001305C5FFA8
:103FB8006FF05FF067800000B757008083A787170E
:103FC8009305050003A58706630405006FF09FF8B5
:0C3FD800130500006780000067800000F7
:103FE40000000000DC0C008000000000DC0C0080FD
:103FF40000000000DC0C008000000000DC0C0080ED
:1040040000000000DC0C008000000000DC0C0080DC
:1040140000000000DC0C008000000000BC1C0080DC
:1040240000000000DC0C008000000000DC0C0080BC
:1040340000000000DC0C008000000000DC0C0080AC
:1040440000000000DC0C008000000000DC0C00809C
:1040540000000000DC0C008000000000DC0C00808C
:1040640000000000DC0C008000000000DC0C00807C
:1040740000000000DC0C008000000000DC0C00806C
:1040840000000000DC0C008000000000DC0C00805C
:1040940000000000DC0C008000000000DC0C00804C
:1040A40000000000DC0C008000000000DC0C00803C
:1040B40000000000DC0C008000000000DC0C00802C
:1040C40000000000DC0C008000000000DC0C00801C
:1040D40000000000DC0C008000000000DC0C00800C
:1040E40000000000DC0C008000000000DC0C0080FC
:1040F40000000000DC0C008000000000DC0C0080EC
:1041040000000000DC0C008000000000DC0C0080DB
:1041140000000000DC0C008000000000DC0C0080CB
:1041240000000000DC0C008000000000DC0C0080BB
:1041340078440080741C008000000000E448008083
:10414400581D008000000000DC48008040200080F2
:104154000000000078440080A03C008000000000C3
:10416400000102020303030304040404040404041A
:1041740005050505050505050505050505050505EB
:1041840006060606060606060606060606060606CB
:1041940006060606060606060606060606060606BB
:1041A400070707070707070707070707070707079B
:1041B400070707070707070707070707070707078B
:1041C400070707070707070707070707070707077B
:1041D400070707070707070707070707070707076B
:1041E400080808080808080808080808080808084B
:1041F400080808080808080808080808080808083B
:10420400080808080808080808080808080808082A
:10421400080808080808080808080808080808081A
:10422400080808080808080808080808080808080A
:1042340008080808080808080808080808080808FA
:1042440008080808080808080808080808080808EA
:1042540008080808080808080808080808080808DA
:1042640072656772657373696F6E5F746872656196
:1042740064000000746573745F63726974696361D8
:104284006C0000002F686F6D652F6D69616F752F6D
:1042940070726F2F72697363762F7A6570687972A2
:1042A4002F74657374732F6B65726E656C2F6372F4
:1042B40069746963616C2F7372632F6D61696E2E0B
:1042C400630000000A202020204173736572746922
:1042D4006F6E206661696C65642061742025733A91
:1042E40025643A2025733A2025730A0054696D65C4
:1042F40064206F75742077616974696E6720666FD6
:104304007220524547524553535F53454D000000B8
:10431400286B5F73656D5F74616B65282652454732
:10432400524553535F53454D2C20544553545F54C9
:10433400494D454F555429203D3D20302069732077
:1043440066616C7365290000556E657870656374E9
:1043540065642076616C756520666F72203C6372BB
:1043640069746963616C5F7661723E002863726987
:10437400746963616C5F766172206E6F742065711D
:1043840075616C20746F206E63616C6C73202B20DC
:10439400616C745F7468726561645F69746572618D
:1043A40074696F6E73290000746573745F63726956
:1043B400746963616C00000054696D6564206F75F5
:1043C400742077616974696E6720666F7220544542
:1043D40053545F53454D0000286B5F73656D5F74E4
:1043E400616B652826544553545F53454D2C205426
:1043F4004553545F54494D454F5554202A20322982
:10440400203D3D20302069732066616C736529006E
:104414006B65726E656C5F637269746963616C006D
:10442400B40B00806C0C00806C0C0080A80B008026
:10443400B40B0080540C0080600C0080A8460080FF
:10444400C8460080E4460080F846008004470080A7
:104454001C470080756E6B6E6F776E0045786365E0
:104464007074696F6E2063617573652025732028ED
:104474002564290A000000002A2A2A2A204B657292
:104484006E656C20416C6C6F636174696F6E20465D
:1044940061696C75726521202A2A2A2A0A000000A3
:1044A4002A2A2A2A2A204B65726E656C204F4F50A7
:1044B4005321202A2A2A2A2A0A0000002A2A2A2AE0
:1044C4002A204B65726E656C2050616E69632120F1
:1044D4002A2A2A2A2A0A00002A2A2A2A20556E6B06
:1044E4006E6F776E20466174616C204572726F72D4
:1044F40020256421202A2A2A2A0A00004375727280
:10450400656E7420746872656164204944203D209E
:1045140025700A4661756C74696E6720696E7374E0
:1045240072756374696F6E2061646472657373205D
:104534003D20307825780A202072613A2030782591
:1045440078202067703A2030782578202074703ADB
:104554002030782578202074303A20307825780A65
:10456400202074313A2030782578202074323A2083
:1045740030782578202074333A203078257820202C
:1045840074343A20307825780A202074353A203063
:10459400782578202074363A2030782578202061D8
:1045A400303A2030782578202061313A203078253F
:1045B400780A202061323A2030782578202061332F
:1045C4003A2030782578202061343A2030782578D4
:1045D400202061353A20307825780A202061363A47
:1045E4002030782578202061373A20307825780AE1
:1045F4000000000049535200657373656E7469616D
:104604006C20746872656164000000004661746126
:104614006C206661756C7420696E202573212053AB
:1046240070696E6E696E672E2E2E0A004661746183
:104634006C206661756C7420696E207468726561A3
:1046440064202570212041626F7274696E672E0A9E
:1046540000000000ADBAADDEADBAADDEADBAADDE80
:10466400ADBAADDEADBAADDEADBAADDEADBAADDE7E
:10467400ADBAADDEADBAADDEADBAADDEADBAADDE6E
:10468400ADBAADDEADBAADDEADBAADDEADBAADDE5E
:10469400ADBAADDEADBAADDEADBAADDEADBAADDE4E
:1046A400ADBAADDE496E737472756374696F6E2052
:1046B40061646472657373206D6973616C69676E9C
:1046C40065640000496E737472756374696F6E205B
:1046D400416363657373206661756C740000000048
:1046E400496C6C6567616C20696E73747275637470
:1046F400696F6E00427265616B706F696E74000061
:104704004C6F61642061646472657373206D6973B6
:10471400616C69676E6564004C6F616420616363FA
:10472400657373206661756C740000005370757254
:10473400696F757320696E74657272757074206424
:104744006574656374656421204952513A20256477
:104754000A0000002F686F6D652F6D69616F752FFA
:1047640070726F2F72697363762F7A6570687972CD
:104774002F617263682F726973637633322F636FAC
:1047840072652F7468726561642E63002828282876
:104794007072696F726974792929203D3D20313521
:1047A400202626205F69735F69646C655F74687294
:1047B40065616428287468726561645F66756E63F8
:1047C400292929207C7C20285F69735F7072696FB6
:1047D4005F6869676865725F6F725F657175616C48
:1047E4002828287072696F7269747929292C202805
:1047F4003135202D20312929202626205F69735F39
:104804007072696F5F6C6F7765725F6F725F6571ED
:1048140075616C2828287072696F72697479292906
:104824002C2028282D313629292929290000000087
:10483400415353455254494F4E204641494C205B05
:1048440025735D20402025733A25640A000000008A
:1048540009696E76616C6964207072696F7269743B
:104864007920282564293B20616C6C6F776564206E
:1048740072616E67653A20256420746F2025640A8E
:10488400000000002F686F6D652F6D69616F752FD3
:1048940070726F2F72697363762F7A65706879729C
:1048A4002F6C69622F6D656D706F6F6C2F6D656D08
:1048B400706F6F6C2E630000626C6F636B5F666970
:1048C400747328702C20626C6F636B2C206C737A69
:1048D40029000000090A00007561727430000000AC
:1048E4007379735F636C6F636B0000003820008022
:1048F4001420008000000000000000000000000000
:10490400F8490080004A00808449008052756E6E28
:10491400696E6720746573742073756974652025E6
:10492400730A00003D3D3D3D3D3D3D3D3D3D3D3D2A
:104934003D3D3D3D3D3D3D3D3D3D3D3D3D3D3D3DA3
:104944003D3D3D3D3D3D3D3D3D3D3D3D3D3D3D3D93
:104954003D3D3D3D3D3D3D3D3D3D3D3D3D3D3D3D83
:104964003D3D3D3D3D3D3D0A0000000073746172D4
:1049740074696E672074657374202D2025730A0092
:10498400534B4950000000002573202D2025730A45
:1049940000000000546573742073756974652025E4
:1049A40073206661696C65642E0A00005465737433
:1049B4002073756974652025732073756363656559
:1049C4006465640A000000004641494C4544000007
:1049D40050524F4A45435420455845435554494F36
:1049E4004E2025730A000000535543434553534654
:1049F400554C000050415353000000004641494CBF
:104A040000000000F84D00801C4E0080284E0080FD
:104A1400284E0080284E00806D61696E0000000001
:104A240069646C65000000002A2A2A2A2A20426F41
:104A34006F74696E67205A6570687972204F5320CD
:104A44007A65706879722D76312E31332E302D339C
:104A54003032302D6733376633373434202A2A2AEC
:104A64002A2A0A00215F69735F69646C6528746887
:104A740072656164290000007468726561642D3E8A
:104A8400626173652E70656E6465645F6F6E0000AD
:104A94002F686F6D652F6D69616F752F70726F2F41
:104AA40072697363762F7A65706879722F6B657299
:104AB4006E656C2F696E636C7564652F6B736368C8
:104AC40065642E680000000021285F6B65726E65C6
:104AD4006C2E6E657374656420213D203055290069
:104AE4005F6B65726E656C2E63757272656E742D84
:104AF4003E626173652E73636865645F6C6F636B9C
:104B0400656420213D2031002F686F6D652F6D692C
:104B1400616F752F70726F2F72697363762F7A6568
:104B2400706879722F6B65726E656C2F736368653C
:104B3400642E63005F6B65726E656C2E63757272B2
:104B4400656E742D3E626173652E73636865645F80
:104B54006C6F636B656420213D2030002F686F6D9E
:104B6400652F6D69616F752F70726F2F7269736332
:104B7400762F7A65706879722F6B65726E656C2F0B
:104B840073656D2E630000006C696D697420213DAE
:104B940020305500096C696D69742063616E6E6F15
:104BA40074206265207A65726F0A0000696E697408
:104BB40069616C5F636F756E74203C3D206C696D38
:104BC4006974000009636F756E742063616E6E6FA3
:104BD400742062652067726561746572207468610F
:104BE4006E206C696D69740A000000002828285F33
:104BF4006B65726E656C2E6E657374656420213D01
:104C040020305529203D3D203029207C7C202874EB
:104C1400696D656F7574203D3D20302929000000C1
:104C24002F686F6D652F6D69616F752F70726F2FAF
:104C340072697363762F7A65706879722F6B657207
:104C44006E656C2F7468726561642E6300000000E9
:104C54000954687265616473206D6179206E6F74A4
:104C6400206265206372656174656420696E204901
:104C74005352730A000000002F686F6D652F6D6931
:104C8400616F752F70726F2F72697363762F7A65F7
:104C9400706879722F6B65726E656C2F74687265BB
:104CA40061645F61626F72742E63000028746872BD
:104CB4006561642D3E626173652E757365725F6F05
:104CC4007074696F6E73202620282831554C203C5F
:104CD4003C20283029292929203D3D20300000008E
:104CE40009657373656E7469616C207468726561BB
:104CF400642061626F727465640A0000776F726B7E
:104D040071756575650000002F686F6D652F6D699D
:104D1400616F752F70726F2F72697363762F7A6566
:104D2400706879722F6B65726E656C2F74696D652E
:104D34006F75742E63000000746F2D3E6474696394
:104D44006B73203C20300000742D3E647469636BE7
:104D540073203E3D203000002F686F6D652F6D6914
:104D6400616F752F70726F2F72697363762F7A6516
:104D7400706879722F6B65726E656C2F6D656D70DE
:104D84006F6F6C2E630000002128285F6B65726EC4
:104D9400656C2E6E657374656420213D2030552941
:104DA4002026262074696D656F757420213D20309E
:044DB40029000000D2
:104DB800AC43008048070080AC060080AC06008049
:104DC80000000000000000000000000000000000DB
:104DD80000000000000000000C1600800300000026
:104DE800E84D0080E84D0080F5FFFFFF90500080FF
:104DF8005841008000000000000000004C41008085
:104E0800F0480080000000003441008000000000ED
:104E18000000000040410080000000000000000089
:104E2800284E0080284E008000000000FFFFFFFF92
:104E3800384E0080384E008000000000FFFFFFFF62
:104E4800484E0080484E008000000000FFFFFFFF32
:104E5800584E0080584E00800000000000000000FE
:044E68000F00000037
:040000058000000077
:00000001FF
